{
	"data": {
		"bytecode": {
			"linkReferences": {},
			"object": "6080604052348015600e575f80fd5b506120c18061001c5f395ff3fe608060405234801561000f575f80fd5b50600436106100b2575f3560e01c80638da5cb5b1161006f5780638da5cb5b146101ab5780639426d36b146101c9578063a4e8441b146101e5578063e3b5399614610201578063e581f9ee1461021f578063f92b21ec1461023d576100b2565b806306ead22e146100b65780630d8e6e2c146100ee5780632ad04cd91461010c57806372d769bb1461012857806386a9b364146101445780638d27d6d61461017b575b5f80fd5b6100d060048036038101906100cb91906113c2565b61025b565b6040516100e5999897969594939291906114a1565b60405180910390f35b6100f6610385565b6040516101039190611533565b60405180910390f35b6101266004803603810190610121919061157d565b6103c2565b005b610142600480360381019061013d91906116e7565b610675565b005b61015e600480360381019061015991906113c2565b610ad9565b60405161017298979695949392919061178c565b60405180910390f35b610195600480360381019061019091906113c2565b610c72565b6040516101a2919061180f565b60405180910390f35b6101b3610cff565b6040516101c09190611867565b60405180910390f35b6101e360048036038101906101de9190611880565b610d22565b005b6101ff60048036038101906101fa91906113c2565b6110c6565b005b6102096112ed565b60405161021691906118f7565b60405180910390f35b610227611373565b60405161023491906118f7565b60405180910390f35b610245611379565b6040516102529190611910565b60405180910390f35b6001602052805f5260405f205f91509050805f01549080600101805461028090611956565b80601f01602080910402602001604051908101604052809291908181526020018280546102ac90611956565b80156102f75780601f106102ce576101008083540402835291602001916102f7565b820191905f5260205f20905b8154815290600101906020018083116102da57829003601f168201915b505050505090806002015f9054906101000a900460ff16908060020160019054906101000a900460ff16908060020160029054906101000a900460ff16908060020160039054906101000a900460ff16908060020160049054906101000a900460ff16908060020160059054906101000a900460ff16908060020160069054906101000a900460ff16905089565b60606040518060400160405280600481526020017f76332e3000000000000000000000000000000000000000000000000000000000815250905090565b5f8054906101000a900473ffffffffffffffffffffffffffffffffffffffff1673ffffffffffffffffffffffffffffffffffffffff163373ffffffffffffffffffffffffffffffffffffffff161461044f576040517f08c379a0000000000000000000000000000000000000000000000000000000008152600401610446906119f6565b60405180910390fd5b8160015f8281526020019081526020015f2060020160049054906101000a900460ff166104b1576040517f08c379a00000000000000000000000000000000000000000000000000000000081526004016104a890611a5e565b60405180910390fd5b60648260ff1611156104f8576040517f08c379a00000000000000000000000000000000000000000000000000000000081526004016104ef90611aec565b60405180910390fd5b5f60015f8581526020019081526020015f209050828160020160036101000a81548160ff021916908360ff1602179055505f8360ff168260020160029054906101000a900460ff1660ff168360020160019054906101000a900460ff1660ff16846002015f9054906101000a900460ff1660ff166105769190611b44565b6105809190611b44565b61058a9190611b44565b905061019060648261059c9190611b79565b6105a69190611be2565b8260020160056101000a81548160ff021916908360ff1602179055505f603c60ff168360020160059054906101000a900460ff1660ff1610159050808360020160066101000a81548160ff021916908315150217905550857f9195440fb68fd25b2ab7a73b2caef5a3437bb206b7e1656c076bbadfc8cba6ae8660405161062d9190611910565b60405180910390a2857ffceaee20ea0c6a7695d4098e27a1c6d0a5d39ae55cec3680a7cc4f87c6c99ae482604051610665919061180f565b60405180910390a2505050505050565b5f8054906101000a900473ffffffffffffffffffffffffffffffffffffffff1673ffffffffffffffffffffffffffffffffffffffff163373ffffffffffffffffffffffffffffffffffffffff1614610702576040517f08c379a00000000000000000000000000000000000000000000000000000000081526004016106f9906119f6565b60405180910390fd5b60015f8781526020019081526020015f2060020160049054906101000a900460ff1615610764576040517f08c379a000000000000000000000000000000000000000000000000000000000815260040161075b90611c5c565b60405180910390fd5b60648460ff1611156107ab576040517f08c379a00000000000000000000000000000000000000000000000000000000081526004016107a290611cea565b60405180910390fd5b60648360ff1611156107f2576040517f08c379a00000000000000000000000000000000000000000000000000000000081526004016107e990611d52565b60405180910390fd5b60648260ff161115610839576040517f08c379a000000000000000000000000000000000000000000000000000000000815260040161083090611dba565b60405180910390fd5b60648160ff161115610880576040517f08c379a000000000000000000000000000000000000000000000000000000000815260040161087790611aec565b60405180910390fd5b5f8160ff168360ff168560ff168760ff1661089b9190611b44565b6108a59190611b44565b6108af9190611b44565b90505f6101906064836108c29190611b79565b6108cc9190611be2565b90505f603c60ff168260ff16101590506040518061012001604052808a81526020018981526020018860ff1681526020018760ff1681526020018660ff1681526020018560ff1681526020016001151581526020018360ff16815260200182151581525060015f8b81526020019081526020015f205f820151815f0155602082015181600101908161095e9190611f75565b506040820151816002015f6101000a81548160ff021916908360ff16021790555060608201518160020160016101000a81548160ff021916908360ff16021790555060808201518160020160026101000a81548160ff021916908360ff16021790555060a08201518160020160036101000a81548160ff021916908360ff16021790555060c08201518160020160046101000a81548160ff02191690831515021790555060e08201518160020160056101000a81548160ff021916908360ff1602179055506101008201518160020160066101000a81548160ff02191690831515021790555090505060025f815480929190610a5990612044565b9190505550887f9682c9a3e9734a1f8d3a641838a5d7862f4eb29fcbf4bd04e0ccac28ffcfd22789604051610a8e9190611533565b60405180910390a2887ffceaee20ea0c6a7695d4098e27a1c6d0a5d39ae55cec3680a7cc4f87c6c99ae482604051610ac6919061180f565b60405180910390a2505050505050505050565b5f60605f805f805f808860015f8281526020019081526020015f2060020160049054906101000a900460ff16610b44576040517f08c379a0000000000000000000000000000000000000000000000000000000008152600401610b3b90611a5e565b60405180910390fd5b5f60015f8c81526020019081526020015f209050805f015481600101826002015f9054906101000a900460ff168360020160019054906101000a900460ff168460020160029054906101000a900460ff168560020160039054906101000a900460ff168660020160059054906101000a900460ff168760020160069054906101000a900460ff16868054610bd790611956565b80601f0160208091040260200160405190810160405280929190818152602001828054610c0390611956565b8015610c4e5780601f10610c2557610100808354040283529160200191610c4e565b820191905f5260205f20905b815481529060010190602001808311610c3157829003601f168201915b50505050509650995099509950995099509950995099505050919395975091939597565b5f8160015f8281526020019081526020015f2060020160049054906101000a900460ff16610cd5576040517f08c379a0000000000000000000000000000000000000000000000000000000008152600401610ccc90611a5e565b60405180910390fd5b60015f8481526020019081526020015f2060020160069054906101000a900460ff16915050919050565b5f8054906101000a900473ffffffffffffffffffffffffffffffffffffffff1681565b5f8054906101000a900473ffffffffffffffffffffffffffffffffffffffff1673ffffffffffffffffffffffffffffffffffffffff163373ffffffffffffffffffffffffffffffffffffffff1614610daf576040517f08c379a0000000000000000000000000000000000000000000000000000000008152600401610da6906119f6565b60405180910390fd5b8460015f8281526020019081526020015f2060020160049054906101000a900460ff16610e11576040517f08c379a0000000000000000000000000000000000000000000000000000000008152600401610e0890611a5e565b60405180910390fd5b60648560ff161115610e58576040517f08c379a0000000000000000000000000000000000000000000000000000000008152600401610e4f90611cea565b60405180910390fd5b60648460ff161115610e9f576040517f08c379a0000000000000000000000000000000000000000000000000000000008152600401610e9690611d52565b60405180910390fd5b60648360ff161115610ee6576040517f08c379a0000000000000000000000000000000000000000000000000000000008152600401610edd90611dba565b60405180910390fd5b60648260ff161115610f2d576040517f08c379a0000000000000000000000000000000000000000000000000000000008152600401610f2490611aec565b60405180910390fd5b5f60015f8881526020019081526020015f20905085816002015f6101000a81548160ff021916908360ff160217905550848160020160016101000a81548160ff021916908360ff160217905550838160020160026101000a81548160ff021916908360ff160217905550828160020160036101000a81548160ff021916908360ff1602179055505f8360ff168560ff168760ff168960ff16610fcf9190611b44565b610fd99190611b44565b610fe39190611b44565b9050610190606482610ff59190611b79565b610fff9190611be2565b8260020160056101000a81548160ff021916908360ff1602179055505f603c60ff168360020160059054906101000a900460ff1660ff1610159050808360020160066101000a81548160ff021916908315150217905550887fa2704734bc624bbcc8e9095f9d704e14cc50c1ab5110cf6929276a25ef635a7260405160405180910390a2887ffceaee20ea0c6a7695d4098e27a1c6d0a5d39ae55cec3680a7cc4f87c6c99ae4826040516110b3919061180f565b60405180910390a2505050505050505050565b5f8054906101000a900473ffffffffffffffffffffffffffffffffffffffff1673ffffffffffffffffffffffffffffffffffffffff163373ffffffffffffffffffffffffffffffffffffffff1614611153576040517f08c379a000000000000000000000000000000000000000000000000000000000815260040161114a906119f6565b60405180910390fd5b8060015f8281526020019081526020015f2060020160049054906101000a900460ff166111b5576040517f08c379a00000000000000000000000000000000000000000000000000000000081526004016111ac90611a5e565b60405180910390fd5b5f60015f8481526020019081526020015f2090505f8160020160039054906101000a900460ff1660ff168260020160029054906101000a900460ff1660ff168360020160019054906101000a900460ff1660ff16846002015f9054906101000a900460ff1660ff166112279190611b44565b6112319190611b44565b61123b9190611b44565b905061019060648261124d9190611b79565b6112579190611be2565b8260020160056101000a81548160ff021916908360ff1602179055505f603c60ff168360020160059054906101000a900460ff1660ff1610159050808360020160066101000a81548160ff021916908315150217905550847ffceaee20ea0c6a7695d4098e27a1c6d0a5d39ae55cec3680a7cc4f87c6c99ae4826040516112de919061180f565b60405180910390a25050505050565b5f805f90505f5b60025481101561136b5760015f8281526020019081526020015f2060020160049054906101000a900460ff16801561134a575060015f8281526020019081526020015f2060020160069054906101000a900460ff165b1561135e57818061135a90612044565b9250505b80806001019150506112f4565b508091505090565b60025481565b603c81565b5f604051905090565b5f80fd5b5f80fd5b5f819050919050565b6113a18161138f565b81146113ab575f80fd5b50565b5f813590506113bc81611398565b92915050565b5f602082840312156113d7576113d6611387565b5b5f6113e4848285016113ae565b91505092915050565b6113f68161138f565b82525050565b5f81519050919050565b5f82825260208201905092915050565b8281835e5f83830152505050565b5f601f19601f8301169050919050565b5f61143e826113fc565b6114488185611406565b9350611458818560208601611416565b61146181611424565b840191505092915050565b5f60ff82169050919050565b6114818161146c565b82525050565b5f8115159050919050565b61149b81611487565b82525050565b5f610120820190506114b55f83018c6113ed565b81810360208301526114c7818b611434565b90506114d6604083018a611478565b6114e36060830189611478565b6114f06080830188611478565b6114fd60a0830187611478565b61150a60c0830186611492565b61151760e0830185611478565b611525610100830184611492565b9a9950505050505050505050565b5f6020820190508181035f83015261154b8184611434565b905092915050565b61155c8161146c565b8114611566575f80fd5b50565b5f8135905061157781611553565b92915050565b5f806040838503121561159357611592611387565b5b5f6115a0858286016113ae565b92505060206115b185828601611569565b9150509250929050565b5f80fd5b5f80fd5b7f4e487b71000000000000000000000000000000000000000000000000000000005f52604160045260245ffd5b6115f982611424565b810181811067ffffffffffffffff82111715611618576116176115c3565b5b80604052505050565b5f61162a61137e565b905061163682826115f0565b919050565b5f67ffffffffffffffff821115611655576116546115c3565b5b61165e82611424565b9050602081019050919050565b828183375f83830152505050565b5f61168b6116868461163b565b611621565b9050828152602081018484840111156116a7576116a66115bf565b5b6116b284828561166b565b509392505050565b5f82601f8301126116ce576116cd6115bb565b5b81356116de848260208601611679565b91505092915050565b5f805f805f8060c0878903121561170157611700611387565b5b5f61170e89828a016113ae565b965050602087013567ffffffffffffffff81111561172f5761172e61138b565b5b61173b89828a016116ba565b955050604061174c89828a01611569565b945050606061175d89828a01611569565b935050608061176e89828a01611569565b92505060a061177f89828a01611569565b9150509295509295509295565b5f610100820190506117a05f83018b6113ed565b81810360208301526117b2818a611434565b90506117c16040830189611478565b6117ce6060830188611478565b6117db6080830187611478565b6117e860a0830186611478565b6117f560c0830185611478565b61180260e0830184611492565b9998505050505050505050565b5f6020820190506118225f830184611492565b92915050565b5f73ffffffffffffffffffffffffffffffffffffffff82169050919050565b5f61185182611828565b9050919050565b61186181611847565b82525050565b5f60208201905061187a5f830184611858565b92915050565b5f805f805f60a0868803121561189957611898611387565b5b5f6118a6888289016113ae565b95505060206118b788828901611569565b94505060406118c888828901611569565b93505060606118d988828901611569565b92505060806118ea88828901611569565b9150509295509295909350565b5f60208201905061190a5f8301846113ed565b92915050565b5f6020820190506119235f830184611478565b92915050565b7f4e487b71000000000000000000000000000000000000000000000000000000005f52602260045260245ffd5b5f600282049050600182168061196d57607f821691505b6020821081036119805761197f611929565b5b50919050565b7f4f6e6c79206f776e65722063616e2063616c6c20746869732066756e6374696f5f8201527f6e00000000000000000000000000000000000000000000000000000000000000602082015250565b5f6119e0602183611406565b91506119eb82611986565b604082019050919050565b5f6020820190508181035f830152611a0d816119d4565b9050919050565b7f53747564656e7420646f6573206e6f74206578697374000000000000000000005f82015250565b5f611a48601683611406565b9150611a5382611a14565b602082019050919050565b5f6020820190508181035f830152611a7581611a3c565b9050919050565b7f536369656e6365206d61726b732073686f756c64206265206f7574206f6620315f8201527f3030000000000000000000000000000000000000000000000000000000000000602082015250565b5f611ad6602283611406565b9150611ae182611a7c565b604082019050919050565b5f6020820190508181035f830152611b0381611aca565b9050919050565b5f61ffff82169050919050565b7f4e487b71000000000000000000000000000000000000000000000000000000005f52601160045260245ffd5b5f611b4e82611b0a565b9150611b5983611b0a565b9250828201905061ffff811115611b7357611b72611b17565b5b92915050565b5f611b8382611b0a565b9150611b8e83611b0a565b9250828202611b9c81611b0a565b9150808214611bae57611bad611b17565b5b5092915050565b7f4e487b71000000000000000000000000000000000000000000000000000000005f52601260045260245ffd5b5f611bec82611b0a565b9150611bf783611b0a565b925082611c0757611c06611bb5565b5b828204905092915050565b7f53747564656e7420494420616c726561647920657869737473000000000000005f82015250565b5f611c46601983611406565b9150611c5182611c12565b602082019050919050565b5f6020820190508181035f830152611c7381611c3a565b9050919050565b7f456e676c697368206d61726b732073686f756c64206265206f7574206f6620315f8201527f3030000000000000000000000000000000000000000000000000000000000000602082015250565b5f611cd4602283611406565b9150611cdf82611c7a565b604082019050919050565b5f6020820190508181035f830152611d0181611cc8565b9050919050565b7f48696e6469206d61726b732073686f756c64206265206f7574206f66203130305f82015250565b5f611d3c602083611406565b9150611d4782611d08565b602082019050919050565b5f6020820190508181035f830152611d6981611d30565b9050919050565b7f4d617468206d61726b732073686f756c64206265206f7574206f6620313030005f82015250565b5f611da4601f83611406565b9150611daf82611d70565b602082019050919050565b5f6020820190508181035f830152611dd181611d98565b9050919050565b5f819050815f5260205f209050919050565b5f6020601f8301049050919050565b5f82821b905092915050565b5f60088302611e347fffffffffffffffffffffffffffffffffffffffffffffffffffffffffffffffff82611df9565b611e3e8683611df9565b95508019841693508086168417925050509392505050565b5f819050919050565b5f611e79611e74611e6f8461138f565b611e56565b61138f565b9050919050565b5f819050919050565b611e9283611e5f565b611ea6611e9e82611e80565b848454611e05565b825550505050565b5f90565b611eba611eae565b611ec5818484611e89565b505050565b5b81811015611ee857611edd5f82611eb2565b600181019050611ecb565b5050565b601f821115611f2d57611efe81611dd8565b611f0784611dea565b81016020851015611f16578190505b611f2a611f2285611dea565b830182611eca565b50505b505050565b5f82821c905092915050565b5f611f4d5f1984600802611f32565b1980831691505092915050565b5f611f658383611f3e565b9150826002028217905092915050565b611f7e826113fc565b67ffffffffffffffff811115611f9757611f966115c3565b5b611fa18254611956565b611fac828285611eec565b5f60209050601f831160018114611fdd575f8415611fcb578287015190505b611fd58582611f5a565b86555061203c565b601f198416611feb86611dd8565b5f5b8281101561201257848901518255600182019150602085019450602081019050611fed565b8683101561202f578489015161202b601f891682611f3e565b8355505b6001600288020188555050505b505050505050565b5f61204e8261138f565b91507fffffffffffffffffffffffffffffffffffffffffffffffffffffffffffffffff82036120805761207f611b17565b5b60018201905091905056fea2646970667358221220691976e51ab25012ec82ed1fc02375ddcc3db13d9db8ce466e6529665838d61564736f6c634300081a0033",
			"opcodes": "PUSH1 0x80 PUSH1 0x40 MSTORE CALLVALUE DUP1 ISZERO PUSH1 0xE JUMPI PUSH0 DUP1 REVERT JUMPDEST POP PUSH2 0x20C1 DUP1 PUSH2 0x1C PUSH0 CODECOPY PUSH0 RETURN INVALID PUSH1 0x80 PUSH1 0x40 MSTORE CALLVALUE DUP1 ISZERO PUSH2 0xF JUMPI PUSH0 DUP1 REVERT JUMPDEST POP PUSH1 0x4 CALLDATASIZE LT PUSH2 0xB2 JUMPI PUSH0 CALLDATALOAD PUSH1 0xE0 SHR DUP1 PUSH4 0x8DA5CB5B GT PUSH2 0x6F JUMPI DUP1 PUSH4 0x8DA5CB5B EQ PUSH2 0x1AB JUMPI DUP1 PUSH4 0x9426D36B EQ PUSH2 0x1C9 JUMPI DUP1 PUSH4 0xA4E8441B EQ PUSH2 0x1E5 JUMPI DUP1 PUSH4 0xE3B53996 EQ PUSH2 0x201 JUMPI DUP1 PUSH4 0xE581F9EE EQ PUSH2 0x21F JUMPI DUP1 PUSH4 0xF92B21EC EQ PUSH2 0x23D JUMPI PUSH2 0xB2 JUMP JUMPDEST DUP1 PUSH4 0x6EAD22E EQ PUSH2 0xB6 JUMPI DUP1 PUSH4 0xD8E6E2C EQ PUSH2 0xEE JUMPI DUP1 PUSH4 0x2AD04CD9 EQ PUSH2 0x10C JUMPI DUP1 PUSH4 0x72D769BB EQ PUSH2 0x128 JUMPI DUP1 PUSH4 0x86A9B364 EQ PUSH2 0x144 JUMPI DUP1 PUSH4 0x8D27D6D6 EQ PUSH2 0x17B JUMPI JUMPDEST PUSH0 DUP1 REVERT JUMPDEST PUSH2 0xD0 PUSH1 0x4 DUP1 CALLDATASIZE SUB DUP2 ADD SWAP1 PUSH2 0xCB SWAP2 SWAP1 PUSH2 0x13C2 JUMP JUMPDEST PUSH2 0x25B JUMP JUMPDEST PUSH1 0x40 MLOAD PUSH2 0xE5 SWAP10 SWAP9 SWAP8 SWAP7 SWAP6 SWAP5 SWAP4 SWAP3 SWAP2 SWAP1 PUSH2 0x14A1 JUMP JUMPDEST PUSH1 0x40 MLOAD DUP1 SWAP2 SUB SWAP1 RETURN JUMPDEST PUSH2 0xF6 PUSH2 0x385 JUMP JUMPDEST PUSH1 0x40 MLOAD PUSH2 0x103 SWAP2 SWAP1 PUSH2 0x1533 JUMP JUMPDEST PUSH1 0x40 MLOAD DUP1 SWAP2 SUB SWAP1 RETURN JUMPDEST PUSH2 0x126 PUSH1 0x4 DUP1 CALLDATASIZE SUB DUP2 ADD SWAP1 PUSH2 0x121 SWAP2 SWAP1 PUSH2 0x157D JUMP JUMPDEST PUSH2 0x3C2 JUMP JUMPDEST STOP JUMPDEST PUSH2 0x142 PUSH1 0x4 DUP1 CALLDATASIZE SUB DUP2 ADD SWAP1 PUSH2 0x13D SWAP2 SWAP1 PUSH2 0x16E7 JUMP JUMPDEST PUSH2 0x675 JUMP JUMPDEST STOP JUMPDEST PUSH2 0x15E PUSH1 0x4 DUP1 CALLDATASIZE SUB DUP2 ADD SWAP1 PUSH2 0x159 SWAP2 SWAP1 PUSH2 0x13C2 JUMP JUMPDEST PUSH2 0xAD9 JUMP JUMPDEST PUSH1 0x40 MLOAD PUSH2 0x172 SWAP9 SWAP8 SWAP7 SWAP6 SWAP5 SWAP4 SWAP3 SWAP2 SWAP1 PUSH2 0x178C JUMP JUMPDEST PUSH1 0x40 MLOAD DUP1 SWAP2 SUB SWAP1 RETURN JUMPDEST PUSH2 0x195 PUSH1 0x4 DUP1 CALLDATASIZE SUB DUP2 ADD SWAP1 PUSH2 0x190 SWAP2 SWAP1 PUSH2 0x13C2 JUMP JUMPDEST PUSH2 0xC72 JUMP JUMPDEST PUSH1 0x40 MLOAD PUSH2 0x1A2 SWAP2 SWAP1 PUSH2 0x180F JUMP JUMPDEST PUSH1 0x40 MLOAD DUP1 SWAP2 SUB SWAP1 RETURN JUMPDEST PUSH2 0x1B3 PUSH2 0xCFF JUMP JUMPDEST PUSH1 0x40 MLOAD PUSH2 0x1C0 SWAP2 SWAP1 PUSH2 0x1867 JUMP JUMPDEST PUSH1 0x40 MLOAD DUP1 SWAP2 SUB SWAP1 RETURN JUMPDEST PUSH2 0x1E3 PUSH1 0x4 DUP1 CALLDATASIZE SUB DUP2 ADD SWAP1 PUSH2 0x1DE SWAP2 SWAP1 PUSH2 0x1880 JUMP JUMPDEST PUSH2 0xD22 JUMP JUMPDEST STOP JUMPDEST PUSH2 0x1FF PUSH1 0x4 DUP1 CALLDATASIZE SUB DUP2 ADD SWAP1 PUSH2 0x1FA SWAP2 SWAP1 PUSH2 0x13C2 JUMP JUMPDEST PUSH2 0x10C6 JUMP JUMPDEST STOP JUMPDEST PUSH2 0x209 PUSH2 0x12ED JUMP JUMPDEST PUSH1 0x40 MLOAD PUSH2 0x216 SWAP2 SWAP1 PUSH2 0x18F7 JUMP JUMPDEST PUSH1 0x40 MLOAD DUP1 SWAP2 SUB SWAP1 RETURN JUMPDEST PUSH2 0x227 PUSH2 0x1373 JUMP JUMPDEST PUSH1 0x40 MLOAD PUSH2 0x234 SWAP2 SWAP1 PUSH2 0x18F7 JUMP JUMPDEST PUSH1 0x40 MLOAD DUP1 SWAP2 SUB SWAP1 RETURN JUMPDEST PUSH2 0x245 PUSH2 0x1379 JUMP JUMPDEST PUSH1 0x40 MLOAD PUSH2 0x252 SWAP2 SWAP1 PUSH2 0x1910 JUMP JUMPDEST PUSH1 0x40 MLOAD DUP1 SWAP2 SUB SWAP1 RETURN JUMPDEST PUSH1 0x1 PUSH1 0x20 MSTORE DUP1 PUSH0 MSTORE PUSH1 0x40 PUSH0 KECCAK256 PUSH0 SWAP2 POP SWAP1 POP DUP1 PUSH0 ADD SLOAD SWAP1 DUP1 PUSH1 0x1 ADD DUP1 SLOAD PUSH2 0x280 SWAP1 PUSH2 0x1956 JUMP JUMPDEST DUP1 PUSH1 0x1F ADD PUSH1 0x20 DUP1 SWAP2 DIV MUL PUSH1 0x20 ADD PUSH1 0x40 MLOAD SWAP1 DUP2 ADD PUSH1 0x40 MSTORE DUP1 SWAP3 SWAP2 SWAP1 DUP2 DUP2 MSTORE PUSH1 0x20 ADD DUP3 DUP1 SLOAD PUSH2 0x2AC SWAP1 PUSH2 0x1956 JUMP JUMPDEST DUP1 ISZERO PUSH2 0x2F7 JUMPI DUP1 PUSH1 0x1F LT PUSH2 0x2CE JUMPI PUSH2 0x100 DUP1 DUP4 SLOAD DIV MUL DUP4 MSTORE SWAP2 PUSH1 0x20 ADD SWAP2 PUSH2 0x2F7 JUMP JUMPDEST DUP3 ADD SWAP2 SWAP1 PUSH0 MSTORE PUSH1 0x20 PUSH0 KECCAK256 SWAP1 JUMPDEST DUP2 SLOAD DUP2 MSTORE SWAP1 PUSH1 0x1 ADD SWAP1 PUSH1 0x20 ADD DUP1 DUP4 GT PUSH2 0x2DA JUMPI DUP3 SWAP1 SUB PUSH1 0x1F AND DUP3 ADD SWAP2 JUMPDEST POP POP POP POP POP SWAP1 DUP1 PUSH1 0x2 ADD PUSH0 SWAP1 SLOAD SWAP1 PUSH2 0x100 EXP SWAP1 DIV PUSH1 0xFF AND SWAP1 DUP1 PUSH1 0x2 ADD PUSH1 0x1 SWAP1 SLOAD SWAP1 PUSH2 0x100 EXP SWAP1 DIV PUSH1 0xFF AND SWAP1 DUP1 PUSH1 0x2 ADD PUSH1 0x2 SWAP1 SLOAD SWAP1 PUSH2 0x100 EXP SWAP1 DIV PUSH1 0xFF AND SWAP1 DUP1 PUSH1 0x2 ADD PUSH1 0x3 SWAP1 SLOAD SWAP1 PUSH2 0x100 EXP SWAP1 DIV PUSH1 0xFF AND SWAP1 DUP1 PUSH1 0x2 ADD PUSH1 0x4 SWAP1 SLOAD SWAP1 PUSH2 0x100 EXP SWAP1 DIV PUSH1 0xFF AND SWAP1 DUP1 PUSH1 0x2 ADD PUSH1 0x5 SWAP1 SLOAD SWAP1 PUSH2 0x100 EXP SWAP1 DIV PUSH1 0xFF AND SWAP1 DUP1 PUSH1 0x2 ADD PUSH1 0x6 SWAP1 SLOAD SWAP1 PUSH2 0x100 EXP SWAP1 DIV PUSH1 0xFF AND SWAP1 POP DUP10 JUMP JUMPDEST PUSH1 0x60 PUSH1 0x40 MLOAD DUP1 PUSH1 0x40 ADD PUSH1 0x40 MSTORE DUP1 PUSH1 0x4 DUP2 MSTORE PUSH1 0x20 ADD PUSH32 0x76332E3000000000000000000000000000000000000000000000000000000000 DUP2 MSTORE POP SWAP1 POP SWAP1 JUMP JUMPDEST PUSH0 DUP1 SLOAD SWAP1 PUSH2 0x100 EXP SWAP1 DIV PUSH20 0xFFFFFFFFFFFFFFFFFFFFFFFFFFFFFFFFFFFFFFFF AND PUSH20 0xFFFFFFFFFFFFFFFFFFFFFFFFFFFFFFFFFFFFFFFF AND CALLER PUSH20 0xFFFFFFFFFFFFFFFFFFFFFFFFFFFFFFFFFFFFFFFF AND EQ PUSH2 0x44F JUMPI PUSH1 0x40 MLOAD PUSH32 0x8C379A000000000000000000000000000000000000000000000000000000000 DUP2 MSTORE PUSH1 0x4 ADD PUSH2 0x446 SWAP1 PUSH2 0x19F6 JUMP JUMPDEST PUSH1 0x40 MLOAD DUP1 SWAP2 SUB SWAP1 REVERT JUMPDEST DUP2 PUSH1 0x1 PUSH0 DUP3 DUP2 MSTORE PUSH1 0x20 ADD SWAP1 DUP2 MSTORE PUSH1 0x20 ADD PUSH0 KECCAK256 PUSH1 0x2 ADD PUSH1 0x4 SWAP1 SLOAD SWAP1 PUSH2 0x100 EXP SWAP1 DIV PUSH1 0xFF AND PUSH2 0x4B1 JUMPI PUSH1 0x40 MLOAD PUSH32 0x8C379A000000000000000000000000000000000000000000000000000000000 DUP2 MSTORE PUSH1 0x4 ADD PUSH2 0x4A8 SWAP1 PUSH2 0x1A5E JUMP JUMPDEST PUSH1 0x40 MLOAD DUP1 SWAP2 SUB SWAP1 REVERT JUMPDEST PUSH1 0x64 DUP3 PUSH1 0xFF AND GT ISZERO PUSH2 0x4F8 JUMPI PUSH1 0x40 MLOAD PUSH32 0x8C379A000000000000000000000000000000000000000000000000000000000 DUP2 MSTORE PUSH1 0x4 ADD PUSH2 0x4EF SWAP1 PUSH2 0x1AEC JUMP JUMPDEST PUSH1 0x40 MLOAD DUP1 SWAP2 SUB SWAP1 REVERT JUMPDEST PUSH0 PUSH1 0x1 PUSH0 DUP6 DUP2 MSTORE PUSH1 0x20 ADD SWAP1 DUP2 MSTORE PUSH1 0x20 ADD PUSH0 KECCAK256 SWAP1 POP DUP3 DUP2 PUSH1 0x2 ADD PUSH1 0x3 PUSH2 0x100 EXP DUP2 SLOAD DUP2 PUSH1 0xFF MUL NOT AND SWAP1 DUP4 PUSH1 0xFF AND MUL OR SWAP1 SSTORE POP PUSH0 DUP4 PUSH1 0xFF AND DUP3 PUSH1 0x2 ADD PUSH1 0x2 SWAP1 SLOAD SWAP1 PUSH2 0x100 EXP SWAP1 DIV PUSH1 0xFF AND PUSH1 0xFF AND DUP4 PUSH1 0x2 ADD PUSH1 0x1 SWAP1 SLOAD SWAP1 PUSH2 0x100 EXP SWAP1 DIV PUSH1 0xFF AND PUSH1 0xFF AND DUP5 PUSH1 0x2 ADD PUSH0 SWAP1 SLOAD SWAP1 PUSH2 0x100 EXP SWAP1 DIV PUSH1 0xFF AND PUSH1 0xFF AND PUSH2 0x576 SWAP2 SWAP1 PUSH2 0x1B44 JUMP JUMPDEST PUSH2 0x580 SWAP2 SWAP1 PUSH2 0x1B44 JUMP JUMPDEST PUSH2 0x58A SWAP2 SWAP1 PUSH2 0x1B44 JUMP JUMPDEST SWAP1 POP PUSH2 0x190 PUSH1 0x64 DUP3 PUSH2 0x59C SWAP2 SWAP1 PUSH2 0x1B79 JUMP JUMPDEST PUSH2 0x5A6 SWAP2 SWAP1 PUSH2 0x1BE2 JUMP JUMPDEST DUP3 PUSH1 0x2 ADD PUSH1 0x5 PUSH2 0x100 EXP DUP2 SLOAD DUP2 PUSH1 0xFF MUL NOT AND SWAP1 DUP4 PUSH1 0xFF AND MUL OR SWAP1 SSTORE POP PUSH0 PUSH1 0x3C PUSH1 0xFF AND DUP4 PUSH1 0x2 ADD PUSH1 0x5 SWAP1 SLOAD SWAP1 PUSH2 0x100 EXP SWAP1 DIV PUSH1 0xFF AND PUSH1 0xFF AND LT ISZERO SWAP1 POP DUP1 DUP4 PUSH1 0x2 ADD PUSH1 0x6 PUSH2 0x100 EXP DUP2 SLOAD DUP2 PUSH1 0xFF MUL NOT AND SWAP1 DUP4 ISZERO ISZERO MUL OR SWAP1 SSTORE POP DUP6 PUSH32 0x9195440FB68FD25B2AB7A73B2CAEF5A3437BB206B7E1656C076BBADFC8CBA6AE DUP7 PUSH1 0x40 MLOAD PUSH2 0x62D SWAP2 SWAP1 PUSH2 0x1910 JUMP JUMPDEST PUSH1 0x40 MLOAD DUP1 SWAP2 SUB SWAP1 LOG2 DUP6 PUSH32 0xFCEAEE20EA0C6A7695D4098E27A1C6D0A5D39AE55CEC3680A7CC4F87C6C99AE4 DUP3 PUSH1 0x40 MLOAD PUSH2 0x665 SWAP2 SWAP1 PUSH2 0x180F JUMP JUMPDEST PUSH1 0x40 MLOAD DUP1 SWAP2 SUB SWAP1 LOG2 POP POP POP POP POP POP JUMP JUMPDEST PUSH0 DUP1 SLOAD SWAP1 PUSH2 0x100 EXP SWAP1 DIV PUSH20 0xFFFFFFFFFFFFFFFFFFFFFFFFFFFFFFFFFFFFFFFF AND PUSH20 0xFFFFFFFFFFFFFFFFFFFFFFFFFFFFFFFFFFFFFFFF AND CALLER PUSH20 0xFFFFFFFFFFFFFFFFFFFFFFFFFFFFFFFFFFFFFFFF AND EQ PUSH2 0x702 JUMPI PUSH1 0x40 MLOAD PUSH32 0x8C379A000000000000000000000000000000000000000000000000000000000 DUP2 MSTORE PUSH1 0x4 ADD PUSH2 0x6F9 SWAP1 PUSH2 0x19F6 JUMP JUMPDEST PUSH1 0x40 MLOAD DUP1 SWAP2 SUB SWAP1 REVERT JUMPDEST PUSH1 0x1 PUSH0 DUP8 DUP2 MSTORE PUSH1 0x20 ADD SWAP1 DUP2 MSTORE PUSH1 0x20 ADD PUSH0 KECCAK256 PUSH1 0x2 ADD PUSH1 0x4 SWAP1 SLOAD SWAP1 PUSH2 0x100 EXP SWAP1 DIV PUSH1 0xFF AND ISZERO PUSH2 0x764 JUMPI PUSH1 0x40 MLOAD PUSH32 0x8C379A000000000000000000000000000000000000000000000000000000000 DUP2 MSTORE PUSH1 0x4 ADD PUSH2 0x75B SWAP1 PUSH2 0x1C5C JUMP JUMPDEST PUSH1 0x40 MLOAD DUP1 SWAP2 SUB SWAP1 REVERT JUMPDEST PUSH1 0x64 DUP5 PUSH1 0xFF AND GT ISZERO PUSH2 0x7AB JUMPI PUSH1 0x40 MLOAD PUSH32 0x8C379A000000000000000000000000000000000000000000000000000000000 DUP2 MSTORE PUSH1 0x4 ADD PUSH2 0x7A2 SWAP1 PUSH2 0x1CEA JUMP JUMPDEST PUSH1 0x40 MLOAD DUP1 SWAP2 SUB SWAP1 REVERT JUMPDEST PUSH1 0x64 DUP4 PUSH1 0xFF AND GT ISZERO PUSH2 0x7F2 JUMPI PUSH1 0x40 MLOAD PUSH32 0x8C379A000000000000000000000000000000000000000000000000000000000 DUP2 MSTORE PUSH1 0x4 ADD PUSH2 0x7E9 SWAP1 PUSH2 0x1D52 JUMP JUMPDEST PUSH1 0x40 MLOAD DUP1 SWAP2 SUB SWAP1 REVERT JUMPDEST PUSH1 0x64 DUP3 PUSH1 0xFF AND GT ISZERO PUSH2 0x839 JUMPI PUSH1 0x40 MLOAD PUSH32 0x8C379A000000000000000000000000000000000000000000000000000000000 DUP2 MSTORE PUSH1 0x4 ADD PUSH2 0x830 SWAP1 PUSH2 0x1DBA JUMP JUMPDEST PUSH1 0x40 MLOAD DUP1 SWAP2 SUB SWAP1 REVERT JUMPDEST PUSH1 0x64 DUP2 PUSH1 0xFF AND GT ISZERO PUSH2 0x880 JUMPI PUSH1 0x40 MLOAD PUSH32 0x8C379A000000000000000000000000000000000000000000000000000000000 DUP2 MSTORE PUSH1 0x4 ADD PUSH2 0x877 SWAP1 PUSH2 0x1AEC JUMP JUMPDEST PUSH1 0x40 MLOAD DUP1 SWAP2 SUB SWAP1 REVERT JUMPDEST PUSH0 DUP2 PUSH1 0xFF AND DUP4 PUSH1 0xFF AND DUP6 PUSH1 0xFF AND DUP8 PUSH1 0xFF AND PUSH2 0x89B SWAP2 SWAP1 PUSH2 0x1B44 JUMP JUMPDEST PUSH2 0x8A5 SWAP2 SWAP1 PUSH2 0x1B44 JUMP JUMPDEST PUSH2 0x8AF SWAP2 SWAP1 PUSH2 0x1B44 JUMP JUMPDEST SWAP1 POP PUSH0 PUSH2 0x190 PUSH1 0x64 DUP4 PUSH2 0x8C2 SWAP2 SWAP1 PUSH2 0x1B79 JUMP JUMPDEST PUSH2 0x8CC SWAP2 SWAP1 PUSH2 0x1BE2 JUMP JUMPDEST SWAP1 POP PUSH0 PUSH1 0x3C PUSH1 0xFF AND DUP3 PUSH1 0xFF AND LT ISZERO SWAP1 POP PUSH1 0x40 MLOAD DUP1 PUSH2 0x120 ADD PUSH1 0x40 MSTORE DUP1 DUP11 DUP2 MSTORE PUSH1 0x20 ADD DUP10 DUP2 MSTORE PUSH1 0x20 ADD DUP9 PUSH1 0xFF AND DUP2 MSTORE PUSH1 0x20 ADD DUP8 PUSH1 0xFF AND DUP2 MSTORE PUSH1 0x20 ADD DUP7 PUSH1 0xFF AND DUP2 MSTORE PUSH1 0x20 ADD DUP6 PUSH1 0xFF AND DUP2 MSTORE PUSH1 0x20 ADD PUSH1 0x1 ISZERO ISZERO DUP2 MSTORE PUSH1 0x20 ADD DUP4 PUSH1 0xFF AND DUP2 MSTORE PUSH1 0x20 ADD DUP3 ISZERO ISZERO DUP2 MSTORE POP PUSH1 0x1 PUSH0 DUP12 DUP2 MSTORE PUSH1 0x20 ADD SWAP1 DUP2 MSTORE PUSH1 0x20 ADD PUSH0 KECCAK256 PUSH0 DUP3 ADD MLOAD DUP2 PUSH0 ADD SSTORE PUSH1 0x20 DUP3 ADD MLOAD DUP2 PUSH1 0x1 ADD SWAP1 DUP2 PUSH2 0x95E SWAP2 SWAP1 PUSH2 0x1F75 JUMP JUMPDEST POP PUSH1 0x40 DUP3 ADD MLOAD DUP2 PUSH1 0x2 ADD PUSH0 PUSH2 0x100 EXP DUP2 SLOAD DUP2 PUSH1 0xFF MUL NOT AND SWAP1 DUP4 PUSH1 0xFF AND MUL OR SWAP1 SSTORE POP PUSH1 0x60 DUP3 ADD MLOAD DUP2 PUSH1 0x2 ADD PUSH1 0x1 PUSH2 0x100 EXP DUP2 SLOAD DUP2 PUSH1 0xFF MUL NOT AND SWAP1 DUP4 PUSH1 0xFF AND MUL OR SWAP1 SSTORE POP PUSH1 0x80 DUP3 ADD MLOAD DUP2 PUSH1 0x2 ADD PUSH1 0x2 PUSH2 0x100 EXP DUP2 SLOAD DUP2 PUSH1 0xFF MUL NOT AND SWAP1 DUP4 PUSH1 0xFF AND MUL OR SWAP1 SSTORE POP PUSH1 0xA0 DUP3 ADD MLOAD DUP2 PUSH1 0x2 ADD PUSH1 0x3 PUSH2 0x100 EXP DUP2 SLOAD DUP2 PUSH1 0xFF MUL NOT AND SWAP1 DUP4 PUSH1 0xFF AND MUL OR SWAP1 SSTORE POP PUSH1 0xC0 DUP3 ADD MLOAD DUP2 PUSH1 0x2 ADD PUSH1 0x4 PUSH2 0x100 EXP DUP2 SLOAD DUP2 PUSH1 0xFF MUL NOT AND SWAP1 DUP4 ISZERO ISZERO MUL OR SWAP1 SSTORE POP PUSH1 0xE0 DUP3 ADD MLOAD DUP2 PUSH1 0x2 ADD PUSH1 0x5 PUSH2 0x100 EXP DUP2 SLOAD DUP2 PUSH1 0xFF MUL NOT AND SWAP1 DUP4 PUSH1 0xFF AND MUL OR SWAP1 SSTORE POP PUSH2 0x100 DUP3 ADD MLOAD DUP2 PUSH1 0x2 ADD PUSH1 0x6 PUSH2 0x100 EXP DUP2 SLOAD DUP2 PUSH1 0xFF MUL NOT AND SWAP1 DUP4 ISZERO ISZERO MUL OR SWAP1 SSTORE POP SWAP1 POP POP PUSH1 0x2 PUSH0 DUP2 SLOAD DUP1 SWAP3 SWAP2 SWAP1 PUSH2 0xA59 SWAP1 PUSH2 0x2044 JUMP JUMPDEST SWAP2 SWAP1 POP SSTORE POP DUP9 PUSH32 0x9682C9A3E9734A1F8D3A641838A5D7862F4EB29FCBF4BD04E0CCAC28FFCFD227 DUP10 PUSH1 0x40 MLOAD PUSH2 0xA8E SWAP2 SWAP1 PUSH2 0x1533 JUMP JUMPDEST PUSH1 0x40 MLOAD DUP1 SWAP2 SUB SWAP1 LOG2 DUP9 PUSH32 0xFCEAEE20EA0C6A7695D4098E27A1C6D0A5D39AE55CEC3680A7CC4F87C6C99AE4 DUP3 PUSH1 0x40 MLOAD PUSH2 0xAC6 SWAP2 SWAP1 PUSH2 0x180F JUMP JUMPDEST PUSH1 0x40 MLOAD DUP1 SWAP2 SUB SWAP1 LOG2 POP POP POP POP POP POP POP POP POP JUMP JUMPDEST PUSH0 PUSH1 0x60 PUSH0 DUP1 PUSH0 DUP1 PUSH0 DUP1 DUP9 PUSH1 0x1 PUSH0 DUP3 DUP2 MSTORE PUSH1 0x20 ADD SWAP1 DUP2 MSTORE PUSH1 0x20 ADD PUSH0 KECCAK256 PUSH1 0x2 ADD PUSH1 0x4 SWAP1 SLOAD SWAP1 PUSH2 0x100 EXP SWAP1 DIV PUSH1 0xFF AND PUSH2 0xB44 JUMPI PUSH1 0x40 MLOAD PUSH32 0x8C379A000000000000000000000000000000000000000000000000000000000 DUP2 MSTORE PUSH1 0x4 ADD PUSH2 0xB3B SWAP1 PUSH2 0x1A5E JUMP JUMPDEST PUSH1 0x40 MLOAD DUP1 SWAP2 SUB SWAP1 REVERT JUMPDEST PUSH0 PUSH1 0x1 PUSH0 DUP13 DUP2 MSTORE PUSH1 0x20 ADD SWAP1 DUP2 MSTORE PUSH1 0x20 ADD PUSH0 KECCAK256 SWAP1 POP DUP1 PUSH0 ADD SLOAD DUP2 PUSH1 0x1 ADD DUP3 PUSH1 0x2 ADD PUSH0 SWAP1 SLOAD SWAP1 PUSH2 0x100 EXP SWAP1 DIV PUSH1 0xFF AND DUP4 PUSH1 0x2 ADD PUSH1 0x1 SWAP1 SLOAD SWAP1 PUSH2 0x100 EXP SWAP1 DIV PUSH1 0xFF AND DUP5 PUSH1 0x2 ADD PUSH1 0x2 SWAP1 SLOAD SWAP1 PUSH2 0x100 EXP SWAP1 DIV PUSH1 0xFF AND DUP6 PUSH1 0x2 ADD PUSH1 0x3 SWAP1 SLOAD SWAP1 PUSH2 0x100 EXP SWAP1 DIV PUSH1 0xFF AND DUP7 PUSH1 0x2 ADD PUSH1 0x5 SWAP1 SLOAD SWAP1 PUSH2 0x100 EXP SWAP1 DIV PUSH1 0xFF AND DUP8 PUSH1 0x2 ADD PUSH1 0x6 SWAP1 SLOAD SWAP1 PUSH2 0x100 EXP SWAP1 DIV PUSH1 0xFF AND DUP7 DUP1 SLOAD PUSH2 0xBD7 SWAP1 PUSH2 0x1956 JUMP JUMPDEST DUP1 PUSH1 0x1F ADD PUSH1 0x20 DUP1 SWAP2 DIV MUL PUSH1 0x20 ADD PUSH1 0x40 MLOAD SWAP1 DUP2 ADD PUSH1 0x40 MSTORE DUP1 SWAP3 SWAP2 SWAP1 DUP2 DUP2 MSTORE PUSH1 0x20 ADD DUP3 DUP1 SLOAD PUSH2 0xC03 SWAP1 PUSH2 0x1956 JUMP JUMPDEST DUP1 ISZERO PUSH2 0xC4E JUMPI DUP1 PUSH1 0x1F LT PUSH2 0xC25 JUMPI PUSH2 0x100 DUP1 DUP4 SLOAD DIV MUL DUP4 MSTORE SWAP2 PUSH1 0x20 ADD SWAP2 PUSH2 0xC4E JUMP JUMPDEST DUP3 ADD SWAP2 SWAP1 PUSH0 MSTORE PUSH1 0x20 PUSH0 KECCAK256 SWAP1 JUMPDEST DUP2 SLOAD DUP2 MSTORE SWAP1 PUSH1 0x1 ADD SWAP1 PUSH1 0x20 ADD DUP1 DUP4 GT PUSH2 0xC31 JUMPI DUP3 SWAP1 SUB PUSH1 0x1F AND DUP3 ADD SWAP2 JUMPDEST POP POP POP POP POP SWAP7 POP SWAP10 POP SWAP10 POP SWAP10 POP SWAP10 POP SWAP10 POP SWAP10 POP SWAP10 POP SWAP10 POP POP POP SWAP2 SWAP4 SWAP6 SWAP8 POP SWAP2 SWAP4 SWAP6 SWAP8 JUMP JUMPDEST PUSH0 DUP2 PUSH1 0x1 PUSH0 DUP3 DUP2 MSTORE PUSH1 0x20 ADD SWAP1 DUP2 MSTORE PUSH1 0x20 ADD PUSH0 KECCAK256 PUSH1 0x2 ADD PUSH1 0x4 SWAP1 SLOAD SWAP1 PUSH2 0x100 EXP SWAP1 DIV PUSH1 0xFF AND PUSH2 0xCD5 JUMPI PUSH1 0x40 MLOAD PUSH32 0x8C379A000000000000000000000000000000000000000000000000000000000 DUP2 MSTORE PUSH1 0x4 ADD PUSH2 0xCCC SWAP1 PUSH2 0x1A5E JUMP JUMPDEST PUSH1 0x40 MLOAD DUP1 SWAP2 SUB SWAP1 REVERT JUMPDEST PUSH1 0x1 PUSH0 DUP5 DUP2 MSTORE PUSH1 0x20 ADD SWAP1 DUP2 MSTORE PUSH1 0x20 ADD PUSH0 KECCAK256 PUSH1 0x2 ADD PUSH1 0x6 SWAP1 SLOAD SWAP1 PUSH2 0x100 EXP SWAP1 DIV PUSH1 0xFF AND SWAP2 POP POP SWAP2 SWAP1 POP JUMP JUMPDEST PUSH0 DUP1 SLOAD SWAP1 PUSH2 0x100 EXP SWAP1 DIV PUSH20 0xFFFFFFFFFFFFFFFFFFFFFFFFFFFFFFFFFFFFFFFF AND DUP2 JUMP JUMPDEST PUSH0 DUP1 SLOAD SWAP1 PUSH2 0x100 EXP SWAP1 DIV PUSH20 0xFFFFFFFFFFFFFFFFFFFFFFFFFFFFFFFFFFFFFFFF AND PUSH20 0xFFFFFFFFFFFFFFFFFFFFFFFFFFFFFFFFFFFFFFFF AND CALLER PUSH20 0xFFFFFFFFFFFFFFFFFFFFFFFFFFFFFFFFFFFFFFFF AND EQ PUSH2 0xDAF JUMPI PUSH1 0x40 MLOAD PUSH32 0x8C379A000000000000000000000000000000000000000000000000000000000 DUP2 MSTORE PUSH1 0x4 ADD PUSH2 0xDA6 SWAP1 PUSH2 0x19F6 JUMP JUMPDEST PUSH1 0x40 MLOAD DUP1 SWAP2 SUB SWAP1 REVERT JUMPDEST DUP5 PUSH1 0x1 PUSH0 DUP3 DUP2 MSTORE PUSH1 0x20 ADD SWAP1 DUP2 MSTORE PUSH1 0x20 ADD PUSH0 KECCAK256 PUSH1 0x2 ADD PUSH1 0x4 SWAP1 SLOAD SWAP1 PUSH2 0x100 EXP SWAP1 DIV PUSH1 0xFF AND PUSH2 0xE11 JUMPI PUSH1 0x40 MLOAD PUSH32 0x8C379A000000000000000000000000000000000000000000000000000000000 DUP2 MSTORE PUSH1 0x4 ADD PUSH2 0xE08 SWAP1 PUSH2 0x1A5E JUMP JUMPDEST PUSH1 0x40 MLOAD DUP1 SWAP2 SUB SWAP1 REVERT JUMPDEST PUSH1 0x64 DUP6 PUSH1 0xFF AND GT ISZERO PUSH2 0xE58 JUMPI PUSH1 0x40 MLOAD PUSH32 0x8C379A000000000000000000000000000000000000000000000000000000000 DUP2 MSTORE PUSH1 0x4 ADD PUSH2 0xE4F SWAP1 PUSH2 0x1CEA JUMP JUMPDEST PUSH1 0x40 MLOAD DUP1 SWAP2 SUB SWAP1 REVERT JUMPDEST PUSH1 0x64 DUP5 PUSH1 0xFF AND GT ISZERO PUSH2 0xE9F JUMPI PUSH1 0x40 MLOAD PUSH32 0x8C379A000000000000000000000000000000000000000000000000000000000 DUP2 MSTORE PUSH1 0x4 ADD PUSH2 0xE96 SWAP1 PUSH2 0x1D52 JUMP JUMPDEST PUSH1 0x40 MLOAD DUP1 SWAP2 SUB SWAP1 REVERT JUMPDEST PUSH1 0x64 DUP4 PUSH1 0xFF AND GT ISZERO PUSH2 0xEE6 JUMPI PUSH1 0x40 MLOAD PUSH32 0x8C379A000000000000000000000000000000000000000000000000000000000 DUP2 MSTORE PUSH1 0x4 ADD PUSH2 0xEDD SWAP1 PUSH2 0x1DBA JUMP JUMPDEST PUSH1 0x40 MLOAD DUP1 SWAP2 SUB SWAP1 REVERT JUMPDEST PUSH1 0x64 DUP3 PUSH1 0xFF AND GT ISZERO PUSH2 0xF2D JUMPI PUSH1 0x40 MLOAD PUSH32 0x8C379A000000000000000000000000000000000000000000000000000000000 DUP2 MSTORE PUSH1 0x4 ADD PUSH2 0xF24 SWAP1 PUSH2 0x1AEC JUMP JUMPDEST PUSH1 0x40 MLOAD DUP1 SWAP2 SUB SWAP1 REVERT JUMPDEST PUSH0 PUSH1 0x1 PUSH0 DUP9 DUP2 MSTORE PUSH1 0x20 ADD SWAP1 DUP2 MSTORE PUSH1 0x20 ADD PUSH0 KECCAK256 SWAP1 POP DUP6 DUP2 PUSH1 0x2 ADD PUSH0 PUSH2 0x100 EXP DUP2 SLOAD DUP2 PUSH1 0xFF MUL NOT AND SWAP1 DUP4 PUSH1 0xFF AND MUL OR SWAP1 SSTORE POP DUP5 DUP2 PUSH1 0x2 ADD PUSH1 0x1 PUSH2 0x100 EXP DUP2 SLOAD DUP2 PUSH1 0xFF MUL NOT AND SWAP1 DUP4 PUSH1 0xFF AND MUL OR SWAP1 SSTORE POP DUP4 DUP2 PUSH1 0x2 ADD PUSH1 0x2 PUSH2 0x100 EXP DUP2 SLOAD DUP2 PUSH1 0xFF MUL NOT AND SWAP1 DUP4 PUSH1 0xFF AND MUL OR SWAP1 SSTORE POP DUP3 DUP2 PUSH1 0x2 ADD PUSH1 0x3 PUSH2 0x100 EXP DUP2 SLOAD DUP2 PUSH1 0xFF MUL NOT AND SWAP1 DUP4 PUSH1 0xFF AND MUL OR SWAP1 SSTORE POP PUSH0 DUP4 PUSH1 0xFF AND DUP6 PUSH1 0xFF AND DUP8 PUSH1 0xFF AND DUP10 PUSH1 0xFF AND PUSH2 0xFCF SWAP2 SWAP1 PUSH2 0x1B44 JUMP JUMPDEST PUSH2 0xFD9 SWAP2 SWAP1 PUSH2 0x1B44 JUMP JUMPDEST PUSH2 0xFE3 SWAP2 SWAP1 PUSH2 0x1B44 JUMP JUMPDEST SWAP1 POP PUSH2 0x190 PUSH1 0x64 DUP3 PUSH2 0xFF5 SWAP2 SWAP1 PUSH2 0x1B79 JUMP JUMPDEST PUSH2 0xFFF SWAP2 SWAP1 PUSH2 0x1BE2 JUMP JUMPDEST DUP3 PUSH1 0x2 ADD PUSH1 0x5 PUSH2 0x100 EXP DUP2 SLOAD DUP2 PUSH1 0xFF MUL NOT AND SWAP1 DUP4 PUSH1 0xFF AND MUL OR SWAP1 SSTORE POP PUSH0 PUSH1 0x3C PUSH1 0xFF AND DUP4 PUSH1 0x2 ADD PUSH1 0x5 SWAP1 SLOAD SWAP1 PUSH2 0x100 EXP SWAP1 DIV PUSH1 0xFF AND PUSH1 0xFF AND LT ISZERO SWAP1 POP DUP1 DUP4 PUSH1 0x2 ADD PUSH1 0x6 PUSH2 0x100 EXP DUP2 SLOAD DUP2 PUSH1 0xFF MUL NOT AND SWAP1 DUP4 ISZERO ISZERO MUL OR SWAP1 SSTORE POP DUP9 PUSH32 0xA2704734BC624BBCC8E9095F9D704E14CC50C1AB5110CF6929276A25EF635A72 PUSH1 0x40 MLOAD PUSH1 0x40 MLOAD DUP1 SWAP2 SUB SWAP1 LOG2 DUP9 PUSH32 0xFCEAEE20EA0C6A7695D4098E27A1C6D0A5D39AE55CEC3680A7CC4F87C6C99AE4 DUP3 PUSH1 0x40 MLOAD PUSH2 0x10B3 SWAP2 SWAP1 PUSH2 0x180F JUMP JUMPDEST PUSH1 0x40 MLOAD DUP1 SWAP2 SUB SWAP1 LOG2 POP POP POP POP POP POP POP POP POP JUMP JUMPDEST PUSH0 DUP1 SLOAD SWAP1 PUSH2 0x100 EXP SWAP1 DIV PUSH20 0xFFFFFFFFFFFFFFFFFFFFFFFFFFFFFFFFFFFFFFFF AND PUSH20 0xFFFFFFFFFFFFFFFFFFFFFFFFFFFFFFFFFFFFFFFF AND CALLER PUSH20 0xFFFFFFFFFFFFFFFFFFFFFFFFFFFFFFFFFFFFFFFF AND EQ PUSH2 0x1153 JUMPI PUSH1 0x40 MLOAD PUSH32 0x8C379A000000000000000000000000000000000000000000000000000000000 DUP2 MSTORE PUSH1 0x4 ADD PUSH2 0x114A SWAP1 PUSH2 0x19F6 JUMP JUMPDEST PUSH1 0x40 MLOAD DUP1 SWAP2 SUB SWAP1 REVERT JUMPDEST DUP1 PUSH1 0x1 PUSH0 DUP3 DUP2 MSTORE PUSH1 0x20 ADD SWAP1 DUP2 MSTORE PUSH1 0x20 ADD PUSH0 KECCAK256 PUSH1 0x2 ADD PUSH1 0x4 SWAP1 SLOAD SWAP1 PUSH2 0x100 EXP SWAP1 DIV PUSH1 0xFF AND PUSH2 0x11B5 JUMPI PUSH1 0x40 MLOAD PUSH32 0x8C379A000000000000000000000000000000000000000000000000000000000 DUP2 MSTORE PUSH1 0x4 ADD PUSH2 0x11AC SWAP1 PUSH2 0x1A5E JUMP JUMPDEST PUSH1 0x40 MLOAD DUP1 SWAP2 SUB SWAP1 REVERT JUMPDEST PUSH0 PUSH1 0x1 PUSH0 DUP5 DUP2 MSTORE PUSH1 0x20 ADD SWAP1 DUP2 MSTORE PUSH1 0x20 ADD PUSH0 KECCAK256 SWAP1 POP PUSH0 DUP2 PUSH1 0x2 ADD PUSH1 0x3 SWAP1 SLOAD SWAP1 PUSH2 0x100 EXP SWAP1 DIV PUSH1 0xFF AND PUSH1 0xFF AND DUP3 PUSH1 0x2 ADD PUSH1 0x2 SWAP1 SLOAD SWAP1 PUSH2 0x100 EXP SWAP1 DIV PUSH1 0xFF AND PUSH1 0xFF AND DUP4 PUSH1 0x2 ADD PUSH1 0x1 SWAP1 SLOAD SWAP1 PUSH2 0x100 EXP SWAP1 DIV PUSH1 0xFF AND PUSH1 0xFF AND DUP5 PUSH1 0x2 ADD PUSH0 SWAP1 SLOAD SWAP1 PUSH2 0x100 EXP SWAP1 DIV PUSH1 0xFF AND PUSH1 0xFF AND PUSH2 0x1227 SWAP2 SWAP1 PUSH2 0x1B44 JUMP JUMPDEST PUSH2 0x1231 SWAP2 SWAP1 PUSH2 0x1B44 JUMP JUMPDEST PUSH2 0x123B SWAP2 SWAP1 PUSH2 0x1B44 JUMP JUMPDEST SWAP1 POP PUSH2 0x190 PUSH1 0x64 DUP3 PUSH2 0x124D SWAP2 SWAP1 PUSH2 0x1B79 JUMP JUMPDEST PUSH2 0x1257 SWAP2 SWAP1 PUSH2 0x1BE2 JUMP JUMPDEST DUP3 PUSH1 0x2 ADD PUSH1 0x5 PUSH2 0x100 EXP DUP2 SLOAD DUP2 PUSH1 0xFF MUL NOT AND SWAP1 DUP4 PUSH1 0xFF AND MUL OR SWAP1 SSTORE POP PUSH0 PUSH1 0x3C PUSH1 0xFF AND DUP4 PUSH1 0x2 ADD PUSH1 0x5 SWAP1 SLOAD SWAP1 PUSH2 0x100 EXP SWAP1 DIV PUSH1 0xFF AND PUSH1 0xFF AND LT ISZERO SWAP1 POP DUP1 DUP4 PUSH1 0x2 ADD PUSH1 0x6 PUSH2 0x100 EXP DUP2 SLOAD DUP2 PUSH1 0xFF MUL NOT AND SWAP1 DUP4 ISZERO ISZERO MUL OR SWAP1 SSTORE POP DUP5 PUSH32 0xFCEAEE20EA0C6A7695D4098E27A1C6D0A5D39AE55CEC3680A7CC4F87C6C99AE4 DUP3 PUSH1 0x40 MLOAD PUSH2 0x12DE SWAP2 SWAP1 PUSH2 0x180F JUMP JUMPDEST PUSH1 0x40 MLOAD DUP1 SWAP2 SUB SWAP1 LOG2 POP POP POP POP POP JUMP JUMPDEST PUSH0 DUP1 PUSH0 SWAP1 POP PUSH0 JUMPDEST PUSH1 0x2 SLOAD DUP2 LT ISZERO PUSH2 0x136B JUMPI PUSH1 0x1 PUSH0 DUP3 DUP2 MSTORE PUSH1 0x20 ADD SWAP1 DUP2 MSTORE PUSH1 0x20 ADD PUSH0 KECCAK256 PUSH1 0x2 ADD PUSH1 0x4 SWAP1 SLOAD SWAP1 PUSH2 0x100 EXP SWAP1 DIV PUSH1 0xFF AND DUP1 ISZERO PUSH2 0x134A JUMPI POP PUSH1 0x1 PUSH0 DUP3 DUP2 MSTORE PUSH1 0x20 ADD SWAP1 DUP2 MSTORE PUSH1 0x20 ADD PUSH0 KECCAK256 PUSH1 0x2 ADD PUSH1 0x6 SWAP1 SLOAD SWAP1 PUSH2 0x100 EXP SWAP1 DIV PUSH1 0xFF AND JUMPDEST ISZERO PUSH2 0x135E JUMPI DUP2 DUP1 PUSH2 0x135A SWAP1 PUSH2 0x2044 JUMP JUMPDEST SWAP3 POP POP JUMPDEST DUP1 DUP1 PUSH1 0x1 ADD SWAP2 POP POP PUSH2 0x12F4 JUMP JUMPDEST POP DUP1 SWAP2 POP POP SWAP1 JUMP JUMPDEST PUSH1 0x2 SLOAD DUP2 JUMP JUMPDEST PUSH1 0x3C DUP2 JUMP JUMPDEST PUSH0 PUSH1 0x40 MLOAD SWAP1 POP SWAP1 JUMP JUMPDEST PUSH0 DUP1 REVERT JUMPDEST PUSH0 DUP1 REVERT JUMPDEST PUSH0 DUP2 SWAP1 POP SWAP2 SWAP1 POP JUMP JUMPDEST PUSH2 0x13A1 DUP2 PUSH2 0x138F JUMP JUMPDEST DUP2 EQ PUSH2 0x13AB JUMPI PUSH0 DUP1 REVERT JUMPDEST POP JUMP JUMPDEST PUSH0 DUP2 CALLDATALOAD SWAP1 POP PUSH2 0x13BC DUP2 PUSH2 0x1398 JUMP JUMPDEST SWAP3 SWAP2 POP POP JUMP JUMPDEST PUSH0 PUSH1 0x20 DUP3 DUP5 SUB SLT ISZERO PUSH2 0x13D7 JUMPI PUSH2 0x13D6 PUSH2 0x1387 JUMP JUMPDEST JUMPDEST PUSH0 PUSH2 0x13E4 DUP5 DUP3 DUP6 ADD PUSH2 0x13AE JUMP JUMPDEST SWAP2 POP POP SWAP3 SWAP2 POP POP JUMP JUMPDEST PUSH2 0x13F6 DUP2 PUSH2 0x138F JUMP JUMPDEST DUP3 MSTORE POP POP JUMP JUMPDEST PUSH0 DUP2 MLOAD SWAP1 POP SWAP2 SWAP1 POP JUMP JUMPDEST PUSH0 DUP3 DUP3 MSTORE PUSH1 0x20 DUP3 ADD SWAP1 POP SWAP3 SWAP2 POP POP JUMP JUMPDEST DUP3 DUP2 DUP4 MCOPY PUSH0 DUP4 DUP4 ADD MSTORE POP POP POP JUMP JUMPDEST PUSH0 PUSH1 0x1F NOT PUSH1 0x1F DUP4 ADD AND SWAP1 POP SWAP2 SWAP1 POP JUMP JUMPDEST PUSH0 PUSH2 0x143E DUP3 PUSH2 0x13FC JUMP JUMPDEST PUSH2 0x1448 DUP2 DUP6 PUSH2 0x1406 JUMP JUMPDEST SWAP4 POP PUSH2 0x1458 DUP2 DUP6 PUSH1 0x20 DUP7 ADD PUSH2 0x1416 JUMP JUMPDEST PUSH2 0x1461 DUP2 PUSH2 0x1424 JUMP JUMPDEST DUP5 ADD SWAP2 POP POP SWAP3 SWAP2 POP POP JUMP JUMPDEST PUSH0 PUSH1 0xFF DUP3 AND SWAP1 POP SWAP2 SWAP1 POP JUMP JUMPDEST PUSH2 0x1481 DUP2 PUSH2 0x146C JUMP JUMPDEST DUP3 MSTORE POP POP JUMP JUMPDEST PUSH0 DUP2 ISZERO ISZERO SWAP1 POP SWAP2 SWAP1 POP JUMP JUMPDEST PUSH2 0x149B DUP2 PUSH2 0x1487 JUMP JUMPDEST DUP3 MSTORE POP POP JUMP JUMPDEST PUSH0 PUSH2 0x120 DUP3 ADD SWAP1 POP PUSH2 0x14B5 PUSH0 DUP4 ADD DUP13 PUSH2 0x13ED JUMP JUMPDEST DUP2 DUP2 SUB PUSH1 0x20 DUP4 ADD MSTORE PUSH2 0x14C7 DUP2 DUP12 PUSH2 0x1434 JUMP JUMPDEST SWAP1 POP PUSH2 0x14D6 PUSH1 0x40 DUP4 ADD DUP11 PUSH2 0x1478 JUMP JUMPDEST PUSH2 0x14E3 PUSH1 0x60 DUP4 ADD DUP10 PUSH2 0x1478 JUMP JUMPDEST PUSH2 0x14F0 PUSH1 0x80 DUP4 ADD DUP9 PUSH2 0x1478 JUMP JUMPDEST PUSH2 0x14FD PUSH1 0xA0 DUP4 ADD DUP8 PUSH2 0x1478 JUMP JUMPDEST PUSH2 0x150A PUSH1 0xC0 DUP4 ADD DUP7 PUSH2 0x1492 JUMP JUMPDEST PUSH2 0x1517 PUSH1 0xE0 DUP4 ADD DUP6 PUSH2 0x1478 JUMP JUMPDEST PUSH2 0x1525 PUSH2 0x100 DUP4 ADD DUP5 PUSH2 0x1492 JUMP JUMPDEST SWAP11 SWAP10 POP POP POP POP POP POP POP POP POP POP JUMP JUMPDEST PUSH0 PUSH1 0x20 DUP3 ADD SWAP1 POP DUP2 DUP2 SUB PUSH0 DUP4 ADD MSTORE PUSH2 0x154B DUP2 DUP5 PUSH2 0x1434 JUMP JUMPDEST SWAP1 POP SWAP3 SWAP2 POP POP JUMP JUMPDEST PUSH2 0x155C DUP2 PUSH2 0x146C JUMP JUMPDEST DUP2 EQ PUSH2 0x1566 JUMPI PUSH0 DUP1 REVERT JUMPDEST POP JUMP JUMPDEST PUSH0 DUP2 CALLDATALOAD SWAP1 POP PUSH2 0x1577 DUP2 PUSH2 0x1553 JUMP JUMPDEST SWAP3 SWAP2 POP POP JUMP JUMPDEST PUSH0 DUP1 PUSH1 0x40 DUP4 DUP6 SUB SLT ISZERO PUSH2 0x1593 JUMPI PUSH2 0x1592 PUSH2 0x1387 JUMP JUMPDEST JUMPDEST PUSH0 PUSH2 0x15A0 DUP6 DUP3 DUP7 ADD PUSH2 0x13AE JUMP JUMPDEST SWAP3 POP POP PUSH1 0x20 PUSH2 0x15B1 DUP6 DUP3 DUP7 ADD PUSH2 0x1569 JUMP JUMPDEST SWAP2 POP POP SWAP3 POP SWAP3 SWAP1 POP JUMP JUMPDEST PUSH0 DUP1 REVERT JUMPDEST PUSH0 DUP1 REVERT JUMPDEST PUSH32 0x4E487B7100000000000000000000000000000000000000000000000000000000 PUSH0 MSTORE PUSH1 0x41 PUSH1 0x4 MSTORE PUSH1 0x24 PUSH0 REVERT JUMPDEST PUSH2 0x15F9 DUP3 PUSH2 0x1424 JUMP JUMPDEST DUP2 ADD DUP2 DUP2 LT PUSH8 0xFFFFFFFFFFFFFFFF DUP3 GT OR ISZERO PUSH2 0x1618 JUMPI PUSH2 0x1617 PUSH2 0x15C3 JUMP JUMPDEST JUMPDEST DUP1 PUSH1 0x40 MSTORE POP POP POP JUMP JUMPDEST PUSH0 PUSH2 0x162A PUSH2 0x137E JUMP JUMPDEST SWAP1 POP PUSH2 0x1636 DUP3 DUP3 PUSH2 0x15F0 JUMP JUMPDEST SWAP2 SWAP1 POP JUMP JUMPDEST PUSH0 PUSH8 0xFFFFFFFFFFFFFFFF DUP3 GT ISZERO PUSH2 0x1655 JUMPI PUSH2 0x1654 PUSH2 0x15C3 JUMP JUMPDEST JUMPDEST PUSH2 0x165E DUP3 PUSH2 0x1424 JUMP JUMPDEST SWAP1 POP PUSH1 0x20 DUP2 ADD SWAP1 POP SWAP2 SWAP1 POP JUMP JUMPDEST DUP3 DUP2 DUP4 CALLDATACOPY PUSH0 DUP4 DUP4 ADD MSTORE POP POP POP JUMP JUMPDEST PUSH0 PUSH2 0x168B PUSH2 0x1686 DUP5 PUSH2 0x163B JUMP JUMPDEST PUSH2 0x1621 JUMP JUMPDEST SWAP1 POP DUP3 DUP2 MSTORE PUSH1 0x20 DUP2 ADD DUP5 DUP5 DUP5 ADD GT ISZERO PUSH2 0x16A7 JUMPI PUSH2 0x16A6 PUSH2 0x15BF JUMP JUMPDEST JUMPDEST PUSH2 0x16B2 DUP5 DUP3 DUP6 PUSH2 0x166B JUMP JUMPDEST POP SWAP4 SWAP3 POP POP POP JUMP JUMPDEST PUSH0 DUP3 PUSH1 0x1F DUP4 ADD SLT PUSH2 0x16CE JUMPI PUSH2 0x16CD PUSH2 0x15BB JUMP JUMPDEST JUMPDEST DUP2 CALLDATALOAD PUSH2 0x16DE DUP5 DUP3 PUSH1 0x20 DUP7 ADD PUSH2 0x1679 JUMP JUMPDEST SWAP2 POP POP SWAP3 SWAP2 POP POP JUMP JUMPDEST PUSH0 DUP1 PUSH0 DUP1 PUSH0 DUP1 PUSH1 0xC0 DUP8 DUP10 SUB SLT ISZERO PUSH2 0x1701 JUMPI PUSH2 0x1700 PUSH2 0x1387 JUMP JUMPDEST JUMPDEST PUSH0 PUSH2 0x170E DUP10 DUP3 DUP11 ADD PUSH2 0x13AE JUMP JUMPDEST SWAP7 POP POP PUSH1 0x20 DUP8 ADD CALLDATALOAD PUSH8 0xFFFFFFFFFFFFFFFF DUP2 GT ISZERO PUSH2 0x172F JUMPI PUSH2 0x172E PUSH2 0x138B JUMP JUMPDEST JUMPDEST PUSH2 0x173B DUP10 DUP3 DUP11 ADD PUSH2 0x16BA JUMP JUMPDEST SWAP6 POP POP PUSH1 0x40 PUSH2 0x174C DUP10 DUP3 DUP11 ADD PUSH2 0x1569 JUMP JUMPDEST SWAP5 POP POP PUSH1 0x60 PUSH2 0x175D DUP10 DUP3 DUP11 ADD PUSH2 0x1569 JUMP JUMPDEST SWAP4 POP POP PUSH1 0x80 PUSH2 0x176E DUP10 DUP3 DUP11 ADD PUSH2 0x1569 JUMP JUMPDEST SWAP3 POP POP PUSH1 0xA0 PUSH2 0x177F DUP10 DUP3 DUP11 ADD PUSH2 0x1569 JUMP JUMPDEST SWAP2 POP POP SWAP3 SWAP6 POP SWAP3 SWAP6 POP SWAP3 SWAP6 JUMP JUMPDEST PUSH0 PUSH2 0x100 DUP3 ADD SWAP1 POP PUSH2 0x17A0 PUSH0 DUP4 ADD DUP12 PUSH2 0x13ED JUMP JUMPDEST DUP2 DUP2 SUB PUSH1 0x20 DUP4 ADD MSTORE PUSH2 0x17B2 DUP2 DUP11 PUSH2 0x1434 JUMP JUMPDEST SWAP1 POP PUSH2 0x17C1 PUSH1 0x40 DUP4 ADD DUP10 PUSH2 0x1478 JUMP JUMPDEST PUSH2 0x17CE PUSH1 0x60 DUP4 ADD DUP9 PUSH2 0x1478 JUMP JUMPDEST PUSH2 0x17DB PUSH1 0x80 DUP4 ADD DUP8 PUSH2 0x1478 JUMP JUMPDEST PUSH2 0x17E8 PUSH1 0xA0 DUP4 ADD DUP7 PUSH2 0x1478 JUMP JUMPDEST PUSH2 0x17F5 PUSH1 0xC0 DUP4 ADD DUP6 PUSH2 0x1478 JUMP JUMPDEST PUSH2 0x1802 PUSH1 0xE0 DUP4 ADD DUP5 PUSH2 0x1492 JUMP JUMPDEST SWAP10 SWAP9 POP POP POP POP POP POP POP POP POP JUMP JUMPDEST PUSH0 PUSH1 0x20 DUP3 ADD SWAP1 POP PUSH2 0x1822 PUSH0 DUP4 ADD DUP5 PUSH2 0x1492 JUMP JUMPDEST SWAP3 SWAP2 POP POP JUMP JUMPDEST PUSH0 PUSH20 0xFFFFFFFFFFFFFFFFFFFFFFFFFFFFFFFFFFFFFFFF DUP3 AND SWAP1 POP SWAP2 SWAP1 POP JUMP JUMPDEST PUSH0 PUSH2 0x1851 DUP3 PUSH2 0x1828 JUMP JUMPDEST SWAP1 POP SWAP2 SWAP1 POP JUMP JUMPDEST PUSH2 0x1861 DUP2 PUSH2 0x1847 JUMP JUMPDEST DUP3 MSTORE POP POP JUMP JUMPDEST PUSH0 PUSH1 0x20 DUP3 ADD SWAP1 POP PUSH2 0x187A PUSH0 DUP4 ADD DUP5 PUSH2 0x1858 JUMP JUMPDEST SWAP3 SWAP2 POP POP JUMP JUMPDEST PUSH0 DUP1 PUSH0 DUP1 PUSH0 PUSH1 0xA0 DUP7 DUP9 SUB SLT ISZERO PUSH2 0x1899 JUMPI PUSH2 0x1898 PUSH2 0x1387 JUMP JUMPDEST JUMPDEST PUSH0 PUSH2 0x18A6 DUP9 DUP3 DUP10 ADD PUSH2 0x13AE JUMP JUMPDEST SWAP6 POP POP PUSH1 0x20 PUSH2 0x18B7 DUP9 DUP3 DUP10 ADD PUSH2 0x1569 JUMP JUMPDEST SWAP5 POP POP PUSH1 0x40 PUSH2 0x18C8 DUP9 DUP3 DUP10 ADD PUSH2 0x1569 JUMP JUMPDEST SWAP4 POP POP PUSH1 0x60 PUSH2 0x18D9 DUP9 DUP3 DUP10 ADD PUSH2 0x1569 JUMP JUMPDEST SWAP3 POP POP PUSH1 0x80 PUSH2 0x18EA DUP9 DUP3 DUP10 ADD PUSH2 0x1569 JUMP JUMPDEST SWAP2 POP POP SWAP3 SWAP6 POP SWAP3 SWAP6 SWAP1 SWAP4 POP JUMP JUMPDEST PUSH0 PUSH1 0x20 DUP3 ADD SWAP1 POP PUSH2 0x190A PUSH0 DUP4 ADD DUP5 PUSH2 0x13ED JUMP JUMPDEST SWAP3 SWAP2 POP POP JUMP JUMPDEST PUSH0 PUSH1 0x20 DUP3 ADD SWAP1 POP PUSH2 0x1923 PUSH0 DUP4 ADD DUP5 PUSH2 0x1478 JUMP JUMPDEST SWAP3 SWAP2 POP POP JUMP JUMPDEST PUSH32 0x4E487B7100000000000000000000000000000000000000000000000000000000 PUSH0 MSTORE PUSH1 0x22 PUSH1 0x4 MSTORE PUSH1 0x24 PUSH0 REVERT JUMPDEST PUSH0 PUSH1 0x2 DUP3 DIV SWAP1 POP PUSH1 0x1 DUP3 AND DUP1 PUSH2 0x196D JUMPI PUSH1 0x7F DUP3 AND SWAP2 POP JUMPDEST PUSH1 0x20 DUP3 LT DUP2 SUB PUSH2 0x1980 JUMPI PUSH2 0x197F PUSH2 0x1929 JUMP JUMPDEST JUMPDEST POP SWAP2 SWAP1 POP JUMP JUMPDEST PUSH32 0x4F6E6C79206F776E65722063616E2063616C6C20746869732066756E6374696F PUSH0 DUP3 ADD MSTORE PUSH32 0x6E00000000000000000000000000000000000000000000000000000000000000 PUSH1 0x20 DUP3 ADD MSTORE POP JUMP JUMPDEST PUSH0 PUSH2 0x19E0 PUSH1 0x21 DUP4 PUSH2 0x1406 JUMP JUMPDEST SWAP2 POP PUSH2 0x19EB DUP3 PUSH2 0x1986 JUMP JUMPDEST PUSH1 0x40 DUP3 ADD SWAP1 POP SWAP2 SWAP1 POP JUMP JUMPDEST PUSH0 PUSH1 0x20 DUP3 ADD SWAP1 POP DUP2 DUP2 SUB PUSH0 DUP4 ADD MSTORE PUSH2 0x1A0D DUP2 PUSH2 0x19D4 JUMP JUMPDEST SWAP1 POP SWAP2 SWAP1 POP JUMP JUMPDEST PUSH32 0x53747564656E7420646F6573206E6F7420657869737400000000000000000000 PUSH0 DUP3 ADD MSTORE POP JUMP JUMPDEST PUSH0 PUSH2 0x1A48 PUSH1 0x16 DUP4 PUSH2 0x1406 JUMP JUMPDEST SWAP2 POP PUSH2 0x1A53 DUP3 PUSH2 0x1A14 JUMP JUMPDEST PUSH1 0x20 DUP3 ADD SWAP1 POP SWAP2 SWAP1 POP JUMP JUMPDEST PUSH0 PUSH1 0x20 DUP3 ADD SWAP1 POP DUP2 DUP2 SUB PUSH0 DUP4 ADD MSTORE PUSH2 0x1A75 DUP2 PUSH2 0x1A3C JUMP JUMPDEST SWAP1 POP SWAP2 SWAP1 POP JUMP JUMPDEST PUSH32 0x536369656E6365206D61726B732073686F756C64206265206F7574206F662031 PUSH0 DUP3 ADD MSTORE PUSH32 0x3030000000000000000000000000000000000000000000000000000000000000 PUSH1 0x20 DUP3 ADD MSTORE POP JUMP JUMPDEST PUSH0 PUSH2 0x1AD6 PUSH1 0x22 DUP4 PUSH2 0x1406 JUMP JUMPDEST SWAP2 POP PUSH2 0x1AE1 DUP3 PUSH2 0x1A7C JUMP JUMPDEST PUSH1 0x40 DUP3 ADD SWAP1 POP SWAP2 SWAP1 POP JUMP JUMPDEST PUSH0 PUSH1 0x20 DUP3 ADD SWAP1 POP DUP2 DUP2 SUB PUSH0 DUP4 ADD MSTORE PUSH2 0x1B03 DUP2 PUSH2 0x1ACA JUMP JUMPDEST SWAP1 POP SWAP2 SWAP1 POP JUMP JUMPDEST PUSH0 PUSH2 0xFFFF DUP3 AND SWAP1 POP SWAP2 SWAP1 POP JUMP JUMPDEST PUSH32 0x4E487B7100000000000000000000000000000000000000000000000000000000 PUSH0 MSTORE PUSH1 0x11 PUSH1 0x4 MSTORE PUSH1 0x24 PUSH0 REVERT JUMPDEST PUSH0 PUSH2 0x1B4E DUP3 PUSH2 0x1B0A JUMP JUMPDEST SWAP2 POP PUSH2 0x1B59 DUP4 PUSH2 0x1B0A JUMP JUMPDEST SWAP3 POP DUP3 DUP3 ADD SWAP1 POP PUSH2 0xFFFF DUP2 GT ISZERO PUSH2 0x1B73 JUMPI PUSH2 0x1B72 PUSH2 0x1B17 JUMP JUMPDEST JUMPDEST SWAP3 SWAP2 POP POP JUMP JUMPDEST PUSH0 PUSH2 0x1B83 DUP3 PUSH2 0x1B0A JUMP JUMPDEST SWAP2 POP PUSH2 0x1B8E DUP4 PUSH2 0x1B0A JUMP JUMPDEST SWAP3 POP DUP3 DUP3 MUL PUSH2 0x1B9C DUP2 PUSH2 0x1B0A JUMP JUMPDEST SWAP2 POP DUP1 DUP3 EQ PUSH2 0x1BAE JUMPI PUSH2 0x1BAD PUSH2 0x1B17 JUMP JUMPDEST JUMPDEST POP SWAP3 SWAP2 POP POP JUMP JUMPDEST PUSH32 0x4E487B7100000000000000000000000000000000000000000000000000000000 PUSH0 MSTORE PUSH1 0x12 PUSH1 0x4 MSTORE PUSH1 0x24 PUSH0 REVERT JUMPDEST PUSH0 PUSH2 0x1BEC DUP3 PUSH2 0x1B0A JUMP JUMPDEST SWAP2 POP PUSH2 0x1BF7 DUP4 PUSH2 0x1B0A JUMP JUMPDEST SWAP3 POP DUP3 PUSH2 0x1C07 JUMPI PUSH2 0x1C06 PUSH2 0x1BB5 JUMP JUMPDEST JUMPDEST DUP3 DUP3 DIV SWAP1 POP SWAP3 SWAP2 POP POP JUMP JUMPDEST PUSH32 0x53747564656E7420494420616C72656164792065786973747300000000000000 PUSH0 DUP3 ADD MSTORE POP JUMP JUMPDEST PUSH0 PUSH2 0x1C46 PUSH1 0x19 DUP4 PUSH2 0x1406 JUMP JUMPDEST SWAP2 POP PUSH2 0x1C51 DUP3 PUSH2 0x1C12 JUMP JUMPDEST PUSH1 0x20 DUP3 ADD SWAP1 POP SWAP2 SWAP1 POP JUMP JUMPDEST PUSH0 PUSH1 0x20 DUP3 ADD SWAP1 POP DUP2 DUP2 SUB PUSH0 DUP4 ADD MSTORE PUSH2 0x1C73 DUP2 PUSH2 0x1C3A JUMP JUMPDEST SWAP1 POP SWAP2 SWAP1 POP JUMP JUMPDEST PUSH32 0x456E676C697368206D61726B732073686F756C64206265206F7574206F662031 PUSH0 DUP3 ADD MSTORE PUSH32 0x3030000000000000000000000000000000000000000000000000000000000000 PUSH1 0x20 DUP3 ADD MSTORE POP JUMP JUMPDEST PUSH0 PUSH2 0x1CD4 PUSH1 0x22 DUP4 PUSH2 0x1406 JUMP JUMPDEST SWAP2 POP PUSH2 0x1CDF DUP3 PUSH2 0x1C7A JUMP JUMPDEST PUSH1 0x40 DUP3 ADD SWAP1 POP SWAP2 SWAP1 POP JUMP JUMPDEST PUSH0 PUSH1 0x20 DUP3 ADD SWAP1 POP DUP2 DUP2 SUB PUSH0 DUP4 ADD MSTORE PUSH2 0x1D01 DUP2 PUSH2 0x1CC8 JUMP JUMPDEST SWAP1 POP SWAP2 SWAP1 POP JUMP JUMPDEST PUSH32 0x48696E6469206D61726B732073686F756C64206265206F7574206F6620313030 PUSH0 DUP3 ADD MSTORE POP JUMP JUMPDEST PUSH0 PUSH2 0x1D3C PUSH1 0x20 DUP4 PUSH2 0x1406 JUMP JUMPDEST SWAP2 POP PUSH2 0x1D47 DUP3 PUSH2 0x1D08 JUMP JUMPDEST PUSH1 0x20 DUP3 ADD SWAP1 POP SWAP2 SWAP1 POP JUMP JUMPDEST PUSH0 PUSH1 0x20 DUP3 ADD SWAP1 POP DUP2 DUP2 SUB PUSH0 DUP4 ADD MSTORE PUSH2 0x1D69 DUP2 PUSH2 0x1D30 JUMP JUMPDEST SWAP1 POP SWAP2 SWAP1 POP JUMP JUMPDEST PUSH32 0x4D617468206D61726B732073686F756C64206265206F7574206F662031303000 PUSH0 DUP3 ADD MSTORE POP JUMP JUMPDEST PUSH0 PUSH2 0x1DA4 PUSH1 0x1F DUP4 PUSH2 0x1406 JUMP JUMPDEST SWAP2 POP PUSH2 0x1DAF DUP3 PUSH2 0x1D70 JUMP JUMPDEST PUSH1 0x20 DUP3 ADD SWAP1 POP SWAP2 SWAP1 POP JUMP JUMPDEST PUSH0 PUSH1 0x20 DUP3 ADD SWAP1 POP DUP2 DUP2 SUB PUSH0 DUP4 ADD MSTORE PUSH2 0x1DD1 DUP2 PUSH2 0x1D98 JUMP JUMPDEST SWAP1 POP SWAP2 SWAP1 POP JUMP JUMPDEST PUSH0 DUP2 SWAP1 POP DUP2 PUSH0 MSTORE PUSH1 0x20 PUSH0 KECCAK256 SWAP1 POP SWAP2 SWAP1 POP JUMP JUMPDEST PUSH0 PUSH1 0x20 PUSH1 0x1F DUP4 ADD DIV SWAP1 POP SWAP2 SWAP1 POP JUMP JUMPDEST PUSH0 DUP3 DUP3 SHL SWAP1 POP SWAP3 SWAP2 POP POP JUMP JUMPDEST PUSH0 PUSH1 0x8 DUP4 MUL PUSH2 0x1E34 PUSH32 0xFFFFFFFFFFFFFFFFFFFFFFFFFFFFFFFFFFFFFFFFFFFFFFFFFFFFFFFFFFFFFFFF DUP3 PUSH2 0x1DF9 JUMP JUMPDEST PUSH2 0x1E3E DUP7 DUP4 PUSH2 0x1DF9 JUMP JUMPDEST SWAP6 POP DUP1 NOT DUP5 AND SWAP4 POP DUP1 DUP7 AND DUP5 OR SWAP3 POP POP POP SWAP4 SWAP3 POP POP POP JUMP JUMPDEST PUSH0 DUP2 SWAP1 POP SWAP2 SWAP1 POP JUMP JUMPDEST PUSH0 PUSH2 0x1E79 PUSH2 0x1E74 PUSH2 0x1E6F DUP5 PUSH2 0x138F JUMP JUMPDEST PUSH2 0x1E56 JUMP JUMPDEST PUSH2 0x138F JUMP JUMPDEST SWAP1 POP SWAP2 SWAP1 POP JUMP JUMPDEST PUSH0 DUP2 SWAP1 POP SWAP2 SWAP1 POP JUMP JUMPDEST PUSH2 0x1E92 DUP4 PUSH2 0x1E5F JUMP JUMPDEST PUSH2 0x1EA6 PUSH2 0x1E9E DUP3 PUSH2 0x1E80 JUMP JUMPDEST DUP5 DUP5 SLOAD PUSH2 0x1E05 JUMP JUMPDEST DUP3 SSTORE POP POP POP POP JUMP JUMPDEST PUSH0 SWAP1 JUMP JUMPDEST PUSH2 0x1EBA PUSH2 0x1EAE JUMP JUMPDEST PUSH2 0x1EC5 DUP2 DUP5 DUP5 PUSH2 0x1E89 JUMP JUMPDEST POP POP POP JUMP JUMPDEST JUMPDEST DUP2 DUP2 LT ISZERO PUSH2 0x1EE8 JUMPI PUSH2 0x1EDD PUSH0 DUP3 PUSH2 0x1EB2 JUMP JUMPDEST PUSH1 0x1 DUP2 ADD SWAP1 POP PUSH2 0x1ECB JUMP JUMPDEST POP POP JUMP JUMPDEST PUSH1 0x1F DUP3 GT ISZERO PUSH2 0x1F2D JUMPI PUSH2 0x1EFE DUP2 PUSH2 0x1DD8 JUMP JUMPDEST PUSH2 0x1F07 DUP5 PUSH2 0x1DEA JUMP JUMPDEST DUP2 ADD PUSH1 0x20 DUP6 LT ISZERO PUSH2 0x1F16 JUMPI DUP2 SWAP1 POP JUMPDEST PUSH2 0x1F2A PUSH2 0x1F22 DUP6 PUSH2 0x1DEA JUMP JUMPDEST DUP4 ADD DUP3 PUSH2 0x1ECA JUMP JUMPDEST POP POP JUMPDEST POP POP POP JUMP JUMPDEST PUSH0 DUP3 DUP3 SHR SWAP1 POP SWAP3 SWAP2 POP POP JUMP JUMPDEST PUSH0 PUSH2 0x1F4D PUSH0 NOT DUP5 PUSH1 0x8 MUL PUSH2 0x1F32 JUMP JUMPDEST NOT DUP1 DUP4 AND SWAP2 POP POP SWAP3 SWAP2 POP POP JUMP JUMPDEST PUSH0 PUSH2 0x1F65 DUP4 DUP4 PUSH2 0x1F3E JUMP JUMPDEST SWAP2 POP DUP3 PUSH1 0x2 MUL DUP3 OR SWAP1 POP SWAP3 SWAP2 POP POP JUMP JUMPDEST PUSH2 0x1F7E DUP3 PUSH2 0x13FC JUMP JUMPDEST PUSH8 0xFFFFFFFFFFFFFFFF DUP2 GT ISZERO PUSH2 0x1F97 JUMPI PUSH2 0x1F96 PUSH2 0x15C3 JUMP JUMPDEST JUMPDEST PUSH2 0x1FA1 DUP3 SLOAD PUSH2 0x1956 JUMP JUMPDEST PUSH2 0x1FAC DUP3 DUP3 DUP6 PUSH2 0x1EEC JUMP JUMPDEST PUSH0 PUSH1 0x20 SWAP1 POP PUSH1 0x1F DUP4 GT PUSH1 0x1 DUP2 EQ PUSH2 0x1FDD JUMPI PUSH0 DUP5 ISZERO PUSH2 0x1FCB JUMPI DUP3 DUP8 ADD MLOAD SWAP1 POP JUMPDEST PUSH2 0x1FD5 DUP6 DUP3 PUSH2 0x1F5A JUMP JUMPDEST DUP7 SSTORE POP PUSH2 0x203C JUMP JUMPDEST PUSH1 0x1F NOT DUP5 AND PUSH2 0x1FEB DUP7 PUSH2 0x1DD8 JUMP JUMPDEST PUSH0 JUMPDEST DUP3 DUP2 LT ISZERO PUSH2 0x2012 JUMPI DUP5 DUP10 ADD MLOAD DUP3 SSTORE PUSH1 0x1 DUP3 ADD SWAP2 POP PUSH1 0x20 DUP6 ADD SWAP5 POP PUSH1 0x20 DUP2 ADD SWAP1 POP PUSH2 0x1FED JUMP JUMPDEST DUP7 DUP4 LT ISZERO PUSH2 0x202F JUMPI DUP5 DUP10 ADD MLOAD PUSH2 0x202B PUSH1 0x1F DUP10 AND DUP3 PUSH2 0x1F3E JUMP JUMPDEST DUP4 SSTORE POP JUMPDEST PUSH1 0x1 PUSH1 0x2 DUP9 MUL ADD DUP9 SSTORE POP POP POP JUMPDEST POP POP POP POP POP POP JUMP JUMPDEST PUSH0 PUSH2 0x204E DUP3 PUSH2 0x138F JUMP JUMPDEST SWAP2 POP PUSH32 0xFFFFFFFFFFFFFFFFFFFFFFFFFFFFFFFFFFFFFFFFFFFFFFFFFFFFFFFFFFFFFFFF DUP3 SUB PUSH2 0x2080 JUMPI PUSH2 0x207F PUSH2 0x1B17 JUMP JUMPDEST JUMPDEST PUSH1 0x1 DUP3 ADD SWAP1 POP SWAP2 SWAP1 POP JUMP INVALID LOG2 PUSH5 0x6970667358 0x22 SLT KECCAK256 PUSH10 0x1976E51AB25012EC82ED 0x1F 0xC0 0x23 PUSH22 0xDDCC3DB13D9DB8CE466E6529665838D61564736F6C63 NUMBER STOP ADDMOD BYTE STOP CALLER "
		},
		"gasEstimates": {
			"creation": {
				"codeDepositCost": "1677000",
				"executionCost": "1762",
				"totalCost": "1678762"
			},
			"external": {
				"PASS_PERCENTAGE()": "441",
				"addStudent(uint256,string,uint8,uint8,uint8,uint8)": "infinite",
				"getPassedStudentsCount()": "infinite",
				"getStudentDetails(uint256)": "infinite",
				"getVersion()": "infinite",
				"hasStudentPassed(uint256)": "5268",
				"owner()": "2505",
				"studentCount()": "2513",
				"students(uint256)": "infinite",
				"updateMarks(uint256,uint8,uint8,uint8,uint8)": "infinite",
				"updateScienceMarks(uint256,uint8)": "infinite",
				"upgradeStudentRecord(uint256)": "infinite"
			}
		},
		"methodIdentifiers": {
			"PASS_PERCENTAGE()": "f92b21ec",
			"addStudent(uint256,string,uint8,uint8,uint8,uint8)": "72d769bb",
			"getPassedStudentsCount()": "e3b53996",
			"getStudentDetails(uint256)": "86a9b364",
			"getVersion()": "0d8e6e2c",
			"hasStudentPassed(uint256)": "8d27d6d6",
			"owner()": "8da5cb5b",
			"studentCount()": "e581f9ee",
			"students(uint256)": "06ead22e",
			"updateMarks(uint256,uint8,uint8,uint8,uint8)": "9426d36b",
			"updateScienceMarks(uint256,uint8)": "2ad04cd9",
			"upgradeStudentRecord(uint256)": "a4e8441b"
		}
	},
	"abi": [
		{
			"anonymous": false,
			"inputs": [
				{
					"indexed": true,
					"internalType": "uint256",
					"name": "studentId",
					"type": "uint256"
				}
			],
			"name": "MarksUpdated",
			"type": "event"
		},
		{
			"anonymous": false,
			"inputs": [
				{
					"indexed": true,
					"internalType": "uint256",
					"name": "studentId",
					"type": "uint256"
				},
				{
					"indexed": false,
					"internalType": "uint8",
					"name": "scienceMarks",
					"type": "uint8"
				}
			],
			"name": "ScienceMarksAdded",
			"type": "event"
		},
		{
			"anonymous": false,
			"inputs": [
				{
					"indexed": true,
					"internalType": "uint256",
					"name": "studentId",
					"type": "uint256"
				},
				{
					"indexed": false,
					"internalType": "string",
					"name": "name",
					"type": "string"
				}
			],
			"name": "StudentAdded",
			"type": "event"
		},
		{
			"anonymous": false,
			"inputs": [
				{
					"indexed": true,
					"internalType": "uint256",
					"name": "studentId",
					"type": "uint256"
				},
				{
					"indexed": false,
					"internalType": "bool",
					"name": "hasPassed",
					"type": "bool"
				}
			],
			"name": "StudentStatusUpdated",
			"type": "event"
		},
		{
			"inputs": [],
			"name": "PASS_PERCENTAGE",
			"outputs": [
				{
					"internalType": "uint8",
					"name": "",
					"type": "uint8"
				}
			],
			"stateMutability": "view",
			"type": "function"
		},
		{
			"inputs": [
				{
					"internalType": "uint256",
					"name": "_id",
					"type": "uint256"
				},
				{
					"internalType": "string",
					"name": "_name",
					"type": "string"
				},
				{
					"internalType": "uint8",
					"name": "_englishMarks",
					"type": "uint8"
				},
				{
					"internalType": "uint8",
					"name": "_hindiMarks",
					"type": "uint8"
				},
				{
					"internalType": "uint8",
					"name": "_mathMarks",
					"type": "uint8"
				},
				{
					"internalType": "uint8",
					"name": "_scienceMarks",
					"type": "uint8"
				}
			],
			"name": "addStudent",
			"outputs": [],
			"stateMutability": "nonpayable",
			"type": "function"
		},
		{
			"inputs": [],
			"name": "getPassedStudentsCount",
			"outputs": [
				{
					"internalType": "uint256",
					"name": "",
					"type": "uint256"
				}
			],
			"stateMutability": "view",
			"type": "function"
		},
		{
			"inputs": [
				{
					"internalType": "uint256",
					"name": "_studentId",
					"type": "uint256"
				}
			],
			"name": "getStudentDetails",
			"outputs": [
				{
					"internalType": "uint256",
					"name": "id",
					"type": "uint256"
				},
				{
					"internalType": "string",
					"name": "name",
					"type": "string"
				},
				{
					"internalType": "uint8",
					"name": "englishMarks",
					"type": "uint8"
				},
				{
					"internalType": "uint8",
					"name": "hindiMarks",
					"type": "uint8"
				},
				{
					"internalType": "uint8",
					"name": "mathMarks",
					"type": "uint8"
				},
				{
					"internalType": "uint8",
					"name": "scienceMarks",
					"type": "uint8"
				},
				{
					"internalType": "uint8",
					"name": "percentage",
					"type": "uint8"
				},
				{
					"internalType": "bool",
					"name": "hasPassed",
					"type": "bool"
				}
			],
			"stateMutability": "view",
			"type": "function"
		},
		{
			"inputs": [],
			"name": "getVersion",
			"outputs": [
				{
					"internalType": "string",
					"name": "",
					"type": "string"
				}
			],
			"stateMutability": "pure",
			"type": "function"
		},
		{
			"inputs": [
				{
					"internalType": "uint256",
					"name": "_studentId",
					"type": "uint256"
				}
			],
			"name": "hasStudentPassed",
			"outputs": [
				{
					"internalType": "bool",
					"name": "",
					"type": "bool"
				}
			],
			"stateMutability": "view",
			"type": "function"
		},
		{
			"inputs": [],
			"name": "owner",
			"outputs": [
				{
					"internalType": "address",
					"name": "",
					"type": "address"
				}
			],
			"stateMutability": "view",
			"type": "function"
		},
		{
			"inputs": [],
			"name": "studentCount",
			"outputs": [
				{
					"internalType": "uint256",
					"name": "",
					"type": "uint256"
				}
			],
			"stateMutability": "view",
			"type": "function"
		},
		{
			"inputs": [
				{
					"internalType": "uint256",
					"name": "",
					"type": "uint256"
				}
			],
			"name": "students",
			"outputs": [
				{
					"internalType": "uint256",
					"name": "id",
					"type": "uint256"
				},
				{
					"internalType": "string",
					"name": "name",
					"type": "string"
				},
				{
					"internalType": "uint8",
					"name": "englishMarks",
					"type": "uint8"
				},
				{
					"internalType": "uint8",
					"name": "hindiMarks",
					"type": "uint8"
				},
				{
					"internalType": "uint8",
					"name": "mathMarks",
					"type": "uint8"
				},
				{
					"internalType": "uint8",
					"name": "scienceMarks",
					"type": "uint8"
				},
				{
					"internalType": "bool",
					"name": "isRegistered",
					"type": "bool"
				},
				{
					"internalType": "uint8",
					"name": "percentage",
					"type": "uint8"
				},
				{
					"internalType": "bool",
					"name": "hasPassed",
					"type": "bool"
				}
			],
			"stateMutability": "view",
			"type": "function"
		},
		{
			"inputs": [
				{
					"internalType": "uint256",
					"name": "_studentId",
					"type": "uint256"
				},
				{
					"internalType": "uint8",
					"name": "_englishMarks",
					"type": "uint8"
				},
				{
					"internalType": "uint8",
					"name": "_hindiMarks",
					"type": "uint8"
				},
				{
					"internalType": "uint8",
					"name": "_mathMarks",
					"type": "uint8"
				},
				{
					"internalType": "uint8",
					"name": "_scienceMarks",
					"type": "uint8"
				}
			],
			"name": "updateMarks",
			"outputs": [],
			"stateMutability": "nonpayable",
			"type": "function"
		},
		{
			"inputs": [
				{
					"internalType": "uint256",
					"name": "_studentId",
					"type": "uint256"
				},
				{
					"internalType": "uint8",
					"name": "_scienceMarks",
					"type": "uint8"
				}
			],
			"name": "updateScienceMarks",
			"outputs": [],
			"stateMutability": "nonpayable",
			"type": "function"
		},
		{
			"inputs": [
				{
					"internalType": "uint256",
					"name": "_studentId",
					"type": "uint256"
				}
			],
			"name": "upgradeStudentRecord",
			"outputs": [],
			"stateMutability": "nonpayable",
			"type": "function"
		}
	]
}