{
	"data": {
		"bytecode": {
			"linkReferences": {},
			"object": "6080604052348015600e575f80fd5b50611b618061001c5f395ff3fe608060405234801561000f575f80fd5b5060043610610086575f3560e01c80638da5cb5b116100595780638da5cb5b146101325780639426d36b14610150578063e581f9ee1461016c578063f6d146df1461018a57610086565b806306ead22e1461008a5780630d8e6e2c146100c257806372d769bb146100e057806386a9b364146100fc575b5f80fd5b6100a4600480360381019061009f9190610e8a565b6101a6565b6040516100b999989796959493929190610f69565b60405180910390f35b6100ca6102d0565b6040516100d79190610ffb565b60405180910390f35b6100fa60048036038101906100f59190611171565b61030d565b005b61011660048036038101906101119190610e8a565b61072a565b6040516101299796959493929190611216565b60405180910390f35b61013a6108ae565b60405161014791906112c9565b60405180910390f35b61016a600480360381019061016591906112e2565b6108d1565b005b610174610c01565b6040516101819190611359565b60405180910390f35b6101a4600480360381019061019f9190611372565b610c07565b005b6001602052805f5260405f205f91509050805f0154908060010180546101cb906113dd565b80601f01602080910402602001604051908101604052809291908181526020018280546101f7906113dd565b80156102425780601f1061021957610100808354040283529160200191610242565b820191905f5260205f20905b81548152906001019060200180831161022557829003601f168201915b505050505090806002015f9054906101000a900460ff16908060020160019054906101000a900460ff16908060020160029054906101000a900460ff16908060020160039054906101000a900460ff16908060020160049054906101000a900460ff16908060020160059054906101000a900460ff16908060020160069054906101000a900460ff16905089565b60606040518060400160405280600481526020017f76322e3000000000000000000000000000000000000000000000000000000000815250905090565b5f8054906101000a900473ffffffffffffffffffffffffffffffffffffffff1673ffffffffffffffffffffffffffffffffffffffff163373ffffffffffffffffffffffffffffffffffffffff161461039a576040517f08c379a00000000000000000000000000000000000000000000000000000000081526004016103919061147d565b60405180910390fd5b60015f8781526020019081526020015f2060020160049054906101000a900460ff16156103fc576040517f08c379a00000000000000000000000000000000000000000000000000000000081526004016103f3906114e5565b60405180910390fd5b60648460ff161115610443576040517f08c379a000000000000000000000000000000000000000000000000000000000815260040161043a90611573565b60405180910390fd5b60648360ff16111561048a576040517f08c379a0000000000000000000000000000000000000000000000000000000008152600401610481906115db565b60405180910390fd5b60648260ff1611156104d1576040517f08c379a00000000000000000000000000000000000000000000000000000000081526004016104c890611643565b60405180910390fd5b60648160ff161115610518576040517f08c379a000000000000000000000000000000000000000000000000000000000815260040161050f906116d1565b60405180910390fd5b5f8160ff168360ff168560ff168760ff166105339190611729565b61053d9190611729565b6105479190611729565b90505f61019060648361055a919061175e565b61056491906117c7565b90506040518061012001604052808981526020018881526020018760ff1681526020018660ff1681526020018560ff1681526020018460ff1681526020016001151581526020018260ff1681526020015f151581525060015f8a81526020019081526020015f205f820151815f015560208201518160010190816105e89190611994565b506040820151816002015f6101000a81548160ff021916908360ff16021790555060608201518160020160016101000a81548160ff021916908360ff16021790555060808201518160020160026101000a81548160ff021916908360ff16021790555060a08201518160020160036101000a81548160ff021916908360ff16021790555060c08201518160020160046101000a81548160ff02191690831515021790555060e08201518160020160056101000a81548160ff021916908360ff1602179055506101008201518160020160066101000a81548160ff02191690831515021790555090505060025f8154809291906106e390611a63565b9190505550877f9682c9a3e9734a1f8d3a641838a5d7862f4eb29fcbf4bd04e0ccac28ffcfd227886040516107189190610ffb565b60405180910390a25050505050505050565b5f60605f805f805f8760015f8281526020019081526020015f2060020160049054906101000a900460ff16610794576040517f08c379a000000000000000000000000000000000000000000000000000000000815260040161078b90611af4565b60405180910390fd5b5f60015f8b81526020019081526020015f209050805f015481600101826002015f9054906101000a900460ff168360020160019054906101000a900460ff168460020160029054906101000a900460ff168560020160039054906101000a900460ff168660020160059054906101000a900460ff16858054610815906113dd565b80601f0160208091040260200160405190810160405280929190818152602001828054610841906113dd565b801561088c5780601f106108635761010080835404028352916020019161088c565b820191905f5260205f20905b81548152906001019060200180831161086f57829003601f168201915b5050505050955098509850985098509850985098505050919395979092949650565b5f8054906101000a900473ffffffffffffffffffffffffffffffffffffffff1681565b5f8054906101000a900473ffffffffffffffffffffffffffffffffffffffff1673ffffffffffffffffffffffffffffffffffffffff163373ffffffffffffffffffffffffffffffffffffffff161461095e576040517f08c379a00000000000000000000000000000000000000000000000000000000081526004016109559061147d565b60405180910390fd5b8460015f8281526020019081526020015f2060020160049054906101000a900460ff166109c0576040517f08c379a00000000000000000000000000000000000000000000000000000000081526004016109b790611af4565b60405180910390fd5b60648560ff161115610a07576040517f08c379a00000000000000000000000000000000000000000000000000000000081526004016109fe90611573565b60405180910390fd5b60648460ff161115610a4e576040517f08c379a0000000000000000000000000000000000000000000000000000000008152600401610a45906115db565b60405180910390fd5b60648360ff161115610a95576040517f08c379a0000000000000000000000000000000000000000000000000000000008152600401610a8c90611643565b60405180910390fd5b60648260ff161115610adc576040517f08c379a0000000000000000000000000000000000000000000000000000000008152600401610ad3906116d1565b60405180910390fd5b5f60015f8881526020019081526020015f20905085816002015f6101000a81548160ff021916908360ff160217905550848160020160016101000a81548160ff021916908360ff160217905550838160020160026101000a81548160ff021916908360ff160217905550828160020160036101000a81548160ff021916908360ff1602179055505f8360ff168560ff168760ff168960ff16610b7e9190611729565b610b889190611729565b610b929190611729565b9050610190606482610ba4919061175e565b610bae91906117c7565b8260020160056101000a81548160ff021916908360ff160217905550877fa2704734bc624bbcc8e9095f9d704e14cc50c1ab5110cf6929276a25ef635a7260405160405180910390a25050505050505050565b60025481565b5f8054906101000a900473ffffffffffffffffffffffffffffffffffffffff1673ffffffffffffffffffffffffffffffffffffffff163373ffffffffffffffffffffffffffffffffffffffff1614610c94576040517f08c379a0000000000000000000000000000000000000000000000000000000008152600401610c8b9061147d565b60405180910390fd5b8160015f8281526020019081526020015f2060020160049054906101000a900460ff16610cf6576040517f08c379a0000000000000000000000000000000000000000000000000000000008152600401610ced90611af4565b60405180910390fd5b60648260ff161115610d3d576040517f08c379a0000000000000000000000000000000000000000000000000000000008152600401610d34906116d1565b60405180910390fd5b5f60015f8581526020019081526020015f209050828160020160036101000a81548160ff021916908360ff1602179055505f8360ff168260020160029054906101000a900460ff1660ff168360020160019054906101000a900460ff1660ff16846002015f9054906101000a900460ff1660ff16610dbb9190611729565b610dc59190611729565b610dcf9190611729565b9050610190606482610de1919061175e565b610deb91906117c7565b8260020160056101000a81548160ff021916908360ff160217905550847f9195440fb68fd25b2ab7a73b2caef5a3437bb206b7e1656c076bbadfc8cba6ae85604051610e379190611b12565b60405180910390a25050505050565b5f604051905090565b5f80fd5b5f80fd5b5f819050919050565b610e6981610e57565b8114610e73575f80fd5b50565b5f81359050610e8481610e60565b92915050565b5f60208284031215610e9f57610e9e610e4f565b5b5f610eac84828501610e76565b91505092915050565b610ebe81610e57565b82525050565b5f81519050919050565b5f82825260208201905092915050565b8281835e5f83830152505050565b5f601f19601f8301169050919050565b5f610f0682610ec4565b610f108185610ece565b9350610f20818560208601610ede565b610f2981610eec565b840191505092915050565b5f60ff82169050919050565b610f4981610f34565b82525050565b5f8115159050919050565b610f6381610f4f565b82525050565b5f61012082019050610f7d5f83018c610eb5565b8181036020830152610f8f818b610efc565b9050610f9e604083018a610f40565b610fab6060830189610f40565b610fb86080830188610f40565b610fc560a0830187610f40565b610fd260c0830186610f5a565b610fdf60e0830185610f40565b610fed610100830184610f5a565b9a9950505050505050505050565b5f6020820190508181035f8301526110138184610efc565b905092915050565b5f80fd5b5f80fd5b7f4e487b71000000000000000000000000000000000000000000000000000000005f52604160045260245ffd5b61105982610eec565b810181811067ffffffffffffffff8211171561107857611077611023565b5b80604052505050565b5f61108a610e46565b90506110968282611050565b919050565b5f67ffffffffffffffff8211156110b5576110b4611023565b5b6110be82610eec565b9050602081019050919050565b828183375f83830152505050565b5f6110eb6110e68461109b565b611081565b9050828152602081018484840111156111075761110661101f565b5b6111128482856110cb565b509392505050565b5f82601f83011261112e5761112d61101b565b5b813561113e8482602086016110d9565b91505092915050565b61115081610f34565b811461115a575f80fd5b50565b5f8135905061116b81611147565b92915050565b5f805f805f8060c0878903121561118b5761118a610e4f565b5b5f61119889828a01610e76565b965050602087013567ffffffffffffffff8111156111b9576111b8610e53565b5b6111c589828a0161111a565b95505060406111d689828a0161115d565b94505060606111e789828a0161115d565b93505060806111f889828a0161115d565b92505060a061120989828a0161115d565b9150509295509295509295565b5f60e0820190506112295f83018a610eb5565b818103602083015261123b8189610efc565b905061124a6040830188610f40565b6112576060830187610f40565b6112646080830186610f40565b61127160a0830185610f40565b61127e60c0830184610f40565b98975050505050505050565b5f73ffffffffffffffffffffffffffffffffffffffff82169050919050565b5f6112b38261128a565b9050919050565b6112c3816112a9565b82525050565b5f6020820190506112dc5f8301846112ba565b92915050565b5f805f805f60a086880312156112fb576112fa610e4f565b5b5f61130888828901610e76565b95505060206113198882890161115d565b945050604061132a8882890161115d565b935050606061133b8882890161115d565b925050608061134c8882890161115d565b9150509295509295909350565b5f60208201905061136c5f830184610eb5565b92915050565b5f806040838503121561138857611387610e4f565b5b5f61139585828601610e76565b92505060206113a68582860161115d565b9150509250929050565b7f4e487b71000000000000000000000000000000000000000000000000000000005f52602260045260245ffd5b5f60028204905060018216806113f457607f821691505b602082108103611407576114066113b0565b5b50919050565b7f4f6e6c79206f776e65722063616e2063616c6c20746869732066756e6374696f5f8201527f6e00000000000000000000000000000000000000000000000000000000000000602082015250565b5f611467602183610ece565b91506114728261140d565b604082019050919050565b5f6020820190508181035f8301526114948161145b565b9050919050565b7f53747564656e7420494420616c726561647920657869737473000000000000005f82015250565b5f6114cf601983610ece565b91506114da8261149b565b602082019050919050565b5f6020820190508181035f8301526114fc816114c3565b9050919050565b7f456e676c697368206d61726b732073686f756c64206265206f7574206f6620315f8201527f3030000000000000000000000000000000000000000000000000000000000000602082015250565b5f61155d602283610ece565b915061156882611503565b604082019050919050565b5f6020820190508181035f83015261158a81611551565b9050919050565b7f48696e6469206d61726b732073686f756c64206265206f7574206f66203130305f82015250565b5f6115c5602083610ece565b91506115d082611591565b602082019050919050565b5f6020820190508181035f8301526115f2816115b9565b9050919050565b7f4d617468206d61726b732073686f756c64206265206f7574206f6620313030005f82015250565b5f61162d601f83610ece565b9150611638826115f9565b602082019050919050565b5f6020820190508181035f83015261165a81611621565b9050919050565b7f536369656e6365206d61726b732073686f756c64206265206f7574206f6620315f8201527f3030000000000000000000000000000000000000000000000000000000000000602082015250565b5f6116bb602283610ece565b91506116c682611661565b604082019050919050565b5f6020820190508181035f8301526116e8816116af565b9050919050565b5f61ffff82169050919050565b7f4e487b71000000000000000000000000000000000000000000000000000000005f52601160045260245ffd5b5f611733826116ef565b915061173e836116ef565b9250828201905061ffff811115611758576117576116fc565b5b92915050565b5f611768826116ef565b9150611773836116ef565b9250828202611781816116ef565b9150808214611793576117926116fc565b5b5092915050565b7f4e487b71000000000000000000000000000000000000000000000000000000005f52601260045260245ffd5b5f6117d1826116ef565b91506117dc836116ef565b9250826117ec576117eb61179a565b5b828204905092915050565b5f819050815f5260205f209050919050565b5f6020601f8301049050919050565b5f82821b905092915050565b5f600883026118537fffffffffffffffffffffffffffffffffffffffffffffffffffffffffffffffff82611818565b61185d8683611818565b95508019841693508086168417925050509392505050565b5f819050919050565b5f61189861189361188e84610e57565b611875565b610e57565b9050919050565b5f819050919050565b6118b18361187e565b6118c56118bd8261189f565b848454611824565b825550505050565b5f90565b6118d96118cd565b6118e48184846118a8565b505050565b5b81811015611907576118fc5f826118d1565b6001810190506118ea565b5050565b601f82111561194c5761191d816117f7565b61192684611809565b81016020851015611935578190505b61194961194185611809565b8301826118e9565b50505b505050565b5f82821c905092915050565b5f61196c5f1984600802611951565b1980831691505092915050565b5f611984838361195d565b9150826002028217905092915050565b61199d82610ec4565b67ffffffffffffffff8111156119b6576119b5611023565b5b6119c082546113dd565b6119cb82828561190b565b5f60209050601f8311600181146119fc575f84156119ea578287015190505b6119f48582611979565b865550611a5b565b601f198416611a0a866117f7565b5f5b82811015611a3157848901518255600182019150602085019450602081019050611a0c565b86831015611a4e5784890151611a4a601f89168261195d565b8355505b6001600288020188555050505b505050505050565b5f611a6d82610e57565b91507fffffffffffffffffffffffffffffffffffffffffffffffffffffffffffffffff8203611a9f57611a9e6116fc565b5b600182019050919050565b7f53747564656e7420646f6573206e6f74206578697374000000000000000000005f82015250565b5f611ade601683610ece565b9150611ae982611aaa565b602082019050919050565b5f6020820190508181035f830152611b0b81611ad2565b9050919050565b5f602082019050611b255f830184610f40565b9291505056fea2646970667358221220cad12dc5fa834e7eeba4a1f8a57850e9457ae3410a82ebc14d119030ced5851964736f6c634300081a0033",
			"opcodes": "PUSH1 0x80 PUSH1 0x40 MSTORE CALLVALUE DUP1 ISZERO PUSH1 0xE JUMPI PUSH0 DUP1 REVERT JUMPDEST POP PUSH2 0x1B61 DUP1 PUSH2 0x1C PUSH0 CODECOPY PUSH0 RETURN INVALID PUSH1 0x80 PUSH1 0x40 MSTORE CALLVALUE DUP1 ISZERO PUSH2 0xF JUMPI PUSH0 DUP1 REVERT JUMPDEST POP PUSH1 0x4 CALLDATASIZE LT PUSH2 0x86 JUMPI PUSH0 CALLDATALOAD PUSH1 0xE0 SHR DUP1 PUSH4 0x8DA5CB5B GT PUSH2 0x59 JUMPI DUP1 PUSH4 0x8DA5CB5B EQ PUSH2 0x132 JUMPI DUP1 PUSH4 0x9426D36B EQ PUSH2 0x150 JUMPI DUP1 PUSH4 0xE581F9EE EQ PUSH2 0x16C JUMPI DUP1 PUSH4 0xF6D146DF EQ PUSH2 0x18A JUMPI PUSH2 0x86 JUMP JUMPDEST DUP1 PUSH4 0x6EAD22E EQ PUSH2 0x8A JUMPI DUP1 PUSH4 0xD8E6E2C EQ PUSH2 0xC2 JUMPI DUP1 PUSH4 0x72D769BB EQ PUSH2 0xE0 JUMPI DUP1 PUSH4 0x86A9B364 EQ PUSH2 0xFC JUMPI JUMPDEST PUSH0 DUP1 REVERT JUMPDEST PUSH2 0xA4 PUSH1 0x4 DUP1 CALLDATASIZE SUB DUP2 ADD SWAP1 PUSH2 0x9F SWAP2 SWAP1 PUSH2 0xE8A JUMP JUMPDEST PUSH2 0x1A6 JUMP JUMPDEST PUSH1 0x40 MLOAD PUSH2 0xB9 SWAP10 SWAP9 SWAP8 SWAP7 SWAP6 SWAP5 SWAP4 SWAP3 SWAP2 SWAP1 PUSH2 0xF69 JUMP JUMPDEST PUSH1 0x40 MLOAD DUP1 SWAP2 SUB SWAP1 RETURN JUMPDEST PUSH2 0xCA PUSH2 0x2D0 JUMP JUMPDEST PUSH1 0x40 MLOAD PUSH2 0xD7 SWAP2 SWAP1 PUSH2 0xFFB JUMP JUMPDEST PUSH1 0x40 MLOAD DUP1 SWAP2 SUB SWAP1 RETURN JUMPDEST PUSH2 0xFA PUSH1 0x4 DUP1 CALLDATASIZE SUB DUP2 ADD SWAP1 PUSH2 0xF5 SWAP2 SWAP1 PUSH2 0x1171 JUMP JUMPDEST PUSH2 0x30D JUMP JUMPDEST STOP JUMPDEST PUSH2 0x116 PUSH1 0x4 DUP1 CALLDATASIZE SUB DUP2 ADD SWAP1 PUSH2 0x111 SWAP2 SWAP1 PUSH2 0xE8A JUMP JUMPDEST PUSH2 0x72A JUMP JUMPDEST PUSH1 0x40 MLOAD PUSH2 0x129 SWAP8 SWAP7 SWAP6 SWAP5 SWAP4 SWAP3 SWAP2 SWAP1 PUSH2 0x1216 JUMP JUMPDEST PUSH1 0x40 MLOAD DUP1 SWAP2 SUB SWAP1 RETURN JUMPDEST PUSH2 0x13A PUSH2 0x8AE JUMP JUMPDEST PUSH1 0x40 MLOAD PUSH2 0x147 SWAP2 SWAP1 PUSH2 0x12C9 JUMP JUMPDEST PUSH1 0x40 MLOAD DUP1 SWAP2 SUB SWAP1 RETURN JUMPDEST PUSH2 0x16A PUSH1 0x4 DUP1 CALLDATASIZE SUB DUP2 ADD SWAP1 PUSH2 0x165 SWAP2 SWAP1 PUSH2 0x12E2 JUMP JUMPDEST PUSH2 0x8D1 JUMP JUMPDEST STOP JUMPDEST PUSH2 0x174 PUSH2 0xC01 JUMP JUMPDEST PUSH1 0x40 MLOAD PUSH2 0x181 SWAP2 SWAP1 PUSH2 0x1359 JUMP JUMPDEST PUSH1 0x40 MLOAD DUP1 SWAP2 SUB SWAP1 RETURN JUMPDEST PUSH2 0x1A4 PUSH1 0x4 DUP1 CALLDATASIZE SUB DUP2 ADD SWAP1 PUSH2 0x19F SWAP2 SWAP1 PUSH2 0x1372 JUMP JUMPDEST PUSH2 0xC07 JUMP JUMPDEST STOP JUMPDEST PUSH1 0x1 PUSH1 0x20 MSTORE DUP1 PUSH0 MSTORE PUSH1 0x40 PUSH0 KECCAK256 PUSH0 SWAP2 POP SWAP1 POP DUP1 PUSH0 ADD SLOAD SWAP1 DUP1 PUSH1 0x1 ADD DUP1 SLOAD PUSH2 0x1CB SWAP1 PUSH2 0x13DD JUMP JUMPDEST DUP1 PUSH1 0x1F ADD PUSH1 0x20 DUP1 SWAP2 DIV MUL PUSH1 0x20 ADD PUSH1 0x40 MLOAD SWAP1 DUP2 ADD PUSH1 0x40 MSTORE DUP1 SWAP3 SWAP2 SWAP1 DUP2 DUP2 MSTORE PUSH1 0x20 ADD DUP3 DUP1 SLOAD PUSH2 0x1F7 SWAP1 PUSH2 0x13DD JUMP JUMPDEST DUP1 ISZERO PUSH2 0x242 JUMPI DUP1 PUSH1 0x1F LT PUSH2 0x219 JUMPI PUSH2 0x100 DUP1 DUP4 SLOAD DIV MUL DUP4 MSTORE SWAP2 PUSH1 0x20 ADD SWAP2 PUSH2 0x242 JUMP JUMPDEST DUP3 ADD SWAP2 SWAP1 PUSH0 MSTORE PUSH1 0x20 PUSH0 KECCAK256 SWAP1 JUMPDEST DUP2 SLOAD DUP2 MSTORE SWAP1 PUSH1 0x1 ADD SWAP1 PUSH1 0x20 ADD DUP1 DUP4 GT PUSH2 0x225 JUMPI DUP3 SWAP1 SUB PUSH1 0x1F AND DUP3 ADD SWAP2 JUMPDEST POP POP POP POP POP SWAP1 DUP1 PUSH1 0x2 ADD PUSH0 SWAP1 SLOAD SWAP1 PUSH2 0x100 EXP SWAP1 DIV PUSH1 0xFF AND SWAP1 DUP1 PUSH1 0x2 ADD PUSH1 0x1 SWAP1 SLOAD SWAP1 PUSH2 0x100 EXP SWAP1 DIV PUSH1 0xFF AND SWAP1 DUP1 PUSH1 0x2 ADD PUSH1 0x2 SWAP1 SLOAD SWAP1 PUSH2 0x100 EXP SWAP1 DIV PUSH1 0xFF AND SWAP1 DUP1 PUSH1 0x2 ADD PUSH1 0x3 SWAP1 SLOAD SWAP1 PUSH2 0x100 EXP SWAP1 DIV PUSH1 0xFF AND SWAP1 DUP1 PUSH1 0x2 ADD PUSH1 0x4 SWAP1 SLOAD SWAP1 PUSH2 0x100 EXP SWAP1 DIV PUSH1 0xFF AND SWAP1 DUP1 PUSH1 0x2 ADD PUSH1 0x5 SWAP1 SLOAD SWAP1 PUSH2 0x100 EXP SWAP1 DIV PUSH1 0xFF AND SWAP1 DUP1 PUSH1 0x2 ADD PUSH1 0x6 SWAP1 SLOAD SWAP1 PUSH2 0x100 EXP SWAP1 DIV PUSH1 0xFF AND SWAP1 POP DUP10 JUMP JUMPDEST PUSH1 0x60 PUSH1 0x40 MLOAD DUP1 PUSH1 0x40 ADD PUSH1 0x40 MSTORE DUP1 PUSH1 0x4 DUP2 MSTORE PUSH1 0x20 ADD PUSH32 0x76322E3000000000000000000000000000000000000000000000000000000000 DUP2 MSTORE POP SWAP1 POP SWAP1 JUMP JUMPDEST PUSH0 DUP1 SLOAD SWAP1 PUSH2 0x100 EXP SWAP1 DIV PUSH20 0xFFFFFFFFFFFFFFFFFFFFFFFFFFFFFFFFFFFFFFFF AND PUSH20 0xFFFFFFFFFFFFFFFFFFFFFFFFFFFFFFFFFFFFFFFF AND CALLER PUSH20 0xFFFFFFFFFFFFFFFFFFFFFFFFFFFFFFFFFFFFFFFF AND EQ PUSH2 0x39A JUMPI PUSH1 0x40 MLOAD PUSH32 0x8C379A000000000000000000000000000000000000000000000000000000000 DUP2 MSTORE PUSH1 0x4 ADD PUSH2 0x391 SWAP1 PUSH2 0x147D JUMP JUMPDEST PUSH1 0x40 MLOAD DUP1 SWAP2 SUB SWAP1 REVERT JUMPDEST PUSH1 0x1 PUSH0 DUP8 DUP2 MSTORE PUSH1 0x20 ADD SWAP1 DUP2 MSTORE PUSH1 0x20 ADD PUSH0 KECCAK256 PUSH1 0x2 ADD PUSH1 0x4 SWAP1 SLOAD SWAP1 PUSH2 0x100 EXP SWAP1 DIV PUSH1 0xFF AND ISZERO PUSH2 0x3FC JUMPI PUSH1 0x40 MLOAD PUSH32 0x8C379A000000000000000000000000000000000000000000000000000000000 DUP2 MSTORE PUSH1 0x4 ADD PUSH2 0x3F3 SWAP1 PUSH2 0x14E5 JUMP JUMPDEST PUSH1 0x40 MLOAD DUP1 SWAP2 SUB SWAP1 REVERT JUMPDEST PUSH1 0x64 DUP5 PUSH1 0xFF AND GT ISZERO PUSH2 0x443 JUMPI PUSH1 0x40 MLOAD PUSH32 0x8C379A000000000000000000000000000000000000000000000000000000000 DUP2 MSTORE PUSH1 0x4 ADD PUSH2 0x43A SWAP1 PUSH2 0x1573 JUMP JUMPDEST PUSH1 0x40 MLOAD DUP1 SWAP2 SUB SWAP1 REVERT JUMPDEST PUSH1 0x64 DUP4 PUSH1 0xFF AND GT ISZERO PUSH2 0x48A JUMPI PUSH1 0x40 MLOAD PUSH32 0x8C379A000000000000000000000000000000000000000000000000000000000 DUP2 MSTORE PUSH1 0x4 ADD PUSH2 0x481 SWAP1 PUSH2 0x15DB JUMP JUMPDEST PUSH1 0x40 MLOAD DUP1 SWAP2 SUB SWAP1 REVERT JUMPDEST PUSH1 0x64 DUP3 PUSH1 0xFF AND GT ISZERO PUSH2 0x4D1 JUMPI PUSH1 0x40 MLOAD PUSH32 0x8C379A000000000000000000000000000000000000000000000000000000000 DUP2 MSTORE PUSH1 0x4 ADD PUSH2 0x4C8 SWAP1 PUSH2 0x1643 JUMP JUMPDEST PUSH1 0x40 MLOAD DUP1 SWAP2 SUB SWAP1 REVERT JUMPDEST PUSH1 0x64 DUP2 PUSH1 0xFF AND GT ISZERO PUSH2 0x518 JUMPI PUSH1 0x40 MLOAD PUSH32 0x8C379A000000000000000000000000000000000000000000000000000000000 DUP2 MSTORE PUSH1 0x4 ADD PUSH2 0x50F SWAP1 PUSH2 0x16D1 JUMP JUMPDEST PUSH1 0x40 MLOAD DUP1 SWAP2 SUB SWAP1 REVERT JUMPDEST PUSH0 DUP2 PUSH1 0xFF AND DUP4 PUSH1 0xFF AND DUP6 PUSH1 0xFF AND DUP8 PUSH1 0xFF AND PUSH2 0x533 SWAP2 SWAP1 PUSH2 0x1729 JUMP JUMPDEST PUSH2 0x53D SWAP2 SWAP1 PUSH2 0x1729 JUMP JUMPDEST PUSH2 0x547 SWAP2 SWAP1 PUSH2 0x1729 JUMP JUMPDEST SWAP1 POP PUSH0 PUSH2 0x190 PUSH1 0x64 DUP4 PUSH2 0x55A SWAP2 SWAP1 PUSH2 0x175E JUMP JUMPDEST PUSH2 0x564 SWAP2 SWAP1 PUSH2 0x17C7 JUMP JUMPDEST SWAP1 POP PUSH1 0x40 MLOAD DUP1 PUSH2 0x120 ADD PUSH1 0x40 MSTORE DUP1 DUP10 DUP2 MSTORE PUSH1 0x20 ADD DUP9 DUP2 MSTORE PUSH1 0x20 ADD DUP8 PUSH1 0xFF AND DUP2 MSTORE PUSH1 0x20 ADD DUP7 PUSH1 0xFF AND DUP2 MSTORE PUSH1 0x20 ADD DUP6 PUSH1 0xFF AND DUP2 MSTORE PUSH1 0x20 ADD DUP5 PUSH1 0xFF AND DUP2 MSTORE PUSH1 0x20 ADD PUSH1 0x1 ISZERO ISZERO DUP2 MSTORE PUSH1 0x20 ADD DUP3 PUSH1 0xFF AND DUP2 MSTORE PUSH1 0x20 ADD PUSH0 ISZERO ISZERO DUP2 MSTORE POP PUSH1 0x1 PUSH0 DUP11 DUP2 MSTORE PUSH1 0x20 ADD SWAP1 DUP2 MSTORE PUSH1 0x20 ADD PUSH0 KECCAK256 PUSH0 DUP3 ADD MLOAD DUP2 PUSH0 ADD SSTORE PUSH1 0x20 DUP3 ADD MLOAD DUP2 PUSH1 0x1 ADD SWAP1 DUP2 PUSH2 0x5E8 SWAP2 SWAP1 PUSH2 0x1994 JUMP JUMPDEST POP PUSH1 0x40 DUP3 ADD MLOAD DUP2 PUSH1 0x2 ADD PUSH0 PUSH2 0x100 EXP DUP2 SLOAD DUP2 PUSH1 0xFF MUL NOT AND SWAP1 DUP4 PUSH1 0xFF AND MUL OR SWAP1 SSTORE POP PUSH1 0x60 DUP3 ADD MLOAD DUP2 PUSH1 0x2 ADD PUSH1 0x1 PUSH2 0x100 EXP DUP2 SLOAD DUP2 PUSH1 0xFF MUL NOT AND SWAP1 DUP4 PUSH1 0xFF AND MUL OR SWAP1 SSTORE POP PUSH1 0x80 DUP3 ADD MLOAD DUP2 PUSH1 0x2 ADD PUSH1 0x2 PUSH2 0x100 EXP DUP2 SLOAD DUP2 PUSH1 0xFF MUL NOT AND SWAP1 DUP4 PUSH1 0xFF AND MUL OR SWAP1 SSTORE POP PUSH1 0xA0 DUP3 ADD MLOAD DUP2 PUSH1 0x2 ADD PUSH1 0x3 PUSH2 0x100 EXP DUP2 SLOAD DUP2 PUSH1 0xFF MUL NOT AND SWAP1 DUP4 PUSH1 0xFF AND MUL OR SWAP1 SSTORE POP PUSH1 0xC0 DUP3 ADD MLOAD DUP2 PUSH1 0x2 ADD PUSH1 0x4 PUSH2 0x100 EXP DUP2 SLOAD DUP2 PUSH1 0xFF MUL NOT AND SWAP1 DUP4 ISZERO ISZERO MUL OR SWAP1 SSTORE POP PUSH1 0xE0 DUP3 ADD MLOAD DUP2 PUSH1 0x2 ADD PUSH1 0x5 PUSH2 0x100 EXP DUP2 SLOAD DUP2 PUSH1 0xFF MUL NOT AND SWAP1 DUP4 PUSH1 0xFF AND MUL OR SWAP1 SSTORE POP PUSH2 0x100 DUP3 ADD MLOAD DUP2 PUSH1 0x2 ADD PUSH1 0x6 PUSH2 0x100 EXP DUP2 SLOAD DUP2 PUSH1 0xFF MUL NOT AND SWAP1 DUP4 ISZERO ISZERO MUL OR SWAP1 SSTORE POP SWAP1 POP POP PUSH1 0x2 PUSH0 DUP2 SLOAD DUP1 SWAP3 SWAP2 SWAP1 PUSH2 0x6E3 SWAP1 PUSH2 0x1A63 JUMP JUMPDEST SWAP2 SWAP1 POP SSTORE POP DUP8 PUSH32 0x9682C9A3E9734A1F8D3A641838A5D7862F4EB29FCBF4BD04E0CCAC28FFCFD227 DUP9 PUSH1 0x40 MLOAD PUSH2 0x718 SWAP2 SWAP1 PUSH2 0xFFB JUMP JUMPDEST PUSH1 0x40 MLOAD DUP1 SWAP2 SUB SWAP1 LOG2 POP POP POP POP POP POP POP POP JUMP JUMPDEST PUSH0 PUSH1 0x60 PUSH0 DUP1 PUSH0 DUP1 PUSH0 DUP8 PUSH1 0x1 PUSH0 DUP3 DUP2 MSTORE PUSH1 0x20 ADD SWAP1 DUP2 MSTORE PUSH1 0x20 ADD PUSH0 KECCAK256 PUSH1 0x2 ADD PUSH1 0x4 SWAP1 SLOAD SWAP1 PUSH2 0x100 EXP SWAP1 DIV PUSH1 0xFF AND PUSH2 0x794 JUMPI PUSH1 0x40 MLOAD PUSH32 0x8C379A000000000000000000000000000000000000000000000000000000000 DUP2 MSTORE PUSH1 0x4 ADD PUSH2 0x78B SWAP1 PUSH2 0x1AF4 JUMP JUMPDEST PUSH1 0x40 MLOAD DUP1 SWAP2 SUB SWAP1 REVERT JUMPDEST PUSH0 PUSH1 0x1 PUSH0 DUP12 DUP2 MSTORE PUSH1 0x20 ADD SWAP1 DUP2 MSTORE PUSH1 0x20 ADD PUSH0 KECCAK256 SWAP1 POP DUP1 PUSH0 ADD SLOAD DUP2 PUSH1 0x1 ADD DUP3 PUSH1 0x2 ADD PUSH0 SWAP1 SLOAD SWAP1 PUSH2 0x100 EXP SWAP1 DIV PUSH1 0xFF AND DUP4 PUSH1 0x2 ADD PUSH1 0x1 SWAP1 SLOAD SWAP1 PUSH2 0x100 EXP SWAP1 DIV PUSH1 0xFF AND DUP5 PUSH1 0x2 ADD PUSH1 0x2 SWAP1 SLOAD SWAP1 PUSH2 0x100 EXP SWAP1 DIV PUSH1 0xFF AND DUP6 PUSH1 0x2 ADD PUSH1 0x3 SWAP1 SLOAD SWAP1 PUSH2 0x100 EXP SWAP1 DIV PUSH1 0xFF AND DUP7 PUSH1 0x2 ADD PUSH1 0x5 SWAP1 SLOAD SWAP1 PUSH2 0x100 EXP SWAP1 DIV PUSH1 0xFF AND DUP6 DUP1 SLOAD PUSH2 0x815 SWAP1 PUSH2 0x13DD JUMP JUMPDEST DUP1 PUSH1 0x1F ADD PUSH1 0x20 DUP1 SWAP2 DIV MUL PUSH1 0x20 ADD PUSH1 0x40 MLOAD SWAP1 DUP2 ADD PUSH1 0x40 MSTORE DUP1 SWAP3 SWAP2 SWAP1 DUP2 DUP2 MSTORE PUSH1 0x20 ADD DUP3 DUP1 SLOAD PUSH2 0x841 SWAP1 PUSH2 0x13DD JUMP JUMPDEST DUP1 ISZERO PUSH2 0x88C JUMPI DUP1 PUSH1 0x1F LT PUSH2 0x863 JUMPI PUSH2 0x100 DUP1 DUP4 SLOAD DIV MUL DUP4 MSTORE SWAP2 PUSH1 0x20 ADD SWAP2 PUSH2 0x88C JUMP JUMPDEST DUP3 ADD SWAP2 SWAP1 PUSH0 MSTORE PUSH1 0x20 PUSH0 KECCAK256 SWAP1 JUMPDEST DUP2 SLOAD DUP2 MSTORE SWAP1 PUSH1 0x1 ADD SWAP1 PUSH1 0x20 ADD DUP1 DUP4 GT PUSH2 0x86F JUMPI DUP3 SWAP1 SUB PUSH1 0x1F AND DUP3 ADD SWAP2 JUMPDEST POP POP POP POP POP SWAP6 POP SWAP9 POP SWAP9 POP SWAP9 POP SWAP9 POP SWAP9 POP SWAP9 POP SWAP9 POP POP POP SWAP2 SWAP4 SWAP6 SWAP8 SWAP1 SWAP3 SWAP5 SWAP7 POP JUMP JUMPDEST PUSH0 DUP1 SLOAD SWAP1 PUSH2 0x100 EXP SWAP1 DIV PUSH20 0xFFFFFFFFFFFFFFFFFFFFFFFFFFFFFFFFFFFFFFFF AND DUP2 JUMP JUMPDEST PUSH0 DUP1 SLOAD SWAP1 PUSH2 0x100 EXP SWAP1 DIV PUSH20 0xFFFFFFFFFFFFFFFFFFFFFFFFFFFFFFFFFFFFFFFF AND PUSH20 0xFFFFFFFFFFFFFFFFFFFFFFFFFFFFFFFFFFFFFFFF AND CALLER PUSH20 0xFFFFFFFFFFFFFFFFFFFFFFFFFFFFFFFFFFFFFFFF AND EQ PUSH2 0x95E JUMPI PUSH1 0x40 MLOAD PUSH32 0x8C379A000000000000000000000000000000000000000000000000000000000 DUP2 MSTORE PUSH1 0x4 ADD PUSH2 0x955 SWAP1 PUSH2 0x147D JUMP JUMPDEST PUSH1 0x40 MLOAD DUP1 SWAP2 SUB SWAP1 REVERT JUMPDEST DUP5 PUSH1 0x1 PUSH0 DUP3 DUP2 MSTORE PUSH1 0x20 ADD SWAP1 DUP2 MSTORE PUSH1 0x20 ADD PUSH0 KECCAK256 PUSH1 0x2 ADD PUSH1 0x4 SWAP1 SLOAD SWAP1 PUSH2 0x100 EXP SWAP1 DIV PUSH1 0xFF AND PUSH2 0x9C0 JUMPI PUSH1 0x40 MLOAD PUSH32 0x8C379A000000000000000000000000000000000000000000000000000000000 DUP2 MSTORE PUSH1 0x4 ADD PUSH2 0x9B7 SWAP1 PUSH2 0x1AF4 JUMP JUMPDEST PUSH1 0x40 MLOAD DUP1 SWAP2 SUB SWAP1 REVERT JUMPDEST PUSH1 0x64 DUP6 PUSH1 0xFF AND GT ISZERO PUSH2 0xA07 JUMPI PUSH1 0x40 MLOAD PUSH32 0x8C379A000000000000000000000000000000000000000000000000000000000 DUP2 MSTORE PUSH1 0x4 ADD PUSH2 0x9FE SWAP1 PUSH2 0x1573 JUMP JUMPDEST PUSH1 0x40 MLOAD DUP1 SWAP2 SUB SWAP1 REVERT JUMPDEST PUSH1 0x64 DUP5 PUSH1 0xFF AND GT ISZERO PUSH2 0xA4E JUMPI PUSH1 0x40 MLOAD PUSH32 0x8C379A000000000000000000000000000000000000000000000000000000000 DUP2 MSTORE PUSH1 0x4 ADD PUSH2 0xA45 SWAP1 PUSH2 0x15DB JUMP JUMPDEST PUSH1 0x40 MLOAD DUP1 SWAP2 SUB SWAP1 REVERT JUMPDEST PUSH1 0x64 DUP4 PUSH1 0xFF AND GT ISZERO PUSH2 0xA95 JUMPI PUSH1 0x40 MLOAD PUSH32 0x8C379A000000000000000000000000000000000000000000000000000000000 DUP2 MSTORE PUSH1 0x4 ADD PUSH2 0xA8C SWAP1 PUSH2 0x1643 JUMP JUMPDEST PUSH1 0x40 MLOAD DUP1 SWAP2 SUB SWAP1 REVERT JUMPDEST PUSH1 0x64 DUP3 PUSH1 0xFF AND GT ISZERO PUSH2 0xADC JUMPI PUSH1 0x40 MLOAD PUSH32 0x8C379A000000000000000000000000000000000000000000000000000000000 DUP2 MSTORE PUSH1 0x4 ADD PUSH2 0xAD3 SWAP1 PUSH2 0x16D1 JUMP JUMPDEST PUSH1 0x40 MLOAD DUP1 SWAP2 SUB SWAP1 REVERT JUMPDEST PUSH0 PUSH1 0x1 PUSH0 DUP9 DUP2 MSTORE PUSH1 0x20 ADD SWAP1 DUP2 MSTORE PUSH1 0x20 ADD PUSH0 KECCAK256 SWAP1 POP DUP6 DUP2 PUSH1 0x2 ADD PUSH0 PUSH2 0x100 EXP DUP2 SLOAD DUP2 PUSH1 0xFF MUL NOT AND SWAP1 DUP4 PUSH1 0xFF AND MUL OR SWAP1 SSTORE POP DUP5 DUP2 PUSH1 0x2 ADD PUSH1 0x1 PUSH2 0x100 EXP DUP2 SLOAD DUP2 PUSH1 0xFF MUL NOT AND SWAP1 DUP4 PUSH1 0xFF AND MUL OR SWAP1 SSTORE POP DUP4 DUP2 PUSH1 0x2 ADD PUSH1 0x2 PUSH2 0x100 EXP DUP2 SLOAD DUP2 PUSH1 0xFF MUL NOT AND SWAP1 DUP4 PUSH1 0xFF AND MUL OR SWAP1 SSTORE POP DUP3 DUP2 PUSH1 0x2 ADD PUSH1 0x3 PUSH2 0x100 EXP DUP2 SLOAD DUP2 PUSH1 0xFF MUL NOT AND SWAP1 DUP4 PUSH1 0xFF AND MUL OR SWAP1 SSTORE POP PUSH0 DUP4 PUSH1 0xFF AND DUP6 PUSH1 0xFF AND DUP8 PUSH1 0xFF AND DUP10 PUSH1 0xFF AND PUSH2 0xB7E SWAP2 SWAP1 PUSH2 0x1729 JUMP JUMPDEST PUSH2 0xB88 SWAP2 SWAP1 PUSH2 0x1729 JUMP JUMPDEST PUSH2 0xB92 SWAP2 SWAP1 PUSH2 0x1729 JUMP JUMPDEST SWAP1 POP PUSH2 0x190 PUSH1 0x64 DUP3 PUSH2 0xBA4 SWAP2 SWAP1 PUSH2 0x175E JUMP JUMPDEST PUSH2 0xBAE SWAP2 SWAP1 PUSH2 0x17C7 JUMP JUMPDEST DUP3 PUSH1 0x2 ADD PUSH1 0x5 PUSH2 0x100 EXP DUP2 SLOAD DUP2 PUSH1 0xFF MUL NOT AND SWAP1 DUP4 PUSH1 0xFF AND MUL OR SWAP1 SSTORE POP DUP8 PUSH32 0xA2704734BC624BBCC8E9095F9D704E14CC50C1AB5110CF6929276A25EF635A72 PUSH1 0x40 MLOAD PUSH1 0x40 MLOAD DUP1 SWAP2 SUB SWAP1 LOG2 POP POP POP POP POP POP POP POP JUMP JUMPDEST PUSH1 0x2 SLOAD DUP2 JUMP JUMPDEST PUSH0 DUP1 SLOAD SWAP1 PUSH2 0x100 EXP SWAP1 DIV PUSH20 0xFFFFFFFFFFFFFFFFFFFFFFFFFFFFFFFFFFFFFFFF AND PUSH20 0xFFFFFFFFFFFFFFFFFFFFFFFFFFFFFFFFFFFFFFFF AND CALLER PUSH20 0xFFFFFFFFFFFFFFFFFFFFFFFFFFFFFFFFFFFFFFFF AND EQ PUSH2 0xC94 JUMPI PUSH1 0x40 MLOAD PUSH32 0x8C379A000000000000000000000000000000000000000000000000000000000 DUP2 MSTORE PUSH1 0x4 ADD PUSH2 0xC8B SWAP1 PUSH2 0x147D JUMP JUMPDEST PUSH1 0x40 MLOAD DUP1 SWAP2 SUB SWAP1 REVERT JUMPDEST DUP2 PUSH1 0x1 PUSH0 DUP3 DUP2 MSTORE PUSH1 0x20 ADD SWAP1 DUP2 MSTORE PUSH1 0x20 ADD PUSH0 KECCAK256 PUSH1 0x2 ADD PUSH1 0x4 SWAP1 SLOAD SWAP1 PUSH2 0x100 EXP SWAP1 DIV PUSH1 0xFF AND PUSH2 0xCF6 JUMPI PUSH1 0x40 MLOAD PUSH32 0x8C379A000000000000000000000000000000000000000000000000000000000 DUP2 MSTORE PUSH1 0x4 ADD PUSH2 0xCED SWAP1 PUSH2 0x1AF4 JUMP JUMPDEST PUSH1 0x40 MLOAD DUP1 SWAP2 SUB SWAP1 REVERT JUMPDEST PUSH1 0x64 DUP3 PUSH1 0xFF AND GT ISZERO PUSH2 0xD3D JUMPI PUSH1 0x40 MLOAD PUSH32 0x8C379A000000000000000000000000000000000000000000000000000000000 DUP2 MSTORE PUSH1 0x4 ADD PUSH2 0xD34 SWAP1 PUSH2 0x16D1 JUMP JUMPDEST PUSH1 0x40 MLOAD DUP1 SWAP2 SUB SWAP1 REVERT JUMPDEST PUSH0 PUSH1 0x1 PUSH0 DUP6 DUP2 MSTORE PUSH1 0x20 ADD SWAP1 DUP2 MSTORE PUSH1 0x20 ADD PUSH0 KECCAK256 SWAP1 POP DUP3 DUP2 PUSH1 0x2 ADD PUSH1 0x3 PUSH2 0x100 EXP DUP2 SLOAD DUP2 PUSH1 0xFF MUL NOT AND SWAP1 DUP4 PUSH1 0xFF AND MUL OR SWAP1 SSTORE POP PUSH0 DUP4 PUSH1 0xFF AND DUP3 PUSH1 0x2 ADD PUSH1 0x2 SWAP1 SLOAD SWAP1 PUSH2 0x100 EXP SWAP1 DIV PUSH1 0xFF AND PUSH1 0xFF AND DUP4 PUSH1 0x2 ADD PUSH1 0x1 SWAP1 SLOAD SWAP1 PUSH2 0x100 EXP SWAP1 DIV PUSH1 0xFF AND PUSH1 0xFF AND DUP5 PUSH1 0x2 ADD PUSH0 SWAP1 SLOAD SWAP1 PUSH2 0x100 EXP SWAP1 DIV PUSH1 0xFF AND PUSH1 0xFF AND PUSH2 0xDBB SWAP2 SWAP1 PUSH2 0x1729 JUMP JUMPDEST PUSH2 0xDC5 SWAP2 SWAP1 PUSH2 0x1729 JUMP JUMPDEST PUSH2 0xDCF SWAP2 SWAP1 PUSH2 0x1729 JUMP JUMPDEST SWAP1 POP PUSH2 0x190 PUSH1 0x64 DUP3 PUSH2 0xDE1 SWAP2 SWAP1 PUSH2 0x175E JUMP JUMPDEST PUSH2 0xDEB SWAP2 SWAP1 PUSH2 0x17C7 JUMP JUMPDEST DUP3 PUSH1 0x2 ADD PUSH1 0x5 PUSH2 0x100 EXP DUP2 SLOAD DUP2 PUSH1 0xFF MUL NOT AND SWAP1 DUP4 PUSH1 0xFF AND MUL OR SWAP1 SSTORE POP DUP5 PUSH32 0x9195440FB68FD25B2AB7A73B2CAEF5A3437BB206B7E1656C076BBADFC8CBA6AE DUP6 PUSH1 0x40 MLOAD PUSH2 0xE37 SWAP2 SWAP1 PUSH2 0x1B12 JUMP JUMPDEST PUSH1 0x40 MLOAD DUP1 SWAP2 SUB SWAP1 LOG2 POP POP POP POP POP JUMP JUMPDEST PUSH0 PUSH1 0x40 MLOAD SWAP1 POP SWAP1 JUMP JUMPDEST PUSH0 DUP1 REVERT JUMPDEST PUSH0 DUP1 REVERT JUMPDEST PUSH0 DUP2 SWAP1 POP SWAP2 SWAP1 POP JUMP JUMPDEST PUSH2 0xE69 DUP2 PUSH2 0xE57 JUMP JUMPDEST DUP2 EQ PUSH2 0xE73 JUMPI PUSH0 DUP1 REVERT JUMPDEST POP JUMP JUMPDEST PUSH0 DUP2 CALLDATALOAD SWAP1 POP PUSH2 0xE84 DUP2 PUSH2 0xE60 JUMP JUMPDEST SWAP3 SWAP2 POP POP JUMP JUMPDEST PUSH0 PUSH1 0x20 DUP3 DUP5 SUB SLT ISZERO PUSH2 0xE9F JUMPI PUSH2 0xE9E PUSH2 0xE4F JUMP JUMPDEST JUMPDEST PUSH0 PUSH2 0xEAC DUP5 DUP3 DUP6 ADD PUSH2 0xE76 JUMP JUMPDEST SWAP2 POP POP SWAP3 SWAP2 POP POP JUMP JUMPDEST PUSH2 0xEBE DUP2 PUSH2 0xE57 JUMP JUMPDEST DUP3 MSTORE POP POP JUMP JUMPDEST PUSH0 DUP2 MLOAD SWAP1 POP SWAP2 SWAP1 POP JUMP JUMPDEST PUSH0 DUP3 DUP3 MSTORE PUSH1 0x20 DUP3 ADD SWAP1 POP SWAP3 SWAP2 POP POP JUMP JUMPDEST DUP3 DUP2 DUP4 MCOPY PUSH0 DUP4 DUP4 ADD MSTORE POP POP POP JUMP JUMPDEST PUSH0 PUSH1 0x1F NOT PUSH1 0x1F DUP4 ADD AND SWAP1 POP SWAP2 SWAP1 POP JUMP JUMPDEST PUSH0 PUSH2 0xF06 DUP3 PUSH2 0xEC4 JUMP JUMPDEST PUSH2 0xF10 DUP2 DUP6 PUSH2 0xECE JUMP JUMPDEST SWAP4 POP PUSH2 0xF20 DUP2 DUP6 PUSH1 0x20 DUP7 ADD PUSH2 0xEDE JUMP JUMPDEST PUSH2 0xF29 DUP2 PUSH2 0xEEC JUMP JUMPDEST DUP5 ADD SWAP2 POP POP SWAP3 SWAP2 POP POP JUMP JUMPDEST PUSH0 PUSH1 0xFF DUP3 AND SWAP1 POP SWAP2 SWAP1 POP JUMP JUMPDEST PUSH2 0xF49 DUP2 PUSH2 0xF34 JUMP JUMPDEST DUP3 MSTORE POP POP JUMP JUMPDEST PUSH0 DUP2 ISZERO ISZERO SWAP1 POP SWAP2 SWAP1 POP JUMP JUMPDEST PUSH2 0xF63 DUP2 PUSH2 0xF4F JUMP JUMPDEST DUP3 MSTORE POP POP JUMP JUMPDEST PUSH0 PUSH2 0x120 DUP3 ADD SWAP1 POP PUSH2 0xF7D PUSH0 DUP4 ADD DUP13 PUSH2 0xEB5 JUMP JUMPDEST DUP2 DUP2 SUB PUSH1 0x20 DUP4 ADD MSTORE PUSH2 0xF8F DUP2 DUP12 PUSH2 0xEFC JUMP JUMPDEST SWAP1 POP PUSH2 0xF9E PUSH1 0x40 DUP4 ADD DUP11 PUSH2 0xF40 JUMP JUMPDEST PUSH2 0xFAB PUSH1 0x60 DUP4 ADD DUP10 PUSH2 0xF40 JUMP JUMPDEST PUSH2 0xFB8 PUSH1 0x80 DUP4 ADD DUP9 PUSH2 0xF40 JUMP JUMPDEST PUSH2 0xFC5 PUSH1 0xA0 DUP4 ADD DUP8 PUSH2 0xF40 JUMP JUMPDEST PUSH2 0xFD2 PUSH1 0xC0 DUP4 ADD DUP7 PUSH2 0xF5A JUMP JUMPDEST PUSH2 0xFDF PUSH1 0xE0 DUP4 ADD DUP6 PUSH2 0xF40 JUMP JUMPDEST PUSH2 0xFED PUSH2 0x100 DUP4 ADD DUP5 PUSH2 0xF5A JUMP JUMPDEST SWAP11 SWAP10 POP POP POP POP POP POP POP POP POP POP JUMP JUMPDEST PUSH0 PUSH1 0x20 DUP3 ADD SWAP1 POP DUP2 DUP2 SUB PUSH0 DUP4 ADD MSTORE PUSH2 0x1013 DUP2 DUP5 PUSH2 0xEFC JUMP JUMPDEST SWAP1 POP SWAP3 SWAP2 POP POP JUMP JUMPDEST PUSH0 DUP1 REVERT JUMPDEST PUSH0 DUP1 REVERT JUMPDEST PUSH32 0x4E487B7100000000000000000000000000000000000000000000000000000000 PUSH0 MSTORE PUSH1 0x41 PUSH1 0x4 MSTORE PUSH1 0x24 PUSH0 REVERT JUMPDEST PUSH2 0x1059 DUP3 PUSH2 0xEEC JUMP JUMPDEST DUP2 ADD DUP2 DUP2 LT PUSH8 0xFFFFFFFFFFFFFFFF DUP3 GT OR ISZERO PUSH2 0x1078 JUMPI PUSH2 0x1077 PUSH2 0x1023 JUMP JUMPDEST JUMPDEST DUP1 PUSH1 0x40 MSTORE POP POP POP JUMP JUMPDEST PUSH0 PUSH2 0x108A PUSH2 0xE46 JUMP JUMPDEST SWAP1 POP PUSH2 0x1096 DUP3 DUP3 PUSH2 0x1050 JUMP JUMPDEST SWAP2 SWAP1 POP JUMP JUMPDEST PUSH0 PUSH8 0xFFFFFFFFFFFFFFFF DUP3 GT ISZERO PUSH2 0x10B5 JUMPI PUSH2 0x10B4 PUSH2 0x1023 JUMP JUMPDEST JUMPDEST PUSH2 0x10BE DUP3 PUSH2 0xEEC JUMP JUMPDEST SWAP1 POP PUSH1 0x20 DUP2 ADD SWAP1 POP SWAP2 SWAP1 POP JUMP JUMPDEST DUP3 DUP2 DUP4 CALLDATACOPY PUSH0 DUP4 DUP4 ADD MSTORE POP POP POP JUMP JUMPDEST PUSH0 PUSH2 0x10EB PUSH2 0x10E6 DUP5 PUSH2 0x109B JUMP JUMPDEST PUSH2 0x1081 JUMP JUMPDEST SWAP1 POP DUP3 DUP2 MSTORE PUSH1 0x20 DUP2 ADD DUP5 DUP5 DUP5 ADD GT ISZERO PUSH2 0x1107 JUMPI PUSH2 0x1106 PUSH2 0x101F JUMP JUMPDEST JUMPDEST PUSH2 0x1112 DUP5 DUP3 DUP6 PUSH2 0x10CB JUMP JUMPDEST POP SWAP4 SWAP3 POP POP POP JUMP JUMPDEST PUSH0 DUP3 PUSH1 0x1F DUP4 ADD SLT PUSH2 0x112E JUMPI PUSH2 0x112D PUSH2 0x101B JUMP JUMPDEST JUMPDEST DUP2 CALLDATALOAD PUSH2 0x113E DUP5 DUP3 PUSH1 0x20 DUP7 ADD PUSH2 0x10D9 JUMP JUMPDEST SWAP2 POP POP SWAP3 SWAP2 POP POP JUMP JUMPDEST PUSH2 0x1150 DUP2 PUSH2 0xF34 JUMP JUMPDEST DUP2 EQ PUSH2 0x115A JUMPI PUSH0 DUP1 REVERT JUMPDEST POP JUMP JUMPDEST PUSH0 DUP2 CALLDATALOAD SWAP1 POP PUSH2 0x116B DUP2 PUSH2 0x1147 JUMP JUMPDEST SWAP3 SWAP2 POP POP JUMP JUMPDEST PUSH0 DUP1 PUSH0 DUP1 PUSH0 DUP1 PUSH1 0xC0 DUP8 DUP10 SUB SLT ISZERO PUSH2 0x118B JUMPI PUSH2 0x118A PUSH2 0xE4F JUMP JUMPDEST JUMPDEST PUSH0 PUSH2 0x1198 DUP10 DUP3 DUP11 ADD PUSH2 0xE76 JUMP JUMPDEST SWAP7 POP POP PUSH1 0x20 DUP8 ADD CALLDATALOAD PUSH8 0xFFFFFFFFFFFFFFFF DUP2 GT ISZERO PUSH2 0x11B9 JUMPI PUSH2 0x11B8 PUSH2 0xE53 JUMP JUMPDEST JUMPDEST PUSH2 0x11C5 DUP10 DUP3 DUP11 ADD PUSH2 0x111A JUMP JUMPDEST SWAP6 POP POP PUSH1 0x40 PUSH2 0x11D6 DUP10 DUP3 DUP11 ADD PUSH2 0x115D JUMP JUMPDEST SWAP5 POP POP PUSH1 0x60 PUSH2 0x11E7 DUP10 DUP3 DUP11 ADD PUSH2 0x115D JUMP JUMPDEST SWAP4 POP POP PUSH1 0x80 PUSH2 0x11F8 DUP10 DUP3 DUP11 ADD PUSH2 0x115D JUMP JUMPDEST SWAP3 POP POP PUSH1 0xA0 PUSH2 0x1209 DUP10 DUP3 DUP11 ADD PUSH2 0x115D JUMP JUMPDEST SWAP2 POP POP SWAP3 SWAP6 POP SWAP3 SWAP6 POP SWAP3 SWAP6 JUMP JUMPDEST PUSH0 PUSH1 0xE0 DUP3 ADD SWAP1 POP PUSH2 0x1229 PUSH0 DUP4 ADD DUP11 PUSH2 0xEB5 JUMP JUMPDEST DUP2 DUP2 SUB PUSH1 0x20 DUP4 ADD MSTORE PUSH2 0x123B DUP2 DUP10 PUSH2 0xEFC JUMP JUMPDEST SWAP1 POP PUSH2 0x124A PUSH1 0x40 DUP4 ADD DUP9 PUSH2 0xF40 JUMP JUMPDEST PUSH2 0x1257 PUSH1 0x60 DUP4 ADD DUP8 PUSH2 0xF40 JUMP JUMPDEST PUSH2 0x1264 PUSH1 0x80 DUP4 ADD DUP7 PUSH2 0xF40 JUMP JUMPDEST PUSH2 0x1271 PUSH1 0xA0 DUP4 ADD DUP6 PUSH2 0xF40 JUMP JUMPDEST PUSH2 0x127E PUSH1 0xC0 DUP4 ADD DUP5 PUSH2 0xF40 JUMP JUMPDEST SWAP9 SWAP8 POP POP POP POP POP POP POP POP JUMP JUMPDEST PUSH0 PUSH20 0xFFFFFFFFFFFFFFFFFFFFFFFFFFFFFFFFFFFFFFFF DUP3 AND SWAP1 POP SWAP2 SWAP1 POP JUMP JUMPDEST PUSH0 PUSH2 0x12B3 DUP3 PUSH2 0x128A JUMP JUMPDEST SWAP1 POP SWAP2 SWAP1 POP JUMP JUMPDEST PUSH2 0x12C3 DUP2 PUSH2 0x12A9 JUMP JUMPDEST DUP3 MSTORE POP POP JUMP JUMPDEST PUSH0 PUSH1 0x20 DUP3 ADD SWAP1 POP PUSH2 0x12DC PUSH0 DUP4 ADD DUP5 PUSH2 0x12BA JUMP JUMPDEST SWAP3 SWAP2 POP POP JUMP JUMPDEST PUSH0 DUP1 PUSH0 DUP1 PUSH0 PUSH1 0xA0 DUP7 DUP9 SUB SLT ISZERO PUSH2 0x12FB JUMPI PUSH2 0x12FA PUSH2 0xE4F JUMP JUMPDEST JUMPDEST PUSH0 PUSH2 0x1308 DUP9 DUP3 DUP10 ADD PUSH2 0xE76 JUMP JUMPDEST SWAP6 POP POP PUSH1 0x20 PUSH2 0x1319 DUP9 DUP3 DUP10 ADD PUSH2 0x115D JUMP JUMPDEST SWAP5 POP POP PUSH1 0x40 PUSH2 0x132A DUP9 DUP3 DUP10 ADD PUSH2 0x115D JUMP JUMPDEST SWAP4 POP POP PUSH1 0x60 PUSH2 0x133B DUP9 DUP3 DUP10 ADD PUSH2 0x115D JUMP JUMPDEST SWAP3 POP POP PUSH1 0x80 PUSH2 0x134C DUP9 DUP3 DUP10 ADD PUSH2 0x115D JUMP JUMPDEST SWAP2 POP POP SWAP3 SWAP6 POP SWAP3 SWAP6 SWAP1 SWAP4 POP JUMP JUMPDEST PUSH0 PUSH1 0x20 DUP3 ADD SWAP1 POP PUSH2 0x136C PUSH0 DUP4 ADD DUP5 PUSH2 0xEB5 JUMP JUMPDEST SWAP3 SWAP2 POP POP JUMP JUMPDEST PUSH0 DUP1 PUSH1 0x40 DUP4 DUP6 SUB SLT ISZERO PUSH2 0x1388 JUMPI PUSH2 0x1387 PUSH2 0xE4F JUMP JUMPDEST JUMPDEST PUSH0 PUSH2 0x1395 DUP6 DUP3 DUP7 ADD PUSH2 0xE76 JUMP JUMPDEST SWAP3 POP POP PUSH1 0x20 PUSH2 0x13A6 DUP6 DUP3 DUP7 ADD PUSH2 0x115D JUMP JUMPDEST SWAP2 POP POP SWAP3 POP SWAP3 SWAP1 POP JUMP JUMPDEST PUSH32 0x4E487B7100000000000000000000000000000000000000000000000000000000 PUSH0 MSTORE PUSH1 0x22 PUSH1 0x4 MSTORE PUSH1 0x24 PUSH0 REVERT JUMPDEST PUSH0 PUSH1 0x2 DUP3 DIV SWAP1 POP PUSH1 0x1 DUP3 AND DUP1 PUSH2 0x13F4 JUMPI PUSH1 0x7F DUP3 AND SWAP2 POP JUMPDEST PUSH1 0x20 DUP3 LT DUP2 SUB PUSH2 0x1407 JUMPI PUSH2 0x1406 PUSH2 0x13B0 JUMP JUMPDEST JUMPDEST POP SWAP2 SWAP1 POP JUMP JUMPDEST PUSH32 0x4F6E6C79206F776E65722063616E2063616C6C20746869732066756E6374696F PUSH0 DUP3 ADD MSTORE PUSH32 0x6E00000000000000000000000000000000000000000000000000000000000000 PUSH1 0x20 DUP3 ADD MSTORE POP JUMP JUMPDEST PUSH0 PUSH2 0x1467 PUSH1 0x21 DUP4 PUSH2 0xECE JUMP JUMPDEST SWAP2 POP PUSH2 0x1472 DUP3 PUSH2 0x140D JUMP JUMPDEST PUSH1 0x40 DUP3 ADD SWAP1 POP SWAP2 SWAP1 POP JUMP JUMPDEST PUSH0 PUSH1 0x20 DUP3 ADD SWAP1 POP DUP2 DUP2 SUB PUSH0 DUP4 ADD MSTORE PUSH2 0x1494 DUP2 PUSH2 0x145B JUMP JUMPDEST SWAP1 POP SWAP2 SWAP1 POP JUMP JUMPDEST PUSH32 0x53747564656E7420494420616C72656164792065786973747300000000000000 PUSH0 DUP3 ADD MSTORE POP JUMP JUMPDEST PUSH0 PUSH2 0x14CF PUSH1 0x19 DUP4 PUSH2 0xECE JUMP JUMPDEST SWAP2 POP PUSH2 0x14DA DUP3 PUSH2 0x149B JUMP JUMPDEST PUSH1 0x20 DUP3 ADD SWAP1 POP SWAP2 SWAP1 POP JUMP JUMPDEST PUSH0 PUSH1 0x20 DUP3 ADD SWAP1 POP DUP2 DUP2 SUB PUSH0 DUP4 ADD MSTORE PUSH2 0x14FC DUP2 PUSH2 0x14C3 JUMP JUMPDEST SWAP1 POP SWAP2 SWAP1 POP JUMP JUMPDEST PUSH32 0x456E676C697368206D61726B732073686F756C64206265206F7574206F662031 PUSH0 DUP3 ADD MSTORE PUSH32 0x3030000000000000000000000000000000000000000000000000000000000000 PUSH1 0x20 DUP3 ADD MSTORE POP JUMP JUMPDEST PUSH0 PUSH2 0x155D PUSH1 0x22 DUP4 PUSH2 0xECE JUMP JUMPDEST SWAP2 POP PUSH2 0x1568 DUP3 PUSH2 0x1503 JUMP JUMPDEST PUSH1 0x40 DUP3 ADD SWAP1 POP SWAP2 SWAP1 POP JUMP JUMPDEST PUSH0 PUSH1 0x20 DUP3 ADD SWAP1 POP DUP2 DUP2 SUB PUSH0 DUP4 ADD MSTORE PUSH2 0x158A DUP2 PUSH2 0x1551 JUMP JUMPDEST SWAP1 POP SWAP2 SWAP1 POP JUMP JUMPDEST PUSH32 0x48696E6469206D61726B732073686F756C64206265206F7574206F6620313030 PUSH0 DUP3 ADD MSTORE POP JUMP JUMPDEST PUSH0 PUSH2 0x15C5 PUSH1 0x20 DUP4 PUSH2 0xECE JUMP JUMPDEST SWAP2 POP PUSH2 0x15D0 DUP3 PUSH2 0x1591 JUMP JUMPDEST PUSH1 0x20 DUP3 ADD SWAP1 POP SWAP2 SWAP1 POP JUMP JUMPDEST PUSH0 PUSH1 0x20 DUP3 ADD SWAP1 POP DUP2 DUP2 SUB PUSH0 DUP4 ADD MSTORE PUSH2 0x15F2 DUP2 PUSH2 0x15B9 JUMP JUMPDEST SWAP1 POP SWAP2 SWAP1 POP JUMP JUMPDEST PUSH32 0x4D617468206D61726B732073686F756C64206265206F7574206F662031303000 PUSH0 DUP3 ADD MSTORE POP JUMP JUMPDEST PUSH0 PUSH2 0x162D PUSH1 0x1F DUP4 PUSH2 0xECE JUMP JUMPDEST SWAP2 POP PUSH2 0x1638 DUP3 PUSH2 0x15F9 JUMP JUMPDEST PUSH1 0x20 DUP3 ADD SWAP1 POP SWAP2 SWAP1 POP JUMP JUMPDEST PUSH0 PUSH1 0x20 DUP3 ADD SWAP1 POP DUP2 DUP2 SUB PUSH0 DUP4 ADD MSTORE PUSH2 0x165A DUP2 PUSH2 0x1621 JUMP JUMPDEST SWAP1 POP SWAP2 SWAP1 POP JUMP JUMPDEST PUSH32 0x536369656E6365206D61726B732073686F756C64206265206F7574206F662031 PUSH0 DUP3 ADD MSTORE PUSH32 0x3030000000000000000000000000000000000000000000000000000000000000 PUSH1 0x20 DUP3 ADD MSTORE POP JUMP JUMPDEST PUSH0 PUSH2 0x16BB PUSH1 0x22 DUP4 PUSH2 0xECE JUMP JUMPDEST SWAP2 POP PUSH2 0x16C6 DUP3 PUSH2 0x1661 JUMP JUMPDEST PUSH1 0x40 DUP3 ADD SWAP1 POP SWAP2 SWAP1 POP JUMP JUMPDEST PUSH0 PUSH1 0x20 DUP3 ADD SWAP1 POP DUP2 DUP2 SUB PUSH0 DUP4 ADD MSTORE PUSH2 0x16E8 DUP2 PUSH2 0x16AF JUMP JUMPDEST SWAP1 POP SWAP2 SWAP1 POP JUMP JUMPDEST PUSH0 PUSH2 0xFFFF DUP3 AND SWAP1 POP SWAP2 SWAP1 POP JUMP JUMPDEST PUSH32 0x4E487B7100000000000000000000000000000000000000000000000000000000 PUSH0 MSTORE PUSH1 0x11 PUSH1 0x4 MSTORE PUSH1 0x24 PUSH0 REVERT JUMPDEST PUSH0 PUSH2 0x1733 DUP3 PUSH2 0x16EF JUMP JUMPDEST SWAP2 POP PUSH2 0x173E DUP4 PUSH2 0x16EF JUMP JUMPDEST SWAP3 POP DUP3 DUP3 ADD SWAP1 POP PUSH2 0xFFFF DUP2 GT ISZERO PUSH2 0x1758 JUMPI PUSH2 0x1757 PUSH2 0x16FC JUMP JUMPDEST JUMPDEST SWAP3 SWAP2 POP POP JUMP JUMPDEST PUSH0 PUSH2 0x1768 DUP3 PUSH2 0x16EF JUMP JUMPDEST SWAP2 POP PUSH2 0x1773 DUP4 PUSH2 0x16EF JUMP JUMPDEST SWAP3 POP DUP3 DUP3 MUL PUSH2 0x1781 DUP2 PUSH2 0x16EF JUMP JUMPDEST SWAP2 POP DUP1 DUP3 EQ PUSH2 0x1793 JUMPI PUSH2 0x1792 PUSH2 0x16FC JUMP JUMPDEST JUMPDEST POP SWAP3 SWAP2 POP POP JUMP JUMPDEST PUSH32 0x4E487B7100000000000000000000000000000000000000000000000000000000 PUSH0 MSTORE PUSH1 0x12 PUSH1 0x4 MSTORE PUSH1 0x24 PUSH0 REVERT JUMPDEST PUSH0 PUSH2 0x17D1 DUP3 PUSH2 0x16EF JUMP JUMPDEST SWAP2 POP PUSH2 0x17DC DUP4 PUSH2 0x16EF JUMP JUMPDEST SWAP3 POP DUP3 PUSH2 0x17EC JUMPI PUSH2 0x17EB PUSH2 0x179A JUMP JUMPDEST JUMPDEST DUP3 DUP3 DIV SWAP1 POP SWAP3 SWAP2 POP POP JUMP JUMPDEST PUSH0 DUP2 SWAP1 POP DUP2 PUSH0 MSTORE PUSH1 0x20 PUSH0 KECCAK256 SWAP1 POP SWAP2 SWAP1 POP JUMP JUMPDEST PUSH0 PUSH1 0x20 PUSH1 0x1F DUP4 ADD DIV SWAP1 POP SWAP2 SWAP1 POP JUMP JUMPDEST PUSH0 DUP3 DUP3 SHL SWAP1 POP SWAP3 SWAP2 POP POP JUMP JUMPDEST PUSH0 PUSH1 0x8 DUP4 MUL PUSH2 0x1853 PUSH32 0xFFFFFFFFFFFFFFFFFFFFFFFFFFFFFFFFFFFFFFFFFFFFFFFFFFFFFFFFFFFFFFFF DUP3 PUSH2 0x1818 JUMP JUMPDEST PUSH2 0x185D DUP7 DUP4 PUSH2 0x1818 JUMP JUMPDEST SWAP6 POP DUP1 NOT DUP5 AND SWAP4 POP DUP1 DUP7 AND DUP5 OR SWAP3 POP POP POP SWAP4 SWAP3 POP POP POP JUMP JUMPDEST PUSH0 DUP2 SWAP1 POP SWAP2 SWAP1 POP JUMP JUMPDEST PUSH0 PUSH2 0x1898 PUSH2 0x1893 PUSH2 0x188E DUP5 PUSH2 0xE57 JUMP JUMPDEST PUSH2 0x1875 JUMP JUMPDEST PUSH2 0xE57 JUMP JUMPDEST SWAP1 POP SWAP2 SWAP1 POP JUMP JUMPDEST PUSH0 DUP2 SWAP1 POP SWAP2 SWAP1 POP JUMP JUMPDEST PUSH2 0x18B1 DUP4 PUSH2 0x187E JUMP JUMPDEST PUSH2 0x18C5 PUSH2 0x18BD DUP3 PUSH2 0x189F JUMP JUMPDEST DUP5 DUP5 SLOAD PUSH2 0x1824 JUMP JUMPDEST DUP3 SSTORE POP POP POP POP JUMP JUMPDEST PUSH0 SWAP1 JUMP JUMPDEST PUSH2 0x18D9 PUSH2 0x18CD JUMP JUMPDEST PUSH2 0x18E4 DUP2 DUP5 DUP5 PUSH2 0x18A8 JUMP JUMPDEST POP POP POP JUMP JUMPDEST JUMPDEST DUP2 DUP2 LT ISZERO PUSH2 0x1907 JUMPI PUSH2 0x18FC PUSH0 DUP3 PUSH2 0x18D1 JUMP JUMPDEST PUSH1 0x1 DUP2 ADD SWAP1 POP PUSH2 0x18EA JUMP JUMPDEST POP POP JUMP JUMPDEST PUSH1 0x1F DUP3 GT ISZERO PUSH2 0x194C JUMPI PUSH2 0x191D DUP2 PUSH2 0x17F7 JUMP JUMPDEST PUSH2 0x1926 DUP5 PUSH2 0x1809 JUMP JUMPDEST DUP2 ADD PUSH1 0x20 DUP6 LT ISZERO PUSH2 0x1935 JUMPI DUP2 SWAP1 POP JUMPDEST PUSH2 0x1949 PUSH2 0x1941 DUP6 PUSH2 0x1809 JUMP JUMPDEST DUP4 ADD DUP3 PUSH2 0x18E9 JUMP JUMPDEST POP POP JUMPDEST POP POP POP JUMP JUMPDEST PUSH0 DUP3 DUP3 SHR SWAP1 POP SWAP3 SWAP2 POP POP JUMP JUMPDEST PUSH0 PUSH2 0x196C PUSH0 NOT DUP5 PUSH1 0x8 MUL PUSH2 0x1951 JUMP JUMPDEST NOT DUP1 DUP4 AND SWAP2 POP POP SWAP3 SWAP2 POP POP JUMP JUMPDEST PUSH0 PUSH2 0x1984 DUP4 DUP4 PUSH2 0x195D JUMP JUMPDEST SWAP2 POP DUP3 PUSH1 0x2 MUL DUP3 OR SWAP1 POP SWAP3 SWAP2 POP POP JUMP JUMPDEST PUSH2 0x199D DUP3 PUSH2 0xEC4 JUMP JUMPDEST PUSH8 0xFFFFFFFFFFFFFFFF DUP2 GT ISZERO PUSH2 0x19B6 JUMPI PUSH2 0x19B5 PUSH2 0x1023 JUMP JUMPDEST JUMPDEST PUSH2 0x19C0 DUP3 SLOAD PUSH2 0x13DD JUMP JUMPDEST PUSH2 0x19CB DUP3 DUP3 DUP6 PUSH2 0x190B JUMP JUMPDEST PUSH0 PUSH1 0x20 SWAP1 POP PUSH1 0x1F DUP4 GT PUSH1 0x1 DUP2 EQ PUSH2 0x19FC JUMPI PUSH0 DUP5 ISZERO PUSH2 0x19EA JUMPI DUP3 DUP8 ADD MLOAD SWAP1 POP JUMPDEST PUSH2 0x19F4 DUP6 DUP3 PUSH2 0x1979 JUMP JUMPDEST DUP7 SSTORE POP PUSH2 0x1A5B JUMP JUMPDEST PUSH1 0x1F NOT DUP5 AND PUSH2 0x1A0A DUP7 PUSH2 0x17F7 JUMP JUMPDEST PUSH0 JUMPDEST DUP3 DUP2 LT ISZERO PUSH2 0x1A31 JUMPI DUP5 DUP10 ADD MLOAD DUP3 SSTORE PUSH1 0x1 DUP3 ADD SWAP2 POP PUSH1 0x20 DUP6 ADD SWAP5 POP PUSH1 0x20 DUP2 ADD SWAP1 POP PUSH2 0x1A0C JUMP JUMPDEST DUP7 DUP4 LT ISZERO PUSH2 0x1A4E JUMPI DUP5 DUP10 ADD MLOAD PUSH2 0x1A4A PUSH1 0x1F DUP10 AND DUP3 PUSH2 0x195D JUMP JUMPDEST DUP4 SSTORE POP JUMPDEST PUSH1 0x1 PUSH1 0x2 DUP9 MUL ADD DUP9 SSTORE POP POP POP JUMPDEST POP POP POP POP POP POP JUMP JUMPDEST PUSH0 PUSH2 0x1A6D DUP3 PUSH2 0xE57 JUMP JUMPDEST SWAP2 POP PUSH32 0xFFFFFFFFFFFFFFFFFFFFFFFFFFFFFFFFFFFFFFFFFFFFFFFFFFFFFFFFFFFFFFFF DUP3 SUB PUSH2 0x1A9F JUMPI PUSH2 0x1A9E PUSH2 0x16FC JUMP JUMPDEST JUMPDEST PUSH1 0x1 DUP3 ADD SWAP1 POP SWAP2 SWAP1 POP JUMP JUMPDEST PUSH32 0x53747564656E7420646F6573206E6F7420657869737400000000000000000000 PUSH0 DUP3 ADD MSTORE POP JUMP JUMPDEST PUSH0 PUSH2 0x1ADE PUSH1 0x16 DUP4 PUSH2 0xECE JUMP JUMPDEST SWAP2 POP PUSH2 0x1AE9 DUP3 PUSH2 0x1AAA JUMP JUMPDEST PUSH1 0x20 DUP3 ADD SWAP1 POP SWAP2 SWAP1 POP JUMP JUMPDEST PUSH0 PUSH1 0x20 DUP3 ADD SWAP1 POP DUP2 DUP2 SUB PUSH0 DUP4 ADD MSTORE PUSH2 0x1B0B DUP2 PUSH2 0x1AD2 JUMP JUMPDEST SWAP1 POP SWAP2 SWAP1 POP JUMP JUMPDEST PUSH0 PUSH1 0x20 DUP3 ADD SWAP1 POP PUSH2 0x1B25 PUSH0 DUP4 ADD DUP5 PUSH2 0xF40 JUMP JUMPDEST SWAP3 SWAP2 POP POP JUMP INVALID LOG2 PUSH5 0x6970667358 0x22 SLT KECCAK256 0xCA 0xD1 0x2D 0xC5 STATICCALL DUP4 0x4E PUSH31 0xEBA4A1F8A57850E9457AE3410A82EBC14D119030CED5851964736F6C634300 ADDMOD BYTE STOP CALLER "
		},
		"gasEstimates": {
			"creation": {
				"codeDepositCost": "1401800",
				"executionCost": "1463",
				"totalCost": "1403263"
			},
			"external": {
				"addScienceMarks(uint256,uint8)": "infinite",
				"addStudent(uint256,string,uint8,uint8,uint8,uint8)": "infinite",
				"getStudentDetails(uint256)": "infinite",
				"getVersion()": "infinite",
				"owner()": "2505",
				"studentCount()": "2469",
				"students(uint256)": "infinite",
				"updateMarks(uint256,uint8,uint8,uint8,uint8)": "infinite"
			}
		},
		"methodIdentifiers": {
			"addScienceMarks(uint256,uint8)": "f6d146df",
			"addStudent(uint256,string,uint8,uint8,uint8,uint8)": "72d769bb",
			"getStudentDetails(uint256)": "86a9b364",
			"getVersion()": "0d8e6e2c",
			"owner()": "8da5cb5b",
			"studentCount()": "e581f9ee",
			"students(uint256)": "06ead22e",
			"updateMarks(uint256,uint8,uint8,uint8,uint8)": "9426d36b"
		}
	},
	"abi": [
		{
			"anonymous": false,
			"inputs": [
				{
					"indexed": true,
					"internalType": "uint256",
					"name": "studentId",
					"type": "uint256"
				}
			],
			"name": "MarksUpdated",
			"type": "event"
		},
		{
			"anonymous": false,
			"inputs": [
				{
					"indexed": true,
					"internalType": "uint256",
					"name": "studentId",
					"type": "uint256"
				},
				{
					"indexed": false,
					"internalType": "uint8",
					"name": "scienceMarks",
					"type": "uint8"
				}
			],
			"name": "ScienceMarksAdded",
			"type": "event"
		},
		{
			"anonymous": false,
			"inputs": [
				{
					"indexed": true,
					"internalType": "uint256",
					"name": "studentId",
					"type": "uint256"
				},
				{
					"indexed": false,
					"internalType": "string",
					"name": "name",
					"type": "string"
				}
			],
			"name": "StudentAdded",
			"type": "event"
		},
		{
			"inputs": [
				{
					"internalType": "uint256",
					"name": "_studentId",
					"type": "uint256"
				},
				{
					"internalType": "uint8",
					"name": "_scienceMarks",
					"type": "uint8"
				}
			],
			"name": "addScienceMarks",
			"outputs": [],
			"stateMutability": "nonpayable",
			"type": "function"
		},
		{
			"inputs": [
				{
					"internalType": "uint256",
					"name": "_id",
					"type": "uint256"
				},
				{
					"internalType": "string",
					"name": "_name",
					"type": "string"
				},
				{
					"internalType": "uint8",
					"name": "_englishMarks",
					"type": "uint8"
				},
				{
					"internalType": "uint8",
					"name": "_hindiMarks",
					"type": "uint8"
				},
				{
					"internalType": "uint8",
					"name": "_mathMarks",
					"type": "uint8"
				},
				{
					"internalType": "uint8",
					"name": "_scienceMarks",
					"type": "uint8"
				}
			],
			"name": "addStudent",
			"outputs": [],
			"stateMutability": "nonpayable",
			"type": "function"
		},
		{
			"inputs": [
				{
					"internalType": "uint256",
					"name": "_studentId",
					"type": "uint256"
				}
			],
			"name": "getStudentDetails",
			"outputs": [
				{
					"internalType": "uint256",
					"name": "id",
					"type": "uint256"
				},
				{
					"internalType": "string",
					"name": "name",
					"type": "string"
				},
				{
					"internalType": "uint8",
					"name": "englishMarks",
					"type": "uint8"
				},
				{
					"internalType": "uint8",
					"name": "hindiMarks",
					"type": "uint8"
				},
				{
					"internalType": "uint8",
					"name": "mathMarks",
					"type": "uint8"
				},
				{
					"internalType": "uint8",
					"name": "scienceMarks",
					"type": "uint8"
				},
				{
					"internalType": "uint8",
					"name": "percentage",
					"type": "uint8"
				}
			],
			"stateMutability": "view",
			"type": "function"
		},
		{
			"inputs": [],
			"name": "getVersion",
			"outputs": [
				{
					"internalType": "string",
					"name": "",
					"type": "string"
				}
			],
			"stateMutability": "pure",
			"type": "function"
		},
		{
			"inputs": [],
			"name": "owner",
			"outputs": [
				{
					"internalType": "address",
					"name": "",
					"type": "address"
				}
			],
			"stateMutability": "view",
			"type": "function"
		},
		{
			"inputs": [],
			"name": "studentCount",
			"outputs": [
				{
					"internalType": "uint256",
					"name": "",
					"type": "uint256"
				}
			],
			"stateMutability": "view",
			"type": "function"
		},
		{
			"inputs": [
				{
					"internalType": "uint256",
					"name": "",
					"type": "uint256"
				}
			],
			"name": "students",
			"outputs": [
				{
					"internalType": "uint256",
					"name": "id",
					"type": "uint256"
				},
				{
					"internalType": "string",
					"name": "name",
					"type": "string"
				},
				{
					"internalType": "uint8",
					"name": "englishMarks",
					"type": "uint8"
				},
				{
					"internalType": "uint8",
					"name": "hindiMarks",
					"type": "uint8"
				},
				{
					"internalType": "uint8",
					"name": "mathMarks",
					"type": "uint8"
				},
				{
					"internalType": "uint8",
					"name": "scienceMarks",
					"type": "uint8"
				},
				{
					"internalType": "bool",
					"name": "isRegistered",
					"type": "bool"
				},
				{
					"internalType": "uint8",
					"name": "percentage",
					"type": "uint8"
				},
				{
					"internalType": "bool",
					"name": "hasPassed",
					"type": "bool"
				}
			],
			"stateMutability": "view",
			"type": "function"
		},
		{
			"inputs": [
				{
					"internalType": "uint256",
					"name": "_studentId",
					"type": "uint256"
				},
				{
					"internalType": "uint8",
					"name": "_englishMarks",
					"type": "uint8"
				},
				{
					"internalType": "uint8",
					"name": "_hindiMarks",
					"type": "uint8"
				},
				{
					"internalType": "uint8",
					"name": "_mathMarks",
					"type": "uint8"
				},
				{
					"internalType": "uint8",
					"name": "_scienceMarks",
					"type": "uint8"
				}
			],
			"name": "updateMarks",
			"outputs": [],
			"stateMutability": "nonpayable",
			"type": "function"
		}
	]
}