{
	"data": {
		"bytecode": {
			"linkReferences": {},
			"object": "6080604052348015600e575f80fd5b50610bee8061001c5f395ff3fe608060405234801561000f575f80fd5b506004361061003f575f3560e01c806306ead22e14610043578063642f916314610077578063b9b112eb146100a7575b5f80fd5b61005d600480360381019061005891906103de565b6100c3565b60405161006e959493929190610488565b60405180910390f35b610091600480360381019061008c91906103de565b61017a565b60405161009e91906105aa565b60405180910390f35b6100c160048036038101906100bc91906106f6565b61025b565b005b5f602052805f5260405f205f91509050805f0180546100e1906107b6565b80601f016020809104026020016040519081016040528092919081815260200182805461010d906107b6565b80156101585780601f1061012f57610100808354040283529160200191610158565b820191905f5260205f20905b81548152906001019060200180831161013b57829003601f168201915b5050505050908060010154908060020154908060030154908060040154905085565b61018261036f565b5f808381526020019081526020015f206040518060a00160405290815f820180546101ac906107b6565b80601f01602080910402602001604051908101604052809291908181526020018280546101d8906107b6565b80156102235780601f106101fa57610100808354040283529160200191610223565b820191905f5260205f20905b81548152906001019060200180831161020657829003601f168201915b505050505081526020016001820154815260200160028201548152602001600382015481526020016004820154815250509050919050565b6064831115801561026d575060648211155b801561027a575060648111155b6102b9576040517f08c379a00000000000000000000000000000000000000000000000000000000081526004016102b090610830565b60405180910390fd5b5f8183856102c7919061087b565b6102d1919061087b565b90505f61012c6064836102e491906108ae565b6102ee919061091c565b90506040518060a00160405280878152602001868152602001858152602001848152602001828152505f808981526020019081526020015f205f820151815f01908161033a9190610ae9565b506020820151816001015560408201518160020155606082015181600301556080820151816004015590505050505050505050565b6040518060a00160405280606081526020015f81526020015f81526020015f81526020015f81525090565b5f604051905090565b5f80fd5b5f80fd5b5f819050919050565b6103bd816103ab565b81146103c7575f80fd5b50565b5f813590506103d8816103b4565b92915050565b5f602082840312156103f3576103f26103a3565b5b5f610400848285016103ca565b91505092915050565b5f81519050919050565b5f82825260208201905092915050565b8281835e5f83830152505050565b5f601f19601f8301169050919050565b5f61044b82610409565b6104558185610413565b9350610465818560208601610423565b61046e81610431565b840191505092915050565b610482816103ab565b82525050565b5f60a0820190508181035f8301526104a08188610441565b90506104af6020830187610479565b6104bc6040830186610479565b6104c96060830185610479565b6104d66080830184610479565b9695505050505050565b5f82825260208201905092915050565b5f6104fa82610409565b61050481856104e0565b9350610514818560208601610423565b61051d81610431565b840191505092915050565b610531816103ab565b82525050565b5f60a083015f8301518482035f86015261055182826104f0565b91505060208301516105666020860182610528565b5060408301516105796040860182610528565b50606083015161058c6060860182610528565b50608083015161059f6080860182610528565b508091505092915050565b5f6020820190508181035f8301526105c28184610537565b905092915050565b5f80fd5b5f80fd5b7f4e487b71000000000000000000000000000000000000000000000000000000005f52604160045260245ffd5b61060882610431565b810181811067ffffffffffffffff82111715610627576106266105d2565b5b80604052505050565b5f61063961039a565b905061064582826105ff565b919050565b5f67ffffffffffffffff821115610664576106636105d2565b5b61066d82610431565b9050602081019050919050565b828183375f83830152505050565b5f61069a6106958461064a565b610630565b9050828152602081018484840111156106b6576106b56105ce565b5b6106c184828561067a565b509392505050565b5f82601f8301126106dd576106dc6105ca565b5b81356106ed848260208601610688565b91505092915050565b5f805f805f60a0868803121561070f5761070e6103a3565b5b5f61071c888289016103ca565b955050602086013567ffffffffffffffff81111561073d5761073c6103a7565b5b610749888289016106c9565b945050604061075a888289016103ca565b935050606061076b888289016103ca565b925050608061077c888289016103ca565b9150509295509295909350565b7f4e487b71000000000000000000000000000000000000000000000000000000005f52602260045260245ffd5b5f60028204905060018216806107cd57607f821691505b6020821081036107e0576107df610789565b5b50919050565b7f4d61726b73206d757374206265203c3d203130300000000000000000000000005f82015250565b5f61081a601483610413565b9150610825826107e6565b602082019050919050565b5f6020820190508181035f8301526108478161080e565b9050919050565b7f4e487b71000000000000000000000000000000000000000000000000000000005f52601160045260245ffd5b5f610885826103ab565b9150610890836103ab565b92508282019050808211156108a8576108a761084e565b5b92915050565b5f6108b8826103ab565b91506108c3836103ab565b92508282026108d1816103ab565b915082820484148315176108e8576108e761084e565b5b5092915050565b7f4e487b71000000000000000000000000000000000000000000000000000000005f52601260045260245ffd5b5f610926826103ab565b9150610931836103ab565b925082610941576109406108ef565b5b828204905092915050565b5f819050815f5260205f209050919050565b5f6020601f8301049050919050565b5f82821b905092915050565b5f600883026109a87fffffffffffffffffffffffffffffffffffffffffffffffffffffffffffffffff8261096d565b6109b2868361096d565b95508019841693508086168417925050509392505050565b5f819050919050565b5f6109ed6109e86109e3846103ab565b6109ca565b6103ab565b9050919050565b5f819050919050565b610a06836109d3565b610a1a610a12826109f4565b848454610979565b825550505050565b5f90565b610a2e610a22565b610a398184846109fd565b505050565b5b81811015610a5c57610a515f82610a26565b600181019050610a3f565b5050565b601f821115610aa157610a728161094c565b610a7b8461095e565b81016020851015610a8a578190505b610a9e610a968561095e565b830182610a3e565b50505b505050565b5f82821c905092915050565b5f610ac15f1984600802610aa6565b1980831691505092915050565b5f610ad98383610ab2565b9150826002028217905092915050565b610af282610409565b67ffffffffffffffff811115610b0b57610b0a6105d2565b5b610b1582546107b6565b610b20828285610a60565b5f60209050601f831160018114610b51575f8415610b3f578287015190505b610b498582610ace565b865550610bb0565b601f198416610b5f8661094c565b5f5b82811015610b8657848901518255600182019150602085019450602081019050610b61565b86831015610ba35784890151610b9f601f891682610ab2565b8355505b6001600288020188555050505b50505050505056fea264697066735822122045f4d3458f09b6334518ffbb934b200ccdd950b8d861ccda7547c6d901649a3664736f6c634300081a0033",
			"opcodes": "PUSH1 0x80 PUSH1 0x40 MSTORE CALLVALUE DUP1 ISZERO PUSH1 0xE JUMPI PUSH0 DUP1 REVERT JUMPDEST POP PUSH2 0xBEE DUP1 PUSH2 0x1C PUSH0 CODECOPY PUSH0 RETURN INVALID PUSH1 0x80 PUSH1 0x40 MSTORE CALLVALUE DUP1 ISZERO PUSH2 0xF JUMPI PUSH0 DUP1 REVERT JUMPDEST POP PUSH1 0x4 CALLDATASIZE LT PUSH2 0x3F JUMPI PUSH0 CALLDATALOAD PUSH1 0xE0 SHR DUP1 PUSH4 0x6EAD22E EQ PUSH2 0x43 JUMPI DUP1 PUSH4 0x642F9163 EQ PUSH2 0x77 JUMPI DUP1 PUSH4 0xB9B112EB EQ PUSH2 0xA7 JUMPI JUMPDEST PUSH0 DUP1 REVERT JUMPDEST PUSH2 0x5D PUSH1 0x4 DUP1 CALLDATASIZE SUB DUP2 ADD SWAP1 PUSH2 0x58 SWAP2 SWAP1 PUSH2 0x3DE JUMP JUMPDEST PUSH2 0xC3 JUMP JUMPDEST PUSH1 0x40 MLOAD PUSH2 0x6E SWAP6 SWAP5 SWAP4 SWAP3 SWAP2 SWAP1 PUSH2 0x488 JUMP JUMPDEST PUSH1 0x40 MLOAD DUP1 SWAP2 SUB SWAP1 RETURN JUMPDEST PUSH2 0x91 PUSH1 0x4 DUP1 CALLDATASIZE SUB DUP2 ADD SWAP1 PUSH2 0x8C SWAP2 SWAP1 PUSH2 0x3DE JUMP JUMPDEST PUSH2 0x17A JUMP JUMPDEST PUSH1 0x40 MLOAD PUSH2 0x9E SWAP2 SWAP1 PUSH2 0x5AA JUMP JUMPDEST PUSH1 0x40 MLOAD DUP1 SWAP2 SUB SWAP1 RETURN JUMPDEST PUSH2 0xC1 PUSH1 0x4 DUP1 CALLDATASIZE SUB DUP2 ADD SWAP1 PUSH2 0xBC SWAP2 SWAP1 PUSH2 0x6F6 JUMP JUMPDEST PUSH2 0x25B JUMP JUMPDEST STOP JUMPDEST PUSH0 PUSH1 0x20 MSTORE DUP1 PUSH0 MSTORE PUSH1 0x40 PUSH0 KECCAK256 PUSH0 SWAP2 POP SWAP1 POP DUP1 PUSH0 ADD DUP1 SLOAD PUSH2 0xE1 SWAP1 PUSH2 0x7B6 JUMP JUMPDEST DUP1 PUSH1 0x1F ADD PUSH1 0x20 DUP1 SWAP2 DIV MUL PUSH1 0x20 ADD PUSH1 0x40 MLOAD SWAP1 DUP2 ADD PUSH1 0x40 MSTORE DUP1 SWAP3 SWAP2 SWAP1 DUP2 DUP2 MSTORE PUSH1 0x20 ADD DUP3 DUP1 SLOAD PUSH2 0x10D SWAP1 PUSH2 0x7B6 JUMP JUMPDEST DUP1 ISZERO PUSH2 0x158 JUMPI DUP1 PUSH1 0x1F LT PUSH2 0x12F JUMPI PUSH2 0x100 DUP1 DUP4 SLOAD DIV MUL DUP4 MSTORE SWAP2 PUSH1 0x20 ADD SWAP2 PUSH2 0x158 JUMP JUMPDEST DUP3 ADD SWAP2 SWAP1 PUSH0 MSTORE PUSH1 0x20 PUSH0 KECCAK256 SWAP1 JUMPDEST DUP2 SLOAD DUP2 MSTORE SWAP1 PUSH1 0x1 ADD SWAP1 PUSH1 0x20 ADD DUP1 DUP4 GT PUSH2 0x13B JUMPI DUP3 SWAP1 SUB PUSH1 0x1F AND DUP3 ADD SWAP2 JUMPDEST POP POP POP POP POP SWAP1 DUP1 PUSH1 0x1 ADD SLOAD SWAP1 DUP1 PUSH1 0x2 ADD SLOAD SWAP1 DUP1 PUSH1 0x3 ADD SLOAD SWAP1 DUP1 PUSH1 0x4 ADD SLOAD SWAP1 POP DUP6 JUMP JUMPDEST PUSH2 0x182 PUSH2 0x36F JUMP JUMPDEST PUSH0 DUP1 DUP4 DUP2 MSTORE PUSH1 0x20 ADD SWAP1 DUP2 MSTORE PUSH1 0x20 ADD PUSH0 KECCAK256 PUSH1 0x40 MLOAD DUP1 PUSH1 0xA0 ADD PUSH1 0x40 MSTORE SWAP1 DUP2 PUSH0 DUP3 ADD DUP1 SLOAD PUSH2 0x1AC SWAP1 PUSH2 0x7B6 JUMP JUMPDEST DUP1 PUSH1 0x1F ADD PUSH1 0x20 DUP1 SWAP2 DIV MUL PUSH1 0x20 ADD PUSH1 0x40 MLOAD SWAP1 DUP2 ADD PUSH1 0x40 MSTORE DUP1 SWAP3 SWAP2 SWAP1 DUP2 DUP2 MSTORE PUSH1 0x20 ADD DUP3 DUP1 SLOAD PUSH2 0x1D8 SWAP1 PUSH2 0x7B6 JUMP JUMPDEST DUP1 ISZERO PUSH2 0x223 JUMPI DUP1 PUSH1 0x1F LT PUSH2 0x1FA JUMPI PUSH2 0x100 DUP1 DUP4 SLOAD DIV MUL DUP4 MSTORE SWAP2 PUSH1 0x20 ADD SWAP2 PUSH2 0x223 JUMP JUMPDEST DUP3 ADD SWAP2 SWAP1 PUSH0 MSTORE PUSH1 0x20 PUSH0 KECCAK256 SWAP1 JUMPDEST DUP2 SLOAD DUP2 MSTORE SWAP1 PUSH1 0x1 ADD SWAP1 PUSH1 0x20 ADD DUP1 DUP4 GT PUSH2 0x206 JUMPI DUP3 SWAP1 SUB PUSH1 0x1F AND DUP3 ADD SWAP2 JUMPDEST POP POP POP POP POP DUP2 MSTORE PUSH1 0x20 ADD PUSH1 0x1 DUP3 ADD SLOAD DUP2 MSTORE PUSH1 0x20 ADD PUSH1 0x2 DUP3 ADD SLOAD DUP2 MSTORE PUSH1 0x20 ADD PUSH1 0x3 DUP3 ADD SLOAD DUP2 MSTORE PUSH1 0x20 ADD PUSH1 0x4 DUP3 ADD SLOAD DUP2 MSTORE POP POP SWAP1 POP SWAP2 SWAP1 POP JUMP JUMPDEST PUSH1 0x64 DUP4 GT ISZERO DUP1 ISZERO PUSH2 0x26D JUMPI POP PUSH1 0x64 DUP3 GT ISZERO JUMPDEST DUP1 ISZERO PUSH2 0x27A JUMPI POP PUSH1 0x64 DUP2 GT ISZERO JUMPDEST PUSH2 0x2B9 JUMPI PUSH1 0x40 MLOAD PUSH32 0x8C379A000000000000000000000000000000000000000000000000000000000 DUP2 MSTORE PUSH1 0x4 ADD PUSH2 0x2B0 SWAP1 PUSH2 0x830 JUMP JUMPDEST PUSH1 0x40 MLOAD DUP1 SWAP2 SUB SWAP1 REVERT JUMPDEST PUSH0 DUP2 DUP4 DUP6 PUSH2 0x2C7 SWAP2 SWAP1 PUSH2 0x87B JUMP JUMPDEST PUSH2 0x2D1 SWAP2 SWAP1 PUSH2 0x87B JUMP JUMPDEST SWAP1 POP PUSH0 PUSH2 0x12C PUSH1 0x64 DUP4 PUSH2 0x2E4 SWAP2 SWAP1 PUSH2 0x8AE JUMP JUMPDEST PUSH2 0x2EE SWAP2 SWAP1 PUSH2 0x91C JUMP JUMPDEST SWAP1 POP PUSH1 0x40 MLOAD DUP1 PUSH1 0xA0 ADD PUSH1 0x40 MSTORE DUP1 DUP8 DUP2 MSTORE PUSH1 0x20 ADD DUP7 DUP2 MSTORE PUSH1 0x20 ADD DUP6 DUP2 MSTORE PUSH1 0x20 ADD DUP5 DUP2 MSTORE PUSH1 0x20 ADD DUP3 DUP2 MSTORE POP PUSH0 DUP1 DUP10 DUP2 MSTORE PUSH1 0x20 ADD SWAP1 DUP2 MSTORE PUSH1 0x20 ADD PUSH0 KECCAK256 PUSH0 DUP3 ADD MLOAD DUP2 PUSH0 ADD SWAP1 DUP2 PUSH2 0x33A SWAP2 SWAP1 PUSH2 0xAE9 JUMP JUMPDEST POP PUSH1 0x20 DUP3 ADD MLOAD DUP2 PUSH1 0x1 ADD SSTORE PUSH1 0x40 DUP3 ADD MLOAD DUP2 PUSH1 0x2 ADD SSTORE PUSH1 0x60 DUP3 ADD MLOAD DUP2 PUSH1 0x3 ADD SSTORE PUSH1 0x80 DUP3 ADD MLOAD DUP2 PUSH1 0x4 ADD SSTORE SWAP1 POP POP POP POP POP POP POP POP POP JUMP JUMPDEST PUSH1 0x40 MLOAD DUP1 PUSH1 0xA0 ADD PUSH1 0x40 MSTORE DUP1 PUSH1 0x60 DUP2 MSTORE PUSH1 0x20 ADD PUSH0 DUP2 MSTORE PUSH1 0x20 ADD PUSH0 DUP2 MSTORE PUSH1 0x20 ADD PUSH0 DUP2 MSTORE PUSH1 0x20 ADD PUSH0 DUP2 MSTORE POP SWAP1 JUMP JUMPDEST PUSH0 PUSH1 0x40 MLOAD SWAP1 POP SWAP1 JUMP JUMPDEST PUSH0 DUP1 REVERT JUMPDEST PUSH0 DUP1 REVERT JUMPDEST PUSH0 DUP2 SWAP1 POP SWAP2 SWAP1 POP JUMP JUMPDEST PUSH2 0x3BD DUP2 PUSH2 0x3AB JUMP JUMPDEST DUP2 EQ PUSH2 0x3C7 JUMPI PUSH0 DUP1 REVERT JUMPDEST POP JUMP JUMPDEST PUSH0 DUP2 CALLDATALOAD SWAP1 POP PUSH2 0x3D8 DUP2 PUSH2 0x3B4 JUMP JUMPDEST SWAP3 SWAP2 POP POP JUMP JUMPDEST PUSH0 PUSH1 0x20 DUP3 DUP5 SUB SLT ISZERO PUSH2 0x3F3 JUMPI PUSH2 0x3F2 PUSH2 0x3A3 JUMP JUMPDEST JUMPDEST PUSH0 PUSH2 0x400 DUP5 DUP3 DUP6 ADD PUSH2 0x3CA JUMP JUMPDEST SWAP2 POP POP SWAP3 SWAP2 POP POP JUMP JUMPDEST PUSH0 DUP2 MLOAD SWAP1 POP SWAP2 SWAP1 POP JUMP JUMPDEST PUSH0 DUP3 DUP3 MSTORE PUSH1 0x20 DUP3 ADD SWAP1 POP SWAP3 SWAP2 POP POP JUMP JUMPDEST DUP3 DUP2 DUP4 MCOPY PUSH0 DUP4 DUP4 ADD MSTORE POP POP POP JUMP JUMPDEST PUSH0 PUSH1 0x1F NOT PUSH1 0x1F DUP4 ADD AND SWAP1 POP SWAP2 SWAP1 POP JUMP JUMPDEST PUSH0 PUSH2 0x44B DUP3 PUSH2 0x409 JUMP JUMPDEST PUSH2 0x455 DUP2 DUP6 PUSH2 0x413 JUMP JUMPDEST SWAP4 POP PUSH2 0x465 DUP2 DUP6 PUSH1 0x20 DUP7 ADD PUSH2 0x423 JUMP JUMPDEST PUSH2 0x46E DUP2 PUSH2 0x431 JUMP JUMPDEST DUP5 ADD SWAP2 POP POP SWAP3 SWAP2 POP POP JUMP JUMPDEST PUSH2 0x482 DUP2 PUSH2 0x3AB JUMP JUMPDEST DUP3 MSTORE POP POP JUMP JUMPDEST PUSH0 PUSH1 0xA0 DUP3 ADD SWAP1 POP DUP2 DUP2 SUB PUSH0 DUP4 ADD MSTORE PUSH2 0x4A0 DUP2 DUP9 PUSH2 0x441 JUMP JUMPDEST SWAP1 POP PUSH2 0x4AF PUSH1 0x20 DUP4 ADD DUP8 PUSH2 0x479 JUMP JUMPDEST PUSH2 0x4BC PUSH1 0x40 DUP4 ADD DUP7 PUSH2 0x479 JUMP JUMPDEST PUSH2 0x4C9 PUSH1 0x60 DUP4 ADD DUP6 PUSH2 0x479 JUMP JUMPDEST PUSH2 0x4D6 PUSH1 0x80 DUP4 ADD DUP5 PUSH2 0x479 JUMP JUMPDEST SWAP7 SWAP6 POP POP POP POP POP POP JUMP JUMPDEST PUSH0 DUP3 DUP3 MSTORE PUSH1 0x20 DUP3 ADD SWAP1 POP SWAP3 SWAP2 POP POP JUMP JUMPDEST PUSH0 PUSH2 0x4FA DUP3 PUSH2 0x409 JUMP JUMPDEST PUSH2 0x504 DUP2 DUP6 PUSH2 0x4E0 JUMP JUMPDEST SWAP4 POP PUSH2 0x514 DUP2 DUP6 PUSH1 0x20 DUP7 ADD PUSH2 0x423 JUMP JUMPDEST PUSH2 0x51D DUP2 PUSH2 0x431 JUMP JUMPDEST DUP5 ADD SWAP2 POP POP SWAP3 SWAP2 POP POP JUMP JUMPDEST PUSH2 0x531 DUP2 PUSH2 0x3AB JUMP JUMPDEST DUP3 MSTORE POP POP JUMP JUMPDEST PUSH0 PUSH1 0xA0 DUP4 ADD PUSH0 DUP4 ADD MLOAD DUP5 DUP3 SUB PUSH0 DUP7 ADD MSTORE PUSH2 0x551 DUP3 DUP3 PUSH2 0x4F0 JUMP JUMPDEST SWAP2 POP POP PUSH1 0x20 DUP4 ADD MLOAD PUSH2 0x566 PUSH1 0x20 DUP7 ADD DUP3 PUSH2 0x528 JUMP JUMPDEST POP PUSH1 0x40 DUP4 ADD MLOAD PUSH2 0x579 PUSH1 0x40 DUP7 ADD DUP3 PUSH2 0x528 JUMP JUMPDEST POP PUSH1 0x60 DUP4 ADD MLOAD PUSH2 0x58C PUSH1 0x60 DUP7 ADD DUP3 PUSH2 0x528 JUMP JUMPDEST POP PUSH1 0x80 DUP4 ADD MLOAD PUSH2 0x59F PUSH1 0x80 DUP7 ADD DUP3 PUSH2 0x528 JUMP JUMPDEST POP DUP1 SWAP2 POP POP SWAP3 SWAP2 POP POP JUMP JUMPDEST PUSH0 PUSH1 0x20 DUP3 ADD SWAP1 POP DUP2 DUP2 SUB PUSH0 DUP4 ADD MSTORE PUSH2 0x5C2 DUP2 DUP5 PUSH2 0x537 JUMP JUMPDEST SWAP1 POP SWAP3 SWAP2 POP POP JUMP JUMPDEST PUSH0 DUP1 REVERT JUMPDEST PUSH0 DUP1 REVERT JUMPDEST PUSH32 0x4E487B7100000000000000000000000000000000000000000000000000000000 PUSH0 MSTORE PUSH1 0x41 PUSH1 0x4 MSTORE PUSH1 0x24 PUSH0 REVERT JUMPDEST PUSH2 0x608 DUP3 PUSH2 0x431 JUMP JUMPDEST DUP2 ADD DUP2 DUP2 LT PUSH8 0xFFFFFFFFFFFFFFFF DUP3 GT OR ISZERO PUSH2 0x627 JUMPI PUSH2 0x626 PUSH2 0x5D2 JUMP JUMPDEST JUMPDEST DUP1 PUSH1 0x40 MSTORE POP POP POP JUMP JUMPDEST PUSH0 PUSH2 0x639 PUSH2 0x39A JUMP JUMPDEST SWAP1 POP PUSH2 0x645 DUP3 DUP3 PUSH2 0x5FF JUMP JUMPDEST SWAP2 SWAP1 POP JUMP JUMPDEST PUSH0 PUSH8 0xFFFFFFFFFFFFFFFF DUP3 GT ISZERO PUSH2 0x664 JUMPI PUSH2 0x663 PUSH2 0x5D2 JUMP JUMPDEST JUMPDEST PUSH2 0x66D DUP3 PUSH2 0x431 JUMP JUMPDEST SWAP1 POP PUSH1 0x20 DUP2 ADD SWAP1 POP SWAP2 SWAP1 POP JUMP JUMPDEST DUP3 DUP2 DUP4 CALLDATACOPY PUSH0 DUP4 DUP4 ADD MSTORE POP POP POP JUMP JUMPDEST PUSH0 PUSH2 0x69A PUSH2 0x695 DUP5 PUSH2 0x64A JUMP JUMPDEST PUSH2 0x630 JUMP JUMPDEST SWAP1 POP DUP3 DUP2 MSTORE PUSH1 0x20 DUP2 ADD DUP5 DUP5 DUP5 ADD GT ISZERO PUSH2 0x6B6 JUMPI PUSH2 0x6B5 PUSH2 0x5CE JUMP JUMPDEST JUMPDEST PUSH2 0x6C1 DUP5 DUP3 DUP6 PUSH2 0x67A JUMP JUMPDEST POP SWAP4 SWAP3 POP POP POP JUMP JUMPDEST PUSH0 DUP3 PUSH1 0x1F DUP4 ADD SLT PUSH2 0x6DD JUMPI PUSH2 0x6DC PUSH2 0x5CA JUMP JUMPDEST JUMPDEST DUP2 CALLDATALOAD PUSH2 0x6ED DUP5 DUP3 PUSH1 0x20 DUP7 ADD PUSH2 0x688 JUMP JUMPDEST SWAP2 POP POP SWAP3 SWAP2 POP POP JUMP JUMPDEST PUSH0 DUP1 PUSH0 DUP1 PUSH0 PUSH1 0xA0 DUP7 DUP9 SUB SLT ISZERO PUSH2 0x70F JUMPI PUSH2 0x70E PUSH2 0x3A3 JUMP JUMPDEST JUMPDEST PUSH0 PUSH2 0x71C DUP9 DUP3 DUP10 ADD PUSH2 0x3CA JUMP JUMPDEST SWAP6 POP POP PUSH1 0x20 DUP7 ADD CALLDATALOAD PUSH8 0xFFFFFFFFFFFFFFFF DUP2 GT ISZERO PUSH2 0x73D JUMPI PUSH2 0x73C PUSH2 0x3A7 JUMP JUMPDEST JUMPDEST PUSH2 0x749 DUP9 DUP3 DUP10 ADD PUSH2 0x6C9 JUMP JUMPDEST SWAP5 POP POP PUSH1 0x40 PUSH2 0x75A DUP9 DUP3 DUP10 ADD PUSH2 0x3CA JUMP JUMPDEST SWAP4 POP POP PUSH1 0x60 PUSH2 0x76B DUP9 DUP3 DUP10 ADD PUSH2 0x3CA JUMP JUMPDEST SWAP3 POP POP PUSH1 0x80 PUSH2 0x77C DUP9 DUP3 DUP10 ADD PUSH2 0x3CA JUMP JUMPDEST SWAP2 POP POP SWAP3 SWAP6 POP SWAP3 SWAP6 SWAP1 SWAP4 POP JUMP JUMPDEST PUSH32 0x4E487B7100000000000000000000000000000000000000000000000000000000 PUSH0 MSTORE PUSH1 0x22 PUSH1 0x4 MSTORE PUSH1 0x24 PUSH0 REVERT JUMPDEST PUSH0 PUSH1 0x2 DUP3 DIV SWAP1 POP PUSH1 0x1 DUP3 AND DUP1 PUSH2 0x7CD JUMPI PUSH1 0x7F DUP3 AND SWAP2 POP JUMPDEST PUSH1 0x20 DUP3 LT DUP2 SUB PUSH2 0x7E0 JUMPI PUSH2 0x7DF PUSH2 0x789 JUMP JUMPDEST JUMPDEST POP SWAP2 SWAP1 POP JUMP JUMPDEST PUSH32 0x4D61726B73206D757374206265203C3D20313030000000000000000000000000 PUSH0 DUP3 ADD MSTORE POP JUMP JUMPDEST PUSH0 PUSH2 0x81A PUSH1 0x14 DUP4 PUSH2 0x413 JUMP JUMPDEST SWAP2 POP PUSH2 0x825 DUP3 PUSH2 0x7E6 JUMP JUMPDEST PUSH1 0x20 DUP3 ADD SWAP1 POP SWAP2 SWAP1 POP JUMP JUMPDEST PUSH0 PUSH1 0x20 DUP3 ADD SWAP1 POP DUP2 DUP2 SUB PUSH0 DUP4 ADD MSTORE PUSH2 0x847 DUP2 PUSH2 0x80E JUMP JUMPDEST SWAP1 POP SWAP2 SWAP1 POP JUMP JUMPDEST PUSH32 0x4E487B7100000000000000000000000000000000000000000000000000000000 PUSH0 MSTORE PUSH1 0x11 PUSH1 0x4 MSTORE PUSH1 0x24 PUSH0 REVERT JUMPDEST PUSH0 PUSH2 0x885 DUP3 PUSH2 0x3AB JUMP JUMPDEST SWAP2 POP PUSH2 0x890 DUP4 PUSH2 0x3AB JUMP JUMPDEST SWAP3 POP DUP3 DUP3 ADD SWAP1 POP DUP1 DUP3 GT ISZERO PUSH2 0x8A8 JUMPI PUSH2 0x8A7 PUSH2 0x84E JUMP JUMPDEST JUMPDEST SWAP3 SWAP2 POP POP JUMP JUMPDEST PUSH0 PUSH2 0x8B8 DUP3 PUSH2 0x3AB JUMP JUMPDEST SWAP2 POP PUSH2 0x8C3 DUP4 PUSH2 0x3AB JUMP JUMPDEST SWAP3 POP DUP3 DUP3 MUL PUSH2 0x8D1 DUP2 PUSH2 0x3AB JUMP JUMPDEST SWAP2 POP DUP3 DUP3 DIV DUP5 EQ DUP4 ISZERO OR PUSH2 0x8E8 JUMPI PUSH2 0x8E7 PUSH2 0x84E JUMP JUMPDEST JUMPDEST POP SWAP3 SWAP2 POP POP JUMP JUMPDEST PUSH32 0x4E487B7100000000000000000000000000000000000000000000000000000000 PUSH0 MSTORE PUSH1 0x12 PUSH1 0x4 MSTORE PUSH1 0x24 PUSH0 REVERT JUMPDEST PUSH0 PUSH2 0x926 DUP3 PUSH2 0x3AB JUMP JUMPDEST SWAP2 POP PUSH2 0x931 DUP4 PUSH2 0x3AB JUMP JUMPDEST SWAP3 POP DUP3 PUSH2 0x941 JUMPI PUSH2 0x940 PUSH2 0x8EF JUMP JUMPDEST JUMPDEST DUP3 DUP3 DIV SWAP1 POP SWAP3 SWAP2 POP POP JUMP JUMPDEST PUSH0 DUP2 SWAP1 POP DUP2 PUSH0 MSTORE PUSH1 0x20 PUSH0 KECCAK256 SWAP1 POP SWAP2 SWAP1 POP JUMP JUMPDEST PUSH0 PUSH1 0x20 PUSH1 0x1F DUP4 ADD DIV SWAP1 POP SWAP2 SWAP1 POP JUMP JUMPDEST PUSH0 DUP3 DUP3 SHL SWAP1 POP SWAP3 SWAP2 POP POP JUMP JUMPDEST PUSH0 PUSH1 0x8 DUP4 MUL PUSH2 0x9A8 PUSH32 0xFFFFFFFFFFFFFFFFFFFFFFFFFFFFFFFFFFFFFFFFFFFFFFFFFFFFFFFFFFFFFFFF DUP3 PUSH2 0x96D JUMP JUMPDEST PUSH2 0x9B2 DUP7 DUP4 PUSH2 0x96D JUMP JUMPDEST SWAP6 POP DUP1 NOT DUP5 AND SWAP4 POP DUP1 DUP7 AND DUP5 OR SWAP3 POP POP POP SWAP4 SWAP3 POP POP POP JUMP JUMPDEST PUSH0 DUP2 SWAP1 POP SWAP2 SWAP1 POP JUMP JUMPDEST PUSH0 PUSH2 0x9ED PUSH2 0x9E8 PUSH2 0x9E3 DUP5 PUSH2 0x3AB JUMP JUMPDEST PUSH2 0x9CA JUMP JUMPDEST PUSH2 0x3AB JUMP JUMPDEST SWAP1 POP SWAP2 SWAP1 POP JUMP JUMPDEST PUSH0 DUP2 SWAP1 POP SWAP2 SWAP1 POP JUMP JUMPDEST PUSH2 0xA06 DUP4 PUSH2 0x9D3 JUMP JUMPDEST PUSH2 0xA1A PUSH2 0xA12 DUP3 PUSH2 0x9F4 JUMP JUMPDEST DUP5 DUP5 SLOAD PUSH2 0x979 JUMP JUMPDEST DUP3 SSTORE POP POP POP POP JUMP JUMPDEST PUSH0 SWAP1 JUMP JUMPDEST PUSH2 0xA2E PUSH2 0xA22 JUMP JUMPDEST PUSH2 0xA39 DUP2 DUP5 DUP5 PUSH2 0x9FD JUMP JUMPDEST POP POP POP JUMP JUMPDEST JUMPDEST DUP2 DUP2 LT ISZERO PUSH2 0xA5C JUMPI PUSH2 0xA51 PUSH0 DUP3 PUSH2 0xA26 JUMP JUMPDEST PUSH1 0x1 DUP2 ADD SWAP1 POP PUSH2 0xA3F JUMP JUMPDEST POP POP JUMP JUMPDEST PUSH1 0x1F DUP3 GT ISZERO PUSH2 0xAA1 JUMPI PUSH2 0xA72 DUP2 PUSH2 0x94C JUMP JUMPDEST PUSH2 0xA7B DUP5 PUSH2 0x95E JUMP JUMPDEST DUP2 ADD PUSH1 0x20 DUP6 LT ISZERO PUSH2 0xA8A JUMPI DUP2 SWAP1 POP JUMPDEST PUSH2 0xA9E PUSH2 0xA96 DUP6 PUSH2 0x95E JUMP JUMPDEST DUP4 ADD DUP3 PUSH2 0xA3E JUMP JUMPDEST POP POP JUMPDEST POP POP POP JUMP JUMPDEST PUSH0 DUP3 DUP3 SHR SWAP1 POP SWAP3 SWAP2 POP POP JUMP JUMPDEST PUSH0 PUSH2 0xAC1 PUSH0 NOT DUP5 PUSH1 0x8 MUL PUSH2 0xAA6 JUMP JUMPDEST NOT DUP1 DUP4 AND SWAP2 POP POP SWAP3 SWAP2 POP POP JUMP JUMPDEST PUSH0 PUSH2 0xAD9 DUP4 DUP4 PUSH2 0xAB2 JUMP JUMPDEST SWAP2 POP DUP3 PUSH1 0x2 MUL DUP3 OR SWAP1 POP SWAP3 SWAP2 POP POP JUMP JUMPDEST PUSH2 0xAF2 DUP3 PUSH2 0x409 JUMP JUMPDEST PUSH8 0xFFFFFFFFFFFFFFFF DUP2 GT ISZERO PUSH2 0xB0B JUMPI PUSH2 0xB0A PUSH2 0x5D2 JUMP JUMPDEST JUMPDEST PUSH2 0xB15 DUP3 SLOAD PUSH2 0x7B6 JUMP JUMPDEST PUSH2 0xB20 DUP3 DUP3 DUP6 PUSH2 0xA60 JUMP JUMPDEST PUSH0 PUSH1 0x20 SWAP1 POP PUSH1 0x1F DUP4 GT PUSH1 0x1 DUP2 EQ PUSH2 0xB51 JUMPI PUSH0 DUP5 ISZERO PUSH2 0xB3F JUMPI DUP3 DUP8 ADD MLOAD SWAP1 POP JUMPDEST PUSH2 0xB49 DUP6 DUP3 PUSH2 0xACE JUMP JUMPDEST DUP7 SSTORE POP PUSH2 0xBB0 JUMP JUMPDEST PUSH1 0x1F NOT DUP5 AND PUSH2 0xB5F DUP7 PUSH2 0x94C JUMP JUMPDEST PUSH0 JUMPDEST DUP3 DUP2 LT ISZERO PUSH2 0xB86 JUMPI DUP5 DUP10 ADD MLOAD DUP3 SSTORE PUSH1 0x1 DUP3 ADD SWAP2 POP PUSH1 0x20 DUP6 ADD SWAP5 POP PUSH1 0x20 DUP2 ADD SWAP1 POP PUSH2 0xB61 JUMP JUMPDEST DUP7 DUP4 LT ISZERO PUSH2 0xBA3 JUMPI DUP5 DUP10 ADD MLOAD PUSH2 0xB9F PUSH1 0x1F DUP10 AND DUP3 PUSH2 0xAB2 JUMP JUMPDEST DUP4 SSTORE POP JUMPDEST PUSH1 0x1 PUSH1 0x2 DUP9 MUL ADD DUP9 SSTORE POP POP POP JUMPDEST POP POP POP POP POP POP JUMP INVALID LOG2 PUSH5 0x6970667358 0x22 SLT KECCAK256 GASLIMIT DELEGATECALL 0xD3 GASLIMIT DUP16 MULMOD 0xB6 CALLER GASLIMIT XOR SELFDESTRUCT 0xBB SWAP4 0x4B KECCAK256 0xC 0xCD 0xD9 POP 0xB8 0xD8 PUSH2 0xCCDA PUSH22 0x47C6D901649A3664736F6C634300081A003300000000 "
		},
		"gasEstimates": {
			"creation": {
				"codeDepositCost": "610800",
				"executionCost": "643",
				"totalCost": "611443"
			},
			"external": {
				"addStudent(uint256,string,uint256,uint256,uint256)": "infinite",
				"getStudent(uint256)": "infinite",
				"students(uint256)": "infinite"
			}
		},
		"methodIdentifiers": {
			"addStudent(uint256,string,uint256,uint256,uint256)": "b9b112eb",
			"getStudent(uint256)": "642f9163",
			"students(uint256)": "06ead22e"
		}
	},
	"abi": [
		{
			"inputs": [
				{
					"internalType": "uint256",
					"name": "id",
					"type": "uint256"
				},
				{
					"internalType": "string",
					"name": "name",
					"type": "string"
				},
				{
					"internalType": "uint256",
					"name": "english",
					"type": "uint256"
				},
				{
					"internalType": "uint256",
					"name": "hindi",
					"type": "uint256"
				},
				{
					"internalType": "uint256",
					"name": "math",
					"type": "uint256"
				}
			],
			"name": "addStudent",
			"outputs": [],
			"stateMutability": "nonpayable",
			"type": "function"
		},
		{
			"inputs": [
				{
					"internalType": "uint256",
					"name": "id",
					"type": "uint256"
				}
			],
			"name": "getStudent",
			"outputs": [
				{
					"components": [
						{
							"internalType": "string",
							"name": "name",
							"type": "string"
						},
						{
							"internalType": "uint256",
							"name": "english",
							"type": "uint256"
						},
						{
							"internalType": "uint256",
							"name": "hindi",
							"type": "uint256"
						},
						{
							"internalType": "uint256",
							"name": "math",
							"type": "uint256"
						},
						{
							"internalType": "uint256",
							"name": "percentage",
							"type": "uint256"
						}
					],
					"internalType": "struct V1Marksheet.Student",
					"name": "",
					"type": "tuple"
				}
			],
			"stateMutability": "view",
			"type": "function"
		},
		{
			"inputs": [
				{
					"internalType": "uint256",
					"name": "",
					"type": "uint256"
				}
			],
			"name": "students",
			"outputs": [
				{
					"internalType": "string",
					"name": "name",
					"type": "string"
				},
				{
					"internalType": "uint256",
					"name": "english",
					"type": "uint256"
				},
				{
					"internalType": "uint256",
					"name": "hindi",
					"type": "uint256"
				},
				{
					"internalType": "uint256",
					"name": "math",
					"type": "uint256"
				},
				{
					"internalType": "uint256",
					"name": "percentage",
					"type": "uint256"
				}
			],
			"stateMutability": "view",
			"type": "function"
		}
	]
}