{
	"data": {
		"bytecode": {
			"linkReferences": {},
			"object": "6080604052348015600e575f80fd5b50610ebd8061001c5f395ff3fe608060405234801561000f575f80fd5b506004361061004a575f3560e01c806306ead22e1461004e578063642f916314610084578063d174b7fe146100b4578063e7a41e30146100d0575b5f80fd5b6100686004803603810190610063919061058a565b6100ec565b60405161007b979695949392919061064e565b60405180910390f35b61009e6004803603810190610099919061058a565b6101bb565b6040516100ab91906107c1565b60405180910390f35b6100ce60048036038101906100c991906107e1565b6102c0565b005b6100ea60048036038101906100e5919061094b565b6103a0565b005b5f602052805f5260405f205f91509050805f01805461010a90610a1d565b80601f016020809104026020016040519081016040528092919081815260200182805461013690610a1d565b80156101815780601f1061015857610100808354040283529160200191610181565b820191905f5260205f20905b81548152906001019060200180831161016457829003601f168201915b505050505090806001015490806002015490806003015490806004015490806005015490806006015f9054906101000a900460ff16905087565b6101c361050d565b5f808381526020019081526020015f206040518060e00160405290815f820180546101ed90610a1d565b80601f016020809104026020016040519081016040528092919081815260200182805461021990610a1d565b80156102645780601f1061023b57610100808354040283529160200191610264565b820191905f5260205f20905b81548152906001019060200180831161024757829003601f168201915b505050505081526020016001820154815260200160028201548152602001600382015481526020016004820154815260200160058201548152602001600682015f9054906101000a900460ff1615151515815250509050919050565b6064811115610304576040517f08c379a00000000000000000000000000000000000000000000000000000000081526004016102fb90610a97565b60405180910390fd5b5f805f8481526020019081526020015f2090508181600501819055505f816005015482600301548360020154846001015461033f9190610ae2565b6103499190610ae2565b6103539190610ae2565b90506101906064826103659190610b15565b61036f9190610b83565b8260040181905550603c82600401541015826006015f6101000a81548160ff02191690831515021790555050505050565b606484111580156103b2575060648311155b80156103bf575060648211155b80156103cc575060648111155b61040b576040517f08c379a000000000000000000000000000000000000000000000000000000000815260040161040290610bfd565b60405180910390fd5b5f8183858761041a9190610ae2565b6104249190610ae2565b61042e9190610ae2565b90505f6101906064836104419190610b15565b61044b9190610b83565b90505f603c82101590506040518060e001604052808981526020018881526020018781526020018681526020018381526020018581526020018215158152505f808b81526020019081526020015f205f820151815f0190816104ad9190610db8565b506020820151816001015560408201518160020155606082015181600301556080820151816004015560a0820151816005015560c0820151816006015f6101000a81548160ff021916908315150217905550905050505050505050505050565b6040518060e00160405280606081526020015f81526020015f81526020015f81526020015f81526020015f81526020015f151581525090565b5f604051905090565b5f80fd5b5f80fd5b5f819050919050565b61056981610557565b8114610573575f80fd5b50565b5f8135905061058481610560565b92915050565b5f6020828403121561059f5761059e61054f565b5b5f6105ac84828501610576565b91505092915050565b5f81519050919050565b5f82825260208201905092915050565b8281835e5f83830152505050565b5f601f19601f8301169050919050565b5f6105f7826105b5565b61060181856105bf565b93506106118185602086016105cf565b61061a816105dd565b840191505092915050565b61062e81610557565b82525050565b5f8115159050919050565b61064881610634565b82525050565b5f60e0820190508181035f830152610666818a6105ed565b90506106756020830189610625565b6106826040830188610625565b61068f6060830187610625565b61069c6080830186610625565b6106a960a0830185610625565b6106b660c083018461063f565b98975050505050505050565b5f82825260208201905092915050565b5f6106dc826105b5565b6106e681856106c2565b93506106f68185602086016105cf565b6106ff816105dd565b840191505092915050565b61071381610557565b82525050565b61072281610634565b82525050565b5f60e083015f8301518482035f86015261074282826106d2565b9150506020830151610757602086018261070a565b50604083015161076a604086018261070a565b50606083015161077d606086018261070a565b506080830151610790608086018261070a565b5060a08301516107a360a086018261070a565b5060c08301516107b660c0860182610719565b508091505092915050565b5f6020820190508181035f8301526107d98184610728565b905092915050565b5f80604083850312156107f7576107f661054f565b5b5f61080485828601610576565b925050602061081585828601610576565b9150509250929050565b5f80fd5b5f80fd5b7f4e487b71000000000000000000000000000000000000000000000000000000005f52604160045260245ffd5b61085d826105dd565b810181811067ffffffffffffffff8211171561087c5761087b610827565b5b80604052505050565b5f61088e610546565b905061089a8282610854565b919050565b5f67ffffffffffffffff8211156108b9576108b8610827565b5b6108c2826105dd565b9050602081019050919050565b828183375f83830152505050565b5f6108ef6108ea8461089f565b610885565b90508281526020810184848401111561090b5761090a610823565b5b6109168482856108cf565b509392505050565b5f82601f8301126109325761093161081f565b5b81356109428482602086016108dd565b91505092915050565b5f805f805f8060c087890312156109655761096461054f565b5b5f61097289828a01610576565b965050602087013567ffffffffffffffff81111561099357610992610553565b5b61099f89828a0161091e565b95505060406109b089828a01610576565b94505060606109c189828a01610576565b93505060806109d289828a01610576565b92505060a06109e389828a01610576565b9150509295509295509295565b7f4e487b71000000000000000000000000000000000000000000000000000000005f52602260045260245ffd5b5f6002820490506001821680610a3457607f821691505b602082108103610a4757610a466109f0565b5b50919050565b7f536369656e6365206d61726b73206d757374206265203c3d20313030000000005f82015250565b5f610a81601c836105bf565b9150610a8c82610a4d565b602082019050919050565b5f6020820190508181035f830152610aae81610a75565b9050919050565b7f4e487b71000000000000000000000000000000000000000000000000000000005f52601160045260245ffd5b5f610aec82610557565b9150610af783610557565b9250828201905080821115610b0f57610b0e610ab5565b5b92915050565b5f610b1f82610557565b9150610b2a83610557565b9250828202610b3881610557565b91508282048414831517610b4f57610b4e610ab5565b5b5092915050565b7f4e487b71000000000000000000000000000000000000000000000000000000005f52601260045260245ffd5b5f610b8d82610557565b9150610b9883610557565b925082610ba857610ba7610b56565b5b828204905092915050565b7f4d61726b73206d757374206265203c3d203130300000000000000000000000005f82015250565b5f610be76014836105bf565b9150610bf282610bb3565b602082019050919050565b5f6020820190508181035f830152610c1481610bdb565b9050919050565b5f819050815f5260205f209050919050565b5f6020601f8301049050919050565b5f82821b905092915050565b5f60088302610c777fffffffffffffffffffffffffffffffffffffffffffffffffffffffffffffffff82610c3c565b610c818683610c3c565b95508019841693508086168417925050509392505050565b5f819050919050565b5f610cbc610cb7610cb284610557565b610c99565b610557565b9050919050565b5f819050919050565b610cd583610ca2565b610ce9610ce182610cc3565b848454610c48565b825550505050565b5f90565b610cfd610cf1565b610d08818484610ccc565b505050565b5b81811015610d2b57610d205f82610cf5565b600181019050610d0e565b5050565b601f821115610d7057610d4181610c1b565b610d4a84610c2d565b81016020851015610d59578190505b610d6d610d6585610c2d565b830182610d0d565b50505b505050565b5f82821c905092915050565b5f610d905f1984600802610d75565b1980831691505092915050565b5f610da88383610d81565b9150826002028217905092915050565b610dc1826105b5565b67ffffffffffffffff811115610dda57610dd9610827565b5b610de48254610a1d565b610def828285610d2f565b5f60209050601f831160018114610e20575f8415610e0e578287015190505b610e188582610d9d565b865550610e7f565b601f198416610e2e86610c1b565b5f5b82811015610e5557848901518255600182019150602085019450602081019050610e30565b86831015610e725784890151610e6e601f891682610d81565b8355505b6001600288020188555050505b50505050505056fea2646970667358221220092e97a26b6d8aa3c6dc8b2aab2d9c9d3ee366f846b80f221c98d7d7c66bbede64736f6c634300081a0033",
			"opcodes": "PUSH1 0x80 PUSH1 0x40 MSTORE CALLVALUE DUP1 ISZERO PUSH1 0xE JUMPI PUSH0 DUP1 REVERT JUMPDEST POP PUSH2 0xEBD DUP1 PUSH2 0x1C PUSH0 CODECOPY PUSH0 RETURN INVALID PUSH1 0x80 PUSH1 0x40 MSTORE CALLVALUE DUP1 ISZERO PUSH2 0xF JUMPI PUSH0 DUP1 REVERT JUMPDEST POP PUSH1 0x4 CALLDATASIZE LT PUSH2 0x4A JUMPI PUSH0 CALLDATALOAD PUSH1 0xE0 SHR DUP1 PUSH4 0x6EAD22E EQ PUSH2 0x4E JUMPI DUP1 PUSH4 0x642F9163 EQ PUSH2 0x84 JUMPI DUP1 PUSH4 0xD174B7FE EQ PUSH2 0xB4 JUMPI DUP1 PUSH4 0xE7A41E30 EQ PUSH2 0xD0 JUMPI JUMPDEST PUSH0 DUP1 REVERT JUMPDEST PUSH2 0x68 PUSH1 0x4 DUP1 CALLDATASIZE SUB DUP2 ADD SWAP1 PUSH2 0x63 SWAP2 SWAP1 PUSH2 0x58A JUMP JUMPDEST PUSH2 0xEC JUMP JUMPDEST PUSH1 0x40 MLOAD PUSH2 0x7B SWAP8 SWAP7 SWAP6 SWAP5 SWAP4 SWAP3 SWAP2 SWAP1 PUSH2 0x64E JUMP JUMPDEST PUSH1 0x40 MLOAD DUP1 SWAP2 SUB SWAP1 RETURN JUMPDEST PUSH2 0x9E PUSH1 0x4 DUP1 CALLDATASIZE SUB DUP2 ADD SWAP1 PUSH2 0x99 SWAP2 SWAP1 PUSH2 0x58A JUMP JUMPDEST PUSH2 0x1BB JUMP JUMPDEST PUSH1 0x40 MLOAD PUSH2 0xAB SWAP2 SWAP1 PUSH2 0x7C1 JUMP JUMPDEST PUSH1 0x40 MLOAD DUP1 SWAP2 SUB SWAP1 RETURN JUMPDEST PUSH2 0xCE PUSH1 0x4 DUP1 CALLDATASIZE SUB DUP2 ADD SWAP1 PUSH2 0xC9 SWAP2 SWAP1 PUSH2 0x7E1 JUMP JUMPDEST PUSH2 0x2C0 JUMP JUMPDEST STOP JUMPDEST PUSH2 0xEA PUSH1 0x4 DUP1 CALLDATASIZE SUB DUP2 ADD SWAP1 PUSH2 0xE5 SWAP2 SWAP1 PUSH2 0x94B JUMP JUMPDEST PUSH2 0x3A0 JUMP JUMPDEST STOP JUMPDEST PUSH0 PUSH1 0x20 MSTORE DUP1 PUSH0 MSTORE PUSH1 0x40 PUSH0 KECCAK256 PUSH0 SWAP2 POP SWAP1 POP DUP1 PUSH0 ADD DUP1 SLOAD PUSH2 0x10A SWAP1 PUSH2 0xA1D JUMP JUMPDEST DUP1 PUSH1 0x1F ADD PUSH1 0x20 DUP1 SWAP2 DIV MUL PUSH1 0x20 ADD PUSH1 0x40 MLOAD SWAP1 DUP2 ADD PUSH1 0x40 MSTORE DUP1 SWAP3 SWAP2 SWAP1 DUP2 DUP2 MSTORE PUSH1 0x20 ADD DUP3 DUP1 SLOAD PUSH2 0x136 SWAP1 PUSH2 0xA1D JUMP JUMPDEST DUP1 ISZERO PUSH2 0x181 JUMPI DUP1 PUSH1 0x1F LT PUSH2 0x158 JUMPI PUSH2 0x100 DUP1 DUP4 SLOAD DIV MUL DUP4 MSTORE SWAP2 PUSH1 0x20 ADD SWAP2 PUSH2 0x181 JUMP JUMPDEST DUP3 ADD SWAP2 SWAP1 PUSH0 MSTORE PUSH1 0x20 PUSH0 KECCAK256 SWAP1 JUMPDEST DUP2 SLOAD DUP2 MSTORE SWAP1 PUSH1 0x1 ADD SWAP1 PUSH1 0x20 ADD DUP1 DUP4 GT PUSH2 0x164 JUMPI DUP3 SWAP1 SUB PUSH1 0x1F AND DUP3 ADD SWAP2 JUMPDEST POP POP POP POP POP SWAP1 DUP1 PUSH1 0x1 ADD SLOAD SWAP1 DUP1 PUSH1 0x2 ADD SLOAD SWAP1 DUP1 PUSH1 0x3 ADD SLOAD SWAP1 DUP1 PUSH1 0x4 ADD SLOAD SWAP1 DUP1 PUSH1 0x5 ADD SLOAD SWAP1 DUP1 PUSH1 0x6 ADD PUSH0 SWAP1 SLOAD SWAP1 PUSH2 0x100 EXP SWAP1 DIV PUSH1 0xFF AND SWAP1 POP DUP8 JUMP JUMPDEST PUSH2 0x1C3 PUSH2 0x50D JUMP JUMPDEST PUSH0 DUP1 DUP4 DUP2 MSTORE PUSH1 0x20 ADD SWAP1 DUP2 MSTORE PUSH1 0x20 ADD PUSH0 KECCAK256 PUSH1 0x40 MLOAD DUP1 PUSH1 0xE0 ADD PUSH1 0x40 MSTORE SWAP1 DUP2 PUSH0 DUP3 ADD DUP1 SLOAD PUSH2 0x1ED SWAP1 PUSH2 0xA1D JUMP JUMPDEST DUP1 PUSH1 0x1F ADD PUSH1 0x20 DUP1 SWAP2 DIV MUL PUSH1 0x20 ADD PUSH1 0x40 MLOAD SWAP1 DUP2 ADD PUSH1 0x40 MSTORE DUP1 SWAP3 SWAP2 SWAP1 DUP2 DUP2 MSTORE PUSH1 0x20 ADD DUP3 DUP1 SLOAD PUSH2 0x219 SWAP1 PUSH2 0xA1D JUMP JUMPDEST DUP1 ISZERO PUSH2 0x264 JUMPI DUP1 PUSH1 0x1F LT PUSH2 0x23B JUMPI PUSH2 0x100 DUP1 DUP4 SLOAD DIV MUL DUP4 MSTORE SWAP2 PUSH1 0x20 ADD SWAP2 PUSH2 0x264 JUMP JUMPDEST DUP3 ADD SWAP2 SWAP1 PUSH0 MSTORE PUSH1 0x20 PUSH0 KECCAK256 SWAP1 JUMPDEST DUP2 SLOAD DUP2 MSTORE SWAP1 PUSH1 0x1 ADD SWAP1 PUSH1 0x20 ADD DUP1 DUP4 GT PUSH2 0x247 JUMPI DUP3 SWAP1 SUB PUSH1 0x1F AND DUP3 ADD SWAP2 JUMPDEST POP POP POP POP POP DUP2 MSTORE PUSH1 0x20 ADD PUSH1 0x1 DUP3 ADD SLOAD DUP2 MSTORE PUSH1 0x20 ADD PUSH1 0x2 DUP3 ADD SLOAD DUP2 MSTORE PUSH1 0x20 ADD PUSH1 0x3 DUP3 ADD SLOAD DUP2 MSTORE PUSH1 0x20 ADD PUSH1 0x4 DUP3 ADD SLOAD DUP2 MSTORE PUSH1 0x20 ADD PUSH1 0x5 DUP3 ADD SLOAD DUP2 MSTORE PUSH1 0x20 ADD PUSH1 0x6 DUP3 ADD PUSH0 SWAP1 SLOAD SWAP1 PUSH2 0x100 EXP SWAP1 DIV PUSH1 0xFF AND ISZERO ISZERO ISZERO ISZERO DUP2 MSTORE POP POP SWAP1 POP SWAP2 SWAP1 POP JUMP JUMPDEST PUSH1 0x64 DUP2 GT ISZERO PUSH2 0x304 JUMPI PUSH1 0x40 MLOAD PUSH32 0x8C379A000000000000000000000000000000000000000000000000000000000 DUP2 MSTORE PUSH1 0x4 ADD PUSH2 0x2FB SWAP1 PUSH2 0xA97 JUMP JUMPDEST PUSH1 0x40 MLOAD DUP1 SWAP2 SUB SWAP1 REVERT JUMPDEST PUSH0 DUP1 PUSH0 DUP5 DUP2 MSTORE PUSH1 0x20 ADD SWAP1 DUP2 MSTORE PUSH1 0x20 ADD PUSH0 KECCAK256 SWAP1 POP DUP2 DUP2 PUSH1 0x5 ADD DUP2 SWAP1 SSTORE POP PUSH0 DUP2 PUSH1 0x5 ADD SLOAD DUP3 PUSH1 0x3 ADD SLOAD DUP4 PUSH1 0x2 ADD SLOAD DUP5 PUSH1 0x1 ADD SLOAD PUSH2 0x33F SWAP2 SWAP1 PUSH2 0xAE2 JUMP JUMPDEST PUSH2 0x349 SWAP2 SWAP1 PUSH2 0xAE2 JUMP JUMPDEST PUSH2 0x353 SWAP2 SWAP1 PUSH2 0xAE2 JUMP JUMPDEST SWAP1 POP PUSH2 0x190 PUSH1 0x64 DUP3 PUSH2 0x365 SWAP2 SWAP1 PUSH2 0xB15 JUMP JUMPDEST PUSH2 0x36F SWAP2 SWAP1 PUSH2 0xB83 JUMP JUMPDEST DUP3 PUSH1 0x4 ADD DUP2 SWAP1 SSTORE POP PUSH1 0x3C DUP3 PUSH1 0x4 ADD SLOAD LT ISZERO DUP3 PUSH1 0x6 ADD PUSH0 PUSH2 0x100 EXP DUP2 SLOAD DUP2 PUSH1 0xFF MUL NOT AND SWAP1 DUP4 ISZERO ISZERO MUL OR SWAP1 SSTORE POP POP POP POP POP JUMP JUMPDEST PUSH1 0x64 DUP5 GT ISZERO DUP1 ISZERO PUSH2 0x3B2 JUMPI POP PUSH1 0x64 DUP4 GT ISZERO JUMPDEST DUP1 ISZERO PUSH2 0x3BF JUMPI POP PUSH1 0x64 DUP3 GT ISZERO JUMPDEST DUP1 ISZERO PUSH2 0x3CC JUMPI POP PUSH1 0x64 DUP2 GT ISZERO JUMPDEST PUSH2 0x40B JUMPI PUSH1 0x40 MLOAD PUSH32 0x8C379A000000000000000000000000000000000000000000000000000000000 DUP2 MSTORE PUSH1 0x4 ADD PUSH2 0x402 SWAP1 PUSH2 0xBFD JUMP JUMPDEST PUSH1 0x40 MLOAD DUP1 SWAP2 SUB SWAP1 REVERT JUMPDEST PUSH0 DUP2 DUP4 DUP6 DUP8 PUSH2 0x41A SWAP2 SWAP1 PUSH2 0xAE2 JUMP JUMPDEST PUSH2 0x424 SWAP2 SWAP1 PUSH2 0xAE2 JUMP JUMPDEST PUSH2 0x42E SWAP2 SWAP1 PUSH2 0xAE2 JUMP JUMPDEST SWAP1 POP PUSH0 PUSH2 0x190 PUSH1 0x64 DUP4 PUSH2 0x441 SWAP2 SWAP1 PUSH2 0xB15 JUMP JUMPDEST PUSH2 0x44B SWAP2 SWAP1 PUSH2 0xB83 JUMP JUMPDEST SWAP1 POP PUSH0 PUSH1 0x3C DUP3 LT ISZERO SWAP1 POP PUSH1 0x40 MLOAD DUP1 PUSH1 0xE0 ADD PUSH1 0x40 MSTORE DUP1 DUP10 DUP2 MSTORE PUSH1 0x20 ADD DUP9 DUP2 MSTORE PUSH1 0x20 ADD DUP8 DUP2 MSTORE PUSH1 0x20 ADD DUP7 DUP2 MSTORE PUSH1 0x20 ADD DUP4 DUP2 MSTORE PUSH1 0x20 ADD DUP6 DUP2 MSTORE PUSH1 0x20 ADD DUP3 ISZERO ISZERO DUP2 MSTORE POP PUSH0 DUP1 DUP12 DUP2 MSTORE PUSH1 0x20 ADD SWAP1 DUP2 MSTORE PUSH1 0x20 ADD PUSH0 KECCAK256 PUSH0 DUP3 ADD MLOAD DUP2 PUSH0 ADD SWAP1 DUP2 PUSH2 0x4AD SWAP2 SWAP1 PUSH2 0xDB8 JUMP JUMPDEST POP PUSH1 0x20 DUP3 ADD MLOAD DUP2 PUSH1 0x1 ADD SSTORE PUSH1 0x40 DUP3 ADD MLOAD DUP2 PUSH1 0x2 ADD SSTORE PUSH1 0x60 DUP3 ADD MLOAD DUP2 PUSH1 0x3 ADD SSTORE PUSH1 0x80 DUP3 ADD MLOAD DUP2 PUSH1 0x4 ADD SSTORE PUSH1 0xA0 DUP3 ADD MLOAD DUP2 PUSH1 0x5 ADD SSTORE PUSH1 0xC0 DUP3 ADD MLOAD DUP2 PUSH1 0x6 ADD PUSH0 PUSH2 0x100 EXP DUP2 SLOAD DUP2 PUSH1 0xFF MUL NOT AND SWAP1 DUP4 ISZERO ISZERO MUL OR SWAP1 SSTORE POP SWAP1 POP POP POP POP POP POP POP POP POP POP POP JUMP JUMPDEST PUSH1 0x40 MLOAD DUP1 PUSH1 0xE0 ADD PUSH1 0x40 MSTORE DUP1 PUSH1 0x60 DUP2 MSTORE PUSH1 0x20 ADD PUSH0 DUP2 MSTORE PUSH1 0x20 ADD PUSH0 DUP2 MSTORE PUSH1 0x20 ADD PUSH0 DUP2 MSTORE PUSH1 0x20 ADD PUSH0 DUP2 MSTORE PUSH1 0x20 ADD PUSH0 DUP2 MSTORE PUSH1 0x20 ADD PUSH0 ISZERO ISZERO DUP2 MSTORE POP SWAP1 JUMP JUMPDEST PUSH0 PUSH1 0x40 MLOAD SWAP1 POP SWAP1 JUMP JUMPDEST PUSH0 DUP1 REVERT JUMPDEST PUSH0 DUP1 REVERT JUMPDEST PUSH0 DUP2 SWAP1 POP SWAP2 SWAP1 POP JUMP JUMPDEST PUSH2 0x569 DUP2 PUSH2 0x557 JUMP JUMPDEST DUP2 EQ PUSH2 0x573 JUMPI PUSH0 DUP1 REVERT JUMPDEST POP JUMP JUMPDEST PUSH0 DUP2 CALLDATALOAD SWAP1 POP PUSH2 0x584 DUP2 PUSH2 0x560 JUMP JUMPDEST SWAP3 SWAP2 POP POP JUMP JUMPDEST PUSH0 PUSH1 0x20 DUP3 DUP5 SUB SLT ISZERO PUSH2 0x59F JUMPI PUSH2 0x59E PUSH2 0x54F JUMP JUMPDEST JUMPDEST PUSH0 PUSH2 0x5AC DUP5 DUP3 DUP6 ADD PUSH2 0x576 JUMP JUMPDEST SWAP2 POP POP SWAP3 SWAP2 POP POP JUMP JUMPDEST PUSH0 DUP2 MLOAD SWAP1 POP SWAP2 SWAP1 POP JUMP JUMPDEST PUSH0 DUP3 DUP3 MSTORE PUSH1 0x20 DUP3 ADD SWAP1 POP SWAP3 SWAP2 POP POP JUMP JUMPDEST DUP3 DUP2 DUP4 MCOPY PUSH0 DUP4 DUP4 ADD MSTORE POP POP POP JUMP JUMPDEST PUSH0 PUSH1 0x1F NOT PUSH1 0x1F DUP4 ADD AND SWAP1 POP SWAP2 SWAP1 POP JUMP JUMPDEST PUSH0 PUSH2 0x5F7 DUP3 PUSH2 0x5B5 JUMP JUMPDEST PUSH2 0x601 DUP2 DUP6 PUSH2 0x5BF JUMP JUMPDEST SWAP4 POP PUSH2 0x611 DUP2 DUP6 PUSH1 0x20 DUP7 ADD PUSH2 0x5CF JUMP JUMPDEST PUSH2 0x61A DUP2 PUSH2 0x5DD JUMP JUMPDEST DUP5 ADD SWAP2 POP POP SWAP3 SWAP2 POP POP JUMP JUMPDEST PUSH2 0x62E DUP2 PUSH2 0x557 JUMP JUMPDEST DUP3 MSTORE POP POP JUMP JUMPDEST PUSH0 DUP2 ISZERO ISZERO SWAP1 POP SWAP2 SWAP1 POP JUMP JUMPDEST PUSH2 0x648 DUP2 PUSH2 0x634 JUMP JUMPDEST DUP3 MSTORE POP POP JUMP JUMPDEST PUSH0 PUSH1 0xE0 DUP3 ADD SWAP1 POP DUP2 DUP2 SUB PUSH0 DUP4 ADD MSTORE PUSH2 0x666 DUP2 DUP11 PUSH2 0x5ED JUMP JUMPDEST SWAP1 POP PUSH2 0x675 PUSH1 0x20 DUP4 ADD DUP10 PUSH2 0x625 JUMP JUMPDEST PUSH2 0x682 PUSH1 0x40 DUP4 ADD DUP9 PUSH2 0x625 JUMP JUMPDEST PUSH2 0x68F PUSH1 0x60 DUP4 ADD DUP8 PUSH2 0x625 JUMP JUMPDEST PUSH2 0x69C PUSH1 0x80 DUP4 ADD DUP7 PUSH2 0x625 JUMP JUMPDEST PUSH2 0x6A9 PUSH1 0xA0 DUP4 ADD DUP6 PUSH2 0x625 JUMP JUMPDEST PUSH2 0x6B6 PUSH1 0xC0 DUP4 ADD DUP5 PUSH2 0x63F JUMP JUMPDEST SWAP9 SWAP8 POP POP POP POP POP POP POP POP JUMP JUMPDEST PUSH0 DUP3 DUP3 MSTORE PUSH1 0x20 DUP3 ADD SWAP1 POP SWAP3 SWAP2 POP POP JUMP JUMPDEST PUSH0 PUSH2 0x6DC DUP3 PUSH2 0x5B5 JUMP JUMPDEST PUSH2 0x6E6 DUP2 DUP6 PUSH2 0x6C2 JUMP JUMPDEST SWAP4 POP PUSH2 0x6F6 DUP2 DUP6 PUSH1 0x20 DUP7 ADD PUSH2 0x5CF JUMP JUMPDEST PUSH2 0x6FF DUP2 PUSH2 0x5DD JUMP JUMPDEST DUP5 ADD SWAP2 POP POP SWAP3 SWAP2 POP POP JUMP JUMPDEST PUSH2 0x713 DUP2 PUSH2 0x557 JUMP JUMPDEST DUP3 MSTORE POP POP JUMP JUMPDEST PUSH2 0x722 DUP2 PUSH2 0x634 JUMP JUMPDEST DUP3 MSTORE POP POP JUMP JUMPDEST PUSH0 PUSH1 0xE0 DUP4 ADD PUSH0 DUP4 ADD MLOAD DUP5 DUP3 SUB PUSH0 DUP7 ADD MSTORE PUSH2 0x742 DUP3 DUP3 PUSH2 0x6D2 JUMP JUMPDEST SWAP2 POP POP PUSH1 0x20 DUP4 ADD MLOAD PUSH2 0x757 PUSH1 0x20 DUP7 ADD DUP3 PUSH2 0x70A JUMP JUMPDEST POP PUSH1 0x40 DUP4 ADD MLOAD PUSH2 0x76A PUSH1 0x40 DUP7 ADD DUP3 PUSH2 0x70A JUMP JUMPDEST POP PUSH1 0x60 DUP4 ADD MLOAD PUSH2 0x77D PUSH1 0x60 DUP7 ADD DUP3 PUSH2 0x70A JUMP JUMPDEST POP PUSH1 0x80 DUP4 ADD MLOAD PUSH2 0x790 PUSH1 0x80 DUP7 ADD DUP3 PUSH2 0x70A JUMP JUMPDEST POP PUSH1 0xA0 DUP4 ADD MLOAD PUSH2 0x7A3 PUSH1 0xA0 DUP7 ADD DUP3 PUSH2 0x70A JUMP JUMPDEST POP PUSH1 0xC0 DUP4 ADD MLOAD PUSH2 0x7B6 PUSH1 0xC0 DUP7 ADD DUP3 PUSH2 0x719 JUMP JUMPDEST POP DUP1 SWAP2 POP POP SWAP3 SWAP2 POP POP JUMP JUMPDEST PUSH0 PUSH1 0x20 DUP3 ADD SWAP1 POP DUP2 DUP2 SUB PUSH0 DUP4 ADD MSTORE PUSH2 0x7D9 DUP2 DUP5 PUSH2 0x728 JUMP JUMPDEST SWAP1 POP SWAP3 SWAP2 POP POP JUMP JUMPDEST PUSH0 DUP1 PUSH1 0x40 DUP4 DUP6 SUB SLT ISZERO PUSH2 0x7F7 JUMPI PUSH2 0x7F6 PUSH2 0x54F JUMP JUMPDEST JUMPDEST PUSH0 PUSH2 0x804 DUP6 DUP3 DUP7 ADD PUSH2 0x576 JUMP JUMPDEST SWAP3 POP POP PUSH1 0x20 PUSH2 0x815 DUP6 DUP3 DUP7 ADD PUSH2 0x576 JUMP JUMPDEST SWAP2 POP POP SWAP3 POP SWAP3 SWAP1 POP JUMP JUMPDEST PUSH0 DUP1 REVERT JUMPDEST PUSH0 DUP1 REVERT JUMPDEST PUSH32 0x4E487B7100000000000000000000000000000000000000000000000000000000 PUSH0 MSTORE PUSH1 0x41 PUSH1 0x4 MSTORE PUSH1 0x24 PUSH0 REVERT JUMPDEST PUSH2 0x85D DUP3 PUSH2 0x5DD JUMP JUMPDEST DUP2 ADD DUP2 DUP2 LT PUSH8 0xFFFFFFFFFFFFFFFF DUP3 GT OR ISZERO PUSH2 0x87C JUMPI PUSH2 0x87B PUSH2 0x827 JUMP JUMPDEST JUMPDEST DUP1 PUSH1 0x40 MSTORE POP POP POP JUMP JUMPDEST PUSH0 PUSH2 0x88E PUSH2 0x546 JUMP JUMPDEST SWAP1 POP PUSH2 0x89A DUP3 DUP3 PUSH2 0x854 JUMP JUMPDEST SWAP2 SWAP1 POP JUMP JUMPDEST PUSH0 PUSH8 0xFFFFFFFFFFFFFFFF DUP3 GT ISZERO PUSH2 0x8B9 JUMPI PUSH2 0x8B8 PUSH2 0x827 JUMP JUMPDEST JUMPDEST PUSH2 0x8C2 DUP3 PUSH2 0x5DD JUMP JUMPDEST SWAP1 POP PUSH1 0x20 DUP2 ADD SWAP1 POP SWAP2 SWAP1 POP JUMP JUMPDEST DUP3 DUP2 DUP4 CALLDATACOPY PUSH0 DUP4 DUP4 ADD MSTORE POP POP POP JUMP JUMPDEST PUSH0 PUSH2 0x8EF PUSH2 0x8EA DUP5 PUSH2 0x89F JUMP JUMPDEST PUSH2 0x885 JUMP JUMPDEST SWAP1 POP DUP3 DUP2 MSTORE PUSH1 0x20 DUP2 ADD DUP5 DUP5 DUP5 ADD GT ISZERO PUSH2 0x90B JUMPI PUSH2 0x90A PUSH2 0x823 JUMP JUMPDEST JUMPDEST PUSH2 0x916 DUP5 DUP3 DUP6 PUSH2 0x8CF JUMP JUMPDEST POP SWAP4 SWAP3 POP POP POP JUMP JUMPDEST PUSH0 DUP3 PUSH1 0x1F DUP4 ADD SLT PUSH2 0x932 JUMPI PUSH2 0x931 PUSH2 0x81F JUMP JUMPDEST JUMPDEST DUP2 CALLDATALOAD PUSH2 0x942 DUP5 DUP3 PUSH1 0x20 DUP7 ADD PUSH2 0x8DD JUMP JUMPDEST SWAP2 POP POP SWAP3 SWAP2 POP POP JUMP JUMPDEST PUSH0 DUP1 PUSH0 DUP1 PUSH0 DUP1 PUSH1 0xC0 DUP8 DUP10 SUB SLT ISZERO PUSH2 0x965 JUMPI PUSH2 0x964 PUSH2 0x54F JUMP JUMPDEST JUMPDEST PUSH0 PUSH2 0x972 DUP10 DUP3 DUP11 ADD PUSH2 0x576 JUMP JUMPDEST SWAP7 POP POP PUSH1 0x20 DUP8 ADD CALLDATALOAD PUSH8 0xFFFFFFFFFFFFFFFF DUP2 GT ISZERO PUSH2 0x993 JUMPI PUSH2 0x992 PUSH2 0x553 JUMP JUMPDEST JUMPDEST PUSH2 0x99F DUP10 DUP3 DUP11 ADD PUSH2 0x91E JUMP JUMPDEST SWAP6 POP POP PUSH1 0x40 PUSH2 0x9B0 DUP10 DUP3 DUP11 ADD PUSH2 0x576 JUMP JUMPDEST SWAP5 POP POP PUSH1 0x60 PUSH2 0x9C1 DUP10 DUP3 DUP11 ADD PUSH2 0x576 JUMP JUMPDEST SWAP4 POP POP PUSH1 0x80 PUSH2 0x9D2 DUP10 DUP3 DUP11 ADD PUSH2 0x576 JUMP JUMPDEST SWAP3 POP POP PUSH1 0xA0 PUSH2 0x9E3 DUP10 DUP3 DUP11 ADD PUSH2 0x576 JUMP JUMPDEST SWAP2 POP POP SWAP3 SWAP6 POP SWAP3 SWAP6 POP SWAP3 SWAP6 JUMP JUMPDEST PUSH32 0x4E487B7100000000000000000000000000000000000000000000000000000000 PUSH0 MSTORE PUSH1 0x22 PUSH1 0x4 MSTORE PUSH1 0x24 PUSH0 REVERT JUMPDEST PUSH0 PUSH1 0x2 DUP3 DIV SWAP1 POP PUSH1 0x1 DUP3 AND DUP1 PUSH2 0xA34 JUMPI PUSH1 0x7F DUP3 AND SWAP2 POP JUMPDEST PUSH1 0x20 DUP3 LT DUP2 SUB PUSH2 0xA47 JUMPI PUSH2 0xA46 PUSH2 0x9F0 JUMP JUMPDEST JUMPDEST POP SWAP2 SWAP1 POP JUMP JUMPDEST PUSH32 0x536369656E6365206D61726B73206D757374206265203C3D2031303000000000 PUSH0 DUP3 ADD MSTORE POP JUMP JUMPDEST PUSH0 PUSH2 0xA81 PUSH1 0x1C DUP4 PUSH2 0x5BF JUMP JUMPDEST SWAP2 POP PUSH2 0xA8C DUP3 PUSH2 0xA4D JUMP JUMPDEST PUSH1 0x20 DUP3 ADD SWAP1 POP SWAP2 SWAP1 POP JUMP JUMPDEST PUSH0 PUSH1 0x20 DUP3 ADD SWAP1 POP DUP2 DUP2 SUB PUSH0 DUP4 ADD MSTORE PUSH2 0xAAE DUP2 PUSH2 0xA75 JUMP JUMPDEST SWAP1 POP SWAP2 SWAP1 POP JUMP JUMPDEST PUSH32 0x4E487B7100000000000000000000000000000000000000000000000000000000 PUSH0 MSTORE PUSH1 0x11 PUSH1 0x4 MSTORE PUSH1 0x24 PUSH0 REVERT JUMPDEST PUSH0 PUSH2 0xAEC DUP3 PUSH2 0x557 JUMP JUMPDEST SWAP2 POP PUSH2 0xAF7 DUP4 PUSH2 0x557 JUMP JUMPDEST SWAP3 POP DUP3 DUP3 ADD SWAP1 POP DUP1 DUP3 GT ISZERO PUSH2 0xB0F JUMPI PUSH2 0xB0E PUSH2 0xAB5 JUMP JUMPDEST JUMPDEST SWAP3 SWAP2 POP POP JUMP JUMPDEST PUSH0 PUSH2 0xB1F DUP3 PUSH2 0x557 JUMP JUMPDEST SWAP2 POP PUSH2 0xB2A DUP4 PUSH2 0x557 JUMP JUMPDEST SWAP3 POP DUP3 DUP3 MUL PUSH2 0xB38 DUP2 PUSH2 0x557 JUMP JUMPDEST SWAP2 POP DUP3 DUP3 DIV DUP5 EQ DUP4 ISZERO OR PUSH2 0xB4F JUMPI PUSH2 0xB4E PUSH2 0xAB5 JUMP JUMPDEST JUMPDEST POP SWAP3 SWAP2 POP POP JUMP JUMPDEST PUSH32 0x4E487B7100000000000000000000000000000000000000000000000000000000 PUSH0 MSTORE PUSH1 0x12 PUSH1 0x4 MSTORE PUSH1 0x24 PUSH0 REVERT JUMPDEST PUSH0 PUSH2 0xB8D DUP3 PUSH2 0x557 JUMP JUMPDEST SWAP2 POP PUSH2 0xB98 DUP4 PUSH2 0x557 JUMP JUMPDEST SWAP3 POP DUP3 PUSH2 0xBA8 JUMPI PUSH2 0xBA7 PUSH2 0xB56 JUMP JUMPDEST JUMPDEST DUP3 DUP3 DIV SWAP1 POP SWAP3 SWAP2 POP POP JUMP JUMPDEST PUSH32 0x4D61726B73206D757374206265203C3D20313030000000000000000000000000 PUSH0 DUP3 ADD MSTORE POP JUMP JUMPDEST PUSH0 PUSH2 0xBE7 PUSH1 0x14 DUP4 PUSH2 0x5BF JUMP JUMPDEST SWAP2 POP PUSH2 0xBF2 DUP3 PUSH2 0xBB3 JUMP JUMPDEST PUSH1 0x20 DUP3 ADD SWAP1 POP SWAP2 SWAP1 POP JUMP JUMPDEST PUSH0 PUSH1 0x20 DUP3 ADD SWAP1 POP DUP2 DUP2 SUB PUSH0 DUP4 ADD MSTORE PUSH2 0xC14 DUP2 PUSH2 0xBDB JUMP JUMPDEST SWAP1 POP SWAP2 SWAP1 POP JUMP JUMPDEST PUSH0 DUP2 SWAP1 POP DUP2 PUSH0 MSTORE PUSH1 0x20 PUSH0 KECCAK256 SWAP1 POP SWAP2 SWAP1 POP JUMP JUMPDEST PUSH0 PUSH1 0x20 PUSH1 0x1F DUP4 ADD DIV SWAP1 POP SWAP2 SWAP1 POP JUMP JUMPDEST PUSH0 DUP3 DUP3 SHL SWAP1 POP SWAP3 SWAP2 POP POP JUMP JUMPDEST PUSH0 PUSH1 0x8 DUP4 MUL PUSH2 0xC77 PUSH32 0xFFFFFFFFFFFFFFFFFFFFFFFFFFFFFFFFFFFFFFFFFFFFFFFFFFFFFFFFFFFFFFFF DUP3 PUSH2 0xC3C JUMP JUMPDEST PUSH2 0xC81 DUP7 DUP4 PUSH2 0xC3C JUMP JUMPDEST SWAP6 POP DUP1 NOT DUP5 AND SWAP4 POP DUP1 DUP7 AND DUP5 OR SWAP3 POP POP POP SWAP4 SWAP3 POP POP POP JUMP JUMPDEST PUSH0 DUP2 SWAP1 POP SWAP2 SWAP1 POP JUMP JUMPDEST PUSH0 PUSH2 0xCBC PUSH2 0xCB7 PUSH2 0xCB2 DUP5 PUSH2 0x557 JUMP JUMPDEST PUSH2 0xC99 JUMP JUMPDEST PUSH2 0x557 JUMP JUMPDEST SWAP1 POP SWAP2 SWAP1 POP JUMP JUMPDEST PUSH0 DUP2 SWAP1 POP SWAP2 SWAP1 POP JUMP JUMPDEST PUSH2 0xCD5 DUP4 PUSH2 0xCA2 JUMP JUMPDEST PUSH2 0xCE9 PUSH2 0xCE1 DUP3 PUSH2 0xCC3 JUMP JUMPDEST DUP5 DUP5 SLOAD PUSH2 0xC48 JUMP JUMPDEST DUP3 SSTORE POP POP POP POP JUMP JUMPDEST PUSH0 SWAP1 JUMP JUMPDEST PUSH2 0xCFD PUSH2 0xCF1 JUMP JUMPDEST PUSH2 0xD08 DUP2 DUP5 DUP5 PUSH2 0xCCC JUMP JUMPDEST POP POP POP JUMP JUMPDEST JUMPDEST DUP2 DUP2 LT ISZERO PUSH2 0xD2B JUMPI PUSH2 0xD20 PUSH0 DUP3 PUSH2 0xCF5 JUMP JUMPDEST PUSH1 0x1 DUP2 ADD SWAP1 POP PUSH2 0xD0E JUMP JUMPDEST POP POP JUMP JUMPDEST PUSH1 0x1F DUP3 GT ISZERO PUSH2 0xD70 JUMPI PUSH2 0xD41 DUP2 PUSH2 0xC1B JUMP JUMPDEST PUSH2 0xD4A DUP5 PUSH2 0xC2D JUMP JUMPDEST DUP2 ADD PUSH1 0x20 DUP6 LT ISZERO PUSH2 0xD59 JUMPI DUP2 SWAP1 POP JUMPDEST PUSH2 0xD6D PUSH2 0xD65 DUP6 PUSH2 0xC2D JUMP JUMPDEST DUP4 ADD DUP3 PUSH2 0xD0D JUMP JUMPDEST POP POP JUMPDEST POP POP POP JUMP JUMPDEST PUSH0 DUP3 DUP3 SHR SWAP1 POP SWAP3 SWAP2 POP POP JUMP JUMPDEST PUSH0 PUSH2 0xD90 PUSH0 NOT DUP5 PUSH1 0x8 MUL PUSH2 0xD75 JUMP JUMPDEST NOT DUP1 DUP4 AND SWAP2 POP POP SWAP3 SWAP2 POP POP JUMP JUMPDEST PUSH0 PUSH2 0xDA8 DUP4 DUP4 PUSH2 0xD81 JUMP JUMPDEST SWAP2 POP DUP3 PUSH1 0x2 MUL DUP3 OR SWAP1 POP SWAP3 SWAP2 POP POP JUMP JUMPDEST PUSH2 0xDC1 DUP3 PUSH2 0x5B5 JUMP JUMPDEST PUSH8 0xFFFFFFFFFFFFFFFF DUP2 GT ISZERO PUSH2 0xDDA JUMPI PUSH2 0xDD9 PUSH2 0x827 JUMP JUMPDEST JUMPDEST PUSH2 0xDE4 DUP3 SLOAD PUSH2 0xA1D JUMP JUMPDEST PUSH2 0xDEF DUP3 DUP3 DUP6 PUSH2 0xD2F JUMP JUMPDEST PUSH0 PUSH1 0x20 SWAP1 POP PUSH1 0x1F DUP4 GT PUSH1 0x1 DUP2 EQ PUSH2 0xE20 JUMPI PUSH0 DUP5 ISZERO PUSH2 0xE0E JUMPI DUP3 DUP8 ADD MLOAD SWAP1 POP JUMPDEST PUSH2 0xE18 DUP6 DUP3 PUSH2 0xD9D JUMP JUMPDEST DUP7 SSTORE POP PUSH2 0xE7F JUMP JUMPDEST PUSH1 0x1F NOT DUP5 AND PUSH2 0xE2E DUP7 PUSH2 0xC1B JUMP JUMPDEST PUSH0 JUMPDEST DUP3 DUP2 LT ISZERO PUSH2 0xE55 JUMPI DUP5 DUP10 ADD MLOAD DUP3 SSTORE PUSH1 0x1 DUP3 ADD SWAP2 POP PUSH1 0x20 DUP6 ADD SWAP5 POP PUSH1 0x20 DUP2 ADD SWAP1 POP PUSH2 0xE30 JUMP JUMPDEST DUP7 DUP4 LT ISZERO PUSH2 0xE72 JUMPI DUP5 DUP10 ADD MLOAD PUSH2 0xE6E PUSH1 0x1F DUP10 AND DUP3 PUSH2 0xD81 JUMP JUMPDEST DUP4 SSTORE POP JUMPDEST PUSH1 0x1 PUSH1 0x2 DUP9 MUL ADD DUP9 SSTORE POP POP POP JUMPDEST POP POP POP POP POP POP JUMP INVALID LOG2 PUSH5 0x6970667358 0x22 SLT KECCAK256 MULMOD 0x2E SWAP8 LOG2 PUSH12 0x6D8AA3C6DC8B2AAB2D9C9D3E 0xE3 PUSH7 0xF846B80F221C98 0xD7 0xD7 0xC6 PUSH12 0xBEDE64736F6C634300081A00 CALLER "
		},
		"gasEstimates": {
			"creation": {
				"codeDepositCost": "754600",
				"executionCost": "784",
				"totalCost": "755384"
			},
			"external": {
				"addOrUpdateStudent(uint256,string,uint256,uint256,uint256,uint256)": "infinite",
				"getStudent(uint256)": "infinite",
				"students(uint256)": "infinite",
				"updateScienceMarks(uint256,uint256)": "infinite"
			}
		},
		"methodIdentifiers": {
			"addOrUpdateStudent(uint256,string,uint256,uint256,uint256,uint256)": "e7a41e30",
			"getStudent(uint256)": "642f9163",
			"students(uint256)": "06ead22e",
			"updateScienceMarks(uint256,uint256)": "d174b7fe"
		}
	},
	"abi": [
		{
			"inputs": [
				{
					"internalType": "uint256",
					"name": "id",
					"type": "uint256"
				},
				{
					"internalType": "string",
					"name": "name",
					"type": "string"
				},
				{
					"internalType": "uint256",
					"name": "english",
					"type": "uint256"
				},
				{
					"internalType": "uint256",
					"name": "hindi",
					"type": "uint256"
				},
				{
					"internalType": "uint256",
					"name": "math",
					"type": "uint256"
				},
				{
					"internalType": "uint256",
					"name": "science",
					"type": "uint256"
				}
			],
			"name": "addOrUpdateStudent",
			"outputs": [],
			"stateMutability": "nonpayable",
			"type": "function"
		},
		{
			"inputs": [
				{
					"internalType": "uint256",
					"name": "id",
					"type": "uint256"
				}
			],
			"name": "getStudent",
			"outputs": [
				{
					"components": [
						{
							"internalType": "string",
							"name": "name",
							"type": "string"
						},
						{
							"internalType": "uint256",
							"name": "english",
							"type": "uint256"
						},
						{
							"internalType": "uint256",
							"name": "hindi",
							"type": "uint256"
						},
						{
							"internalType": "uint256",
							"name": "math",
							"type": "uint256"
						},
						{
							"internalType": "uint256",
							"name": "percentage",
							"type": "uint256"
						},
						{
							"internalType": "uint256",
							"name": "science",
							"type": "uint256"
						},
						{
							"internalType": "bool",
							"name": "isPass",
							"type": "bool"
						}
					],
					"internalType": "struct V3Marksheet.Student",
					"name": "",
					"type": "tuple"
				}
			],
			"stateMutability": "view",
			"type": "function"
		},
		{
			"inputs": [
				{
					"internalType": "uint256",
					"name": "",
					"type": "uint256"
				}
			],
			"name": "students",
			"outputs": [
				{
					"internalType": "string",
					"name": "name",
					"type": "string"
				},
				{
					"internalType": "uint256",
					"name": "english",
					"type": "uint256"
				},
				{
					"internalType": "uint256",
					"name": "hindi",
					"type": "uint256"
				},
				{
					"internalType": "uint256",
					"name": "math",
					"type": "uint256"
				},
				{
					"internalType": "uint256",
					"name": "percentage",
					"type": "uint256"
				},
				{
					"internalType": "uint256",
					"name": "science",
					"type": "uint256"
				},
				{
					"internalType": "bool",
					"name": "isPass",
					"type": "bool"
				}
			],
			"stateMutability": "view",
			"type": "function"
		},
		{
			"inputs": [
				{
					"internalType": "uint256",
					"name": "id",
					"type": "uint256"
				},
				{
					"internalType": "uint256",
					"name": "science",
					"type": "uint256"
				}
			],
			"name": "updateScienceMarks",
			"outputs": [],
			"stateMutability": "nonpayable",
			"type": "function"
		}
	]
}