{
	"data": {
		"bytecode": {
			"linkReferences": {},
			"object": "6080604052348015600e575f80fd5b506112488061001c5f395ff3fe608060405234801561000f575f80fd5b506004361061004a575f3560e01c806306ead22e1461004e578063642f9163146100835780636c6a50ff146100b3578063e7a41e30146100e3575b5f80fd5b610068600480360381019061006391906107ec565b6100ff565b60405161007a96959493929190610896565b60405180910390f35b61009d600480360381019061009891906107ec565b6101bc565b6040516100aa9190610b66565b60405180910390f35b6100cd60048036038101906100c891906107ec565b610393565b6040516100da9190610bf2565b60405180910390f35b6100fd60048036038101906100f89190610d3e565b610492565b005b5f602052805f5260405f205f91509050805f01805461011d90610e10565b80601f016020809104026020016040519081016040528092919081815260200182805461014990610e10565b80156101945780601f1061016b57610100808354040283529160200191610194565b820191905f5260205f20905b81548152906001019060200180831161017757829003601f168201915b5050505050908060010154908060020154908060030154908060040154908060050154905086565b6101c4610770565b5f808381526020019081526020015f206040518060e00160405290815f820180546101ee90610e10565b80601f016020809104026020016040519081016040528092919081815260200182805461021a90610e10565b80156102655780601f1061023c57610100808354040283529160200191610265565b820191905f5260205f20905b81548152906001019060200180831161024857829003601f168201915b50505050508152602001600182015481526020016002820154815260200160038201548152602001600482015481526020016005820154815260200160068201805480602002602001604051908101604052809291908181526020015f905b82821015610384578382905f5260205f2090600702016040518060e00160405290815f82015481526020016001820154815260200160028201548152602001600382015481526020016004820154815260200160058201548152602001600682015f9054906101000a900473ffffffffffffffffffffffffffffffffffffffff1673ffffffffffffffffffffffffffffffffffffffff1673ffffffffffffffffffffffffffffffffffffffff1681525050815260200190600101906102c4565b50505050815250509050919050565b60605f808381526020019081526020015f20600601805480602002602001604051908101604052809291908181526020015f905b82821015610487578382905f5260205f2090600702016040518060e00160405290815f82015481526020016001820154815260200160028201548152602001600382015481526020016004820154815260200160058201548152602001600682015f9054906101000a900473ffffffffffffffffffffffffffffffffffffffff1673ffffffffffffffffffffffffffffffffffffffff1673ffffffffffffffffffffffffffffffffffffffff1681525050815260200190600101906103c7565b505050509050919050565b606484111580156104a4575060648311155b80156104b1575060648211155b80156104be575060648111155b6104fd576040517f08c379a00000000000000000000000000000000000000000000000000000000081526004016104f490610e8a565b60405180910390fd5b5f8183858761050c9190610ed5565b6105169190610ed5565b6105209190610ed5565b90505f6101906064836105339190610f08565b61053d9190610f76565b90505f805f8a81526020019081526020015f205f01805461055d90610e10565b905011156106ce575f6040518060e001604052805f808c81526020019081526020015f206001015481526020015f808c81526020019081526020015f206002015481526020015f808c81526020019081526020015f206003015481526020015f808c81526020019081526020015f206005015481526020015f808c81526020019081526020015f206004015481526020014281526020013273ffffffffffffffffffffffffffffffffffffffff1681525090505f808a81526020019081526020015f2060060181908060018154018082558091505060019003905f5260205f2090600702015f909190919091505f820151815f01556020820151816001015560408201518160020155606082015181600301556080820151816004015560a0820151816005015560c0820151816006015f6101000a81548173ffffffffffffffffffffffffffffffffffffffff021916908373ffffffffffffffffffffffffffffffffffffffff1602179055505050505b865f808a81526020019081526020015f205f0190816106ed9190611143565b50855f808a81526020019081526020015f2060010181905550845f808a81526020019081526020015f2060020181905550835f808a81526020019081526020015f2060030181905550825f808a81526020019081526020015f2060050181905550805f808a81526020019081526020015f20600401819055505050505050505050565b6040518060e00160405280606081526020015f81526020015f81526020015f81526020015f81526020015f8152602001606081525090565b5f604051905090565b5f80fd5b5f80fd5b5f819050919050565b6107cb816107b9565b81146107d5575f80fd5b50565b5f813590506107e6816107c2565b92915050565b5f60208284031215610801576108006107b1565b5b5f61080e848285016107d8565b91505092915050565b5f81519050919050565b5f82825260208201905092915050565b8281835e5f83830152505050565b5f601f19601f8301169050919050565b5f61085982610817565b6108638185610821565b9350610873818560208601610831565b61087c8161083f565b840191505092915050565b610890816107b9565b82525050565b5f60c0820190508181035f8301526108ae818961084f565b90506108bd6020830188610887565b6108ca6040830187610887565b6108d76060830186610887565b6108e46080830185610887565b6108f160a0830184610887565b979650505050505050565b5f82825260208201905092915050565b5f61091682610817565b61092081856108fc565b9350610930818560208601610831565b6109398161083f565b840191505092915050565b61094d816107b9565b82525050565b5f81519050919050565b5f82825260208201905092915050565b5f819050602082019050919050565b5f73ffffffffffffffffffffffffffffffffffffffff82169050919050565b5f6109a58261097c565b9050919050565b6109b58161099b565b82525050565b60e082015f8201516109cf5f850182610944565b5060208201516109e26020850182610944565b5060408201516109f56040850182610944565b506060820151610a086060850182610944565b506080820151610a1b6080850182610944565b5060a0820151610a2e60a0850182610944565b5060c0820151610a4160c08501826109ac565b50505050565b5f610a5283836109bb565b60e08301905092915050565b5f602082019050919050565b5f610a7482610953565b610a7e818561095d565b9350610a898361096d565b805f5b83811015610ab9578151610aa08882610a47565b9750610aab83610a5e565b925050600181019050610a8c565b5085935050505092915050565b5f60e083015f8301518482035f860152610ae0828261090c565b9150506020830151610af56020860182610944565b506040830151610b086040860182610944565b506060830151610b1b6060860182610944565b506080830151610b2e6080860182610944565b5060a0830151610b4160a0860182610944565b5060c083015184820360c0860152610b598282610a6a565b9150508091505092915050565b5f6020820190508181035f830152610b7e8184610ac6565b905092915050565b5f82825260208201905092915050565b5f610ba082610953565b610baa8185610b86565b9350610bb58361096d565b805f5b83811015610be5578151610bcc8882610a47565b9750610bd783610a5e565b925050600181019050610bb8565b5085935050505092915050565b5f6020820190508181035f830152610c0a8184610b96565b905092915050565b5f80fd5b5f80fd5b7f4e487b71000000000000000000000000000000000000000000000000000000005f52604160045260245ffd5b610c508261083f565b810181811067ffffffffffffffff82111715610c6f57610c6e610c1a565b5b80604052505050565b5f610c816107a8565b9050610c8d8282610c47565b919050565b5f67ffffffffffffffff821115610cac57610cab610c1a565b5b610cb58261083f565b9050602081019050919050565b828183375f83830152505050565b5f610ce2610cdd84610c92565b610c78565b905082815260208101848484011115610cfe57610cfd610c16565b5b610d09848285610cc2565b509392505050565b5f82601f830112610d2557610d24610c12565b5b8135610d35848260208601610cd0565b91505092915050565b5f805f805f8060c08789031215610d5857610d576107b1565b5b5f610d6589828a016107d8565b965050602087013567ffffffffffffffff811115610d8657610d856107b5565b5b610d9289828a01610d11565b9550506040610da389828a016107d8565b9450506060610db489828a016107d8565b9350506080610dc589828a016107d8565b92505060a0610dd689828a016107d8565b9150509295509295509295565b7f4e487b71000000000000000000000000000000000000000000000000000000005f52602260045260245ffd5b5f6002820490506001821680610e2757607f821691505b602082108103610e3a57610e39610de3565b5b50919050565b7f4d61726b73206d757374206265203c3d203130300000000000000000000000005f82015250565b5f610e74601483610821565b9150610e7f82610e40565b602082019050919050565b5f6020820190508181035f830152610ea181610e68565b9050919050565b7f4e487b71000000000000000000000000000000000000000000000000000000005f52601160045260245ffd5b5f610edf826107b9565b9150610eea836107b9565b9250828201905080821115610f0257610f01610ea8565b5b92915050565b5f610f12826107b9565b9150610f1d836107b9565b9250828202610f2b816107b9565b91508282048414831517610f4257610f41610ea8565b5b5092915050565b7f4e487b71000000000000000000000000000000000000000000000000000000005f52601260045260245ffd5b5f610f80826107b9565b9150610f8b836107b9565b925082610f9b57610f9a610f49565b5b828204905092915050565b5f819050815f5260205f209050919050565b5f6020601f8301049050919050565b5f82821b905092915050565b5f600883026110027fffffffffffffffffffffffffffffffffffffffffffffffffffffffffffffffff82610fc7565b61100c8683610fc7565b95508019841693508086168417925050509392505050565b5f819050919050565b5f61104761104261103d846107b9565b611024565b6107b9565b9050919050565b5f819050919050565b6110608361102d565b61107461106c8261104e565b848454610fd3565b825550505050565b5f90565b61108861107c565b611093818484611057565b505050565b5b818110156110b6576110ab5f82611080565b600181019050611099565b5050565b601f8211156110fb576110cc81610fa6565b6110d584610fb8565b810160208510156110e4578190505b6110f86110f085610fb8565b830182611098565b50505b505050565b5f82821c905092915050565b5f61111b5f1984600802611100565b1980831691505092915050565b5f611133838361110c565b9150826002028217905092915050565b61114c82610817565b67ffffffffffffffff81111561116557611164610c1a565b5b61116f8254610e10565b61117a8282856110ba565b5f60209050601f8311600181146111ab575f8415611199578287015190505b6111a38582611128565b86555061120a565b601f1984166111b986610fa6565b5f5b828110156111e0578489015182556001820191506020850194506020810190506111bb565b868310156111fd57848901516111f9601f89168261110c565b8355505b6001600288020188555050505b50505050505056fea26469706673582212206d151a55da875077b8cc3cd7e7946d4e42471d438979ef9fdd0fe7609b2a5fdd64736f6c634300081a0033",
			"opcodes": "PUSH1 0x80 PUSH1 0x40 MSTORE CALLVALUE DUP1 ISZERO PUSH1 0xE JUMPI PUSH0 DUP1 REVERT JUMPDEST POP PUSH2 0x1248 DUP1 PUSH2 0x1C PUSH0 CODECOPY PUSH0 RETURN INVALID PUSH1 0x80 PUSH1 0x40 MSTORE CALLVALUE DUP1 ISZERO PUSH2 0xF JUMPI PUSH0 DUP1 REVERT JUMPDEST POP PUSH1 0x4 CALLDATASIZE LT PUSH2 0x4A JUMPI PUSH0 CALLDATALOAD PUSH1 0xE0 SHR DUP1 PUSH4 0x6EAD22E EQ PUSH2 0x4E JUMPI DUP1 PUSH4 0x642F9163 EQ PUSH2 0x83 JUMPI DUP1 PUSH4 0x6C6A50FF EQ PUSH2 0xB3 JUMPI DUP1 PUSH4 0xE7A41E30 EQ PUSH2 0xE3 JUMPI JUMPDEST PUSH0 DUP1 REVERT JUMPDEST PUSH2 0x68 PUSH1 0x4 DUP1 CALLDATASIZE SUB DUP2 ADD SWAP1 PUSH2 0x63 SWAP2 SWAP1 PUSH2 0x7EC JUMP JUMPDEST PUSH2 0xFF JUMP JUMPDEST PUSH1 0x40 MLOAD PUSH2 0x7A SWAP7 SWAP6 SWAP5 SWAP4 SWAP3 SWAP2 SWAP1 PUSH2 0x896 JUMP JUMPDEST PUSH1 0x40 MLOAD DUP1 SWAP2 SUB SWAP1 RETURN JUMPDEST PUSH2 0x9D PUSH1 0x4 DUP1 CALLDATASIZE SUB DUP2 ADD SWAP1 PUSH2 0x98 SWAP2 SWAP1 PUSH2 0x7EC JUMP JUMPDEST PUSH2 0x1BC JUMP JUMPDEST PUSH1 0x40 MLOAD PUSH2 0xAA SWAP2 SWAP1 PUSH2 0xB66 JUMP JUMPDEST PUSH1 0x40 MLOAD DUP1 SWAP2 SUB SWAP1 RETURN JUMPDEST PUSH2 0xCD PUSH1 0x4 DUP1 CALLDATASIZE SUB DUP2 ADD SWAP1 PUSH2 0xC8 SWAP2 SWAP1 PUSH2 0x7EC JUMP JUMPDEST PUSH2 0x393 JUMP JUMPDEST PUSH1 0x40 MLOAD PUSH2 0xDA SWAP2 SWAP1 PUSH2 0xBF2 JUMP JUMPDEST PUSH1 0x40 MLOAD DUP1 SWAP2 SUB SWAP1 RETURN JUMPDEST PUSH2 0xFD PUSH1 0x4 DUP1 CALLDATASIZE SUB DUP2 ADD SWAP1 PUSH2 0xF8 SWAP2 SWAP1 PUSH2 0xD3E JUMP JUMPDEST PUSH2 0x492 JUMP JUMPDEST STOP JUMPDEST PUSH0 PUSH1 0x20 MSTORE DUP1 PUSH0 MSTORE PUSH1 0x40 PUSH0 KECCAK256 PUSH0 SWAP2 POP SWAP1 POP DUP1 PUSH0 ADD DUP1 SLOAD PUSH2 0x11D SWAP1 PUSH2 0xE10 JUMP JUMPDEST DUP1 PUSH1 0x1F ADD PUSH1 0x20 DUP1 SWAP2 DIV MUL PUSH1 0x20 ADD PUSH1 0x40 MLOAD SWAP1 DUP2 ADD PUSH1 0x40 MSTORE DUP1 SWAP3 SWAP2 SWAP1 DUP2 DUP2 MSTORE PUSH1 0x20 ADD DUP3 DUP1 SLOAD PUSH2 0x149 SWAP1 PUSH2 0xE10 JUMP JUMPDEST DUP1 ISZERO PUSH2 0x194 JUMPI DUP1 PUSH1 0x1F LT PUSH2 0x16B JUMPI PUSH2 0x100 DUP1 DUP4 SLOAD DIV MUL DUP4 MSTORE SWAP2 PUSH1 0x20 ADD SWAP2 PUSH2 0x194 JUMP JUMPDEST DUP3 ADD SWAP2 SWAP1 PUSH0 MSTORE PUSH1 0x20 PUSH0 KECCAK256 SWAP1 JUMPDEST DUP2 SLOAD DUP2 MSTORE SWAP1 PUSH1 0x1 ADD SWAP1 PUSH1 0x20 ADD DUP1 DUP4 GT PUSH2 0x177 JUMPI DUP3 SWAP1 SUB PUSH1 0x1F AND DUP3 ADD SWAP2 JUMPDEST POP POP POP POP POP SWAP1 DUP1 PUSH1 0x1 ADD SLOAD SWAP1 DUP1 PUSH1 0x2 ADD SLOAD SWAP1 DUP1 PUSH1 0x3 ADD SLOAD SWAP1 DUP1 PUSH1 0x4 ADD SLOAD SWAP1 DUP1 PUSH1 0x5 ADD SLOAD SWAP1 POP DUP7 JUMP JUMPDEST PUSH2 0x1C4 PUSH2 0x770 JUMP JUMPDEST PUSH0 DUP1 DUP4 DUP2 MSTORE PUSH1 0x20 ADD SWAP1 DUP2 MSTORE PUSH1 0x20 ADD PUSH0 KECCAK256 PUSH1 0x40 MLOAD DUP1 PUSH1 0xE0 ADD PUSH1 0x40 MSTORE SWAP1 DUP2 PUSH0 DUP3 ADD DUP1 SLOAD PUSH2 0x1EE SWAP1 PUSH2 0xE10 JUMP JUMPDEST DUP1 PUSH1 0x1F ADD PUSH1 0x20 DUP1 SWAP2 DIV MUL PUSH1 0x20 ADD PUSH1 0x40 MLOAD SWAP1 DUP2 ADD PUSH1 0x40 MSTORE DUP1 SWAP3 SWAP2 SWAP1 DUP2 DUP2 MSTORE PUSH1 0x20 ADD DUP3 DUP1 SLOAD PUSH2 0x21A SWAP1 PUSH2 0xE10 JUMP JUMPDEST DUP1 ISZERO PUSH2 0x265 JUMPI DUP1 PUSH1 0x1F LT PUSH2 0x23C JUMPI PUSH2 0x100 DUP1 DUP4 SLOAD DIV MUL DUP4 MSTORE SWAP2 PUSH1 0x20 ADD SWAP2 PUSH2 0x265 JUMP JUMPDEST DUP3 ADD SWAP2 SWAP1 PUSH0 MSTORE PUSH1 0x20 PUSH0 KECCAK256 SWAP1 JUMPDEST DUP2 SLOAD DUP2 MSTORE SWAP1 PUSH1 0x1 ADD SWAP1 PUSH1 0x20 ADD DUP1 DUP4 GT PUSH2 0x248 JUMPI DUP3 SWAP1 SUB PUSH1 0x1F AND DUP3 ADD SWAP2 JUMPDEST POP POP POP POP POP DUP2 MSTORE PUSH1 0x20 ADD PUSH1 0x1 DUP3 ADD SLOAD DUP2 MSTORE PUSH1 0x20 ADD PUSH1 0x2 DUP3 ADD SLOAD DUP2 MSTORE PUSH1 0x20 ADD PUSH1 0x3 DUP3 ADD SLOAD DUP2 MSTORE PUSH1 0x20 ADD PUSH1 0x4 DUP3 ADD SLOAD DUP2 MSTORE PUSH1 0x20 ADD PUSH1 0x5 DUP3 ADD SLOAD DUP2 MSTORE PUSH1 0x20 ADD PUSH1 0x6 DUP3 ADD DUP1 SLOAD DUP1 PUSH1 0x20 MUL PUSH1 0x20 ADD PUSH1 0x40 MLOAD SWAP1 DUP2 ADD PUSH1 0x40 MSTORE DUP1 SWAP3 SWAP2 SWAP1 DUP2 DUP2 MSTORE PUSH1 0x20 ADD PUSH0 SWAP1 JUMPDEST DUP3 DUP3 LT ISZERO PUSH2 0x384 JUMPI DUP4 DUP3 SWAP1 PUSH0 MSTORE PUSH1 0x20 PUSH0 KECCAK256 SWAP1 PUSH1 0x7 MUL ADD PUSH1 0x40 MLOAD DUP1 PUSH1 0xE0 ADD PUSH1 0x40 MSTORE SWAP1 DUP2 PUSH0 DUP3 ADD SLOAD DUP2 MSTORE PUSH1 0x20 ADD PUSH1 0x1 DUP3 ADD SLOAD DUP2 MSTORE PUSH1 0x20 ADD PUSH1 0x2 DUP3 ADD SLOAD DUP2 MSTORE PUSH1 0x20 ADD PUSH1 0x3 DUP3 ADD SLOAD DUP2 MSTORE PUSH1 0x20 ADD PUSH1 0x4 DUP3 ADD SLOAD DUP2 MSTORE PUSH1 0x20 ADD PUSH1 0x5 DUP3 ADD SLOAD DUP2 MSTORE PUSH1 0x20 ADD PUSH1 0x6 DUP3 ADD PUSH0 SWAP1 SLOAD SWAP1 PUSH2 0x100 EXP SWAP1 DIV PUSH20 0xFFFFFFFFFFFFFFFFFFFFFFFFFFFFFFFFFFFFFFFF AND PUSH20 0xFFFFFFFFFFFFFFFFFFFFFFFFFFFFFFFFFFFFFFFF AND PUSH20 0xFFFFFFFFFFFFFFFFFFFFFFFFFFFFFFFFFFFFFFFF AND DUP2 MSTORE POP POP DUP2 MSTORE PUSH1 0x20 ADD SWAP1 PUSH1 0x1 ADD SWAP1 PUSH2 0x2C4 JUMP JUMPDEST POP POP POP POP DUP2 MSTORE POP POP SWAP1 POP SWAP2 SWAP1 POP JUMP JUMPDEST PUSH1 0x60 PUSH0 DUP1 DUP4 DUP2 MSTORE PUSH1 0x20 ADD SWAP1 DUP2 MSTORE PUSH1 0x20 ADD PUSH0 KECCAK256 PUSH1 0x6 ADD DUP1 SLOAD DUP1 PUSH1 0x20 MUL PUSH1 0x20 ADD PUSH1 0x40 MLOAD SWAP1 DUP2 ADD PUSH1 0x40 MSTORE DUP1 SWAP3 SWAP2 SWAP1 DUP2 DUP2 MSTORE PUSH1 0x20 ADD PUSH0 SWAP1 JUMPDEST DUP3 DUP3 LT ISZERO PUSH2 0x487 JUMPI DUP4 DUP3 SWAP1 PUSH0 MSTORE PUSH1 0x20 PUSH0 KECCAK256 SWAP1 PUSH1 0x7 MUL ADD PUSH1 0x40 MLOAD DUP1 PUSH1 0xE0 ADD PUSH1 0x40 MSTORE SWAP1 DUP2 PUSH0 DUP3 ADD SLOAD DUP2 MSTORE PUSH1 0x20 ADD PUSH1 0x1 DUP3 ADD SLOAD DUP2 MSTORE PUSH1 0x20 ADD PUSH1 0x2 DUP3 ADD SLOAD DUP2 MSTORE PUSH1 0x20 ADD PUSH1 0x3 DUP3 ADD SLOAD DUP2 MSTORE PUSH1 0x20 ADD PUSH1 0x4 DUP3 ADD SLOAD DUP2 MSTORE PUSH1 0x20 ADD PUSH1 0x5 DUP3 ADD SLOAD DUP2 MSTORE PUSH1 0x20 ADD PUSH1 0x6 DUP3 ADD PUSH0 SWAP1 SLOAD SWAP1 PUSH2 0x100 EXP SWAP1 DIV PUSH20 0xFFFFFFFFFFFFFFFFFFFFFFFFFFFFFFFFFFFFFFFF AND PUSH20 0xFFFFFFFFFFFFFFFFFFFFFFFFFFFFFFFFFFFFFFFF AND PUSH20 0xFFFFFFFFFFFFFFFFFFFFFFFFFFFFFFFFFFFFFFFF AND DUP2 MSTORE POP POP DUP2 MSTORE PUSH1 0x20 ADD SWAP1 PUSH1 0x1 ADD SWAP1 PUSH2 0x3C7 JUMP JUMPDEST POP POP POP POP SWAP1 POP SWAP2 SWAP1 POP JUMP JUMPDEST PUSH1 0x64 DUP5 GT ISZERO DUP1 ISZERO PUSH2 0x4A4 JUMPI POP PUSH1 0x64 DUP4 GT ISZERO JUMPDEST DUP1 ISZERO PUSH2 0x4B1 JUMPI POP PUSH1 0x64 DUP3 GT ISZERO JUMPDEST DUP1 ISZERO PUSH2 0x4BE JUMPI POP PUSH1 0x64 DUP2 GT ISZERO JUMPDEST PUSH2 0x4FD JUMPI PUSH1 0x40 MLOAD PUSH32 0x8C379A000000000000000000000000000000000000000000000000000000000 DUP2 MSTORE PUSH1 0x4 ADD PUSH2 0x4F4 SWAP1 PUSH2 0xE8A JUMP JUMPDEST PUSH1 0x40 MLOAD DUP1 SWAP2 SUB SWAP1 REVERT JUMPDEST PUSH0 DUP2 DUP4 DUP6 DUP8 PUSH2 0x50C SWAP2 SWAP1 PUSH2 0xED5 JUMP JUMPDEST PUSH2 0x516 SWAP2 SWAP1 PUSH2 0xED5 JUMP JUMPDEST PUSH2 0x520 SWAP2 SWAP1 PUSH2 0xED5 JUMP JUMPDEST SWAP1 POP PUSH0 PUSH2 0x190 PUSH1 0x64 DUP4 PUSH2 0x533 SWAP2 SWAP1 PUSH2 0xF08 JUMP JUMPDEST PUSH2 0x53D SWAP2 SWAP1 PUSH2 0xF76 JUMP JUMPDEST SWAP1 POP PUSH0 DUP1 PUSH0 DUP11 DUP2 MSTORE PUSH1 0x20 ADD SWAP1 DUP2 MSTORE PUSH1 0x20 ADD PUSH0 KECCAK256 PUSH0 ADD DUP1 SLOAD PUSH2 0x55D SWAP1 PUSH2 0xE10 JUMP JUMPDEST SWAP1 POP GT ISZERO PUSH2 0x6CE JUMPI PUSH0 PUSH1 0x40 MLOAD DUP1 PUSH1 0xE0 ADD PUSH1 0x40 MSTORE DUP1 PUSH0 DUP1 DUP13 DUP2 MSTORE PUSH1 0x20 ADD SWAP1 DUP2 MSTORE PUSH1 0x20 ADD PUSH0 KECCAK256 PUSH1 0x1 ADD SLOAD DUP2 MSTORE PUSH1 0x20 ADD PUSH0 DUP1 DUP13 DUP2 MSTORE PUSH1 0x20 ADD SWAP1 DUP2 MSTORE PUSH1 0x20 ADD PUSH0 KECCAK256 PUSH1 0x2 ADD SLOAD DUP2 MSTORE PUSH1 0x20 ADD PUSH0 DUP1 DUP13 DUP2 MSTORE PUSH1 0x20 ADD SWAP1 DUP2 MSTORE PUSH1 0x20 ADD PUSH0 KECCAK256 PUSH1 0x3 ADD SLOAD DUP2 MSTORE PUSH1 0x20 ADD PUSH0 DUP1 DUP13 DUP2 MSTORE PUSH1 0x20 ADD SWAP1 DUP2 MSTORE PUSH1 0x20 ADD PUSH0 KECCAK256 PUSH1 0x5 ADD SLOAD DUP2 MSTORE PUSH1 0x20 ADD PUSH0 DUP1 DUP13 DUP2 MSTORE PUSH1 0x20 ADD SWAP1 DUP2 MSTORE PUSH1 0x20 ADD PUSH0 KECCAK256 PUSH1 0x4 ADD SLOAD DUP2 MSTORE PUSH1 0x20 ADD TIMESTAMP DUP2 MSTORE PUSH1 0x20 ADD ORIGIN PUSH20 0xFFFFFFFFFFFFFFFFFFFFFFFFFFFFFFFFFFFFFFFF AND DUP2 MSTORE POP SWAP1 POP PUSH0 DUP1 DUP11 DUP2 MSTORE PUSH1 0x20 ADD SWAP1 DUP2 MSTORE PUSH1 0x20 ADD PUSH0 KECCAK256 PUSH1 0x6 ADD DUP2 SWAP1 DUP1 PUSH1 0x1 DUP2 SLOAD ADD DUP1 DUP3 SSTORE DUP1 SWAP2 POP POP PUSH1 0x1 SWAP1 SUB SWAP1 PUSH0 MSTORE PUSH1 0x20 PUSH0 KECCAK256 SWAP1 PUSH1 0x7 MUL ADD PUSH0 SWAP1 SWAP2 SWAP1 SWAP2 SWAP1 SWAP2 POP PUSH0 DUP3 ADD MLOAD DUP2 PUSH0 ADD SSTORE PUSH1 0x20 DUP3 ADD MLOAD DUP2 PUSH1 0x1 ADD SSTORE PUSH1 0x40 DUP3 ADD MLOAD DUP2 PUSH1 0x2 ADD SSTORE PUSH1 0x60 DUP3 ADD MLOAD DUP2 PUSH1 0x3 ADD SSTORE PUSH1 0x80 DUP3 ADD MLOAD DUP2 PUSH1 0x4 ADD SSTORE PUSH1 0xA0 DUP3 ADD MLOAD DUP2 PUSH1 0x5 ADD SSTORE PUSH1 0xC0 DUP3 ADD MLOAD DUP2 PUSH1 0x6 ADD PUSH0 PUSH2 0x100 EXP DUP2 SLOAD DUP2 PUSH20 0xFFFFFFFFFFFFFFFFFFFFFFFFFFFFFFFFFFFFFFFF MUL NOT AND SWAP1 DUP4 PUSH20 0xFFFFFFFFFFFFFFFFFFFFFFFFFFFFFFFFFFFFFFFF AND MUL OR SWAP1 SSTORE POP POP POP POP JUMPDEST DUP7 PUSH0 DUP1 DUP11 DUP2 MSTORE PUSH1 0x20 ADD SWAP1 DUP2 MSTORE PUSH1 0x20 ADD PUSH0 KECCAK256 PUSH0 ADD SWAP1 DUP2 PUSH2 0x6ED SWAP2 SWAP1 PUSH2 0x1143 JUMP JUMPDEST POP DUP6 PUSH0 DUP1 DUP11 DUP2 MSTORE PUSH1 0x20 ADD SWAP1 DUP2 MSTORE PUSH1 0x20 ADD PUSH0 KECCAK256 PUSH1 0x1 ADD DUP2 SWAP1 SSTORE POP DUP5 PUSH0 DUP1 DUP11 DUP2 MSTORE PUSH1 0x20 ADD SWAP1 DUP2 MSTORE PUSH1 0x20 ADD PUSH0 KECCAK256 PUSH1 0x2 ADD DUP2 SWAP1 SSTORE POP DUP4 PUSH0 DUP1 DUP11 DUP2 MSTORE PUSH1 0x20 ADD SWAP1 DUP2 MSTORE PUSH1 0x20 ADD PUSH0 KECCAK256 PUSH1 0x3 ADD DUP2 SWAP1 SSTORE POP DUP3 PUSH0 DUP1 DUP11 DUP2 MSTORE PUSH1 0x20 ADD SWAP1 DUP2 MSTORE PUSH1 0x20 ADD PUSH0 KECCAK256 PUSH1 0x5 ADD DUP2 SWAP1 SSTORE POP DUP1 PUSH0 DUP1 DUP11 DUP2 MSTORE PUSH1 0x20 ADD SWAP1 DUP2 MSTORE PUSH1 0x20 ADD PUSH0 KECCAK256 PUSH1 0x4 ADD DUP2 SWAP1 SSTORE POP POP POP POP POP POP POP POP POP JUMP JUMPDEST PUSH1 0x40 MLOAD DUP1 PUSH1 0xE0 ADD PUSH1 0x40 MSTORE DUP1 PUSH1 0x60 DUP2 MSTORE PUSH1 0x20 ADD PUSH0 DUP2 MSTORE PUSH1 0x20 ADD PUSH0 DUP2 MSTORE PUSH1 0x20 ADD PUSH0 DUP2 MSTORE PUSH1 0x20 ADD PUSH0 DUP2 MSTORE PUSH1 0x20 ADD PUSH0 DUP2 MSTORE PUSH1 0x20 ADD PUSH1 0x60 DUP2 MSTORE POP SWAP1 JUMP JUMPDEST PUSH0 PUSH1 0x40 MLOAD SWAP1 POP SWAP1 JUMP JUMPDEST PUSH0 DUP1 REVERT JUMPDEST PUSH0 DUP1 REVERT JUMPDEST PUSH0 DUP2 SWAP1 POP SWAP2 SWAP1 POP JUMP JUMPDEST PUSH2 0x7CB DUP2 PUSH2 0x7B9 JUMP JUMPDEST DUP2 EQ PUSH2 0x7D5 JUMPI PUSH0 DUP1 REVERT JUMPDEST POP JUMP JUMPDEST PUSH0 DUP2 CALLDATALOAD SWAP1 POP PUSH2 0x7E6 DUP2 PUSH2 0x7C2 JUMP JUMPDEST SWAP3 SWAP2 POP POP JUMP JUMPDEST PUSH0 PUSH1 0x20 DUP3 DUP5 SUB SLT ISZERO PUSH2 0x801 JUMPI PUSH2 0x800 PUSH2 0x7B1 JUMP JUMPDEST JUMPDEST PUSH0 PUSH2 0x80E DUP5 DUP3 DUP6 ADD PUSH2 0x7D8 JUMP JUMPDEST SWAP2 POP POP SWAP3 SWAP2 POP POP JUMP JUMPDEST PUSH0 DUP2 MLOAD SWAP1 POP SWAP2 SWAP1 POP JUMP JUMPDEST PUSH0 DUP3 DUP3 MSTORE PUSH1 0x20 DUP3 ADD SWAP1 POP SWAP3 SWAP2 POP POP JUMP JUMPDEST DUP3 DUP2 DUP4 MCOPY PUSH0 DUP4 DUP4 ADD MSTORE POP POP POP JUMP JUMPDEST PUSH0 PUSH1 0x1F NOT PUSH1 0x1F DUP4 ADD AND SWAP1 POP SWAP2 SWAP1 POP JUMP JUMPDEST PUSH0 PUSH2 0x859 DUP3 PUSH2 0x817 JUMP JUMPDEST PUSH2 0x863 DUP2 DUP6 PUSH2 0x821 JUMP JUMPDEST SWAP4 POP PUSH2 0x873 DUP2 DUP6 PUSH1 0x20 DUP7 ADD PUSH2 0x831 JUMP JUMPDEST PUSH2 0x87C DUP2 PUSH2 0x83F JUMP JUMPDEST DUP5 ADD SWAP2 POP POP SWAP3 SWAP2 POP POP JUMP JUMPDEST PUSH2 0x890 DUP2 PUSH2 0x7B9 JUMP JUMPDEST DUP3 MSTORE POP POP JUMP JUMPDEST PUSH0 PUSH1 0xC0 DUP3 ADD SWAP1 POP DUP2 DUP2 SUB PUSH0 DUP4 ADD MSTORE PUSH2 0x8AE DUP2 DUP10 PUSH2 0x84F JUMP JUMPDEST SWAP1 POP PUSH2 0x8BD PUSH1 0x20 DUP4 ADD DUP9 PUSH2 0x887 JUMP JUMPDEST PUSH2 0x8CA PUSH1 0x40 DUP4 ADD DUP8 PUSH2 0x887 JUMP JUMPDEST PUSH2 0x8D7 PUSH1 0x60 DUP4 ADD DUP7 PUSH2 0x887 JUMP JUMPDEST PUSH2 0x8E4 PUSH1 0x80 DUP4 ADD DUP6 PUSH2 0x887 JUMP JUMPDEST PUSH2 0x8F1 PUSH1 0xA0 DUP4 ADD DUP5 PUSH2 0x887 JUMP JUMPDEST SWAP8 SWAP7 POP POP POP POP POP POP POP JUMP JUMPDEST PUSH0 DUP3 DUP3 MSTORE PUSH1 0x20 DUP3 ADD SWAP1 POP SWAP3 SWAP2 POP POP JUMP JUMPDEST PUSH0 PUSH2 0x916 DUP3 PUSH2 0x817 JUMP JUMPDEST PUSH2 0x920 DUP2 DUP6 PUSH2 0x8FC JUMP JUMPDEST SWAP4 POP PUSH2 0x930 DUP2 DUP6 PUSH1 0x20 DUP7 ADD PUSH2 0x831 JUMP JUMPDEST PUSH2 0x939 DUP2 PUSH2 0x83F JUMP JUMPDEST DUP5 ADD SWAP2 POP POP SWAP3 SWAP2 POP POP JUMP JUMPDEST PUSH2 0x94D DUP2 PUSH2 0x7B9 JUMP JUMPDEST DUP3 MSTORE POP POP JUMP JUMPDEST PUSH0 DUP2 MLOAD SWAP1 POP SWAP2 SWAP1 POP JUMP JUMPDEST PUSH0 DUP3 DUP3 MSTORE PUSH1 0x20 DUP3 ADD SWAP1 POP SWAP3 SWAP2 POP POP JUMP JUMPDEST PUSH0 DUP2 SWAP1 POP PUSH1 0x20 DUP3 ADD SWAP1 POP SWAP2 SWAP1 POP JUMP JUMPDEST PUSH0 PUSH20 0xFFFFFFFFFFFFFFFFFFFFFFFFFFFFFFFFFFFFFFFF DUP3 AND SWAP1 POP SWAP2 SWAP1 POP JUMP JUMPDEST PUSH0 PUSH2 0x9A5 DUP3 PUSH2 0x97C JUMP JUMPDEST SWAP1 POP SWAP2 SWAP1 POP JUMP JUMPDEST PUSH2 0x9B5 DUP2 PUSH2 0x99B JUMP JUMPDEST DUP3 MSTORE POP POP JUMP JUMPDEST PUSH1 0xE0 DUP3 ADD PUSH0 DUP3 ADD MLOAD PUSH2 0x9CF PUSH0 DUP6 ADD DUP3 PUSH2 0x944 JUMP JUMPDEST POP PUSH1 0x20 DUP3 ADD MLOAD PUSH2 0x9E2 PUSH1 0x20 DUP6 ADD DUP3 PUSH2 0x944 JUMP JUMPDEST POP PUSH1 0x40 DUP3 ADD MLOAD PUSH2 0x9F5 PUSH1 0x40 DUP6 ADD DUP3 PUSH2 0x944 JUMP JUMPDEST POP PUSH1 0x60 DUP3 ADD MLOAD PUSH2 0xA08 PUSH1 0x60 DUP6 ADD DUP3 PUSH2 0x944 JUMP JUMPDEST POP PUSH1 0x80 DUP3 ADD MLOAD PUSH2 0xA1B PUSH1 0x80 DUP6 ADD DUP3 PUSH2 0x944 JUMP JUMPDEST POP PUSH1 0xA0 DUP3 ADD MLOAD PUSH2 0xA2E PUSH1 0xA0 DUP6 ADD DUP3 PUSH2 0x944 JUMP JUMPDEST POP PUSH1 0xC0 DUP3 ADD MLOAD PUSH2 0xA41 PUSH1 0xC0 DUP6 ADD DUP3 PUSH2 0x9AC JUMP JUMPDEST POP POP POP POP JUMP JUMPDEST PUSH0 PUSH2 0xA52 DUP4 DUP4 PUSH2 0x9BB JUMP JUMPDEST PUSH1 0xE0 DUP4 ADD SWAP1 POP SWAP3 SWAP2 POP POP JUMP JUMPDEST PUSH0 PUSH1 0x20 DUP3 ADD SWAP1 POP SWAP2 SWAP1 POP JUMP JUMPDEST PUSH0 PUSH2 0xA74 DUP3 PUSH2 0x953 JUMP JUMPDEST PUSH2 0xA7E DUP2 DUP6 PUSH2 0x95D JUMP JUMPDEST SWAP4 POP PUSH2 0xA89 DUP4 PUSH2 0x96D JUMP JUMPDEST DUP1 PUSH0 JUMPDEST DUP4 DUP2 LT ISZERO PUSH2 0xAB9 JUMPI DUP2 MLOAD PUSH2 0xAA0 DUP9 DUP3 PUSH2 0xA47 JUMP JUMPDEST SWAP8 POP PUSH2 0xAAB DUP4 PUSH2 0xA5E JUMP JUMPDEST SWAP3 POP POP PUSH1 0x1 DUP2 ADD SWAP1 POP PUSH2 0xA8C JUMP JUMPDEST POP DUP6 SWAP4 POP POP POP POP SWAP3 SWAP2 POP POP JUMP JUMPDEST PUSH0 PUSH1 0xE0 DUP4 ADD PUSH0 DUP4 ADD MLOAD DUP5 DUP3 SUB PUSH0 DUP7 ADD MSTORE PUSH2 0xAE0 DUP3 DUP3 PUSH2 0x90C JUMP JUMPDEST SWAP2 POP POP PUSH1 0x20 DUP4 ADD MLOAD PUSH2 0xAF5 PUSH1 0x20 DUP7 ADD DUP3 PUSH2 0x944 JUMP JUMPDEST POP PUSH1 0x40 DUP4 ADD MLOAD PUSH2 0xB08 PUSH1 0x40 DUP7 ADD DUP3 PUSH2 0x944 JUMP JUMPDEST POP PUSH1 0x60 DUP4 ADD MLOAD PUSH2 0xB1B PUSH1 0x60 DUP7 ADD DUP3 PUSH2 0x944 JUMP JUMPDEST POP PUSH1 0x80 DUP4 ADD MLOAD PUSH2 0xB2E PUSH1 0x80 DUP7 ADD DUP3 PUSH2 0x944 JUMP JUMPDEST POP PUSH1 0xA0 DUP4 ADD MLOAD PUSH2 0xB41 PUSH1 0xA0 DUP7 ADD DUP3 PUSH2 0x944 JUMP JUMPDEST POP PUSH1 0xC0 DUP4 ADD MLOAD DUP5 DUP3 SUB PUSH1 0xC0 DUP7 ADD MSTORE PUSH2 0xB59 DUP3 DUP3 PUSH2 0xA6A JUMP JUMPDEST SWAP2 POP POP DUP1 SWAP2 POP POP SWAP3 SWAP2 POP POP JUMP JUMPDEST PUSH0 PUSH1 0x20 DUP3 ADD SWAP1 POP DUP2 DUP2 SUB PUSH0 DUP4 ADD MSTORE PUSH2 0xB7E DUP2 DUP5 PUSH2 0xAC6 JUMP JUMPDEST SWAP1 POP SWAP3 SWAP2 POP POP JUMP JUMPDEST PUSH0 DUP3 DUP3 MSTORE PUSH1 0x20 DUP3 ADD SWAP1 POP SWAP3 SWAP2 POP POP JUMP JUMPDEST PUSH0 PUSH2 0xBA0 DUP3 PUSH2 0x953 JUMP JUMPDEST PUSH2 0xBAA DUP2 DUP6 PUSH2 0xB86 JUMP JUMPDEST SWAP4 POP PUSH2 0xBB5 DUP4 PUSH2 0x96D JUMP JUMPDEST DUP1 PUSH0 JUMPDEST DUP4 DUP2 LT ISZERO PUSH2 0xBE5 JUMPI DUP2 MLOAD PUSH2 0xBCC DUP9 DUP3 PUSH2 0xA47 JUMP JUMPDEST SWAP8 POP PUSH2 0xBD7 DUP4 PUSH2 0xA5E JUMP JUMPDEST SWAP3 POP POP PUSH1 0x1 DUP2 ADD SWAP1 POP PUSH2 0xBB8 JUMP JUMPDEST POP DUP6 SWAP4 POP POP POP POP SWAP3 SWAP2 POP POP JUMP JUMPDEST PUSH0 PUSH1 0x20 DUP3 ADD SWAP1 POP DUP2 DUP2 SUB PUSH0 DUP4 ADD MSTORE PUSH2 0xC0A DUP2 DUP5 PUSH2 0xB96 JUMP JUMPDEST SWAP1 POP SWAP3 SWAP2 POP POP JUMP JUMPDEST PUSH0 DUP1 REVERT JUMPDEST PUSH0 DUP1 REVERT JUMPDEST PUSH32 0x4E487B7100000000000000000000000000000000000000000000000000000000 PUSH0 MSTORE PUSH1 0x41 PUSH1 0x4 MSTORE PUSH1 0x24 PUSH0 REVERT JUMPDEST PUSH2 0xC50 DUP3 PUSH2 0x83F JUMP JUMPDEST DUP2 ADD DUP2 DUP2 LT PUSH8 0xFFFFFFFFFFFFFFFF DUP3 GT OR ISZERO PUSH2 0xC6F JUMPI PUSH2 0xC6E PUSH2 0xC1A JUMP JUMPDEST JUMPDEST DUP1 PUSH1 0x40 MSTORE POP POP POP JUMP JUMPDEST PUSH0 PUSH2 0xC81 PUSH2 0x7A8 JUMP JUMPDEST SWAP1 POP PUSH2 0xC8D DUP3 DUP3 PUSH2 0xC47 JUMP JUMPDEST SWAP2 SWAP1 POP JUMP JUMPDEST PUSH0 PUSH8 0xFFFFFFFFFFFFFFFF DUP3 GT ISZERO PUSH2 0xCAC JUMPI PUSH2 0xCAB PUSH2 0xC1A JUMP JUMPDEST JUMPDEST PUSH2 0xCB5 DUP3 PUSH2 0x83F JUMP JUMPDEST SWAP1 POP PUSH1 0x20 DUP2 ADD SWAP1 POP SWAP2 SWAP1 POP JUMP JUMPDEST DUP3 DUP2 DUP4 CALLDATACOPY PUSH0 DUP4 DUP4 ADD MSTORE POP POP POP JUMP JUMPDEST PUSH0 PUSH2 0xCE2 PUSH2 0xCDD DUP5 PUSH2 0xC92 JUMP JUMPDEST PUSH2 0xC78 JUMP JUMPDEST SWAP1 POP DUP3 DUP2 MSTORE PUSH1 0x20 DUP2 ADD DUP5 DUP5 DUP5 ADD GT ISZERO PUSH2 0xCFE JUMPI PUSH2 0xCFD PUSH2 0xC16 JUMP JUMPDEST JUMPDEST PUSH2 0xD09 DUP5 DUP3 DUP6 PUSH2 0xCC2 JUMP JUMPDEST POP SWAP4 SWAP3 POP POP POP JUMP JUMPDEST PUSH0 DUP3 PUSH1 0x1F DUP4 ADD SLT PUSH2 0xD25 JUMPI PUSH2 0xD24 PUSH2 0xC12 JUMP JUMPDEST JUMPDEST DUP2 CALLDATALOAD PUSH2 0xD35 DUP5 DUP3 PUSH1 0x20 DUP7 ADD PUSH2 0xCD0 JUMP JUMPDEST SWAP2 POP POP SWAP3 SWAP2 POP POP JUMP JUMPDEST PUSH0 DUP1 PUSH0 DUP1 PUSH0 DUP1 PUSH1 0xC0 DUP8 DUP10 SUB SLT ISZERO PUSH2 0xD58 JUMPI PUSH2 0xD57 PUSH2 0x7B1 JUMP JUMPDEST JUMPDEST PUSH0 PUSH2 0xD65 DUP10 DUP3 DUP11 ADD PUSH2 0x7D8 JUMP JUMPDEST SWAP7 POP POP PUSH1 0x20 DUP8 ADD CALLDATALOAD PUSH8 0xFFFFFFFFFFFFFFFF DUP2 GT ISZERO PUSH2 0xD86 JUMPI PUSH2 0xD85 PUSH2 0x7B5 JUMP JUMPDEST JUMPDEST PUSH2 0xD92 DUP10 DUP3 DUP11 ADD PUSH2 0xD11 JUMP JUMPDEST SWAP6 POP POP PUSH1 0x40 PUSH2 0xDA3 DUP10 DUP3 DUP11 ADD PUSH2 0x7D8 JUMP JUMPDEST SWAP5 POP POP PUSH1 0x60 PUSH2 0xDB4 DUP10 DUP3 DUP11 ADD PUSH2 0x7D8 JUMP JUMPDEST SWAP4 POP POP PUSH1 0x80 PUSH2 0xDC5 DUP10 DUP3 DUP11 ADD PUSH2 0x7D8 JUMP JUMPDEST SWAP3 POP POP PUSH1 0xA0 PUSH2 0xDD6 DUP10 DUP3 DUP11 ADD PUSH2 0x7D8 JUMP JUMPDEST SWAP2 POP POP SWAP3 SWAP6 POP SWAP3 SWAP6 POP SWAP3 SWAP6 JUMP JUMPDEST PUSH32 0x4E487B7100000000000000000000000000000000000000000000000000000000 PUSH0 MSTORE PUSH1 0x22 PUSH1 0x4 MSTORE PUSH1 0x24 PUSH0 REVERT JUMPDEST PUSH0 PUSH1 0x2 DUP3 DIV SWAP1 POP PUSH1 0x1 DUP3 AND DUP1 PUSH2 0xE27 JUMPI PUSH1 0x7F DUP3 AND SWAP2 POP JUMPDEST PUSH1 0x20 DUP3 LT DUP2 SUB PUSH2 0xE3A JUMPI PUSH2 0xE39 PUSH2 0xDE3 JUMP JUMPDEST JUMPDEST POP SWAP2 SWAP1 POP JUMP JUMPDEST PUSH32 0x4D61726B73206D757374206265203C3D20313030000000000000000000000000 PUSH0 DUP3 ADD MSTORE POP JUMP JUMPDEST PUSH0 PUSH2 0xE74 PUSH1 0x14 DUP4 PUSH2 0x821 JUMP JUMPDEST SWAP2 POP PUSH2 0xE7F DUP3 PUSH2 0xE40 JUMP JUMPDEST PUSH1 0x20 DUP3 ADD SWAP1 POP SWAP2 SWAP1 POP JUMP JUMPDEST PUSH0 PUSH1 0x20 DUP3 ADD SWAP1 POP DUP2 DUP2 SUB PUSH0 DUP4 ADD MSTORE PUSH2 0xEA1 DUP2 PUSH2 0xE68 JUMP JUMPDEST SWAP1 POP SWAP2 SWAP1 POP JUMP JUMPDEST PUSH32 0x4E487B7100000000000000000000000000000000000000000000000000000000 PUSH0 MSTORE PUSH1 0x11 PUSH1 0x4 MSTORE PUSH1 0x24 PUSH0 REVERT JUMPDEST PUSH0 PUSH2 0xEDF DUP3 PUSH2 0x7B9 JUMP JUMPDEST SWAP2 POP PUSH2 0xEEA DUP4 PUSH2 0x7B9 JUMP JUMPDEST SWAP3 POP DUP3 DUP3 ADD SWAP1 POP DUP1 DUP3 GT ISZERO PUSH2 0xF02 JUMPI PUSH2 0xF01 PUSH2 0xEA8 JUMP JUMPDEST JUMPDEST SWAP3 SWAP2 POP POP JUMP JUMPDEST PUSH0 PUSH2 0xF12 DUP3 PUSH2 0x7B9 JUMP JUMPDEST SWAP2 POP PUSH2 0xF1D DUP4 PUSH2 0x7B9 JUMP JUMPDEST SWAP3 POP DUP3 DUP3 MUL PUSH2 0xF2B DUP2 PUSH2 0x7B9 JUMP JUMPDEST SWAP2 POP DUP3 DUP3 DIV DUP5 EQ DUP4 ISZERO OR PUSH2 0xF42 JUMPI PUSH2 0xF41 PUSH2 0xEA8 JUMP JUMPDEST JUMPDEST POP SWAP3 SWAP2 POP POP JUMP JUMPDEST PUSH32 0x4E487B7100000000000000000000000000000000000000000000000000000000 PUSH0 MSTORE PUSH1 0x12 PUSH1 0x4 MSTORE PUSH1 0x24 PUSH0 REVERT JUMPDEST PUSH0 PUSH2 0xF80 DUP3 PUSH2 0x7B9 JUMP JUMPDEST SWAP2 POP PUSH2 0xF8B DUP4 PUSH2 0x7B9 JUMP JUMPDEST SWAP3 POP DUP3 PUSH2 0xF9B JUMPI PUSH2 0xF9A PUSH2 0xF49 JUMP JUMPDEST JUMPDEST DUP3 DUP3 DIV SWAP1 POP SWAP3 SWAP2 POP POP JUMP JUMPDEST PUSH0 DUP2 SWAP1 POP DUP2 PUSH0 MSTORE PUSH1 0x20 PUSH0 KECCAK256 SWAP1 POP SWAP2 SWAP1 POP JUMP JUMPDEST PUSH0 PUSH1 0x20 PUSH1 0x1F DUP4 ADD DIV SWAP1 POP SWAP2 SWAP1 POP JUMP JUMPDEST PUSH0 DUP3 DUP3 SHL SWAP1 POP SWAP3 SWAP2 POP POP JUMP JUMPDEST PUSH0 PUSH1 0x8 DUP4 MUL PUSH2 0x1002 PUSH32 0xFFFFFFFFFFFFFFFFFFFFFFFFFFFFFFFFFFFFFFFFFFFFFFFFFFFFFFFFFFFFFFFF DUP3 PUSH2 0xFC7 JUMP JUMPDEST PUSH2 0x100C DUP7 DUP4 PUSH2 0xFC7 JUMP JUMPDEST SWAP6 POP DUP1 NOT DUP5 AND SWAP4 POP DUP1 DUP7 AND DUP5 OR SWAP3 POP POP POP SWAP4 SWAP3 POP POP POP JUMP JUMPDEST PUSH0 DUP2 SWAP1 POP SWAP2 SWAP1 POP JUMP JUMPDEST PUSH0 PUSH2 0x1047 PUSH2 0x1042 PUSH2 0x103D DUP5 PUSH2 0x7B9 JUMP JUMPDEST PUSH2 0x1024 JUMP JUMPDEST PUSH2 0x7B9 JUMP JUMPDEST SWAP1 POP SWAP2 SWAP1 POP JUMP JUMPDEST PUSH0 DUP2 SWAP1 POP SWAP2 SWAP1 POP JUMP JUMPDEST PUSH2 0x1060 DUP4 PUSH2 0x102D JUMP JUMPDEST PUSH2 0x1074 PUSH2 0x106C DUP3 PUSH2 0x104E JUMP JUMPDEST DUP5 DUP5 SLOAD PUSH2 0xFD3 JUMP JUMPDEST DUP3 SSTORE POP POP POP POP JUMP JUMPDEST PUSH0 SWAP1 JUMP JUMPDEST PUSH2 0x1088 PUSH2 0x107C JUMP JUMPDEST PUSH2 0x1093 DUP2 DUP5 DUP5 PUSH2 0x1057 JUMP JUMPDEST POP POP POP JUMP JUMPDEST JUMPDEST DUP2 DUP2 LT ISZERO PUSH2 0x10B6 JUMPI PUSH2 0x10AB PUSH0 DUP3 PUSH2 0x1080 JUMP JUMPDEST PUSH1 0x1 DUP2 ADD SWAP1 POP PUSH2 0x1099 JUMP JUMPDEST POP POP JUMP JUMPDEST PUSH1 0x1F DUP3 GT ISZERO PUSH2 0x10FB JUMPI PUSH2 0x10CC DUP2 PUSH2 0xFA6 JUMP JUMPDEST PUSH2 0x10D5 DUP5 PUSH2 0xFB8 JUMP JUMPDEST DUP2 ADD PUSH1 0x20 DUP6 LT ISZERO PUSH2 0x10E4 JUMPI DUP2 SWAP1 POP JUMPDEST PUSH2 0x10F8 PUSH2 0x10F0 DUP6 PUSH2 0xFB8 JUMP JUMPDEST DUP4 ADD DUP3 PUSH2 0x1098 JUMP JUMPDEST POP POP JUMPDEST POP POP POP JUMP JUMPDEST PUSH0 DUP3 DUP3 SHR SWAP1 POP SWAP3 SWAP2 POP POP JUMP JUMPDEST PUSH0 PUSH2 0x111B PUSH0 NOT DUP5 PUSH1 0x8 MUL PUSH2 0x1100 JUMP JUMPDEST NOT DUP1 DUP4 AND SWAP2 POP POP SWAP3 SWAP2 POP POP JUMP JUMPDEST PUSH0 PUSH2 0x1133 DUP4 DUP4 PUSH2 0x110C JUMP JUMPDEST SWAP2 POP DUP3 PUSH1 0x2 MUL DUP3 OR SWAP1 POP SWAP3 SWAP2 POP POP JUMP JUMPDEST PUSH2 0x114C DUP3 PUSH2 0x817 JUMP JUMPDEST PUSH8 0xFFFFFFFFFFFFFFFF DUP2 GT ISZERO PUSH2 0x1165 JUMPI PUSH2 0x1164 PUSH2 0xC1A JUMP JUMPDEST JUMPDEST PUSH2 0x116F DUP3 SLOAD PUSH2 0xE10 JUMP JUMPDEST PUSH2 0x117A DUP3 DUP3 DUP6 PUSH2 0x10BA JUMP JUMPDEST PUSH0 PUSH1 0x20 SWAP1 POP PUSH1 0x1F DUP4 GT PUSH1 0x1 DUP2 EQ PUSH2 0x11AB JUMPI PUSH0 DUP5 ISZERO PUSH2 0x1199 JUMPI DUP3 DUP8 ADD MLOAD SWAP1 POP JUMPDEST PUSH2 0x11A3 DUP6 DUP3 PUSH2 0x1128 JUMP JUMPDEST DUP7 SSTORE POP PUSH2 0x120A JUMP JUMPDEST PUSH1 0x1F NOT DUP5 AND PUSH2 0x11B9 DUP7 PUSH2 0xFA6 JUMP JUMPDEST PUSH0 JUMPDEST DUP3 DUP2 LT ISZERO PUSH2 0x11E0 JUMPI DUP5 DUP10 ADD MLOAD DUP3 SSTORE PUSH1 0x1 DUP3 ADD SWAP2 POP PUSH1 0x20 DUP6 ADD SWAP5 POP PUSH1 0x20 DUP2 ADD SWAP1 POP PUSH2 0x11BB JUMP JUMPDEST DUP7 DUP4 LT ISZERO PUSH2 0x11FD JUMPI DUP5 DUP10 ADD MLOAD PUSH2 0x11F9 PUSH1 0x1F DUP10 AND DUP3 PUSH2 0x110C JUMP JUMPDEST DUP4 SSTORE POP JUMPDEST PUSH1 0x1 PUSH1 0x2 DUP9 MUL ADD DUP9 SSTORE POP POP POP JUMPDEST POP POP POP POP POP POP JUMP INVALID LOG2 PUSH5 0x6970667358 0x22 SLT KECCAK256 PUSH14 0x151A55DA875077B8CC3CD7E7946D 0x4E TIMESTAMP SELFBALANCE SAR NUMBER DUP10 PUSH26 0xEF9FDD0FE7609B2A5FDD64736F6C634300081A00330000000000 "
		},
		"gasEstimates": {
			"creation": {
				"codeDepositCost": "936000",
				"executionCost": "973",
				"totalCost": "936973"
			},
			"external": {
				"addOrUpdateStudent(uint256,string,uint256,uint256,uint256,uint256)": "infinite",
				"getStudent(uint256)": "infinite",
				"getStudentHistory(uint256)": "infinite",
				"students(uint256)": "infinite"
			}
		},
		"methodIdentifiers": {
			"addOrUpdateStudent(uint256,string,uint256,uint256,uint256,uint256)": "e7a41e30",
			"getStudent(uint256)": "642f9163",
			"getStudentHistory(uint256)": "6c6a50ff",
			"students(uint256)": "06ead22e"
		}
	},
	"abi": [
		{
			"inputs": [
				{
					"internalType": "uint256",
					"name": "id",
					"type": "uint256"
				},
				{
					"internalType": "string",
					"name": "name",
					"type": "string"
				},
				{
					"internalType": "uint256",
					"name": "english",
					"type": "uint256"
				},
				{
					"internalType": "uint256",
					"name": "hindi",
					"type": "uint256"
				},
				{
					"internalType": "uint256",
					"name": "math",
					"type": "uint256"
				},
				{
					"internalType": "uint256",
					"name": "science",
					"type": "uint256"
				}
			],
			"name": "addOrUpdateStudent",
			"outputs": [],
			"stateMutability": "nonpayable",
			"type": "function"
		},
		{
			"inputs": [
				{
					"internalType": "uint256",
					"name": "id",
					"type": "uint256"
				}
			],
			"name": "getStudent",
			"outputs": [
				{
					"components": [
						{
							"internalType": "string",
							"name": "name",
							"type": "string"
						},
						{
							"internalType": "uint256",
							"name": "currentEnglish",
							"type": "uint256"
						},
						{
							"internalType": "uint256",
							"name": "currentHindi",
							"type": "uint256"
						},
						{
							"internalType": "uint256",
							"name": "currentMath",
							"type": "uint256"
						},
						{
							"internalType": "uint256",
							"name": "currentPercentage",
							"type": "uint256"
						},
						{
							"internalType": "uint256",
							"name": "currentScience",
							"type": "uint256"
						},
						{
							"components": [
								{
									"internalType": "uint256",
									"name": "english",
									"type": "uint256"
								},
								{
									"internalType": "uint256",
									"name": "hindi",
									"type": "uint256"
								},
								{
									"internalType": "uint256",
									"name": "math",
									"type": "uint256"
								},
								{
									"internalType": "uint256",
									"name": "science",
									"type": "uint256"
								},
								{
									"internalType": "uint256",
									"name": "percentage",
									"type": "uint256"
								},
								{
									"internalType": "uint256",
									"name": "timestamp",
									"type": "uint256"
								},
								{
									"internalType": "address",
									"name": "transactionSender",
									"type": "address"
								}
							],
							"internalType": "struct V4Marksheet.MarksHistory[]",
							"name": "history",
							"type": "tuple[]"
						}
					],
					"internalType": "struct V4Marksheet.Student",
					"name": "",
					"type": "tuple"
				}
			],
			"stateMutability": "view",
			"type": "function"
		},
		{
			"inputs": [
				{
					"internalType": "uint256",
					"name": "id",
					"type": "uint256"
				}
			],
			"name": "getStudentHistory",
			"outputs": [
				{
					"components": [
						{
							"internalType": "uint256",
							"name": "english",
							"type": "uint256"
						},
						{
							"internalType": "uint256",
							"name": "hindi",
							"type": "uint256"
						},
						{
							"internalType": "uint256",
							"name": "math",
							"type": "uint256"
						},
						{
							"internalType": "uint256",
							"name": "science",
							"type": "uint256"
						},
						{
							"internalType": "uint256",
							"name": "percentage",
							"type": "uint256"
						},
						{
							"internalType": "uint256",
							"name": "timestamp",
							"type": "uint256"
						},
						{
							"internalType": "address",
							"name": "transactionSender",
							"type": "address"
						}
					],
					"internalType": "struct V4Marksheet.MarksHistory[]",
					"name": "",
					"type": "tuple[]"
				}
			],
			"stateMutability": "view",
			"type": "function"
		},
		{
			"inputs": [
				{
					"internalType": "uint256",
					"name": "",
					"type": "uint256"
				}
			],
			"name": "students",
			"outputs": [
				{
					"internalType": "string",
					"name": "name",
					"type": "string"
				},
				{
					"internalType": "uint256",
					"name": "currentEnglish",
					"type": "uint256"
				},
				{
					"internalType": "uint256",
					"name": "currentHindi",
					"type": "uint256"
				},
				{
					"internalType": "uint256",
					"name": "currentMath",
					"type": "uint256"
				},
				{
					"internalType": "uint256",
					"name": "currentPercentage",
					"type": "uint256"
				},
				{
					"internalType": "uint256",
					"name": "currentScience",
					"type": "uint256"
				}
			],
			"stateMutability": "view",
			"type": "function"
		}
	]
}