{
	"new marksheet-upgradable/MarksheetV3.sol": {
		"V3Marksheet": {
			"abi": [
				{
					"inputs": [
						{
							"internalType": "uint256",
							"name": "id",
							"type": "uint256"
						},
						{
							"internalType": "string",
							"name": "name",
							"type": "string"
						},
						{
							"internalType": "uint256",
							"name": "english",
							"type": "uint256"
						},
						{
							"internalType": "uint256",
							"name": "hindi",
							"type": "uint256"
						},
						{
							"internalType": "uint256",
							"name": "math",
							"type": "uint256"
						},
						{
							"internalType": "uint256",
							"name": "science",
							"type": "uint256"
						}
					],
					"name": "addOrUpdateStudent",
					"outputs": [],
					"stateMutability": "nonpayable",
					"type": "function"
				},
				{
					"inputs": [
						{
							"internalType": "uint256",
							"name": "id",
							"type": "uint256"
						}
					],
					"name": "getStudent",
					"outputs": [
						{
							"internalType": "string",
							"name": "name",
							"type": "string"
						},
						{
							"internalType": "uint256",
							"name": "english",
							"type": "uint256"
						},
						{
							"internalType": "uint256",
							"name": "hindi",
							"type": "uint256"
						},
						{
							"internalType": "uint256",
							"name": "math",
							"type": "uint256"
						},
						{
							"internalType": "uint256",
							"name": "science",
							"type": "uint256"
						},
						{
							"internalType": "uint256",
							"name": "percentage",
							"type": "uint256"
						},
						{
							"internalType": "bool",
							"name": "isPass",
							"type": "bool"
						}
					],
					"stateMutability": "view",
					"type": "function"
				},
				{
					"inputs": [
						{
							"internalType": "uint256",
							"name": "id",
							"type": "uint256"
						},
						{
							"internalType": "uint256",
							"name": "science",
							"type": "uint256"
						}
					],
					"name": "updateScienceMarks",
					"outputs": [],
					"stateMutability": "nonpayable",
					"type": "function"
				}
			],
			"devdoc": {
				"kind": "dev",
				"methods": {},
				"version": 1
			},
			"evm": {
				"assembly": "    /* \"new marksheet-upgradable/MarksheetV3.sol\":61:2254  contract V3Marksheet {... */\n  mstore(0x40, 0x80)\n  callvalue\n  dup1\n  iszero\n  tag_1\n  jumpi\n  revert(0x00, 0x00)\ntag_1:\n  pop\n  dataSize(sub_0)\n  dup1\n  dataOffset(sub_0)\n  0x00\n  codecopy\n  0x00\n  return\nstop\n\nsub_0: assembly {\n        /* \"new marksheet-upgradable/MarksheetV3.sol\":61:2254  contract V3Marksheet {... */\n      mstore(0x40, 0x80)\n      callvalue\n      dup1\n      iszero\n      tag_1\n      jumpi\n      revert(0x00, 0x00)\n    tag_1:\n      pop\n      jumpi(tag_2, lt(calldatasize, 0x04))\n      shr(0xe0, calldataload(0x00))\n      dup1\n      0x642f9163\n      eq\n      tag_3\n      jumpi\n      dup1\n      0xd174b7fe\n      eq\n      tag_4\n      jumpi\n      dup1\n      0xe7a41e30\n      eq\n      tag_5\n      jumpi\n    tag_2:\n      revert(0x00, 0x00)\n        /* \"new marksheet-upgradable/MarksheetV3.sol\":1788:2251  function getStudent(uint id) public view returns (... */\n    tag_3:\n      tag_6\n      0x04\n      dup1\n      calldatasize\n      sub\n      dup2\n      add\n      swap1\n      tag_7\n      swap2\n      swap1\n      tag_8\n      jump\t// in\n    tag_7:\n      tag_9\n      jump\t// in\n    tag_6:\n      mload(0x40)\n      tag_10\n      swap8\n      swap7\n      swap6\n      swap5\n      swap4\n      swap3\n      swap2\n      swap1\n      tag_11\n      jump\t// in\n    tag_10:\n      mload(0x40)\n      dup1\n      swap2\n      sub\n      swap1\n      return\n        /* \"new marksheet-upgradable/MarksheetV3.sol\":1380:1740  function updateScienceMarks(uint id, uint science) public {... */\n    tag_4:\n      tag_12\n      0x04\n      dup1\n      calldatasize\n      sub\n      dup2\n      add\n      swap1\n      tag_13\n      swap2\n      swap1\n      tag_14\n      jump\t// in\n    tag_13:\n      tag_15\n      jump\t// in\n    tag_12:\n      stop\n        /* \"new marksheet-upgradable/MarksheetV3.sol\":434:1272  function addOrUpdateStudent(... */\n    tag_5:\n      tag_16\n      0x04\n      dup1\n      calldatasize\n      sub\n      dup2\n      add\n      swap1\n      tag_17\n      swap2\n      swap1\n      tag_18\n      jump\t// in\n    tag_17:\n      tag_19\n      jump\t// in\n    tag_16:\n      stop\n        /* \"new marksheet-upgradable/MarksheetV3.sol\":1788:2251  function getStudent(uint id) public view returns (... */\n    tag_9:\n        /* \"new marksheet-upgradable/MarksheetV3.sol\":1848:1866  string memory name */\n      0x60\n        /* \"new marksheet-upgradable/MarksheetV3.sol\":1877:1889  uint english */\n      0x00\n        /* \"new marksheet-upgradable/MarksheetV3.sol\":1900:1910  uint hindi */\n      0x00\n        /* \"new marksheet-upgradable/MarksheetV3.sol\":1921:1930  uint math */\n      0x00\n        /* \"new marksheet-upgradable/MarksheetV3.sol\":1941:1953  uint science */\n      0x00\n        /* \"new marksheet-upgradable/MarksheetV3.sol\":1964:1979  uint percentage */\n      0x00\n        /* \"new marksheet-upgradable/MarksheetV3.sol\":1990:2001  bool isPass */\n      0x00\n        /* \"new marksheet-upgradable/MarksheetV3.sol\":2020:2037  Student storage s */\n      0x00\n        /* \"new marksheet-upgradable/MarksheetV3.sol\":2040:2048  students */\n      0x00\n        /* \"new marksheet-upgradable/MarksheetV3.sol\":2040:2052  students[id] */\n      0x00\n        /* \"new marksheet-upgradable/MarksheetV3.sol\":2049:2051  id */\n      dup11\n        /* \"new marksheet-upgradable/MarksheetV3.sol\":2040:2052  students[id] */\n      dup2\n      mstore\n      0x20\n      add\n      swap1\n      dup2\n      mstore\n      0x20\n      add\n      0x00\n      keccak256\n        /* \"new marksheet-upgradable/MarksheetV3.sol\":2020:2052  Student storage s = students[id] */\n      swap1\n      pop\n        /* \"new marksheet-upgradable/MarksheetV3.sol\":2085:2086  s */\n      dup1\n        /* \"new marksheet-upgradable/MarksheetV3.sol\":2085:2091  s.name */\n      0x00\n      add\n        /* \"new marksheet-upgradable/MarksheetV3.sol\":2106:2107  s */\n      dup2\n        /* \"new marksheet-upgradable/MarksheetV3.sol\":2106:2115  s.english */\n      0x01\n      add\n      sload\n        /* \"new marksheet-upgradable/MarksheetV3.sol\":2130:2131  s */\n      dup3\n        /* \"new marksheet-upgradable/MarksheetV3.sol\":2130:2137  s.hindi */\n      0x02\n      add\n      sload\n        /* \"new marksheet-upgradable/MarksheetV3.sol\":2152:2153  s */\n      dup4\n        /* \"new marksheet-upgradable/MarksheetV3.sol\":2152:2158  s.math */\n      0x03\n      add\n      sload\n        /* \"new marksheet-upgradable/MarksheetV3.sol\":2173:2174  s */\n      dup5\n        /* \"new marksheet-upgradable/MarksheetV3.sol\":2173:2182  s.science */\n      0x05\n      add\n      sload\n        /* \"new marksheet-upgradable/MarksheetV3.sol\":2197:2198  s */\n      dup6\n        /* \"new marksheet-upgradable/MarksheetV3.sol\":2197:2209  s.percentage */\n      0x04\n      add\n      sload\n        /* \"new marksheet-upgradable/MarksheetV3.sol\":2224:2225  s */\n      dup7\n        /* \"new marksheet-upgradable/MarksheetV3.sol\":2224:2232  s.isPass */\n      0x06\n      add\n      0x00\n      swap1\n      sload\n      swap1\n      0x0100\n      exp\n      swap1\n      div\n      0xff\n      and\n        /* \"new marksheet-upgradable/MarksheetV3.sol\":2063:2243  return (... */\n      dup7\n      dup1\n      sload\n      tag_21\n      swap1\n      tag_22\n      jump\t// in\n    tag_21:\n      dup1\n      0x1f\n      add\n      0x20\n      dup1\n      swap2\n      div\n      mul\n      0x20\n      add\n      mload(0x40)\n      swap1\n      dup2\n      add\n      0x40\n      mstore\n      dup1\n      swap3\n      swap2\n      swap1\n      dup2\n      dup2\n      mstore\n      0x20\n      add\n      dup3\n      dup1\n      sload\n      tag_23\n      swap1\n      tag_22\n      jump\t// in\n    tag_23:\n      dup1\n      iszero\n      tag_24\n      jumpi\n      dup1\n      0x1f\n      lt\n      tag_25\n      jumpi\n      0x0100\n      dup1\n      dup4\n      sload\n      div\n      mul\n      dup4\n      mstore\n      swap2\n      0x20\n      add\n      swap2\n      jump(tag_24)\n    tag_25:\n      dup3\n      add\n      swap2\n      swap1\n      0x00\n      mstore\n      keccak256(0x00, 0x20)\n      swap1\n    tag_26:\n      dup2\n      sload\n      dup2\n      mstore\n      swap1\n      0x01\n      add\n      swap1\n      0x20\n      add\n      dup1\n      dup4\n      gt\n      tag_26\n      jumpi\n      dup3\n      swap1\n      sub\n      0x1f\n      and\n      dup3\n      add\n      swap2\n    tag_24:\n      pop\n      pop\n      pop\n      pop\n      pop\n      swap7\n      pop\n      swap8\n      pop\n      swap8\n      pop\n      swap8\n      pop\n      swap8\n      pop\n      swap8\n      pop\n      swap8\n      pop\n      swap8\n      pop\n      pop\n        /* \"new marksheet-upgradable/MarksheetV3.sol\":1788:2251  function getStudent(uint id) public view returns (... */\n      swap2\n      swap4\n      swap6\n      swap8\n      swap1\n      swap3\n      swap5\n      swap7\n      pop\n      jump\t// out\n        /* \"new marksheet-upgradable/MarksheetV3.sol\":1380:1740  function updateScienceMarks(uint id, uint science) public {... */\n    tag_15:\n        /* \"new marksheet-upgradable/MarksheetV3.sol\":1468:1471  100 */\n      0x64\n        /* \"new marksheet-upgradable/MarksheetV3.sol\":1457:1464  science */\n      dup2\n        /* \"new marksheet-upgradable/MarksheetV3.sol\":1457:1471  science <= 100 */\n      gt\n      iszero\n        /* \"new marksheet-upgradable/MarksheetV3.sol\":1449:1504  require(science <= 100, \"Science marks must be <= 100\") */\n      tag_28\n      jumpi\n      mload(0x40)\n      0x08c379a000000000000000000000000000000000000000000000000000000000\n      dup2\n      mstore\n      0x04\n      add\n      tag_29\n      swap1\n      tag_30\n      jump\t// in\n    tag_29:\n      mload(0x40)\n      dup1\n      swap2\n      sub\n      swap1\n      revert\n    tag_28:\n        /* \"new marksheet-upgradable/MarksheetV3.sol\":1517:1534  Student storage s */\n      0x00\n        /* \"new marksheet-upgradable/MarksheetV3.sol\":1537:1545  students */\n      0x00\n        /* \"new marksheet-upgradable/MarksheetV3.sol\":1537:1549  students[id] */\n      0x00\n        /* \"new marksheet-upgradable/MarksheetV3.sol\":1546:1548  id */\n      dup5\n        /* \"new marksheet-upgradable/MarksheetV3.sol\":1537:1549  students[id] */\n      dup2\n      mstore\n      0x20\n      add\n      swap1\n      dup2\n      mstore\n      0x20\n      add\n      0x00\n      keccak256\n        /* \"new marksheet-upgradable/MarksheetV3.sol\":1517:1549  Student storage s = students[id] */\n      swap1\n      pop\n        /* \"new marksheet-upgradable/MarksheetV3.sol\":1574:1581  science */\n      dup2\n        /* \"new marksheet-upgradable/MarksheetV3.sol\":1562:1563  s */\n      dup2\n        /* \"new marksheet-upgradable/MarksheetV3.sol\":1562:1571  s.science */\n      0x05\n      add\n        /* \"new marksheet-upgradable/MarksheetV3.sol\":1562:1581  s.science = science */\n      dup2\n      swap1\n      sstore\n      pop\n        /* \"new marksheet-upgradable/MarksheetV3.sol\":1594:1604  uint total */\n      0x00\n        /* \"new marksheet-upgradable/MarksheetV3.sol\":1638:1639  s */\n      dup2\n        /* \"new marksheet-upgradable/MarksheetV3.sol\":1638:1647  s.science */\n      0x05\n      add\n      sload\n        /* \"new marksheet-upgradable/MarksheetV3.sol\":1629:1630  s */\n      dup3\n        /* \"new marksheet-upgradable/MarksheetV3.sol\":1629:1635  s.math */\n      0x03\n      add\n      sload\n        /* \"new marksheet-upgradable/MarksheetV3.sol\":1619:1620  s */\n      dup4\n        /* \"new marksheet-upgradable/MarksheetV3.sol\":1619:1626  s.hindi */\n      0x02\n      add\n      sload\n        /* \"new marksheet-upgradable/MarksheetV3.sol\":1607:1608  s */\n      dup5\n        /* \"new marksheet-upgradable/MarksheetV3.sol\":1607:1616  s.english */\n      0x01\n      add\n      sload\n        /* \"new marksheet-upgradable/MarksheetV3.sol\":1607:1626  s.english + s.hindi */\n      tag_31\n      swap2\n      swap1\n      tag_32\n      jump\t// in\n    tag_31:\n        /* \"new marksheet-upgradable/MarksheetV3.sol\":1607:1635  s.english + s.hindi + s.math */\n      tag_33\n      swap2\n      swap1\n      tag_32\n      jump\t// in\n    tag_33:\n        /* \"new marksheet-upgradable/MarksheetV3.sol\":1607:1647  s.english + s.hindi + s.math + s.science */\n      tag_34\n      swap2\n      swap1\n      tag_32\n      jump\t// in\n    tag_34:\n        /* \"new marksheet-upgradable/MarksheetV3.sol\":1594:1647  uint total = s.english + s.hindi + s.math + s.science */\n      swap1\n      pop\n        /* \"new marksheet-upgradable/MarksheetV3.sol\":1689:1692  400 */\n      0x0190\n        /* \"new marksheet-upgradable/MarksheetV3.sol\":1682:1685  100 */\n      0x64\n        /* \"new marksheet-upgradable/MarksheetV3.sol\":1674:1679  total */\n      dup3\n        /* \"new marksheet-upgradable/MarksheetV3.sol\":1674:1685  total * 100 */\n      tag_35\n      swap2\n      swap1\n      tag_36\n      jump\t// in\n    tag_35:\n        /* \"new marksheet-upgradable/MarksheetV3.sol\":1673:1692  (total * 100) / 400 */\n      tag_37\n      swap2\n      swap1\n      tag_38\n      jump\t// in\n    tag_37:\n        /* \"new marksheet-upgradable/MarksheetV3.sol\":1658:1659  s */\n      dup3\n        /* \"new marksheet-upgradable/MarksheetV3.sol\":1658:1670  s.percentage */\n      0x04\n      add\n        /* \"new marksheet-upgradable/MarksheetV3.sol\":1658:1692  s.percentage = (total * 100) / 400 */\n      dup2\n      swap1\n      sstore\n      pop\n        /* \"new marksheet-upgradable/MarksheetV3.sol\":1730:1732  60 */\n      0x3c\n        /* \"new marksheet-upgradable/MarksheetV3.sol\":1714:1715  s */\n      dup3\n        /* \"new marksheet-upgradable/MarksheetV3.sol\":1714:1726  s.percentage */\n      0x04\n      add\n      sload\n        /* \"new marksheet-upgradable/MarksheetV3.sol\":1714:1732  s.percentage >= 60 */\n      lt\n      iszero\n        /* \"new marksheet-upgradable/MarksheetV3.sol\":1703:1704  s */\n      dup3\n        /* \"new marksheet-upgradable/MarksheetV3.sol\":1703:1711  s.isPass */\n      0x06\n      add\n      0x00\n        /* \"new marksheet-upgradable/MarksheetV3.sol\":1703:1732  s.isPass = s.percentage >= 60 */\n      0x0100\n      exp\n      dup2\n      sload\n      dup2\n      0xff\n      mul\n      not\n      and\n      swap1\n      dup4\n      iszero\n      iszero\n      mul\n      or\n      swap1\n      sstore\n      pop\n        /* \"new marksheet-upgradable/MarksheetV3.sol\":1438:1740  {... */\n      pop\n      pop\n        /* \"new marksheet-upgradable/MarksheetV3.sol\":1380:1740  function updateScienceMarks(uint id, uint science) public {... */\n      pop\n      pop\n      jump\t// out\n        /* \"new marksheet-upgradable/MarksheetV3.sol\":434:1272  function addOrUpdateStudent(... */\n    tag_19:\n        /* \"new marksheet-upgradable/MarksheetV3.sol\":640:643  100 */\n      0x64\n        /* \"new marksheet-upgradable/MarksheetV3.sol\":629:636  english */\n      dup5\n        /* \"new marksheet-upgradable/MarksheetV3.sol\":629:643  english <= 100 */\n      gt\n      iszero\n        /* \"new marksheet-upgradable/MarksheetV3.sol\":621:676  require(english <= 100, \"English marks must be <= 100\") */\n      tag_40\n      jumpi\n      mload(0x40)\n      0x08c379a000000000000000000000000000000000000000000000000000000000\n      dup2\n      mstore\n      0x04\n      add\n      tag_41\n      swap1\n      tag_42\n      jump\t// in\n    tag_41:\n      mload(0x40)\n      dup1\n      swap2\n      sub\n      swap1\n      revert\n    tag_40:\n        /* \"new marksheet-upgradable/MarksheetV3.sol\":704:707  100 */\n      0x64\n        /* \"new marksheet-upgradable/MarksheetV3.sol\":695:700  hindi */\n      dup4\n        /* \"new marksheet-upgradable/MarksheetV3.sol\":695:707  hindi <= 100 */\n      gt\n      iszero\n        /* \"new marksheet-upgradable/MarksheetV3.sol\":687:738  require(hindi <= 100, \"Hindi marks must be <= 100\") */\n      tag_43\n      jumpi\n      mload(0x40)\n      0x08c379a000000000000000000000000000000000000000000000000000000000\n      dup2\n      mstore\n      0x04\n      add\n      tag_44\n      swap1\n      tag_45\n      jump\t// in\n    tag_44:\n      mload(0x40)\n      dup1\n      swap2\n      sub\n      swap1\n      revert\n    tag_43:\n        /* \"new marksheet-upgradable/MarksheetV3.sol\":765:768  100 */\n      0x64\n        /* \"new marksheet-upgradable/MarksheetV3.sol\":757:761  math */\n      dup3\n        /* \"new marksheet-upgradable/MarksheetV3.sol\":757:768  math <= 100 */\n      gt\n      iszero\n        /* \"new marksheet-upgradable/MarksheetV3.sol\":749:798  require(math <= 100, \"Math marks must be <= 100\") */\n      tag_46\n      jumpi\n      mload(0x40)\n      0x08c379a000000000000000000000000000000000000000000000000000000000\n      dup2\n      mstore\n      0x04\n      add\n      tag_47\n      swap1\n      tag_48\n      jump\t// in\n    tag_47:\n      mload(0x40)\n      dup1\n      swap2\n      sub\n      swap1\n      revert\n    tag_46:\n        /* \"new marksheet-upgradable/MarksheetV3.sol\":828:831  100 */\n      0x64\n        /* \"new marksheet-upgradable/MarksheetV3.sol\":817:824  science */\n      dup2\n        /* \"new marksheet-upgradable/MarksheetV3.sol\":817:831  science <= 100 */\n      gt\n      iszero\n        /* \"new marksheet-upgradable/MarksheetV3.sol\":809:864  require(science <= 100, \"Science marks must be <= 100\") */\n      tag_49\n      jumpi\n      mload(0x40)\n      0x08c379a000000000000000000000000000000000000000000000000000000000\n      dup2\n      mstore\n      0x04\n      add\n      tag_50\n      swap1\n      tag_30\n      jump\t// in\n    tag_50:\n      mload(0x40)\n      dup1\n      swap2\n      sub\n      swap1\n      revert\n    tag_49:\n        /* \"new marksheet-upgradable/MarksheetV3.sol\":877:887  uint total */\n      0x00\n        /* \"new marksheet-upgradable/MarksheetV3.sol\":915:922  science */\n      dup2\n        /* \"new marksheet-upgradable/MarksheetV3.sol\":908:912  math */\n      dup4\n        /* \"new marksheet-upgradable/MarksheetV3.sol\":900:905  hindi */\n      dup6\n        /* \"new marksheet-upgradable/MarksheetV3.sol\":890:897  english */\n      dup8\n        /* \"new marksheet-upgradable/MarksheetV3.sol\":890:905  english + hindi */\n      tag_51\n      swap2\n      swap1\n      tag_32\n      jump\t// in\n    tag_51:\n        /* \"new marksheet-upgradable/MarksheetV3.sol\":890:912  english + hindi + math */\n      tag_52\n      swap2\n      swap1\n      tag_32\n      jump\t// in\n    tag_52:\n        /* \"new marksheet-upgradable/MarksheetV3.sol\":890:922  english + hindi + math + science */\n      tag_53\n      swap2\n      swap1\n      tag_32\n      jump\t// in\n    tag_53:\n        /* \"new marksheet-upgradable/MarksheetV3.sol\":877:922  uint total = english + hindi + math + science */\n      swap1\n      pop\n        /* \"new marksheet-upgradable/MarksheetV3.sol\":933:948  uint percentage */\n      0x00\n        /* \"new marksheet-upgradable/MarksheetV3.sol\":967:970  400 */\n      0x0190\n        /* \"new marksheet-upgradable/MarksheetV3.sol\":960:963  100 */\n      0x64\n        /* \"new marksheet-upgradable/MarksheetV3.sol\":952:957  total */\n      dup4\n        /* \"new marksheet-upgradable/MarksheetV3.sol\":952:963  total * 100 */\n      tag_54\n      swap2\n      swap1\n      tag_36\n      jump\t// in\n    tag_54:\n        /* \"new marksheet-upgradable/MarksheetV3.sol\":951:970  (total * 100) / 400 */\n      tag_55\n      swap2\n      swap1\n      tag_38\n      jump\t// in\n    tag_55:\n        /* \"new marksheet-upgradable/MarksheetV3.sol\":933:970  uint percentage = (total * 100) / 400 */\n      swap1\n      pop\n        /* \"new marksheet-upgradable/MarksheetV3.sol\":981:992  bool isPass */\n      0x00\n        /* \"new marksheet-upgradable/MarksheetV3.sol\":1009:1011  60 */\n      0x3c\n        /* \"new marksheet-upgradable/MarksheetV3.sol\":995:1005  percentage */\n      dup3\n        /* \"new marksheet-upgradable/MarksheetV3.sol\":995:1011  percentage >= 60 */\n      lt\n      iszero\n        /* \"new marksheet-upgradable/MarksheetV3.sol\":981:1011  bool isPass = percentage >= 60 */\n      swap1\n      pop\n        /* \"new marksheet-upgradable/MarksheetV3.sol\":1039:1264  Student({... */\n      mload(0x40)\n      dup1\n      0xe0\n      add\n      0x40\n      mstore\n      dup1\n        /* \"new marksheet-upgradable/MarksheetV3.sol\":1068:1072  name */\n      dup10\n        /* \"new marksheet-upgradable/MarksheetV3.sol\":1039:1264  Student({... */\n      dup2\n      mstore\n      0x20\n      add\n        /* \"new marksheet-upgradable/MarksheetV3.sol\":1096:1103  english */\n      dup9\n        /* \"new marksheet-upgradable/MarksheetV3.sol\":1039:1264  Student({... */\n      dup2\n      mstore\n      0x20\n      add\n        /* \"new marksheet-upgradable/MarksheetV3.sol\":1125:1130  hindi */\n      dup8\n        /* \"new marksheet-upgradable/MarksheetV3.sol\":1039:1264  Student({... */\n      dup2\n      mstore\n      0x20\n      add\n        /* \"new marksheet-upgradable/MarksheetV3.sol\":1151:1155  math */\n      dup7\n        /* \"new marksheet-upgradable/MarksheetV3.sol\":1039:1264  Student({... */\n      dup2\n      mstore\n      0x20\n      add\n        /* \"new marksheet-upgradable/MarksheetV3.sol\":1182:1192  percentage */\n      dup4\n        /* \"new marksheet-upgradable/MarksheetV3.sol\":1039:1264  Student({... */\n      dup2\n      mstore\n      0x20\n      add\n        /* \"new marksheet-upgradable/MarksheetV3.sol\":1216:1223  science */\n      dup6\n        /* \"new marksheet-upgradable/MarksheetV3.sol\":1039:1264  Student({... */\n      dup2\n      mstore\n      0x20\n      add\n        /* \"new marksheet-upgradable/MarksheetV3.sol\":1246:1252  isPass */\n      dup3\n        /* \"new marksheet-upgradable/MarksheetV3.sol\":1039:1264  Student({... */\n      iszero\n      iszero\n      dup2\n      mstore\n      pop\n        /* \"new marksheet-upgradable/MarksheetV3.sol\":1024:1032  students */\n      0x00\n        /* \"new marksheet-upgradable/MarksheetV3.sol\":1024:1036  students[id] */\n      0x00\n        /* \"new marksheet-upgradable/MarksheetV3.sol\":1033:1035  id */\n      dup12\n        /* \"new marksheet-upgradable/MarksheetV3.sol\":1024:1036  students[id] */\n      dup2\n      mstore\n      0x20\n      add\n      swap1\n      dup2\n      mstore\n      0x20\n      add\n      0x00\n      keccak256\n        /* \"new marksheet-upgradable/MarksheetV3.sol\":1024:1264  students[id] = Student({... */\n      0x00\n      dup3\n      add\n      mload\n      dup2\n      0x00\n      add\n      swap1\n      dup2\n      tag_56\n      swap2\n      swap1\n      tag_57\n      jump\t// in\n    tag_56:\n      pop\n      0x20\n      dup3\n      add\n      mload\n      dup2\n      0x01\n      add\n      sstore\n      0x40\n      dup3\n      add\n      mload\n      dup2\n      0x02\n      add\n      sstore\n      0x60\n      dup3\n      add\n      mload\n      dup2\n      0x03\n      add\n      sstore\n      0x80\n      dup3\n      add\n      mload\n      dup2\n      0x04\n      add\n      sstore\n      0xa0\n      dup3\n      add\n      mload\n      dup2\n      0x05\n      add\n      sstore\n      0xc0\n      dup3\n      add\n      mload\n      dup2\n      0x06\n      add\n      exp(0x0100, 0x00)\n      dup2\n      sload\n      dup2\n      0xff\n      mul\n      not\n      and\n      swap1\n      dup4\n      iszero\n      iszero\n      mul\n      or\n      swap1\n      sstore\n      pop\n      swap1\n      pop\n      pop\n        /* \"new marksheet-upgradable/MarksheetV3.sol\":610:1272  {... */\n      pop\n      pop\n      pop\n        /* \"new marksheet-upgradable/MarksheetV3.sol\":434:1272  function addOrUpdateStudent(... */\n      pop\n      pop\n      pop\n      pop\n      pop\n      pop\n      jump\t// out\n        /* \"#utility.yul\":7:82   */\n    tag_58:\n        /* \"#utility.yul\":40:46   */\n      0x00\n        /* \"#utility.yul\":73:75   */\n      0x40\n        /* \"#utility.yul\":67:76   */\n      mload\n        /* \"#utility.yul\":57:76   */\n      swap1\n      pop\n        /* \"#utility.yul\":7:82   */\n      swap1\n      jump\t// out\n        /* \"#utility.yul\":88:205   */\n    tag_59:\n        /* \"#utility.yul\":197:198   */\n      0x00\n        /* \"#utility.yul\":194:195   */\n      0x00\n        /* \"#utility.yul\":187:199   */\n      revert\n        /* \"#utility.yul\":211:328   */\n    tag_60:\n        /* \"#utility.yul\":320:321   */\n      0x00\n        /* \"#utility.yul\":317:318   */\n      0x00\n        /* \"#utility.yul\":310:322   */\n      revert\n        /* \"#utility.yul\":334:411   */\n    tag_61:\n        /* \"#utility.yul\":371:378   */\n      0x00\n        /* \"#utility.yul\":400:405   */\n      dup2\n        /* \"#utility.yul\":389:405   */\n      swap1\n      pop\n        /* \"#utility.yul\":334:411   */\n      swap2\n      swap1\n      pop\n      jump\t// out\n        /* \"#utility.yul\":417:539   */\n    tag_62:\n        /* \"#utility.yul\":490:514   */\n      tag_113\n        /* \"#utility.yul\":508:513   */\n      dup2\n        /* \"#utility.yul\":490:514   */\n      tag_61\n      jump\t// in\n    tag_113:\n        /* \"#utility.yul\":483:488   */\n      dup2\n        /* \"#utility.yul\":480:515   */\n      eq\n        /* \"#utility.yul\":470:533   */\n      tag_114\n      jumpi\n        /* \"#utility.yul\":529:530   */\n      0x00\n        /* \"#utility.yul\":526:527   */\n      0x00\n        /* \"#utility.yul\":519:531   */\n      revert\n        /* \"#utility.yul\":470:533   */\n    tag_114:\n        /* \"#utility.yul\":417:539   */\n      pop\n      jump\t// out\n        /* \"#utility.yul\":545:684   */\n    tag_63:\n        /* \"#utility.yul\":591:596   */\n      0x00\n        /* \"#utility.yul\":629:635   */\n      dup2\n        /* \"#utility.yul\":616:636   */\n      calldataload\n        /* \"#utility.yul\":607:636   */\n      swap1\n      pop\n        /* \"#utility.yul\":645:678   */\n      tag_116\n        /* \"#utility.yul\":672:677   */\n      dup2\n        /* \"#utility.yul\":645:678   */\n      tag_62\n      jump\t// in\n    tag_116:\n        /* \"#utility.yul\":545:684   */\n      swap3\n      swap2\n      pop\n      pop\n      jump\t// out\n        /* \"#utility.yul\":690:1019   */\n    tag_8:\n        /* \"#utility.yul\":749:755   */\n      0x00\n        /* \"#utility.yul\":798:800   */\n      0x20\n        /* \"#utility.yul\":786:795   */\n      dup3\n        /* \"#utility.yul\":777:784   */\n      dup5\n        /* \"#utility.yul\":773:796   */\n      sub\n        /* \"#utility.yul\":769:801   */\n      slt\n        /* \"#utility.yul\":766:885   */\n      iszero\n      tag_118\n      jumpi\n        /* \"#utility.yul\":804:883   */\n      tag_119\n      tag_59\n      jump\t// in\n    tag_119:\n        /* \"#utility.yul\":766:885   */\n    tag_118:\n        /* \"#utility.yul\":924:925   */\n      0x00\n        /* \"#utility.yul\":949:1002   */\n      tag_120\n        /* \"#utility.yul\":994:1001   */\n      dup5\n        /* \"#utility.yul\":985:991   */\n      dup3\n        /* \"#utility.yul\":974:983   */\n      dup6\n        /* \"#utility.yul\":970:992   */\n      add\n        /* \"#utility.yul\":949:1002   */\n      tag_63\n      jump\t// in\n    tag_120:\n        /* \"#utility.yul\":939:1002   */\n      swap2\n      pop\n        /* \"#utility.yul\":895:1012   */\n      pop\n        /* \"#utility.yul\":690:1019   */\n      swap3\n      swap2\n      pop\n      pop\n      jump\t// out\n        /* \"#utility.yul\":1025:1124   */\n    tag_64:\n        /* \"#utility.yul\":1077:1083   */\n      0x00\n        /* \"#utility.yul\":1111:1116   */\n      dup2\n        /* \"#utility.yul\":1105:1117   */\n      mload\n        /* \"#utility.yul\":1095:1117   */\n      swap1\n      pop\n        /* \"#utility.yul\":1025:1124   */\n      swap2\n      swap1\n      pop\n      jump\t// out\n        /* \"#utility.yul\":1130:1299   */\n    tag_65:\n        /* \"#utility.yul\":1214:1225   */\n      0x00\n        /* \"#utility.yul\":1248:1254   */\n      dup3\n        /* \"#utility.yul\":1243:1246   */\n      dup3\n        /* \"#utility.yul\":1236:1255   */\n      mstore\n        /* \"#utility.yul\":1288:1292   */\n      0x20\n        /* \"#utility.yul\":1283:1286   */\n      dup3\n        /* \"#utility.yul\":1279:1293   */\n      add\n        /* \"#utility.yul\":1264:1293   */\n      swap1\n      pop\n        /* \"#utility.yul\":1130:1299   */\n      swap3\n      swap2\n      pop\n      pop\n      jump\t// out\n        /* \"#utility.yul\":1305:1444   */\n    tag_66:\n        /* \"#utility.yul\":1394:1400   */\n      dup3\n        /* \"#utility.yul\":1389:1392   */\n      dup2\n        /* \"#utility.yul\":1384:1387   */\n      dup4\n        /* \"#utility.yul\":1378:1401   */\n      mcopy\n        /* \"#utility.yul\":1435:1436   */\n      0x00\n        /* \"#utility.yul\":1426:1432   */\n      dup4\n        /* \"#utility.yul\":1421:1424   */\n      dup4\n        /* \"#utility.yul\":1417:1433   */\n      add\n        /* \"#utility.yul\":1410:1437   */\n      mstore\n        /* \"#utility.yul\":1305:1444   */\n      pop\n      pop\n      pop\n      jump\t// out\n        /* \"#utility.yul\":1450:1552   */\n    tag_67:\n        /* \"#utility.yul\":1491:1497   */\n      0x00\n        /* \"#utility.yul\":1542:1544   */\n      0x1f\n        /* \"#utility.yul\":1538:1545   */\n      not\n        /* \"#utility.yul\":1533:1535   */\n      0x1f\n        /* \"#utility.yul\":1526:1531   */\n      dup4\n        /* \"#utility.yul\":1522:1536   */\n      add\n        /* \"#utility.yul\":1518:1546   */\n      and\n        /* \"#utility.yul\":1508:1546   */\n      swap1\n      pop\n        /* \"#utility.yul\":1450:1552   */\n      swap2\n      swap1\n      pop\n      jump\t// out\n        /* \"#utility.yul\":1558:1935   */\n    tag_68:\n        /* \"#utility.yul\":1646:1649   */\n      0x00\n        /* \"#utility.yul\":1674:1713   */\n      tag_126\n        /* \"#utility.yul\":1707:1712   */\n      dup3\n        /* \"#utility.yul\":1674:1713   */\n      tag_64\n      jump\t// in\n    tag_126:\n        /* \"#utility.yul\":1729:1800   */\n      tag_127\n        /* \"#utility.yul\":1793:1799   */\n      dup2\n        /* \"#utility.yul\":1788:1791   */\n      dup6\n        /* \"#utility.yul\":1729:1800   */\n      tag_65\n      jump\t// in\n    tag_127:\n        /* \"#utility.yul\":1722:1800   */\n      swap4\n      pop\n        /* \"#utility.yul\":1809:1874   */\n      tag_128\n        /* \"#utility.yul\":1867:1873   */\n      dup2\n        /* \"#utility.yul\":1862:1865   */\n      dup6\n        /* \"#utility.yul\":1855:1859   */\n      0x20\n        /* \"#utility.yul\":1848:1853   */\n      dup7\n        /* \"#utility.yul\":1844:1860   */\n      add\n        /* \"#utility.yul\":1809:1874   */\n      tag_66\n      jump\t// in\n    tag_128:\n        /* \"#utility.yul\":1899:1928   */\n      tag_129\n        /* \"#utility.yul\":1921:1927   */\n      dup2\n        /* \"#utility.yul\":1899:1928   */\n      tag_67\n      jump\t// in\n    tag_129:\n        /* \"#utility.yul\":1894:1897   */\n      dup5\n        /* \"#utility.yul\":1890:1929   */\n      add\n        /* \"#utility.yul\":1883:1929   */\n      swap2\n      pop\n        /* \"#utility.yul\":1650:1935   */\n      pop\n        /* \"#utility.yul\":1558:1935   */\n      swap3\n      swap2\n      pop\n      pop\n      jump\t// out\n        /* \"#utility.yul\":1941:2059   */\n    tag_69:\n        /* \"#utility.yul\":2028:2052   */\n      tag_131\n        /* \"#utility.yul\":2046:2051   */\n      dup2\n        /* \"#utility.yul\":2028:2052   */\n      tag_61\n      jump\t// in\n    tag_131:\n        /* \"#utility.yul\":2023:2026   */\n      dup3\n        /* \"#utility.yul\":2016:2053   */\n      mstore\n        /* \"#utility.yul\":1941:2059   */\n      pop\n      pop\n      jump\t// out\n        /* \"#utility.yul\":2065:2155   */\n    tag_70:\n        /* \"#utility.yul\":2099:2106   */\n      0x00\n        /* \"#utility.yul\":2142:2147   */\n      dup2\n        /* \"#utility.yul\":2135:2148   */\n      iszero\n        /* \"#utility.yul\":2128:2149   */\n      iszero\n        /* \"#utility.yul\":2117:2149   */\n      swap1\n      pop\n        /* \"#utility.yul\":2065:2155   */\n      swap2\n      swap1\n      pop\n      jump\t// out\n        /* \"#utility.yul\":2161:2270   */\n    tag_71:\n        /* \"#utility.yul\":2242:2263   */\n      tag_134\n        /* \"#utility.yul\":2257:2262   */\n      dup2\n        /* \"#utility.yul\":2242:2263   */\n      tag_70\n      jump\t// in\n    tag_134:\n        /* \"#utility.yul\":2237:2240   */\n      dup3\n        /* \"#utility.yul\":2230:2264   */\n      mstore\n        /* \"#utility.yul\":2161:2270   */\n      pop\n      pop\n      jump\t// out\n        /* \"#utility.yul\":2276:3241   */\n    tag_11:\n        /* \"#utility.yul\":2551:2555   */\n      0x00\n        /* \"#utility.yul\":2589:2592   */\n      0xe0\n        /* \"#utility.yul\":2578:2587   */\n      dup3\n        /* \"#utility.yul\":2574:2593   */\n      add\n        /* \"#utility.yul\":2566:2593   */\n      swap1\n      pop\n        /* \"#utility.yul\":2639:2648   */\n      dup2\n        /* \"#utility.yul\":2633:2637   */\n      dup2\n        /* \"#utility.yul\":2629:2649   */\n      sub\n        /* \"#utility.yul\":2625:2626   */\n      0x00\n        /* \"#utility.yul\":2614:2623   */\n      dup4\n        /* \"#utility.yul\":2610:2627   */\n      add\n        /* \"#utility.yul\":2603:2650   */\n      mstore\n        /* \"#utility.yul\":2667:2745   */\n      tag_136\n        /* \"#utility.yul\":2740:2744   */\n      dup2\n        /* \"#utility.yul\":2731:2737   */\n      dup11\n        /* \"#utility.yul\":2667:2745   */\n      tag_68\n      jump\t// in\n    tag_136:\n        /* \"#utility.yul\":2659:2745   */\n      swap1\n      pop\n        /* \"#utility.yul\":2755:2827   */\n      tag_137\n        /* \"#utility.yul\":2823:2825   */\n      0x20\n        /* \"#utility.yul\":2812:2821   */\n      dup4\n        /* \"#utility.yul\":2808:2826   */\n      add\n        /* \"#utility.yul\":2799:2805   */\n      dup10\n        /* \"#utility.yul\":2755:2827   */\n      tag_69\n      jump\t// in\n    tag_137:\n        /* \"#utility.yul\":2837:2909   */\n      tag_138\n        /* \"#utility.yul\":2905:2907   */\n      0x40\n        /* \"#utility.yul\":2894:2903   */\n      dup4\n        /* \"#utility.yul\":2890:2908   */\n      add\n        /* \"#utility.yul\":2881:2887   */\n      dup9\n        /* \"#utility.yul\":2837:2909   */\n      tag_69\n      jump\t// in\n    tag_138:\n        /* \"#utility.yul\":2919:2991   */\n      tag_139\n        /* \"#utility.yul\":2987:2989   */\n      0x60\n        /* \"#utility.yul\":2976:2985   */\n      dup4\n        /* \"#utility.yul\":2972:2990   */\n      add\n        /* \"#utility.yul\":2963:2969   */\n      dup8\n        /* \"#utility.yul\":2919:2991   */\n      tag_69\n      jump\t// in\n    tag_139:\n        /* \"#utility.yul\":3001:3074   */\n      tag_140\n        /* \"#utility.yul\":3069:3072   */\n      0x80\n        /* \"#utility.yul\":3058:3067   */\n      dup4\n        /* \"#utility.yul\":3054:3073   */\n      add\n        /* \"#utility.yul\":3045:3051   */\n      dup7\n        /* \"#utility.yul\":3001:3074   */\n      tag_69\n      jump\t// in\n    tag_140:\n        /* \"#utility.yul\":3084:3157   */\n      tag_141\n        /* \"#utility.yul\":3152:3155   */\n      0xa0\n        /* \"#utility.yul\":3141:3150   */\n      dup4\n        /* \"#utility.yul\":3137:3156   */\n      add\n        /* \"#utility.yul\":3128:3134   */\n      dup6\n        /* \"#utility.yul\":3084:3157   */\n      tag_69\n      jump\t// in\n    tag_141:\n        /* \"#utility.yul\":3167:3234   */\n      tag_142\n        /* \"#utility.yul\":3229:3232   */\n      0xc0\n        /* \"#utility.yul\":3218:3227   */\n      dup4\n        /* \"#utility.yul\":3214:3233   */\n      add\n        /* \"#utility.yul\":3205:3211   */\n      dup5\n        /* \"#utility.yul\":3167:3234   */\n      tag_71\n      jump\t// in\n    tag_142:\n        /* \"#utility.yul\":2276:3241   */\n      swap9\n      swap8\n      pop\n      pop\n      pop\n      pop\n      pop\n      pop\n      pop\n      pop\n      jump\t// out\n        /* \"#utility.yul\":3247:3721   */\n    tag_14:\n        /* \"#utility.yul\":3315:3321   */\n      0x00\n        /* \"#utility.yul\":3323:3329   */\n      0x00\n        /* \"#utility.yul\":3372:3374   */\n      0x40\n        /* \"#utility.yul\":3360:3369   */\n      dup4\n        /* \"#utility.yul\":3351:3358   */\n      dup6\n        /* \"#utility.yul\":3347:3370   */\n      sub\n        /* \"#utility.yul\":3343:3375   */\n      slt\n        /* \"#utility.yul\":3340:3459   */\n      iszero\n      tag_144\n      jumpi\n        /* \"#utility.yul\":3378:3457   */\n      tag_145\n      tag_59\n      jump\t// in\n    tag_145:\n        /* \"#utility.yul\":3340:3459   */\n    tag_144:\n        /* \"#utility.yul\":3498:3499   */\n      0x00\n        /* \"#utility.yul\":3523:3576   */\n      tag_146\n        /* \"#utility.yul\":3568:3575   */\n      dup6\n        /* \"#utility.yul\":3559:3565   */\n      dup3\n        /* \"#utility.yul\":3548:3557   */\n      dup7\n        /* \"#utility.yul\":3544:3566   */\n      add\n        /* \"#utility.yul\":3523:3576   */\n      tag_63\n      jump\t// in\n    tag_146:\n        /* \"#utility.yul\":3513:3576   */\n      swap3\n      pop\n        /* \"#utility.yul\":3469:3586   */\n      pop\n        /* \"#utility.yul\":3625:3627   */\n      0x20\n        /* \"#utility.yul\":3651:3704   */\n      tag_147\n        /* \"#utility.yul\":3696:3703   */\n      dup6\n        /* \"#utility.yul\":3687:3693   */\n      dup3\n        /* \"#utility.yul\":3676:3685   */\n      dup7\n        /* \"#utility.yul\":3672:3694   */\n      add\n        /* \"#utility.yul\":3651:3704   */\n      tag_63\n      jump\t// in\n    tag_147:\n        /* \"#utility.yul\":3641:3704   */\n      swap2\n      pop\n        /* \"#utility.yul\":3596:3714   */\n      pop\n        /* \"#utility.yul\":3247:3721   */\n      swap3\n      pop\n      swap3\n      swap1\n      pop\n      jump\t// out\n        /* \"#utility.yul\":3727:3844   */\n    tag_72:\n        /* \"#utility.yul\":3836:3837   */\n      0x00\n        /* \"#utility.yul\":3833:3834   */\n      0x00\n        /* \"#utility.yul\":3826:3838   */\n      revert\n        /* \"#utility.yul\":3850:3967   */\n    tag_73:\n        /* \"#utility.yul\":3959:3960   */\n      0x00\n        /* \"#utility.yul\":3956:3957   */\n      0x00\n        /* \"#utility.yul\":3949:3961   */\n      revert\n        /* \"#utility.yul\":3973:4153   */\n    tag_74:\n        /* \"#utility.yul\":4021:4098   */\n      0x4e487b7100000000000000000000000000000000000000000000000000000000\n        /* \"#utility.yul\":4018:4019   */\n      0x00\n        /* \"#utility.yul\":4011:4099   */\n      mstore\n        /* \"#utility.yul\":4118:4122   */\n      0x41\n        /* \"#utility.yul\":4115:4116   */\n      0x04\n        /* \"#utility.yul\":4108:4123   */\n      mstore\n        /* \"#utility.yul\":4142:4146   */\n      0x24\n        /* \"#utility.yul\":4139:4140   */\n      0x00\n        /* \"#utility.yul\":4132:4147   */\n      revert\n        /* \"#utility.yul\":4159:4440   */\n    tag_75:\n        /* \"#utility.yul\":4242:4269   */\n      tag_152\n        /* \"#utility.yul\":4264:4268   */\n      dup3\n        /* \"#utility.yul\":4242:4269   */\n      tag_67\n      jump\t// in\n    tag_152:\n        /* \"#utility.yul\":4234:4240   */\n      dup2\n        /* \"#utility.yul\":4230:4270   */\n      add\n        /* \"#utility.yul\":4372:4378   */\n      dup2\n        /* \"#utility.yul\":4360:4370   */\n      dup2\n        /* \"#utility.yul\":4357:4379   */\n      lt\n        /* \"#utility.yul\":4336:4354   */\n      0xffffffffffffffff\n        /* \"#utility.yul\":4324:4334   */\n      dup3\n        /* \"#utility.yul\":4321:4355   */\n      gt\n        /* \"#utility.yul\":4318:4380   */\n      or\n        /* \"#utility.yul\":4315:4403   */\n      iszero\n      tag_153\n      jumpi\n        /* \"#utility.yul\":4383:4401   */\n      tag_154\n      tag_74\n      jump\t// in\n    tag_154:\n        /* \"#utility.yul\":4315:4403   */\n    tag_153:\n        /* \"#utility.yul\":4423:4433   */\n      dup1\n        /* \"#utility.yul\":4419:4421   */\n      0x40\n        /* \"#utility.yul\":4412:4434   */\n      mstore\n        /* \"#utility.yul\":4202:4440   */\n      pop\n        /* \"#utility.yul\":4159:4440   */\n      pop\n      pop\n      jump\t// out\n        /* \"#utility.yul\":4446:4575   */\n    tag_76:\n        /* \"#utility.yul\":4480:4486   */\n      0x00\n        /* \"#utility.yul\":4507:4527   */\n      tag_156\n      tag_58\n      jump\t// in\n    tag_156:\n        /* \"#utility.yul\":4497:4527   */\n      swap1\n      pop\n        /* \"#utility.yul\":4536:4569   */\n      tag_157\n        /* \"#utility.yul\":4564:4568   */\n      dup3\n        /* \"#utility.yul\":4556:4562   */\n      dup3\n        /* \"#utility.yul\":4536:4569   */\n      tag_75\n      jump\t// in\n    tag_157:\n        /* \"#utility.yul\":4446:4575   */\n      swap2\n      swap1\n      pop\n      jump\t// out\n        /* \"#utility.yul\":4581:4889   */\n    tag_77:\n        /* \"#utility.yul\":4643:4647   */\n      0x00\n        /* \"#utility.yul\":4733:4751   */\n      0xffffffffffffffff\n        /* \"#utility.yul\":4725:4731   */\n      dup3\n        /* \"#utility.yul\":4722:4752   */\n      gt\n        /* \"#utility.yul\":4719:4775   */\n      iszero\n      tag_159\n      jumpi\n        /* \"#utility.yul\":4755:4773   */\n      tag_160\n      tag_74\n      jump\t// in\n    tag_160:\n        /* \"#utility.yul\":4719:4775   */\n    tag_159:\n        /* \"#utility.yul\":4793:4822   */\n      tag_161\n        /* \"#utility.yul\":4815:4821   */\n      dup3\n        /* \"#utility.yul\":4793:4822   */\n      tag_67\n      jump\t// in\n    tag_161:\n        /* \"#utility.yul\":4785:4822   */\n      swap1\n      pop\n        /* \"#utility.yul\":4877:4881   */\n      0x20\n        /* \"#utility.yul\":4871:4875   */\n      dup2\n        /* \"#utility.yul\":4867:4882   */\n      add\n        /* \"#utility.yul\":4859:4882   */\n      swap1\n      pop\n        /* \"#utility.yul\":4581:4889   */\n      swap2\n      swap1\n      pop\n      jump\t// out\n        /* \"#utility.yul\":4895:5043   */\n    tag_78:\n        /* \"#utility.yul\":4993:4999   */\n      dup3\n        /* \"#utility.yul\":4988:4991   */\n      dup2\n        /* \"#utility.yul\":4983:4986   */\n      dup4\n        /* \"#utility.yul\":4970:5000   */\n      calldatacopy\n        /* \"#utility.yul\":5034:5035   */\n      0x00\n        /* \"#utility.yul\":5025:5031   */\n      dup4\n        /* \"#utility.yul\":5020:5023   */\n      dup4\n        /* \"#utility.yul\":5016:5032   */\n      add\n        /* \"#utility.yul\":5009:5036   */\n      mstore\n        /* \"#utility.yul\":4895:5043   */\n      pop\n      pop\n      pop\n      jump\t// out\n        /* \"#utility.yul\":5049:5474   */\n    tag_79:\n        /* \"#utility.yul\":5127:5132   */\n      0x00\n        /* \"#utility.yul\":5152:5218   */\n      tag_164\n        /* \"#utility.yul\":5168:5217   */\n      tag_165\n        /* \"#utility.yul\":5210:5216   */\n      dup5\n        /* \"#utility.yul\":5168:5217   */\n      tag_77\n      jump\t// in\n    tag_165:\n        /* \"#utility.yul\":5152:5218   */\n      tag_76\n      jump\t// in\n    tag_164:\n        /* \"#utility.yul\":5143:5218   */\n      swap1\n      pop\n        /* \"#utility.yul\":5241:5247   */\n      dup3\n        /* \"#utility.yul\":5234:5239   */\n      dup2\n        /* \"#utility.yul\":5227:5248   */\n      mstore\n        /* \"#utility.yul\":5279:5283   */\n      0x20\n        /* \"#utility.yul\":5272:5277   */\n      dup2\n        /* \"#utility.yul\":5268:5284   */\n      add\n        /* \"#utility.yul\":5317:5320   */\n      dup5\n        /* \"#utility.yul\":5308:5314   */\n      dup5\n        /* \"#utility.yul\":5303:5306   */\n      dup5\n        /* \"#utility.yul\":5299:5315   */\n      add\n        /* \"#utility.yul\":5296:5321   */\n      gt\n        /* \"#utility.yul\":5293:5405   */\n      iszero\n      tag_166\n      jumpi\n        /* \"#utility.yul\":5324:5403   */\n      tag_167\n      tag_73\n      jump\t// in\n    tag_167:\n        /* \"#utility.yul\":5293:5405   */\n    tag_166:\n        /* \"#utility.yul\":5414:5468   */\n      tag_168\n        /* \"#utility.yul\":5461:5467   */\n      dup5\n        /* \"#utility.yul\":5456:5459   */\n      dup3\n        /* \"#utility.yul\":5451:5454   */\n      dup6\n        /* \"#utility.yul\":5414:5468   */\n      tag_78\n      jump\t// in\n    tag_168:\n        /* \"#utility.yul\":5133:5474   */\n      pop\n        /* \"#utility.yul\":5049:5474   */\n      swap4\n      swap3\n      pop\n      pop\n      pop\n      jump\t// out\n        /* \"#utility.yul\":5494:5834   */\n    tag_80:\n        /* \"#utility.yul\":5550:5555   */\n      0x00\n        /* \"#utility.yul\":5599:5602   */\n      dup3\n        /* \"#utility.yul\":5592:5596   */\n      0x1f\n        /* \"#utility.yul\":5584:5590   */\n      dup4\n        /* \"#utility.yul\":5580:5597   */\n      add\n        /* \"#utility.yul\":5576:5603   */\n      slt\n        /* \"#utility.yul\":5566:5688   */\n      tag_170\n      jumpi\n        /* \"#utility.yul\":5607:5686   */\n      tag_171\n      tag_72\n      jump\t// in\n    tag_171:\n        /* \"#utility.yul\":5566:5688   */\n    tag_170:\n        /* \"#utility.yul\":5724:5730   */\n      dup2\n        /* \"#utility.yul\":5711:5731   */\n      calldataload\n        /* \"#utility.yul\":5749:5828   */\n      tag_172\n        /* \"#utility.yul\":5824:5827   */\n      dup5\n        /* \"#utility.yul\":5816:5822   */\n      dup3\n        /* \"#utility.yul\":5809:5813   */\n      0x20\n        /* \"#utility.yul\":5801:5807   */\n      dup7\n        /* \"#utility.yul\":5797:5814   */\n      add\n        /* \"#utility.yul\":5749:5828   */\n      tag_79\n      jump\t// in\n    tag_172:\n        /* \"#utility.yul\":5740:5828   */\n      swap2\n      pop\n        /* \"#utility.yul\":5556:5834   */\n      pop\n        /* \"#utility.yul\":5494:5834   */\n      swap3\n      swap2\n      pop\n      pop\n      jump\t// out\n        /* \"#utility.yul\":5840:7077   */\n    tag_18:\n        /* \"#utility.yul\":5954:5960   */\n      0x00\n        /* \"#utility.yul\":5962:5968   */\n      0x00\n        /* \"#utility.yul\":5970:5976   */\n      0x00\n        /* \"#utility.yul\":5978:5984   */\n      0x00\n        /* \"#utility.yul\":5986:5992   */\n      0x00\n        /* \"#utility.yul\":5994:6000   */\n      0x00\n        /* \"#utility.yul\":6043:6046   */\n      0xc0\n        /* \"#utility.yul\":6031:6040   */\n      dup8\n        /* \"#utility.yul\":6022:6029   */\n      dup10\n        /* \"#utility.yul\":6018:6041   */\n      sub\n        /* \"#utility.yul\":6014:6047   */\n      slt\n        /* \"#utility.yul\":6011:6131   */\n      iszero\n      tag_174\n      jumpi\n        /* \"#utility.yul\":6050:6129   */\n      tag_175\n      tag_59\n      jump\t// in\n    tag_175:\n        /* \"#utility.yul\":6011:6131   */\n    tag_174:\n        /* \"#utility.yul\":6170:6171   */\n      0x00\n        /* \"#utility.yul\":6195:6248   */\n      tag_176\n        /* \"#utility.yul\":6240:6247   */\n      dup10\n        /* \"#utility.yul\":6231:6237   */\n      dup3\n        /* \"#utility.yul\":6220:6229   */\n      dup11\n        /* \"#utility.yul\":6216:6238   */\n      add\n        /* \"#utility.yul\":6195:6248   */\n      tag_63\n      jump\t// in\n    tag_176:\n        /* \"#utility.yul\":6185:6248   */\n      swap7\n      pop\n        /* \"#utility.yul\":6141:6258   */\n      pop\n        /* \"#utility.yul\":6325:6327   */\n      0x20\n        /* \"#utility.yul\":6314:6323   */\n      dup8\n        /* \"#utility.yul\":6310:6328   */\n      add\n        /* \"#utility.yul\":6297:6329   */\n      calldataload\n        /* \"#utility.yul\":6356:6374   */\n      0xffffffffffffffff\n        /* \"#utility.yul\":6348:6354   */\n      dup2\n        /* \"#utility.yul\":6345:6375   */\n      gt\n        /* \"#utility.yul\":6342:6459   */\n      iszero\n      tag_177\n      jumpi\n        /* \"#utility.yul\":6378:6457   */\n      tag_178\n      tag_60\n      jump\t// in\n    tag_178:\n        /* \"#utility.yul\":6342:6459   */\n    tag_177:\n        /* \"#utility.yul\":6483:6546   */\n      tag_179\n        /* \"#utility.yul\":6538:6545   */\n      dup10\n        /* \"#utility.yul\":6529:6535   */\n      dup3\n        /* \"#utility.yul\":6518:6527   */\n      dup11\n        /* \"#utility.yul\":6514:6536   */\n      add\n        /* \"#utility.yul\":6483:6546   */\n      tag_80\n      jump\t// in\n    tag_179:\n        /* \"#utility.yul\":6473:6546   */\n      swap6\n      pop\n        /* \"#utility.yul\":6268:6556   */\n      pop\n        /* \"#utility.yul\":6595:6597   */\n      0x40\n        /* \"#utility.yul\":6621:6674   */\n      tag_180\n        /* \"#utility.yul\":6666:6673   */\n      dup10\n        /* \"#utility.yul\":6657:6663   */\n      dup3\n        /* \"#utility.yul\":6646:6655   */\n      dup11\n        /* \"#utility.yul\":6642:6664   */\n      add\n        /* \"#utility.yul\":6621:6674   */\n      tag_63\n      jump\t// in\n    tag_180:\n        /* \"#utility.yul\":6611:6674   */\n      swap5\n      pop\n        /* \"#utility.yul\":6566:6684   */\n      pop\n        /* \"#utility.yul\":6723:6725   */\n      0x60\n        /* \"#utility.yul\":6749:6802   */\n      tag_181\n        /* \"#utility.yul\":6794:6801   */\n      dup10\n        /* \"#utility.yul\":6785:6791   */\n      dup3\n        /* \"#utility.yul\":6774:6783   */\n      dup11\n        /* \"#utility.yul\":6770:6792   */\n      add\n        /* \"#utility.yul\":6749:6802   */\n      tag_63\n      jump\t// in\n    tag_181:\n        /* \"#utility.yul\":6739:6802   */\n      swap4\n      pop\n        /* \"#utility.yul\":6694:6812   */\n      pop\n        /* \"#utility.yul\":6851:6854   */\n      0x80\n        /* \"#utility.yul\":6878:6931   */\n      tag_182\n        /* \"#utility.yul\":6923:6930   */\n      dup10\n        /* \"#utility.yul\":6914:6920   */\n      dup3\n        /* \"#utility.yul\":6903:6912   */\n      dup11\n        /* \"#utility.yul\":6899:6921   */\n      add\n        /* \"#utility.yul\":6878:6931   */\n      tag_63\n      jump\t// in\n    tag_182:\n        /* \"#utility.yul\":6868:6931   */\n      swap3\n      pop\n        /* \"#utility.yul\":6822:6941   */\n      pop\n        /* \"#utility.yul\":6980:6983   */\n      0xa0\n        /* \"#utility.yul\":7007:7060   */\n      tag_183\n        /* \"#utility.yul\":7052:7059   */\n      dup10\n        /* \"#utility.yul\":7043:7049   */\n      dup3\n        /* \"#utility.yul\":7032:7041   */\n      dup11\n        /* \"#utility.yul\":7028:7050   */\n      add\n        /* \"#utility.yul\":7007:7060   */\n      tag_63\n      jump\t// in\n    tag_183:\n        /* \"#utility.yul\":6997:7060   */\n      swap2\n      pop\n        /* \"#utility.yul\":6951:7070   */\n      pop\n        /* \"#utility.yul\":5840:7077   */\n      swap3\n      swap6\n      pop\n      swap3\n      swap6\n      pop\n      swap3\n      swap6\n      jump\t// out\n        /* \"#utility.yul\":7083:7263   */\n    tag_81:\n        /* \"#utility.yul\":7131:7208   */\n      0x4e487b7100000000000000000000000000000000000000000000000000000000\n        /* \"#utility.yul\":7128:7129   */\n      0x00\n        /* \"#utility.yul\":7121:7209   */\n      mstore\n        /* \"#utility.yul\":7228:7232   */\n      0x22\n        /* \"#utility.yul\":7225:7226   */\n      0x04\n        /* \"#utility.yul\":7218:7233   */\n      mstore\n        /* \"#utility.yul\":7252:7256   */\n      0x24\n        /* \"#utility.yul\":7249:7250   */\n      0x00\n        /* \"#utility.yul\":7242:7257   */\n      revert\n        /* \"#utility.yul\":7269:7589   */\n    tag_22:\n        /* \"#utility.yul\":7313:7319   */\n      0x00\n        /* \"#utility.yul\":7350:7351   */\n      0x02\n        /* \"#utility.yul\":7344:7348   */\n      dup3\n        /* \"#utility.yul\":7340:7352   */\n      div\n        /* \"#utility.yul\":7330:7352   */\n      swap1\n      pop\n        /* \"#utility.yul\":7397:7398   */\n      0x01\n        /* \"#utility.yul\":7391:7395   */\n      dup3\n        /* \"#utility.yul\":7387:7399   */\n      and\n        /* \"#utility.yul\":7418:7436   */\n      dup1\n        /* \"#utility.yul\":7408:7489   */\n      tag_186\n      jumpi\n        /* \"#utility.yul\":7474:7478   */\n      0x7f\n        /* \"#utility.yul\":7466:7472   */\n      dup3\n        /* \"#utility.yul\":7462:7479   */\n      and\n        /* \"#utility.yul\":7452:7479   */\n      swap2\n      pop\n        /* \"#utility.yul\":7408:7489   */\n    tag_186:\n        /* \"#utility.yul\":7536:7538   */\n      0x20\n        /* \"#utility.yul\":7528:7534   */\n      dup3\n        /* \"#utility.yul\":7525:7539   */\n      lt\n        /* \"#utility.yul\":7505:7523   */\n      dup2\n        /* \"#utility.yul\":7502:7540   */\n      sub\n        /* \"#utility.yul\":7499:7583   */\n      tag_187\n      jumpi\n        /* \"#utility.yul\":7555:7573   */\n      tag_188\n      tag_81\n      jump\t// in\n    tag_188:\n        /* \"#utility.yul\":7499:7583   */\n    tag_187:\n        /* \"#utility.yul\":7320:7589   */\n      pop\n        /* \"#utility.yul\":7269:7589   */\n      swap2\n      swap1\n      pop\n      jump\t// out\n        /* \"#utility.yul\":7595:7773   */\n    tag_82:\n        /* \"#utility.yul\":7735:7765   */\n      0x536369656e6365206d61726b73206d757374206265203c3d2031303000000000\n        /* \"#utility.yul\":7731:7732   */\n      0x00\n        /* \"#utility.yul\":7723:7729   */\n      dup3\n        /* \"#utility.yul\":7719:7733   */\n      add\n        /* \"#utility.yul\":7712:7766   */\n      mstore\n        /* \"#utility.yul\":7595:7773   */\n      pop\n      jump\t// out\n        /* \"#utility.yul\":7779:8145   */\n    tag_83:\n        /* \"#utility.yul\":7921:7924   */\n      0x00\n        /* \"#utility.yul\":7942:8009   */\n      tag_191\n        /* \"#utility.yul\":8006:8008   */\n      0x1c\n        /* \"#utility.yul\":8001:8004   */\n      dup4\n        /* \"#utility.yul\":7942:8009   */\n      tag_65\n      jump\t// in\n    tag_191:\n        /* \"#utility.yul\":7935:8009   */\n      swap2\n      pop\n        /* \"#utility.yul\":8018:8111   */\n      tag_192\n        /* \"#utility.yul\":8107:8110   */\n      dup3\n        /* \"#utility.yul\":8018:8111   */\n      tag_82\n      jump\t// in\n    tag_192:\n        /* \"#utility.yul\":8136:8138   */\n      0x20\n        /* \"#utility.yul\":8131:8134   */\n      dup3\n        /* \"#utility.yul\":8127:8139   */\n      add\n        /* \"#utility.yul\":8120:8139   */\n      swap1\n      pop\n        /* \"#utility.yul\":7779:8145   */\n      swap2\n      swap1\n      pop\n      jump\t// out\n        /* \"#utility.yul\":8151:8570   */\n    tag_30:\n        /* \"#utility.yul\":8317:8321   */\n      0x00\n        /* \"#utility.yul\":8355:8357   */\n      0x20\n        /* \"#utility.yul\":8344:8353   */\n      dup3\n        /* \"#utility.yul\":8340:8358   */\n      add\n        /* \"#utility.yul\":8332:8358   */\n      swap1\n      pop\n        /* \"#utility.yul\":8404:8413   */\n      dup2\n        /* \"#utility.yul\":8398:8402   */\n      dup2\n        /* \"#utility.yul\":8394:8414   */\n      sub\n        /* \"#utility.yul\":8390:8391   */\n      0x00\n        /* \"#utility.yul\":8379:8388   */\n      dup4\n        /* \"#utility.yul\":8375:8392   */\n      add\n        /* \"#utility.yul\":8368:8415   */\n      mstore\n        /* \"#utility.yul\":8432:8563   */\n      tag_194\n        /* \"#utility.yul\":8558:8562   */\n      dup2\n        /* \"#utility.yul\":8432:8563   */\n      tag_83\n      jump\t// in\n    tag_194:\n        /* \"#utility.yul\":8424:8563   */\n      swap1\n      pop\n        /* \"#utility.yul\":8151:8570   */\n      swap2\n      swap1\n      pop\n      jump\t// out\n        /* \"#utility.yul\":8576:8756   */\n    tag_84:\n        /* \"#utility.yul\":8624:8701   */\n      0x4e487b7100000000000000000000000000000000000000000000000000000000\n        /* \"#utility.yul\":8621:8622   */\n      0x00\n        /* \"#utility.yul\":8614:8702   */\n      mstore\n        /* \"#utility.yul\":8721:8725   */\n      0x11\n        /* \"#utility.yul\":8718:8719   */\n      0x04\n        /* \"#utility.yul\":8711:8726   */\n      mstore\n        /* \"#utility.yul\":8745:8749   */\n      0x24\n        /* \"#utility.yul\":8742:8743   */\n      0x00\n        /* \"#utility.yul\":8735:8750   */\n      revert\n        /* \"#utility.yul\":8762:8953   */\n    tag_32:\n        /* \"#utility.yul\":8802:8805   */\n      0x00\n        /* \"#utility.yul\":8821:8841   */\n      tag_197\n        /* \"#utility.yul\":8839:8840   */\n      dup3\n        /* \"#utility.yul\":8821:8841   */\n      tag_61\n      jump\t// in\n    tag_197:\n        /* \"#utility.yul\":8816:8841   */\n      swap2\n      pop\n        /* \"#utility.yul\":8855:8875   */\n      tag_198\n        /* \"#utility.yul\":8873:8874   */\n      dup4\n        /* \"#utility.yul\":8855:8875   */\n      tag_61\n      jump\t// in\n    tag_198:\n        /* \"#utility.yul\":8850:8875   */\n      swap3\n      pop\n        /* \"#utility.yul\":8898:8899   */\n      dup3\n        /* \"#utility.yul\":8895:8896   */\n      dup3\n        /* \"#utility.yul\":8891:8900   */\n      add\n        /* \"#utility.yul\":8884:8900   */\n      swap1\n      pop\n        /* \"#utility.yul\":8919:8922   */\n      dup1\n        /* \"#utility.yul\":8916:8917   */\n      dup3\n        /* \"#utility.yul\":8913:8923   */\n      gt\n        /* \"#utility.yul\":8910:8946   */\n      iszero\n      tag_199\n      jumpi\n        /* \"#utility.yul\":8926:8944   */\n      tag_200\n      tag_84\n      jump\t// in\n    tag_200:\n        /* \"#utility.yul\":8910:8946   */\n    tag_199:\n        /* \"#utility.yul\":8762:8953   */\n      swap3\n      swap2\n      pop\n      pop\n      jump\t// out\n        /* \"#utility.yul\":8959:9369   */\n    tag_36:\n        /* \"#utility.yul\":8999:9006   */\n      0x00\n        /* \"#utility.yul\":9022:9042   */\n      tag_202\n        /* \"#utility.yul\":9040:9041   */\n      dup3\n        /* \"#utility.yul\":9022:9042   */\n      tag_61\n      jump\t// in\n    tag_202:\n        /* \"#utility.yul\":9017:9042   */\n      swap2\n      pop\n        /* \"#utility.yul\":9056:9076   */\n      tag_203\n        /* \"#utility.yul\":9074:9075   */\n      dup4\n        /* \"#utility.yul\":9056:9076   */\n      tag_61\n      jump\t// in\n    tag_203:\n        /* \"#utility.yul\":9051:9076   */\n      swap3\n      pop\n        /* \"#utility.yul\":9111:9112   */\n      dup3\n        /* \"#utility.yul\":9108:9109   */\n      dup3\n        /* \"#utility.yul\":9104:9113   */\n      mul\n        /* \"#utility.yul\":9133:9163   */\n      tag_204\n        /* \"#utility.yul\":9151:9162   */\n      dup2\n        /* \"#utility.yul\":9133:9163   */\n      tag_61\n      jump\t// in\n    tag_204:\n        /* \"#utility.yul\":9122:9163   */\n      swap2\n      pop\n        /* \"#utility.yul\":9312:9313   */\n      dup3\n        /* \"#utility.yul\":9303:9310   */\n      dup3\n        /* \"#utility.yul\":9299:9314   */\n      div\n        /* \"#utility.yul\":9296:9297   */\n      dup5\n        /* \"#utility.yul\":9293:9315   */\n      eq\n        /* \"#utility.yul\":9273:9274   */\n      dup4\n        /* \"#utility.yul\":9266:9275   */\n      iszero\n        /* \"#utility.yul\":9246:9329   */\n      or\n        /* \"#utility.yul\":9223:9362   */\n      tag_205\n      jumpi\n        /* \"#utility.yul\":9342:9360   */\n      tag_206\n      tag_84\n      jump\t// in\n    tag_206:\n        /* \"#utility.yul\":9223:9362   */\n    tag_205:\n        /* \"#utility.yul\":9007:9369   */\n      pop\n        /* \"#utility.yul\":8959:9369   */\n      swap3\n      swap2\n      pop\n      pop\n      jump\t// out\n        /* \"#utility.yul\":9375:9555   */\n    tag_85:\n        /* \"#utility.yul\":9423:9500   */\n      0x4e487b7100000000000000000000000000000000000000000000000000000000\n        /* \"#utility.yul\":9420:9421   */\n      0x00\n        /* \"#utility.yul\":9413:9501   */\n      mstore\n        /* \"#utility.yul\":9520:9524   */\n      0x12\n        /* \"#utility.yul\":9517:9518   */\n      0x04\n        /* \"#utility.yul\":9510:9525   */\n      mstore\n        /* \"#utility.yul\":9544:9548   */\n      0x24\n        /* \"#utility.yul\":9541:9542   */\n      0x00\n        /* \"#utility.yul\":9534:9549   */\n      revert\n        /* \"#utility.yul\":9561:9746   */\n    tag_38:\n        /* \"#utility.yul\":9601:9602   */\n      0x00\n        /* \"#utility.yul\":9618:9638   */\n      tag_209\n        /* \"#utility.yul\":9636:9637   */\n      dup3\n        /* \"#utility.yul\":9618:9638   */\n      tag_61\n      jump\t// in\n    tag_209:\n        /* \"#utility.yul\":9613:9638   */\n      swap2\n      pop\n        /* \"#utility.yul\":9652:9672   */\n      tag_210\n        /* \"#utility.yul\":9670:9671   */\n      dup4\n        /* \"#utility.yul\":9652:9672   */\n      tag_61\n      jump\t// in\n    tag_210:\n        /* \"#utility.yul\":9647:9672   */\n      swap3\n      pop\n        /* \"#utility.yul\":9691:9692   */\n      dup3\n        /* \"#utility.yul\":9681:9716   */\n      tag_211\n      jumpi\n        /* \"#utility.yul\":9696:9714   */\n      tag_212\n      tag_85\n      jump\t// in\n    tag_212:\n        /* \"#utility.yul\":9681:9716   */\n    tag_211:\n        /* \"#utility.yul\":9738:9739   */\n      dup3\n        /* \"#utility.yul\":9735:9736   */\n      dup3\n        /* \"#utility.yul\":9731:9740   */\n      div\n        /* \"#utility.yul\":9726:9740   */\n      swap1\n      pop\n        /* \"#utility.yul\":9561:9746   */\n      swap3\n      swap2\n      pop\n      pop\n      jump\t// out\n        /* \"#utility.yul\":9752:9930   */\n    tag_86:\n        /* \"#utility.yul\":9892:9922   */\n      0x456e676c697368206d61726b73206d757374206265203c3d2031303000000000\n        /* \"#utility.yul\":9888:9889   */\n      0x00\n        /* \"#utility.yul\":9880:9886   */\n      dup3\n        /* \"#utility.yul\":9876:9890   */\n      add\n        /* \"#utility.yul\":9869:9923   */\n      mstore\n        /* \"#utility.yul\":9752:9930   */\n      pop\n      jump\t// out\n        /* \"#utility.yul\":9936:10302   */\n    tag_87:\n        /* \"#utility.yul\":10078:10081   */\n      0x00\n        /* \"#utility.yul\":10099:10166   */\n      tag_215\n        /* \"#utility.yul\":10163:10165   */\n      0x1c\n        /* \"#utility.yul\":10158:10161   */\n      dup4\n        /* \"#utility.yul\":10099:10166   */\n      tag_65\n      jump\t// in\n    tag_215:\n        /* \"#utility.yul\":10092:10166   */\n      swap2\n      pop\n        /* \"#utility.yul\":10175:10268   */\n      tag_216\n        /* \"#utility.yul\":10264:10267   */\n      dup3\n        /* \"#utility.yul\":10175:10268   */\n      tag_86\n      jump\t// in\n    tag_216:\n        /* \"#utility.yul\":10293:10295   */\n      0x20\n        /* \"#utility.yul\":10288:10291   */\n      dup3\n        /* \"#utility.yul\":10284:10296   */\n      add\n        /* \"#utility.yul\":10277:10296   */\n      swap1\n      pop\n        /* \"#utility.yul\":9936:10302   */\n      swap2\n      swap1\n      pop\n      jump\t// out\n        /* \"#utility.yul\":10308:10727   */\n    tag_42:\n        /* \"#utility.yul\":10474:10478   */\n      0x00\n        /* \"#utility.yul\":10512:10514   */\n      0x20\n        /* \"#utility.yul\":10501:10510   */\n      dup3\n        /* \"#utility.yul\":10497:10515   */\n      add\n        /* \"#utility.yul\":10489:10515   */\n      swap1\n      pop\n        /* \"#utility.yul\":10561:10570   */\n      dup2\n        /* \"#utility.yul\":10555:10559   */\n      dup2\n        /* \"#utility.yul\":10551:10571   */\n      sub\n        /* \"#utility.yul\":10547:10548   */\n      0x00\n        /* \"#utility.yul\":10536:10545   */\n      dup4\n        /* \"#utility.yul\":10532:10549   */\n      add\n        /* \"#utility.yul\":10525:10572   */\n      mstore\n        /* \"#utility.yul\":10589:10720   */\n      tag_218\n        /* \"#utility.yul\":10715:10719   */\n      dup2\n        /* \"#utility.yul\":10589:10720   */\n      tag_87\n      jump\t// in\n    tag_218:\n        /* \"#utility.yul\":10581:10720   */\n      swap1\n      pop\n        /* \"#utility.yul\":10308:10727   */\n      swap2\n      swap1\n      pop\n      jump\t// out\n        /* \"#utility.yul\":10733:10909   */\n    tag_88:\n        /* \"#utility.yul\":10873:10901   */\n      0x48696e6469206d61726b73206d757374206265203c3d20313030000000000000\n        /* \"#utility.yul\":10869:10870   */\n      0x00\n        /* \"#utility.yul\":10861:10867   */\n      dup3\n        /* \"#utility.yul\":10857:10871   */\n      add\n        /* \"#utility.yul\":10850:10902   */\n      mstore\n        /* \"#utility.yul\":10733:10909   */\n      pop\n      jump\t// out\n        /* \"#utility.yul\":10915:11281   */\n    tag_89:\n        /* \"#utility.yul\":11057:11060   */\n      0x00\n        /* \"#utility.yul\":11078:11145   */\n      tag_221\n        /* \"#utility.yul\":11142:11144   */\n      0x1a\n        /* \"#utility.yul\":11137:11140   */\n      dup4\n        /* \"#utility.yul\":11078:11145   */\n      tag_65\n      jump\t// in\n    tag_221:\n        /* \"#utility.yul\":11071:11145   */\n      swap2\n      pop\n        /* \"#utility.yul\":11154:11247   */\n      tag_222\n        /* \"#utility.yul\":11243:11246   */\n      dup3\n        /* \"#utility.yul\":11154:11247   */\n      tag_88\n      jump\t// in\n    tag_222:\n        /* \"#utility.yul\":11272:11274   */\n      0x20\n        /* \"#utility.yul\":11267:11270   */\n      dup3\n        /* \"#utility.yul\":11263:11275   */\n      add\n        /* \"#utility.yul\":11256:11275   */\n      swap1\n      pop\n        /* \"#utility.yul\":10915:11281   */\n      swap2\n      swap1\n      pop\n      jump\t// out\n        /* \"#utility.yul\":11287:11706   */\n    tag_45:\n        /* \"#utility.yul\":11453:11457   */\n      0x00\n        /* \"#utility.yul\":11491:11493   */\n      0x20\n        /* \"#utility.yul\":11480:11489   */\n      dup3\n        /* \"#utility.yul\":11476:11494   */\n      add\n        /* \"#utility.yul\":11468:11494   */\n      swap1\n      pop\n        /* \"#utility.yul\":11540:11549   */\n      dup2\n        /* \"#utility.yul\":11534:11538   */\n      dup2\n        /* \"#utility.yul\":11530:11550   */\n      sub\n        /* \"#utility.yul\":11526:11527   */\n      0x00\n        /* \"#utility.yul\":11515:11524   */\n      dup4\n        /* \"#utility.yul\":11511:11528   */\n      add\n        /* \"#utility.yul\":11504:11551   */\n      mstore\n        /* \"#utility.yul\":11568:11699   */\n      tag_224\n        /* \"#utility.yul\":11694:11698   */\n      dup2\n        /* \"#utility.yul\":11568:11699   */\n      tag_89\n      jump\t// in\n    tag_224:\n        /* \"#utility.yul\":11560:11699   */\n      swap1\n      pop\n        /* \"#utility.yul\":11287:11706   */\n      swap2\n      swap1\n      pop\n      jump\t// out\n        /* \"#utility.yul\":11712:11887   */\n    tag_90:\n        /* \"#utility.yul\":11852:11879   */\n      0x4d617468206d61726b73206d757374206265203c3d2031303000000000000000\n        /* \"#utility.yul\":11848:11849   */\n      0x00\n        /* \"#utility.yul\":11840:11846   */\n      dup3\n        /* \"#utility.yul\":11836:11850   */\n      add\n        /* \"#utility.yul\":11829:11880   */\n      mstore\n        /* \"#utility.yul\":11712:11887   */\n      pop\n      jump\t// out\n        /* \"#utility.yul\":11893:12259   */\n    tag_91:\n        /* \"#utility.yul\":12035:12038   */\n      0x00\n        /* \"#utility.yul\":12056:12123   */\n      tag_227\n        /* \"#utility.yul\":12120:12122   */\n      0x19\n        /* \"#utility.yul\":12115:12118   */\n      dup4\n        /* \"#utility.yul\":12056:12123   */\n      tag_65\n      jump\t// in\n    tag_227:\n        /* \"#utility.yul\":12049:12123   */\n      swap2\n      pop\n        /* \"#utility.yul\":12132:12225   */\n      tag_228\n        /* \"#utility.yul\":12221:12224   */\n      dup3\n        /* \"#utility.yul\":12132:12225   */\n      tag_90\n      jump\t// in\n    tag_228:\n        /* \"#utility.yul\":12250:12252   */\n      0x20\n        /* \"#utility.yul\":12245:12248   */\n      dup3\n        /* \"#utility.yul\":12241:12253   */\n      add\n        /* \"#utility.yul\":12234:12253   */\n      swap1\n      pop\n        /* \"#utility.yul\":11893:12259   */\n      swap2\n      swap1\n      pop\n      jump\t// out\n        /* \"#utility.yul\":12265:12684   */\n    tag_48:\n        /* \"#utility.yul\":12431:12435   */\n      0x00\n        /* \"#utility.yul\":12469:12471   */\n      0x20\n        /* \"#utility.yul\":12458:12467   */\n      dup3\n        /* \"#utility.yul\":12454:12472   */\n      add\n        /* \"#utility.yul\":12446:12472   */\n      swap1\n      pop\n        /* \"#utility.yul\":12518:12527   */\n      dup2\n        /* \"#utility.yul\":12512:12516   */\n      dup2\n        /* \"#utility.yul\":12508:12528   */\n      sub\n        /* \"#utility.yul\":12504:12505   */\n      0x00\n        /* \"#utility.yul\":12493:12502   */\n      dup4\n        /* \"#utility.yul\":12489:12506   */\n      add\n        /* \"#utility.yul\":12482:12529   */\n      mstore\n        /* \"#utility.yul\":12546:12677   */\n      tag_230\n        /* \"#utility.yul\":12672:12676   */\n      dup2\n        /* \"#utility.yul\":12546:12677   */\n      tag_91\n      jump\t// in\n    tag_230:\n        /* \"#utility.yul\":12538:12677   */\n      swap1\n      pop\n        /* \"#utility.yul\":12265:12684   */\n      swap2\n      swap1\n      pop\n      jump\t// out\n        /* \"#utility.yul\":12690:12831   */\n    tag_92:\n        /* \"#utility.yul\":12739:12743   */\n      0x00\n        /* \"#utility.yul\":12762:12765   */\n      dup2\n        /* \"#utility.yul\":12754:12765   */\n      swap1\n      pop\n        /* \"#utility.yul\":12785:12788   */\n      dup2\n        /* \"#utility.yul\":12782:12783   */\n      0x00\n        /* \"#utility.yul\":12775:12789   */\n      mstore\n        /* \"#utility.yul\":12819:12823   */\n      0x20\n        /* \"#utility.yul\":12816:12817   */\n      0x00\n        /* \"#utility.yul\":12806:12824   */\n      keccak256\n        /* \"#utility.yul\":12798:12824   */\n      swap1\n      pop\n        /* \"#utility.yul\":12690:12831   */\n      swap2\n      swap1\n      pop\n      jump\t// out\n        /* \"#utility.yul\":12837:12930   */\n    tag_93:\n        /* \"#utility.yul\":12874:12880   */\n      0x00\n        /* \"#utility.yul\":12921:12923   */\n      0x20\n        /* \"#utility.yul\":12916:12918   */\n      0x1f\n        /* \"#utility.yul\":12909:12914   */\n      dup4\n        /* \"#utility.yul\":12905:12919   */\n      add\n        /* \"#utility.yul\":12901:12924   */\n      div\n        /* \"#utility.yul\":12891:12924   */\n      swap1\n      pop\n        /* \"#utility.yul\":12837:12930   */\n      swap2\n      swap1\n      pop\n      jump\t// out\n        /* \"#utility.yul\":12936:13043   */\n    tag_94:\n        /* \"#utility.yul\":12980:12988   */\n      0x00\n        /* \"#utility.yul\":13030:13035   */\n      dup3\n        /* \"#utility.yul\":13024:13028   */\n      dup3\n        /* \"#utility.yul\":13020:13036   */\n      shl\n        /* \"#utility.yul\":12999:13036   */\n      swap1\n      pop\n        /* \"#utility.yul\":12936:13043   */\n      swap3\n      swap2\n      pop\n      pop\n      jump\t// out\n        /* \"#utility.yul\":13049:13442   */\n    tag_95:\n        /* \"#utility.yul\":13118:13124   */\n      0x00\n        /* \"#utility.yul\":13168:13169   */\n      0x08\n        /* \"#utility.yul\":13156:13166   */\n      dup4\n        /* \"#utility.yul\":13152:13170   */\n      mul\n        /* \"#utility.yul\":13191:13288   */\n      tag_235\n        /* \"#utility.yul\":13221:13287   */\n      0xffffffffffffffffffffffffffffffffffffffffffffffffffffffffffffffff\n        /* \"#utility.yul\":13210:13219   */\n      dup3\n        /* \"#utility.yul\":13191:13288   */\n      tag_94\n      jump\t// in\n    tag_235:\n        /* \"#utility.yul\":13309:13348   */\n      tag_236\n        /* \"#utility.yul\":13339:13347   */\n      dup7\n        /* \"#utility.yul\":13328:13337   */\n      dup4\n        /* \"#utility.yul\":13309:13348   */\n      tag_94\n      jump\t// in\n    tag_236:\n        /* \"#utility.yul\":13297:13348   */\n      swap6\n      pop\n        /* \"#utility.yul\":13381:13385   */\n      dup1\n        /* \"#utility.yul\":13377:13386   */\n      not\n        /* \"#utility.yul\":13370:13375   */\n      dup5\n        /* \"#utility.yul\":13366:13387   */\n      and\n        /* \"#utility.yul\":13357:13387   */\n      swap4\n      pop\n        /* \"#utility.yul\":13430:13434   */\n      dup1\n        /* \"#utility.yul\":13420:13428   */\n      dup7\n        /* \"#utility.yul\":13416:13435   */\n      and\n        /* \"#utility.yul\":13409:13414   */\n      dup5\n        /* \"#utility.yul\":13406:13436   */\n      or\n        /* \"#utility.yul\":13396:13436   */\n      swap3\n      pop\n        /* \"#utility.yul\":13125:13442   */\n      pop\n      pop\n        /* \"#utility.yul\":13049:13442   */\n      swap4\n      swap3\n      pop\n      pop\n      pop\n      jump\t// out\n        /* \"#utility.yul\":13448:13508   */\n    tag_96:\n        /* \"#utility.yul\":13476:13479   */\n      0x00\n        /* \"#utility.yul\":13497:13502   */\n      dup2\n        /* \"#utility.yul\":13490:13502   */\n      swap1\n      pop\n        /* \"#utility.yul\":13448:13508   */\n      swap2\n      swap1\n      pop\n      jump\t// out\n        /* \"#utility.yul\":13514:13656   */\n    tag_97:\n        /* \"#utility.yul\":13564:13573   */\n      0x00\n        /* \"#utility.yul\":13597:13650   */\n      tag_239\n        /* \"#utility.yul\":13615:13649   */\n      tag_240\n        /* \"#utility.yul\":13624:13648   */\n      tag_241\n        /* \"#utility.yul\":13642:13647   */\n      dup5\n        /* \"#utility.yul\":13624:13648   */\n      tag_61\n      jump\t// in\n    tag_241:\n        /* \"#utility.yul\":13615:13649   */\n      tag_96\n      jump\t// in\n    tag_240:\n        /* \"#utility.yul\":13597:13650   */\n      tag_61\n      jump\t// in\n    tag_239:\n        /* \"#utility.yul\":13584:13650   */\n      swap1\n      pop\n        /* \"#utility.yul\":13514:13656   */\n      swap2\n      swap1\n      pop\n      jump\t// out\n        /* \"#utility.yul\":13662:13737   */\n    tag_98:\n        /* \"#utility.yul\":13705:13708   */\n      0x00\n        /* \"#utility.yul\":13726:13731   */\n      dup2\n        /* \"#utility.yul\":13719:13731   */\n      swap1\n      pop\n        /* \"#utility.yul\":13662:13737   */\n      swap2\n      swap1\n      pop\n      jump\t// out\n        /* \"#utility.yul\":13743:14012   */\n    tag_99:\n        /* \"#utility.yul\":13853:13892   */\n      tag_244\n        /* \"#utility.yul\":13884:13891   */\n      dup4\n        /* \"#utility.yul\":13853:13892   */\n      tag_97\n      jump\t// in\n    tag_244:\n        /* \"#utility.yul\":13914:14005   */\n      tag_245\n        /* \"#utility.yul\":13963:14004   */\n      tag_246\n        /* \"#utility.yul\":13987:14003   */\n      dup3\n        /* \"#utility.yul\":13963:14004   */\n      tag_98\n      jump\t// in\n    tag_246:\n        /* \"#utility.yul\":13955:13961   */\n      dup5\n        /* \"#utility.yul\":13948:13952   */\n      dup5\n        /* \"#utility.yul\":13942:13953   */\n      sload\n        /* \"#utility.yul\":13914:14005   */\n      tag_95\n      jump\t// in\n    tag_245:\n        /* \"#utility.yul\":13908:13912   */\n      dup3\n        /* \"#utility.yul\":13901:14006   */\n      sstore\n        /* \"#utility.yul\":13819:14012   */\n      pop\n        /* \"#utility.yul\":13743:14012   */\n      pop\n      pop\n      pop\n      jump\t// out\n        /* \"#utility.yul\":14018:14091   */\n    tag_100:\n        /* \"#utility.yul\":14063:14066   */\n      0x00\n        /* \"#utility.yul\":14084:14085   */\n      0x00\n        /* \"#utility.yul\":14077:14085   */\n      swap1\n      pop\n        /* \"#utility.yul\":14018:14091   */\n      swap1\n      jump\t// out\n        /* \"#utility.yul\":14097:14286   */\n    tag_101:\n        /* \"#utility.yul\":14174:14206   */\n      tag_249\n      tag_100\n      jump\t// in\n    tag_249:\n        /* \"#utility.yul\":14215:14280   */\n      tag_250\n        /* \"#utility.yul\":14273:14279   */\n      dup2\n        /* \"#utility.yul\":14265:14271   */\n      dup5\n        /* \"#utility.yul\":14259:14263   */\n      dup5\n        /* \"#utility.yul\":14215:14280   */\n      tag_99\n      jump\t// in\n    tag_250:\n        /* \"#utility.yul\":14150:14286   */\n      pop\n        /* \"#utility.yul\":14097:14286   */\n      pop\n      pop\n      jump\t// out\n        /* \"#utility.yul\":14292:14478   */\n    tag_102:\n        /* \"#utility.yul\":14352:14472   */\n    tag_252:\n        /* \"#utility.yul\":14369:14372   */\n      dup2\n        /* \"#utility.yul\":14362:14367   */\n      dup2\n        /* \"#utility.yul\":14359:14373   */\n      lt\n        /* \"#utility.yul\":14352:14472   */\n      iszero\n      tag_254\n      jumpi\n        /* \"#utility.yul\":14423:14462   */\n      tag_255\n        /* \"#utility.yul\":14460:14461   */\n      0x00\n        /* \"#utility.yul\":14453:14458   */\n      dup3\n        /* \"#utility.yul\":14423:14462   */\n      tag_101\n      jump\t// in\n    tag_255:\n        /* \"#utility.yul\":14396:14397   */\n      0x01\n        /* \"#utility.yul\":14389:14394   */\n      dup2\n        /* \"#utility.yul\":14385:14398   */\n      add\n        /* \"#utility.yul\":14376:14398   */\n      swap1\n      pop\n        /* \"#utility.yul\":14352:14472   */\n      jump(tag_252)\n    tag_254:\n        /* \"#utility.yul\":14292:14478   */\n      pop\n      pop\n      jump\t// out\n        /* \"#utility.yul\":14484:15027   */\n    tag_103:\n        /* \"#utility.yul\":14585:14587   */\n      0x1f\n        /* \"#utility.yul\":14580:14583   */\n      dup3\n        /* \"#utility.yul\":14577:14588   */\n      gt\n        /* \"#utility.yul\":14574:15020   */\n      iszero\n      tag_257\n      jumpi\n        /* \"#utility.yul\":14619:14657   */\n      tag_258\n        /* \"#utility.yul\":14651:14656   */\n      dup2\n        /* \"#utility.yul\":14619:14657   */\n      tag_92\n      jump\t// in\n    tag_258:\n        /* \"#utility.yul\":14703:14732   */\n      tag_259\n        /* \"#utility.yul\":14721:14731   */\n      dup5\n        /* \"#utility.yul\":14703:14732   */\n      tag_93\n      jump\t// in\n    tag_259:\n        /* \"#utility.yul\":14693:14701   */\n      dup2\n        /* \"#utility.yul\":14689:14733   */\n      add\n        /* \"#utility.yul\":14886:14888   */\n      0x20\n        /* \"#utility.yul\":14874:14884   */\n      dup6\n        /* \"#utility.yul\":14871:14889   */\n      lt\n        /* \"#utility.yul\":14868:14917   */\n      iszero\n      tag_260\n      jumpi\n        /* \"#utility.yul\":14907:14915   */\n      dup2\n        /* \"#utility.yul\":14892:14915   */\n      swap1\n      pop\n        /* \"#utility.yul\":14868:14917   */\n    tag_260:\n        /* \"#utility.yul\":14930:15010   */\n      tag_261\n        /* \"#utility.yul\":14986:15008   */\n      tag_262\n        /* \"#utility.yul\":15004:15007   */\n      dup6\n        /* \"#utility.yul\":14986:15008   */\n      tag_93\n      jump\t// in\n    tag_262:\n        /* \"#utility.yul\":14976:14984   */\n      dup4\n        /* \"#utility.yul\":14972:15009   */\n      add\n        /* \"#utility.yul\":14959:14970   */\n      dup3\n        /* \"#utility.yul\":14930:15010   */\n      tag_102\n      jump\t// in\n    tag_261:\n        /* \"#utility.yul\":14589:15020   */\n      pop\n      pop\n        /* \"#utility.yul\":14574:15020   */\n    tag_257:\n        /* \"#utility.yul\":14484:15027   */\n      pop\n      pop\n      pop\n      jump\t// out\n        /* \"#utility.yul\":15033:15150   */\n    tag_104:\n        /* \"#utility.yul\":15087:15095   */\n      0x00\n        /* \"#utility.yul\":15137:15142   */\n      dup3\n        /* \"#utility.yul\":15131:15135   */\n      dup3\n        /* \"#utility.yul\":15127:15143   */\n      shr\n        /* \"#utility.yul\":15106:15143   */\n      swap1\n      pop\n        /* \"#utility.yul\":15033:15150   */\n      swap3\n      swap2\n      pop\n      pop\n      jump\t// out\n        /* \"#utility.yul\":15156:15325   */\n    tag_105:\n        /* \"#utility.yul\":15200:15206   */\n      0x00\n        /* \"#utility.yul\":15233:15284   */\n      tag_265\n        /* \"#utility.yul\":15281:15282   */\n      0x00\n        /* \"#utility.yul\":15277:15283   */\n      not\n        /* \"#utility.yul\":15269:15274   */\n      dup5\n        /* \"#utility.yul\":15266:15267   */\n      0x08\n        /* \"#utility.yul\":15262:15275   */\n      mul\n        /* \"#utility.yul\":15233:15284   */\n      tag_104\n      jump\t// in\n    tag_265:\n        /* \"#utility.yul\":15229:15285   */\n      not\n        /* \"#utility.yul\":15314:15318   */\n      dup1\n        /* \"#utility.yul\":15308:15312   */\n      dup4\n        /* \"#utility.yul\":15304:15319   */\n      and\n        /* \"#utility.yul\":15294:15319   */\n      swap2\n      pop\n        /* \"#utility.yul\":15207:15325   */\n      pop\n        /* \"#utility.yul\":15156:15325   */\n      swap3\n      swap2\n      pop\n      pop\n      jump\t// out\n        /* \"#utility.yul\":15330:15625   */\n    tag_106:\n        /* \"#utility.yul\":15406:15410   */\n      0x00\n        /* \"#utility.yul\":15552:15581   */\n      tag_267\n        /* \"#utility.yul\":15577:15580   */\n      dup4\n        /* \"#utility.yul\":15571:15575   */\n      dup4\n        /* \"#utility.yul\":15552:15581   */\n      tag_105\n      jump\t// in\n    tag_267:\n        /* \"#utility.yul\":15544:15581   */\n      swap2\n      pop\n        /* \"#utility.yul\":15614:15617   */\n      dup3\n        /* \"#utility.yul\":15611:15612   */\n      0x02\n        /* \"#utility.yul\":15607:15618   */\n      mul\n        /* \"#utility.yul\":15601:15605   */\n      dup3\n        /* \"#utility.yul\":15598:15619   */\n      or\n        /* \"#utility.yul\":15590:15619   */\n      swap1\n      pop\n        /* \"#utility.yul\":15330:15625   */\n      swap3\n      swap2\n      pop\n      pop\n      jump\t// out\n        /* \"#utility.yul\":15630:17025   */\n    tag_57:\n        /* \"#utility.yul\":15747:15784   */\n      tag_269\n        /* \"#utility.yul\":15780:15783   */\n      dup3\n        /* \"#utility.yul\":15747:15784   */\n      tag_64\n      jump\t// in\n    tag_269:\n        /* \"#utility.yul\":15849:15867   */\n      0xffffffffffffffff\n        /* \"#utility.yul\":15841:15847   */\n      dup2\n        /* \"#utility.yul\":15838:15868   */\n      gt\n        /* \"#utility.yul\":15835:15891   */\n      iszero\n      tag_270\n      jumpi\n        /* \"#utility.yul\":15871:15889   */\n      tag_271\n      tag_74\n      jump\t// in\n    tag_271:\n        /* \"#utility.yul\":15835:15891   */\n    tag_270:\n        /* \"#utility.yul\":15915:15953   */\n      tag_272\n        /* \"#utility.yul\":15947:15951   */\n      dup3\n        /* \"#utility.yul\":15941:15952   */\n      sload\n        /* \"#utility.yul\":15915:15953   */\n      tag_22\n      jump\t// in\n    tag_272:\n        /* \"#utility.yul\":16000:16067   */\n      tag_273\n        /* \"#utility.yul\":16060:16066   */\n      dup3\n        /* \"#utility.yul\":16052:16058   */\n      dup3\n        /* \"#utility.yul\":16046:16050   */\n      dup6\n        /* \"#utility.yul\":16000:16067   */\n      tag_103\n      jump\t// in\n    tag_273:\n        /* \"#utility.yul\":16094:16095   */\n      0x00\n        /* \"#utility.yul\":16118:16122   */\n      0x20\n        /* \"#utility.yul\":16105:16122   */\n      swap1\n      pop\n        /* \"#utility.yul\":16150:16152   */\n      0x1f\n        /* \"#utility.yul\":16142:16148   */\n      dup4\n        /* \"#utility.yul\":16139:16153   */\n      gt\n        /* \"#utility.yul\":16167:16168   */\n      0x01\n        /* \"#utility.yul\":16162:16780   */\n      dup2\n      eq\n      tag_275\n      jumpi\n        /* \"#utility.yul\":16824:16825   */\n      0x00\n        /* \"#utility.yul\":16841:16847   */\n      dup5\n        /* \"#utility.yul\":16838:16915   */\n      iszero\n      tag_276\n      jumpi\n        /* \"#utility.yul\":16890:16899   */\n      dup3\n        /* \"#utility.yul\":16885:16888   */\n      dup8\n        /* \"#utility.yul\":16881:16900   */\n      add\n        /* \"#utility.yul\":16875:16901   */\n      mload\n        /* \"#utility.yul\":16866:16901   */\n      swap1\n      pop\n        /* \"#utility.yul\":16838:16915   */\n    tag_276:\n        /* \"#utility.yul\":16941:17008   */\n      tag_277\n        /* \"#utility.yul\":17001:17007   */\n      dup6\n        /* \"#utility.yul\":16994:16999   */\n      dup3\n        /* \"#utility.yul\":16941:17008   */\n      tag_106\n      jump\t// in\n    tag_277:\n        /* \"#utility.yul\":16935:16939   */\n      dup7\n        /* \"#utility.yul\":16928:17009   */\n      sstore\n        /* \"#utility.yul\":16797:17019   */\n      pop\n        /* \"#utility.yul\":16132:17019   */\n      jump(tag_274)\n        /* \"#utility.yul\":16162:16780   */\n    tag_275:\n        /* \"#utility.yul\":16214:16218   */\n      0x1f\n        /* \"#utility.yul\":16210:16219   */\n      not\n        /* \"#utility.yul\":16202:16208   */\n      dup5\n        /* \"#utility.yul\":16198:16220   */\n      and\n        /* \"#utility.yul\":16248:16285   */\n      tag_278\n        /* \"#utility.yul\":16280:16284   */\n      dup7\n        /* \"#utility.yul\":16248:16285   */\n      tag_92\n      jump\t// in\n    tag_278:\n        /* \"#utility.yul\":16307:16308   */\n      0x00\n        /* \"#utility.yul\":16321:16529   */\n    tag_279:\n        /* \"#utility.yul\":16335:16342   */\n      dup3\n        /* \"#utility.yul\":16332:16333   */\n      dup2\n        /* \"#utility.yul\":16329:16343   */\n      lt\n        /* \"#utility.yul\":16321:16529   */\n      iszero\n      tag_281\n      jumpi\n        /* \"#utility.yul\":16414:16423   */\n      dup5\n        /* \"#utility.yul\":16409:16412   */\n      dup10\n        /* \"#utility.yul\":16405:16424   */\n      add\n        /* \"#utility.yul\":16399:16425   */\n      mload\n        /* \"#utility.yul\":16391:16397   */\n      dup3\n        /* \"#utility.yul\":16384:16426   */\n      sstore\n        /* \"#utility.yul\":16465:16466   */\n      0x01\n        /* \"#utility.yul\":16457:16463   */\n      dup3\n        /* \"#utility.yul\":16453:16467   */\n      add\n        /* \"#utility.yul\":16443:16467   */\n      swap2\n      pop\n        /* \"#utility.yul\":16512:16514   */\n      0x20\n        /* \"#utility.yul\":16501:16510   */\n      dup6\n        /* \"#utility.yul\":16497:16515   */\n      add\n        /* \"#utility.yul\":16484:16515   */\n      swap5\n      pop\n        /* \"#utility.yul\":16358:16362   */\n      0x20\n        /* \"#utility.yul\":16355:16356   */\n      dup2\n        /* \"#utility.yul\":16351:16363   */\n      add\n        /* \"#utility.yul\":16346:16363   */\n      swap1\n      pop\n        /* \"#utility.yul\":16321:16529   */\n      jump(tag_279)\n    tag_281:\n        /* \"#utility.yul\":16557:16563   */\n      dup7\n        /* \"#utility.yul\":16548:16555   */\n      dup4\n        /* \"#utility.yul\":16545:16564   */\n      lt\n        /* \"#utility.yul\":16542:16721   */\n      iszero\n      tag_282\n      jumpi\n        /* \"#utility.yul\":16615:16624   */\n      dup5\n        /* \"#utility.yul\":16610:16613   */\n      dup10\n        /* \"#utility.yul\":16606:16625   */\n      add\n        /* \"#utility.yul\":16600:16626   */\n      mload\n        /* \"#utility.yul\":16658:16706   */\n      tag_283\n        /* \"#utility.yul\":16700:16704   */\n      0x1f\n        /* \"#utility.yul\":16692:16698   */\n      dup10\n        /* \"#utility.yul\":16688:16705   */\n      and\n        /* \"#utility.yul\":16677:16686   */\n      dup3\n        /* \"#utility.yul\":16658:16706   */\n      tag_105\n      jump\t// in\n    tag_283:\n        /* \"#utility.yul\":16650:16656   */\n      dup4\n        /* \"#utility.yul\":16643:16707   */\n      sstore\n        /* \"#utility.yul\":16565:16721   */\n      pop\n        /* \"#utility.yul\":16542:16721   */\n    tag_282:\n        /* \"#utility.yul\":16767:16768   */\n      0x01\n        /* \"#utility.yul\":16763:16764   */\n      0x02\n        /* \"#utility.yul\":16755:16761   */\n      dup9\n        /* \"#utility.yul\":16751:16765   */\n      mul\n        /* \"#utility.yul\":16747:16769   */\n      add\n        /* \"#utility.yul\":16741:16745   */\n      dup9\n        /* \"#utility.yul\":16734:16770   */\n      sstore\n        /* \"#utility.yul\":16169:16780   */\n      pop\n      pop\n      pop\n        /* \"#utility.yul\":16132:17019   */\n    tag_274:\n      pop\n        /* \"#utility.yul\":15722:17025   */\n      pop\n      pop\n      pop\n        /* \"#utility.yul\":15630:17025   */\n      pop\n      pop\n      jump\t// out\n\n    auxdata: 0xa26469706673582212201b00e7c12ce06158f30216c728c8f22979038b1cbeef563413776368e3f5395664736f6c634300081b0033\n}\n",
				"bytecode": {
					"linkReferences": {},
					"object": "6080604052348015600e575f5ffd5b50610dba8061001c5f395ff3fe608060405234801561000f575f5ffd5b506004361061003f575f3560e01c8063642f916314610043578063d174b7fe14610079578063e7a41e3014610095575b5f5ffd5b61005d600480360381019061005891906104d3565b6100b1565b6040516100709796959493929190610597565b60405180910390f35b610093600480360381019061008e919061060b565b61019d565b005b6100af60048036038101906100aa9190610775565b61027d565b005b60605f5f5f5f5f5f5f5f5f8a81526020019081526020015f209050805f0181600101548260020154836003015484600501548560040154866006015f9054906101000a900460ff1686805461010590610847565b80601f016020809104026020016040519081016040528092919081815260200182805461013190610847565b801561017c5780601f106101535761010080835404028352916020019161017c565b820191905f5260205f20905b81548152906001019060200180831161015f57829003601f168201915b50505050509650975097509750975097509750975050919395979092949650565b60648111156101e1576040517f08c379a00000000000000000000000000000000000000000000000000000000081526004016101d8906108c1565b60405180910390fd5b5f5f5f8481526020019081526020015f2090508181600501819055505f816005015482600301548360020154846001015461021c919061090c565b610226919061090c565b610230919061090c565b9050610190606482610242919061093f565b61024c91906109ad565b8260040181905550603c82600401541015826006015f6101000a81548160ff02191690831515021790555050505050565b60648411156102c1576040517f08c379a00000000000000000000000000000000000000000000000000000000081526004016102b890610a27565b60405180910390fd5b6064831115610305576040517f08c379a00000000000000000000000000000000000000000000000000000000081526004016102fc90610a8f565b60405180910390fd5b6064821115610349576040517f08c379a000000000000000000000000000000000000000000000000000000000815260040161034090610af7565b60405180910390fd5b606481111561038d576040517f08c379a0000000000000000000000000000000000000000000000000000000008152600401610384906108c1565b60405180910390fd5b5f8183858761039c919061090c565b6103a6919061090c565b6103b0919061090c565b90505f6101906064836103c3919061093f565b6103cd91906109ad565b90505f603c82101590506040518060e001604052808981526020018881526020018781526020018681526020018381526020018581526020018215158152505f5f8b81526020019081526020015f205f820151815f01908161042f9190610cb5565b506020820151816001015560408201518160020155606082015181600301556080820151816004015560a0820151816005015560c0820151816006015f6101000a81548160ff021916908315150217905550905050505050505050505050565b5f604051905090565b5f5ffd5b5f5ffd5b5f819050919050565b6104b2816104a0565b81146104bc575f5ffd5b50565b5f813590506104cd816104a9565b92915050565b5f602082840312156104e8576104e7610498565b5b5f6104f5848285016104bf565b91505092915050565b5f81519050919050565b5f82825260208201905092915050565b8281835e5f83830152505050565b5f601f19601f8301169050919050565b5f610540826104fe565b61054a8185610508565b935061055a818560208601610518565b61056381610526565b840191505092915050565b610577816104a0565b82525050565b5f8115159050919050565b6105918161057d565b82525050565b5f60e0820190508181035f8301526105af818a610536565b90506105be602083018961056e565b6105cb604083018861056e565b6105d8606083018761056e565b6105e5608083018661056e565b6105f260a083018561056e565b6105ff60c0830184610588565b98975050505050505050565b5f5f6040838503121561062157610620610498565b5b5f61062e858286016104bf565b925050602061063f858286016104bf565b9150509250929050565b5f5ffd5b5f5ffd5b7f4e487b71000000000000000000000000000000000000000000000000000000005f52604160045260245ffd5b61068782610526565b810181811067ffffffffffffffff821117156106a6576106a5610651565b5b80604052505050565b5f6106b861048f565b90506106c4828261067e565b919050565b5f67ffffffffffffffff8211156106e3576106e2610651565b5b6106ec82610526565b9050602081019050919050565b828183375f83830152505050565b5f610719610714846106c9565b6106af565b9050828152602081018484840111156107355761073461064d565b5b6107408482856106f9565b509392505050565b5f82601f83011261075c5761075b610649565b5b813561076c848260208601610707565b91505092915050565b5f5f5f5f5f5f60c0878903121561078f5761078e610498565b5b5f61079c89828a016104bf565b965050602087013567ffffffffffffffff8111156107bd576107bc61049c565b5b6107c989828a01610748565b95505060406107da89828a016104bf565b94505060606107eb89828a016104bf565b93505060806107fc89828a016104bf565b92505060a061080d89828a016104bf565b9150509295509295509295565b7f4e487b71000000000000000000000000000000000000000000000000000000005f52602260045260245ffd5b5f600282049050600182168061085e57607f821691505b6020821081036108715761087061081a565b5b50919050565b7f536369656e6365206d61726b73206d757374206265203c3d20313030000000005f82015250565b5f6108ab601c83610508565b91506108b682610877565b602082019050919050565b5f6020820190508181035f8301526108d88161089f565b9050919050565b7f4e487b71000000000000000000000000000000000000000000000000000000005f52601160045260245ffd5b5f610916826104a0565b9150610921836104a0565b9250828201905080821115610939576109386108df565b5b92915050565b5f610949826104a0565b9150610954836104a0565b9250828202610962816104a0565b91508282048414831517610979576109786108df565b5b5092915050565b7f4e487b71000000000000000000000000000000000000000000000000000000005f52601260045260245ffd5b5f6109b7826104a0565b91506109c2836104a0565b9250826109d2576109d1610980565b5b828204905092915050565b7f456e676c697368206d61726b73206d757374206265203c3d20313030000000005f82015250565b5f610a11601c83610508565b9150610a1c826109dd565b602082019050919050565b5f6020820190508181035f830152610a3e81610a05565b9050919050565b7f48696e6469206d61726b73206d757374206265203c3d203130300000000000005f82015250565b5f610a79601a83610508565b9150610a8482610a45565b602082019050919050565b5f6020820190508181035f830152610aa681610a6d565b9050919050565b7f4d617468206d61726b73206d757374206265203c3d20313030000000000000005f82015250565b5f610ae1601983610508565b9150610aec82610aad565b602082019050919050565b5f6020820190508181035f830152610b0e81610ad5565b9050919050565b5f819050815f5260205f209050919050565b5f6020601f8301049050919050565b5f82821b905092915050565b5f60088302610b717fffffffffffffffffffffffffffffffffffffffffffffffffffffffffffffffff82610b36565b610b7b8683610b36565b95508019841693508086168417925050509392505050565b5f819050919050565b5f610bb6610bb1610bac846104a0565b610b93565b6104a0565b9050919050565b5f819050919050565b610bcf83610b9c565b610be3610bdb82610bbd565b848454610b42565b825550505050565b5f5f905090565b610bfa610beb565b610c05818484610bc6565b505050565b5b81811015610c2857610c1d5f82610bf2565b600181019050610c0b565b5050565b601f821115610c6d57610c3e81610b15565b610c4784610b27565b81016020851015610c56578190505b610c6a610c6285610b27565b830182610c0a565b50505b505050565b5f82821c905092915050565b5f610c8d5f1984600802610c72565b1980831691505092915050565b5f610ca58383610c7e565b9150826002028217905092915050565b610cbe826104fe565b67ffffffffffffffff811115610cd757610cd6610651565b5b610ce18254610847565b610cec828285610c2c565b5f60209050601f831160018114610d1d575f8415610d0b578287015190505b610d158582610c9a565b865550610d7c565b601f198416610d2b86610b15565b5f5b82811015610d5257848901518255600182019150602085019450602081019050610d2d565b86831015610d6f5784890151610d6b601f891682610c7e565b8355505b6001600288020188555050505b50505050505056fea26469706673582212201b00e7c12ce06158f30216c728c8f22979038b1cbeef563413776368e3f5395664736f6c634300081b0033",
					"opcodes": "PUSH1 0x80 PUSH1 0x40 MSTORE CALLVALUE DUP1 ISZERO PUSH1 0xE JUMPI PUSH0 PUSH0 REVERT JUMPDEST POP PUSH2 0xDBA DUP1 PUSH2 0x1C PUSH0 CODECOPY PUSH0 RETURN INVALID PUSH1 0x80 PUSH1 0x40 MSTORE CALLVALUE DUP1 ISZERO PUSH2 0xF JUMPI PUSH0 PUSH0 REVERT JUMPDEST POP PUSH1 0x4 CALLDATASIZE LT PUSH2 0x3F JUMPI PUSH0 CALLDATALOAD PUSH1 0xE0 SHR DUP1 PUSH4 0x642F9163 EQ PUSH2 0x43 JUMPI DUP1 PUSH4 0xD174B7FE EQ PUSH2 0x79 JUMPI DUP1 PUSH4 0xE7A41E30 EQ PUSH2 0x95 JUMPI JUMPDEST PUSH0 PUSH0 REVERT JUMPDEST PUSH2 0x5D PUSH1 0x4 DUP1 CALLDATASIZE SUB DUP2 ADD SWAP1 PUSH2 0x58 SWAP2 SWAP1 PUSH2 0x4D3 JUMP JUMPDEST PUSH2 0xB1 JUMP JUMPDEST PUSH1 0x40 MLOAD PUSH2 0x70 SWAP8 SWAP7 SWAP6 SWAP5 SWAP4 SWAP3 SWAP2 SWAP1 PUSH2 0x597 JUMP JUMPDEST PUSH1 0x40 MLOAD DUP1 SWAP2 SUB SWAP1 RETURN JUMPDEST PUSH2 0x93 PUSH1 0x4 DUP1 CALLDATASIZE SUB DUP2 ADD SWAP1 PUSH2 0x8E SWAP2 SWAP1 PUSH2 0x60B JUMP JUMPDEST PUSH2 0x19D JUMP JUMPDEST STOP JUMPDEST PUSH2 0xAF PUSH1 0x4 DUP1 CALLDATASIZE SUB DUP2 ADD SWAP1 PUSH2 0xAA SWAP2 SWAP1 PUSH2 0x775 JUMP JUMPDEST PUSH2 0x27D JUMP JUMPDEST STOP JUMPDEST PUSH1 0x60 PUSH0 PUSH0 PUSH0 PUSH0 PUSH0 PUSH0 PUSH0 PUSH0 PUSH0 DUP11 DUP2 MSTORE PUSH1 0x20 ADD SWAP1 DUP2 MSTORE PUSH1 0x20 ADD PUSH0 KECCAK256 SWAP1 POP DUP1 PUSH0 ADD DUP2 PUSH1 0x1 ADD SLOAD DUP3 PUSH1 0x2 ADD SLOAD DUP4 PUSH1 0x3 ADD SLOAD DUP5 PUSH1 0x5 ADD SLOAD DUP6 PUSH1 0x4 ADD SLOAD DUP7 PUSH1 0x6 ADD PUSH0 SWAP1 SLOAD SWAP1 PUSH2 0x100 EXP SWAP1 DIV PUSH1 0xFF AND DUP7 DUP1 SLOAD PUSH2 0x105 SWAP1 PUSH2 0x847 JUMP JUMPDEST DUP1 PUSH1 0x1F ADD PUSH1 0x20 DUP1 SWAP2 DIV MUL PUSH1 0x20 ADD PUSH1 0x40 MLOAD SWAP1 DUP2 ADD PUSH1 0x40 MSTORE DUP1 SWAP3 SWAP2 SWAP1 DUP2 DUP2 MSTORE PUSH1 0x20 ADD DUP3 DUP1 SLOAD PUSH2 0x131 SWAP1 PUSH2 0x847 JUMP JUMPDEST DUP1 ISZERO PUSH2 0x17C JUMPI DUP1 PUSH1 0x1F LT PUSH2 0x153 JUMPI PUSH2 0x100 DUP1 DUP4 SLOAD DIV MUL DUP4 MSTORE SWAP2 PUSH1 0x20 ADD SWAP2 PUSH2 0x17C JUMP JUMPDEST DUP3 ADD SWAP2 SWAP1 PUSH0 MSTORE PUSH1 0x20 PUSH0 KECCAK256 SWAP1 JUMPDEST DUP2 SLOAD DUP2 MSTORE SWAP1 PUSH1 0x1 ADD SWAP1 PUSH1 0x20 ADD DUP1 DUP4 GT PUSH2 0x15F JUMPI DUP3 SWAP1 SUB PUSH1 0x1F AND DUP3 ADD SWAP2 JUMPDEST POP POP POP POP POP SWAP7 POP SWAP8 POP SWAP8 POP SWAP8 POP SWAP8 POP SWAP8 POP SWAP8 POP SWAP8 POP POP SWAP2 SWAP4 SWAP6 SWAP8 SWAP1 SWAP3 SWAP5 SWAP7 POP JUMP JUMPDEST PUSH1 0x64 DUP2 GT ISZERO PUSH2 0x1E1 JUMPI PUSH1 0x40 MLOAD PUSH32 0x8C379A000000000000000000000000000000000000000000000000000000000 DUP2 MSTORE PUSH1 0x4 ADD PUSH2 0x1D8 SWAP1 PUSH2 0x8C1 JUMP JUMPDEST PUSH1 0x40 MLOAD DUP1 SWAP2 SUB SWAP1 REVERT JUMPDEST PUSH0 PUSH0 PUSH0 DUP5 DUP2 MSTORE PUSH1 0x20 ADD SWAP1 DUP2 MSTORE PUSH1 0x20 ADD PUSH0 KECCAK256 SWAP1 POP DUP2 DUP2 PUSH1 0x5 ADD DUP2 SWAP1 SSTORE POP PUSH0 DUP2 PUSH1 0x5 ADD SLOAD DUP3 PUSH1 0x3 ADD SLOAD DUP4 PUSH1 0x2 ADD SLOAD DUP5 PUSH1 0x1 ADD SLOAD PUSH2 0x21C SWAP2 SWAP1 PUSH2 0x90C JUMP JUMPDEST PUSH2 0x226 SWAP2 SWAP1 PUSH2 0x90C JUMP JUMPDEST PUSH2 0x230 SWAP2 SWAP1 PUSH2 0x90C JUMP JUMPDEST SWAP1 POP PUSH2 0x190 PUSH1 0x64 DUP3 PUSH2 0x242 SWAP2 SWAP1 PUSH2 0x93F JUMP JUMPDEST PUSH2 0x24C SWAP2 SWAP1 PUSH2 0x9AD JUMP JUMPDEST DUP3 PUSH1 0x4 ADD DUP2 SWAP1 SSTORE POP PUSH1 0x3C DUP3 PUSH1 0x4 ADD SLOAD LT ISZERO DUP3 PUSH1 0x6 ADD PUSH0 PUSH2 0x100 EXP DUP2 SLOAD DUP2 PUSH1 0xFF MUL NOT AND SWAP1 DUP4 ISZERO ISZERO MUL OR SWAP1 SSTORE POP POP POP POP POP JUMP JUMPDEST PUSH1 0x64 DUP5 GT ISZERO PUSH2 0x2C1 JUMPI PUSH1 0x40 MLOAD PUSH32 0x8C379A000000000000000000000000000000000000000000000000000000000 DUP2 MSTORE PUSH1 0x4 ADD PUSH2 0x2B8 SWAP1 PUSH2 0xA27 JUMP JUMPDEST PUSH1 0x40 MLOAD DUP1 SWAP2 SUB SWAP1 REVERT JUMPDEST PUSH1 0x64 DUP4 GT ISZERO PUSH2 0x305 JUMPI PUSH1 0x40 MLOAD PUSH32 0x8C379A000000000000000000000000000000000000000000000000000000000 DUP2 MSTORE PUSH1 0x4 ADD PUSH2 0x2FC SWAP1 PUSH2 0xA8F JUMP JUMPDEST PUSH1 0x40 MLOAD DUP1 SWAP2 SUB SWAP1 REVERT JUMPDEST PUSH1 0x64 DUP3 GT ISZERO PUSH2 0x349 JUMPI PUSH1 0x40 MLOAD PUSH32 0x8C379A000000000000000000000000000000000000000000000000000000000 DUP2 MSTORE PUSH1 0x4 ADD PUSH2 0x340 SWAP1 PUSH2 0xAF7 JUMP JUMPDEST PUSH1 0x40 MLOAD DUP1 SWAP2 SUB SWAP1 REVERT JUMPDEST PUSH1 0x64 DUP2 GT ISZERO PUSH2 0x38D JUMPI PUSH1 0x40 MLOAD PUSH32 0x8C379A000000000000000000000000000000000000000000000000000000000 DUP2 MSTORE PUSH1 0x4 ADD PUSH2 0x384 SWAP1 PUSH2 0x8C1 JUMP JUMPDEST PUSH1 0x40 MLOAD DUP1 SWAP2 SUB SWAP1 REVERT JUMPDEST PUSH0 DUP2 DUP4 DUP6 DUP8 PUSH2 0x39C SWAP2 SWAP1 PUSH2 0x90C JUMP JUMPDEST PUSH2 0x3A6 SWAP2 SWAP1 PUSH2 0x90C JUMP JUMPDEST PUSH2 0x3B0 SWAP2 SWAP1 PUSH2 0x90C JUMP JUMPDEST SWAP1 POP PUSH0 PUSH2 0x190 PUSH1 0x64 DUP4 PUSH2 0x3C3 SWAP2 SWAP1 PUSH2 0x93F JUMP JUMPDEST PUSH2 0x3CD SWAP2 SWAP1 PUSH2 0x9AD JUMP JUMPDEST SWAP1 POP PUSH0 PUSH1 0x3C DUP3 LT ISZERO SWAP1 POP PUSH1 0x40 MLOAD DUP1 PUSH1 0xE0 ADD PUSH1 0x40 MSTORE DUP1 DUP10 DUP2 MSTORE PUSH1 0x20 ADD DUP9 DUP2 MSTORE PUSH1 0x20 ADD DUP8 DUP2 MSTORE PUSH1 0x20 ADD DUP7 DUP2 MSTORE PUSH1 0x20 ADD DUP4 DUP2 MSTORE PUSH1 0x20 ADD DUP6 DUP2 MSTORE PUSH1 0x20 ADD DUP3 ISZERO ISZERO DUP2 MSTORE POP PUSH0 PUSH0 DUP12 DUP2 MSTORE PUSH1 0x20 ADD SWAP1 DUP2 MSTORE PUSH1 0x20 ADD PUSH0 KECCAK256 PUSH0 DUP3 ADD MLOAD DUP2 PUSH0 ADD SWAP1 DUP2 PUSH2 0x42F SWAP2 SWAP1 PUSH2 0xCB5 JUMP JUMPDEST POP PUSH1 0x20 DUP3 ADD MLOAD DUP2 PUSH1 0x1 ADD SSTORE PUSH1 0x40 DUP3 ADD MLOAD DUP2 PUSH1 0x2 ADD SSTORE PUSH1 0x60 DUP3 ADD MLOAD DUP2 PUSH1 0x3 ADD SSTORE PUSH1 0x80 DUP3 ADD MLOAD DUP2 PUSH1 0x4 ADD SSTORE PUSH1 0xA0 DUP3 ADD MLOAD DUP2 PUSH1 0x5 ADD SSTORE PUSH1 0xC0 DUP3 ADD MLOAD DUP2 PUSH1 0x6 ADD PUSH0 PUSH2 0x100 EXP DUP2 SLOAD DUP2 PUSH1 0xFF MUL NOT AND SWAP1 DUP4 ISZERO ISZERO MUL OR SWAP1 SSTORE POP SWAP1 POP POP POP POP POP POP POP POP POP POP POP JUMP JUMPDEST PUSH0 PUSH1 0x40 MLOAD SWAP1 POP SWAP1 JUMP JUMPDEST PUSH0 PUSH0 REVERT JUMPDEST PUSH0 PUSH0 REVERT JUMPDEST PUSH0 DUP2 SWAP1 POP SWAP2 SWAP1 POP JUMP JUMPDEST PUSH2 0x4B2 DUP2 PUSH2 0x4A0 JUMP JUMPDEST DUP2 EQ PUSH2 0x4BC JUMPI PUSH0 PUSH0 REVERT JUMPDEST POP JUMP JUMPDEST PUSH0 DUP2 CALLDATALOAD SWAP1 POP PUSH2 0x4CD DUP2 PUSH2 0x4A9 JUMP JUMPDEST SWAP3 SWAP2 POP POP JUMP JUMPDEST PUSH0 PUSH1 0x20 DUP3 DUP5 SUB SLT ISZERO PUSH2 0x4E8 JUMPI PUSH2 0x4E7 PUSH2 0x498 JUMP JUMPDEST JUMPDEST PUSH0 PUSH2 0x4F5 DUP5 DUP3 DUP6 ADD PUSH2 0x4BF JUMP JUMPDEST SWAP2 POP POP SWAP3 SWAP2 POP POP JUMP JUMPDEST PUSH0 DUP2 MLOAD SWAP1 POP SWAP2 SWAP1 POP JUMP JUMPDEST PUSH0 DUP3 DUP3 MSTORE PUSH1 0x20 DUP3 ADD SWAP1 POP SWAP3 SWAP2 POP POP JUMP JUMPDEST DUP3 DUP2 DUP4 MCOPY PUSH0 DUP4 DUP4 ADD MSTORE POP POP POP JUMP JUMPDEST PUSH0 PUSH1 0x1F NOT PUSH1 0x1F DUP4 ADD AND SWAP1 POP SWAP2 SWAP1 POP JUMP JUMPDEST PUSH0 PUSH2 0x540 DUP3 PUSH2 0x4FE JUMP JUMPDEST PUSH2 0x54A DUP2 DUP6 PUSH2 0x508 JUMP JUMPDEST SWAP4 POP PUSH2 0x55A DUP2 DUP6 PUSH1 0x20 DUP7 ADD PUSH2 0x518 JUMP JUMPDEST PUSH2 0x563 DUP2 PUSH2 0x526 JUMP JUMPDEST DUP5 ADD SWAP2 POP POP SWAP3 SWAP2 POP POP JUMP JUMPDEST PUSH2 0x577 DUP2 PUSH2 0x4A0 JUMP JUMPDEST DUP3 MSTORE POP POP JUMP JUMPDEST PUSH0 DUP2 ISZERO ISZERO SWAP1 POP SWAP2 SWAP1 POP JUMP JUMPDEST PUSH2 0x591 DUP2 PUSH2 0x57D JUMP JUMPDEST DUP3 MSTORE POP POP JUMP JUMPDEST PUSH0 PUSH1 0xE0 DUP3 ADD SWAP1 POP DUP2 DUP2 SUB PUSH0 DUP4 ADD MSTORE PUSH2 0x5AF DUP2 DUP11 PUSH2 0x536 JUMP JUMPDEST SWAP1 POP PUSH2 0x5BE PUSH1 0x20 DUP4 ADD DUP10 PUSH2 0x56E JUMP JUMPDEST PUSH2 0x5CB PUSH1 0x40 DUP4 ADD DUP9 PUSH2 0x56E JUMP JUMPDEST PUSH2 0x5D8 PUSH1 0x60 DUP4 ADD DUP8 PUSH2 0x56E JUMP JUMPDEST PUSH2 0x5E5 PUSH1 0x80 DUP4 ADD DUP7 PUSH2 0x56E JUMP JUMPDEST PUSH2 0x5F2 PUSH1 0xA0 DUP4 ADD DUP6 PUSH2 0x56E JUMP JUMPDEST PUSH2 0x5FF PUSH1 0xC0 DUP4 ADD DUP5 PUSH2 0x588 JUMP JUMPDEST SWAP9 SWAP8 POP POP POP POP POP POP POP POP JUMP JUMPDEST PUSH0 PUSH0 PUSH1 0x40 DUP4 DUP6 SUB SLT ISZERO PUSH2 0x621 JUMPI PUSH2 0x620 PUSH2 0x498 JUMP JUMPDEST JUMPDEST PUSH0 PUSH2 0x62E DUP6 DUP3 DUP7 ADD PUSH2 0x4BF JUMP JUMPDEST SWAP3 POP POP PUSH1 0x20 PUSH2 0x63F DUP6 DUP3 DUP7 ADD PUSH2 0x4BF JUMP JUMPDEST SWAP2 POP POP SWAP3 POP SWAP3 SWAP1 POP JUMP JUMPDEST PUSH0 PUSH0 REVERT JUMPDEST PUSH0 PUSH0 REVERT JUMPDEST PUSH32 0x4E487B7100000000000000000000000000000000000000000000000000000000 PUSH0 MSTORE PUSH1 0x41 PUSH1 0x4 MSTORE PUSH1 0x24 PUSH0 REVERT JUMPDEST PUSH2 0x687 DUP3 PUSH2 0x526 JUMP JUMPDEST DUP2 ADD DUP2 DUP2 LT PUSH8 0xFFFFFFFFFFFFFFFF DUP3 GT OR ISZERO PUSH2 0x6A6 JUMPI PUSH2 0x6A5 PUSH2 0x651 JUMP JUMPDEST JUMPDEST DUP1 PUSH1 0x40 MSTORE POP POP POP JUMP JUMPDEST PUSH0 PUSH2 0x6B8 PUSH2 0x48F JUMP JUMPDEST SWAP1 POP PUSH2 0x6C4 DUP3 DUP3 PUSH2 0x67E JUMP JUMPDEST SWAP2 SWAP1 POP JUMP JUMPDEST PUSH0 PUSH8 0xFFFFFFFFFFFFFFFF DUP3 GT ISZERO PUSH2 0x6E3 JUMPI PUSH2 0x6E2 PUSH2 0x651 JUMP JUMPDEST JUMPDEST PUSH2 0x6EC DUP3 PUSH2 0x526 JUMP JUMPDEST SWAP1 POP PUSH1 0x20 DUP2 ADD SWAP1 POP SWAP2 SWAP1 POP JUMP JUMPDEST DUP3 DUP2 DUP4 CALLDATACOPY PUSH0 DUP4 DUP4 ADD MSTORE POP POP POP JUMP JUMPDEST PUSH0 PUSH2 0x719 PUSH2 0x714 DUP5 PUSH2 0x6C9 JUMP JUMPDEST PUSH2 0x6AF JUMP JUMPDEST SWAP1 POP DUP3 DUP2 MSTORE PUSH1 0x20 DUP2 ADD DUP5 DUP5 DUP5 ADD GT ISZERO PUSH2 0x735 JUMPI PUSH2 0x734 PUSH2 0x64D JUMP JUMPDEST JUMPDEST PUSH2 0x740 DUP5 DUP3 DUP6 PUSH2 0x6F9 JUMP JUMPDEST POP SWAP4 SWAP3 POP POP POP JUMP JUMPDEST PUSH0 DUP3 PUSH1 0x1F DUP4 ADD SLT PUSH2 0x75C JUMPI PUSH2 0x75B PUSH2 0x649 JUMP JUMPDEST JUMPDEST DUP2 CALLDATALOAD PUSH2 0x76C DUP5 DUP3 PUSH1 0x20 DUP7 ADD PUSH2 0x707 JUMP JUMPDEST SWAP2 POP POP SWAP3 SWAP2 POP POP JUMP JUMPDEST PUSH0 PUSH0 PUSH0 PUSH0 PUSH0 PUSH0 PUSH1 0xC0 DUP8 DUP10 SUB SLT ISZERO PUSH2 0x78F JUMPI PUSH2 0x78E PUSH2 0x498 JUMP JUMPDEST JUMPDEST PUSH0 PUSH2 0x79C DUP10 DUP3 DUP11 ADD PUSH2 0x4BF JUMP JUMPDEST SWAP7 POP POP PUSH1 0x20 DUP8 ADD CALLDATALOAD PUSH8 0xFFFFFFFFFFFFFFFF DUP2 GT ISZERO PUSH2 0x7BD JUMPI PUSH2 0x7BC PUSH2 0x49C JUMP JUMPDEST JUMPDEST PUSH2 0x7C9 DUP10 DUP3 DUP11 ADD PUSH2 0x748 JUMP JUMPDEST SWAP6 POP POP PUSH1 0x40 PUSH2 0x7DA DUP10 DUP3 DUP11 ADD PUSH2 0x4BF JUMP JUMPDEST SWAP5 POP POP PUSH1 0x60 PUSH2 0x7EB DUP10 DUP3 DUP11 ADD PUSH2 0x4BF JUMP JUMPDEST SWAP4 POP POP PUSH1 0x80 PUSH2 0x7FC DUP10 DUP3 DUP11 ADD PUSH2 0x4BF JUMP JUMPDEST SWAP3 POP POP PUSH1 0xA0 PUSH2 0x80D DUP10 DUP3 DUP11 ADD PUSH2 0x4BF JUMP JUMPDEST SWAP2 POP POP SWAP3 SWAP6 POP SWAP3 SWAP6 POP SWAP3 SWAP6 JUMP JUMPDEST PUSH32 0x4E487B7100000000000000000000000000000000000000000000000000000000 PUSH0 MSTORE PUSH1 0x22 PUSH1 0x4 MSTORE PUSH1 0x24 PUSH0 REVERT JUMPDEST PUSH0 PUSH1 0x2 DUP3 DIV SWAP1 POP PUSH1 0x1 DUP3 AND DUP1 PUSH2 0x85E JUMPI PUSH1 0x7F DUP3 AND SWAP2 POP JUMPDEST PUSH1 0x20 DUP3 LT DUP2 SUB PUSH2 0x871 JUMPI PUSH2 0x870 PUSH2 0x81A JUMP JUMPDEST JUMPDEST POP SWAP2 SWAP1 POP JUMP JUMPDEST PUSH32 0x536369656E6365206D61726B73206D757374206265203C3D2031303000000000 PUSH0 DUP3 ADD MSTORE POP JUMP JUMPDEST PUSH0 PUSH2 0x8AB PUSH1 0x1C DUP4 PUSH2 0x508 JUMP JUMPDEST SWAP2 POP PUSH2 0x8B6 DUP3 PUSH2 0x877 JUMP JUMPDEST PUSH1 0x20 DUP3 ADD SWAP1 POP SWAP2 SWAP1 POP JUMP JUMPDEST PUSH0 PUSH1 0x20 DUP3 ADD SWAP1 POP DUP2 DUP2 SUB PUSH0 DUP4 ADD MSTORE PUSH2 0x8D8 DUP2 PUSH2 0x89F JUMP JUMPDEST SWAP1 POP SWAP2 SWAP1 POP JUMP JUMPDEST PUSH32 0x4E487B7100000000000000000000000000000000000000000000000000000000 PUSH0 MSTORE PUSH1 0x11 PUSH1 0x4 MSTORE PUSH1 0x24 PUSH0 REVERT JUMPDEST PUSH0 PUSH2 0x916 DUP3 PUSH2 0x4A0 JUMP JUMPDEST SWAP2 POP PUSH2 0x921 DUP4 PUSH2 0x4A0 JUMP JUMPDEST SWAP3 POP DUP3 DUP3 ADD SWAP1 POP DUP1 DUP3 GT ISZERO PUSH2 0x939 JUMPI PUSH2 0x938 PUSH2 0x8DF JUMP JUMPDEST JUMPDEST SWAP3 SWAP2 POP POP JUMP JUMPDEST PUSH0 PUSH2 0x949 DUP3 PUSH2 0x4A0 JUMP JUMPDEST SWAP2 POP PUSH2 0x954 DUP4 PUSH2 0x4A0 JUMP JUMPDEST SWAP3 POP DUP3 DUP3 MUL PUSH2 0x962 DUP2 PUSH2 0x4A0 JUMP JUMPDEST SWAP2 POP DUP3 DUP3 DIV DUP5 EQ DUP4 ISZERO OR PUSH2 0x979 JUMPI PUSH2 0x978 PUSH2 0x8DF JUMP JUMPDEST JUMPDEST POP SWAP3 SWAP2 POP POP JUMP JUMPDEST PUSH32 0x4E487B7100000000000000000000000000000000000000000000000000000000 PUSH0 MSTORE PUSH1 0x12 PUSH1 0x4 MSTORE PUSH1 0x24 PUSH0 REVERT JUMPDEST PUSH0 PUSH2 0x9B7 DUP3 PUSH2 0x4A0 JUMP JUMPDEST SWAP2 POP PUSH2 0x9C2 DUP4 PUSH2 0x4A0 JUMP JUMPDEST SWAP3 POP DUP3 PUSH2 0x9D2 JUMPI PUSH2 0x9D1 PUSH2 0x980 JUMP JUMPDEST JUMPDEST DUP3 DUP3 DIV SWAP1 POP SWAP3 SWAP2 POP POP JUMP JUMPDEST PUSH32 0x456E676C697368206D61726B73206D757374206265203C3D2031303000000000 PUSH0 DUP3 ADD MSTORE POP JUMP JUMPDEST PUSH0 PUSH2 0xA11 PUSH1 0x1C DUP4 PUSH2 0x508 JUMP JUMPDEST SWAP2 POP PUSH2 0xA1C DUP3 PUSH2 0x9DD JUMP JUMPDEST PUSH1 0x20 DUP3 ADD SWAP1 POP SWAP2 SWAP1 POP JUMP JUMPDEST PUSH0 PUSH1 0x20 DUP3 ADD SWAP1 POP DUP2 DUP2 SUB PUSH0 DUP4 ADD MSTORE PUSH2 0xA3E DUP2 PUSH2 0xA05 JUMP JUMPDEST SWAP1 POP SWAP2 SWAP1 POP JUMP JUMPDEST PUSH32 0x48696E6469206D61726B73206D757374206265203C3D20313030000000000000 PUSH0 DUP3 ADD MSTORE POP JUMP JUMPDEST PUSH0 PUSH2 0xA79 PUSH1 0x1A DUP4 PUSH2 0x508 JUMP JUMPDEST SWAP2 POP PUSH2 0xA84 DUP3 PUSH2 0xA45 JUMP JUMPDEST PUSH1 0x20 DUP3 ADD SWAP1 POP SWAP2 SWAP1 POP JUMP JUMPDEST PUSH0 PUSH1 0x20 DUP3 ADD SWAP1 POP DUP2 DUP2 SUB PUSH0 DUP4 ADD MSTORE PUSH2 0xAA6 DUP2 PUSH2 0xA6D JUMP JUMPDEST SWAP1 POP SWAP2 SWAP1 POP JUMP JUMPDEST PUSH32 0x4D617468206D61726B73206D757374206265203C3D2031303000000000000000 PUSH0 DUP3 ADD MSTORE POP JUMP JUMPDEST PUSH0 PUSH2 0xAE1 PUSH1 0x19 DUP4 PUSH2 0x508 JUMP JUMPDEST SWAP2 POP PUSH2 0xAEC DUP3 PUSH2 0xAAD JUMP JUMPDEST PUSH1 0x20 DUP3 ADD SWAP1 POP SWAP2 SWAP1 POP JUMP JUMPDEST PUSH0 PUSH1 0x20 DUP3 ADD SWAP1 POP DUP2 DUP2 SUB PUSH0 DUP4 ADD MSTORE PUSH2 0xB0E DUP2 PUSH2 0xAD5 JUMP JUMPDEST SWAP1 POP SWAP2 SWAP1 POP JUMP JUMPDEST PUSH0 DUP2 SWAP1 POP DUP2 PUSH0 MSTORE PUSH1 0x20 PUSH0 KECCAK256 SWAP1 POP SWAP2 SWAP1 POP JUMP JUMPDEST PUSH0 PUSH1 0x20 PUSH1 0x1F DUP4 ADD DIV SWAP1 POP SWAP2 SWAP1 POP JUMP JUMPDEST PUSH0 DUP3 DUP3 SHL SWAP1 POP SWAP3 SWAP2 POP POP JUMP JUMPDEST PUSH0 PUSH1 0x8 DUP4 MUL PUSH2 0xB71 PUSH32 0xFFFFFFFFFFFFFFFFFFFFFFFFFFFFFFFFFFFFFFFFFFFFFFFFFFFFFFFFFFFFFFFF DUP3 PUSH2 0xB36 JUMP JUMPDEST PUSH2 0xB7B DUP7 DUP4 PUSH2 0xB36 JUMP JUMPDEST SWAP6 POP DUP1 NOT DUP5 AND SWAP4 POP DUP1 DUP7 AND DUP5 OR SWAP3 POP POP POP SWAP4 SWAP3 POP POP POP JUMP JUMPDEST PUSH0 DUP2 SWAP1 POP SWAP2 SWAP1 POP JUMP JUMPDEST PUSH0 PUSH2 0xBB6 PUSH2 0xBB1 PUSH2 0xBAC DUP5 PUSH2 0x4A0 JUMP JUMPDEST PUSH2 0xB93 JUMP JUMPDEST PUSH2 0x4A0 JUMP JUMPDEST SWAP1 POP SWAP2 SWAP1 POP JUMP JUMPDEST PUSH0 DUP2 SWAP1 POP SWAP2 SWAP1 POP JUMP JUMPDEST PUSH2 0xBCF DUP4 PUSH2 0xB9C JUMP JUMPDEST PUSH2 0xBE3 PUSH2 0xBDB DUP3 PUSH2 0xBBD JUMP JUMPDEST DUP5 DUP5 SLOAD PUSH2 0xB42 JUMP JUMPDEST DUP3 SSTORE POP POP POP POP JUMP JUMPDEST PUSH0 PUSH0 SWAP1 POP SWAP1 JUMP JUMPDEST PUSH2 0xBFA PUSH2 0xBEB JUMP JUMPDEST PUSH2 0xC05 DUP2 DUP5 DUP5 PUSH2 0xBC6 JUMP JUMPDEST POP POP POP JUMP JUMPDEST JUMPDEST DUP2 DUP2 LT ISZERO PUSH2 0xC28 JUMPI PUSH2 0xC1D PUSH0 DUP3 PUSH2 0xBF2 JUMP JUMPDEST PUSH1 0x1 DUP2 ADD SWAP1 POP PUSH2 0xC0B JUMP JUMPDEST POP POP JUMP JUMPDEST PUSH1 0x1F DUP3 GT ISZERO PUSH2 0xC6D JUMPI PUSH2 0xC3E DUP2 PUSH2 0xB15 JUMP JUMPDEST PUSH2 0xC47 DUP5 PUSH2 0xB27 JUMP JUMPDEST DUP2 ADD PUSH1 0x20 DUP6 LT ISZERO PUSH2 0xC56 JUMPI DUP2 SWAP1 POP JUMPDEST PUSH2 0xC6A PUSH2 0xC62 DUP6 PUSH2 0xB27 JUMP JUMPDEST DUP4 ADD DUP3 PUSH2 0xC0A JUMP JUMPDEST POP POP JUMPDEST POP POP POP JUMP JUMPDEST PUSH0 DUP3 DUP3 SHR SWAP1 POP SWAP3 SWAP2 POP POP JUMP JUMPDEST PUSH0 PUSH2 0xC8D PUSH0 NOT DUP5 PUSH1 0x8 MUL PUSH2 0xC72 JUMP JUMPDEST NOT DUP1 DUP4 AND SWAP2 POP POP SWAP3 SWAP2 POP POP JUMP JUMPDEST PUSH0 PUSH2 0xCA5 DUP4 DUP4 PUSH2 0xC7E JUMP JUMPDEST SWAP2 POP DUP3 PUSH1 0x2 MUL DUP3 OR SWAP1 POP SWAP3 SWAP2 POP POP JUMP JUMPDEST PUSH2 0xCBE DUP3 PUSH2 0x4FE JUMP JUMPDEST PUSH8 0xFFFFFFFFFFFFFFFF DUP2 GT ISZERO PUSH2 0xCD7 JUMPI PUSH2 0xCD6 PUSH2 0x651 JUMP JUMPDEST JUMPDEST PUSH2 0xCE1 DUP3 SLOAD PUSH2 0x847 JUMP JUMPDEST PUSH2 0xCEC DUP3 DUP3 DUP6 PUSH2 0xC2C JUMP JUMPDEST PUSH0 PUSH1 0x20 SWAP1 POP PUSH1 0x1F DUP4 GT PUSH1 0x1 DUP2 EQ PUSH2 0xD1D JUMPI PUSH0 DUP5 ISZERO PUSH2 0xD0B JUMPI DUP3 DUP8 ADD MLOAD SWAP1 POP JUMPDEST PUSH2 0xD15 DUP6 DUP3 PUSH2 0xC9A JUMP JUMPDEST DUP7 SSTORE POP PUSH2 0xD7C JUMP JUMPDEST PUSH1 0x1F NOT DUP5 AND PUSH2 0xD2B DUP7 PUSH2 0xB15 JUMP JUMPDEST PUSH0 JUMPDEST DUP3 DUP2 LT ISZERO PUSH2 0xD52 JUMPI DUP5 DUP10 ADD MLOAD DUP3 SSTORE PUSH1 0x1 DUP3 ADD SWAP2 POP PUSH1 0x20 DUP6 ADD SWAP5 POP PUSH1 0x20 DUP2 ADD SWAP1 POP PUSH2 0xD2D JUMP JUMPDEST DUP7 DUP4 LT ISZERO PUSH2 0xD6F JUMPI DUP5 DUP10 ADD MLOAD PUSH2 0xD6B PUSH1 0x1F DUP10 AND DUP3 PUSH2 0xC7E JUMP JUMPDEST DUP4 SSTORE POP JUMPDEST PUSH1 0x1 PUSH1 0x2 DUP9 MUL ADD DUP9 SSTORE POP POP POP JUMPDEST POP POP POP POP POP POP JUMP INVALID LOG2 PUSH5 0x6970667358 0x22 SLT KECCAK256 SHL STOP 0xE7 0xC1 0x2C 0xE0 PUSH2 0x58F3 MUL AND 0xC7 0x28 0xC8 CALLCODE 0x29 PUSH26 0x38B1CBEEF563413776368E3F5395664736F6C634300081B0033 "
				},
				"gasEstimates": {
					"creation": {
						"codeDepositCost": "702800",
						"executionCost": "732",
						"totalCost": "703532"
					},
					"external": {
						"addOrUpdateStudent(uint256,string,uint256,uint256,uint256,uint256)": "infinite",
						"getStudent(uint256)": "infinite",
						"updateScienceMarks(uint256,uint256)": "infinite"
					}
				},
				"methodIdentifiers": {
					"addOrUpdateStudent(uint256,string,uint256,uint256,uint256,uint256)": "e7a41e30",
					"getStudent(uint256)": "642f9163",
					"updateScienceMarks(uint256,uint256)": "d174b7fe"
				}
			},
			"storageLayout": {
				"storage": [
					{
						"astId": 21,
						"contract": "new marksheet-upgradable/MarksheetV3.sol:V3Marksheet",
						"label": "students",
						"offset": 0,
						"slot": "0",
						"type": "t_mapping(t_uint256,t_struct(Student)16_storage)"
					}
				],
				"types": {
					"t_bool": {
						"encoding": "inplace",
						"label": "bool",
						"numberOfBytes": "1"
					},
					"t_mapping(t_uint256,t_struct(Student)16_storage)": {
						"encoding": "mapping",
						"key": "t_uint256",
						"label": "mapping(uint256 => struct V3Marksheet.Student)",
						"numberOfBytes": "32",
						"value": "t_struct(Student)16_storage"
					},
					"t_string_storage": {
						"encoding": "bytes",
						"label": "string",
						"numberOfBytes": "32"
					},
					"t_struct(Student)16_storage": {
						"encoding": "inplace",
						"label": "struct V3Marksheet.Student",
						"members": [
							{
								"astId": 3,
								"contract": "new marksheet-upgradable/MarksheetV3.sol:V3Marksheet",
								"label": "name",
								"offset": 0,
								"slot": "0",
								"type": "t_string_storage"
							},
							{
								"astId": 5,
								"contract": "new marksheet-upgradable/MarksheetV3.sol:V3Marksheet",
								"label": "english",
								"offset": 0,
								"slot": "1",
								"type": "t_uint256"
							},
							{
								"astId": 7,
								"contract": "new marksheet-upgradable/MarksheetV3.sol:V3Marksheet",
								"label": "hindi",
								"offset": 0,
								"slot": "2",
								"type": "t_uint256"
							},
							{
								"astId": 9,
								"contract": "new marksheet-upgradable/MarksheetV3.sol:V3Marksheet",
								"label": "math",
								"offset": 0,
								"slot": "3",
								"type": "t_uint256"
							},
							{
								"astId": 11,
								"contract": "new marksheet-upgradable/MarksheetV3.sol:V3Marksheet",
								"label": "percentage",
								"offset": 0,
								"slot": "4",
								"type": "t_uint256"
							},
							{
								"astId": 13,
								"contract": "new marksheet-upgradable/MarksheetV3.sol:V3Marksheet",
								"label": "science",
								"offset": 0,
								"slot": "5",
								"type": "t_uint256"
							},
							{
								"astId": 15,
								"contract": "new marksheet-upgradable/MarksheetV3.sol:V3Marksheet",
								"label": "isPass",
								"offset": 0,
								"slot": "6",
								"type": "t_bool"
							}
						],
						"numberOfBytes": "224"
					},
					"t_uint256": {
						"encoding": "inplace",
						"label": "uint256",
						"numberOfBytes": "32"
					}
				}
			},
			"userdoc": {
				"kind": "user",
				"methods": {
					"addOrUpdateStudent(uint256,string,uint256,uint256,uint256,uint256)": {
						"notice": "Add or update a student record"
					},
					"getStudent(uint256)": {
						"notice": "View full student data"
					},
					"updateScienceMarks(uint256,uint256)": {
						"notice": "Update only science marks for an existing student and re-calculate percentage/pass"
					}
				},
				"version": 1
			}
		}
	}
}