{
	"new marksheet-upgradable/MarksheetV1.sol": {
		"V1Marksheet": {
			"abi": [
				{
					"inputs": [
						{
							"internalType": "uint256",
							"name": "id",
							"type": "uint256"
						},
						{
							"internalType": "string",
							"name": "name",
							"type": "string"
						},
						{
							"internalType": "uint256",
							"name": "english",
							"type": "uint256"
						},
						{
							"internalType": "uint256",
							"name": "hindi",
							"type": "uint256"
						},
						{
							"internalType": "uint256",
							"name": "math",
							"type": "uint256"
						}
					],
					"name": "addStudent",
					"outputs": [],
					"stateMutability": "nonpayable",
					"type": "function"
				},
				{
					"inputs": [
						{
							"internalType": "uint256",
							"name": "id",
							"type": "uint256"
						}
					],
					"name": "getStudent",
					"outputs": [
						{
							"components": [
								{
									"internalType": "string",
									"name": "name",
									"type": "string"
								},
								{
									"internalType": "uint256",
									"name": "english",
									"type": "uint256"
								},
								{
									"internalType": "uint256",
									"name": "hindi",
									"type": "uint256"
								},
								{
									"internalType": "uint256",
									"name": "math",
									"type": "uint256"
								},
								{
									"internalType": "uint256",
									"name": "percentage",
									"type": "uint256"
								}
							],
							"internalType": "struct V1Marksheet.Student",
							"name": "",
							"type": "tuple"
						}
					],
					"stateMutability": "view",
					"type": "function"
				},
				{
					"inputs": [
						{
							"internalType": "uint256",
							"name": "",
							"type": "uint256"
						}
					],
					"name": "students",
					"outputs": [
						{
							"internalType": "string",
							"name": "name",
							"type": "string"
						},
						{
							"internalType": "uint256",
							"name": "english",
							"type": "uint256"
						},
						{
							"internalType": "uint256",
							"name": "hindi",
							"type": "uint256"
						},
						{
							"internalType": "uint256",
							"name": "math",
							"type": "uint256"
						},
						{
							"internalType": "uint256",
							"name": "percentage",
							"type": "uint256"
						}
					],
					"stateMutability": "view",
					"type": "function"
				}
			],
			"devdoc": {
				"kind": "dev",
				"methods": {},
				"version": 1
			},
			"evm": {
				"assembly": "    /* \"new marksheet-upgradable/MarksheetV1.sol\":61:769  contract V1Marksheet {... */\n  mstore(0x40, 0x80)\n  callvalue\n  dup1\n  iszero\n  tag_1\n  jumpi\n  revert(0x00, 0x00)\ntag_1:\n  pop\n  dataSize(sub_0)\n  dup1\n  dataOffset(sub_0)\n  0x00\n  codecopy\n  0x00\n  return\nstop\n\nsub_0: assembly {\n        /* \"new marksheet-upgradable/MarksheetV1.sol\":61:769  contract V1Marksheet {... */\n      mstore(0x40, 0x80)\n      callvalue\n      dup1\n      iszero\n      tag_1\n      jumpi\n      revert(0x00, 0x00)\n    tag_1:\n      pop\n      jumpi(tag_2, lt(calldatasize, 0x04))\n      shr(0xe0, calldataload(0x00))\n      dup1\n      0x06ead22e\n      eq\n      tag_3\n      jumpi\n      dup1\n      0x642f9163\n      eq\n      tag_4\n      jumpi\n      dup1\n      0xb9b112eb\n      eq\n      tag_5\n      jumpi\n    tag_2:\n      revert(0x00, 0x00)\n        /* \"new marksheet-upgradable/MarksheetV1.sol\":246:286  mapping(uint => Student) public students */\n    tag_3:\n      tag_6\n      0x04\n      dup1\n      calldatasize\n      sub\n      dup2\n      add\n      swap1\n      tag_7\n      swap2\n      swap1\n      tag_8\n      jump\t// in\n    tag_7:\n      tag_9\n      jump\t// in\n    tag_6:\n      mload(0x40)\n      tag_10\n      swap6\n      swap5\n      swap4\n      swap3\n      swap2\n      swap1\n      tag_11\n      jump\t// in\n    tag_10:\n      mload(0x40)\n      dup1\n      swap2\n      sub\n      swap1\n      return\n        /* \"new marksheet-upgradable/MarksheetV1.sol\":662:766  function getStudent(uint id) public view returns (Student memory) {... */\n    tag_4:\n      tag_12\n      0x04\n      dup1\n      calldatasize\n      sub\n      dup2\n      add\n      swap1\n      tag_13\n      swap2\n      swap1\n      tag_8\n      jump\t// in\n    tag_13:\n      tag_14\n      jump\t// in\n    tag_12:\n      mload(0x40)\n      tag_15\n      swap2\n      swap1\n      tag_16\n      jump\t// in\n    tag_15:\n      mload(0x40)\n      dup1\n      swap2\n      sub\n      swap1\n      return\n        /* \"new marksheet-upgradable/MarksheetV1.sol\":295:654  function addStudent(uint id, string memory name, uint english, uint hindi, uint math) public {... */\n    tag_5:\n      tag_17\n      0x04\n      dup1\n      calldatasize\n      sub\n      dup2\n      add\n      swap1\n      tag_18\n      swap2\n      swap1\n      tag_19\n      jump\t// in\n    tag_18:\n      tag_20\n      jump\t// in\n    tag_17:\n      stop\n        /* \"new marksheet-upgradable/MarksheetV1.sol\":246:286  mapping(uint => Student) public students */\n    tag_9:\n      mstore(0x20, 0x00)\n      dup1\n      0x00\n      mstore\n      keccak256(0x00, 0x40)\n      0x00\n      swap2\n      pop\n      swap1\n      pop\n      dup1\n      0x00\n      add\n      dup1\n      sload\n      tag_21\n      swap1\n      tag_22\n      jump\t// in\n    tag_21:\n      dup1\n      0x1f\n      add\n      0x20\n      dup1\n      swap2\n      div\n      mul\n      0x20\n      add\n      mload(0x40)\n      swap1\n      dup2\n      add\n      0x40\n      mstore\n      dup1\n      swap3\n      swap2\n      swap1\n      dup2\n      dup2\n      mstore\n      0x20\n      add\n      dup3\n      dup1\n      sload\n      tag_23\n      swap1\n      tag_22\n      jump\t// in\n    tag_23:\n      dup1\n      iszero\n      tag_24\n      jumpi\n      dup1\n      0x1f\n      lt\n      tag_25\n      jumpi\n      0x0100\n      dup1\n      dup4\n      sload\n      div\n      mul\n      dup4\n      mstore\n      swap2\n      0x20\n      add\n      swap2\n      jump(tag_24)\n    tag_25:\n      dup3\n      add\n      swap2\n      swap1\n      0x00\n      mstore\n      keccak256(0x00, 0x20)\n      swap1\n    tag_26:\n      dup2\n      sload\n      dup2\n      mstore\n      swap1\n      0x01\n      add\n      swap1\n      0x20\n      add\n      dup1\n      dup4\n      gt\n      tag_26\n      jumpi\n      dup3\n      swap1\n      sub\n      0x1f\n      and\n      dup3\n      add\n      swap2\n    tag_24:\n      pop\n      pop\n      pop\n      pop\n      pop\n      swap1\n      dup1\n      0x01\n      add\n      sload\n      swap1\n      dup1\n      0x02\n      add\n      sload\n      swap1\n      dup1\n      0x03\n      add\n      sload\n      swap1\n      dup1\n      0x04\n      add\n      sload\n      swap1\n      pop\n      dup6\n      jump\t// out\n        /* \"new marksheet-upgradable/MarksheetV1.sol\":662:766  function getStudent(uint id) public view returns (Student memory) {... */\n    tag_14:\n        /* \"new marksheet-upgradable/MarksheetV1.sol\":712:726  Student memory */\n      tag_27\n      tag_28\n      jump\t// in\n    tag_27:\n        /* \"new marksheet-upgradable/MarksheetV1.sol\":746:754  students */\n      0x00\n        /* \"new marksheet-upgradable/MarksheetV1.sol\":746:758  students[id] */\n      0x00\n        /* \"new marksheet-upgradable/MarksheetV1.sol\":755:757  id */\n      dup4\n        /* \"new marksheet-upgradable/MarksheetV1.sol\":746:758  students[id] */\n      dup2\n      mstore\n      0x20\n      add\n      swap1\n      dup2\n      mstore\n      0x20\n      add\n      0x00\n      keccak256\n        /* \"new marksheet-upgradable/MarksheetV1.sol\":739:758  return students[id] */\n      mload(0x40)\n      dup1\n      0xa0\n      add\n      0x40\n      mstore\n      swap1\n      dup2\n      0x00\n      dup3\n      add\n      dup1\n      sload\n      tag_30\n      swap1\n      tag_22\n      jump\t// in\n    tag_30:\n      dup1\n      0x1f\n      add\n      0x20\n      dup1\n      swap2\n      div\n      mul\n      0x20\n      add\n      mload(0x40)\n      swap1\n      dup2\n      add\n      0x40\n      mstore\n      dup1\n      swap3\n      swap2\n      swap1\n      dup2\n      dup2\n      mstore\n      0x20\n      add\n      dup3\n      dup1\n      sload\n      tag_31\n      swap1\n      tag_22\n      jump\t// in\n    tag_31:\n      dup1\n      iszero\n      tag_32\n      jumpi\n      dup1\n      0x1f\n      lt\n      tag_33\n      jumpi\n      0x0100\n      dup1\n      dup4\n      sload\n      div\n      mul\n      dup4\n      mstore\n      swap2\n      0x20\n      add\n      swap2\n      jump(tag_32)\n    tag_33:\n      dup3\n      add\n      swap2\n      swap1\n      0x00\n      mstore\n      keccak256(0x00, 0x20)\n      swap1\n    tag_34:\n      dup2\n      sload\n      dup2\n      mstore\n      swap1\n      0x01\n      add\n      swap1\n      0x20\n      add\n      dup1\n      dup4\n      gt\n      tag_34\n      jumpi\n      dup3\n      swap1\n      sub\n      0x1f\n      and\n      dup3\n      add\n      swap2\n    tag_32:\n      pop\n      pop\n      pop\n      pop\n      pop\n      dup2\n      mstore\n      0x20\n      add\n      0x01\n      dup3\n      add\n      sload\n      dup2\n      mstore\n      0x20\n      add\n      0x02\n      dup3\n      add\n      sload\n      dup2\n      mstore\n      0x20\n      add\n      0x03\n      dup3\n      add\n      sload\n      dup2\n      mstore\n      0x20\n      add\n      0x04\n      dup3\n      add\n      sload\n      dup2\n      mstore\n      pop\n      pop\n      swap1\n      pop\n        /* \"new marksheet-upgradable/MarksheetV1.sol\":662:766  function getStudent(uint id) public view returns (Student memory) {... */\n      swap2\n      swap1\n      pop\n      jump\t// out\n        /* \"new marksheet-upgradable/MarksheetV1.sol\":295:654  function addStudent(uint id, string memory name, uint english, uint hindi, uint math) public {... */\n    tag_20:\n        /* \"new marksheet-upgradable/MarksheetV1.sol\":418:421  100 */\n      0x64\n        /* \"new marksheet-upgradable/MarksheetV1.sol\":407:414  english */\n      dup4\n        /* \"new marksheet-upgradable/MarksheetV1.sol\":407:421  english <= 100 */\n      gt\n      iszero\n        /* \"new marksheet-upgradable/MarksheetV1.sol\":407:437  english <= 100 && hindi <= 100 */\n      dup1\n      iszero\n      tag_36\n      jumpi\n      pop\n        /* \"new marksheet-upgradable/MarksheetV1.sol\":434:437  100 */\n      0x64\n        /* \"new marksheet-upgradable/MarksheetV1.sol\":425:430  hindi */\n      dup3\n        /* \"new marksheet-upgradable/MarksheetV1.sol\":425:437  hindi <= 100 */\n      gt\n      iszero\n        /* \"new marksheet-upgradable/MarksheetV1.sol\":407:437  english <= 100 && hindi <= 100 */\n    tag_36:\n        /* \"new marksheet-upgradable/MarksheetV1.sol\":407:452  english <= 100 && hindi <= 100 && math <= 100 */\n      dup1\n      iszero\n      tag_37\n      jumpi\n      pop\n        /* \"new marksheet-upgradable/MarksheetV1.sol\":449:452  100 */\n      0x64\n        /* \"new marksheet-upgradable/MarksheetV1.sol\":441:445  math */\n      dup2\n        /* \"new marksheet-upgradable/MarksheetV1.sol\":441:452  math <= 100 */\n      gt\n      iszero\n        /* \"new marksheet-upgradable/MarksheetV1.sol\":407:452  english <= 100 && hindi <= 100 && math <= 100 */\n    tag_37:\n        /* \"new marksheet-upgradable/MarksheetV1.sol\":399:477  require(english <= 100 && hindi <= 100 && math <= 100, \"Marks must be <= 100\") */\n      tag_38\n      jumpi\n      mload(0x40)\n      0x08c379a000000000000000000000000000000000000000000000000000000000\n      dup2\n      mstore\n      0x04\n      add\n      tag_39\n      swap1\n      tag_40\n      jump\t// in\n    tag_39:\n      mload(0x40)\n      dup1\n      swap2\n      sub\n      swap1\n      revert\n    tag_38:\n        /* \"new marksheet-upgradable/MarksheetV1.sol\":488:498  uint total */\n      0x00\n        /* \"new marksheet-upgradable/MarksheetV1.sol\":519:523  math */\n      dup2\n        /* \"new marksheet-upgradable/MarksheetV1.sol\":511:516  hindi */\n      dup4\n        /* \"new marksheet-upgradable/MarksheetV1.sol\":501:508  english */\n      dup6\n        /* \"new marksheet-upgradable/MarksheetV1.sol\":501:516  english + hindi */\n      tag_41\n      swap2\n      swap1\n      tag_42\n      jump\t// in\n    tag_41:\n        /* \"new marksheet-upgradable/MarksheetV1.sol\":501:523  english + hindi + math */\n      tag_43\n      swap2\n      swap1\n      tag_42\n      jump\t// in\n    tag_43:\n        /* \"new marksheet-upgradable/MarksheetV1.sol\":488:523  uint total = english + hindi + math */\n      swap1\n      pop\n        /* \"new marksheet-upgradable/MarksheetV1.sol\":534:549  uint percentage */\n      0x00\n        /* \"new marksheet-upgradable/MarksheetV1.sol\":568:571  300 */\n      0x012c\n        /* \"new marksheet-upgradable/MarksheetV1.sol\":561:564  100 */\n      0x64\n        /* \"new marksheet-upgradable/MarksheetV1.sol\":553:558  total */\n      dup4\n        /* \"new marksheet-upgradable/MarksheetV1.sol\":553:564  total * 100 */\n      tag_44\n      swap2\n      swap1\n      tag_45\n      jump\t// in\n    tag_44:\n        /* \"new marksheet-upgradable/MarksheetV1.sol\":552:571  (total * 100) / 300 */\n      tag_46\n      swap2\n      swap1\n      tag_47\n      jump\t// in\n    tag_46:\n        /* \"new marksheet-upgradable/MarksheetV1.sol\":534:571  uint percentage = (total * 100) / 300 */\n      swap1\n      pop\n        /* \"new marksheet-upgradable/MarksheetV1.sol\":599:646  Student(name, english, hindi, math, percentage) */\n      mload(0x40)\n      dup1\n      0xa0\n      add\n      0x40\n      mstore\n      dup1\n        /* \"new marksheet-upgradable/MarksheetV1.sol\":607:611  name */\n      dup8\n        /* \"new marksheet-upgradable/MarksheetV1.sol\":599:646  Student(name, english, hindi, math, percentage) */\n      dup2\n      mstore\n      0x20\n      add\n        /* \"new marksheet-upgradable/MarksheetV1.sol\":613:620  english */\n      dup7\n        /* \"new marksheet-upgradable/MarksheetV1.sol\":599:646  Student(name, english, hindi, math, percentage) */\n      dup2\n      mstore\n      0x20\n      add\n        /* \"new marksheet-upgradable/MarksheetV1.sol\":622:627  hindi */\n      dup6\n        /* \"new marksheet-upgradable/MarksheetV1.sol\":599:646  Student(name, english, hindi, math, percentage) */\n      dup2\n      mstore\n      0x20\n      add\n        /* \"new marksheet-upgradable/MarksheetV1.sol\":629:633  math */\n      dup5\n        /* \"new marksheet-upgradable/MarksheetV1.sol\":599:646  Student(name, english, hindi, math, percentage) */\n      dup2\n      mstore\n      0x20\n      add\n        /* \"new marksheet-upgradable/MarksheetV1.sol\":635:645  percentage */\n      dup3\n        /* \"new marksheet-upgradable/MarksheetV1.sol\":599:646  Student(name, english, hindi, math, percentage) */\n      dup2\n      mstore\n      pop\n        /* \"new marksheet-upgradable/MarksheetV1.sol\":584:592  students */\n      0x00\n        /* \"new marksheet-upgradable/MarksheetV1.sol\":584:596  students[id] */\n      0x00\n        /* \"new marksheet-upgradable/MarksheetV1.sol\":593:595  id */\n      dup10\n        /* \"new marksheet-upgradable/MarksheetV1.sol\":584:596  students[id] */\n      dup2\n      mstore\n      0x20\n      add\n      swap1\n      dup2\n      mstore\n      0x20\n      add\n      0x00\n      keccak256\n        /* \"new marksheet-upgradable/MarksheetV1.sol\":584:646  students[id] = Student(name, english, hindi, math, percentage) */\n      0x00\n      dup3\n      add\n      mload\n      dup2\n      0x00\n      add\n      swap1\n      dup2\n      tag_48\n      swap2\n      swap1\n      tag_49\n      jump\t// in\n    tag_48:\n      pop\n      0x20\n      dup3\n      add\n      mload\n      dup2\n      0x01\n      add\n      sstore\n      0x40\n      dup3\n      add\n      mload\n      dup2\n      0x02\n      add\n      sstore\n      0x60\n      dup3\n      add\n      mload\n      dup2\n      0x03\n      add\n      sstore\n      0x80\n      dup3\n      add\n      mload\n      dup2\n      0x04\n      add\n      sstore\n      swap1\n      pop\n      pop\n        /* \"new marksheet-upgradable/MarksheetV1.sol\":388:654  {... */\n      pop\n      pop\n        /* \"new marksheet-upgradable/MarksheetV1.sol\":295:654  function addStudent(uint id, string memory name, uint english, uint hindi, uint math) public {... */\n      pop\n      pop\n      pop\n      pop\n      pop\n      jump\t// out\n    tag_28:\n      mload(0x40)\n      dup1\n      0xa0\n      add\n      0x40\n      mstore\n      dup1\n      0x60\n      dup2\n      mstore\n      0x20\n      add\n      0x00\n      dup2\n      mstore\n      0x20\n      add\n      0x00\n      dup2\n      mstore\n      0x20\n      add\n      0x00\n      dup2\n      mstore\n      0x20\n      add\n      0x00\n      dup2\n      mstore\n      pop\n      swap1\n      jump\t// out\n        /* \"#utility.yul\":7:82   */\n    tag_50:\n        /* \"#utility.yul\":40:46   */\n      0x00\n        /* \"#utility.yul\":73:75   */\n      0x40\n        /* \"#utility.yul\":67:76   */\n      mload\n        /* \"#utility.yul\":57:76   */\n      swap1\n      pop\n        /* \"#utility.yul\":7:82   */\n      swap1\n      jump\t// out\n        /* \"#utility.yul\":88:205   */\n    tag_51:\n        /* \"#utility.yul\":197:198   */\n      0x00\n        /* \"#utility.yul\":194:195   */\n      0x00\n        /* \"#utility.yul\":187:199   */\n      revert\n        /* \"#utility.yul\":211:328   */\n    tag_52:\n        /* \"#utility.yul\":320:321   */\n      0x00\n        /* \"#utility.yul\":317:318   */\n      0x00\n        /* \"#utility.yul\":310:322   */\n      revert\n        /* \"#utility.yul\":334:411   */\n    tag_53:\n        /* \"#utility.yul\":371:378   */\n      0x00\n        /* \"#utility.yul\":400:405   */\n      dup2\n        /* \"#utility.yul\":389:405   */\n      swap1\n      pop\n        /* \"#utility.yul\":334:411   */\n      swap2\n      swap1\n      pop\n      jump\t// out\n        /* \"#utility.yul\":417:539   */\n    tag_54:\n        /* \"#utility.yul\":490:514   */\n      tag_101\n        /* \"#utility.yul\":508:513   */\n      dup2\n        /* \"#utility.yul\":490:514   */\n      tag_53\n      jump\t// in\n    tag_101:\n        /* \"#utility.yul\":483:488   */\n      dup2\n        /* \"#utility.yul\":480:515   */\n      eq\n        /* \"#utility.yul\":470:533   */\n      tag_102\n      jumpi\n        /* \"#utility.yul\":529:530   */\n      0x00\n        /* \"#utility.yul\":526:527   */\n      0x00\n        /* \"#utility.yul\":519:531   */\n      revert\n        /* \"#utility.yul\":470:533   */\n    tag_102:\n        /* \"#utility.yul\":417:539   */\n      pop\n      jump\t// out\n        /* \"#utility.yul\":545:684   */\n    tag_55:\n        /* \"#utility.yul\":591:596   */\n      0x00\n        /* \"#utility.yul\":629:635   */\n      dup2\n        /* \"#utility.yul\":616:636   */\n      calldataload\n        /* \"#utility.yul\":607:636   */\n      swap1\n      pop\n        /* \"#utility.yul\":645:678   */\n      tag_104\n        /* \"#utility.yul\":672:677   */\n      dup2\n        /* \"#utility.yul\":645:678   */\n      tag_54\n      jump\t// in\n    tag_104:\n        /* \"#utility.yul\":545:684   */\n      swap3\n      swap2\n      pop\n      pop\n      jump\t// out\n        /* \"#utility.yul\":690:1019   */\n    tag_8:\n        /* \"#utility.yul\":749:755   */\n      0x00\n        /* \"#utility.yul\":798:800   */\n      0x20\n        /* \"#utility.yul\":786:795   */\n      dup3\n        /* \"#utility.yul\":777:784   */\n      dup5\n        /* \"#utility.yul\":773:796   */\n      sub\n        /* \"#utility.yul\":769:801   */\n      slt\n        /* \"#utility.yul\":766:885   */\n      iszero\n      tag_106\n      jumpi\n        /* \"#utility.yul\":804:883   */\n      tag_107\n      tag_51\n      jump\t// in\n    tag_107:\n        /* \"#utility.yul\":766:885   */\n    tag_106:\n        /* \"#utility.yul\":924:925   */\n      0x00\n        /* \"#utility.yul\":949:1002   */\n      tag_108\n        /* \"#utility.yul\":994:1001   */\n      dup5\n        /* \"#utility.yul\":985:991   */\n      dup3\n        /* \"#utility.yul\":974:983   */\n      dup6\n        /* \"#utility.yul\":970:992   */\n      add\n        /* \"#utility.yul\":949:1002   */\n      tag_55\n      jump\t// in\n    tag_108:\n        /* \"#utility.yul\":939:1002   */\n      swap2\n      pop\n        /* \"#utility.yul\":895:1012   */\n      pop\n        /* \"#utility.yul\":690:1019   */\n      swap3\n      swap2\n      pop\n      pop\n      jump\t// out\n        /* \"#utility.yul\":1025:1124   */\n    tag_56:\n        /* \"#utility.yul\":1077:1083   */\n      0x00\n        /* \"#utility.yul\":1111:1116   */\n      dup2\n        /* \"#utility.yul\":1105:1117   */\n      mload\n        /* \"#utility.yul\":1095:1117   */\n      swap1\n      pop\n        /* \"#utility.yul\":1025:1124   */\n      swap2\n      swap1\n      pop\n      jump\t// out\n        /* \"#utility.yul\":1130:1299   */\n    tag_57:\n        /* \"#utility.yul\":1214:1225   */\n      0x00\n        /* \"#utility.yul\":1248:1254   */\n      dup3\n        /* \"#utility.yul\":1243:1246   */\n      dup3\n        /* \"#utility.yul\":1236:1255   */\n      mstore\n        /* \"#utility.yul\":1288:1292   */\n      0x20\n        /* \"#utility.yul\":1283:1286   */\n      dup3\n        /* \"#utility.yul\":1279:1293   */\n      add\n        /* \"#utility.yul\":1264:1293   */\n      swap1\n      pop\n        /* \"#utility.yul\":1130:1299   */\n      swap3\n      swap2\n      pop\n      pop\n      jump\t// out\n        /* \"#utility.yul\":1305:1444   */\n    tag_58:\n        /* \"#utility.yul\":1394:1400   */\n      dup3\n        /* \"#utility.yul\":1389:1392   */\n      dup2\n        /* \"#utility.yul\":1384:1387   */\n      dup4\n        /* \"#utility.yul\":1378:1401   */\n      mcopy\n        /* \"#utility.yul\":1435:1436   */\n      0x00\n        /* \"#utility.yul\":1426:1432   */\n      dup4\n        /* \"#utility.yul\":1421:1424   */\n      dup4\n        /* \"#utility.yul\":1417:1433   */\n      add\n        /* \"#utility.yul\":1410:1437   */\n      mstore\n        /* \"#utility.yul\":1305:1444   */\n      pop\n      pop\n      pop\n      jump\t// out\n        /* \"#utility.yul\":1450:1552   */\n    tag_59:\n        /* \"#utility.yul\":1491:1497   */\n      0x00\n        /* \"#utility.yul\":1542:1544   */\n      0x1f\n        /* \"#utility.yul\":1538:1545   */\n      not\n        /* \"#utility.yul\":1533:1535   */\n      0x1f\n        /* \"#utility.yul\":1526:1531   */\n      dup4\n        /* \"#utility.yul\":1522:1536   */\n      add\n        /* \"#utility.yul\":1518:1546   */\n      and\n        /* \"#utility.yul\":1508:1546   */\n      swap1\n      pop\n        /* \"#utility.yul\":1450:1552   */\n      swap2\n      swap1\n      pop\n      jump\t// out\n        /* \"#utility.yul\":1558:1935   */\n    tag_60:\n        /* \"#utility.yul\":1646:1649   */\n      0x00\n        /* \"#utility.yul\":1674:1713   */\n      tag_114\n        /* \"#utility.yul\":1707:1712   */\n      dup3\n        /* \"#utility.yul\":1674:1713   */\n      tag_56\n      jump\t// in\n    tag_114:\n        /* \"#utility.yul\":1729:1800   */\n      tag_115\n        /* \"#utility.yul\":1793:1799   */\n      dup2\n        /* \"#utility.yul\":1788:1791   */\n      dup6\n        /* \"#utility.yul\":1729:1800   */\n      tag_57\n      jump\t// in\n    tag_115:\n        /* \"#utility.yul\":1722:1800   */\n      swap4\n      pop\n        /* \"#utility.yul\":1809:1874   */\n      tag_116\n        /* \"#utility.yul\":1867:1873   */\n      dup2\n        /* \"#utility.yul\":1862:1865   */\n      dup6\n        /* \"#utility.yul\":1855:1859   */\n      0x20\n        /* \"#utility.yul\":1848:1853   */\n      dup7\n        /* \"#utility.yul\":1844:1860   */\n      add\n        /* \"#utility.yul\":1809:1874   */\n      tag_58\n      jump\t// in\n    tag_116:\n        /* \"#utility.yul\":1899:1928   */\n      tag_117\n        /* \"#utility.yul\":1921:1927   */\n      dup2\n        /* \"#utility.yul\":1899:1928   */\n      tag_59\n      jump\t// in\n    tag_117:\n        /* \"#utility.yul\":1894:1897   */\n      dup5\n        /* \"#utility.yul\":1890:1929   */\n      add\n        /* \"#utility.yul\":1883:1929   */\n      swap2\n      pop\n        /* \"#utility.yul\":1650:1935   */\n      pop\n        /* \"#utility.yul\":1558:1935   */\n      swap3\n      swap2\n      pop\n      pop\n      jump\t// out\n        /* \"#utility.yul\":1941:2059   */\n    tag_61:\n        /* \"#utility.yul\":2028:2052   */\n      tag_119\n        /* \"#utility.yul\":2046:2051   */\n      dup2\n        /* \"#utility.yul\":2028:2052   */\n      tag_53\n      jump\t// in\n    tag_119:\n        /* \"#utility.yul\":2023:2026   */\n      dup3\n        /* \"#utility.yul\":2016:2053   */\n      mstore\n        /* \"#utility.yul\":1941:2059   */\n      pop\n      pop\n      jump\t// out\n        /* \"#utility.yul\":2065:2820   */\n    tag_11:\n        /* \"#utility.yul\":2290:2294   */\n      0x00\n        /* \"#utility.yul\":2328:2331   */\n      0xa0\n        /* \"#utility.yul\":2317:2326   */\n      dup3\n        /* \"#utility.yul\":2313:2332   */\n      add\n        /* \"#utility.yul\":2305:2332   */\n      swap1\n      pop\n        /* \"#utility.yul\":2378:2387   */\n      dup2\n        /* \"#utility.yul\":2372:2376   */\n      dup2\n        /* \"#utility.yul\":2368:2388   */\n      sub\n        /* \"#utility.yul\":2364:2365   */\n      0x00\n        /* \"#utility.yul\":2353:2362   */\n      dup4\n        /* \"#utility.yul\":2349:2366   */\n      add\n        /* \"#utility.yul\":2342:2389   */\n      mstore\n        /* \"#utility.yul\":2406:2484   */\n      tag_121\n        /* \"#utility.yul\":2479:2483   */\n      dup2\n        /* \"#utility.yul\":2470:2476   */\n      dup9\n        /* \"#utility.yul\":2406:2484   */\n      tag_60\n      jump\t// in\n    tag_121:\n        /* \"#utility.yul\":2398:2484   */\n      swap1\n      pop\n        /* \"#utility.yul\":2494:2566   */\n      tag_122\n        /* \"#utility.yul\":2562:2564   */\n      0x20\n        /* \"#utility.yul\":2551:2560   */\n      dup4\n        /* \"#utility.yul\":2547:2565   */\n      add\n        /* \"#utility.yul\":2538:2544   */\n      dup8\n        /* \"#utility.yul\":2494:2566   */\n      tag_61\n      jump\t// in\n    tag_122:\n        /* \"#utility.yul\":2576:2648   */\n      tag_123\n        /* \"#utility.yul\":2644:2646   */\n      0x40\n        /* \"#utility.yul\":2633:2642   */\n      dup4\n        /* \"#utility.yul\":2629:2647   */\n      add\n        /* \"#utility.yul\":2620:2626   */\n      dup7\n        /* \"#utility.yul\":2576:2648   */\n      tag_61\n      jump\t// in\n    tag_123:\n        /* \"#utility.yul\":2658:2730   */\n      tag_124\n        /* \"#utility.yul\":2726:2728   */\n      0x60\n        /* \"#utility.yul\":2715:2724   */\n      dup4\n        /* \"#utility.yul\":2711:2729   */\n      add\n        /* \"#utility.yul\":2702:2708   */\n      dup6\n        /* \"#utility.yul\":2658:2730   */\n      tag_61\n      jump\t// in\n    tag_124:\n        /* \"#utility.yul\":2740:2813   */\n      tag_125\n        /* \"#utility.yul\":2808:2811   */\n      0x80\n        /* \"#utility.yul\":2797:2806   */\n      dup4\n        /* \"#utility.yul\":2793:2812   */\n      add\n        /* \"#utility.yul\":2784:2790   */\n      dup5\n        /* \"#utility.yul\":2740:2813   */\n      tag_61\n      jump\t// in\n    tag_125:\n        /* \"#utility.yul\":2065:2820   */\n      swap7\n      swap6\n      pop\n      pop\n      pop\n      pop\n      pop\n      pop\n      jump\t// out\n        /* \"#utility.yul\":2826:2985   */\n    tag_62:\n        /* \"#utility.yul\":2900:2911   */\n      0x00\n        /* \"#utility.yul\":2934:2940   */\n      dup3\n        /* \"#utility.yul\":2929:2932   */\n      dup3\n        /* \"#utility.yul\":2922:2941   */\n      mstore\n        /* \"#utility.yul\":2974:2978   */\n      0x20\n        /* \"#utility.yul\":2969:2972   */\n      dup3\n        /* \"#utility.yul\":2965:2979   */\n      add\n        /* \"#utility.yul\":2950:2979   */\n      swap1\n      pop\n        /* \"#utility.yul\":2826:2985   */\n      swap3\n      swap2\n      pop\n      pop\n      jump\t// out\n        /* \"#utility.yul\":2991:3348   */\n    tag_63:\n        /* \"#utility.yul\":3069:3072   */\n      0x00\n        /* \"#utility.yul\":3097:3136   */\n      tag_128\n        /* \"#utility.yul\":3130:3135   */\n      dup3\n        /* \"#utility.yul\":3097:3136   */\n      tag_56\n      jump\t// in\n    tag_128:\n        /* \"#utility.yul\":3152:3213   */\n      tag_129\n        /* \"#utility.yul\":3206:3212   */\n      dup2\n        /* \"#utility.yul\":3201:3204   */\n      dup6\n        /* \"#utility.yul\":3152:3213   */\n      tag_62\n      jump\t// in\n    tag_129:\n        /* \"#utility.yul\":3145:3213   */\n      swap4\n      pop\n        /* \"#utility.yul\":3222:3287   */\n      tag_130\n        /* \"#utility.yul\":3280:3286   */\n      dup2\n        /* \"#utility.yul\":3275:3278   */\n      dup6\n        /* \"#utility.yul\":3268:3272   */\n      0x20\n        /* \"#utility.yul\":3261:3266   */\n      dup7\n        /* \"#utility.yul\":3257:3273   */\n      add\n        /* \"#utility.yul\":3222:3287   */\n      tag_58\n      jump\t// in\n    tag_130:\n        /* \"#utility.yul\":3312:3341   */\n      tag_131\n        /* \"#utility.yul\":3334:3340   */\n      dup2\n        /* \"#utility.yul\":3312:3341   */\n      tag_59\n      jump\t// in\n    tag_131:\n        /* \"#utility.yul\":3307:3310   */\n      dup5\n        /* \"#utility.yul\":3303:3342   */\n      add\n        /* \"#utility.yul\":3296:3342   */\n      swap2\n      pop\n        /* \"#utility.yul\":3073:3348   */\n      pop\n        /* \"#utility.yul\":2991:3348   */\n      swap3\n      swap2\n      pop\n      pop\n      jump\t// out\n        /* \"#utility.yul\":3354:3462   */\n    tag_64:\n        /* \"#utility.yul\":3431:3455   */\n      tag_133\n        /* \"#utility.yul\":3449:3454   */\n      dup2\n        /* \"#utility.yul\":3431:3455   */\n      tag_53\n      jump\t// in\n    tag_133:\n        /* \"#utility.yul\":3426:3429   */\n      dup3\n        /* \"#utility.yul\":3419:3456   */\n      mstore\n        /* \"#utility.yul\":3354:3462   */\n      pop\n      pop\n      jump\t// out\n        /* \"#utility.yul\":3532:4666   */\n    tag_65:\n        /* \"#utility.yul\":3647:3650   */\n      0x00\n        /* \"#utility.yul\":3683:3687   */\n      0xa0\n        /* \"#utility.yul\":3678:3681   */\n      dup4\n        /* \"#utility.yul\":3674:3688   */\n      add\n        /* \"#utility.yul\":3770:3774   */\n      0x00\n        /* \"#utility.yul\":3763:3768   */\n      dup4\n        /* \"#utility.yul\":3759:3775   */\n      add\n        /* \"#utility.yul\":3753:3776   */\n      mload\n        /* \"#utility.yul\":3823:3826   */\n      dup5\n        /* \"#utility.yul\":3817:3821   */\n      dup3\n        /* \"#utility.yul\":3813:3827   */\n      sub\n        /* \"#utility.yul\":3806:3810   */\n      0x00\n        /* \"#utility.yul\":3801:3804   */\n      dup7\n        /* \"#utility.yul\":3797:3811   */\n      add\n        /* \"#utility.yul\":3790:3828   */\n      mstore\n        /* \"#utility.yul\":3849:3922   */\n      tag_135\n        /* \"#utility.yul\":3917:3921   */\n      dup3\n        /* \"#utility.yul\":3903:3915   */\n      dup3\n        /* \"#utility.yul\":3849:3922   */\n      tag_63\n      jump\t// in\n    tag_135:\n        /* \"#utility.yul\":3841:3922   */\n      swap2\n      pop\n        /* \"#utility.yul\":3698:3933   */\n      pop\n        /* \"#utility.yul\":4018:4022   */\n      0x20\n        /* \"#utility.yul\":4011:4016   */\n      dup4\n        /* \"#utility.yul\":4007:4023   */\n      add\n        /* \"#utility.yul\":4001:4024   */\n      mload\n        /* \"#utility.yul\":4037:4100   */\n      tag_136\n        /* \"#utility.yul\":4094:4098   */\n      0x20\n        /* \"#utility.yul\":4089:4092   */\n      dup7\n        /* \"#utility.yul\":4085:4099   */\n      add\n        /* \"#utility.yul\":4071:4083   */\n      dup3\n        /* \"#utility.yul\":4037:4100   */\n      tag_64\n      jump\t// in\n    tag_136:\n        /* \"#utility.yul\":3943:4110   */\n      pop\n        /* \"#utility.yul\":4193:4197   */\n      0x40\n        /* \"#utility.yul\":4186:4191   */\n      dup4\n        /* \"#utility.yul\":4182:4198   */\n      add\n        /* \"#utility.yul\":4176:4199   */\n      mload\n        /* \"#utility.yul\":4212:4275   */\n      tag_137\n        /* \"#utility.yul\":4269:4273   */\n      0x40\n        /* \"#utility.yul\":4264:4267   */\n      dup7\n        /* \"#utility.yul\":4260:4274   */\n      add\n        /* \"#utility.yul\":4246:4258   */\n      dup3\n        /* \"#utility.yul\":4212:4275   */\n      tag_64\n      jump\t// in\n    tag_137:\n        /* \"#utility.yul\":4120:4285   */\n      pop\n        /* \"#utility.yul\":4367:4371   */\n      0x60\n        /* \"#utility.yul\":4360:4365   */\n      dup4\n        /* \"#utility.yul\":4356:4372   */\n      add\n        /* \"#utility.yul\":4350:4373   */\n      mload\n        /* \"#utility.yul\":4386:4449   */\n      tag_138\n        /* \"#utility.yul\":4443:4447   */\n      0x60\n        /* \"#utility.yul\":4438:4441   */\n      dup7\n        /* \"#utility.yul\":4434:4448   */\n      add\n        /* \"#utility.yul\":4420:4432   */\n      dup3\n        /* \"#utility.yul\":4386:4449   */\n      tag_64\n      jump\t// in\n    tag_138:\n        /* \"#utility.yul\":4295:4459   */\n      pop\n        /* \"#utility.yul\":4547:4551   */\n      0x80\n        /* \"#utility.yul\":4540:4545   */\n      dup4\n        /* \"#utility.yul\":4536:4552   */\n      add\n        /* \"#utility.yul\":4530:4553   */\n      mload\n        /* \"#utility.yul\":4566:4629   */\n      tag_139\n        /* \"#utility.yul\":4623:4627   */\n      0x80\n        /* \"#utility.yul\":4618:4621   */\n      dup7\n        /* \"#utility.yul\":4614:4628   */\n      add\n        /* \"#utility.yul\":4600:4612   */\n      dup3\n        /* \"#utility.yul\":4566:4629   */\n      tag_64\n      jump\t// in\n    tag_139:\n        /* \"#utility.yul\":4469:4639   */\n      pop\n        /* \"#utility.yul\":4656:4660   */\n      dup1\n        /* \"#utility.yul\":4649:4660   */\n      swap2\n      pop\n        /* \"#utility.yul\":3652:4666   */\n      pop\n        /* \"#utility.yul\":3532:4666   */\n      swap3\n      swap2\n      pop\n      pop\n      jump\t// out\n        /* \"#utility.yul\":4672:5037   */\n    tag_16:\n        /* \"#utility.yul\":4811:4815   */\n      0x00\n        /* \"#utility.yul\":4849:4851   */\n      0x20\n        /* \"#utility.yul\":4838:4847   */\n      dup3\n        /* \"#utility.yul\":4834:4852   */\n      add\n        /* \"#utility.yul\":4826:4852   */\n      swap1\n      pop\n        /* \"#utility.yul\":4898:4907   */\n      dup2\n        /* \"#utility.yul\":4892:4896   */\n      dup2\n        /* \"#utility.yul\":4888:4908   */\n      sub\n        /* \"#utility.yul\":4884:4885   */\n      0x00\n        /* \"#utility.yul\":4873:4882   */\n      dup4\n        /* \"#utility.yul\":4869:4886   */\n      add\n        /* \"#utility.yul\":4862:4909   */\n      mstore\n        /* \"#utility.yul\":4926:5030   */\n      tag_141\n        /* \"#utility.yul\":5025:5029   */\n      dup2\n        /* \"#utility.yul\":5016:5022   */\n      dup5\n        /* \"#utility.yul\":4926:5030   */\n      tag_65\n      jump\t// in\n    tag_141:\n        /* \"#utility.yul\":4918:5030   */\n      swap1\n      pop\n        /* \"#utility.yul\":4672:5037   */\n      swap3\n      swap2\n      pop\n      pop\n      jump\t// out\n        /* \"#utility.yul\":5043:5160   */\n    tag_66:\n        /* \"#utility.yul\":5152:5153   */\n      0x00\n        /* \"#utility.yul\":5149:5150   */\n      0x00\n        /* \"#utility.yul\":5142:5154   */\n      revert\n        /* \"#utility.yul\":5166:5283   */\n    tag_67:\n        /* \"#utility.yul\":5275:5276   */\n      0x00\n        /* \"#utility.yul\":5272:5273   */\n      0x00\n        /* \"#utility.yul\":5265:5277   */\n      revert\n        /* \"#utility.yul\":5289:5469   */\n    tag_68:\n        /* \"#utility.yul\":5337:5414   */\n      0x4e487b7100000000000000000000000000000000000000000000000000000000\n        /* \"#utility.yul\":5334:5335   */\n      0x00\n        /* \"#utility.yul\":5327:5415   */\n      mstore\n        /* \"#utility.yul\":5434:5438   */\n      0x41\n        /* \"#utility.yul\":5431:5432   */\n      0x04\n        /* \"#utility.yul\":5424:5439   */\n      mstore\n        /* \"#utility.yul\":5458:5462   */\n      0x24\n        /* \"#utility.yul\":5455:5456   */\n      0x00\n        /* \"#utility.yul\":5448:5463   */\n      revert\n        /* \"#utility.yul\":5475:5756   */\n    tag_69:\n        /* \"#utility.yul\":5558:5585   */\n      tag_146\n        /* \"#utility.yul\":5580:5584   */\n      dup3\n        /* \"#utility.yul\":5558:5585   */\n      tag_59\n      jump\t// in\n    tag_146:\n        /* \"#utility.yul\":5550:5556   */\n      dup2\n        /* \"#utility.yul\":5546:5586   */\n      add\n        /* \"#utility.yul\":5688:5694   */\n      dup2\n        /* \"#utility.yul\":5676:5686   */\n      dup2\n        /* \"#utility.yul\":5673:5695   */\n      lt\n        /* \"#utility.yul\":5652:5670   */\n      0xffffffffffffffff\n        /* \"#utility.yul\":5640:5650   */\n      dup3\n        /* \"#utility.yul\":5637:5671   */\n      gt\n        /* \"#utility.yul\":5634:5696   */\n      or\n        /* \"#utility.yul\":5631:5719   */\n      iszero\n      tag_147\n      jumpi\n        /* \"#utility.yul\":5699:5717   */\n      tag_148\n      tag_68\n      jump\t// in\n    tag_148:\n        /* \"#utility.yul\":5631:5719   */\n    tag_147:\n        /* \"#utility.yul\":5739:5749   */\n      dup1\n        /* \"#utility.yul\":5735:5737   */\n      0x40\n        /* \"#utility.yul\":5728:5750   */\n      mstore\n        /* \"#utility.yul\":5518:5756   */\n      pop\n        /* \"#utility.yul\":5475:5756   */\n      pop\n      pop\n      jump\t// out\n        /* \"#utility.yul\":5762:5891   */\n    tag_70:\n        /* \"#utility.yul\":5796:5802   */\n      0x00\n        /* \"#utility.yul\":5823:5843   */\n      tag_150\n      tag_50\n      jump\t// in\n    tag_150:\n        /* \"#utility.yul\":5813:5843   */\n      swap1\n      pop\n        /* \"#utility.yul\":5852:5885   */\n      tag_151\n        /* \"#utility.yul\":5880:5884   */\n      dup3\n        /* \"#utility.yul\":5872:5878   */\n      dup3\n        /* \"#utility.yul\":5852:5885   */\n      tag_69\n      jump\t// in\n    tag_151:\n        /* \"#utility.yul\":5762:5891   */\n      swap2\n      swap1\n      pop\n      jump\t// out\n        /* \"#utility.yul\":5897:6205   */\n    tag_71:\n        /* \"#utility.yul\":5959:5963   */\n      0x00\n        /* \"#utility.yul\":6049:6067   */\n      0xffffffffffffffff\n        /* \"#utility.yul\":6041:6047   */\n      dup3\n        /* \"#utility.yul\":6038:6068   */\n      gt\n        /* \"#utility.yul\":6035:6091   */\n      iszero\n      tag_153\n      jumpi\n        /* \"#utility.yul\":6071:6089   */\n      tag_154\n      tag_68\n      jump\t// in\n    tag_154:\n        /* \"#utility.yul\":6035:6091   */\n    tag_153:\n        /* \"#utility.yul\":6109:6138   */\n      tag_155\n        /* \"#utility.yul\":6131:6137   */\n      dup3\n        /* \"#utility.yul\":6109:6138   */\n      tag_59\n      jump\t// in\n    tag_155:\n        /* \"#utility.yul\":6101:6138   */\n      swap1\n      pop\n        /* \"#utility.yul\":6193:6197   */\n      0x20\n        /* \"#utility.yul\":6187:6191   */\n      dup2\n        /* \"#utility.yul\":6183:6198   */\n      add\n        /* \"#utility.yul\":6175:6198   */\n      swap1\n      pop\n        /* \"#utility.yul\":5897:6205   */\n      swap2\n      swap1\n      pop\n      jump\t// out\n        /* \"#utility.yul\":6211:6359   */\n    tag_72:\n        /* \"#utility.yul\":6309:6315   */\n      dup3\n        /* \"#utility.yul\":6304:6307   */\n      dup2\n        /* \"#utility.yul\":6299:6302   */\n      dup4\n        /* \"#utility.yul\":6286:6316   */\n      calldatacopy\n        /* \"#utility.yul\":6350:6351   */\n      0x00\n        /* \"#utility.yul\":6341:6347   */\n      dup4\n        /* \"#utility.yul\":6336:6339   */\n      dup4\n        /* \"#utility.yul\":6332:6348   */\n      add\n        /* \"#utility.yul\":6325:6352   */\n      mstore\n        /* \"#utility.yul\":6211:6359   */\n      pop\n      pop\n      pop\n      jump\t// out\n        /* \"#utility.yul\":6365:6790   */\n    tag_73:\n        /* \"#utility.yul\":6443:6448   */\n      0x00\n        /* \"#utility.yul\":6468:6534   */\n      tag_158\n        /* \"#utility.yul\":6484:6533   */\n      tag_159\n        /* \"#utility.yul\":6526:6532   */\n      dup5\n        /* \"#utility.yul\":6484:6533   */\n      tag_71\n      jump\t// in\n    tag_159:\n        /* \"#utility.yul\":6468:6534   */\n      tag_70\n      jump\t// in\n    tag_158:\n        /* \"#utility.yul\":6459:6534   */\n      swap1\n      pop\n        /* \"#utility.yul\":6557:6563   */\n      dup3\n        /* \"#utility.yul\":6550:6555   */\n      dup2\n        /* \"#utility.yul\":6543:6564   */\n      mstore\n        /* \"#utility.yul\":6595:6599   */\n      0x20\n        /* \"#utility.yul\":6588:6593   */\n      dup2\n        /* \"#utility.yul\":6584:6600   */\n      add\n        /* \"#utility.yul\":6633:6636   */\n      dup5\n        /* \"#utility.yul\":6624:6630   */\n      dup5\n        /* \"#utility.yul\":6619:6622   */\n      dup5\n        /* \"#utility.yul\":6615:6631   */\n      add\n        /* \"#utility.yul\":6612:6637   */\n      gt\n        /* \"#utility.yul\":6609:6721   */\n      iszero\n      tag_160\n      jumpi\n        /* \"#utility.yul\":6640:6719   */\n      tag_161\n      tag_67\n      jump\t// in\n    tag_161:\n        /* \"#utility.yul\":6609:6721   */\n    tag_160:\n        /* \"#utility.yul\":6730:6784   */\n      tag_162\n        /* \"#utility.yul\":6777:6783   */\n      dup5\n        /* \"#utility.yul\":6772:6775   */\n      dup3\n        /* \"#utility.yul\":6767:6770   */\n      dup6\n        /* \"#utility.yul\":6730:6784   */\n      tag_72\n      jump\t// in\n    tag_162:\n        /* \"#utility.yul\":6449:6790   */\n      pop\n        /* \"#utility.yul\":6365:6790   */\n      swap4\n      swap3\n      pop\n      pop\n      pop\n      jump\t// out\n        /* \"#utility.yul\":6810:7150   */\n    tag_74:\n        /* \"#utility.yul\":6866:6871   */\n      0x00\n        /* \"#utility.yul\":6915:6918   */\n      dup3\n        /* \"#utility.yul\":6908:6912   */\n      0x1f\n        /* \"#utility.yul\":6900:6906   */\n      dup4\n        /* \"#utility.yul\":6896:6913   */\n      add\n        /* \"#utility.yul\":6892:6919   */\n      slt\n        /* \"#utility.yul\":6882:7004   */\n      tag_164\n      jumpi\n        /* \"#utility.yul\":6923:7002   */\n      tag_165\n      tag_66\n      jump\t// in\n    tag_165:\n        /* \"#utility.yul\":6882:7004   */\n    tag_164:\n        /* \"#utility.yul\":7040:7046   */\n      dup2\n        /* \"#utility.yul\":7027:7047   */\n      calldataload\n        /* \"#utility.yul\":7065:7144   */\n      tag_166\n        /* \"#utility.yul\":7140:7143   */\n      dup5\n        /* \"#utility.yul\":7132:7138   */\n      dup3\n        /* \"#utility.yul\":7125:7129   */\n      0x20\n        /* \"#utility.yul\":7117:7123   */\n      dup7\n        /* \"#utility.yul\":7113:7130   */\n      add\n        /* \"#utility.yul\":7065:7144   */\n      tag_73\n      jump\t// in\n    tag_166:\n        /* \"#utility.yul\":7056:7144   */\n      swap2\n      pop\n        /* \"#utility.yul\":6872:7150   */\n      pop\n        /* \"#utility.yul\":6810:7150   */\n      swap3\n      swap2\n      pop\n      pop\n      jump\t// out\n        /* \"#utility.yul\":7156:8247   */\n    tag_19:\n        /* \"#utility.yul\":7261:7267   */\n      0x00\n        /* \"#utility.yul\":7269:7275   */\n      0x00\n        /* \"#utility.yul\":7277:7283   */\n      0x00\n        /* \"#utility.yul\":7285:7291   */\n      0x00\n        /* \"#utility.yul\":7293:7299   */\n      0x00\n        /* \"#utility.yul\":7342:7345   */\n      0xa0\n        /* \"#utility.yul\":7330:7339   */\n      dup7\n        /* \"#utility.yul\":7321:7328   */\n      dup9\n        /* \"#utility.yul\":7317:7340   */\n      sub\n        /* \"#utility.yul\":7313:7346   */\n      slt\n        /* \"#utility.yul\":7310:7430   */\n      iszero\n      tag_168\n      jumpi\n        /* \"#utility.yul\":7349:7428   */\n      tag_169\n      tag_51\n      jump\t// in\n    tag_169:\n        /* \"#utility.yul\":7310:7430   */\n    tag_168:\n        /* \"#utility.yul\":7469:7470   */\n      0x00\n        /* \"#utility.yul\":7494:7547   */\n      tag_170\n        /* \"#utility.yul\":7539:7546   */\n      dup9\n        /* \"#utility.yul\":7530:7536   */\n      dup3\n        /* \"#utility.yul\":7519:7528   */\n      dup10\n        /* \"#utility.yul\":7515:7537   */\n      add\n        /* \"#utility.yul\":7494:7547   */\n      tag_55\n      jump\t// in\n    tag_170:\n        /* \"#utility.yul\":7484:7547   */\n      swap6\n      pop\n        /* \"#utility.yul\":7440:7557   */\n      pop\n        /* \"#utility.yul\":7624:7626   */\n      0x20\n        /* \"#utility.yul\":7613:7622   */\n      dup7\n        /* \"#utility.yul\":7609:7627   */\n      add\n        /* \"#utility.yul\":7596:7628   */\n      calldataload\n        /* \"#utility.yul\":7655:7673   */\n      0xffffffffffffffff\n        /* \"#utility.yul\":7647:7653   */\n      dup2\n        /* \"#utility.yul\":7644:7674   */\n      gt\n        /* \"#utility.yul\":7641:7758   */\n      iszero\n      tag_171\n      jumpi\n        /* \"#utility.yul\":7677:7756   */\n      tag_172\n      tag_52\n      jump\t// in\n    tag_172:\n        /* \"#utility.yul\":7641:7758   */\n    tag_171:\n        /* \"#utility.yul\":7782:7845   */\n      tag_173\n        /* \"#utility.yul\":7837:7844   */\n      dup9\n        /* \"#utility.yul\":7828:7834   */\n      dup3\n        /* \"#utility.yul\":7817:7826   */\n      dup10\n        /* \"#utility.yul\":7813:7835   */\n      add\n        /* \"#utility.yul\":7782:7845   */\n      tag_74\n      jump\t// in\n    tag_173:\n        /* \"#utility.yul\":7772:7845   */\n      swap5\n      pop\n        /* \"#utility.yul\":7567:7855   */\n      pop\n        /* \"#utility.yul\":7894:7896   */\n      0x40\n        /* \"#utility.yul\":7920:7973   */\n      tag_174\n        /* \"#utility.yul\":7965:7972   */\n      dup9\n        /* \"#utility.yul\":7956:7962   */\n      dup3\n        /* \"#utility.yul\":7945:7954   */\n      dup10\n        /* \"#utility.yul\":7941:7963   */\n      add\n        /* \"#utility.yul\":7920:7973   */\n      tag_55\n      jump\t// in\n    tag_174:\n        /* \"#utility.yul\":7910:7973   */\n      swap4\n      pop\n        /* \"#utility.yul\":7865:7983   */\n      pop\n        /* \"#utility.yul\":8022:8024   */\n      0x60\n        /* \"#utility.yul\":8048:8101   */\n      tag_175\n        /* \"#utility.yul\":8093:8100   */\n      dup9\n        /* \"#utility.yul\":8084:8090   */\n      dup3\n        /* \"#utility.yul\":8073:8082   */\n      dup10\n        /* \"#utility.yul\":8069:8091   */\n      add\n        /* \"#utility.yul\":8048:8101   */\n      tag_55\n      jump\t// in\n    tag_175:\n        /* \"#utility.yul\":8038:8101   */\n      swap3\n      pop\n        /* \"#utility.yul\":7993:8111   */\n      pop\n        /* \"#utility.yul\":8150:8153   */\n      0x80\n        /* \"#utility.yul\":8177:8230   */\n      tag_176\n        /* \"#utility.yul\":8222:8229   */\n      dup9\n        /* \"#utility.yul\":8213:8219   */\n      dup3\n        /* \"#utility.yul\":8202:8211   */\n      dup10\n        /* \"#utility.yul\":8198:8220   */\n      add\n        /* \"#utility.yul\":8177:8230   */\n      tag_55\n      jump\t// in\n    tag_176:\n        /* \"#utility.yul\":8167:8230   */\n      swap2\n      pop\n        /* \"#utility.yul\":8121:8240   */\n      pop\n        /* \"#utility.yul\":7156:8247   */\n      swap3\n      swap6\n      pop\n      swap3\n      swap6\n      swap1\n      swap4\n      pop\n      jump\t// out\n        /* \"#utility.yul\":8253:8433   */\n    tag_75:\n        /* \"#utility.yul\":8301:8378   */\n      0x4e487b7100000000000000000000000000000000000000000000000000000000\n        /* \"#utility.yul\":8298:8299   */\n      0x00\n        /* \"#utility.yul\":8291:8379   */\n      mstore\n        /* \"#utility.yul\":8398:8402   */\n      0x22\n        /* \"#utility.yul\":8395:8396   */\n      0x04\n        /* \"#utility.yul\":8388:8403   */\n      mstore\n        /* \"#utility.yul\":8422:8426   */\n      0x24\n        /* \"#utility.yul\":8419:8420   */\n      0x00\n        /* \"#utility.yul\":8412:8427   */\n      revert\n        /* \"#utility.yul\":8439:8759   */\n    tag_22:\n        /* \"#utility.yul\":8483:8489   */\n      0x00\n        /* \"#utility.yul\":8520:8521   */\n      0x02\n        /* \"#utility.yul\":8514:8518   */\n      dup3\n        /* \"#utility.yul\":8510:8522   */\n      div\n        /* \"#utility.yul\":8500:8522   */\n      swap1\n      pop\n        /* \"#utility.yul\":8567:8568   */\n      0x01\n        /* \"#utility.yul\":8561:8565   */\n      dup3\n        /* \"#utility.yul\":8557:8569   */\n      and\n        /* \"#utility.yul\":8588:8606   */\n      dup1\n        /* \"#utility.yul\":8578:8659   */\n      tag_179\n      jumpi\n        /* \"#utility.yul\":8644:8648   */\n      0x7f\n        /* \"#utility.yul\":8636:8642   */\n      dup3\n        /* \"#utility.yul\":8632:8649   */\n      and\n        /* \"#utility.yul\":8622:8649   */\n      swap2\n      pop\n        /* \"#utility.yul\":8578:8659   */\n    tag_179:\n        /* \"#utility.yul\":8706:8708   */\n      0x20\n        /* \"#utility.yul\":8698:8704   */\n      dup3\n        /* \"#utility.yul\":8695:8709   */\n      lt\n        /* \"#utility.yul\":8675:8693   */\n      dup2\n        /* \"#utility.yul\":8672:8710   */\n      sub\n        /* \"#utility.yul\":8669:8753   */\n      tag_180\n      jumpi\n        /* \"#utility.yul\":8725:8743   */\n      tag_181\n      tag_75\n      jump\t// in\n    tag_181:\n        /* \"#utility.yul\":8669:8753   */\n    tag_180:\n        /* \"#utility.yul\":8490:8759   */\n      pop\n        /* \"#utility.yul\":8439:8759   */\n      swap2\n      swap1\n      pop\n      jump\t// out\n        /* \"#utility.yul\":8765:8935   */\n    tag_76:\n        /* \"#utility.yul\":8905:8927   */\n      0x4d61726b73206d757374206265203c3d20313030000000000000000000000000\n        /* \"#utility.yul\":8901:8902   */\n      0x00\n        /* \"#utility.yul\":8893:8899   */\n      dup3\n        /* \"#utility.yul\":8889:8903   */\n      add\n        /* \"#utility.yul\":8882:8928   */\n      mstore\n        /* \"#utility.yul\":8765:8935   */\n      pop\n      jump\t// out\n        /* \"#utility.yul\":8941:9307   */\n    tag_77:\n        /* \"#utility.yul\":9083:9086   */\n      0x00\n        /* \"#utility.yul\":9104:9171   */\n      tag_184\n        /* \"#utility.yul\":9168:9170   */\n      0x14\n        /* \"#utility.yul\":9163:9166   */\n      dup4\n        /* \"#utility.yul\":9104:9171   */\n      tag_57\n      jump\t// in\n    tag_184:\n        /* \"#utility.yul\":9097:9171   */\n      swap2\n      pop\n        /* \"#utility.yul\":9180:9273   */\n      tag_185\n        /* \"#utility.yul\":9269:9272   */\n      dup3\n        /* \"#utility.yul\":9180:9273   */\n      tag_76\n      jump\t// in\n    tag_185:\n        /* \"#utility.yul\":9298:9300   */\n      0x20\n        /* \"#utility.yul\":9293:9296   */\n      dup3\n        /* \"#utility.yul\":9289:9301   */\n      add\n        /* \"#utility.yul\":9282:9301   */\n      swap1\n      pop\n        /* \"#utility.yul\":8941:9307   */\n      swap2\n      swap1\n      pop\n      jump\t// out\n        /* \"#utility.yul\":9313:9732   */\n    tag_40:\n        /* \"#utility.yul\":9479:9483   */\n      0x00\n        /* \"#utility.yul\":9517:9519   */\n      0x20\n        /* \"#utility.yul\":9506:9515   */\n      dup3\n        /* \"#utility.yul\":9502:9520   */\n      add\n        /* \"#utility.yul\":9494:9520   */\n      swap1\n      pop\n        /* \"#utility.yul\":9566:9575   */\n      dup2\n        /* \"#utility.yul\":9560:9564   */\n      dup2\n        /* \"#utility.yul\":9556:9576   */\n      sub\n        /* \"#utility.yul\":9552:9553   */\n      0x00\n        /* \"#utility.yul\":9541:9550   */\n      dup4\n        /* \"#utility.yul\":9537:9554   */\n      add\n        /* \"#utility.yul\":9530:9577   */\n      mstore\n        /* \"#utility.yul\":9594:9725   */\n      tag_187\n        /* \"#utility.yul\":9720:9724   */\n      dup2\n        /* \"#utility.yul\":9594:9725   */\n      tag_77\n      jump\t// in\n    tag_187:\n        /* \"#utility.yul\":9586:9725   */\n      swap1\n      pop\n        /* \"#utility.yul\":9313:9732   */\n      swap2\n      swap1\n      pop\n      jump\t// out\n        /* \"#utility.yul\":9738:9918   */\n    tag_78:\n        /* \"#utility.yul\":9786:9863   */\n      0x4e487b7100000000000000000000000000000000000000000000000000000000\n        /* \"#utility.yul\":9783:9784   */\n      0x00\n        /* \"#utility.yul\":9776:9864   */\n      mstore\n        /* \"#utility.yul\":9883:9887   */\n      0x11\n        /* \"#utility.yul\":9880:9881   */\n      0x04\n        /* \"#utility.yul\":9873:9888   */\n      mstore\n        /* \"#utility.yul\":9907:9911   */\n      0x24\n        /* \"#utility.yul\":9904:9905   */\n      0x00\n        /* \"#utility.yul\":9897:9912   */\n      revert\n        /* \"#utility.yul\":9924:10115   */\n    tag_42:\n        /* \"#utility.yul\":9964:9967   */\n      0x00\n        /* \"#utility.yul\":9983:10003   */\n      tag_190\n        /* \"#utility.yul\":10001:10002   */\n      dup3\n        /* \"#utility.yul\":9983:10003   */\n      tag_53\n      jump\t// in\n    tag_190:\n        /* \"#utility.yul\":9978:10003   */\n      swap2\n      pop\n        /* \"#utility.yul\":10017:10037   */\n      tag_191\n        /* \"#utility.yul\":10035:10036   */\n      dup4\n        /* \"#utility.yul\":10017:10037   */\n      tag_53\n      jump\t// in\n    tag_191:\n        /* \"#utility.yul\":10012:10037   */\n      swap3\n      pop\n        /* \"#utility.yul\":10060:10061   */\n      dup3\n        /* \"#utility.yul\":10057:10058   */\n      dup3\n        /* \"#utility.yul\":10053:10062   */\n      add\n        /* \"#utility.yul\":10046:10062   */\n      swap1\n      pop\n        /* \"#utility.yul\":10081:10084   */\n      dup1\n        /* \"#utility.yul\":10078:10079   */\n      dup3\n        /* \"#utility.yul\":10075:10085   */\n      gt\n        /* \"#utility.yul\":10072:10108   */\n      iszero\n      tag_192\n      jumpi\n        /* \"#utility.yul\":10088:10106   */\n      tag_193\n      tag_78\n      jump\t// in\n    tag_193:\n        /* \"#utility.yul\":10072:10108   */\n    tag_192:\n        /* \"#utility.yul\":9924:10115   */\n      swap3\n      swap2\n      pop\n      pop\n      jump\t// out\n        /* \"#utility.yul\":10121:10531   */\n    tag_45:\n        /* \"#utility.yul\":10161:10168   */\n      0x00\n        /* \"#utility.yul\":10184:10204   */\n      tag_195\n        /* \"#utility.yul\":10202:10203   */\n      dup3\n        /* \"#utility.yul\":10184:10204   */\n      tag_53\n      jump\t// in\n    tag_195:\n        /* \"#utility.yul\":10179:10204   */\n      swap2\n      pop\n        /* \"#utility.yul\":10218:10238   */\n      tag_196\n        /* \"#utility.yul\":10236:10237   */\n      dup4\n        /* \"#utility.yul\":10218:10238   */\n      tag_53\n      jump\t// in\n    tag_196:\n        /* \"#utility.yul\":10213:10238   */\n      swap3\n      pop\n        /* \"#utility.yul\":10273:10274   */\n      dup3\n        /* \"#utility.yul\":10270:10271   */\n      dup3\n        /* \"#utility.yul\":10266:10275   */\n      mul\n        /* \"#utility.yul\":10295:10325   */\n      tag_197\n        /* \"#utility.yul\":10313:10324   */\n      dup2\n        /* \"#utility.yul\":10295:10325   */\n      tag_53\n      jump\t// in\n    tag_197:\n        /* \"#utility.yul\":10284:10325   */\n      swap2\n      pop\n        /* \"#utility.yul\":10474:10475   */\n      dup3\n        /* \"#utility.yul\":10465:10472   */\n      dup3\n        /* \"#utility.yul\":10461:10476   */\n      div\n        /* \"#utility.yul\":10458:10459   */\n      dup5\n        /* \"#utility.yul\":10455:10477   */\n      eq\n        /* \"#utility.yul\":10435:10436   */\n      dup4\n        /* \"#utility.yul\":10428:10437   */\n      iszero\n        /* \"#utility.yul\":10408:10491   */\n      or\n        /* \"#utility.yul\":10385:10524   */\n      tag_198\n      jumpi\n        /* \"#utility.yul\":10504:10522   */\n      tag_199\n      tag_78\n      jump\t// in\n    tag_199:\n        /* \"#utility.yul\":10385:10524   */\n    tag_198:\n        /* \"#utility.yul\":10169:10531   */\n      pop\n        /* \"#utility.yul\":10121:10531   */\n      swap3\n      swap2\n      pop\n      pop\n      jump\t// out\n        /* \"#utility.yul\":10537:10717   */\n    tag_79:\n        /* \"#utility.yul\":10585:10662   */\n      0x4e487b7100000000000000000000000000000000000000000000000000000000\n        /* \"#utility.yul\":10582:10583   */\n      0x00\n        /* \"#utility.yul\":10575:10663   */\n      mstore\n        /* \"#utility.yul\":10682:10686   */\n      0x12\n        /* \"#utility.yul\":10679:10680   */\n      0x04\n        /* \"#utility.yul\":10672:10687   */\n      mstore\n        /* \"#utility.yul\":10706:10710   */\n      0x24\n        /* \"#utility.yul\":10703:10704   */\n      0x00\n        /* \"#utility.yul\":10696:10711   */\n      revert\n        /* \"#utility.yul\":10723:10908   */\n    tag_47:\n        /* \"#utility.yul\":10763:10764   */\n      0x00\n        /* \"#utility.yul\":10780:10800   */\n      tag_202\n        /* \"#utility.yul\":10798:10799   */\n      dup3\n        /* \"#utility.yul\":10780:10800   */\n      tag_53\n      jump\t// in\n    tag_202:\n        /* \"#utility.yul\":10775:10800   */\n      swap2\n      pop\n        /* \"#utility.yul\":10814:10834   */\n      tag_203\n        /* \"#utility.yul\":10832:10833   */\n      dup4\n        /* \"#utility.yul\":10814:10834   */\n      tag_53\n      jump\t// in\n    tag_203:\n        /* \"#utility.yul\":10809:10834   */\n      swap3\n      pop\n        /* \"#utility.yul\":10853:10854   */\n      dup3\n        /* \"#utility.yul\":10843:10878   */\n      tag_204\n      jumpi\n        /* \"#utility.yul\":10858:10876   */\n      tag_205\n      tag_79\n      jump\t// in\n    tag_205:\n        /* \"#utility.yul\":10843:10878   */\n    tag_204:\n        /* \"#utility.yul\":10900:10901   */\n      dup3\n        /* \"#utility.yul\":10897:10898   */\n      dup3\n        /* \"#utility.yul\":10893:10902   */\n      div\n        /* \"#utility.yul\":10888:10902   */\n      swap1\n      pop\n        /* \"#utility.yul\":10723:10908   */\n      swap3\n      swap2\n      pop\n      pop\n      jump\t// out\n        /* \"#utility.yul\":10914:11055   */\n    tag_80:\n        /* \"#utility.yul\":10963:10967   */\n      0x00\n        /* \"#utility.yul\":10986:10989   */\n      dup2\n        /* \"#utility.yul\":10978:10989   */\n      swap1\n      pop\n        /* \"#utility.yul\":11009:11012   */\n      dup2\n        /* \"#utility.yul\":11006:11007   */\n      0x00\n        /* \"#utility.yul\":10999:11013   */\n      mstore\n        /* \"#utility.yul\":11043:11047   */\n      0x20\n        /* \"#utility.yul\":11040:11041   */\n      0x00\n        /* \"#utility.yul\":11030:11048   */\n      keccak256\n        /* \"#utility.yul\":11022:11048   */\n      swap1\n      pop\n        /* \"#utility.yul\":10914:11055   */\n      swap2\n      swap1\n      pop\n      jump\t// out\n        /* \"#utility.yul\":11061:11154   */\n    tag_81:\n        /* \"#utility.yul\":11098:11104   */\n      0x00\n        /* \"#utility.yul\":11145:11147   */\n      0x20\n        /* \"#utility.yul\":11140:11142   */\n      0x1f\n        /* \"#utility.yul\":11133:11138   */\n      dup4\n        /* \"#utility.yul\":11129:11143   */\n      add\n        /* \"#utility.yul\":11125:11148   */\n      div\n        /* \"#utility.yul\":11115:11148   */\n      swap1\n      pop\n        /* \"#utility.yul\":11061:11154   */\n      swap2\n      swap1\n      pop\n      jump\t// out\n        /* \"#utility.yul\":11160:11267   */\n    tag_82:\n        /* \"#utility.yul\":11204:11212   */\n      0x00\n        /* \"#utility.yul\":11254:11259   */\n      dup3\n        /* \"#utility.yul\":11248:11252   */\n      dup3\n        /* \"#utility.yul\":11244:11260   */\n      shl\n        /* \"#utility.yul\":11223:11260   */\n      swap1\n      pop\n        /* \"#utility.yul\":11160:11267   */\n      swap3\n      swap2\n      pop\n      pop\n      jump\t// out\n        /* \"#utility.yul\":11273:11666   */\n    tag_83:\n        /* \"#utility.yul\":11342:11348   */\n      0x00\n        /* \"#utility.yul\":11392:11393   */\n      0x08\n        /* \"#utility.yul\":11380:11390   */\n      dup4\n        /* \"#utility.yul\":11376:11394   */\n      mul\n        /* \"#utility.yul\":11415:11512   */\n      tag_210\n        /* \"#utility.yul\":11445:11511   */\n      0xffffffffffffffffffffffffffffffffffffffffffffffffffffffffffffffff\n        /* \"#utility.yul\":11434:11443   */\n      dup3\n        /* \"#utility.yul\":11415:11512   */\n      tag_82\n      jump\t// in\n    tag_210:\n        /* \"#utility.yul\":11533:11572   */\n      tag_211\n        /* \"#utility.yul\":11563:11571   */\n      dup7\n        /* \"#utility.yul\":11552:11561   */\n      dup4\n        /* \"#utility.yul\":11533:11572   */\n      tag_82\n      jump\t// in\n    tag_211:\n        /* \"#utility.yul\":11521:11572   */\n      swap6\n      pop\n        /* \"#utility.yul\":11605:11609   */\n      dup1\n        /* \"#utility.yul\":11601:11610   */\n      not\n        /* \"#utility.yul\":11594:11599   */\n      dup5\n        /* \"#utility.yul\":11590:11611   */\n      and\n        /* \"#utility.yul\":11581:11611   */\n      swap4\n      pop\n        /* \"#utility.yul\":11654:11658   */\n      dup1\n        /* \"#utility.yul\":11644:11652   */\n      dup7\n        /* \"#utility.yul\":11640:11659   */\n      and\n        /* \"#utility.yul\":11633:11638   */\n      dup5\n        /* \"#utility.yul\":11630:11660   */\n      or\n        /* \"#utility.yul\":11620:11660   */\n      swap3\n      pop\n        /* \"#utility.yul\":11349:11666   */\n      pop\n      pop\n        /* \"#utility.yul\":11273:11666   */\n      swap4\n      swap3\n      pop\n      pop\n      pop\n      jump\t// out\n        /* \"#utility.yul\":11672:11732   */\n    tag_84:\n        /* \"#utility.yul\":11700:11703   */\n      0x00\n        /* \"#utility.yul\":11721:11726   */\n      dup2\n        /* \"#utility.yul\":11714:11726   */\n      swap1\n      pop\n        /* \"#utility.yul\":11672:11732   */\n      swap2\n      swap1\n      pop\n      jump\t// out\n        /* \"#utility.yul\":11738:11880   */\n    tag_85:\n        /* \"#utility.yul\":11788:11797   */\n      0x00\n        /* \"#utility.yul\":11821:11874   */\n      tag_214\n        /* \"#utility.yul\":11839:11873   */\n      tag_215\n        /* \"#utility.yul\":11848:11872   */\n      tag_216\n        /* \"#utility.yul\":11866:11871   */\n      dup5\n        /* \"#utility.yul\":11848:11872   */\n      tag_53\n      jump\t// in\n    tag_216:\n        /* \"#utility.yul\":11839:11873   */\n      tag_84\n      jump\t// in\n    tag_215:\n        /* \"#utility.yul\":11821:11874   */\n      tag_53\n      jump\t// in\n    tag_214:\n        /* \"#utility.yul\":11808:11874   */\n      swap1\n      pop\n        /* \"#utility.yul\":11738:11880   */\n      swap2\n      swap1\n      pop\n      jump\t// out\n        /* \"#utility.yul\":11886:11961   */\n    tag_86:\n        /* \"#utility.yul\":11929:11932   */\n      0x00\n        /* \"#utility.yul\":11950:11955   */\n      dup2\n        /* \"#utility.yul\":11943:11955   */\n      swap1\n      pop\n        /* \"#utility.yul\":11886:11961   */\n      swap2\n      swap1\n      pop\n      jump\t// out\n        /* \"#utility.yul\":11967:12236   */\n    tag_87:\n        /* \"#utility.yul\":12077:12116   */\n      tag_219\n        /* \"#utility.yul\":12108:12115   */\n      dup4\n        /* \"#utility.yul\":12077:12116   */\n      tag_85\n      jump\t// in\n    tag_219:\n        /* \"#utility.yul\":12138:12229   */\n      tag_220\n        /* \"#utility.yul\":12187:12228   */\n      tag_221\n        /* \"#utility.yul\":12211:12227   */\n      dup3\n        /* \"#utility.yul\":12187:12228   */\n      tag_86\n      jump\t// in\n    tag_221:\n        /* \"#utility.yul\":12179:12185   */\n      dup5\n        /* \"#utility.yul\":12172:12176   */\n      dup5\n        /* \"#utility.yul\":12166:12177   */\n      sload\n        /* \"#utility.yul\":12138:12229   */\n      tag_83\n      jump\t// in\n    tag_220:\n        /* \"#utility.yul\":12132:12136   */\n      dup3\n        /* \"#utility.yul\":12125:12230   */\n      sstore\n        /* \"#utility.yul\":12043:12236   */\n      pop\n        /* \"#utility.yul\":11967:12236   */\n      pop\n      pop\n      pop\n      jump\t// out\n        /* \"#utility.yul\":12242:12315   */\n    tag_88:\n        /* \"#utility.yul\":12287:12290   */\n      0x00\n        /* \"#utility.yul\":12308:12309   */\n      0x00\n        /* \"#utility.yul\":12301:12309   */\n      swap1\n      pop\n        /* \"#utility.yul\":12242:12315   */\n      swap1\n      jump\t// out\n        /* \"#utility.yul\":12321:12510   */\n    tag_89:\n        /* \"#utility.yul\":12398:12430   */\n      tag_224\n      tag_88\n      jump\t// in\n    tag_224:\n        /* \"#utility.yul\":12439:12504   */\n      tag_225\n        /* \"#utility.yul\":12497:12503   */\n      dup2\n        /* \"#utility.yul\":12489:12495   */\n      dup5\n        /* \"#utility.yul\":12483:12487   */\n      dup5\n        /* \"#utility.yul\":12439:12504   */\n      tag_87\n      jump\t// in\n    tag_225:\n        /* \"#utility.yul\":12374:12510   */\n      pop\n        /* \"#utility.yul\":12321:12510   */\n      pop\n      pop\n      jump\t// out\n        /* \"#utility.yul\":12516:12702   */\n    tag_90:\n        /* \"#utility.yul\":12576:12696   */\n    tag_227:\n        /* \"#utility.yul\":12593:12596   */\n      dup2\n        /* \"#utility.yul\":12586:12591   */\n      dup2\n        /* \"#utility.yul\":12583:12597   */\n      lt\n        /* \"#utility.yul\":12576:12696   */\n      iszero\n      tag_229\n      jumpi\n        /* \"#utility.yul\":12647:12686   */\n      tag_230\n        /* \"#utility.yul\":12684:12685   */\n      0x00\n        /* \"#utility.yul\":12677:12682   */\n      dup3\n        /* \"#utility.yul\":12647:12686   */\n      tag_89\n      jump\t// in\n    tag_230:\n        /* \"#utility.yul\":12620:12621   */\n      0x01\n        /* \"#utility.yul\":12613:12618   */\n      dup2\n        /* \"#utility.yul\":12609:12622   */\n      add\n        /* \"#utility.yul\":12600:12622   */\n      swap1\n      pop\n        /* \"#utility.yul\":12576:12696   */\n      jump(tag_227)\n    tag_229:\n        /* \"#utility.yul\":12516:12702   */\n      pop\n      pop\n      jump\t// out\n        /* \"#utility.yul\":12708:13251   */\n    tag_91:\n        /* \"#utility.yul\":12809:12811   */\n      0x1f\n        /* \"#utility.yul\":12804:12807   */\n      dup3\n        /* \"#utility.yul\":12801:12812   */\n      gt\n        /* \"#utility.yul\":12798:13244   */\n      iszero\n      tag_232\n      jumpi\n        /* \"#utility.yul\":12843:12881   */\n      tag_233\n        /* \"#utility.yul\":12875:12880   */\n      dup2\n        /* \"#utility.yul\":12843:12881   */\n      tag_80\n      jump\t// in\n    tag_233:\n        /* \"#utility.yul\":12927:12956   */\n      tag_234\n        /* \"#utility.yul\":12945:12955   */\n      dup5\n        /* \"#utility.yul\":12927:12956   */\n      tag_81\n      jump\t// in\n    tag_234:\n        /* \"#utility.yul\":12917:12925   */\n      dup2\n        /* \"#utility.yul\":12913:12957   */\n      add\n        /* \"#utility.yul\":13110:13112   */\n      0x20\n        /* \"#utility.yul\":13098:13108   */\n      dup6\n        /* \"#utility.yul\":13095:13113   */\n      lt\n        /* \"#utility.yul\":13092:13141   */\n      iszero\n      tag_235\n      jumpi\n        /* \"#utility.yul\":13131:13139   */\n      dup2\n        /* \"#utility.yul\":13116:13139   */\n      swap1\n      pop\n        /* \"#utility.yul\":13092:13141   */\n    tag_235:\n        /* \"#utility.yul\":13154:13234   */\n      tag_236\n        /* \"#utility.yul\":13210:13232   */\n      tag_237\n        /* \"#utility.yul\":13228:13231   */\n      dup6\n        /* \"#utility.yul\":13210:13232   */\n      tag_81\n      jump\t// in\n    tag_237:\n        /* \"#utility.yul\":13200:13208   */\n      dup4\n        /* \"#utility.yul\":13196:13233   */\n      add\n        /* \"#utility.yul\":13183:13194   */\n      dup3\n        /* \"#utility.yul\":13154:13234   */\n      tag_90\n      jump\t// in\n    tag_236:\n        /* \"#utility.yul\":12813:13244   */\n      pop\n      pop\n        /* \"#utility.yul\":12798:13244   */\n    tag_232:\n        /* \"#utility.yul\":12708:13251   */\n      pop\n      pop\n      pop\n      jump\t// out\n        /* \"#utility.yul\":13257:13374   */\n    tag_92:\n        /* \"#utility.yul\":13311:13319   */\n      0x00\n        /* \"#utility.yul\":13361:13366   */\n      dup3\n        /* \"#utility.yul\":13355:13359   */\n      dup3\n        /* \"#utility.yul\":13351:13367   */\n      shr\n        /* \"#utility.yul\":13330:13367   */\n      swap1\n      pop\n        /* \"#utility.yul\":13257:13374   */\n      swap3\n      swap2\n      pop\n      pop\n      jump\t// out\n        /* \"#utility.yul\":13380:13549   */\n    tag_93:\n        /* \"#utility.yul\":13424:13430   */\n      0x00\n        /* \"#utility.yul\":13457:13508   */\n      tag_240\n        /* \"#utility.yul\":13505:13506   */\n      0x00\n        /* \"#utility.yul\":13501:13507   */\n      not\n        /* \"#utility.yul\":13493:13498   */\n      dup5\n        /* \"#utility.yul\":13490:13491   */\n      0x08\n        /* \"#utility.yul\":13486:13499   */\n      mul\n        /* \"#utility.yul\":13457:13508   */\n      tag_92\n      jump\t// in\n    tag_240:\n        /* \"#utility.yul\":13453:13509   */\n      not\n        /* \"#utility.yul\":13538:13542   */\n      dup1\n        /* \"#utility.yul\":13532:13536   */\n      dup4\n        /* \"#utility.yul\":13528:13543   */\n      and\n        /* \"#utility.yul\":13518:13543   */\n      swap2\n      pop\n        /* \"#utility.yul\":13431:13549   */\n      pop\n        /* \"#utility.yul\":13380:13549   */\n      swap3\n      swap2\n      pop\n      pop\n      jump\t// out\n        /* \"#utility.yul\":13554:13849   */\n    tag_94:\n        /* \"#utility.yul\":13630:13634   */\n      0x00\n        /* \"#utility.yul\":13776:13805   */\n      tag_242\n        /* \"#utility.yul\":13801:13804   */\n      dup4\n        /* \"#utility.yul\":13795:13799   */\n      dup4\n        /* \"#utility.yul\":13776:13805   */\n      tag_93\n      jump\t// in\n    tag_242:\n        /* \"#utility.yul\":13768:13805   */\n      swap2\n      pop\n        /* \"#utility.yul\":13838:13841   */\n      dup3\n        /* \"#utility.yul\":13835:13836   */\n      0x02\n        /* \"#utility.yul\":13831:13842   */\n      mul\n        /* \"#utility.yul\":13825:13829   */\n      dup3\n        /* \"#utility.yul\":13822:13843   */\n      or\n        /* \"#utility.yul\":13814:13843   */\n      swap1\n      pop\n        /* \"#utility.yul\":13554:13849   */\n      swap3\n      swap2\n      pop\n      pop\n      jump\t// out\n        /* \"#utility.yul\":13854:15249   */\n    tag_49:\n        /* \"#utility.yul\":13971:14008   */\n      tag_244\n        /* \"#utility.yul\":14004:14007   */\n      dup3\n        /* \"#utility.yul\":13971:14008   */\n      tag_56\n      jump\t// in\n    tag_244:\n        /* \"#utility.yul\":14073:14091   */\n      0xffffffffffffffff\n        /* \"#utility.yul\":14065:14071   */\n      dup2\n        /* \"#utility.yul\":14062:14092   */\n      gt\n        /* \"#utility.yul\":14059:14115   */\n      iszero\n      tag_245\n      jumpi\n        /* \"#utility.yul\":14095:14113   */\n      tag_246\n      tag_68\n      jump\t// in\n    tag_246:\n        /* \"#utility.yul\":14059:14115   */\n    tag_245:\n        /* \"#utility.yul\":14139:14177   */\n      tag_247\n        /* \"#utility.yul\":14171:14175   */\n      dup3\n        /* \"#utility.yul\":14165:14176   */\n      sload\n        /* \"#utility.yul\":14139:14177   */\n      tag_22\n      jump\t// in\n    tag_247:\n        /* \"#utility.yul\":14224:14291   */\n      tag_248\n        /* \"#utility.yul\":14284:14290   */\n      dup3\n        /* \"#utility.yul\":14276:14282   */\n      dup3\n        /* \"#utility.yul\":14270:14274   */\n      dup6\n        /* \"#utility.yul\":14224:14291   */\n      tag_91\n      jump\t// in\n    tag_248:\n        /* \"#utility.yul\":14318:14319   */\n      0x00\n        /* \"#utility.yul\":14342:14346   */\n      0x20\n        /* \"#utility.yul\":14329:14346   */\n      swap1\n      pop\n        /* \"#utility.yul\":14374:14376   */\n      0x1f\n        /* \"#utility.yul\":14366:14372   */\n      dup4\n        /* \"#utility.yul\":14363:14377   */\n      gt\n        /* \"#utility.yul\":14391:14392   */\n      0x01\n        /* \"#utility.yul\":14386:15004   */\n      dup2\n      eq\n      tag_250\n      jumpi\n        /* \"#utility.yul\":15048:15049   */\n      0x00\n        /* \"#utility.yul\":15065:15071   */\n      dup5\n        /* \"#utility.yul\":15062:15139   */\n      iszero\n      tag_251\n      jumpi\n        /* \"#utility.yul\":15114:15123   */\n      dup3\n        /* \"#utility.yul\":15109:15112   */\n      dup8\n        /* \"#utility.yul\":15105:15124   */\n      add\n        /* \"#utility.yul\":15099:15125   */\n      mload\n        /* \"#utility.yul\":15090:15125   */\n      swap1\n      pop\n        /* \"#utility.yul\":15062:15139   */\n    tag_251:\n        /* \"#utility.yul\":15165:15232   */\n      tag_252\n        /* \"#utility.yul\":15225:15231   */\n      dup6\n        /* \"#utility.yul\":15218:15223   */\n      dup3\n        /* \"#utility.yul\":15165:15232   */\n      tag_94\n      jump\t// in\n    tag_252:\n        /* \"#utility.yul\":15159:15163   */\n      dup7\n        /* \"#utility.yul\":15152:15233   */\n      sstore\n        /* \"#utility.yul\":15021:15243   */\n      pop\n        /* \"#utility.yul\":14356:15243   */\n      jump(tag_249)\n        /* \"#utility.yul\":14386:15004   */\n    tag_250:\n        /* \"#utility.yul\":14438:14442   */\n      0x1f\n        /* \"#utility.yul\":14434:14443   */\n      not\n        /* \"#utility.yul\":14426:14432   */\n      dup5\n        /* \"#utility.yul\":14422:14444   */\n      and\n        /* \"#utility.yul\":14472:14509   */\n      tag_253\n        /* \"#utility.yul\":14504:14508   */\n      dup7\n        /* \"#utility.yul\":14472:14509   */\n      tag_80\n      jump\t// in\n    tag_253:\n        /* \"#utility.yul\":14531:14532   */\n      0x00\n        /* \"#utility.yul\":14545:14753   */\n    tag_254:\n        /* \"#utility.yul\":14559:14566   */\n      dup3\n        /* \"#utility.yul\":14556:14557   */\n      dup2\n        /* \"#utility.yul\":14553:14567   */\n      lt\n        /* \"#utility.yul\":14545:14753   */\n      iszero\n      tag_256\n      jumpi\n        /* \"#utility.yul\":14638:14647   */\n      dup5\n        /* \"#utility.yul\":14633:14636   */\n      dup10\n        /* \"#utility.yul\":14629:14648   */\n      add\n        /* \"#utility.yul\":14623:14649   */\n      mload\n        /* \"#utility.yul\":14615:14621   */\n      dup3\n        /* \"#utility.yul\":14608:14650   */\n      sstore\n        /* \"#utility.yul\":14689:14690   */\n      0x01\n        /* \"#utility.yul\":14681:14687   */\n      dup3\n        /* \"#utility.yul\":14677:14691   */\n      add\n        /* \"#utility.yul\":14667:14691   */\n      swap2\n      pop\n        /* \"#utility.yul\":14736:14738   */\n      0x20\n        /* \"#utility.yul\":14725:14734   */\n      dup6\n        /* \"#utility.yul\":14721:14739   */\n      add\n        /* \"#utility.yul\":14708:14739   */\n      swap5\n      pop\n        /* \"#utility.yul\":14582:14586   */\n      0x20\n        /* \"#utility.yul\":14579:14580   */\n      dup2\n        /* \"#utility.yul\":14575:14587   */\n      add\n        /* \"#utility.yul\":14570:14587   */\n      swap1\n      pop\n        /* \"#utility.yul\":14545:14753   */\n      jump(tag_254)\n    tag_256:\n        /* \"#utility.yul\":14781:14787   */\n      dup7\n        /* \"#utility.yul\":14772:14779   */\n      dup4\n        /* \"#utility.yul\":14769:14788   */\n      lt\n        /* \"#utility.yul\":14766:14945   */\n      iszero\n      tag_257\n      jumpi\n        /* \"#utility.yul\":14839:14848   */\n      dup5\n        /* \"#utility.yul\":14834:14837   */\n      dup10\n        /* \"#utility.yul\":14830:14849   */\n      add\n        /* \"#utility.yul\":14824:14850   */\n      mload\n        /* \"#utility.yul\":14882:14930   */\n      tag_258\n        /* \"#utility.yul\":14924:14928   */\n      0x1f\n        /* \"#utility.yul\":14916:14922   */\n      dup10\n        /* \"#utility.yul\":14912:14929   */\n      and\n        /* \"#utility.yul\":14901:14910   */\n      dup3\n        /* \"#utility.yul\":14882:14930   */\n      tag_93\n      jump\t// in\n    tag_258:\n        /* \"#utility.yul\":14874:14880   */\n      dup4\n        /* \"#utility.yul\":14867:14931   */\n      sstore\n        /* \"#utility.yul\":14789:14945   */\n      pop\n        /* \"#utility.yul\":14766:14945   */\n    tag_257:\n        /* \"#utility.yul\":14991:14992   */\n      0x01\n        /* \"#utility.yul\":14987:14988   */\n      0x02\n        /* \"#utility.yul\":14979:14985   */\n      dup9\n        /* \"#utility.yul\":14975:14989   */\n      mul\n        /* \"#utility.yul\":14971:14993   */\n      add\n        /* \"#utility.yul\":14965:14969   */\n      dup9\n        /* \"#utility.yul\":14958:14994   */\n      sstore\n        /* \"#utility.yul\":14393:15004   */\n      pop\n      pop\n      pop\n        /* \"#utility.yul\":14356:15243   */\n    tag_249:\n      pop\n        /* \"#utility.yul\":13946:15249   */\n      pop\n      pop\n      pop\n        /* \"#utility.yul\":13854:15249   */\n      pop\n      pop\n      jump\t// out\n\n    auxdata: 0xa264697066735822122007ac7fa185ff499362684ff96b1fe975d32e8e9fb8b3b29ca75df9f8ac1fe0a164736f6c634300081b0033\n}\n",
				"bytecode": {
					"linkReferences": {},
					"object": "6080604052348015600e575f5ffd5b50610bf18061001c5f395ff3fe608060405234801561000f575f5ffd5b506004361061003f575f3560e01c806306ead22e14610043578063642f916314610077578063b9b112eb146100a7575b5f5ffd5b61005d600480360381019061005891906103de565b6100c3565b60405161006e959493929190610488565b60405180910390f35b610091600480360381019061008c91906103de565b61017a565b60405161009e91906105aa565b60405180910390f35b6100c160048036038101906100bc91906106f6565b61025b565b005b5f602052805f5260405f205f91509050805f0180546100e1906107b6565b80601f016020809104026020016040519081016040528092919081815260200182805461010d906107b6565b80156101585780601f1061012f57610100808354040283529160200191610158565b820191905f5260205f20905b81548152906001019060200180831161013b57829003601f168201915b5050505050908060010154908060020154908060030154908060040154905085565b61018261036f565b5f5f8381526020019081526020015f206040518060a00160405290815f820180546101ac906107b6565b80601f01602080910402602001604051908101604052809291908181526020018280546101d8906107b6565b80156102235780601f106101fa57610100808354040283529160200191610223565b820191905f5260205f20905b81548152906001019060200180831161020657829003601f168201915b505050505081526020016001820154815260200160028201548152602001600382015481526020016004820154815250509050919050565b6064831115801561026d575060648211155b801561027a575060648111155b6102b9576040517f08c379a00000000000000000000000000000000000000000000000000000000081526004016102b090610830565b60405180910390fd5b5f8183856102c7919061087b565b6102d1919061087b565b90505f61012c6064836102e491906108ae565b6102ee919061091c565b90506040518060a00160405280878152602001868152602001858152602001848152602001828152505f5f8981526020019081526020015f205f820151815f01908161033a9190610aec565b506020820151816001015560408201518160020155606082015181600301556080820151816004015590505050505050505050565b6040518060a00160405280606081526020015f81526020015f81526020015f81526020015f81525090565b5f604051905090565b5f5ffd5b5f5ffd5b5f819050919050565b6103bd816103ab565b81146103c7575f5ffd5b50565b5f813590506103d8816103b4565b92915050565b5f602082840312156103f3576103f26103a3565b5b5f610400848285016103ca565b91505092915050565b5f81519050919050565b5f82825260208201905092915050565b8281835e5f83830152505050565b5f601f19601f8301169050919050565b5f61044b82610409565b6104558185610413565b9350610465818560208601610423565b61046e81610431565b840191505092915050565b610482816103ab565b82525050565b5f60a0820190508181035f8301526104a08188610441565b90506104af6020830187610479565b6104bc6040830186610479565b6104c96060830185610479565b6104d66080830184610479565b9695505050505050565b5f82825260208201905092915050565b5f6104fa82610409565b61050481856104e0565b9350610514818560208601610423565b61051d81610431565b840191505092915050565b610531816103ab565b82525050565b5f60a083015f8301518482035f86015261055182826104f0565b91505060208301516105666020860182610528565b5060408301516105796040860182610528565b50606083015161058c6060860182610528565b50608083015161059f6080860182610528565b508091505092915050565b5f6020820190508181035f8301526105c28184610537565b905092915050565b5f5ffd5b5f5ffd5b7f4e487b71000000000000000000000000000000000000000000000000000000005f52604160045260245ffd5b61060882610431565b810181811067ffffffffffffffff82111715610627576106266105d2565b5b80604052505050565b5f61063961039a565b905061064582826105ff565b919050565b5f67ffffffffffffffff821115610664576106636105d2565b5b61066d82610431565b9050602081019050919050565b828183375f83830152505050565b5f61069a6106958461064a565b610630565b9050828152602081018484840111156106b6576106b56105ce565b5b6106c184828561067a565b509392505050565b5f82601f8301126106dd576106dc6105ca565b5b81356106ed848260208601610688565b91505092915050565b5f5f5f5f5f60a0868803121561070f5761070e6103a3565b5b5f61071c888289016103ca565b955050602086013567ffffffffffffffff81111561073d5761073c6103a7565b5b610749888289016106c9565b945050604061075a888289016103ca565b935050606061076b888289016103ca565b925050608061077c888289016103ca565b9150509295509295909350565b7f4e487b71000000000000000000000000000000000000000000000000000000005f52602260045260245ffd5b5f60028204905060018216806107cd57607f821691505b6020821081036107e0576107df610789565b5b50919050565b7f4d61726b73206d757374206265203c3d203130300000000000000000000000005f82015250565b5f61081a601483610413565b9150610825826107e6565b602082019050919050565b5f6020820190508181035f8301526108478161080e565b9050919050565b7f4e487b71000000000000000000000000000000000000000000000000000000005f52601160045260245ffd5b5f610885826103ab565b9150610890836103ab565b92508282019050808211156108a8576108a761084e565b5b92915050565b5f6108b8826103ab565b91506108c3836103ab565b92508282026108d1816103ab565b915082820484148315176108e8576108e761084e565b5b5092915050565b7f4e487b71000000000000000000000000000000000000000000000000000000005f52601260045260245ffd5b5f610926826103ab565b9150610931836103ab565b925082610941576109406108ef565b5b828204905092915050565b5f819050815f5260205f209050919050565b5f6020601f8301049050919050565b5f82821b905092915050565b5f600883026109a87fffffffffffffffffffffffffffffffffffffffffffffffffffffffffffffffff8261096d565b6109b2868361096d565b95508019841693508086168417925050509392505050565b5f819050919050565b5f6109ed6109e86109e3846103ab565b6109ca565b6103ab565b9050919050565b5f819050919050565b610a06836109d3565b610a1a610a12826109f4565b848454610979565b825550505050565b5f5f905090565b610a31610a22565b610a3c8184846109fd565b505050565b5b81811015610a5f57610a545f82610a29565b600181019050610a42565b5050565b601f821115610aa457610a758161094c565b610a7e8461095e565b81016020851015610a8d578190505b610aa1610a998561095e565b830182610a41565b50505b505050565b5f82821c905092915050565b5f610ac45f1984600802610aa9565b1980831691505092915050565b5f610adc8383610ab5565b9150826002028217905092915050565b610af582610409565b67ffffffffffffffff811115610b0e57610b0d6105d2565b5b610b1882546107b6565b610b23828285610a63565b5f60209050601f831160018114610b54575f8415610b42578287015190505b610b4c8582610ad1565b865550610bb3565b601f198416610b628661094c565b5f5b82811015610b8957848901518255600182019150602085019450602081019050610b64565b86831015610ba65784890151610ba2601f891682610ab5565b8355505b6001600288020188555050505b50505050505056fea264697066735822122007ac7fa185ff499362684ff96b1fe975d32e8e9fb8b3b29ca75df9f8ac1fe0a164736f6c634300081b0033",
					"opcodes": "PUSH1 0x80 PUSH1 0x40 MSTORE CALLVALUE DUP1 ISZERO PUSH1 0xE JUMPI PUSH0 PUSH0 REVERT JUMPDEST POP PUSH2 0xBF1 DUP1 PUSH2 0x1C PUSH0 CODECOPY PUSH0 RETURN INVALID PUSH1 0x80 PUSH1 0x40 MSTORE CALLVALUE DUP1 ISZERO PUSH2 0xF JUMPI PUSH0 PUSH0 REVERT JUMPDEST POP PUSH1 0x4 CALLDATASIZE LT PUSH2 0x3F JUMPI PUSH0 CALLDATALOAD PUSH1 0xE0 SHR DUP1 PUSH4 0x6EAD22E EQ PUSH2 0x43 JUMPI DUP1 PUSH4 0x642F9163 EQ PUSH2 0x77 JUMPI DUP1 PUSH4 0xB9B112EB EQ PUSH2 0xA7 JUMPI JUMPDEST PUSH0 PUSH0 REVERT JUMPDEST PUSH2 0x5D PUSH1 0x4 DUP1 CALLDATASIZE SUB DUP2 ADD SWAP1 PUSH2 0x58 SWAP2 SWAP1 PUSH2 0x3DE JUMP JUMPDEST PUSH2 0xC3 JUMP JUMPDEST PUSH1 0x40 MLOAD PUSH2 0x6E SWAP6 SWAP5 SWAP4 SWAP3 SWAP2 SWAP1 PUSH2 0x488 JUMP JUMPDEST PUSH1 0x40 MLOAD DUP1 SWAP2 SUB SWAP1 RETURN JUMPDEST PUSH2 0x91 PUSH1 0x4 DUP1 CALLDATASIZE SUB DUP2 ADD SWAP1 PUSH2 0x8C SWAP2 SWAP1 PUSH2 0x3DE JUMP JUMPDEST PUSH2 0x17A JUMP JUMPDEST PUSH1 0x40 MLOAD PUSH2 0x9E SWAP2 SWAP1 PUSH2 0x5AA JUMP JUMPDEST PUSH1 0x40 MLOAD DUP1 SWAP2 SUB SWAP1 RETURN JUMPDEST PUSH2 0xC1 PUSH1 0x4 DUP1 CALLDATASIZE SUB DUP2 ADD SWAP1 PUSH2 0xBC SWAP2 SWAP1 PUSH2 0x6F6 JUMP JUMPDEST PUSH2 0x25B JUMP JUMPDEST STOP JUMPDEST PUSH0 PUSH1 0x20 MSTORE DUP1 PUSH0 MSTORE PUSH1 0x40 PUSH0 KECCAK256 PUSH0 SWAP2 POP SWAP1 POP DUP1 PUSH0 ADD DUP1 SLOAD PUSH2 0xE1 SWAP1 PUSH2 0x7B6 JUMP JUMPDEST DUP1 PUSH1 0x1F ADD PUSH1 0x20 DUP1 SWAP2 DIV MUL PUSH1 0x20 ADD PUSH1 0x40 MLOAD SWAP1 DUP2 ADD PUSH1 0x40 MSTORE DUP1 SWAP3 SWAP2 SWAP1 DUP2 DUP2 MSTORE PUSH1 0x20 ADD DUP3 DUP1 SLOAD PUSH2 0x10D SWAP1 PUSH2 0x7B6 JUMP JUMPDEST DUP1 ISZERO PUSH2 0x158 JUMPI DUP1 PUSH1 0x1F LT PUSH2 0x12F JUMPI PUSH2 0x100 DUP1 DUP4 SLOAD DIV MUL DUP4 MSTORE SWAP2 PUSH1 0x20 ADD SWAP2 PUSH2 0x158 JUMP JUMPDEST DUP3 ADD SWAP2 SWAP1 PUSH0 MSTORE PUSH1 0x20 PUSH0 KECCAK256 SWAP1 JUMPDEST DUP2 SLOAD DUP2 MSTORE SWAP1 PUSH1 0x1 ADD SWAP1 PUSH1 0x20 ADD DUP1 DUP4 GT PUSH2 0x13B JUMPI DUP3 SWAP1 SUB PUSH1 0x1F AND DUP3 ADD SWAP2 JUMPDEST POP POP POP POP POP SWAP1 DUP1 PUSH1 0x1 ADD SLOAD SWAP1 DUP1 PUSH1 0x2 ADD SLOAD SWAP1 DUP1 PUSH1 0x3 ADD SLOAD SWAP1 DUP1 PUSH1 0x4 ADD SLOAD SWAP1 POP DUP6 JUMP JUMPDEST PUSH2 0x182 PUSH2 0x36F JUMP JUMPDEST PUSH0 PUSH0 DUP4 DUP2 MSTORE PUSH1 0x20 ADD SWAP1 DUP2 MSTORE PUSH1 0x20 ADD PUSH0 KECCAK256 PUSH1 0x40 MLOAD DUP1 PUSH1 0xA0 ADD PUSH1 0x40 MSTORE SWAP1 DUP2 PUSH0 DUP3 ADD DUP1 SLOAD PUSH2 0x1AC SWAP1 PUSH2 0x7B6 JUMP JUMPDEST DUP1 PUSH1 0x1F ADD PUSH1 0x20 DUP1 SWAP2 DIV MUL PUSH1 0x20 ADD PUSH1 0x40 MLOAD SWAP1 DUP2 ADD PUSH1 0x40 MSTORE DUP1 SWAP3 SWAP2 SWAP1 DUP2 DUP2 MSTORE PUSH1 0x20 ADD DUP3 DUP1 SLOAD PUSH2 0x1D8 SWAP1 PUSH2 0x7B6 JUMP JUMPDEST DUP1 ISZERO PUSH2 0x223 JUMPI DUP1 PUSH1 0x1F LT PUSH2 0x1FA JUMPI PUSH2 0x100 DUP1 DUP4 SLOAD DIV MUL DUP4 MSTORE SWAP2 PUSH1 0x20 ADD SWAP2 PUSH2 0x223 JUMP JUMPDEST DUP3 ADD SWAP2 SWAP1 PUSH0 MSTORE PUSH1 0x20 PUSH0 KECCAK256 SWAP1 JUMPDEST DUP2 SLOAD DUP2 MSTORE SWAP1 PUSH1 0x1 ADD SWAP1 PUSH1 0x20 ADD DUP1 DUP4 GT PUSH2 0x206 JUMPI DUP3 SWAP1 SUB PUSH1 0x1F AND DUP3 ADD SWAP2 JUMPDEST POP POP POP POP POP DUP2 MSTORE PUSH1 0x20 ADD PUSH1 0x1 DUP3 ADD SLOAD DUP2 MSTORE PUSH1 0x20 ADD PUSH1 0x2 DUP3 ADD SLOAD DUP2 MSTORE PUSH1 0x20 ADD PUSH1 0x3 DUP3 ADD SLOAD DUP2 MSTORE PUSH1 0x20 ADD PUSH1 0x4 DUP3 ADD SLOAD DUP2 MSTORE POP POP SWAP1 POP SWAP2 SWAP1 POP JUMP JUMPDEST PUSH1 0x64 DUP4 GT ISZERO DUP1 ISZERO PUSH2 0x26D JUMPI POP PUSH1 0x64 DUP3 GT ISZERO JUMPDEST DUP1 ISZERO PUSH2 0x27A JUMPI POP PUSH1 0x64 DUP2 GT ISZERO JUMPDEST PUSH2 0x2B9 JUMPI PUSH1 0x40 MLOAD PUSH32 0x8C379A000000000000000000000000000000000000000000000000000000000 DUP2 MSTORE PUSH1 0x4 ADD PUSH2 0x2B0 SWAP1 PUSH2 0x830 JUMP JUMPDEST PUSH1 0x40 MLOAD DUP1 SWAP2 SUB SWAP1 REVERT JUMPDEST PUSH0 DUP2 DUP4 DUP6 PUSH2 0x2C7 SWAP2 SWAP1 PUSH2 0x87B JUMP JUMPDEST PUSH2 0x2D1 SWAP2 SWAP1 PUSH2 0x87B JUMP JUMPDEST SWAP1 POP PUSH0 PUSH2 0x12C PUSH1 0x64 DUP4 PUSH2 0x2E4 SWAP2 SWAP1 PUSH2 0x8AE JUMP JUMPDEST PUSH2 0x2EE SWAP2 SWAP1 PUSH2 0x91C JUMP JUMPDEST SWAP1 POP PUSH1 0x40 MLOAD DUP1 PUSH1 0xA0 ADD PUSH1 0x40 MSTORE DUP1 DUP8 DUP2 MSTORE PUSH1 0x20 ADD DUP7 DUP2 MSTORE PUSH1 0x20 ADD DUP6 DUP2 MSTORE PUSH1 0x20 ADD DUP5 DUP2 MSTORE PUSH1 0x20 ADD DUP3 DUP2 MSTORE POP PUSH0 PUSH0 DUP10 DUP2 MSTORE PUSH1 0x20 ADD SWAP1 DUP2 MSTORE PUSH1 0x20 ADD PUSH0 KECCAK256 PUSH0 DUP3 ADD MLOAD DUP2 PUSH0 ADD SWAP1 DUP2 PUSH2 0x33A SWAP2 SWAP1 PUSH2 0xAEC JUMP JUMPDEST POP PUSH1 0x20 DUP3 ADD MLOAD DUP2 PUSH1 0x1 ADD SSTORE PUSH1 0x40 DUP3 ADD MLOAD DUP2 PUSH1 0x2 ADD SSTORE PUSH1 0x60 DUP3 ADD MLOAD DUP2 PUSH1 0x3 ADD SSTORE PUSH1 0x80 DUP3 ADD MLOAD DUP2 PUSH1 0x4 ADD SSTORE SWAP1 POP POP POP POP POP POP POP POP POP JUMP JUMPDEST PUSH1 0x40 MLOAD DUP1 PUSH1 0xA0 ADD PUSH1 0x40 MSTORE DUP1 PUSH1 0x60 DUP2 MSTORE PUSH1 0x20 ADD PUSH0 DUP2 MSTORE PUSH1 0x20 ADD PUSH0 DUP2 MSTORE PUSH1 0x20 ADD PUSH0 DUP2 MSTORE PUSH1 0x20 ADD PUSH0 DUP2 MSTORE POP SWAP1 JUMP JUMPDEST PUSH0 PUSH1 0x40 MLOAD SWAP1 POP SWAP1 JUMP JUMPDEST PUSH0 PUSH0 REVERT JUMPDEST PUSH0 PUSH0 REVERT JUMPDEST PUSH0 DUP2 SWAP1 POP SWAP2 SWAP1 POP JUMP JUMPDEST PUSH2 0x3BD DUP2 PUSH2 0x3AB JUMP JUMPDEST DUP2 EQ PUSH2 0x3C7 JUMPI PUSH0 PUSH0 REVERT JUMPDEST POP JUMP JUMPDEST PUSH0 DUP2 CALLDATALOAD SWAP1 POP PUSH2 0x3D8 DUP2 PUSH2 0x3B4 JUMP JUMPDEST SWAP3 SWAP2 POP POP JUMP JUMPDEST PUSH0 PUSH1 0x20 DUP3 DUP5 SUB SLT ISZERO PUSH2 0x3F3 JUMPI PUSH2 0x3F2 PUSH2 0x3A3 JUMP JUMPDEST JUMPDEST PUSH0 PUSH2 0x400 DUP5 DUP3 DUP6 ADD PUSH2 0x3CA JUMP JUMPDEST SWAP2 POP POP SWAP3 SWAP2 POP POP JUMP JUMPDEST PUSH0 DUP2 MLOAD SWAP1 POP SWAP2 SWAP1 POP JUMP JUMPDEST PUSH0 DUP3 DUP3 MSTORE PUSH1 0x20 DUP3 ADD SWAP1 POP SWAP3 SWAP2 POP POP JUMP JUMPDEST DUP3 DUP2 DUP4 MCOPY PUSH0 DUP4 DUP4 ADD MSTORE POP POP POP JUMP JUMPDEST PUSH0 PUSH1 0x1F NOT PUSH1 0x1F DUP4 ADD AND SWAP1 POP SWAP2 SWAP1 POP JUMP JUMPDEST PUSH0 PUSH2 0x44B DUP3 PUSH2 0x409 JUMP JUMPDEST PUSH2 0x455 DUP2 DUP6 PUSH2 0x413 JUMP JUMPDEST SWAP4 POP PUSH2 0x465 DUP2 DUP6 PUSH1 0x20 DUP7 ADD PUSH2 0x423 JUMP JUMPDEST PUSH2 0x46E DUP2 PUSH2 0x431 JUMP JUMPDEST DUP5 ADD SWAP2 POP POP SWAP3 SWAP2 POP POP JUMP JUMPDEST PUSH2 0x482 DUP2 PUSH2 0x3AB JUMP JUMPDEST DUP3 MSTORE POP POP JUMP JUMPDEST PUSH0 PUSH1 0xA0 DUP3 ADD SWAP1 POP DUP2 DUP2 SUB PUSH0 DUP4 ADD MSTORE PUSH2 0x4A0 DUP2 DUP9 PUSH2 0x441 JUMP JUMPDEST SWAP1 POP PUSH2 0x4AF PUSH1 0x20 DUP4 ADD DUP8 PUSH2 0x479 JUMP JUMPDEST PUSH2 0x4BC PUSH1 0x40 DUP4 ADD DUP7 PUSH2 0x479 JUMP JUMPDEST PUSH2 0x4C9 PUSH1 0x60 DUP4 ADD DUP6 PUSH2 0x479 JUMP JUMPDEST PUSH2 0x4D6 PUSH1 0x80 DUP4 ADD DUP5 PUSH2 0x479 JUMP JUMPDEST SWAP7 SWAP6 POP POP POP POP POP POP JUMP JUMPDEST PUSH0 DUP3 DUP3 MSTORE PUSH1 0x20 DUP3 ADD SWAP1 POP SWAP3 SWAP2 POP POP JUMP JUMPDEST PUSH0 PUSH2 0x4FA DUP3 PUSH2 0x409 JUMP JUMPDEST PUSH2 0x504 DUP2 DUP6 PUSH2 0x4E0 JUMP JUMPDEST SWAP4 POP PUSH2 0x514 DUP2 DUP6 PUSH1 0x20 DUP7 ADD PUSH2 0x423 JUMP JUMPDEST PUSH2 0x51D DUP2 PUSH2 0x431 JUMP JUMPDEST DUP5 ADD SWAP2 POP POP SWAP3 SWAP2 POP POP JUMP JUMPDEST PUSH2 0x531 DUP2 PUSH2 0x3AB JUMP JUMPDEST DUP3 MSTORE POP POP JUMP JUMPDEST PUSH0 PUSH1 0xA0 DUP4 ADD PUSH0 DUP4 ADD MLOAD DUP5 DUP3 SUB PUSH0 DUP7 ADD MSTORE PUSH2 0x551 DUP3 DUP3 PUSH2 0x4F0 JUMP JUMPDEST SWAP2 POP POP PUSH1 0x20 DUP4 ADD MLOAD PUSH2 0x566 PUSH1 0x20 DUP7 ADD DUP3 PUSH2 0x528 JUMP JUMPDEST POP PUSH1 0x40 DUP4 ADD MLOAD PUSH2 0x579 PUSH1 0x40 DUP7 ADD DUP3 PUSH2 0x528 JUMP JUMPDEST POP PUSH1 0x60 DUP4 ADD MLOAD PUSH2 0x58C PUSH1 0x60 DUP7 ADD DUP3 PUSH2 0x528 JUMP JUMPDEST POP PUSH1 0x80 DUP4 ADD MLOAD PUSH2 0x59F PUSH1 0x80 DUP7 ADD DUP3 PUSH2 0x528 JUMP JUMPDEST POP DUP1 SWAP2 POP POP SWAP3 SWAP2 POP POP JUMP JUMPDEST PUSH0 PUSH1 0x20 DUP3 ADD SWAP1 POP DUP2 DUP2 SUB PUSH0 DUP4 ADD MSTORE PUSH2 0x5C2 DUP2 DUP5 PUSH2 0x537 JUMP JUMPDEST SWAP1 POP SWAP3 SWAP2 POP POP JUMP JUMPDEST PUSH0 PUSH0 REVERT JUMPDEST PUSH0 PUSH0 REVERT JUMPDEST PUSH32 0x4E487B7100000000000000000000000000000000000000000000000000000000 PUSH0 MSTORE PUSH1 0x41 PUSH1 0x4 MSTORE PUSH1 0x24 PUSH0 REVERT JUMPDEST PUSH2 0x608 DUP3 PUSH2 0x431 JUMP JUMPDEST DUP2 ADD DUP2 DUP2 LT PUSH8 0xFFFFFFFFFFFFFFFF DUP3 GT OR ISZERO PUSH2 0x627 JUMPI PUSH2 0x626 PUSH2 0x5D2 JUMP JUMPDEST JUMPDEST DUP1 PUSH1 0x40 MSTORE POP POP POP JUMP JUMPDEST PUSH0 PUSH2 0x639 PUSH2 0x39A JUMP JUMPDEST SWAP1 POP PUSH2 0x645 DUP3 DUP3 PUSH2 0x5FF JUMP JUMPDEST SWAP2 SWAP1 POP JUMP JUMPDEST PUSH0 PUSH8 0xFFFFFFFFFFFFFFFF DUP3 GT ISZERO PUSH2 0x664 JUMPI PUSH2 0x663 PUSH2 0x5D2 JUMP JUMPDEST JUMPDEST PUSH2 0x66D DUP3 PUSH2 0x431 JUMP JUMPDEST SWAP1 POP PUSH1 0x20 DUP2 ADD SWAP1 POP SWAP2 SWAP1 POP JUMP JUMPDEST DUP3 DUP2 DUP4 CALLDATACOPY PUSH0 DUP4 DUP4 ADD MSTORE POP POP POP JUMP JUMPDEST PUSH0 PUSH2 0x69A PUSH2 0x695 DUP5 PUSH2 0x64A JUMP JUMPDEST PUSH2 0x630 JUMP JUMPDEST SWAP1 POP DUP3 DUP2 MSTORE PUSH1 0x20 DUP2 ADD DUP5 DUP5 DUP5 ADD GT ISZERO PUSH2 0x6B6 JUMPI PUSH2 0x6B5 PUSH2 0x5CE JUMP JUMPDEST JUMPDEST PUSH2 0x6C1 DUP5 DUP3 DUP6 PUSH2 0x67A JUMP JUMPDEST POP SWAP4 SWAP3 POP POP POP JUMP JUMPDEST PUSH0 DUP3 PUSH1 0x1F DUP4 ADD SLT PUSH2 0x6DD JUMPI PUSH2 0x6DC PUSH2 0x5CA JUMP JUMPDEST JUMPDEST DUP2 CALLDATALOAD PUSH2 0x6ED DUP5 DUP3 PUSH1 0x20 DUP7 ADD PUSH2 0x688 JUMP JUMPDEST SWAP2 POP POP SWAP3 SWAP2 POP POP JUMP JUMPDEST PUSH0 PUSH0 PUSH0 PUSH0 PUSH0 PUSH1 0xA0 DUP7 DUP9 SUB SLT ISZERO PUSH2 0x70F JUMPI PUSH2 0x70E PUSH2 0x3A3 JUMP JUMPDEST JUMPDEST PUSH0 PUSH2 0x71C DUP9 DUP3 DUP10 ADD PUSH2 0x3CA JUMP JUMPDEST SWAP6 POP POP PUSH1 0x20 DUP7 ADD CALLDATALOAD PUSH8 0xFFFFFFFFFFFFFFFF DUP2 GT ISZERO PUSH2 0x73D JUMPI PUSH2 0x73C PUSH2 0x3A7 JUMP JUMPDEST JUMPDEST PUSH2 0x749 DUP9 DUP3 DUP10 ADD PUSH2 0x6C9 JUMP JUMPDEST SWAP5 POP POP PUSH1 0x40 PUSH2 0x75A DUP9 DUP3 DUP10 ADD PUSH2 0x3CA JUMP JUMPDEST SWAP4 POP POP PUSH1 0x60 PUSH2 0x76B DUP9 DUP3 DUP10 ADD PUSH2 0x3CA JUMP JUMPDEST SWAP3 POP POP PUSH1 0x80 PUSH2 0x77C DUP9 DUP3 DUP10 ADD PUSH2 0x3CA JUMP JUMPDEST SWAP2 POP POP SWAP3 SWAP6 POP SWAP3 SWAP6 SWAP1 SWAP4 POP JUMP JUMPDEST PUSH32 0x4E487B7100000000000000000000000000000000000000000000000000000000 PUSH0 MSTORE PUSH1 0x22 PUSH1 0x4 MSTORE PUSH1 0x24 PUSH0 REVERT JUMPDEST PUSH0 PUSH1 0x2 DUP3 DIV SWAP1 POP PUSH1 0x1 DUP3 AND DUP1 PUSH2 0x7CD JUMPI PUSH1 0x7F DUP3 AND SWAP2 POP JUMPDEST PUSH1 0x20 DUP3 LT DUP2 SUB PUSH2 0x7E0 JUMPI PUSH2 0x7DF PUSH2 0x789 JUMP JUMPDEST JUMPDEST POP SWAP2 SWAP1 POP JUMP JUMPDEST PUSH32 0x4D61726B73206D757374206265203C3D20313030000000000000000000000000 PUSH0 DUP3 ADD MSTORE POP JUMP JUMPDEST PUSH0 PUSH2 0x81A PUSH1 0x14 DUP4 PUSH2 0x413 JUMP JUMPDEST SWAP2 POP PUSH2 0x825 DUP3 PUSH2 0x7E6 JUMP JUMPDEST PUSH1 0x20 DUP3 ADD SWAP1 POP SWAP2 SWAP1 POP JUMP JUMPDEST PUSH0 PUSH1 0x20 DUP3 ADD SWAP1 POP DUP2 DUP2 SUB PUSH0 DUP4 ADD MSTORE PUSH2 0x847 DUP2 PUSH2 0x80E JUMP JUMPDEST SWAP1 POP SWAP2 SWAP1 POP JUMP JUMPDEST PUSH32 0x4E487B7100000000000000000000000000000000000000000000000000000000 PUSH0 MSTORE PUSH1 0x11 PUSH1 0x4 MSTORE PUSH1 0x24 PUSH0 REVERT JUMPDEST PUSH0 PUSH2 0x885 DUP3 PUSH2 0x3AB JUMP JUMPDEST SWAP2 POP PUSH2 0x890 DUP4 PUSH2 0x3AB JUMP JUMPDEST SWAP3 POP DUP3 DUP3 ADD SWAP1 POP DUP1 DUP3 GT ISZERO PUSH2 0x8A8 JUMPI PUSH2 0x8A7 PUSH2 0x84E JUMP JUMPDEST JUMPDEST SWAP3 SWAP2 POP POP JUMP JUMPDEST PUSH0 PUSH2 0x8B8 DUP3 PUSH2 0x3AB JUMP JUMPDEST SWAP2 POP PUSH2 0x8C3 DUP4 PUSH2 0x3AB JUMP JUMPDEST SWAP3 POP DUP3 DUP3 MUL PUSH2 0x8D1 DUP2 PUSH2 0x3AB JUMP JUMPDEST SWAP2 POP DUP3 DUP3 DIV DUP5 EQ DUP4 ISZERO OR PUSH2 0x8E8 JUMPI PUSH2 0x8E7 PUSH2 0x84E JUMP JUMPDEST JUMPDEST POP SWAP3 SWAP2 POP POP JUMP JUMPDEST PUSH32 0x4E487B7100000000000000000000000000000000000000000000000000000000 PUSH0 MSTORE PUSH1 0x12 PUSH1 0x4 MSTORE PUSH1 0x24 PUSH0 REVERT JUMPDEST PUSH0 PUSH2 0x926 DUP3 PUSH2 0x3AB JUMP JUMPDEST SWAP2 POP PUSH2 0x931 DUP4 PUSH2 0x3AB JUMP JUMPDEST SWAP3 POP DUP3 PUSH2 0x941 JUMPI PUSH2 0x940 PUSH2 0x8EF JUMP JUMPDEST JUMPDEST DUP3 DUP3 DIV SWAP1 POP SWAP3 SWAP2 POP POP JUMP JUMPDEST PUSH0 DUP2 SWAP1 POP DUP2 PUSH0 MSTORE PUSH1 0x20 PUSH0 KECCAK256 SWAP1 POP SWAP2 SWAP1 POP JUMP JUMPDEST PUSH0 PUSH1 0x20 PUSH1 0x1F DUP4 ADD DIV SWAP1 POP SWAP2 SWAP1 POP JUMP JUMPDEST PUSH0 DUP3 DUP3 SHL SWAP1 POP SWAP3 SWAP2 POP POP JUMP JUMPDEST PUSH0 PUSH1 0x8 DUP4 MUL PUSH2 0x9A8 PUSH32 0xFFFFFFFFFFFFFFFFFFFFFFFFFFFFFFFFFFFFFFFFFFFFFFFFFFFFFFFFFFFFFFFF DUP3 PUSH2 0x96D JUMP JUMPDEST PUSH2 0x9B2 DUP7 DUP4 PUSH2 0x96D JUMP JUMPDEST SWAP6 POP DUP1 NOT DUP5 AND SWAP4 POP DUP1 DUP7 AND DUP5 OR SWAP3 POP POP POP SWAP4 SWAP3 POP POP POP JUMP JUMPDEST PUSH0 DUP2 SWAP1 POP SWAP2 SWAP1 POP JUMP JUMPDEST PUSH0 PUSH2 0x9ED PUSH2 0x9E8 PUSH2 0x9E3 DUP5 PUSH2 0x3AB JUMP JUMPDEST PUSH2 0x9CA JUMP JUMPDEST PUSH2 0x3AB JUMP JUMPDEST SWAP1 POP SWAP2 SWAP1 POP JUMP JUMPDEST PUSH0 DUP2 SWAP1 POP SWAP2 SWAP1 POP JUMP JUMPDEST PUSH2 0xA06 DUP4 PUSH2 0x9D3 JUMP JUMPDEST PUSH2 0xA1A PUSH2 0xA12 DUP3 PUSH2 0x9F4 JUMP JUMPDEST DUP5 DUP5 SLOAD PUSH2 0x979 JUMP JUMPDEST DUP3 SSTORE POP POP POP POP JUMP JUMPDEST PUSH0 PUSH0 SWAP1 POP SWAP1 JUMP JUMPDEST PUSH2 0xA31 PUSH2 0xA22 JUMP JUMPDEST PUSH2 0xA3C DUP2 DUP5 DUP5 PUSH2 0x9FD JUMP JUMPDEST POP POP POP JUMP JUMPDEST JUMPDEST DUP2 DUP2 LT ISZERO PUSH2 0xA5F JUMPI PUSH2 0xA54 PUSH0 DUP3 PUSH2 0xA29 JUMP JUMPDEST PUSH1 0x1 DUP2 ADD SWAP1 POP PUSH2 0xA42 JUMP JUMPDEST POP POP JUMP JUMPDEST PUSH1 0x1F DUP3 GT ISZERO PUSH2 0xAA4 JUMPI PUSH2 0xA75 DUP2 PUSH2 0x94C JUMP JUMPDEST PUSH2 0xA7E DUP5 PUSH2 0x95E JUMP JUMPDEST DUP2 ADD PUSH1 0x20 DUP6 LT ISZERO PUSH2 0xA8D JUMPI DUP2 SWAP1 POP JUMPDEST PUSH2 0xAA1 PUSH2 0xA99 DUP6 PUSH2 0x95E JUMP JUMPDEST DUP4 ADD DUP3 PUSH2 0xA41 JUMP JUMPDEST POP POP JUMPDEST POP POP POP JUMP JUMPDEST PUSH0 DUP3 DUP3 SHR SWAP1 POP SWAP3 SWAP2 POP POP JUMP JUMPDEST PUSH0 PUSH2 0xAC4 PUSH0 NOT DUP5 PUSH1 0x8 MUL PUSH2 0xAA9 JUMP JUMPDEST NOT DUP1 DUP4 AND SWAP2 POP POP SWAP3 SWAP2 POP POP JUMP JUMPDEST PUSH0 PUSH2 0xADC DUP4 DUP4 PUSH2 0xAB5 JUMP JUMPDEST SWAP2 POP DUP3 PUSH1 0x2 MUL DUP3 OR SWAP1 POP SWAP3 SWAP2 POP POP JUMP JUMPDEST PUSH2 0xAF5 DUP3 PUSH2 0x409 JUMP JUMPDEST PUSH8 0xFFFFFFFFFFFFFFFF DUP2 GT ISZERO PUSH2 0xB0E JUMPI PUSH2 0xB0D PUSH2 0x5D2 JUMP JUMPDEST JUMPDEST PUSH2 0xB18 DUP3 SLOAD PUSH2 0x7B6 JUMP JUMPDEST PUSH2 0xB23 DUP3 DUP3 DUP6 PUSH2 0xA63 JUMP JUMPDEST PUSH0 PUSH1 0x20 SWAP1 POP PUSH1 0x1F DUP4 GT PUSH1 0x1 DUP2 EQ PUSH2 0xB54 JUMPI PUSH0 DUP5 ISZERO PUSH2 0xB42 JUMPI DUP3 DUP8 ADD MLOAD SWAP1 POP JUMPDEST PUSH2 0xB4C DUP6 DUP3 PUSH2 0xAD1 JUMP JUMPDEST DUP7 SSTORE POP PUSH2 0xBB3 JUMP JUMPDEST PUSH1 0x1F NOT DUP5 AND PUSH2 0xB62 DUP7 PUSH2 0x94C JUMP JUMPDEST PUSH0 JUMPDEST DUP3 DUP2 LT ISZERO PUSH2 0xB89 JUMPI DUP5 DUP10 ADD MLOAD DUP3 SSTORE PUSH1 0x1 DUP3 ADD SWAP2 POP PUSH1 0x20 DUP6 ADD SWAP5 POP PUSH1 0x20 DUP2 ADD SWAP1 POP PUSH2 0xB64 JUMP JUMPDEST DUP7 DUP4 LT ISZERO PUSH2 0xBA6 JUMPI DUP5 DUP10 ADD MLOAD PUSH2 0xBA2 PUSH1 0x1F DUP10 AND DUP3 PUSH2 0xAB5 JUMP JUMPDEST DUP4 SSTORE POP JUMPDEST PUSH1 0x1 PUSH1 0x2 DUP9 MUL ADD DUP9 SSTORE POP POP POP JUMPDEST POP POP POP POP POP POP JUMP INVALID LOG2 PUSH5 0x6970667358 0x22 SLT KECCAK256 SMOD 0xAC PUSH32 0xA185FF499362684FF96B1FE975D32E8E9FB8B3B29CA75DF9F8AC1FE0A164736F PUSH13 0x634300081B0033000000000000 "
				},
				"gasEstimates": {
					"creation": {
						"codeDepositCost": "611400",
						"executionCost": "643",
						"totalCost": "612043"
					},
					"external": {
						"addStudent(uint256,string,uint256,uint256,uint256)": "infinite",
						"getStudent(uint256)": "infinite",
						"students(uint256)": "infinite"
					}
				},
				"methodIdentifiers": {
					"addStudent(uint256,string,uint256,uint256,uint256)": "b9b112eb",
					"getStudent(uint256)": "642f9163",
					"students(uint256)": "06ead22e"
				}
			},
			"storageLayout": {
				"storage": [
					{
						"astId": 17,
						"contract": "new marksheet-upgradable/MarksheetV1.sol:V1Marksheet",
						"label": "students",
						"offset": 0,
						"slot": "0",
						"type": "t_mapping(t_uint256,t_struct(Student)12_storage)"
					}
				],
				"types": {
					"t_mapping(t_uint256,t_struct(Student)12_storage)": {
						"encoding": "mapping",
						"key": "t_uint256",
						"label": "mapping(uint256 => struct V1Marksheet.Student)",
						"numberOfBytes": "32",
						"value": "t_struct(Student)12_storage"
					},
					"t_string_storage": {
						"encoding": "bytes",
						"label": "string",
						"numberOfBytes": "32"
					},
					"t_struct(Student)12_storage": {
						"encoding": "inplace",
						"label": "struct V1Marksheet.Student",
						"members": [
							{
								"astId": 3,
								"contract": "new marksheet-upgradable/MarksheetV1.sol:V1Marksheet",
								"label": "name",
								"offset": 0,
								"slot": "0",
								"type": "t_string_storage"
							},
							{
								"astId": 5,
								"contract": "new marksheet-upgradable/MarksheetV1.sol:V1Marksheet",
								"label": "english",
								"offset": 0,
								"slot": "1",
								"type": "t_uint256"
							},
							{
								"astId": 7,
								"contract": "new marksheet-upgradable/MarksheetV1.sol:V1Marksheet",
								"label": "hindi",
								"offset": 0,
								"slot": "2",
								"type": "t_uint256"
							},
							{
								"astId": 9,
								"contract": "new marksheet-upgradable/MarksheetV1.sol:V1Marksheet",
								"label": "math",
								"offset": 0,
								"slot": "3",
								"type": "t_uint256"
							},
							{
								"astId": 11,
								"contract": "new marksheet-upgradable/MarksheetV1.sol:V1Marksheet",
								"label": "percentage",
								"offset": 0,
								"slot": "4",
								"type": "t_uint256"
							}
						],
						"numberOfBytes": "160"
					},
					"t_uint256": {
						"encoding": "inplace",
						"label": "uint256",
						"numberOfBytes": "32"
					}
				}
			},
			"userdoc": {
				"kind": "user",
				"methods": {},
				"version": 1
			}
		}
	}
}