{
	"new marksheet-upgradable/MarksheetV2.sol": {
		"V2Marksheet": {
			"abi": [
				{
					"inputs": [
						{
							"internalType": "uint256",
							"name": "id",
							"type": "uint256"
						},
						{
							"internalType": "string",
							"name": "name",
							"type": "string"
						},
						{
							"internalType": "uint256",
							"name": "english",
							"type": "uint256"
						},
						{
							"internalType": "uint256",
							"name": "hindi",
							"type": "uint256"
						},
						{
							"internalType": "uint256",
							"name": "math",
							"type": "uint256"
						},
						{
							"internalType": "uint256",
							"name": "science",
							"type": "uint256"
						}
					],
					"name": "addStudent",
					"outputs": [],
					"stateMutability": "nonpayable",
					"type": "function"
				},
				{
					"inputs": [
						{
							"internalType": "uint256",
							"name": "id",
							"type": "uint256"
						}
					],
					"name": "getStudent",
					"outputs": [
						{
							"components": [
								{
									"internalType": "string",
									"name": "name",
									"type": "string"
								},
								{
									"internalType": "uint256",
									"name": "english",
									"type": "uint256"
								},
								{
									"internalType": "uint256",
									"name": "hindi",
									"type": "uint256"
								},
								{
									"internalType": "uint256",
									"name": "math",
									"type": "uint256"
								},
								{
									"internalType": "uint256",
									"name": "percentage",
									"type": "uint256"
								},
								{
									"internalType": "uint256",
									"name": "science",
									"type": "uint256"
								}
							],
							"internalType": "struct V2Marksheet.Student",
							"name": "",
							"type": "tuple"
						}
					],
					"stateMutability": "view",
					"type": "function"
				},
				{
					"inputs": [
						{
							"internalType": "uint256",
							"name": "",
							"type": "uint256"
						}
					],
					"name": "students",
					"outputs": [
						{
							"internalType": "string",
							"name": "name",
							"type": "string"
						},
						{
							"internalType": "uint256",
							"name": "english",
							"type": "uint256"
						},
						{
							"internalType": "uint256",
							"name": "hindi",
							"type": "uint256"
						},
						{
							"internalType": "uint256",
							"name": "math",
							"type": "uint256"
						},
						{
							"internalType": "uint256",
							"name": "percentage",
							"type": "uint256"
						},
						{
							"internalType": "uint256",
							"name": "science",
							"type": "uint256"
						}
					],
					"stateMutability": "view",
					"type": "function"
				}
			],
			"devdoc": {
				"kind": "dev",
				"methods": {},
				"version": 1
			},
			"evm": {
				"assembly": "    /* \"new marksheet-upgradable/MarksheetV2.sol\":61:844  contract V2Marksheet {... */\n  mstore(0x40, 0x80)\n  callvalue\n  dup1\n  iszero\n  tag_1\n  jumpi\n  revert(0x00, 0x00)\ntag_1:\n  pop\n  dataSize(sub_0)\n  dup1\n  dataOffset(sub_0)\n  0x00\n  codecopy\n  0x00\n  return\nstop\n\nsub_0: assembly {\n        /* \"new marksheet-upgradable/MarksheetV2.sol\":61:844  contract V2Marksheet {... */\n      mstore(0x40, 0x80)\n      callvalue\n      dup1\n      iszero\n      tag_1\n      jumpi\n      revert(0x00, 0x00)\n    tag_1:\n      pop\n      jumpi(tag_2, lt(calldatasize, 0x04))\n      shr(0xe0, calldataload(0x00))\n      dup1\n      0x06ead22e\n      eq\n      tag_3\n      jumpi\n      dup1\n      0x2c061b7d\n      eq\n      tag_4\n      jumpi\n      dup1\n      0x642f9163\n      eq\n      tag_5\n      jumpi\n    tag_2:\n      revert(0x00, 0x00)\n        /* \"new marksheet-upgradable/MarksheetV2.sol\":270:310  mapping(uint => Student) public students */\n    tag_3:\n      tag_6\n      0x04\n      dup1\n      calldatasize\n      sub\n      dup2\n      add\n      swap1\n      tag_7\n      swap2\n      swap1\n      tag_8\n      jump\t// in\n    tag_7:\n      tag_9\n      jump\t// in\n    tag_6:\n      mload(0x40)\n      tag_10\n      swap7\n      swap6\n      swap5\n      swap4\n      swap3\n      swap2\n      swap1\n      tag_11\n      jump\t// in\n    tag_10:\n      mload(0x40)\n      dup1\n      swap2\n      sub\n      swap1\n      return\n        /* \"new marksheet-upgradable/MarksheetV2.sol\":319:729  function addStudent(uint id, string memory name, uint english, uint hindi, uint math, uint science) public {... */\n    tag_4:\n      tag_12\n      0x04\n      dup1\n      calldatasize\n      sub\n      dup2\n      add\n      swap1\n      tag_13\n      swap2\n      swap1\n      tag_14\n      jump\t// in\n    tag_13:\n      tag_15\n      jump\t// in\n    tag_12:\n      stop\n        /* \"new marksheet-upgradable/MarksheetV2.sol\":737:841  function getStudent(uint id) public view returns (Student memory) {... */\n    tag_5:\n      tag_16\n      0x04\n      dup1\n      calldatasize\n      sub\n      dup2\n      add\n      swap1\n      tag_17\n      swap2\n      swap1\n      tag_8\n      jump\t// in\n    tag_17:\n      tag_18\n      jump\t// in\n    tag_16:\n      mload(0x40)\n      tag_19\n      swap2\n      swap1\n      tag_20\n      jump\t// in\n    tag_19:\n      mload(0x40)\n      dup1\n      swap2\n      sub\n      swap1\n      return\n        /* \"new marksheet-upgradable/MarksheetV2.sol\":270:310  mapping(uint => Student) public students */\n    tag_9:\n      mstore(0x20, 0x00)\n      dup1\n      0x00\n      mstore\n      keccak256(0x00, 0x40)\n      0x00\n      swap2\n      pop\n      swap1\n      pop\n      dup1\n      0x00\n      add\n      dup1\n      sload\n      tag_21\n      swap1\n      tag_22\n      jump\t// in\n    tag_21:\n      dup1\n      0x1f\n      add\n      0x20\n      dup1\n      swap2\n      div\n      mul\n      0x20\n      add\n      mload(0x40)\n      swap1\n      dup2\n      add\n      0x40\n      mstore\n      dup1\n      swap3\n      swap2\n      swap1\n      dup2\n      dup2\n      mstore\n      0x20\n      add\n      dup3\n      dup1\n      sload\n      tag_23\n      swap1\n      tag_22\n      jump\t// in\n    tag_23:\n      dup1\n      iszero\n      tag_24\n      jumpi\n      dup1\n      0x1f\n      lt\n      tag_25\n      jumpi\n      0x0100\n      dup1\n      dup4\n      sload\n      div\n      mul\n      dup4\n      mstore\n      swap2\n      0x20\n      add\n      swap2\n      jump(tag_24)\n    tag_25:\n      dup3\n      add\n      swap2\n      swap1\n      0x00\n      mstore\n      keccak256(0x00, 0x20)\n      swap1\n    tag_26:\n      dup2\n      sload\n      dup2\n      mstore\n      swap1\n      0x01\n      add\n      swap1\n      0x20\n      add\n      dup1\n      dup4\n      gt\n      tag_26\n      jumpi\n      dup3\n      swap1\n      sub\n      0x1f\n      and\n      dup3\n      add\n      swap2\n    tag_24:\n      pop\n      pop\n      pop\n      pop\n      pop\n      swap1\n      dup1\n      0x01\n      add\n      sload\n      swap1\n      dup1\n      0x02\n      add\n      sload\n      swap1\n      dup1\n      0x03\n      add\n      sload\n      swap1\n      dup1\n      0x04\n      add\n      sload\n      swap1\n      dup1\n      0x05\n      add\n      sload\n      swap1\n      pop\n      dup7\n      jump\t// out\n        /* \"new marksheet-upgradable/MarksheetV2.sol\":319:729  function addStudent(uint id, string memory name, uint english, uint hindi, uint math, uint science) public {... */\n    tag_15:\n        /* \"new marksheet-upgradable/MarksheetV2.sol\":456:459  100 */\n      0x64\n        /* \"new marksheet-upgradable/MarksheetV2.sol\":445:452  english */\n      dup5\n        /* \"new marksheet-upgradable/MarksheetV2.sol\":445:459  english <= 100 */\n      gt\n      iszero\n        /* \"new marksheet-upgradable/MarksheetV2.sol\":445:475  english <= 100 && hindi <= 100 */\n      dup1\n      iszero\n      tag_28\n      jumpi\n      pop\n        /* \"new marksheet-upgradable/MarksheetV2.sol\":472:475  100 */\n      0x64\n        /* \"new marksheet-upgradable/MarksheetV2.sol\":463:468  hindi */\n      dup4\n        /* \"new marksheet-upgradable/MarksheetV2.sol\":463:475  hindi <= 100 */\n      gt\n      iszero\n        /* \"new marksheet-upgradable/MarksheetV2.sol\":445:475  english <= 100 && hindi <= 100 */\n    tag_28:\n        /* \"new marksheet-upgradable/MarksheetV2.sol\":445:490  english <= 100 && hindi <= 100 && math <= 100 */\n      dup1\n      iszero\n      tag_29\n      jumpi\n      pop\n        /* \"new marksheet-upgradable/MarksheetV2.sol\":487:490  100 */\n      0x64\n        /* \"new marksheet-upgradable/MarksheetV2.sol\":479:483  math */\n      dup3\n        /* \"new marksheet-upgradable/MarksheetV2.sol\":479:490  math <= 100 */\n      gt\n      iszero\n        /* \"new marksheet-upgradable/MarksheetV2.sol\":445:490  english <= 100 && hindi <= 100 && math <= 100 */\n    tag_29:\n        /* \"new marksheet-upgradable/MarksheetV2.sol\":445:508  english <= 100 && hindi <= 100 && math <= 100 && science <= 100 */\n      dup1\n      iszero\n      tag_30\n      jumpi\n      pop\n        /* \"new marksheet-upgradable/MarksheetV2.sol\":505:508  100 */\n      0x64\n        /* \"new marksheet-upgradable/MarksheetV2.sol\":494:501  science */\n      dup2\n        /* \"new marksheet-upgradable/MarksheetV2.sol\":494:508  science <= 100 */\n      gt\n      iszero\n        /* \"new marksheet-upgradable/MarksheetV2.sol\":445:508  english <= 100 && hindi <= 100 && math <= 100 && science <= 100 */\n    tag_30:\n        /* \"new marksheet-upgradable/MarksheetV2.sol\":437:533  require(english <= 100 && hindi <= 100 && math <= 100 && science <= 100, \"Marks must be <= 100\") */\n      tag_31\n      jumpi\n      mload(0x40)\n      0x08c379a000000000000000000000000000000000000000000000000000000000\n      dup2\n      mstore\n      0x04\n      add\n      tag_32\n      swap1\n      tag_33\n      jump\t// in\n    tag_32:\n      mload(0x40)\n      dup1\n      swap2\n      sub\n      swap1\n      revert\n    tag_31:\n        /* \"new marksheet-upgradable/MarksheetV2.sol\":544:554  uint total */\n      0x00\n        /* \"new marksheet-upgradable/MarksheetV2.sol\":582:589  science */\n      dup2\n        /* \"new marksheet-upgradable/MarksheetV2.sol\":575:579  math */\n      dup4\n        /* \"new marksheet-upgradable/MarksheetV2.sol\":567:572  hindi */\n      dup6\n        /* \"new marksheet-upgradable/MarksheetV2.sol\":557:564  english */\n      dup8\n        /* \"new marksheet-upgradable/MarksheetV2.sol\":557:572  english + hindi */\n      tag_34\n      swap2\n      swap1\n      tag_35\n      jump\t// in\n    tag_34:\n        /* \"new marksheet-upgradable/MarksheetV2.sol\":557:579  english + hindi + math */\n      tag_36\n      swap2\n      swap1\n      tag_35\n      jump\t// in\n    tag_36:\n        /* \"new marksheet-upgradable/MarksheetV2.sol\":557:589  english + hindi + math + science */\n      tag_37\n      swap2\n      swap1\n      tag_35\n      jump\t// in\n    tag_37:\n        /* \"new marksheet-upgradable/MarksheetV2.sol\":544:589  uint total = english + hindi + math + science */\n      swap1\n      pop\n        /* \"new marksheet-upgradable/MarksheetV2.sol\":600:615  uint percentage */\n      0x00\n        /* \"new marksheet-upgradable/MarksheetV2.sol\":634:637  400 */\n      0x0190\n        /* \"new marksheet-upgradable/MarksheetV2.sol\":627:630  100 */\n      0x64\n        /* \"new marksheet-upgradable/MarksheetV2.sol\":619:624  total */\n      dup4\n        /* \"new marksheet-upgradable/MarksheetV2.sol\":619:630  total * 100 */\n      tag_38\n      swap2\n      swap1\n      tag_39\n      jump\t// in\n    tag_38:\n        /* \"new marksheet-upgradable/MarksheetV2.sol\":618:637  (total * 100) / 400 */\n      tag_40\n      swap2\n      swap1\n      tag_41\n      jump\t// in\n    tag_40:\n        /* \"new marksheet-upgradable/MarksheetV2.sol\":600:637  uint percentage = (total * 100) / 400 */\n      swap1\n      pop\n        /* \"new marksheet-upgradable/MarksheetV2.sol\":665:721  Student(name, english, hindi, math, science, percentage) */\n      mload(0x40)\n      dup1\n      0xc0\n      add\n      0x40\n      mstore\n      dup1\n        /* \"new marksheet-upgradable/MarksheetV2.sol\":673:677  name */\n      dup9\n        /* \"new marksheet-upgradable/MarksheetV2.sol\":665:721  Student(name, english, hindi, math, science, percentage) */\n      dup2\n      mstore\n      0x20\n      add\n        /* \"new marksheet-upgradable/MarksheetV2.sol\":679:686  english */\n      dup8\n        /* \"new marksheet-upgradable/MarksheetV2.sol\":665:721  Student(name, english, hindi, math, science, percentage) */\n      dup2\n      mstore\n      0x20\n      add\n        /* \"new marksheet-upgradable/MarksheetV2.sol\":688:693  hindi */\n      dup7\n        /* \"new marksheet-upgradable/MarksheetV2.sol\":665:721  Student(name, english, hindi, math, science, percentage) */\n      dup2\n      mstore\n      0x20\n      add\n        /* \"new marksheet-upgradable/MarksheetV2.sol\":695:699  math */\n      dup6\n        /* \"new marksheet-upgradable/MarksheetV2.sol\":665:721  Student(name, english, hindi, math, science, percentage) */\n      dup2\n      mstore\n      0x20\n      add\n        /* \"new marksheet-upgradable/MarksheetV2.sol\":701:708  science */\n      dup5\n        /* \"new marksheet-upgradable/MarksheetV2.sol\":665:721  Student(name, english, hindi, math, science, percentage) */\n      dup2\n      mstore\n      0x20\n      add\n        /* \"new marksheet-upgradable/MarksheetV2.sol\":710:720  percentage */\n      dup3\n        /* \"new marksheet-upgradable/MarksheetV2.sol\":665:721  Student(name, english, hindi, math, science, percentage) */\n      dup2\n      mstore\n      pop\n        /* \"new marksheet-upgradable/MarksheetV2.sol\":650:658  students */\n      0x00\n        /* \"new marksheet-upgradable/MarksheetV2.sol\":650:662  students[id] */\n      0x00\n        /* \"new marksheet-upgradable/MarksheetV2.sol\":659:661  id */\n      dup11\n        /* \"new marksheet-upgradable/MarksheetV2.sol\":650:662  students[id] */\n      dup2\n      mstore\n      0x20\n      add\n      swap1\n      dup2\n      mstore\n      0x20\n      add\n      0x00\n      keccak256\n        /* \"new marksheet-upgradable/MarksheetV2.sol\":650:721  students[id] = Student(name, english, hindi, math, science, percentage) */\n      0x00\n      dup3\n      add\n      mload\n      dup2\n      0x00\n      add\n      swap1\n      dup2\n      tag_42\n      swap2\n      swap1\n      tag_43\n      jump\t// in\n    tag_42:\n      pop\n      0x20\n      dup3\n      add\n      mload\n      dup2\n      0x01\n      add\n      sstore\n      0x40\n      dup3\n      add\n      mload\n      dup2\n      0x02\n      add\n      sstore\n      0x60\n      dup3\n      add\n      mload\n      dup2\n      0x03\n      add\n      sstore\n      0x80\n      dup3\n      add\n      mload\n      dup2\n      0x04\n      add\n      sstore\n      0xa0\n      dup3\n      add\n      mload\n      dup2\n      0x05\n      add\n      sstore\n      swap1\n      pop\n      pop\n        /* \"new marksheet-upgradable/MarksheetV2.sol\":426:729  {... */\n      pop\n      pop\n        /* \"new marksheet-upgradable/MarksheetV2.sol\":319:729  function addStudent(uint id, string memory name, uint english, uint hindi, uint math, uint science) public {... */\n      pop\n      pop\n      pop\n      pop\n      pop\n      pop\n      jump\t// out\n        /* \"new marksheet-upgradable/MarksheetV2.sol\":737:841  function getStudent(uint id) public view returns (Student memory) {... */\n    tag_18:\n        /* \"new marksheet-upgradable/MarksheetV2.sol\":787:801  Student memory */\n      tag_44\n      tag_45\n      jump\t// in\n    tag_44:\n        /* \"new marksheet-upgradable/MarksheetV2.sol\":821:829  students */\n      0x00\n        /* \"new marksheet-upgradable/MarksheetV2.sol\":821:833  students[id] */\n      0x00\n        /* \"new marksheet-upgradable/MarksheetV2.sol\":830:832  id */\n      dup4\n        /* \"new marksheet-upgradable/MarksheetV2.sol\":821:833  students[id] */\n      dup2\n      mstore\n      0x20\n      add\n      swap1\n      dup2\n      mstore\n      0x20\n      add\n      0x00\n      keccak256\n        /* \"new marksheet-upgradable/MarksheetV2.sol\":814:833  return students[id] */\n      mload(0x40)\n      dup1\n      0xc0\n      add\n      0x40\n      mstore\n      swap1\n      dup2\n      0x00\n      dup3\n      add\n      dup1\n      sload\n      tag_47\n      swap1\n      tag_22\n      jump\t// in\n    tag_47:\n      dup1\n      0x1f\n      add\n      0x20\n      dup1\n      swap2\n      div\n      mul\n      0x20\n      add\n      mload(0x40)\n      swap1\n      dup2\n      add\n      0x40\n      mstore\n      dup1\n      swap3\n      swap2\n      swap1\n      dup2\n      dup2\n      mstore\n      0x20\n      add\n      dup3\n      dup1\n      sload\n      tag_48\n      swap1\n      tag_22\n      jump\t// in\n    tag_48:\n      dup1\n      iszero\n      tag_49\n      jumpi\n      dup1\n      0x1f\n      lt\n      tag_50\n      jumpi\n      0x0100\n      dup1\n      dup4\n      sload\n      div\n      mul\n      dup4\n      mstore\n      swap2\n      0x20\n      add\n      swap2\n      jump(tag_49)\n    tag_50:\n      dup3\n      add\n      swap2\n      swap1\n      0x00\n      mstore\n      keccak256(0x00, 0x20)\n      swap1\n    tag_51:\n      dup2\n      sload\n      dup2\n      mstore\n      swap1\n      0x01\n      add\n      swap1\n      0x20\n      add\n      dup1\n      dup4\n      gt\n      tag_51\n      jumpi\n      dup3\n      swap1\n      sub\n      0x1f\n      and\n      dup3\n      add\n      swap2\n    tag_49:\n      pop\n      pop\n      pop\n      pop\n      pop\n      dup2\n      mstore\n      0x20\n      add\n      0x01\n      dup3\n      add\n      sload\n      dup2\n      mstore\n      0x20\n      add\n      0x02\n      dup3\n      add\n      sload\n      dup2\n      mstore\n      0x20\n      add\n      0x03\n      dup3\n      add\n      sload\n      dup2\n      mstore\n      0x20\n      add\n      0x04\n      dup3\n      add\n      sload\n      dup2\n      mstore\n      0x20\n      add\n      0x05\n      dup3\n      add\n      sload\n      dup2\n      mstore\n      pop\n      pop\n      swap1\n      pop\n        /* \"new marksheet-upgradable/MarksheetV2.sol\":737:841  function getStudent(uint id) public view returns (Student memory) {... */\n      swap2\n      swap1\n      pop\n      jump\t// out\n    tag_45:\n      mload(0x40)\n      dup1\n      0xc0\n      add\n      0x40\n      mstore\n      dup1\n      0x60\n      dup2\n      mstore\n      0x20\n      add\n      0x00\n      dup2\n      mstore\n      0x20\n      add\n      0x00\n      dup2\n      mstore\n      0x20\n      add\n      0x00\n      dup2\n      mstore\n      0x20\n      add\n      0x00\n      dup2\n      mstore\n      0x20\n      add\n      0x00\n      dup2\n      mstore\n      pop\n      swap1\n      jump\t// out\n        /* \"#utility.yul\":7:82   */\n    tag_52:\n        /* \"#utility.yul\":40:46   */\n      0x00\n        /* \"#utility.yul\":73:75   */\n      0x40\n        /* \"#utility.yul\":67:76   */\n      mload\n        /* \"#utility.yul\":57:76   */\n      swap1\n      pop\n        /* \"#utility.yul\":7:82   */\n      swap1\n      jump\t// out\n        /* \"#utility.yul\":88:205   */\n    tag_53:\n        /* \"#utility.yul\":197:198   */\n      0x00\n        /* \"#utility.yul\":194:195   */\n      0x00\n        /* \"#utility.yul\":187:199   */\n      revert\n        /* \"#utility.yul\":211:328   */\n    tag_54:\n        /* \"#utility.yul\":320:321   */\n      0x00\n        /* \"#utility.yul\":317:318   */\n      0x00\n        /* \"#utility.yul\":310:322   */\n      revert\n        /* \"#utility.yul\":334:411   */\n    tag_55:\n        /* \"#utility.yul\":371:378   */\n      0x00\n        /* \"#utility.yul\":400:405   */\n      dup2\n        /* \"#utility.yul\":389:405   */\n      swap1\n      pop\n        /* \"#utility.yul\":334:411   */\n      swap2\n      swap1\n      pop\n      jump\t// out\n        /* \"#utility.yul\":417:539   */\n    tag_56:\n        /* \"#utility.yul\":490:514   */\n      tag_103\n        /* \"#utility.yul\":508:513   */\n      dup2\n        /* \"#utility.yul\":490:514   */\n      tag_55\n      jump\t// in\n    tag_103:\n        /* \"#utility.yul\":483:488   */\n      dup2\n        /* \"#utility.yul\":480:515   */\n      eq\n        /* \"#utility.yul\":470:533   */\n      tag_104\n      jumpi\n        /* \"#utility.yul\":529:530   */\n      0x00\n        /* \"#utility.yul\":526:527   */\n      0x00\n        /* \"#utility.yul\":519:531   */\n      revert\n        /* \"#utility.yul\":470:533   */\n    tag_104:\n        /* \"#utility.yul\":417:539   */\n      pop\n      jump\t// out\n        /* \"#utility.yul\":545:684   */\n    tag_57:\n        /* \"#utility.yul\":591:596   */\n      0x00\n        /* \"#utility.yul\":629:635   */\n      dup2\n        /* \"#utility.yul\":616:636   */\n      calldataload\n        /* \"#utility.yul\":607:636   */\n      swap1\n      pop\n        /* \"#utility.yul\":645:678   */\n      tag_106\n        /* \"#utility.yul\":672:677   */\n      dup2\n        /* \"#utility.yul\":645:678   */\n      tag_56\n      jump\t// in\n    tag_106:\n        /* \"#utility.yul\":545:684   */\n      swap3\n      swap2\n      pop\n      pop\n      jump\t// out\n        /* \"#utility.yul\":690:1019   */\n    tag_8:\n        /* \"#utility.yul\":749:755   */\n      0x00\n        /* \"#utility.yul\":798:800   */\n      0x20\n        /* \"#utility.yul\":786:795   */\n      dup3\n        /* \"#utility.yul\":777:784   */\n      dup5\n        /* \"#utility.yul\":773:796   */\n      sub\n        /* \"#utility.yul\":769:801   */\n      slt\n        /* \"#utility.yul\":766:885   */\n      iszero\n      tag_108\n      jumpi\n        /* \"#utility.yul\":804:883   */\n      tag_109\n      tag_53\n      jump\t// in\n    tag_109:\n        /* \"#utility.yul\":766:885   */\n    tag_108:\n        /* \"#utility.yul\":924:925   */\n      0x00\n        /* \"#utility.yul\":949:1002   */\n      tag_110\n        /* \"#utility.yul\":994:1001   */\n      dup5\n        /* \"#utility.yul\":985:991   */\n      dup3\n        /* \"#utility.yul\":974:983   */\n      dup6\n        /* \"#utility.yul\":970:992   */\n      add\n        /* \"#utility.yul\":949:1002   */\n      tag_57\n      jump\t// in\n    tag_110:\n        /* \"#utility.yul\":939:1002   */\n      swap2\n      pop\n        /* \"#utility.yul\":895:1012   */\n      pop\n        /* \"#utility.yul\":690:1019   */\n      swap3\n      swap2\n      pop\n      pop\n      jump\t// out\n        /* \"#utility.yul\":1025:1124   */\n    tag_58:\n        /* \"#utility.yul\":1077:1083   */\n      0x00\n        /* \"#utility.yul\":1111:1116   */\n      dup2\n        /* \"#utility.yul\":1105:1117   */\n      mload\n        /* \"#utility.yul\":1095:1117   */\n      swap1\n      pop\n        /* \"#utility.yul\":1025:1124   */\n      swap2\n      swap1\n      pop\n      jump\t// out\n        /* \"#utility.yul\":1130:1299   */\n    tag_59:\n        /* \"#utility.yul\":1214:1225   */\n      0x00\n        /* \"#utility.yul\":1248:1254   */\n      dup3\n        /* \"#utility.yul\":1243:1246   */\n      dup3\n        /* \"#utility.yul\":1236:1255   */\n      mstore\n        /* \"#utility.yul\":1288:1292   */\n      0x20\n        /* \"#utility.yul\":1283:1286   */\n      dup3\n        /* \"#utility.yul\":1279:1293   */\n      add\n        /* \"#utility.yul\":1264:1293   */\n      swap1\n      pop\n        /* \"#utility.yul\":1130:1299   */\n      swap3\n      swap2\n      pop\n      pop\n      jump\t// out\n        /* \"#utility.yul\":1305:1444   */\n    tag_60:\n        /* \"#utility.yul\":1394:1400   */\n      dup3\n        /* \"#utility.yul\":1389:1392   */\n      dup2\n        /* \"#utility.yul\":1384:1387   */\n      dup4\n        /* \"#utility.yul\":1378:1401   */\n      mcopy\n        /* \"#utility.yul\":1435:1436   */\n      0x00\n        /* \"#utility.yul\":1426:1432   */\n      dup4\n        /* \"#utility.yul\":1421:1424   */\n      dup4\n        /* \"#utility.yul\":1417:1433   */\n      add\n        /* \"#utility.yul\":1410:1437   */\n      mstore\n        /* \"#utility.yul\":1305:1444   */\n      pop\n      pop\n      pop\n      jump\t// out\n        /* \"#utility.yul\":1450:1552   */\n    tag_61:\n        /* \"#utility.yul\":1491:1497   */\n      0x00\n        /* \"#utility.yul\":1542:1544   */\n      0x1f\n        /* \"#utility.yul\":1538:1545   */\n      not\n        /* \"#utility.yul\":1533:1535   */\n      0x1f\n        /* \"#utility.yul\":1526:1531   */\n      dup4\n        /* \"#utility.yul\":1522:1536   */\n      add\n        /* \"#utility.yul\":1518:1546   */\n      and\n        /* \"#utility.yul\":1508:1546   */\n      swap1\n      pop\n        /* \"#utility.yul\":1450:1552   */\n      swap2\n      swap1\n      pop\n      jump\t// out\n        /* \"#utility.yul\":1558:1935   */\n    tag_62:\n        /* \"#utility.yul\":1646:1649   */\n      0x00\n        /* \"#utility.yul\":1674:1713   */\n      tag_116\n        /* \"#utility.yul\":1707:1712   */\n      dup3\n        /* \"#utility.yul\":1674:1713   */\n      tag_58\n      jump\t// in\n    tag_116:\n        /* \"#utility.yul\":1729:1800   */\n      tag_117\n        /* \"#utility.yul\":1793:1799   */\n      dup2\n        /* \"#utility.yul\":1788:1791   */\n      dup6\n        /* \"#utility.yul\":1729:1800   */\n      tag_59\n      jump\t// in\n    tag_117:\n        /* \"#utility.yul\":1722:1800   */\n      swap4\n      pop\n        /* \"#utility.yul\":1809:1874   */\n      tag_118\n        /* \"#utility.yul\":1867:1873   */\n      dup2\n        /* \"#utility.yul\":1862:1865   */\n      dup6\n        /* \"#utility.yul\":1855:1859   */\n      0x20\n        /* \"#utility.yul\":1848:1853   */\n      dup7\n        /* \"#utility.yul\":1844:1860   */\n      add\n        /* \"#utility.yul\":1809:1874   */\n      tag_60\n      jump\t// in\n    tag_118:\n        /* \"#utility.yul\":1899:1928   */\n      tag_119\n        /* \"#utility.yul\":1921:1927   */\n      dup2\n        /* \"#utility.yul\":1899:1928   */\n      tag_61\n      jump\t// in\n    tag_119:\n        /* \"#utility.yul\":1894:1897   */\n      dup5\n        /* \"#utility.yul\":1890:1929   */\n      add\n        /* \"#utility.yul\":1883:1929   */\n      swap2\n      pop\n        /* \"#utility.yul\":1650:1935   */\n      pop\n        /* \"#utility.yul\":1558:1935   */\n      swap3\n      swap2\n      pop\n      pop\n      jump\t// out\n        /* \"#utility.yul\":1941:2059   */\n    tag_63:\n        /* \"#utility.yul\":2028:2052   */\n      tag_121\n        /* \"#utility.yul\":2046:2051   */\n      dup2\n        /* \"#utility.yul\":2028:2052   */\n      tag_55\n      jump\t// in\n    tag_121:\n        /* \"#utility.yul\":2023:2026   */\n      dup3\n        /* \"#utility.yul\":2016:2053   */\n      mstore\n        /* \"#utility.yul\":1941:2059   */\n      pop\n      pop\n      jump\t// out\n        /* \"#utility.yul\":2065:2931   */\n    tag_11:\n        /* \"#utility.yul\":2318:2322   */\n      0x00\n        /* \"#utility.yul\":2356:2359   */\n      0xc0\n        /* \"#utility.yul\":2345:2354   */\n      dup3\n        /* \"#utility.yul\":2341:2360   */\n      add\n        /* \"#utility.yul\":2333:2360   */\n      swap1\n      pop\n        /* \"#utility.yul\":2406:2415   */\n      dup2\n        /* \"#utility.yul\":2400:2404   */\n      dup2\n        /* \"#utility.yul\":2396:2416   */\n      sub\n        /* \"#utility.yul\":2392:2393   */\n      0x00\n        /* \"#utility.yul\":2381:2390   */\n      dup4\n        /* \"#utility.yul\":2377:2394   */\n      add\n        /* \"#utility.yul\":2370:2417   */\n      mstore\n        /* \"#utility.yul\":2434:2512   */\n      tag_123\n        /* \"#utility.yul\":2507:2511   */\n      dup2\n        /* \"#utility.yul\":2498:2504   */\n      dup10\n        /* \"#utility.yul\":2434:2512   */\n      tag_62\n      jump\t// in\n    tag_123:\n        /* \"#utility.yul\":2426:2512   */\n      swap1\n      pop\n        /* \"#utility.yul\":2522:2594   */\n      tag_124\n        /* \"#utility.yul\":2590:2592   */\n      0x20\n        /* \"#utility.yul\":2579:2588   */\n      dup4\n        /* \"#utility.yul\":2575:2593   */\n      add\n        /* \"#utility.yul\":2566:2572   */\n      dup9\n        /* \"#utility.yul\":2522:2594   */\n      tag_63\n      jump\t// in\n    tag_124:\n        /* \"#utility.yul\":2604:2676   */\n      tag_125\n        /* \"#utility.yul\":2672:2674   */\n      0x40\n        /* \"#utility.yul\":2661:2670   */\n      dup4\n        /* \"#utility.yul\":2657:2675   */\n      add\n        /* \"#utility.yul\":2648:2654   */\n      dup8\n        /* \"#utility.yul\":2604:2676   */\n      tag_63\n      jump\t// in\n    tag_125:\n        /* \"#utility.yul\":2686:2758   */\n      tag_126\n        /* \"#utility.yul\":2754:2756   */\n      0x60\n        /* \"#utility.yul\":2743:2752   */\n      dup4\n        /* \"#utility.yul\":2739:2757   */\n      add\n        /* \"#utility.yul\":2730:2736   */\n      dup7\n        /* \"#utility.yul\":2686:2758   */\n      tag_63\n      jump\t// in\n    tag_126:\n        /* \"#utility.yul\":2768:2841   */\n      tag_127\n        /* \"#utility.yul\":2836:2839   */\n      0x80\n        /* \"#utility.yul\":2825:2834   */\n      dup4\n        /* \"#utility.yul\":2821:2840   */\n      add\n        /* \"#utility.yul\":2812:2818   */\n      dup6\n        /* \"#utility.yul\":2768:2841   */\n      tag_63\n      jump\t// in\n    tag_127:\n        /* \"#utility.yul\":2851:2924   */\n      tag_128\n        /* \"#utility.yul\":2919:2922   */\n      0xa0\n        /* \"#utility.yul\":2908:2917   */\n      dup4\n        /* \"#utility.yul\":2904:2923   */\n      add\n        /* \"#utility.yul\":2895:2901   */\n      dup5\n        /* \"#utility.yul\":2851:2924   */\n      tag_63\n      jump\t// in\n    tag_128:\n        /* \"#utility.yul\":2065:2931   */\n      swap8\n      swap7\n      pop\n      pop\n      pop\n      pop\n      pop\n      pop\n      pop\n      jump\t// out\n        /* \"#utility.yul\":2937:3054   */\n    tag_64:\n        /* \"#utility.yul\":3046:3047   */\n      0x00\n        /* \"#utility.yul\":3043:3044   */\n      0x00\n        /* \"#utility.yul\":3036:3048   */\n      revert\n        /* \"#utility.yul\":3060:3177   */\n    tag_65:\n        /* \"#utility.yul\":3169:3170   */\n      0x00\n        /* \"#utility.yul\":3166:3167   */\n      0x00\n        /* \"#utility.yul\":3159:3171   */\n      revert\n        /* \"#utility.yul\":3183:3363   */\n    tag_66:\n        /* \"#utility.yul\":3231:3308   */\n      0x4e487b7100000000000000000000000000000000000000000000000000000000\n        /* \"#utility.yul\":3228:3229   */\n      0x00\n        /* \"#utility.yul\":3221:3309   */\n      mstore\n        /* \"#utility.yul\":3328:3332   */\n      0x41\n        /* \"#utility.yul\":3325:3326   */\n      0x04\n        /* \"#utility.yul\":3318:3333   */\n      mstore\n        /* \"#utility.yul\":3352:3356   */\n      0x24\n        /* \"#utility.yul\":3349:3350   */\n      0x00\n        /* \"#utility.yul\":3342:3357   */\n      revert\n        /* \"#utility.yul\":3369:3650   */\n    tag_67:\n        /* \"#utility.yul\":3452:3479   */\n      tag_133\n        /* \"#utility.yul\":3474:3478   */\n      dup3\n        /* \"#utility.yul\":3452:3479   */\n      tag_61\n      jump\t// in\n    tag_133:\n        /* \"#utility.yul\":3444:3450   */\n      dup2\n        /* \"#utility.yul\":3440:3480   */\n      add\n        /* \"#utility.yul\":3582:3588   */\n      dup2\n        /* \"#utility.yul\":3570:3580   */\n      dup2\n        /* \"#utility.yul\":3567:3589   */\n      lt\n        /* \"#utility.yul\":3546:3564   */\n      0xffffffffffffffff\n        /* \"#utility.yul\":3534:3544   */\n      dup3\n        /* \"#utility.yul\":3531:3565   */\n      gt\n        /* \"#utility.yul\":3528:3590   */\n      or\n        /* \"#utility.yul\":3525:3613   */\n      iszero\n      tag_134\n      jumpi\n        /* \"#utility.yul\":3593:3611   */\n      tag_135\n      tag_66\n      jump\t// in\n    tag_135:\n        /* \"#utility.yul\":3525:3613   */\n    tag_134:\n        /* \"#utility.yul\":3633:3643   */\n      dup1\n        /* \"#utility.yul\":3629:3631   */\n      0x40\n        /* \"#utility.yul\":3622:3644   */\n      mstore\n        /* \"#utility.yul\":3412:3650   */\n      pop\n        /* \"#utility.yul\":3369:3650   */\n      pop\n      pop\n      jump\t// out\n        /* \"#utility.yul\":3656:3785   */\n    tag_68:\n        /* \"#utility.yul\":3690:3696   */\n      0x00\n        /* \"#utility.yul\":3717:3737   */\n      tag_137\n      tag_52\n      jump\t// in\n    tag_137:\n        /* \"#utility.yul\":3707:3737   */\n      swap1\n      pop\n        /* \"#utility.yul\":3746:3779   */\n      tag_138\n        /* \"#utility.yul\":3774:3778   */\n      dup3\n        /* \"#utility.yul\":3766:3772   */\n      dup3\n        /* \"#utility.yul\":3746:3779   */\n      tag_67\n      jump\t// in\n    tag_138:\n        /* \"#utility.yul\":3656:3785   */\n      swap2\n      swap1\n      pop\n      jump\t// out\n        /* \"#utility.yul\":3791:4099   */\n    tag_69:\n        /* \"#utility.yul\":3853:3857   */\n      0x00\n        /* \"#utility.yul\":3943:3961   */\n      0xffffffffffffffff\n        /* \"#utility.yul\":3935:3941   */\n      dup3\n        /* \"#utility.yul\":3932:3962   */\n      gt\n        /* \"#utility.yul\":3929:3985   */\n      iszero\n      tag_140\n      jumpi\n        /* \"#utility.yul\":3965:3983   */\n      tag_141\n      tag_66\n      jump\t// in\n    tag_141:\n        /* \"#utility.yul\":3929:3985   */\n    tag_140:\n        /* \"#utility.yul\":4003:4032   */\n      tag_142\n        /* \"#utility.yul\":4025:4031   */\n      dup3\n        /* \"#utility.yul\":4003:4032   */\n      tag_61\n      jump\t// in\n    tag_142:\n        /* \"#utility.yul\":3995:4032   */\n      swap1\n      pop\n        /* \"#utility.yul\":4087:4091   */\n      0x20\n        /* \"#utility.yul\":4081:4085   */\n      dup2\n        /* \"#utility.yul\":4077:4092   */\n      add\n        /* \"#utility.yul\":4069:4092   */\n      swap1\n      pop\n        /* \"#utility.yul\":3791:4099   */\n      swap2\n      swap1\n      pop\n      jump\t// out\n        /* \"#utility.yul\":4105:4253   */\n    tag_70:\n        /* \"#utility.yul\":4203:4209   */\n      dup3\n        /* \"#utility.yul\":4198:4201   */\n      dup2\n        /* \"#utility.yul\":4193:4196   */\n      dup4\n        /* \"#utility.yul\":4180:4210   */\n      calldatacopy\n        /* \"#utility.yul\":4244:4245   */\n      0x00\n        /* \"#utility.yul\":4235:4241   */\n      dup4\n        /* \"#utility.yul\":4230:4233   */\n      dup4\n        /* \"#utility.yul\":4226:4242   */\n      add\n        /* \"#utility.yul\":4219:4246   */\n      mstore\n        /* \"#utility.yul\":4105:4253   */\n      pop\n      pop\n      pop\n      jump\t// out\n        /* \"#utility.yul\":4259:4684   */\n    tag_71:\n        /* \"#utility.yul\":4337:4342   */\n      0x00\n        /* \"#utility.yul\":4362:4428   */\n      tag_145\n        /* \"#utility.yul\":4378:4427   */\n      tag_146\n        /* \"#utility.yul\":4420:4426   */\n      dup5\n        /* \"#utility.yul\":4378:4427   */\n      tag_69\n      jump\t// in\n    tag_146:\n        /* \"#utility.yul\":4362:4428   */\n      tag_68\n      jump\t// in\n    tag_145:\n        /* \"#utility.yul\":4353:4428   */\n      swap1\n      pop\n        /* \"#utility.yul\":4451:4457   */\n      dup3\n        /* \"#utility.yul\":4444:4449   */\n      dup2\n        /* \"#utility.yul\":4437:4458   */\n      mstore\n        /* \"#utility.yul\":4489:4493   */\n      0x20\n        /* \"#utility.yul\":4482:4487   */\n      dup2\n        /* \"#utility.yul\":4478:4494   */\n      add\n        /* \"#utility.yul\":4527:4530   */\n      dup5\n        /* \"#utility.yul\":4518:4524   */\n      dup5\n        /* \"#utility.yul\":4513:4516   */\n      dup5\n        /* \"#utility.yul\":4509:4525   */\n      add\n        /* \"#utility.yul\":4506:4531   */\n      gt\n        /* \"#utility.yul\":4503:4615   */\n      iszero\n      tag_147\n      jumpi\n        /* \"#utility.yul\":4534:4613   */\n      tag_148\n      tag_65\n      jump\t// in\n    tag_148:\n        /* \"#utility.yul\":4503:4615   */\n    tag_147:\n        /* \"#utility.yul\":4624:4678   */\n      tag_149\n        /* \"#utility.yul\":4671:4677   */\n      dup5\n        /* \"#utility.yul\":4666:4669   */\n      dup3\n        /* \"#utility.yul\":4661:4664   */\n      dup6\n        /* \"#utility.yul\":4624:4678   */\n      tag_70\n      jump\t// in\n    tag_149:\n        /* \"#utility.yul\":4343:4684   */\n      pop\n        /* \"#utility.yul\":4259:4684   */\n      swap4\n      swap3\n      pop\n      pop\n      pop\n      jump\t// out\n        /* \"#utility.yul\":4704:5044   */\n    tag_72:\n        /* \"#utility.yul\":4760:4765   */\n      0x00\n        /* \"#utility.yul\":4809:4812   */\n      dup3\n        /* \"#utility.yul\":4802:4806   */\n      0x1f\n        /* \"#utility.yul\":4794:4800   */\n      dup4\n        /* \"#utility.yul\":4790:4807   */\n      add\n        /* \"#utility.yul\":4786:4813   */\n      slt\n        /* \"#utility.yul\":4776:4898   */\n      tag_151\n      jumpi\n        /* \"#utility.yul\":4817:4896   */\n      tag_152\n      tag_64\n      jump\t// in\n    tag_152:\n        /* \"#utility.yul\":4776:4898   */\n    tag_151:\n        /* \"#utility.yul\":4934:4940   */\n      dup2\n        /* \"#utility.yul\":4921:4941   */\n      calldataload\n        /* \"#utility.yul\":4959:5038   */\n      tag_153\n        /* \"#utility.yul\":5034:5037   */\n      dup5\n        /* \"#utility.yul\":5026:5032   */\n      dup3\n        /* \"#utility.yul\":5019:5023   */\n      0x20\n        /* \"#utility.yul\":5011:5017   */\n      dup7\n        /* \"#utility.yul\":5007:5024   */\n      add\n        /* \"#utility.yul\":4959:5038   */\n      tag_71\n      jump\t// in\n    tag_153:\n        /* \"#utility.yul\":4950:5038   */\n      swap2\n      pop\n        /* \"#utility.yul\":4766:5044   */\n      pop\n        /* \"#utility.yul\":4704:5044   */\n      swap3\n      swap2\n      pop\n      pop\n      jump\t// out\n        /* \"#utility.yul\":5050:6287   */\n    tag_14:\n        /* \"#utility.yul\":5164:5170   */\n      0x00\n        /* \"#utility.yul\":5172:5178   */\n      0x00\n        /* \"#utility.yul\":5180:5186   */\n      0x00\n        /* \"#utility.yul\":5188:5194   */\n      0x00\n        /* \"#utility.yul\":5196:5202   */\n      0x00\n        /* \"#utility.yul\":5204:5210   */\n      0x00\n        /* \"#utility.yul\":5253:5256   */\n      0xc0\n        /* \"#utility.yul\":5241:5250   */\n      dup8\n        /* \"#utility.yul\":5232:5239   */\n      dup10\n        /* \"#utility.yul\":5228:5251   */\n      sub\n        /* \"#utility.yul\":5224:5257   */\n      slt\n        /* \"#utility.yul\":5221:5341   */\n      iszero\n      tag_155\n      jumpi\n        /* \"#utility.yul\":5260:5339   */\n      tag_156\n      tag_53\n      jump\t// in\n    tag_156:\n        /* \"#utility.yul\":5221:5341   */\n    tag_155:\n        /* \"#utility.yul\":5380:5381   */\n      0x00\n        /* \"#utility.yul\":5405:5458   */\n      tag_157\n        /* \"#utility.yul\":5450:5457   */\n      dup10\n        /* \"#utility.yul\":5441:5447   */\n      dup3\n        /* \"#utility.yul\":5430:5439   */\n      dup11\n        /* \"#utility.yul\":5426:5448   */\n      add\n        /* \"#utility.yul\":5405:5458   */\n      tag_57\n      jump\t// in\n    tag_157:\n        /* \"#utility.yul\":5395:5458   */\n      swap7\n      pop\n        /* \"#utility.yul\":5351:5468   */\n      pop\n        /* \"#utility.yul\":5535:5537   */\n      0x20\n        /* \"#utility.yul\":5524:5533   */\n      dup8\n        /* \"#utility.yul\":5520:5538   */\n      add\n        /* \"#utility.yul\":5507:5539   */\n      calldataload\n        /* \"#utility.yul\":5566:5584   */\n      0xffffffffffffffff\n        /* \"#utility.yul\":5558:5564   */\n      dup2\n        /* \"#utility.yul\":5555:5585   */\n      gt\n        /* \"#utility.yul\":5552:5669   */\n      iszero\n      tag_158\n      jumpi\n        /* \"#utility.yul\":5588:5667   */\n      tag_159\n      tag_54\n      jump\t// in\n    tag_159:\n        /* \"#utility.yul\":5552:5669   */\n    tag_158:\n        /* \"#utility.yul\":5693:5756   */\n      tag_160\n        /* \"#utility.yul\":5748:5755   */\n      dup10\n        /* \"#utility.yul\":5739:5745   */\n      dup3\n        /* \"#utility.yul\":5728:5737   */\n      dup11\n        /* \"#utility.yul\":5724:5746   */\n      add\n        /* \"#utility.yul\":5693:5756   */\n      tag_72\n      jump\t// in\n    tag_160:\n        /* \"#utility.yul\":5683:5756   */\n      swap6\n      pop\n        /* \"#utility.yul\":5478:5766   */\n      pop\n        /* \"#utility.yul\":5805:5807   */\n      0x40\n        /* \"#utility.yul\":5831:5884   */\n      tag_161\n        /* \"#utility.yul\":5876:5883   */\n      dup10\n        /* \"#utility.yul\":5867:5873   */\n      dup3\n        /* \"#utility.yul\":5856:5865   */\n      dup11\n        /* \"#utility.yul\":5852:5874   */\n      add\n        /* \"#utility.yul\":5831:5884   */\n      tag_57\n      jump\t// in\n    tag_161:\n        /* \"#utility.yul\":5821:5884   */\n      swap5\n      pop\n        /* \"#utility.yul\":5776:5894   */\n      pop\n        /* \"#utility.yul\":5933:5935   */\n      0x60\n        /* \"#utility.yul\":5959:6012   */\n      tag_162\n        /* \"#utility.yul\":6004:6011   */\n      dup10\n        /* \"#utility.yul\":5995:6001   */\n      dup3\n        /* \"#utility.yul\":5984:5993   */\n      dup11\n        /* \"#utility.yul\":5980:6002   */\n      add\n        /* \"#utility.yul\":5959:6012   */\n      tag_57\n      jump\t// in\n    tag_162:\n        /* \"#utility.yul\":5949:6012   */\n      swap4\n      pop\n        /* \"#utility.yul\":5904:6022   */\n      pop\n        /* \"#utility.yul\":6061:6064   */\n      0x80\n        /* \"#utility.yul\":6088:6141   */\n      tag_163\n        /* \"#utility.yul\":6133:6140   */\n      dup10\n        /* \"#utility.yul\":6124:6130   */\n      dup3\n        /* \"#utility.yul\":6113:6122   */\n      dup11\n        /* \"#utility.yul\":6109:6131   */\n      add\n        /* \"#utility.yul\":6088:6141   */\n      tag_57\n      jump\t// in\n    tag_163:\n        /* \"#utility.yul\":6078:6141   */\n      swap3\n      pop\n        /* \"#utility.yul\":6032:6151   */\n      pop\n        /* \"#utility.yul\":6190:6193   */\n      0xa0\n        /* \"#utility.yul\":6217:6270   */\n      tag_164\n        /* \"#utility.yul\":6262:6269   */\n      dup10\n        /* \"#utility.yul\":6253:6259   */\n      dup3\n        /* \"#utility.yul\":6242:6251   */\n      dup11\n        /* \"#utility.yul\":6238:6260   */\n      add\n        /* \"#utility.yul\":6217:6270   */\n      tag_57\n      jump\t// in\n    tag_164:\n        /* \"#utility.yul\":6207:6270   */\n      swap2\n      pop\n        /* \"#utility.yul\":6161:6280   */\n      pop\n        /* \"#utility.yul\":5050:6287   */\n      swap3\n      swap6\n      pop\n      swap3\n      swap6\n      pop\n      swap3\n      swap6\n      jump\t// out\n        /* \"#utility.yul\":6293:6452   */\n    tag_73:\n        /* \"#utility.yul\":6367:6378   */\n      0x00\n        /* \"#utility.yul\":6401:6407   */\n      dup3\n        /* \"#utility.yul\":6396:6399   */\n      dup3\n        /* \"#utility.yul\":6389:6408   */\n      mstore\n        /* \"#utility.yul\":6441:6445   */\n      0x20\n        /* \"#utility.yul\":6436:6439   */\n      dup3\n        /* \"#utility.yul\":6432:6446   */\n      add\n        /* \"#utility.yul\":6417:6446   */\n      swap1\n      pop\n        /* \"#utility.yul\":6293:6452   */\n      swap3\n      swap2\n      pop\n      pop\n      jump\t// out\n        /* \"#utility.yul\":6458:6815   */\n    tag_74:\n        /* \"#utility.yul\":6536:6539   */\n      0x00\n        /* \"#utility.yul\":6564:6603   */\n      tag_167\n        /* \"#utility.yul\":6597:6602   */\n      dup3\n        /* \"#utility.yul\":6564:6603   */\n      tag_58\n      jump\t// in\n    tag_167:\n        /* \"#utility.yul\":6619:6680   */\n      tag_168\n        /* \"#utility.yul\":6673:6679   */\n      dup2\n        /* \"#utility.yul\":6668:6671   */\n      dup6\n        /* \"#utility.yul\":6619:6680   */\n      tag_73\n      jump\t// in\n    tag_168:\n        /* \"#utility.yul\":6612:6680   */\n      swap4\n      pop\n        /* \"#utility.yul\":6689:6754   */\n      tag_169\n        /* \"#utility.yul\":6747:6753   */\n      dup2\n        /* \"#utility.yul\":6742:6745   */\n      dup6\n        /* \"#utility.yul\":6735:6739   */\n      0x20\n        /* \"#utility.yul\":6728:6733   */\n      dup7\n        /* \"#utility.yul\":6724:6740   */\n      add\n        /* \"#utility.yul\":6689:6754   */\n      tag_60\n      jump\t// in\n    tag_169:\n        /* \"#utility.yul\":6779:6808   */\n      tag_170\n        /* \"#utility.yul\":6801:6807   */\n      dup2\n        /* \"#utility.yul\":6779:6808   */\n      tag_61\n      jump\t// in\n    tag_170:\n        /* \"#utility.yul\":6774:6777   */\n      dup5\n        /* \"#utility.yul\":6770:6809   */\n      add\n        /* \"#utility.yul\":6763:6809   */\n      swap2\n      pop\n        /* \"#utility.yul\":6540:6815   */\n      pop\n        /* \"#utility.yul\":6458:6815   */\n      swap3\n      swap2\n      pop\n      pop\n      jump\t// out\n        /* \"#utility.yul\":6821:6929   */\n    tag_75:\n        /* \"#utility.yul\":6898:6922   */\n      tag_172\n        /* \"#utility.yul\":6916:6921   */\n      dup2\n        /* \"#utility.yul\":6898:6922   */\n      tag_55\n      jump\t// in\n    tag_172:\n        /* \"#utility.yul\":6893:6896   */\n      dup3\n        /* \"#utility.yul\":6886:6923   */\n      mstore\n        /* \"#utility.yul\":6821:6929   */\n      pop\n      pop\n      jump\t// out\n        /* \"#utility.yul\":6999:8310   */\n    tag_76:\n        /* \"#utility.yul\":7114:7117   */\n      0x00\n        /* \"#utility.yul\":7150:7154   */\n      0xc0\n        /* \"#utility.yul\":7145:7148   */\n      dup4\n        /* \"#utility.yul\":7141:7155   */\n      add\n        /* \"#utility.yul\":7237:7241   */\n      0x00\n        /* \"#utility.yul\":7230:7235   */\n      dup4\n        /* \"#utility.yul\":7226:7242   */\n      add\n        /* \"#utility.yul\":7220:7243   */\n      mload\n        /* \"#utility.yul\":7290:7293   */\n      dup5\n        /* \"#utility.yul\":7284:7288   */\n      dup3\n        /* \"#utility.yul\":7280:7294   */\n      sub\n        /* \"#utility.yul\":7273:7277   */\n      0x00\n        /* \"#utility.yul\":7268:7271   */\n      dup7\n        /* \"#utility.yul\":7264:7278   */\n      add\n        /* \"#utility.yul\":7257:7295   */\n      mstore\n        /* \"#utility.yul\":7316:7389   */\n      tag_174\n        /* \"#utility.yul\":7384:7388   */\n      dup3\n        /* \"#utility.yul\":7370:7382   */\n      dup3\n        /* \"#utility.yul\":7316:7389   */\n      tag_74\n      jump\t// in\n    tag_174:\n        /* \"#utility.yul\":7308:7389   */\n      swap2\n      pop\n        /* \"#utility.yul\":7165:7400   */\n      pop\n        /* \"#utility.yul\":7485:7489   */\n      0x20\n        /* \"#utility.yul\":7478:7483   */\n      dup4\n        /* \"#utility.yul\":7474:7490   */\n      add\n        /* \"#utility.yul\":7468:7491   */\n      mload\n        /* \"#utility.yul\":7504:7567   */\n      tag_175\n        /* \"#utility.yul\":7561:7565   */\n      0x20\n        /* \"#utility.yul\":7556:7559   */\n      dup7\n        /* \"#utility.yul\":7552:7566   */\n      add\n        /* \"#utility.yul\":7538:7550   */\n      dup3\n        /* \"#utility.yul\":7504:7567   */\n      tag_75\n      jump\t// in\n    tag_175:\n        /* \"#utility.yul\":7410:7577   */\n      pop\n        /* \"#utility.yul\":7660:7664   */\n      0x40\n        /* \"#utility.yul\":7653:7658   */\n      dup4\n        /* \"#utility.yul\":7649:7665   */\n      add\n        /* \"#utility.yul\":7643:7666   */\n      mload\n        /* \"#utility.yul\":7679:7742   */\n      tag_176\n        /* \"#utility.yul\":7736:7740   */\n      0x40\n        /* \"#utility.yul\":7731:7734   */\n      dup7\n        /* \"#utility.yul\":7727:7741   */\n      add\n        /* \"#utility.yul\":7713:7725   */\n      dup3\n        /* \"#utility.yul\":7679:7742   */\n      tag_75\n      jump\t// in\n    tag_176:\n        /* \"#utility.yul\":7587:7752   */\n      pop\n        /* \"#utility.yul\":7834:7838   */\n      0x60\n        /* \"#utility.yul\":7827:7832   */\n      dup4\n        /* \"#utility.yul\":7823:7839   */\n      add\n        /* \"#utility.yul\":7817:7840   */\n      mload\n        /* \"#utility.yul\":7853:7916   */\n      tag_177\n        /* \"#utility.yul\":7910:7914   */\n      0x60\n        /* \"#utility.yul\":7905:7908   */\n      dup7\n        /* \"#utility.yul\":7901:7915   */\n      add\n        /* \"#utility.yul\":7887:7899   */\n      dup3\n        /* \"#utility.yul\":7853:7916   */\n      tag_75\n      jump\t// in\n    tag_177:\n        /* \"#utility.yul\":7762:7926   */\n      pop\n        /* \"#utility.yul\":8014:8018   */\n      0x80\n        /* \"#utility.yul\":8007:8012   */\n      dup4\n        /* \"#utility.yul\":8003:8019   */\n      add\n        /* \"#utility.yul\":7997:8020   */\n      mload\n        /* \"#utility.yul\":8033:8096   */\n      tag_178\n        /* \"#utility.yul\":8090:8094   */\n      0x80\n        /* \"#utility.yul\":8085:8088   */\n      dup7\n        /* \"#utility.yul\":8081:8095   */\n      add\n        /* \"#utility.yul\":8067:8079   */\n      dup3\n        /* \"#utility.yul\":8033:8096   */\n      tag_75\n      jump\t// in\n    tag_178:\n        /* \"#utility.yul\":7936:8106   */\n      pop\n        /* \"#utility.yul\":8191:8195   */\n      0xa0\n        /* \"#utility.yul\":8184:8189   */\n      dup4\n        /* \"#utility.yul\":8180:8196   */\n      add\n        /* \"#utility.yul\":8174:8197   */\n      mload\n        /* \"#utility.yul\":8210:8273   */\n      tag_179\n        /* \"#utility.yul\":8267:8271   */\n      0xa0\n        /* \"#utility.yul\":8262:8265   */\n      dup7\n        /* \"#utility.yul\":8258:8272   */\n      add\n        /* \"#utility.yul\":8244:8256   */\n      dup3\n        /* \"#utility.yul\":8210:8273   */\n      tag_75\n      jump\t// in\n    tag_179:\n        /* \"#utility.yul\":8116:8283   */\n      pop\n        /* \"#utility.yul\":8300:8304   */\n      dup1\n        /* \"#utility.yul\":8293:8304   */\n      swap2\n      pop\n        /* \"#utility.yul\":7119:8310   */\n      pop\n        /* \"#utility.yul\":6999:8310   */\n      swap3\n      swap2\n      pop\n      pop\n      jump\t// out\n        /* \"#utility.yul\":8316:8681   */\n    tag_20:\n        /* \"#utility.yul\":8455:8459   */\n      0x00\n        /* \"#utility.yul\":8493:8495   */\n      0x20\n        /* \"#utility.yul\":8482:8491   */\n      dup3\n        /* \"#utility.yul\":8478:8496   */\n      add\n        /* \"#utility.yul\":8470:8496   */\n      swap1\n      pop\n        /* \"#utility.yul\":8542:8551   */\n      dup2\n        /* \"#utility.yul\":8536:8540   */\n      dup2\n        /* \"#utility.yul\":8532:8552   */\n      sub\n        /* \"#utility.yul\":8528:8529   */\n      0x00\n        /* \"#utility.yul\":8517:8526   */\n      dup4\n        /* \"#utility.yul\":8513:8530   */\n      add\n        /* \"#utility.yul\":8506:8553   */\n      mstore\n        /* \"#utility.yul\":8570:8674   */\n      tag_181\n        /* \"#utility.yul\":8669:8673   */\n      dup2\n        /* \"#utility.yul\":8660:8666   */\n      dup5\n        /* \"#utility.yul\":8570:8674   */\n      tag_76\n      jump\t// in\n    tag_181:\n        /* \"#utility.yul\":8562:8674   */\n      swap1\n      pop\n        /* \"#utility.yul\":8316:8681   */\n      swap3\n      swap2\n      pop\n      pop\n      jump\t// out\n        /* \"#utility.yul\":8687:8867   */\n    tag_77:\n        /* \"#utility.yul\":8735:8812   */\n      0x4e487b7100000000000000000000000000000000000000000000000000000000\n        /* \"#utility.yul\":8732:8733   */\n      0x00\n        /* \"#utility.yul\":8725:8813   */\n      mstore\n        /* \"#utility.yul\":8832:8836   */\n      0x22\n        /* \"#utility.yul\":8829:8830   */\n      0x04\n        /* \"#utility.yul\":8822:8837   */\n      mstore\n        /* \"#utility.yul\":8856:8860   */\n      0x24\n        /* \"#utility.yul\":8853:8854   */\n      0x00\n        /* \"#utility.yul\":8846:8861   */\n      revert\n        /* \"#utility.yul\":8873:9193   */\n    tag_22:\n        /* \"#utility.yul\":8917:8923   */\n      0x00\n        /* \"#utility.yul\":8954:8955   */\n      0x02\n        /* \"#utility.yul\":8948:8952   */\n      dup3\n        /* \"#utility.yul\":8944:8956   */\n      div\n        /* \"#utility.yul\":8934:8956   */\n      swap1\n      pop\n        /* \"#utility.yul\":9001:9002   */\n      0x01\n        /* \"#utility.yul\":8995:8999   */\n      dup3\n        /* \"#utility.yul\":8991:9003   */\n      and\n        /* \"#utility.yul\":9022:9040   */\n      dup1\n        /* \"#utility.yul\":9012:9093   */\n      tag_184\n      jumpi\n        /* \"#utility.yul\":9078:9082   */\n      0x7f\n        /* \"#utility.yul\":9070:9076   */\n      dup3\n        /* \"#utility.yul\":9066:9083   */\n      and\n        /* \"#utility.yul\":9056:9083   */\n      swap2\n      pop\n        /* \"#utility.yul\":9012:9093   */\n    tag_184:\n        /* \"#utility.yul\":9140:9142   */\n      0x20\n        /* \"#utility.yul\":9132:9138   */\n      dup3\n        /* \"#utility.yul\":9129:9143   */\n      lt\n        /* \"#utility.yul\":9109:9127   */\n      dup2\n        /* \"#utility.yul\":9106:9144   */\n      sub\n        /* \"#utility.yul\":9103:9187   */\n      tag_185\n      jumpi\n        /* \"#utility.yul\":9159:9177   */\n      tag_186\n      tag_77\n      jump\t// in\n    tag_186:\n        /* \"#utility.yul\":9103:9187   */\n    tag_185:\n        /* \"#utility.yul\":8924:9193   */\n      pop\n        /* \"#utility.yul\":8873:9193   */\n      swap2\n      swap1\n      pop\n      jump\t// out\n        /* \"#utility.yul\":9199:9369   */\n    tag_78:\n        /* \"#utility.yul\":9339:9361   */\n      0x4d61726b73206d757374206265203c3d20313030000000000000000000000000\n        /* \"#utility.yul\":9335:9336   */\n      0x00\n        /* \"#utility.yul\":9327:9333   */\n      dup3\n        /* \"#utility.yul\":9323:9337   */\n      add\n        /* \"#utility.yul\":9316:9362   */\n      mstore\n        /* \"#utility.yul\":9199:9369   */\n      pop\n      jump\t// out\n        /* \"#utility.yul\":9375:9741   */\n    tag_79:\n        /* \"#utility.yul\":9517:9520   */\n      0x00\n        /* \"#utility.yul\":9538:9605   */\n      tag_189\n        /* \"#utility.yul\":9602:9604   */\n      0x14\n        /* \"#utility.yul\":9597:9600   */\n      dup4\n        /* \"#utility.yul\":9538:9605   */\n      tag_59\n      jump\t// in\n    tag_189:\n        /* \"#utility.yul\":9531:9605   */\n      swap2\n      pop\n        /* \"#utility.yul\":9614:9707   */\n      tag_190\n        /* \"#utility.yul\":9703:9706   */\n      dup3\n        /* \"#utility.yul\":9614:9707   */\n      tag_78\n      jump\t// in\n    tag_190:\n        /* \"#utility.yul\":9732:9734   */\n      0x20\n        /* \"#utility.yul\":9727:9730   */\n      dup3\n        /* \"#utility.yul\":9723:9735   */\n      add\n        /* \"#utility.yul\":9716:9735   */\n      swap1\n      pop\n        /* \"#utility.yul\":9375:9741   */\n      swap2\n      swap1\n      pop\n      jump\t// out\n        /* \"#utility.yul\":9747:10166   */\n    tag_33:\n        /* \"#utility.yul\":9913:9917   */\n      0x00\n        /* \"#utility.yul\":9951:9953   */\n      0x20\n        /* \"#utility.yul\":9940:9949   */\n      dup3\n        /* \"#utility.yul\":9936:9954   */\n      add\n        /* \"#utility.yul\":9928:9954   */\n      swap1\n      pop\n        /* \"#utility.yul\":10000:10009   */\n      dup2\n        /* \"#utility.yul\":9994:9998   */\n      dup2\n        /* \"#utility.yul\":9990:10010   */\n      sub\n        /* \"#utility.yul\":9986:9987   */\n      0x00\n        /* \"#utility.yul\":9975:9984   */\n      dup4\n        /* \"#utility.yul\":9971:9988   */\n      add\n        /* \"#utility.yul\":9964:10011   */\n      mstore\n        /* \"#utility.yul\":10028:10159   */\n      tag_192\n        /* \"#utility.yul\":10154:10158   */\n      dup2\n        /* \"#utility.yul\":10028:10159   */\n      tag_79\n      jump\t// in\n    tag_192:\n        /* \"#utility.yul\":10020:10159   */\n      swap1\n      pop\n        /* \"#utility.yul\":9747:10166   */\n      swap2\n      swap1\n      pop\n      jump\t// out\n        /* \"#utility.yul\":10172:10352   */\n    tag_80:\n        /* \"#utility.yul\":10220:10297   */\n      0x4e487b7100000000000000000000000000000000000000000000000000000000\n        /* \"#utility.yul\":10217:10218   */\n      0x00\n        /* \"#utility.yul\":10210:10298   */\n      mstore\n        /* \"#utility.yul\":10317:10321   */\n      0x11\n        /* \"#utility.yul\":10314:10315   */\n      0x04\n        /* \"#utility.yul\":10307:10322   */\n      mstore\n        /* \"#utility.yul\":10341:10345   */\n      0x24\n        /* \"#utility.yul\":10338:10339   */\n      0x00\n        /* \"#utility.yul\":10331:10346   */\n      revert\n        /* \"#utility.yul\":10358:10549   */\n    tag_35:\n        /* \"#utility.yul\":10398:10401   */\n      0x00\n        /* \"#utility.yul\":10417:10437   */\n      tag_195\n        /* \"#utility.yul\":10435:10436   */\n      dup3\n        /* \"#utility.yul\":10417:10437   */\n      tag_55\n      jump\t// in\n    tag_195:\n        /* \"#utility.yul\":10412:10437   */\n      swap2\n      pop\n        /* \"#utility.yul\":10451:10471   */\n      tag_196\n        /* \"#utility.yul\":10469:10470   */\n      dup4\n        /* \"#utility.yul\":10451:10471   */\n      tag_55\n      jump\t// in\n    tag_196:\n        /* \"#utility.yul\":10446:10471   */\n      swap3\n      pop\n        /* \"#utility.yul\":10494:10495   */\n      dup3\n        /* \"#utility.yul\":10491:10492   */\n      dup3\n        /* \"#utility.yul\":10487:10496   */\n      add\n        /* \"#utility.yul\":10480:10496   */\n      swap1\n      pop\n        /* \"#utility.yul\":10515:10518   */\n      dup1\n        /* \"#utility.yul\":10512:10513   */\n      dup3\n        /* \"#utility.yul\":10509:10519   */\n      gt\n        /* \"#utility.yul\":10506:10542   */\n      iszero\n      tag_197\n      jumpi\n        /* \"#utility.yul\":10522:10540   */\n      tag_198\n      tag_80\n      jump\t// in\n    tag_198:\n        /* \"#utility.yul\":10506:10542   */\n    tag_197:\n        /* \"#utility.yul\":10358:10549   */\n      swap3\n      swap2\n      pop\n      pop\n      jump\t// out\n        /* \"#utility.yul\":10555:10965   */\n    tag_39:\n        /* \"#utility.yul\":10595:10602   */\n      0x00\n        /* \"#utility.yul\":10618:10638   */\n      tag_200\n        /* \"#utility.yul\":10636:10637   */\n      dup3\n        /* \"#utility.yul\":10618:10638   */\n      tag_55\n      jump\t// in\n    tag_200:\n        /* \"#utility.yul\":10613:10638   */\n      swap2\n      pop\n        /* \"#utility.yul\":10652:10672   */\n      tag_201\n        /* \"#utility.yul\":10670:10671   */\n      dup4\n        /* \"#utility.yul\":10652:10672   */\n      tag_55\n      jump\t// in\n    tag_201:\n        /* \"#utility.yul\":10647:10672   */\n      swap3\n      pop\n        /* \"#utility.yul\":10707:10708   */\n      dup3\n        /* \"#utility.yul\":10704:10705   */\n      dup3\n        /* \"#utility.yul\":10700:10709   */\n      mul\n        /* \"#utility.yul\":10729:10759   */\n      tag_202\n        /* \"#utility.yul\":10747:10758   */\n      dup2\n        /* \"#utility.yul\":10729:10759   */\n      tag_55\n      jump\t// in\n    tag_202:\n        /* \"#utility.yul\":10718:10759   */\n      swap2\n      pop\n        /* \"#utility.yul\":10908:10909   */\n      dup3\n        /* \"#utility.yul\":10899:10906   */\n      dup3\n        /* \"#utility.yul\":10895:10910   */\n      div\n        /* \"#utility.yul\":10892:10893   */\n      dup5\n        /* \"#utility.yul\":10889:10911   */\n      eq\n        /* \"#utility.yul\":10869:10870   */\n      dup4\n        /* \"#utility.yul\":10862:10871   */\n      iszero\n        /* \"#utility.yul\":10842:10925   */\n      or\n        /* \"#utility.yul\":10819:10958   */\n      tag_203\n      jumpi\n        /* \"#utility.yul\":10938:10956   */\n      tag_204\n      tag_80\n      jump\t// in\n    tag_204:\n        /* \"#utility.yul\":10819:10958   */\n    tag_203:\n        /* \"#utility.yul\":10603:10965   */\n      pop\n        /* \"#utility.yul\":10555:10965   */\n      swap3\n      swap2\n      pop\n      pop\n      jump\t// out\n        /* \"#utility.yul\":10971:11151   */\n    tag_81:\n        /* \"#utility.yul\":11019:11096   */\n      0x4e487b7100000000000000000000000000000000000000000000000000000000\n        /* \"#utility.yul\":11016:11017   */\n      0x00\n        /* \"#utility.yul\":11009:11097   */\n      mstore\n        /* \"#utility.yul\":11116:11120   */\n      0x12\n        /* \"#utility.yul\":11113:11114   */\n      0x04\n        /* \"#utility.yul\":11106:11121   */\n      mstore\n        /* \"#utility.yul\":11140:11144   */\n      0x24\n        /* \"#utility.yul\":11137:11138   */\n      0x00\n        /* \"#utility.yul\":11130:11145   */\n      revert\n        /* \"#utility.yul\":11157:11342   */\n    tag_41:\n        /* \"#utility.yul\":11197:11198   */\n      0x00\n        /* \"#utility.yul\":11214:11234   */\n      tag_207\n        /* \"#utility.yul\":11232:11233   */\n      dup3\n        /* \"#utility.yul\":11214:11234   */\n      tag_55\n      jump\t// in\n    tag_207:\n        /* \"#utility.yul\":11209:11234   */\n      swap2\n      pop\n        /* \"#utility.yul\":11248:11268   */\n      tag_208\n        /* \"#utility.yul\":11266:11267   */\n      dup4\n        /* \"#utility.yul\":11248:11268   */\n      tag_55\n      jump\t// in\n    tag_208:\n        /* \"#utility.yul\":11243:11268   */\n      swap3\n      pop\n        /* \"#utility.yul\":11287:11288   */\n      dup3\n        /* \"#utility.yul\":11277:11312   */\n      tag_209\n      jumpi\n        /* \"#utility.yul\":11292:11310   */\n      tag_210\n      tag_81\n      jump\t// in\n    tag_210:\n        /* \"#utility.yul\":11277:11312   */\n    tag_209:\n        /* \"#utility.yul\":11334:11335   */\n      dup3\n        /* \"#utility.yul\":11331:11332   */\n      dup3\n        /* \"#utility.yul\":11327:11336   */\n      div\n        /* \"#utility.yul\":11322:11336   */\n      swap1\n      pop\n        /* \"#utility.yul\":11157:11342   */\n      swap3\n      swap2\n      pop\n      pop\n      jump\t// out\n        /* \"#utility.yul\":11348:11489   */\n    tag_82:\n        /* \"#utility.yul\":11397:11401   */\n      0x00\n        /* \"#utility.yul\":11420:11423   */\n      dup2\n        /* \"#utility.yul\":11412:11423   */\n      swap1\n      pop\n        /* \"#utility.yul\":11443:11446   */\n      dup2\n        /* \"#utility.yul\":11440:11441   */\n      0x00\n        /* \"#utility.yul\":11433:11447   */\n      mstore\n        /* \"#utility.yul\":11477:11481   */\n      0x20\n        /* \"#utility.yul\":11474:11475   */\n      0x00\n        /* \"#utility.yul\":11464:11482   */\n      keccak256\n        /* \"#utility.yul\":11456:11482   */\n      swap1\n      pop\n        /* \"#utility.yul\":11348:11489   */\n      swap2\n      swap1\n      pop\n      jump\t// out\n        /* \"#utility.yul\":11495:11588   */\n    tag_83:\n        /* \"#utility.yul\":11532:11538   */\n      0x00\n        /* \"#utility.yul\":11579:11581   */\n      0x20\n        /* \"#utility.yul\":11574:11576   */\n      0x1f\n        /* \"#utility.yul\":11567:11572   */\n      dup4\n        /* \"#utility.yul\":11563:11577   */\n      add\n        /* \"#utility.yul\":11559:11582   */\n      div\n        /* \"#utility.yul\":11549:11582   */\n      swap1\n      pop\n        /* \"#utility.yul\":11495:11588   */\n      swap2\n      swap1\n      pop\n      jump\t// out\n        /* \"#utility.yul\":11594:11701   */\n    tag_84:\n        /* \"#utility.yul\":11638:11646   */\n      0x00\n        /* \"#utility.yul\":11688:11693   */\n      dup3\n        /* \"#utility.yul\":11682:11686   */\n      dup3\n        /* \"#utility.yul\":11678:11694   */\n      shl\n        /* \"#utility.yul\":11657:11694   */\n      swap1\n      pop\n        /* \"#utility.yul\":11594:11701   */\n      swap3\n      swap2\n      pop\n      pop\n      jump\t// out\n        /* \"#utility.yul\":11707:12100   */\n    tag_85:\n        /* \"#utility.yul\":11776:11782   */\n      0x00\n        /* \"#utility.yul\":11826:11827   */\n      0x08\n        /* \"#utility.yul\":11814:11824   */\n      dup4\n        /* \"#utility.yul\":11810:11828   */\n      mul\n        /* \"#utility.yul\":11849:11946   */\n      tag_215\n        /* \"#utility.yul\":11879:11945   */\n      0xffffffffffffffffffffffffffffffffffffffffffffffffffffffffffffffff\n        /* \"#utility.yul\":11868:11877   */\n      dup3\n        /* \"#utility.yul\":11849:11946   */\n      tag_84\n      jump\t// in\n    tag_215:\n        /* \"#utility.yul\":11967:12006   */\n      tag_216\n        /* \"#utility.yul\":11997:12005   */\n      dup7\n        /* \"#utility.yul\":11986:11995   */\n      dup4\n        /* \"#utility.yul\":11967:12006   */\n      tag_84\n      jump\t// in\n    tag_216:\n        /* \"#utility.yul\":11955:12006   */\n      swap6\n      pop\n        /* \"#utility.yul\":12039:12043   */\n      dup1\n        /* \"#utility.yul\":12035:12044   */\n      not\n        /* \"#utility.yul\":12028:12033   */\n      dup5\n        /* \"#utility.yul\":12024:12045   */\n      and\n        /* \"#utility.yul\":12015:12045   */\n      swap4\n      pop\n        /* \"#utility.yul\":12088:12092   */\n      dup1\n        /* \"#utility.yul\":12078:12086   */\n      dup7\n        /* \"#utility.yul\":12074:12093   */\n      and\n        /* \"#utility.yul\":12067:12072   */\n      dup5\n        /* \"#utility.yul\":12064:12094   */\n      or\n        /* \"#utility.yul\":12054:12094   */\n      swap3\n      pop\n        /* \"#utility.yul\":11783:12100   */\n      pop\n      pop\n        /* \"#utility.yul\":11707:12100   */\n      swap4\n      swap3\n      pop\n      pop\n      pop\n      jump\t// out\n        /* \"#utility.yul\":12106:12166   */\n    tag_86:\n        /* \"#utility.yul\":12134:12137   */\n      0x00\n        /* \"#utility.yul\":12155:12160   */\n      dup2\n        /* \"#utility.yul\":12148:12160   */\n      swap1\n      pop\n        /* \"#utility.yul\":12106:12166   */\n      swap2\n      swap1\n      pop\n      jump\t// out\n        /* \"#utility.yul\":12172:12314   */\n    tag_87:\n        /* \"#utility.yul\":12222:12231   */\n      0x00\n        /* \"#utility.yul\":12255:12308   */\n      tag_219\n        /* \"#utility.yul\":12273:12307   */\n      tag_220\n        /* \"#utility.yul\":12282:12306   */\n      tag_221\n        /* \"#utility.yul\":12300:12305   */\n      dup5\n        /* \"#utility.yul\":12282:12306   */\n      tag_55\n      jump\t// in\n    tag_221:\n        /* \"#utility.yul\":12273:12307   */\n      tag_86\n      jump\t// in\n    tag_220:\n        /* \"#utility.yul\":12255:12308   */\n      tag_55\n      jump\t// in\n    tag_219:\n        /* \"#utility.yul\":12242:12308   */\n      swap1\n      pop\n        /* \"#utility.yul\":12172:12314   */\n      swap2\n      swap1\n      pop\n      jump\t// out\n        /* \"#utility.yul\":12320:12395   */\n    tag_88:\n        /* \"#utility.yul\":12363:12366   */\n      0x00\n        /* \"#utility.yul\":12384:12389   */\n      dup2\n        /* \"#utility.yul\":12377:12389   */\n      swap1\n      pop\n        /* \"#utility.yul\":12320:12395   */\n      swap2\n      swap1\n      pop\n      jump\t// out\n        /* \"#utility.yul\":12401:12670   */\n    tag_89:\n        /* \"#utility.yul\":12511:12550   */\n      tag_224\n        /* \"#utility.yul\":12542:12549   */\n      dup4\n        /* \"#utility.yul\":12511:12550   */\n      tag_87\n      jump\t// in\n    tag_224:\n        /* \"#utility.yul\":12572:12663   */\n      tag_225\n        /* \"#utility.yul\":12621:12662   */\n      tag_226\n        /* \"#utility.yul\":12645:12661   */\n      dup3\n        /* \"#utility.yul\":12621:12662   */\n      tag_88\n      jump\t// in\n    tag_226:\n        /* \"#utility.yul\":12613:12619   */\n      dup5\n        /* \"#utility.yul\":12606:12610   */\n      dup5\n        /* \"#utility.yul\":12600:12611   */\n      sload\n        /* \"#utility.yul\":12572:12663   */\n      tag_85\n      jump\t// in\n    tag_225:\n        /* \"#utility.yul\":12566:12570   */\n      dup3\n        /* \"#utility.yul\":12559:12664   */\n      sstore\n        /* \"#utility.yul\":12477:12670   */\n      pop\n        /* \"#utility.yul\":12401:12670   */\n      pop\n      pop\n      pop\n      jump\t// out\n        /* \"#utility.yul\":12676:12749   */\n    tag_90:\n        /* \"#utility.yul\":12721:12724   */\n      0x00\n        /* \"#utility.yul\":12742:12743   */\n      0x00\n        /* \"#utility.yul\":12735:12743   */\n      swap1\n      pop\n        /* \"#utility.yul\":12676:12749   */\n      swap1\n      jump\t// out\n        /* \"#utility.yul\":12755:12944   */\n    tag_91:\n        /* \"#utility.yul\":12832:12864   */\n      tag_229\n      tag_90\n      jump\t// in\n    tag_229:\n        /* \"#utility.yul\":12873:12938   */\n      tag_230\n        /* \"#utility.yul\":12931:12937   */\n      dup2\n        /* \"#utility.yul\":12923:12929   */\n      dup5\n        /* \"#utility.yul\":12917:12921   */\n      dup5\n        /* \"#utility.yul\":12873:12938   */\n      tag_89\n      jump\t// in\n    tag_230:\n        /* \"#utility.yul\":12808:12944   */\n      pop\n        /* \"#utility.yul\":12755:12944   */\n      pop\n      pop\n      jump\t// out\n        /* \"#utility.yul\":12950:13136   */\n    tag_92:\n        /* \"#utility.yul\":13010:13130   */\n    tag_232:\n        /* \"#utility.yul\":13027:13030   */\n      dup2\n        /* \"#utility.yul\":13020:13025   */\n      dup2\n        /* \"#utility.yul\":13017:13031   */\n      lt\n        /* \"#utility.yul\":13010:13130   */\n      iszero\n      tag_234\n      jumpi\n        /* \"#utility.yul\":13081:13120   */\n      tag_235\n        /* \"#utility.yul\":13118:13119   */\n      0x00\n        /* \"#utility.yul\":13111:13116   */\n      dup3\n        /* \"#utility.yul\":13081:13120   */\n      tag_91\n      jump\t// in\n    tag_235:\n        /* \"#utility.yul\":13054:13055   */\n      0x01\n        /* \"#utility.yul\":13047:13052   */\n      dup2\n        /* \"#utility.yul\":13043:13056   */\n      add\n        /* \"#utility.yul\":13034:13056   */\n      swap1\n      pop\n        /* \"#utility.yul\":13010:13130   */\n      jump(tag_232)\n    tag_234:\n        /* \"#utility.yul\":12950:13136   */\n      pop\n      pop\n      jump\t// out\n        /* \"#utility.yul\":13142:13685   */\n    tag_93:\n        /* \"#utility.yul\":13243:13245   */\n      0x1f\n        /* \"#utility.yul\":13238:13241   */\n      dup3\n        /* \"#utility.yul\":13235:13246   */\n      gt\n        /* \"#utility.yul\":13232:13678   */\n      iszero\n      tag_237\n      jumpi\n        /* \"#utility.yul\":13277:13315   */\n      tag_238\n        /* \"#utility.yul\":13309:13314   */\n      dup2\n        /* \"#utility.yul\":13277:13315   */\n      tag_82\n      jump\t// in\n    tag_238:\n        /* \"#utility.yul\":13361:13390   */\n      tag_239\n        /* \"#utility.yul\":13379:13389   */\n      dup5\n        /* \"#utility.yul\":13361:13390   */\n      tag_83\n      jump\t// in\n    tag_239:\n        /* \"#utility.yul\":13351:13359   */\n      dup2\n        /* \"#utility.yul\":13347:13391   */\n      add\n        /* \"#utility.yul\":13544:13546   */\n      0x20\n        /* \"#utility.yul\":13532:13542   */\n      dup6\n        /* \"#utility.yul\":13529:13547   */\n      lt\n        /* \"#utility.yul\":13526:13575   */\n      iszero\n      tag_240\n      jumpi\n        /* \"#utility.yul\":13565:13573   */\n      dup2\n        /* \"#utility.yul\":13550:13573   */\n      swap1\n      pop\n        /* \"#utility.yul\":13526:13575   */\n    tag_240:\n        /* \"#utility.yul\":13588:13668   */\n      tag_241\n        /* \"#utility.yul\":13644:13666   */\n      tag_242\n        /* \"#utility.yul\":13662:13665   */\n      dup6\n        /* \"#utility.yul\":13644:13666   */\n      tag_83\n      jump\t// in\n    tag_242:\n        /* \"#utility.yul\":13634:13642   */\n      dup4\n        /* \"#utility.yul\":13630:13667   */\n      add\n        /* \"#utility.yul\":13617:13628   */\n      dup3\n        /* \"#utility.yul\":13588:13668   */\n      tag_92\n      jump\t// in\n    tag_241:\n        /* \"#utility.yul\":13247:13678   */\n      pop\n      pop\n        /* \"#utility.yul\":13232:13678   */\n    tag_237:\n        /* \"#utility.yul\":13142:13685   */\n      pop\n      pop\n      pop\n      jump\t// out\n        /* \"#utility.yul\":13691:13808   */\n    tag_94:\n        /* \"#utility.yul\":13745:13753   */\n      0x00\n        /* \"#utility.yul\":13795:13800   */\n      dup3\n        /* \"#utility.yul\":13789:13793   */\n      dup3\n        /* \"#utility.yul\":13785:13801   */\n      shr\n        /* \"#utility.yul\":13764:13801   */\n      swap1\n      pop\n        /* \"#utility.yul\":13691:13808   */\n      swap3\n      swap2\n      pop\n      pop\n      jump\t// out\n        /* \"#utility.yul\":13814:13983   */\n    tag_95:\n        /* \"#utility.yul\":13858:13864   */\n      0x00\n        /* \"#utility.yul\":13891:13942   */\n      tag_245\n        /* \"#utility.yul\":13939:13940   */\n      0x00\n        /* \"#utility.yul\":13935:13941   */\n      not\n        /* \"#utility.yul\":13927:13932   */\n      dup5\n        /* \"#utility.yul\":13924:13925   */\n      0x08\n        /* \"#utility.yul\":13920:13933   */\n      mul\n        /* \"#utility.yul\":13891:13942   */\n      tag_94\n      jump\t// in\n    tag_245:\n        /* \"#utility.yul\":13887:13943   */\n      not\n        /* \"#utility.yul\":13972:13976   */\n      dup1\n        /* \"#utility.yul\":13966:13970   */\n      dup4\n        /* \"#utility.yul\":13962:13977   */\n      and\n        /* \"#utility.yul\":13952:13977   */\n      swap2\n      pop\n        /* \"#utility.yul\":13865:13983   */\n      pop\n        /* \"#utility.yul\":13814:13983   */\n      swap3\n      swap2\n      pop\n      pop\n      jump\t// out\n        /* \"#utility.yul\":13988:14283   */\n    tag_96:\n        /* \"#utility.yul\":14064:14068   */\n      0x00\n        /* \"#utility.yul\":14210:14239   */\n      tag_247\n        /* \"#utility.yul\":14235:14238   */\n      dup4\n        /* \"#utility.yul\":14229:14233   */\n      dup4\n        /* \"#utility.yul\":14210:14239   */\n      tag_95\n      jump\t// in\n    tag_247:\n        /* \"#utility.yul\":14202:14239   */\n      swap2\n      pop\n        /* \"#utility.yul\":14272:14275   */\n      dup3\n        /* \"#utility.yul\":14269:14270   */\n      0x02\n        /* \"#utility.yul\":14265:14276   */\n      mul\n        /* \"#utility.yul\":14259:14263   */\n      dup3\n        /* \"#utility.yul\":14256:14277   */\n      or\n        /* \"#utility.yul\":14248:14277   */\n      swap1\n      pop\n        /* \"#utility.yul\":13988:14283   */\n      swap3\n      swap2\n      pop\n      pop\n      jump\t// out\n        /* \"#utility.yul\":14288:15683   */\n    tag_43:\n        /* \"#utility.yul\":14405:14442   */\n      tag_249\n        /* \"#utility.yul\":14438:14441   */\n      dup3\n        /* \"#utility.yul\":14405:14442   */\n      tag_58\n      jump\t// in\n    tag_249:\n        /* \"#utility.yul\":14507:14525   */\n      0xffffffffffffffff\n        /* \"#utility.yul\":14499:14505   */\n      dup2\n        /* \"#utility.yul\":14496:14526   */\n      gt\n        /* \"#utility.yul\":14493:14549   */\n      iszero\n      tag_250\n      jumpi\n        /* \"#utility.yul\":14529:14547   */\n      tag_251\n      tag_66\n      jump\t// in\n    tag_251:\n        /* \"#utility.yul\":14493:14549   */\n    tag_250:\n        /* \"#utility.yul\":14573:14611   */\n      tag_252\n        /* \"#utility.yul\":14605:14609   */\n      dup3\n        /* \"#utility.yul\":14599:14610   */\n      sload\n        /* \"#utility.yul\":14573:14611   */\n      tag_22\n      jump\t// in\n    tag_252:\n        /* \"#utility.yul\":14658:14725   */\n      tag_253\n        /* \"#utility.yul\":14718:14724   */\n      dup3\n        /* \"#utility.yul\":14710:14716   */\n      dup3\n        /* \"#utility.yul\":14704:14708   */\n      dup6\n        /* \"#utility.yul\":14658:14725   */\n      tag_93\n      jump\t// in\n    tag_253:\n        /* \"#utility.yul\":14752:14753   */\n      0x00\n        /* \"#utility.yul\":14776:14780   */\n      0x20\n        /* \"#utility.yul\":14763:14780   */\n      swap1\n      pop\n        /* \"#utility.yul\":14808:14810   */\n      0x1f\n        /* \"#utility.yul\":14800:14806   */\n      dup4\n        /* \"#utility.yul\":14797:14811   */\n      gt\n        /* \"#utility.yul\":14825:14826   */\n      0x01\n        /* \"#utility.yul\":14820:15438   */\n      dup2\n      eq\n      tag_255\n      jumpi\n        /* \"#utility.yul\":15482:15483   */\n      0x00\n        /* \"#utility.yul\":15499:15505   */\n      dup5\n        /* \"#utility.yul\":15496:15573   */\n      iszero\n      tag_256\n      jumpi\n        /* \"#utility.yul\":15548:15557   */\n      dup3\n        /* \"#utility.yul\":15543:15546   */\n      dup8\n        /* \"#utility.yul\":15539:15558   */\n      add\n        /* \"#utility.yul\":15533:15559   */\n      mload\n        /* \"#utility.yul\":15524:15559   */\n      swap1\n      pop\n        /* \"#utility.yul\":15496:15573   */\n    tag_256:\n        /* \"#utility.yul\":15599:15666   */\n      tag_257\n        /* \"#utility.yul\":15659:15665   */\n      dup6\n        /* \"#utility.yul\":15652:15657   */\n      dup3\n        /* \"#utility.yul\":15599:15666   */\n      tag_96\n      jump\t// in\n    tag_257:\n        /* \"#utility.yul\":15593:15597   */\n      dup7\n        /* \"#utility.yul\":15586:15667   */\n      sstore\n        /* \"#utility.yul\":15455:15677   */\n      pop\n        /* \"#utility.yul\":14790:15677   */\n      jump(tag_254)\n        /* \"#utility.yul\":14820:15438   */\n    tag_255:\n        /* \"#utility.yul\":14872:14876   */\n      0x1f\n        /* \"#utility.yul\":14868:14877   */\n      not\n        /* \"#utility.yul\":14860:14866   */\n      dup5\n        /* \"#utility.yul\":14856:14878   */\n      and\n        /* \"#utility.yul\":14906:14943   */\n      tag_258\n        /* \"#utility.yul\":14938:14942   */\n      dup7\n        /* \"#utility.yul\":14906:14943   */\n      tag_82\n      jump\t// in\n    tag_258:\n        /* \"#utility.yul\":14965:14966   */\n      0x00\n        /* \"#utility.yul\":14979:15187   */\n    tag_259:\n        /* \"#utility.yul\":14993:15000   */\n      dup3\n        /* \"#utility.yul\":14990:14991   */\n      dup2\n        /* \"#utility.yul\":14987:15001   */\n      lt\n        /* \"#utility.yul\":14979:15187   */\n      iszero\n      tag_261\n      jumpi\n        /* \"#utility.yul\":15072:15081   */\n      dup5\n        /* \"#utility.yul\":15067:15070   */\n      dup10\n        /* \"#utility.yul\":15063:15082   */\n      add\n        /* \"#utility.yul\":15057:15083   */\n      mload\n        /* \"#utility.yul\":15049:15055   */\n      dup3\n        /* \"#utility.yul\":15042:15084   */\n      sstore\n        /* \"#utility.yul\":15123:15124   */\n      0x01\n        /* \"#utility.yul\":15115:15121   */\n      dup3\n        /* \"#utility.yul\":15111:15125   */\n      add\n        /* \"#utility.yul\":15101:15125   */\n      swap2\n      pop\n        /* \"#utility.yul\":15170:15172   */\n      0x20\n        /* \"#utility.yul\":15159:15168   */\n      dup6\n        /* \"#utility.yul\":15155:15173   */\n      add\n        /* \"#utility.yul\":15142:15173   */\n      swap5\n      pop\n        /* \"#utility.yul\":15016:15020   */\n      0x20\n        /* \"#utility.yul\":15013:15014   */\n      dup2\n        /* \"#utility.yul\":15009:15021   */\n      add\n        /* \"#utility.yul\":15004:15021   */\n      swap1\n      pop\n        /* \"#utility.yul\":14979:15187   */\n      jump(tag_259)\n    tag_261:\n        /* \"#utility.yul\":15215:15221   */\n      dup7\n        /* \"#utility.yul\":15206:15213   */\n      dup4\n        /* \"#utility.yul\":15203:15222   */\n      lt\n        /* \"#utility.yul\":15200:15379   */\n      iszero\n      tag_262\n      jumpi\n        /* \"#utility.yul\":15273:15282   */\n      dup5\n        /* \"#utility.yul\":15268:15271   */\n      dup10\n        /* \"#utility.yul\":15264:15283   */\n      add\n        /* \"#utility.yul\":15258:15284   */\n      mload\n        /* \"#utility.yul\":15316:15364   */\n      tag_263\n        /* \"#utility.yul\":15358:15362   */\n      0x1f\n        /* \"#utility.yul\":15350:15356   */\n      dup10\n        /* \"#utility.yul\":15346:15363   */\n      and\n        /* \"#utility.yul\":15335:15344   */\n      dup3\n        /* \"#utility.yul\":15316:15364   */\n      tag_95\n      jump\t// in\n    tag_263:\n        /* \"#utility.yul\":15308:15314   */\n      dup4\n        /* \"#utility.yul\":15301:15365   */\n      sstore\n        /* \"#utility.yul\":15223:15379   */\n      pop\n        /* \"#utility.yul\":15200:15379   */\n    tag_262:\n        /* \"#utility.yul\":15425:15426   */\n      0x01\n        /* \"#utility.yul\":15421:15422   */\n      0x02\n        /* \"#utility.yul\":15413:15419   */\n      dup9\n        /* \"#utility.yul\":15409:15423   */\n      mul\n        /* \"#utility.yul\":15405:15427   */\n      add\n        /* \"#utility.yul\":15399:15403   */\n      dup9\n        /* \"#utility.yul\":15392:15428   */\n      sstore\n        /* \"#utility.yul\":14827:15438   */\n      pop\n      pop\n      pop\n        /* \"#utility.yul\":14790:15677   */\n    tag_254:\n      pop\n        /* \"#utility.yul\":14380:15683   */\n      pop\n      pop\n      pop\n        /* \"#utility.yul\":14288:15683   */\n      pop\n      pop\n      jump\t// out\n\n    auxdata: 0xa26469706673582212204426b0ad26c067bce9c1e9bd50788f22f809ba1dbefc28dfa653d50a63140ad364736f6c634300081b0033\n}\n",
				"bytecode": {
					"linkReferences": {},
					"object": "6080604052348015600e575f5ffd5b50610c648061001c5f395ff3fe608060405234801561000f575f5ffd5b506004361061003f575f3560e01c806306ead22e146100435780632c061b7d14610078578063642f916314610094575b5f5ffd5b61005d6004803603810190610058919061041e565b6100c4565b60405161006f969594939291906104c8565b60405180910390f35b610092600480360381019061008d919061065a565b610181565b005b6100ae60048036038101906100a9919061041e565b6102be565b6040516100bb91906107dc565b60405180910390f35b5f602052805f5260405f205f91509050805f0180546100e290610829565b80601f016020809104026020016040519081016040528092919081815260200182805461010e90610829565b80156101595780601f1061013057610100808354040283529160200191610159565b820191905f5260205f20905b81548152906001019060200180831161013c57829003601f168201915b5050505050908060010154908060020154908060030154908060040154908060050154905086565b60648411158015610193575060648311155b80156101a0575060648211155b80156101ad575060648111155b6101ec576040517f08c379a00000000000000000000000000000000000000000000000000000000081526004016101e3906108a3565b60405180910390fd5b5f818385876101fb91906108ee565b61020591906108ee565b61020f91906108ee565b90505f6101906064836102229190610921565b61022c919061098f565b90506040518060c00160405280888152602001878152602001868152602001858152602001848152602001828152505f5f8a81526020019081526020015f205f820151815f01908161027e9190610b5f565b506020820151816001015560408201518160020155606082015181600301556080820151816004015560a082015181600501559050505050505050505050565b6102c66103a9565b5f5f8381526020019081526020015f206040518060c00160405290815f820180546102f090610829565b80601f016020809104026020016040519081016040528092919081815260200182805461031c90610829565b80156103675780601f1061033e57610100808354040283529160200191610367565b820191905f5260205f20905b81548152906001019060200180831161034a57829003601f168201915b50505050508152602001600182015481526020016002820154815260200160038201548152602001600482015481526020016005820154815250509050919050565b6040518060c00160405280606081526020015f81526020015f81526020015f81526020015f81526020015f81525090565b5f604051905090565b5f5ffd5b5f5ffd5b5f819050919050565b6103fd816103eb565b8114610407575f5ffd5b50565b5f81359050610418816103f4565b92915050565b5f60208284031215610433576104326103e3565b5b5f6104408482850161040a565b91505092915050565b5f81519050919050565b5f82825260208201905092915050565b8281835e5f83830152505050565b5f601f19601f8301169050919050565b5f61048b82610449565b6104958185610453565b93506104a5818560208601610463565b6104ae81610471565b840191505092915050565b6104c2816103eb565b82525050565b5f60c0820190508181035f8301526104e08189610481565b90506104ef60208301886104b9565b6104fc60408301876104b9565b61050960608301866104b9565b61051660808301856104b9565b61052360a08301846104b9565b979650505050505050565b5f5ffd5b5f5ffd5b7f4e487b71000000000000000000000000000000000000000000000000000000005f52604160045260245ffd5b61056c82610471565b810181811067ffffffffffffffff8211171561058b5761058a610536565b5b80604052505050565b5f61059d6103da565b90506105a98282610563565b919050565b5f67ffffffffffffffff8211156105c8576105c7610536565b5b6105d182610471565b9050602081019050919050565b828183375f83830152505050565b5f6105fe6105f9846105ae565b610594565b90508281526020810184848401111561061a57610619610532565b5b6106258482856105de565b509392505050565b5f82601f8301126106415761064061052e565b5b81356106518482602086016105ec565b91505092915050565b5f5f5f5f5f5f60c08789031215610674576106736103e3565b5b5f61068189828a0161040a565b965050602087013567ffffffffffffffff8111156106a2576106a16103e7565b5b6106ae89828a0161062d565b95505060406106bf89828a0161040a565b94505060606106d089828a0161040a565b93505060806106e189828a0161040a565b92505060a06106f289828a0161040a565b9150509295509295509295565b5f82825260208201905092915050565b5f61071982610449565b61072381856106ff565b9350610733818560208601610463565b61073c81610471565b840191505092915050565b610750816103eb565b82525050565b5f60c083015f8301518482035f860152610770828261070f565b91505060208301516107856020860182610747565b5060408301516107986040860182610747565b5060608301516107ab6060860182610747565b5060808301516107be6080860182610747565b5060a08301516107d160a0860182610747565b508091505092915050565b5f6020820190508181035f8301526107f48184610756565b905092915050565b7f4e487b71000000000000000000000000000000000000000000000000000000005f52602260045260245ffd5b5f600282049050600182168061084057607f821691505b602082108103610853576108526107fc565b5b50919050565b7f4d61726b73206d757374206265203c3d203130300000000000000000000000005f82015250565b5f61088d601483610453565b915061089882610859565b602082019050919050565b5f6020820190508181035f8301526108ba81610881565b9050919050565b7f4e487b71000000000000000000000000000000000000000000000000000000005f52601160045260245ffd5b5f6108f8826103eb565b9150610903836103eb565b925082820190508082111561091b5761091a6108c1565b5b92915050565b5f61092b826103eb565b9150610936836103eb565b9250828202610944816103eb565b9150828204841483151761095b5761095a6108c1565b5b5092915050565b7f4e487b71000000000000000000000000000000000000000000000000000000005f52601260045260245ffd5b5f610999826103eb565b91506109a4836103eb565b9250826109b4576109b3610962565b5b828204905092915050565b5f819050815f5260205f209050919050565b5f6020601f8301049050919050565b5f82821b905092915050565b5f60088302610a1b7fffffffffffffffffffffffffffffffffffffffffffffffffffffffffffffffff826109e0565b610a2586836109e0565b95508019841693508086168417925050509392505050565b5f819050919050565b5f610a60610a5b610a56846103eb565b610a3d565b6103eb565b9050919050565b5f819050919050565b610a7983610a46565b610a8d610a8582610a67565b8484546109ec565b825550505050565b5f5f905090565b610aa4610a95565b610aaf818484610a70565b505050565b5b81811015610ad257610ac75f82610a9c565b600181019050610ab5565b5050565b601f821115610b1757610ae8816109bf565b610af1846109d1565b81016020851015610b00578190505b610b14610b0c856109d1565b830182610ab4565b50505b505050565b5f82821c905092915050565b5f610b375f1984600802610b1c565b1980831691505092915050565b5f610b4f8383610b28565b9150826002028217905092915050565b610b6882610449565b67ffffffffffffffff811115610b8157610b80610536565b5b610b8b8254610829565b610b96828285610ad6565b5f60209050601f831160018114610bc7575f8415610bb5578287015190505b610bbf8582610b44565b865550610c26565b601f198416610bd5866109bf565b5f5b82811015610bfc57848901518255600182019150602085019450602081019050610bd7565b86831015610c195784890151610c15601f891682610b28565b8355505b6001600288020188555050505b50505050505056fea26469706673582212204426b0ad26c067bce9c1e9bd50788f22f809ba1dbefc28dfa653d50a63140ad364736f6c634300081b0033",
					"opcodes": "PUSH1 0x80 PUSH1 0x40 MSTORE CALLVALUE DUP1 ISZERO PUSH1 0xE JUMPI PUSH0 PUSH0 REVERT JUMPDEST POP PUSH2 0xC64 DUP1 PUSH2 0x1C PUSH0 CODECOPY PUSH0 RETURN INVALID PUSH1 0x80 PUSH1 0x40 MSTORE CALLVALUE DUP1 ISZERO PUSH2 0xF JUMPI PUSH0 PUSH0 REVERT JUMPDEST POP PUSH1 0x4 CALLDATASIZE LT PUSH2 0x3F JUMPI PUSH0 CALLDATALOAD PUSH1 0xE0 SHR DUP1 PUSH4 0x6EAD22E EQ PUSH2 0x43 JUMPI DUP1 PUSH4 0x2C061B7D EQ PUSH2 0x78 JUMPI DUP1 PUSH4 0x642F9163 EQ PUSH2 0x94 JUMPI JUMPDEST PUSH0 PUSH0 REVERT JUMPDEST PUSH2 0x5D PUSH1 0x4 DUP1 CALLDATASIZE SUB DUP2 ADD SWAP1 PUSH2 0x58 SWAP2 SWAP1 PUSH2 0x41E JUMP JUMPDEST PUSH2 0xC4 JUMP JUMPDEST PUSH1 0x40 MLOAD PUSH2 0x6F SWAP7 SWAP6 SWAP5 SWAP4 SWAP3 SWAP2 SWAP1 PUSH2 0x4C8 JUMP JUMPDEST PUSH1 0x40 MLOAD DUP1 SWAP2 SUB SWAP1 RETURN JUMPDEST PUSH2 0x92 PUSH1 0x4 DUP1 CALLDATASIZE SUB DUP2 ADD SWAP1 PUSH2 0x8D SWAP2 SWAP1 PUSH2 0x65A JUMP JUMPDEST PUSH2 0x181 JUMP JUMPDEST STOP JUMPDEST PUSH2 0xAE PUSH1 0x4 DUP1 CALLDATASIZE SUB DUP2 ADD SWAP1 PUSH2 0xA9 SWAP2 SWAP1 PUSH2 0x41E JUMP JUMPDEST PUSH2 0x2BE JUMP JUMPDEST PUSH1 0x40 MLOAD PUSH2 0xBB SWAP2 SWAP1 PUSH2 0x7DC JUMP JUMPDEST PUSH1 0x40 MLOAD DUP1 SWAP2 SUB SWAP1 RETURN JUMPDEST PUSH0 PUSH1 0x20 MSTORE DUP1 PUSH0 MSTORE PUSH1 0x40 PUSH0 KECCAK256 PUSH0 SWAP2 POP SWAP1 POP DUP1 PUSH0 ADD DUP1 SLOAD PUSH2 0xE2 SWAP1 PUSH2 0x829 JUMP JUMPDEST DUP1 PUSH1 0x1F ADD PUSH1 0x20 DUP1 SWAP2 DIV MUL PUSH1 0x20 ADD PUSH1 0x40 MLOAD SWAP1 DUP2 ADD PUSH1 0x40 MSTORE DUP1 SWAP3 SWAP2 SWAP1 DUP2 DUP2 MSTORE PUSH1 0x20 ADD DUP3 DUP1 SLOAD PUSH2 0x10E SWAP1 PUSH2 0x829 JUMP JUMPDEST DUP1 ISZERO PUSH2 0x159 JUMPI DUP1 PUSH1 0x1F LT PUSH2 0x130 JUMPI PUSH2 0x100 DUP1 DUP4 SLOAD DIV MUL DUP4 MSTORE SWAP2 PUSH1 0x20 ADD SWAP2 PUSH2 0x159 JUMP JUMPDEST DUP3 ADD SWAP2 SWAP1 PUSH0 MSTORE PUSH1 0x20 PUSH0 KECCAK256 SWAP1 JUMPDEST DUP2 SLOAD DUP2 MSTORE SWAP1 PUSH1 0x1 ADD SWAP1 PUSH1 0x20 ADD DUP1 DUP4 GT PUSH2 0x13C JUMPI DUP3 SWAP1 SUB PUSH1 0x1F AND DUP3 ADD SWAP2 JUMPDEST POP POP POP POP POP SWAP1 DUP1 PUSH1 0x1 ADD SLOAD SWAP1 DUP1 PUSH1 0x2 ADD SLOAD SWAP1 DUP1 PUSH1 0x3 ADD SLOAD SWAP1 DUP1 PUSH1 0x4 ADD SLOAD SWAP1 DUP1 PUSH1 0x5 ADD SLOAD SWAP1 POP DUP7 JUMP JUMPDEST PUSH1 0x64 DUP5 GT ISZERO DUP1 ISZERO PUSH2 0x193 JUMPI POP PUSH1 0x64 DUP4 GT ISZERO JUMPDEST DUP1 ISZERO PUSH2 0x1A0 JUMPI POP PUSH1 0x64 DUP3 GT ISZERO JUMPDEST DUP1 ISZERO PUSH2 0x1AD JUMPI POP PUSH1 0x64 DUP2 GT ISZERO JUMPDEST PUSH2 0x1EC JUMPI PUSH1 0x40 MLOAD PUSH32 0x8C379A000000000000000000000000000000000000000000000000000000000 DUP2 MSTORE PUSH1 0x4 ADD PUSH2 0x1E3 SWAP1 PUSH2 0x8A3 JUMP JUMPDEST PUSH1 0x40 MLOAD DUP1 SWAP2 SUB SWAP1 REVERT JUMPDEST PUSH0 DUP2 DUP4 DUP6 DUP8 PUSH2 0x1FB SWAP2 SWAP1 PUSH2 0x8EE JUMP JUMPDEST PUSH2 0x205 SWAP2 SWAP1 PUSH2 0x8EE JUMP JUMPDEST PUSH2 0x20F SWAP2 SWAP1 PUSH2 0x8EE JUMP JUMPDEST SWAP1 POP PUSH0 PUSH2 0x190 PUSH1 0x64 DUP4 PUSH2 0x222 SWAP2 SWAP1 PUSH2 0x921 JUMP JUMPDEST PUSH2 0x22C SWAP2 SWAP1 PUSH2 0x98F JUMP JUMPDEST SWAP1 POP PUSH1 0x40 MLOAD DUP1 PUSH1 0xC0 ADD PUSH1 0x40 MSTORE DUP1 DUP9 DUP2 MSTORE PUSH1 0x20 ADD DUP8 DUP2 MSTORE PUSH1 0x20 ADD DUP7 DUP2 MSTORE PUSH1 0x20 ADD DUP6 DUP2 MSTORE PUSH1 0x20 ADD DUP5 DUP2 MSTORE PUSH1 0x20 ADD DUP3 DUP2 MSTORE POP PUSH0 PUSH0 DUP11 DUP2 MSTORE PUSH1 0x20 ADD SWAP1 DUP2 MSTORE PUSH1 0x20 ADD PUSH0 KECCAK256 PUSH0 DUP3 ADD MLOAD DUP2 PUSH0 ADD SWAP1 DUP2 PUSH2 0x27E SWAP2 SWAP1 PUSH2 0xB5F JUMP JUMPDEST POP PUSH1 0x20 DUP3 ADD MLOAD DUP2 PUSH1 0x1 ADD SSTORE PUSH1 0x40 DUP3 ADD MLOAD DUP2 PUSH1 0x2 ADD SSTORE PUSH1 0x60 DUP3 ADD MLOAD DUP2 PUSH1 0x3 ADD SSTORE PUSH1 0x80 DUP3 ADD MLOAD DUP2 PUSH1 0x4 ADD SSTORE PUSH1 0xA0 DUP3 ADD MLOAD DUP2 PUSH1 0x5 ADD SSTORE SWAP1 POP POP POP POP POP POP POP POP POP POP JUMP JUMPDEST PUSH2 0x2C6 PUSH2 0x3A9 JUMP JUMPDEST PUSH0 PUSH0 DUP4 DUP2 MSTORE PUSH1 0x20 ADD SWAP1 DUP2 MSTORE PUSH1 0x20 ADD PUSH0 KECCAK256 PUSH1 0x40 MLOAD DUP1 PUSH1 0xC0 ADD PUSH1 0x40 MSTORE SWAP1 DUP2 PUSH0 DUP3 ADD DUP1 SLOAD PUSH2 0x2F0 SWAP1 PUSH2 0x829 JUMP JUMPDEST DUP1 PUSH1 0x1F ADD PUSH1 0x20 DUP1 SWAP2 DIV MUL PUSH1 0x20 ADD PUSH1 0x40 MLOAD SWAP1 DUP2 ADD PUSH1 0x40 MSTORE DUP1 SWAP3 SWAP2 SWAP1 DUP2 DUP2 MSTORE PUSH1 0x20 ADD DUP3 DUP1 SLOAD PUSH2 0x31C SWAP1 PUSH2 0x829 JUMP JUMPDEST DUP1 ISZERO PUSH2 0x367 JUMPI DUP1 PUSH1 0x1F LT PUSH2 0x33E JUMPI PUSH2 0x100 DUP1 DUP4 SLOAD DIV MUL DUP4 MSTORE SWAP2 PUSH1 0x20 ADD SWAP2 PUSH2 0x367 JUMP JUMPDEST DUP3 ADD SWAP2 SWAP1 PUSH0 MSTORE PUSH1 0x20 PUSH0 KECCAK256 SWAP1 JUMPDEST DUP2 SLOAD DUP2 MSTORE SWAP1 PUSH1 0x1 ADD SWAP1 PUSH1 0x20 ADD DUP1 DUP4 GT PUSH2 0x34A JUMPI DUP3 SWAP1 SUB PUSH1 0x1F AND DUP3 ADD SWAP2 JUMPDEST POP POP POP POP POP DUP2 MSTORE PUSH1 0x20 ADD PUSH1 0x1 DUP3 ADD SLOAD DUP2 MSTORE PUSH1 0x20 ADD PUSH1 0x2 DUP3 ADD SLOAD DUP2 MSTORE PUSH1 0x20 ADD PUSH1 0x3 DUP3 ADD SLOAD DUP2 MSTORE PUSH1 0x20 ADD PUSH1 0x4 DUP3 ADD SLOAD DUP2 MSTORE PUSH1 0x20 ADD PUSH1 0x5 DUP3 ADD SLOAD DUP2 MSTORE POP POP SWAP1 POP SWAP2 SWAP1 POP JUMP JUMPDEST PUSH1 0x40 MLOAD DUP1 PUSH1 0xC0 ADD PUSH1 0x40 MSTORE DUP1 PUSH1 0x60 DUP2 MSTORE PUSH1 0x20 ADD PUSH0 DUP2 MSTORE PUSH1 0x20 ADD PUSH0 DUP2 MSTORE PUSH1 0x20 ADD PUSH0 DUP2 MSTORE PUSH1 0x20 ADD PUSH0 DUP2 MSTORE PUSH1 0x20 ADD PUSH0 DUP2 MSTORE POP SWAP1 JUMP JUMPDEST PUSH0 PUSH1 0x40 MLOAD SWAP1 POP SWAP1 JUMP JUMPDEST PUSH0 PUSH0 REVERT JUMPDEST PUSH0 PUSH0 REVERT JUMPDEST PUSH0 DUP2 SWAP1 POP SWAP2 SWAP1 POP JUMP JUMPDEST PUSH2 0x3FD DUP2 PUSH2 0x3EB JUMP JUMPDEST DUP2 EQ PUSH2 0x407 JUMPI PUSH0 PUSH0 REVERT JUMPDEST POP JUMP JUMPDEST PUSH0 DUP2 CALLDATALOAD SWAP1 POP PUSH2 0x418 DUP2 PUSH2 0x3F4 JUMP JUMPDEST SWAP3 SWAP2 POP POP JUMP JUMPDEST PUSH0 PUSH1 0x20 DUP3 DUP5 SUB SLT ISZERO PUSH2 0x433 JUMPI PUSH2 0x432 PUSH2 0x3E3 JUMP JUMPDEST JUMPDEST PUSH0 PUSH2 0x440 DUP5 DUP3 DUP6 ADD PUSH2 0x40A JUMP JUMPDEST SWAP2 POP POP SWAP3 SWAP2 POP POP JUMP JUMPDEST PUSH0 DUP2 MLOAD SWAP1 POP SWAP2 SWAP1 POP JUMP JUMPDEST PUSH0 DUP3 DUP3 MSTORE PUSH1 0x20 DUP3 ADD SWAP1 POP SWAP3 SWAP2 POP POP JUMP JUMPDEST DUP3 DUP2 DUP4 MCOPY PUSH0 DUP4 DUP4 ADD MSTORE POP POP POP JUMP JUMPDEST PUSH0 PUSH1 0x1F NOT PUSH1 0x1F DUP4 ADD AND SWAP1 POP SWAP2 SWAP1 POP JUMP JUMPDEST PUSH0 PUSH2 0x48B DUP3 PUSH2 0x449 JUMP JUMPDEST PUSH2 0x495 DUP2 DUP6 PUSH2 0x453 JUMP JUMPDEST SWAP4 POP PUSH2 0x4A5 DUP2 DUP6 PUSH1 0x20 DUP7 ADD PUSH2 0x463 JUMP JUMPDEST PUSH2 0x4AE DUP2 PUSH2 0x471 JUMP JUMPDEST DUP5 ADD SWAP2 POP POP SWAP3 SWAP2 POP POP JUMP JUMPDEST PUSH2 0x4C2 DUP2 PUSH2 0x3EB JUMP JUMPDEST DUP3 MSTORE POP POP JUMP JUMPDEST PUSH0 PUSH1 0xC0 DUP3 ADD SWAP1 POP DUP2 DUP2 SUB PUSH0 DUP4 ADD MSTORE PUSH2 0x4E0 DUP2 DUP10 PUSH2 0x481 JUMP JUMPDEST SWAP1 POP PUSH2 0x4EF PUSH1 0x20 DUP4 ADD DUP9 PUSH2 0x4B9 JUMP JUMPDEST PUSH2 0x4FC PUSH1 0x40 DUP4 ADD DUP8 PUSH2 0x4B9 JUMP JUMPDEST PUSH2 0x509 PUSH1 0x60 DUP4 ADD DUP7 PUSH2 0x4B9 JUMP JUMPDEST PUSH2 0x516 PUSH1 0x80 DUP4 ADD DUP6 PUSH2 0x4B9 JUMP JUMPDEST PUSH2 0x523 PUSH1 0xA0 DUP4 ADD DUP5 PUSH2 0x4B9 JUMP JUMPDEST SWAP8 SWAP7 POP POP POP POP POP POP POP JUMP JUMPDEST PUSH0 PUSH0 REVERT JUMPDEST PUSH0 PUSH0 REVERT JUMPDEST PUSH32 0x4E487B7100000000000000000000000000000000000000000000000000000000 PUSH0 MSTORE PUSH1 0x41 PUSH1 0x4 MSTORE PUSH1 0x24 PUSH0 REVERT JUMPDEST PUSH2 0x56C DUP3 PUSH2 0x471 JUMP JUMPDEST DUP2 ADD DUP2 DUP2 LT PUSH8 0xFFFFFFFFFFFFFFFF DUP3 GT OR ISZERO PUSH2 0x58B JUMPI PUSH2 0x58A PUSH2 0x536 JUMP JUMPDEST JUMPDEST DUP1 PUSH1 0x40 MSTORE POP POP POP JUMP JUMPDEST PUSH0 PUSH2 0x59D PUSH2 0x3DA JUMP JUMPDEST SWAP1 POP PUSH2 0x5A9 DUP3 DUP3 PUSH2 0x563 JUMP JUMPDEST SWAP2 SWAP1 POP JUMP JUMPDEST PUSH0 PUSH8 0xFFFFFFFFFFFFFFFF DUP3 GT ISZERO PUSH2 0x5C8 JUMPI PUSH2 0x5C7 PUSH2 0x536 JUMP JUMPDEST JUMPDEST PUSH2 0x5D1 DUP3 PUSH2 0x471 JUMP JUMPDEST SWAP1 POP PUSH1 0x20 DUP2 ADD SWAP1 POP SWAP2 SWAP1 POP JUMP JUMPDEST DUP3 DUP2 DUP4 CALLDATACOPY PUSH0 DUP4 DUP4 ADD MSTORE POP POP POP JUMP JUMPDEST PUSH0 PUSH2 0x5FE PUSH2 0x5F9 DUP5 PUSH2 0x5AE JUMP JUMPDEST PUSH2 0x594 JUMP JUMPDEST SWAP1 POP DUP3 DUP2 MSTORE PUSH1 0x20 DUP2 ADD DUP5 DUP5 DUP5 ADD GT ISZERO PUSH2 0x61A JUMPI PUSH2 0x619 PUSH2 0x532 JUMP JUMPDEST JUMPDEST PUSH2 0x625 DUP5 DUP3 DUP6 PUSH2 0x5DE JUMP JUMPDEST POP SWAP4 SWAP3 POP POP POP JUMP JUMPDEST PUSH0 DUP3 PUSH1 0x1F DUP4 ADD SLT PUSH2 0x641 JUMPI PUSH2 0x640 PUSH2 0x52E JUMP JUMPDEST JUMPDEST DUP2 CALLDATALOAD PUSH2 0x651 DUP5 DUP3 PUSH1 0x20 DUP7 ADD PUSH2 0x5EC JUMP JUMPDEST SWAP2 POP POP SWAP3 SWAP2 POP POP JUMP JUMPDEST PUSH0 PUSH0 PUSH0 PUSH0 PUSH0 PUSH0 PUSH1 0xC0 DUP8 DUP10 SUB SLT ISZERO PUSH2 0x674 JUMPI PUSH2 0x673 PUSH2 0x3E3 JUMP JUMPDEST JUMPDEST PUSH0 PUSH2 0x681 DUP10 DUP3 DUP11 ADD PUSH2 0x40A JUMP JUMPDEST SWAP7 POP POP PUSH1 0x20 DUP8 ADD CALLDATALOAD PUSH8 0xFFFFFFFFFFFFFFFF DUP2 GT ISZERO PUSH2 0x6A2 JUMPI PUSH2 0x6A1 PUSH2 0x3E7 JUMP JUMPDEST JUMPDEST PUSH2 0x6AE DUP10 DUP3 DUP11 ADD PUSH2 0x62D JUMP JUMPDEST SWAP6 POP POP PUSH1 0x40 PUSH2 0x6BF DUP10 DUP3 DUP11 ADD PUSH2 0x40A JUMP JUMPDEST SWAP5 POP POP PUSH1 0x60 PUSH2 0x6D0 DUP10 DUP3 DUP11 ADD PUSH2 0x40A JUMP JUMPDEST SWAP4 POP POP PUSH1 0x80 PUSH2 0x6E1 DUP10 DUP3 DUP11 ADD PUSH2 0x40A JUMP JUMPDEST SWAP3 POP POP PUSH1 0xA0 PUSH2 0x6F2 DUP10 DUP3 DUP11 ADD PUSH2 0x40A JUMP JUMPDEST SWAP2 POP POP SWAP3 SWAP6 POP SWAP3 SWAP6 POP SWAP3 SWAP6 JUMP JUMPDEST PUSH0 DUP3 DUP3 MSTORE PUSH1 0x20 DUP3 ADD SWAP1 POP SWAP3 SWAP2 POP POP JUMP JUMPDEST PUSH0 PUSH2 0x719 DUP3 PUSH2 0x449 JUMP JUMPDEST PUSH2 0x723 DUP2 DUP6 PUSH2 0x6FF JUMP JUMPDEST SWAP4 POP PUSH2 0x733 DUP2 DUP6 PUSH1 0x20 DUP7 ADD PUSH2 0x463 JUMP JUMPDEST PUSH2 0x73C DUP2 PUSH2 0x471 JUMP JUMPDEST DUP5 ADD SWAP2 POP POP SWAP3 SWAP2 POP POP JUMP JUMPDEST PUSH2 0x750 DUP2 PUSH2 0x3EB JUMP JUMPDEST DUP3 MSTORE POP POP JUMP JUMPDEST PUSH0 PUSH1 0xC0 DUP4 ADD PUSH0 DUP4 ADD MLOAD DUP5 DUP3 SUB PUSH0 DUP7 ADD MSTORE PUSH2 0x770 DUP3 DUP3 PUSH2 0x70F JUMP JUMPDEST SWAP2 POP POP PUSH1 0x20 DUP4 ADD MLOAD PUSH2 0x785 PUSH1 0x20 DUP7 ADD DUP3 PUSH2 0x747 JUMP JUMPDEST POP PUSH1 0x40 DUP4 ADD MLOAD PUSH2 0x798 PUSH1 0x40 DUP7 ADD DUP3 PUSH2 0x747 JUMP JUMPDEST POP PUSH1 0x60 DUP4 ADD MLOAD PUSH2 0x7AB PUSH1 0x60 DUP7 ADD DUP3 PUSH2 0x747 JUMP JUMPDEST POP PUSH1 0x80 DUP4 ADD MLOAD PUSH2 0x7BE PUSH1 0x80 DUP7 ADD DUP3 PUSH2 0x747 JUMP JUMPDEST POP PUSH1 0xA0 DUP4 ADD MLOAD PUSH2 0x7D1 PUSH1 0xA0 DUP7 ADD DUP3 PUSH2 0x747 JUMP JUMPDEST POP DUP1 SWAP2 POP POP SWAP3 SWAP2 POP POP JUMP JUMPDEST PUSH0 PUSH1 0x20 DUP3 ADD SWAP1 POP DUP2 DUP2 SUB PUSH0 DUP4 ADD MSTORE PUSH2 0x7F4 DUP2 DUP5 PUSH2 0x756 JUMP JUMPDEST SWAP1 POP SWAP3 SWAP2 POP POP JUMP JUMPDEST PUSH32 0x4E487B7100000000000000000000000000000000000000000000000000000000 PUSH0 MSTORE PUSH1 0x22 PUSH1 0x4 MSTORE PUSH1 0x24 PUSH0 REVERT JUMPDEST PUSH0 PUSH1 0x2 DUP3 DIV SWAP1 POP PUSH1 0x1 DUP3 AND DUP1 PUSH2 0x840 JUMPI PUSH1 0x7F DUP3 AND SWAP2 POP JUMPDEST PUSH1 0x20 DUP3 LT DUP2 SUB PUSH2 0x853 JUMPI PUSH2 0x852 PUSH2 0x7FC JUMP JUMPDEST JUMPDEST POP SWAP2 SWAP1 POP JUMP JUMPDEST PUSH32 0x4D61726B73206D757374206265203C3D20313030000000000000000000000000 PUSH0 DUP3 ADD MSTORE POP JUMP JUMPDEST PUSH0 PUSH2 0x88D PUSH1 0x14 DUP4 PUSH2 0x453 JUMP JUMPDEST SWAP2 POP PUSH2 0x898 DUP3 PUSH2 0x859 JUMP JUMPDEST PUSH1 0x20 DUP3 ADD SWAP1 POP SWAP2 SWAP1 POP JUMP JUMPDEST PUSH0 PUSH1 0x20 DUP3 ADD SWAP1 POP DUP2 DUP2 SUB PUSH0 DUP4 ADD MSTORE PUSH2 0x8BA DUP2 PUSH2 0x881 JUMP JUMPDEST SWAP1 POP SWAP2 SWAP1 POP JUMP JUMPDEST PUSH32 0x4E487B7100000000000000000000000000000000000000000000000000000000 PUSH0 MSTORE PUSH1 0x11 PUSH1 0x4 MSTORE PUSH1 0x24 PUSH0 REVERT JUMPDEST PUSH0 PUSH2 0x8F8 DUP3 PUSH2 0x3EB JUMP JUMPDEST SWAP2 POP PUSH2 0x903 DUP4 PUSH2 0x3EB JUMP JUMPDEST SWAP3 POP DUP3 DUP3 ADD SWAP1 POP DUP1 DUP3 GT ISZERO PUSH2 0x91B JUMPI PUSH2 0x91A PUSH2 0x8C1 JUMP JUMPDEST JUMPDEST SWAP3 SWAP2 POP POP JUMP JUMPDEST PUSH0 PUSH2 0x92B DUP3 PUSH2 0x3EB JUMP JUMPDEST SWAP2 POP PUSH2 0x936 DUP4 PUSH2 0x3EB JUMP JUMPDEST SWAP3 POP DUP3 DUP3 MUL PUSH2 0x944 DUP2 PUSH2 0x3EB JUMP JUMPDEST SWAP2 POP DUP3 DUP3 DIV DUP5 EQ DUP4 ISZERO OR PUSH2 0x95B JUMPI PUSH2 0x95A PUSH2 0x8C1 JUMP JUMPDEST JUMPDEST POP SWAP3 SWAP2 POP POP JUMP JUMPDEST PUSH32 0x4E487B7100000000000000000000000000000000000000000000000000000000 PUSH0 MSTORE PUSH1 0x12 PUSH1 0x4 MSTORE PUSH1 0x24 PUSH0 REVERT JUMPDEST PUSH0 PUSH2 0x999 DUP3 PUSH2 0x3EB JUMP JUMPDEST SWAP2 POP PUSH2 0x9A4 DUP4 PUSH2 0x3EB JUMP JUMPDEST SWAP3 POP DUP3 PUSH2 0x9B4 JUMPI PUSH2 0x9B3 PUSH2 0x962 JUMP JUMPDEST JUMPDEST DUP3 DUP3 DIV SWAP1 POP SWAP3 SWAP2 POP POP JUMP JUMPDEST PUSH0 DUP2 SWAP1 POP DUP2 PUSH0 MSTORE PUSH1 0x20 PUSH0 KECCAK256 SWAP1 POP SWAP2 SWAP1 POP JUMP JUMPDEST PUSH0 PUSH1 0x20 PUSH1 0x1F DUP4 ADD DIV SWAP1 POP SWAP2 SWAP1 POP JUMP JUMPDEST PUSH0 DUP3 DUP3 SHL SWAP1 POP SWAP3 SWAP2 POP POP JUMP JUMPDEST PUSH0 PUSH1 0x8 DUP4 MUL PUSH2 0xA1B PUSH32 0xFFFFFFFFFFFFFFFFFFFFFFFFFFFFFFFFFFFFFFFFFFFFFFFFFFFFFFFFFFFFFFFF DUP3 PUSH2 0x9E0 JUMP JUMPDEST PUSH2 0xA25 DUP7 DUP4 PUSH2 0x9E0 JUMP JUMPDEST SWAP6 POP DUP1 NOT DUP5 AND SWAP4 POP DUP1 DUP7 AND DUP5 OR SWAP3 POP POP POP SWAP4 SWAP3 POP POP POP JUMP JUMPDEST PUSH0 DUP2 SWAP1 POP SWAP2 SWAP1 POP JUMP JUMPDEST PUSH0 PUSH2 0xA60 PUSH2 0xA5B PUSH2 0xA56 DUP5 PUSH2 0x3EB JUMP JUMPDEST PUSH2 0xA3D JUMP JUMPDEST PUSH2 0x3EB JUMP JUMPDEST SWAP1 POP SWAP2 SWAP1 POP JUMP JUMPDEST PUSH0 DUP2 SWAP1 POP SWAP2 SWAP1 POP JUMP JUMPDEST PUSH2 0xA79 DUP4 PUSH2 0xA46 JUMP JUMPDEST PUSH2 0xA8D PUSH2 0xA85 DUP3 PUSH2 0xA67 JUMP JUMPDEST DUP5 DUP5 SLOAD PUSH2 0x9EC JUMP JUMPDEST DUP3 SSTORE POP POP POP POP JUMP JUMPDEST PUSH0 PUSH0 SWAP1 POP SWAP1 JUMP JUMPDEST PUSH2 0xAA4 PUSH2 0xA95 JUMP JUMPDEST PUSH2 0xAAF DUP2 DUP5 DUP5 PUSH2 0xA70 JUMP JUMPDEST POP POP POP JUMP JUMPDEST JUMPDEST DUP2 DUP2 LT ISZERO PUSH2 0xAD2 JUMPI PUSH2 0xAC7 PUSH0 DUP3 PUSH2 0xA9C JUMP JUMPDEST PUSH1 0x1 DUP2 ADD SWAP1 POP PUSH2 0xAB5 JUMP JUMPDEST POP POP JUMP JUMPDEST PUSH1 0x1F DUP3 GT ISZERO PUSH2 0xB17 JUMPI PUSH2 0xAE8 DUP2 PUSH2 0x9BF JUMP JUMPDEST PUSH2 0xAF1 DUP5 PUSH2 0x9D1 JUMP JUMPDEST DUP2 ADD PUSH1 0x20 DUP6 LT ISZERO PUSH2 0xB00 JUMPI DUP2 SWAP1 POP JUMPDEST PUSH2 0xB14 PUSH2 0xB0C DUP6 PUSH2 0x9D1 JUMP JUMPDEST DUP4 ADD DUP3 PUSH2 0xAB4 JUMP JUMPDEST POP POP JUMPDEST POP POP POP JUMP JUMPDEST PUSH0 DUP3 DUP3 SHR SWAP1 POP SWAP3 SWAP2 POP POP JUMP JUMPDEST PUSH0 PUSH2 0xB37 PUSH0 NOT DUP5 PUSH1 0x8 MUL PUSH2 0xB1C JUMP JUMPDEST NOT DUP1 DUP4 AND SWAP2 POP POP SWAP3 SWAP2 POP POP JUMP JUMPDEST PUSH0 PUSH2 0xB4F DUP4 DUP4 PUSH2 0xB28 JUMP JUMPDEST SWAP2 POP DUP3 PUSH1 0x2 MUL DUP3 OR SWAP1 POP SWAP3 SWAP2 POP POP JUMP JUMPDEST PUSH2 0xB68 DUP3 PUSH2 0x449 JUMP JUMPDEST PUSH8 0xFFFFFFFFFFFFFFFF DUP2 GT ISZERO PUSH2 0xB81 JUMPI PUSH2 0xB80 PUSH2 0x536 JUMP JUMPDEST JUMPDEST PUSH2 0xB8B DUP3 SLOAD PUSH2 0x829 JUMP JUMPDEST PUSH2 0xB96 DUP3 DUP3 DUP6 PUSH2 0xAD6 JUMP JUMPDEST PUSH0 PUSH1 0x20 SWAP1 POP PUSH1 0x1F DUP4 GT PUSH1 0x1 DUP2 EQ PUSH2 0xBC7 JUMPI PUSH0 DUP5 ISZERO PUSH2 0xBB5 JUMPI DUP3 DUP8 ADD MLOAD SWAP1 POP JUMPDEST PUSH2 0xBBF DUP6 DUP3 PUSH2 0xB44 JUMP JUMPDEST DUP7 SSTORE POP PUSH2 0xC26 JUMP JUMPDEST PUSH1 0x1F NOT DUP5 AND PUSH2 0xBD5 DUP7 PUSH2 0x9BF JUMP JUMPDEST PUSH0 JUMPDEST DUP3 DUP2 LT ISZERO PUSH2 0xBFC JUMPI DUP5 DUP10 ADD MLOAD DUP3 SSTORE PUSH1 0x1 DUP3 ADD SWAP2 POP PUSH1 0x20 DUP6 ADD SWAP5 POP PUSH1 0x20 DUP2 ADD SWAP1 POP PUSH2 0xBD7 JUMP JUMPDEST DUP7 DUP4 LT ISZERO PUSH2 0xC19 JUMPI DUP5 DUP10 ADD MLOAD PUSH2 0xC15 PUSH1 0x1F DUP10 AND DUP3 PUSH2 0xB28 JUMP JUMPDEST DUP4 SSTORE POP JUMPDEST PUSH1 0x1 PUSH1 0x2 DUP9 MUL ADD DUP9 SSTORE POP POP POP JUMPDEST POP POP POP POP POP POP JUMP INVALID LOG2 PUSH5 0x6970667358 0x22 SLT KECCAK256 PREVRANDAO 0x26 0xB0 0xAD 0x26 0xC0 PUSH8 0xBCE9C1E9BD50788F 0x22 0xF8 MULMOD 0xBA SAR 0xBE 0xFC 0x28 0xDF 0xA6 MSTORE8 0xD5 EXP PUSH4 0x140AD364 PUSH20 0x6F6C634300081B00330000000000000000000000 "
				},
				"gasEstimates": {
					"creation": {
						"codeDepositCost": "634400",
						"executionCost": "668",
						"totalCost": "635068"
					},
					"external": {
						"addStudent(uint256,string,uint256,uint256,uint256,uint256)": "infinite",
						"getStudent(uint256)": "infinite",
						"students(uint256)": "infinite"
					}
				},
				"methodIdentifiers": {
					"addStudent(uint256,string,uint256,uint256,uint256,uint256)": "2c061b7d",
					"getStudent(uint256)": "642f9163",
					"students(uint256)": "06ead22e"
				}
			},
			"storageLayout": {
				"storage": [
					{
						"astId": 19,
						"contract": "new marksheet-upgradable/MarksheetV2.sol:V2Marksheet",
						"label": "students",
						"offset": 0,
						"slot": "0",
						"type": "t_mapping(t_uint256,t_struct(Student)14_storage)"
					}
				],
				"types": {
					"t_mapping(t_uint256,t_struct(Student)14_storage)": {
						"encoding": "mapping",
						"key": "t_uint256",
						"label": "mapping(uint256 => struct V2Marksheet.Student)",
						"numberOfBytes": "32",
						"value": "t_struct(Student)14_storage"
					},
					"t_string_storage": {
						"encoding": "bytes",
						"label": "string",
						"numberOfBytes": "32"
					},
					"t_struct(Student)14_storage": {
						"encoding": "inplace",
						"label": "struct V2Marksheet.Student",
						"members": [
							{
								"astId": 3,
								"contract": "new marksheet-upgradable/MarksheetV2.sol:V2Marksheet",
								"label": "name",
								"offset": 0,
								"slot": "0",
								"type": "t_string_storage"
							},
							{
								"astId": 5,
								"contract": "new marksheet-upgradable/MarksheetV2.sol:V2Marksheet",
								"label": "english",
								"offset": 0,
								"slot": "1",
								"type": "t_uint256"
							},
							{
								"astId": 7,
								"contract": "new marksheet-upgradable/MarksheetV2.sol:V2Marksheet",
								"label": "hindi",
								"offset": 0,
								"slot": "2",
								"type": "t_uint256"
							},
							{
								"astId": 9,
								"contract": "new marksheet-upgradable/MarksheetV2.sol:V2Marksheet",
								"label": "math",
								"offset": 0,
								"slot": "3",
								"type": "t_uint256"
							},
							{
								"astId": 11,
								"contract": "new marksheet-upgradable/MarksheetV2.sol:V2Marksheet",
								"label": "percentage",
								"offset": 0,
								"slot": "4",
								"type": "t_uint256"
							},
							{
								"astId": 13,
								"contract": "new marksheet-upgradable/MarksheetV2.sol:V2Marksheet",
								"label": "science",
								"offset": 0,
								"slot": "5",
								"type": "t_uint256"
							}
						],
						"numberOfBytes": "192"
					},
					"t_uint256": {
						"encoding": "inplace",
						"label": "uint256",
						"numberOfBytes": "32"
					}
				}
			},
			"userdoc": {
				"kind": "user",
				"methods": {},
				"version": 1
			}
		}
	}
}