{
	"hard_marksheet.sol": {
		"MarksheetManagement": {
			"abi": [
				{
					"inputs": [],
					"stateMutability": "nonpayable",
					"type": "constructor"
				},
				{
					"anonymous": false,
					"inputs": [
						{
							"indexed": true,
							"internalType": "address",
							"name": "by",
							"type": "address"
						}
					],
					"name": "ContractPaused",
					"type": "event"
				},
				{
					"anonymous": false,
					"inputs": [
						{
							"indexed": true,
							"internalType": "address",
							"name": "by",
							"type": "address"
						}
					],
					"name": "ContractUnpaused",
					"type": "event"
				},
				{
					"anonymous": false,
					"inputs": [
						{
							"indexed": true,
							"internalType": "address",
							"name": "studentAddress",
							"type": "address"
						},
						{
							"indexed": false,
							"internalType": "uint256[]",
							"name": "marks",
							"type": "uint256[]"
						},
						{
							"indexed": false,
							"internalType": "string",
							"name": "grade",
							"type": "string"
						}
					],
					"name": "MarksAssigned",
					"type": "event"
				},
				{
					"anonymous": false,
					"inputs": [
						{
							"indexed": true,
							"internalType": "address",
							"name": "studentAddress",
							"type": "address"
						},
						{
							"indexed": false,
							"internalType": "uint256[]",
							"name": "oldMarks",
							"type": "uint256[]"
						},
						{
							"indexed": false,
							"internalType": "uint256[]",
							"name": "newMarks",
							"type": "uint256[]"
						}
					],
					"name": "MarksUpdated",
					"type": "event"
				},
				{
					"anonymous": false,
					"inputs": [
						{
							"indexed": true,
							"internalType": "address",
							"name": "studentAddress",
							"type": "address"
						},
						{
							"indexed": false,
							"internalType": "string",
							"name": "name",
							"type": "string"
						},
						{
							"indexed": false,
							"internalType": "uint256",
							"name": "rollNumber",
							"type": "uint256"
						}
					],
					"name": "StudentRegistered",
					"type": "event"
				},
				{
					"anonymous": false,
					"inputs": [
						{
							"indexed": true,
							"internalType": "address",
							"name": "teacher",
							"type": "address"
						}
					],
					"name": "TeacherAdded",
					"type": "event"
				},
				{
					"anonymous": false,
					"inputs": [
						{
							"indexed": true,
							"internalType": "address",
							"name": "teacher",
							"type": "address"
						}
					],
					"name": "TeacherRemoved",
					"type": "event"
				},
				{
					"inputs": [
						{
							"internalType": "address",
							"name": "teacher",
							"type": "address"
						}
					],
					"name": "addTeacher",
					"outputs": [],
					"stateMutability": "nonpayable",
					"type": "function"
				},
				{
					"inputs": [
						{
							"internalType": "address",
							"name": "studentAddr",
							"type": "address"
						},
						{
							"internalType": "uint256[]",
							"name": "subjectMarks",
							"type": "uint256[]"
						}
					],
					"name": "assignMarks",
					"outputs": [],
					"stateMutability": "nonpayable",
					"type": "function"
				},
				{
					"inputs": [
						{
							"internalType": "address",
							"name": "studentAddr",
							"type": "address"
						}
					],
					"name": "getMarksheet",
					"outputs": [
						{
							"internalType": "string",
							"name": "name",
							"type": "string"
						},
						{
							"internalType": "uint256",
							"name": "rollNumber",
							"type": "uint256"
						},
						{
							"internalType": "uint256[]",
							"name": "subjectMarks",
							"type": "uint256[]"
						},
						{
							"internalType": "uint256",
							"name": "totalMarks",
							"type": "uint256"
						},
						{
							"internalType": "string",
							"name": "grade",
							"type": "string"
						},
						{
							"internalType": "uint256",
							"name": "lastUpdated",
							"type": "uint256"
						}
					],
					"stateMutability": "view",
					"type": "function"
				},
				{
					"inputs": [
						{
							"internalType": "address",
							"name": "account",
							"type": "address"
						}
					],
					"name": "isTeacher",
					"outputs": [
						{
							"internalType": "bool",
							"name": "",
							"type": "bool"
						}
					],
					"stateMutability": "view",
					"type": "function"
				},
				{
					"inputs": [],
					"name": "owner",
					"outputs": [
						{
							"internalType": "address",
							"name": "",
							"type": "address"
						}
					],
					"stateMutability": "view",
					"type": "function"
				},
				{
					"inputs": [],
					"name": "pause",
					"outputs": [],
					"stateMutability": "nonpayable",
					"type": "function"
				},
				{
					"inputs": [],
					"name": "paused",
					"outputs": [
						{
							"internalType": "bool",
							"name": "",
							"type": "bool"
						}
					],
					"stateMutability": "view",
					"type": "function"
				},
				{
					"inputs": [
						{
							"internalType": "address",
							"name": "studentAddr",
							"type": "address"
						},
						{
							"internalType": "string",
							"name": "name",
							"type": "string"
						},
						{
							"internalType": "uint256",
							"name": "rollNumber",
							"type": "uint256"
						}
					],
					"name": "registerStudent",
					"outputs": [],
					"stateMutability": "nonpayable",
					"type": "function"
				},
				{
					"inputs": [
						{
							"internalType": "address",
							"name": "teacher",
							"type": "address"
						}
					],
					"name": "removeTeacher",
					"outputs": [],
					"stateMutability": "nonpayable",
					"type": "function"
				},
				{
					"inputs": [
						{
							"internalType": "address",
							"name": "",
							"type": "address"
						}
					],
					"name": "students",
					"outputs": [
						{
							"internalType": "string",
							"name": "name",
							"type": "string"
						},
						{
							"internalType": "uint256",
							"name": "rollNumber",
							"type": "uint256"
						},
						{
							"internalType": "bool",
							"name": "registered",
							"type": "bool"
						}
					],
					"stateMutability": "view",
					"type": "function"
				},
				{
					"inputs": [
						{
							"internalType": "address",
							"name": "newOwner",
							"type": "address"
						}
					],
					"name": "transferOwnership",
					"outputs": [],
					"stateMutability": "nonpayable",
					"type": "function"
				},
				{
					"inputs": [],
					"name": "unpause",
					"outputs": [],
					"stateMutability": "nonpayable",
					"type": "function"
				}
			],
			"devdoc": {
				"kind": "dev",
				"methods": {},
				"version": 1
			},
			"evm": {
				"assembly": "    /* \"hard_marksheet.sol\":61:4588  contract MarksheetManagement {... */\n  mstore(0x40, 0x80)\n    /* \"hard_marksheet.sol\":145:150  false */\n  0x00\n    /* \"hard_marksheet.sol\":124:150  bool public paused = false */\n  dup1\n  exp(0x0100, 0x14)\n  dup2\n  sload\n  dup2\n  0xff\n  mul\n  not\n  and\n  swap1\n  dup4\n  iszero\n  iszero\n  mul\n  or\n  swap1\n  sstore\n  pop\n    /* \"hard_marksheet.sol\":1394:1519  constructor() {... */\n  callvalue\n  dup1\n  iszero\n  tag_1\n  jumpi\n  0x00\n  dup1\n  revert\ntag_1:\n  pop\n    /* \"hard_marksheet.sol\":1427:1437  msg.sender */\n  caller\n    /* \"hard_marksheet.sol\":1419:1424  owner */\n  0x00\n  dup1\n    /* \"hard_marksheet.sol\":1419:1437  owner = msg.sender */\n  0x0100\n  exp\n  dup2\n  sload\n  dup2\n  0xffffffffffffffffffffffffffffffffffffffff\n  mul\n  not\n  and\n  swap1\n  dup4\n  0xffffffffffffffffffffffffffffffffffffffff\n  and\n  mul\n  or\n  swap1\n  sstore\n  pop\n    /* \"hard_marksheet.sol\":1471:1475  true */\n  0x01\n    /* \"hard_marksheet.sol\":1448:1456  teachers */\n  dup1\n    /* \"hard_marksheet.sol\":1448:1468  teachers[msg.sender] */\n  0x00\n    /* \"hard_marksheet.sol\":1457:1467  msg.sender */\n  caller\n    /* \"hard_marksheet.sol\":1448:1468  teachers[msg.sender] */\n  0xffffffffffffffffffffffffffffffffffffffff\n  and\n  0xffffffffffffffffffffffffffffffffffffffff\n  and\n  dup2\n  mstore\n  0x20\n  add\n  swap1\n  dup2\n  mstore\n  0x20\n  add\n  0x00\n  keccak256\n  0x00\n    /* \"hard_marksheet.sol\":1448:1475  teachers[msg.sender] = true */\n  0x0100\n  exp\n  dup2\n  sload\n  dup2\n  0xff\n  mul\n  not\n  and\n  swap1\n  dup4\n  iszero\n  iszero\n  mul\n  or\n  swap1\n  sstore\n  pop\n    /* \"hard_marksheet.sol\":61:4588  contract MarksheetManagement {... */\n  dataSize(sub_0)\n  dup1\n  dataOffset(sub_0)\n  0x00\n  codecopy\n  0x00\n  return\nstop\n\nsub_0: assembly {\n        /* \"hard_marksheet.sol\":61:4588  contract MarksheetManagement {... */\n      mstore(0x40, 0x80)\n      callvalue\n      dup1\n      iszero\n      tag_1\n      jumpi\n      0x00\n      dup1\n      revert\n    tag_1:\n      pop\n      jumpi(tag_2, lt(calldatasize, 0x04))\n      shr(0xe0, calldataload(0x00))\n      dup1\n      0x8456cb59\n      gt\n      tag_15\n      jumpi\n      dup1\n      0x8456cb59\n      eq\n      tag_9\n      jumpi\n      dup1\n      0x8da5cb5b\n      eq\n      tag_10\n      jumpi\n      dup1\n      0xa6c807a9\n      eq\n      tag_11\n      jumpi\n      dup1\n      0xaec37eb3\n      eq\n      tag_12\n      jumpi\n      dup1\n      0xd47f9d13\n      eq\n      tag_13\n      jumpi\n      dup1\n      0xf2fde38b\n      eq\n      tag_14\n      jumpi\n      jump(tag_2)\n    tag_15:\n      dup1\n      0x277c6263\n      eq\n      tag_3\n      jumpi\n      dup1\n      0x3bc6e309\n      eq\n      tag_4\n      jumpi\n      dup1\n      0x3f4ba83a\n      eq\n      tag_5\n      jumpi\n      dup1\n      0x52ff6846\n      eq\n      tag_6\n      jumpi\n      dup1\n      0x5c975abb\n      eq\n      tag_7\n      jumpi\n      dup1\n      0x70188500\n      eq\n      tag_8\n      jumpi\n    tag_2:\n      0x00\n      dup1\n      revert\n        /* \"hard_marksheet.sol\":2679:3577  function assignMarks(address studentAddr, uint256[] memory subjectMarks) public onlyTeacher whenNotPaused {... */\n    tag_3:\n      tag_16\n      0x04\n      dup1\n      calldatasize\n      sub\n      dup2\n      add\n      swap1\n      tag_17\n      swap2\n      swap1\n      tag_18\n      jump\t// in\n    tag_17:\n      tag_19\n      jump\t// in\n    tag_16:\n      stop\n        /* \"hard_marksheet.sol\":1693:1886  function addTeacher(address teacher) public onlyOwner {... */\n    tag_4:\n      tag_20\n      0x04\n      dup1\n      calldatasize\n      sub\n      dup2\n      add\n      swap1\n      tag_21\n      swap2\n      swap1\n      tag_22\n      jump\t// in\n    tag_21:\n      tag_23\n      jump\t// in\n    tag_20:\n      stop\n        /* \"hard_marksheet.sol\":2212:2325  function unpause() public onlyOwner {... */\n    tag_5:\n      tag_24\n      tag_25\n      jump\t// in\n    tag_24:\n      stop\n        /* \"hard_marksheet.sol\":1894:2088  function removeTeacher(address teacher) public onlyOwner {... */\n    tag_6:\n      tag_26\n      0x04\n      dup1\n      calldatasize\n      sub\n      dup2\n      add\n      swap1\n      tag_27\n      swap2\n      swap1\n      tag_22\n      jump\t// in\n    tag_27:\n      tag_28\n      jump\t// in\n    tag_26:\n      stop\n        /* \"hard_marksheet.sol\":124:150  bool public paused = false */\n    tag_7:\n      tag_29\n      tag_30\n      jump\t// in\n    tag_29:\n      mload(0x40)\n      tag_31\n      swap2\n      swap1\n      tag_32\n      jump\t// in\n    tag_31:\n      mload(0x40)\n      dup1\n      swap2\n      sub\n      swap1\n      return\n        /* \"hard_marksheet.sol\":3585:4129  function getMarksheet(address studentAddr) public view returns (... */\n    tag_8:\n      tag_33\n      0x04\n      dup1\n      calldatasize\n      sub\n      dup2\n      add\n      swap1\n      tag_34\n      swap2\n      swap1\n      tag_22\n      jump\t// in\n    tag_34:\n      tag_35\n      jump\t// in\n    tag_33:\n      mload(0x40)\n      tag_36\n      swap7\n      swap6\n      swap5\n      swap4\n      swap3\n      swap2\n      swap1\n      tag_37\n      jump\t// in\n    tag_36:\n      mload(0x40)\n      dup1\n      swap2\n      sub\n      swap1\n      return\n        /* \"hard_marksheet.sol\":2096:2204  function pause() public onlyOwner {... */\n    tag_9:\n      tag_38\n      tag_39\n      jump\t// in\n    tag_38:\n      stop\n        /* \"hard_marksheet.sol\":97:117  address public owner */\n    tag_10:\n      tag_40\n      tag_41\n      jump\t// in\n    tag_40:\n      mload(0x40)\n      tag_42\n      swap2\n      swap1\n      tag_43\n      jump\t// in\n    tag_42:\n      mload(0x40)\n      dup1\n      swap2\n      sub\n      swap1\n      return\n        /* \"hard_marksheet.sol\":465:508  mapping(address => Student) public students */\n    tag_11:\n      tag_44\n      0x04\n      dup1\n      calldatasize\n      sub\n      dup2\n      add\n      swap1\n      tag_45\n      swap2\n      swap1\n      tag_22\n      jump\t// in\n    tag_45:\n      tag_46\n      jump\t// in\n    tag_44:\n      mload(0x40)\n      tag_47\n      swap4\n      swap3\n      swap2\n      swap1\n      tag_48\n      jump\t// in\n    tag_47:\n      mload(0x40)\n      dup1\n      swap2\n      sub\n      swap1\n      return\n        /* \"hard_marksheet.sol\":4479:4585  function isTeacher(address account) public view returns (bool) {... */\n    tag_12:\n      tag_49\n      0x04\n      dup1\n      calldatasize\n      sub\n      dup2\n      add\n      swap1\n      tag_50\n      swap2\n      swap1\n      tag_22\n      jump\t// in\n    tag_50:\n      tag_51\n      jump\t// in\n    tag_49:\n      mload(0x40)\n      tag_52\n      swap2\n      swap1\n      tag_32\n      jump\t// in\n    tag_52:\n      mload(0x40)\n      dup1\n      swap2\n      sub\n      swap1\n      return\n        /* \"hard_marksheet.sol\":2333:2671  function registerStudent(address studentAddr, string memory name, uint256 rollNumber) public onlyOwner whenNotPaused {... */\n    tag_13:\n      tag_53\n      0x04\n      dup1\n      calldatasize\n      sub\n      dup2\n      add\n      swap1\n      tag_54\n      swap2\n      swap1\n      tag_55\n      jump\t// in\n    tag_54:\n      tag_56\n      jump\t// in\n    tag_53:\n      stop\n        /* \"hard_marksheet.sol\":1527:1685  function transferOwnership(address newOwner) public onlyOwner {... */\n    tag_14:\n      tag_57\n      0x04\n      dup1\n      calldatasize\n      sub\n      dup2\n      add\n      swap1\n      tag_58\n      swap2\n      swap1\n      tag_22\n      jump\t// in\n    tag_58:\n      tag_59\n      jump\t// in\n    tag_57:\n      stop\n        /* \"hard_marksheet.sol\":2679:3577  function assignMarks(address studentAddr, uint256[] memory subjectMarks) public onlyTeacher whenNotPaused {... */\n    tag_19:\n        /* \"hard_marksheet.sol\":1212:1220  teachers */\n      0x01\n        /* \"hard_marksheet.sol\":1212:1232  teachers[msg.sender] */\n      0x00\n        /* \"hard_marksheet.sol\":1221:1231  msg.sender */\n      caller\n        /* \"hard_marksheet.sol\":1212:1232  teachers[msg.sender] */\n      0xffffffffffffffffffffffffffffffffffffffff\n      and\n      0xffffffffffffffffffffffffffffffffffffffff\n      and\n      dup2\n      mstore\n      0x20\n      add\n      swap1\n      dup2\n      mstore\n      0x20\n      add\n      0x00\n      keccak256\n      0x00\n      swap1\n      sload\n      swap1\n      0x0100\n      exp\n      swap1\n      div\n      0xff\n      and\n        /* \"hard_marksheet.sol\":1204:1264  require(teachers[msg.sender], \"Access Denied: Only teacher\") */\n      tag_61\n      jumpi\n      mload(0x40)\n      0x08c379a000000000000000000000000000000000000000000000000000000000\n      dup2\n      mstore\n      0x04\n      add\n      tag_62\n      swap1\n      tag_63\n      jump\t// in\n    tag_62:\n      mload(0x40)\n      dup1\n      swap2\n      sub\n      swap1\n      revert\n    tag_61:\n        /* \"hard_marksheet.sol\":1337:1343  paused */\n      0x00\n      0x14\n      swap1\n      sload\n      swap1\n      0x0100\n      exp\n      swap1\n      div\n      0xff\n      and\n        /* \"hard_marksheet.sol\":1336:1343  !paused */\n      iszero\n        /* \"hard_marksheet.sol\":1328:1366  require(!paused, \"Contract is paused\") */\n      tag_65\n      jumpi\n      mload(0x40)\n      0x08c379a000000000000000000000000000000000000000000000000000000000\n      dup2\n      mstore\n      0x04\n      add\n      tag_66\n      swap1\n      tag_67\n      jump\t// in\n    tag_66:\n      mload(0x40)\n      dup1\n      swap2\n      sub\n      swap1\n      revert\n    tag_65:\n        /* \"hard_marksheet.sol\":2804:2812  students */\n      0x02\n        /* \"hard_marksheet.sol\":2804:2825  students[studentAddr] */\n      0x00\n        /* \"hard_marksheet.sol\":2813:2824  studentAddr */\n      dup4\n        /* \"hard_marksheet.sol\":2804:2825  students[studentAddr] */\n      0xffffffffffffffffffffffffffffffffffffffff\n      and\n      0xffffffffffffffffffffffffffffffffffffffff\n      and\n      dup2\n      mstore\n      0x20\n      add\n      swap1\n      dup2\n      mstore\n      0x20\n      add\n      0x00\n      keccak256\n        /* \"hard_marksheet.sol\":2804:2836  students[studentAddr].registered */\n      0x02\n      add\n      0x00\n      swap1\n      sload\n      swap1\n      0x0100\n      exp\n      swap1\n      div\n      0xff\n      and\n        /* \"hard_marksheet.sol\":2796:2863  require(students[studentAddr].registered, \"Student not registered\") */\n      tag_69\n      jumpi\n      mload(0x40)\n      0x08c379a000000000000000000000000000000000000000000000000000000000\n      dup2\n      mstore\n      0x04\n      add\n      tag_70\n      swap1\n      tag_71\n      jump\t// in\n    tag_70:\n      mload(0x40)\n      dup1\n      swap2\n      sub\n      swap1\n      revert\n    tag_69:\n        /* \"hard_marksheet.sol\":2904:2905  0 */\n      0x00\n        /* \"hard_marksheet.sol\":2882:2894  subjectMarks */\n      dup2\n        /* \"hard_marksheet.sol\":2882:2901  subjectMarks.length */\n      mload\n        /* \"hard_marksheet.sol\":2882:2905  subjectMarks.length > 0 */\n      gt\n        /* \"hard_marksheet.sol\":2874:2927  require(subjectMarks.length > 0, \"No marks provided\") */\n      tag_72\n      jumpi\n      mload(0x40)\n      0x08c379a000000000000000000000000000000000000000000000000000000000\n      dup2\n      mstore\n      0x04\n      add\n      tag_73\n      swap1\n      tag_74\n      jump\t// in\n    tag_73:\n      mload(0x40)\n      dup1\n      swap2\n      sub\n      swap1\n      revert\n    tag_72:\n        /* \"hard_marksheet.sol\":2940:2953  uint256 total */\n      0x00\n        /* \"hard_marksheet.sol\":2973:2982  uint256 i */\n      dup1\n        /* \"hard_marksheet.sol\":2968:3147  for (uint256 i = 0; i < subjectMarks.length; i++) {... */\n    tag_75:\n        /* \"hard_marksheet.sol\":2992:3004  subjectMarks */\n      dup3\n        /* \"hard_marksheet.sol\":2992:3011  subjectMarks.length */\n      mload\n        /* \"hard_marksheet.sol\":2988:2989  i */\n      dup2\n        /* \"hard_marksheet.sol\":2988:3011  i < subjectMarks.length */\n      lt\n        /* \"hard_marksheet.sol\":2968:3147  for (uint256 i = 0; i < subjectMarks.length; i++) {... */\n      iszero\n      tag_76\n      jumpi\n        /* \"hard_marksheet.sol\":3060:3063  100 */\n      0x64\n        /* \"hard_marksheet.sol\":3041:3053  subjectMarks */\n      dup4\n        /* \"hard_marksheet.sol\":3054:3055  i */\n      dup3\n        /* \"hard_marksheet.sol\":3041:3056  subjectMarks[i] */\n      dup2\n      mload\n      dup2\n      lt\n      tag_78\n      jumpi\n      tag_79\n      tag_80\n      jump\t// in\n    tag_79:\n    tag_78:\n      0x20\n      mul\n      0x20\n      add\n      add\n      mload\n        /* \"hard_marksheet.sol\":3041:3063  subjectMarks[i] <= 100 */\n      gt\n      iszero\n        /* \"hard_marksheet.sol\":3033:3096  require(subjectMarks[i] <= 100, \"Invalid mark: must be <= 100\") */\n      tag_81\n      jumpi\n      mload(0x40)\n      0x08c379a000000000000000000000000000000000000000000000000000000000\n      dup2\n      mstore\n      0x04\n      add\n      tag_82\n      swap1\n      tag_83\n      jump\t// in\n    tag_82:\n      mload(0x40)\n      dup1\n      swap2\n      sub\n      swap1\n      revert\n    tag_81:\n        /* \"hard_marksheet.sol\":3120:3132  subjectMarks */\n      dup3\n        /* \"hard_marksheet.sol\":3133:3134  i */\n      dup2\n        /* \"hard_marksheet.sol\":3120:3135  subjectMarks[i] */\n      dup2\n      mload\n      dup2\n      lt\n      tag_84\n      jumpi\n      tag_85\n      tag_80\n      jump\t// in\n    tag_85:\n    tag_84:\n      0x20\n      mul\n      0x20\n      add\n      add\n      mload\n        /* \"hard_marksheet.sol\":3111:3135  total += subjectMarks[i] */\n      dup3\n      tag_86\n      swap2\n      swap1\n      tag_87\n      jump\t// in\n    tag_86:\n      swap2\n      pop\n        /* \"hard_marksheet.sol\":3013:3016  i++ */\n      dup1\n      dup1\n      tag_88\n      swap1\n      tag_89\n      jump\t// in\n    tag_88:\n      swap2\n      pop\n      pop\n        /* \"hard_marksheet.sol\":2968:3147  for (uint256 i = 0; i < subjectMarks.length; i++) {... */\n      jump(tag_75)\n    tag_76:\n      pop\n        /* \"hard_marksheet.sol\":3159:3178  string memory grade */\n      0x00\n        /* \"hard_marksheet.sol\":3181:3224  calculateGrade(total / subjectMarks.length) */\n      tag_90\n        /* \"hard_marksheet.sol\":3204:3216  subjectMarks */\n      dup4\n        /* \"hard_marksheet.sol\":3204:3223  subjectMarks.length */\n      mload\n        /* \"hard_marksheet.sol\":3196:3201  total */\n      dup4\n        /* \"hard_marksheet.sol\":3196:3223  total / subjectMarks.length */\n      tag_91\n      swap2\n      swap1\n      tag_92\n      jump\t// in\n    tag_91:\n        /* \"hard_marksheet.sol\":3181:3195  calculateGrade */\n      tag_93\n        /* \"hard_marksheet.sol\":3181:3224  calculateGrade(total / subjectMarks.length) */\n      jump\t// in\n    tag_90:\n        /* \"hard_marksheet.sol\":3159:3224  string memory grade = calculateGrade(total / subjectMarks.length) */\n      swap1\n      pop\n        /* \"hard_marksheet.sol\":3280:3281  0 */\n      0x00\n        /* \"hard_marksheet.sol\":3241:3251  marksheets */\n      0x03\n        /* \"hard_marksheet.sol\":3241:3264  marksheets[studentAddr] */\n      0x00\n        /* \"hard_marksheet.sol\":3252:3263  studentAddr */\n      dup7\n        /* \"hard_marksheet.sol\":3241:3264  marksheets[studentAddr] */\n      0xffffffffffffffffffffffffffffffffffffffff\n      and\n      0xffffffffffffffffffffffffffffffffffffffff\n      and\n      dup2\n      mstore\n      0x20\n      add\n      swap1\n      dup2\n      mstore\n      0x20\n      add\n      0x00\n      keccak256\n        /* \"hard_marksheet.sol\":3241:3276  marksheets[studentAddr].lastUpdated */\n      0x03\n      add\n      sload\n        /* \"hard_marksheet.sol\":3241:3281  marksheets[studentAddr].lastUpdated != 0 */\n      eq\n        /* \"hard_marksheet.sol\":3237:3477  if (marksheets[studentAddr].lastUpdated != 0) {... */\n      tag_94\n      jumpi\n        /* \"hard_marksheet.sol\":3316:3327  studentAddr */\n      dup4\n        /* \"hard_marksheet.sol\":3303:3380  MarksUpdated(studentAddr, marksheets[studentAddr].subjectMarks, subjectMarks) */\n      0xffffffffffffffffffffffffffffffffffffffff\n      and\n      0xa03d5afb76d9603b5866d2bfa277c85102dd6cdb47bd1ab0b3ad1e704253d3d6\n        /* \"hard_marksheet.sol\":3329:3339  marksheets */\n      0x03\n        /* \"hard_marksheet.sol\":3329:3352  marksheets[studentAddr] */\n      0x00\n        /* \"hard_marksheet.sol\":3340:3351  studentAddr */\n      dup8\n        /* \"hard_marksheet.sol\":3329:3352  marksheets[studentAddr] */\n      0xffffffffffffffffffffffffffffffffffffffff\n      and\n      0xffffffffffffffffffffffffffffffffffffffff\n      and\n      dup2\n      mstore\n      0x20\n      add\n      swap1\n      dup2\n      mstore\n      0x20\n      add\n      0x00\n      keccak256\n        /* \"hard_marksheet.sol\":3329:3365  marksheets[studentAddr].subjectMarks */\n      0x00\n      add\n        /* \"hard_marksheet.sol\":3367:3379  subjectMarks */\n      dup6\n        /* \"hard_marksheet.sol\":3303:3380  MarksUpdated(studentAddr, marksheets[studentAddr].subjectMarks, subjectMarks) */\n      mload(0x40)\n      tag_95\n      swap3\n      swap2\n      swap1\n      tag_96\n      jump\t// in\n    tag_95:\n      mload(0x40)\n      dup1\n      swap2\n      sub\n      swap1\n      log2\n        /* \"hard_marksheet.sol\":3237:3477  if (marksheets[studentAddr].lastUpdated != 0) {... */\n      jump(tag_97)\n    tag_94:\n        /* \"hard_marksheet.sol\":3432:3443  studentAddr */\n      dup4\n        /* \"hard_marksheet.sol\":3418:3465  MarksAssigned(studentAddr, subjectMarks, grade) */\n      0xffffffffffffffffffffffffffffffffffffffff\n      and\n      0xf49beaaee73cb4b8719a7cd0dc4ab4cec67e358fca9570fa363663c84cee6354\n        /* \"hard_marksheet.sol\":3445:3457  subjectMarks */\n      dup5\n        /* \"hard_marksheet.sol\":3459:3464  grade */\n      dup4\n        /* \"hard_marksheet.sol\":3418:3465  MarksAssigned(studentAddr, subjectMarks, grade) */\n      mload(0x40)\n      tag_98\n      swap3\n      swap2\n      swap1\n      tag_99\n      jump\t// in\n    tag_98:\n      mload(0x40)\n      dup1\n      swap2\n      sub\n      swap1\n      log2\n        /* \"hard_marksheet.sol\":3237:3477  if (marksheets[studentAddr].lastUpdated != 0) {... */\n    tag_97:\n        /* \"hard_marksheet.sol\":3515:3569  Marksheet(subjectMarks, total, grade, block.timestamp) */\n      mload(0x40)\n      dup1\n      0x80\n      add\n      0x40\n      mstore\n      dup1\n        /* \"hard_marksheet.sol\":3525:3537  subjectMarks */\n      dup5\n        /* \"hard_marksheet.sol\":3515:3569  Marksheet(subjectMarks, total, grade, block.timestamp) */\n      dup2\n      mstore\n      0x20\n      add\n        /* \"hard_marksheet.sol\":3539:3544  total */\n      dup4\n        /* \"hard_marksheet.sol\":3515:3569  Marksheet(subjectMarks, total, grade, block.timestamp) */\n      dup2\n      mstore\n      0x20\n      add\n        /* \"hard_marksheet.sol\":3546:3551  grade */\n      dup3\n        /* \"hard_marksheet.sol\":3515:3569  Marksheet(subjectMarks, total, grade, block.timestamp) */\n      dup2\n      mstore\n      0x20\n      add\n        /* \"hard_marksheet.sol\":3553:3568  block.timestamp */\n      timestamp\n        /* \"hard_marksheet.sol\":3515:3569  Marksheet(subjectMarks, total, grade, block.timestamp) */\n      dup2\n      mstore\n      pop\n        /* \"hard_marksheet.sol\":3489:3499  marksheets */\n      0x03\n        /* \"hard_marksheet.sol\":3489:3512  marksheets[studentAddr] */\n      0x00\n        /* \"hard_marksheet.sol\":3500:3511  studentAddr */\n      dup7\n        /* \"hard_marksheet.sol\":3489:3512  marksheets[studentAddr] */\n      0xffffffffffffffffffffffffffffffffffffffff\n      and\n      0xffffffffffffffffffffffffffffffffffffffff\n      and\n      dup2\n      mstore\n      0x20\n      add\n      swap1\n      dup2\n      mstore\n      0x20\n      add\n      0x00\n      keccak256\n        /* \"hard_marksheet.sol\":3489:3569  marksheets[studentAddr] = Marksheet(subjectMarks, total, grade, block.timestamp) */\n      0x00\n      dup3\n      add\n      mload\n      dup2\n      0x00\n      add\n      swap1\n      dup1\n      mload\n      swap1\n      0x20\n      add\n      swap1\n      tag_100\n      swap3\n      swap2\n      swap1\n      tag_101\n      jump\t// in\n    tag_100:\n      pop\n      0x20\n      dup3\n      add\n      mload\n      dup2\n      0x01\n      add\n      sstore\n      0x40\n      dup3\n      add\n      mload\n      dup2\n      0x02\n      add\n      swap1\n      dup2\n      tag_102\n      swap2\n      swap1\n      tag_103\n      jump\t// in\n    tag_102:\n      pop\n      0x60\n      dup3\n      add\n      mload\n      dup2\n      0x03\n      add\n      sstore\n      swap1\n      pop\n      pop\n        /* \"hard_marksheet.sol\":2785:3577  {... */\n      pop\n      pop\n        /* \"hard_marksheet.sol\":2679:3577  function assignMarks(address studentAddr, uint256[] memory subjectMarks) public onlyTeacher whenNotPaused {... */\n      pop\n      pop\n      jump\t// out\n        /* \"hard_marksheet.sol\":1693:1886  function addTeacher(address teacher) public onlyOwner {... */\n    tag_23:\n        /* \"hard_marksheet.sol\":1107:1112  owner */\n      0x00\n      dup1\n      sload\n      swap1\n      0x0100\n      exp\n      swap1\n      div\n      0xffffffffffffffffffffffffffffffffffffffff\n      and\n        /* \"hard_marksheet.sol\":1093:1112  msg.sender == owner */\n      0xffffffffffffffffffffffffffffffffffffffff\n      and\n        /* \"hard_marksheet.sol\":1093:1103  msg.sender */\n      caller\n        /* \"hard_marksheet.sol\":1093:1112  msg.sender == owner */\n      0xffffffffffffffffffffffffffffffffffffffff\n      and\n      eq\n        /* \"hard_marksheet.sol\":1085:1142  require(msg.sender == owner, \"Access Denied: Only owner\") */\n      tag_105\n      jumpi\n      mload(0x40)\n      0x08c379a000000000000000000000000000000000000000000000000000000000\n      dup2\n      mstore\n      0x04\n      add\n      tag_106\n      swap1\n      tag_107\n      jump\t// in\n    tag_106:\n      mload(0x40)\n      dup1\n      swap2\n      sub\n      swap1\n      revert\n    tag_105:\n        /* \"hard_marksheet.sol\":1767:1775  teachers */\n      0x01\n        /* \"hard_marksheet.sol\":1767:1784  teachers[teacher] */\n      0x00\n        /* \"hard_marksheet.sol\":1776:1783  teacher */\n      dup3\n        /* \"hard_marksheet.sol\":1767:1784  teachers[teacher] */\n      0xffffffffffffffffffffffffffffffffffffffff\n      and\n      0xffffffffffffffffffffffffffffffffffffffff\n      and\n      dup2\n      mstore\n      0x20\n      add\n      swap1\n      dup2\n      mstore\n      0x20\n      add\n      0x00\n      keccak256\n      0x00\n      swap1\n      sload\n      swap1\n      0x0100\n      exp\n      swap1\n      div\n      0xff\n      and\n        /* \"hard_marksheet.sol\":1766:1784  !teachers[teacher] */\n      iszero\n        /* \"hard_marksheet.sol\":1758:1806  require(!teachers[teacher], \"Already a teacher\") */\n      tag_109\n      jumpi\n      mload(0x40)\n      0x08c379a000000000000000000000000000000000000000000000000000000000\n      dup2\n      mstore\n      0x04\n      add\n      tag_110\n      swap1\n      tag_111\n      jump\t// in\n    tag_110:\n      mload(0x40)\n      dup1\n      swap2\n      sub\n      swap1\n      revert\n    tag_109:\n        /* \"hard_marksheet.sol\":1837:1841  true */\n      0x01\n        /* \"hard_marksheet.sol\":1817:1825  teachers */\n      dup1\n        /* \"hard_marksheet.sol\":1817:1834  teachers[teacher] */\n      0x00\n        /* \"hard_marksheet.sol\":1826:1833  teacher */\n      dup4\n        /* \"hard_marksheet.sol\":1817:1834  teachers[teacher] */\n      0xffffffffffffffffffffffffffffffffffffffff\n      and\n      0xffffffffffffffffffffffffffffffffffffffff\n      and\n      dup2\n      mstore\n      0x20\n      add\n      swap1\n      dup2\n      mstore\n      0x20\n      add\n      0x00\n      keccak256\n      0x00\n        /* \"hard_marksheet.sol\":1817:1841  teachers[teacher] = true */\n      0x0100\n      exp\n      dup2\n      sload\n      dup2\n      0xff\n      mul\n      not\n      and\n      swap1\n      dup4\n      iszero\n      iszero\n      mul\n      or\n      swap1\n      sstore\n      pop\n        /* \"hard_marksheet.sol\":1870:1877  teacher */\n      dup1\n        /* \"hard_marksheet.sol\":1857:1878  TeacherAdded(teacher) */\n      0xffffffffffffffffffffffffffffffffffffffff\n      and\n      0x04e1c63d2b2fafca3496ea9c3f23b77835b9a91f5d74802ced76b7f929b3265e\n      mload(0x40)\n      mload(0x40)\n      dup1\n      swap2\n      sub\n      swap1\n      log2\n        /* \"hard_marksheet.sol\":1693:1886  function addTeacher(address teacher) public onlyOwner {... */\n      pop\n      jump\t// out\n        /* \"hard_marksheet.sol\":2212:2325  function unpause() public onlyOwner {... */\n    tag_25:\n        /* \"hard_marksheet.sol\":1107:1112  owner */\n      0x00\n      dup1\n      sload\n      swap1\n      0x0100\n      exp\n      swap1\n      div\n      0xffffffffffffffffffffffffffffffffffffffff\n      and\n        /* \"hard_marksheet.sol\":1093:1112  msg.sender == owner */\n      0xffffffffffffffffffffffffffffffffffffffff\n      and\n        /* \"hard_marksheet.sol\":1093:1103  msg.sender */\n      caller\n        /* \"hard_marksheet.sol\":1093:1112  msg.sender == owner */\n      0xffffffffffffffffffffffffffffffffffffffff\n      and\n      eq\n        /* \"hard_marksheet.sol\":1085:1142  require(msg.sender == owner, \"Access Denied: Only owner\") */\n      tag_113\n      jumpi\n      mload(0x40)\n      0x08c379a000000000000000000000000000000000000000000000000000000000\n      dup2\n      mstore\n      0x04\n      add\n      tag_114\n      swap1\n      tag_107\n      jump\t// in\n    tag_114:\n      mload(0x40)\n      dup1\n      swap2\n      sub\n      swap1\n      revert\n    tag_113:\n        /* \"hard_marksheet.sol\":2268:2273  false */\n      0x00\n        /* \"hard_marksheet.sol\":2259:2265  paused */\n      dup1\n      0x14\n        /* \"hard_marksheet.sol\":2259:2273  paused = false */\n      0x0100\n      exp\n      dup2\n      sload\n      dup2\n      0xff\n      mul\n      not\n      and\n      swap1\n      dup4\n      iszero\n      iszero\n      mul\n      or\n      swap1\n      sstore\n      pop\n        /* \"hard_marksheet.sol\":2306:2316  msg.sender */\n      caller\n        /* \"hard_marksheet.sol\":2289:2317  ContractUnpaused(msg.sender) */\n      0xffffffffffffffffffffffffffffffffffffffff\n      and\n      0x5b65b0c1363b3003db9bcc5e1fd8805a6d6bf5bf6dc9d3431ee4494cd7d11766\n      mload(0x40)\n      mload(0x40)\n      dup1\n      swap2\n      sub\n      swap1\n      log2\n        /* \"hard_marksheet.sol\":2212:2325  function unpause() public onlyOwner {... */\n      jump\t// out\n        /* \"hard_marksheet.sol\":1894:2088  function removeTeacher(address teacher) public onlyOwner {... */\n    tag_28:\n        /* \"hard_marksheet.sol\":1107:1112  owner */\n      0x00\n      dup1\n      sload\n      swap1\n      0x0100\n      exp\n      swap1\n      div\n      0xffffffffffffffffffffffffffffffffffffffff\n      and\n        /* \"hard_marksheet.sol\":1093:1112  msg.sender == owner */\n      0xffffffffffffffffffffffffffffffffffffffff\n      and\n        /* \"hard_marksheet.sol\":1093:1103  msg.sender */\n      caller\n        /* \"hard_marksheet.sol\":1093:1112  msg.sender == owner */\n      0xffffffffffffffffffffffffffffffffffffffff\n      and\n      eq\n        /* \"hard_marksheet.sol\":1085:1142  require(msg.sender == owner, \"Access Denied: Only owner\") */\n      tag_117\n      jumpi\n      mload(0x40)\n      0x08c379a000000000000000000000000000000000000000000000000000000000\n      dup2\n      mstore\n      0x04\n      add\n      tag_118\n      swap1\n      tag_107\n      jump\t// in\n    tag_118:\n      mload(0x40)\n      dup1\n      swap2\n      sub\n      swap1\n      revert\n    tag_117:\n        /* \"hard_marksheet.sol\":1970:1978  teachers */\n      0x01\n        /* \"hard_marksheet.sol\":1970:1987  teachers[teacher] */\n      0x00\n        /* \"hard_marksheet.sol\":1979:1986  teacher */\n      dup3\n        /* \"hard_marksheet.sol\":1970:1987  teachers[teacher] */\n      0xffffffffffffffffffffffffffffffffffffffff\n      and\n      0xffffffffffffffffffffffffffffffffffffffff\n      and\n      dup2\n      mstore\n      0x20\n      add\n      swap1\n      dup2\n      mstore\n      0x20\n      add\n      0x00\n      keccak256\n      0x00\n      swap1\n      sload\n      swap1\n      0x0100\n      exp\n      swap1\n      div\n      0xff\n      and\n        /* \"hard_marksheet.sol\":1962:2005  require(teachers[teacher], \"Not a teacher\") */\n      tag_120\n      jumpi\n      mload(0x40)\n      0x08c379a000000000000000000000000000000000000000000000000000000000\n      dup2\n      mstore\n      0x04\n      add\n      tag_121\n      swap1\n      tag_122\n      jump\t// in\n    tag_121:\n      mload(0x40)\n      dup1\n      swap2\n      sub\n      swap1\n      revert\n    tag_120:\n        /* \"hard_marksheet.sol\":2036:2041  false */\n      0x00\n        /* \"hard_marksheet.sol\":2016:2024  teachers */\n      0x01\n        /* \"hard_marksheet.sol\":2016:2033  teachers[teacher] */\n      0x00\n        /* \"hard_marksheet.sol\":2025:2032  teacher */\n      dup4\n        /* \"hard_marksheet.sol\":2016:2033  teachers[teacher] */\n      0xffffffffffffffffffffffffffffffffffffffff\n      and\n      0xffffffffffffffffffffffffffffffffffffffff\n      and\n      dup2\n      mstore\n      0x20\n      add\n      swap1\n      dup2\n      mstore\n      0x20\n      add\n      0x00\n      keccak256\n      0x00\n        /* \"hard_marksheet.sol\":2016:2041  teachers[teacher] = false */\n      0x0100\n      exp\n      dup2\n      sload\n      dup2\n      0xff\n      mul\n      not\n      and\n      swap1\n      dup4\n      iszero\n      iszero\n      mul\n      or\n      swap1\n      sstore\n      pop\n        /* \"hard_marksheet.sol\":2072:2079  teacher */\n      dup1\n        /* \"hard_marksheet.sol\":2057:2080  TeacherRemoved(teacher) */\n      0xffffffffffffffffffffffffffffffffffffffff\n      and\n      0x024a5dd50126818a1d488f90df37ad02592196a4ea744aff4799818139297734\n      mload(0x40)\n      mload(0x40)\n      dup1\n      swap2\n      sub\n      swap1\n      log2\n        /* \"hard_marksheet.sol\":1894:2088  function removeTeacher(address teacher) public onlyOwner {... */\n      pop\n      jump\t// out\n        /* \"hard_marksheet.sol\":124:150  bool public paused = false */\n    tag_30:\n      0x00\n      0x14\n      swap1\n      sload\n      swap1\n      0x0100\n      exp\n      swap1\n      div\n      0xff\n      and\n      dup2\n      jump\t// out\n        /* \"hard_marksheet.sol\":3585:4129  function getMarksheet(address studentAddr) public view returns (... */\n    tag_35:\n        /* \"hard_marksheet.sol\":3659:3677  string memory name */\n      0x60\n        /* \"hard_marksheet.sol\":3688:3706  uint256 rollNumber */\n      0x00\n        /* \"hard_marksheet.sol\":3717:3746  uint256[] memory subjectMarks */\n      0x60\n        /* \"hard_marksheet.sol\":3757:3775  uint256 totalMarks */\n      0x00\n        /* \"hard_marksheet.sol\":3786:3805  string memory grade */\n      0x60\n        /* \"hard_marksheet.sol\":3816:3835  uint256 lastUpdated */\n      0x00\n        /* \"hard_marksheet.sol\":3862:3870  students */\n      0x02\n        /* \"hard_marksheet.sol\":3862:3883  students[studentAddr] */\n      0x00\n        /* \"hard_marksheet.sol\":3871:3882  studentAddr */\n      dup9\n        /* \"hard_marksheet.sol\":3862:3883  students[studentAddr] */\n      0xffffffffffffffffffffffffffffffffffffffff\n      and\n      0xffffffffffffffffffffffffffffffffffffffff\n      and\n      dup2\n      mstore\n      0x20\n      add\n      swap1\n      dup2\n      mstore\n      0x20\n      add\n      0x00\n      keccak256\n        /* \"hard_marksheet.sol\":3862:3894  students[studentAddr].registered */\n      0x02\n      add\n      0x00\n      swap1\n      sload\n      swap1\n      0x0100\n      exp\n      swap1\n      div\n      0xff\n      and\n        /* \"hard_marksheet.sol\":3854:3921  require(students[studentAddr].registered, \"Student not registered\") */\n      tag_124\n      jumpi\n      mload(0x40)\n      0x08c379a000000000000000000000000000000000000000000000000000000000\n      dup2\n      mstore\n      0x04\n      add\n      tag_125\n      swap1\n      tag_71\n      jump\t// in\n    tag_125:\n      mload(0x40)\n      dup1\n      swap2\n      sub\n      swap1\n      revert\n    tag_124:\n        /* \"hard_marksheet.sol\":3932:3948  Student memory s */\n      0x00\n        /* \"hard_marksheet.sol\":3951:3959  students */\n      0x02\n        /* \"hard_marksheet.sol\":3951:3972  students[studentAddr] */\n      0x00\n        /* \"hard_marksheet.sol\":3960:3971  studentAddr */\n      dup10\n        /* \"hard_marksheet.sol\":3951:3972  students[studentAddr] */\n      0xffffffffffffffffffffffffffffffffffffffff\n      and\n      0xffffffffffffffffffffffffffffffffffffffff\n      and\n      dup2\n      mstore\n      0x20\n      add\n      swap1\n      dup2\n      mstore\n      0x20\n      add\n      0x00\n      keccak256\n        /* \"hard_marksheet.sol\":3932:3972  Student memory s = students[studentAddr] */\n      mload(0x40)\n      dup1\n      0x60\n      add\n      0x40\n      mstore\n      swap1\n      dup2\n      0x00\n      dup3\n      add\n      dup1\n      sload\n      tag_126\n      swap1\n      tag_127\n      jump\t// in\n    tag_126:\n      dup1\n      0x1f\n      add\n      0x20\n      dup1\n      swap2\n      div\n      mul\n      0x20\n      add\n      mload(0x40)\n      swap1\n      dup2\n      add\n      0x40\n      mstore\n      dup1\n      swap3\n      swap2\n      swap1\n      dup2\n      dup2\n      mstore\n      0x20\n      add\n      dup3\n      dup1\n      sload\n      tag_128\n      swap1\n      tag_127\n      jump\t// in\n    tag_128:\n      dup1\n      iszero\n      tag_129\n      jumpi\n      dup1\n      0x1f\n      lt\n      tag_130\n      jumpi\n      0x0100\n      dup1\n      dup4\n      sload\n      div\n      mul\n      dup4\n      mstore\n      swap2\n      0x20\n      add\n      swap2\n      jump(tag_129)\n    tag_130:\n      dup3\n      add\n      swap2\n      swap1\n      0x00\n      mstore\n      keccak256(0x00, 0x20)\n      swap1\n    tag_131:\n      dup2\n      sload\n      dup2\n      mstore\n      swap1\n      0x01\n      add\n      swap1\n      0x20\n      add\n      dup1\n      dup4\n      gt\n      tag_131\n      jumpi\n      dup3\n      swap1\n      sub\n      0x1f\n      and\n      dup3\n      add\n      swap2\n    tag_129:\n      pop\n      pop\n      pop\n      pop\n      pop\n      dup2\n      mstore\n      0x20\n      add\n      0x01\n      dup3\n      add\n      sload\n      dup2\n      mstore\n      0x20\n      add\n      0x02\n      dup3\n      add\n      0x00\n      swap1\n      sload\n      swap1\n      0x0100\n      exp\n      swap1\n      div\n      0xff\n      and\n      iszero\n      iszero\n      iszero\n      iszero\n      dup2\n      mstore\n      pop\n      pop\n      swap1\n      pop\n        /* \"hard_marksheet.sol\":3983:4001  Marksheet memory m */\n      0x00\n        /* \"hard_marksheet.sol\":4004:4014  marksheets */\n      0x03\n        /* \"hard_marksheet.sol\":4004:4027  marksheets[studentAddr] */\n      0x00\n        /* \"hard_marksheet.sol\":4015:4026  studentAddr */\n      dup11\n        /* \"hard_marksheet.sol\":4004:4027  marksheets[studentAddr] */\n      0xffffffffffffffffffffffffffffffffffffffff\n      and\n      0xffffffffffffffffffffffffffffffffffffffff\n      and\n      dup2\n      mstore\n      0x20\n      add\n      swap1\n      dup2\n      mstore\n      0x20\n      add\n      0x00\n      keccak256\n        /* \"hard_marksheet.sol\":3983:4027  Marksheet memory m = marksheets[studentAddr] */\n      mload(0x40)\n      dup1\n      0x80\n      add\n      0x40\n      mstore\n      swap1\n      dup2\n      0x00\n      dup3\n      add\n      dup1\n      sload\n      dup1\n      0x20\n      mul\n      0x20\n      add\n      mload(0x40)\n      swap1\n      dup2\n      add\n      0x40\n      mstore\n      dup1\n      swap3\n      swap2\n      swap1\n      dup2\n      dup2\n      mstore\n      0x20\n      add\n      dup3\n      dup1\n      sload\n      dup1\n      iszero\n      tag_132\n      jumpi\n      0x20\n      mul\n      dup3\n      add\n      swap2\n      swap1\n      0x00\n      mstore\n      keccak256(0x00, 0x20)\n      swap1\n    tag_133:\n      dup2\n      sload\n      dup2\n      mstore\n      0x20\n      add\n      swap1\n      0x01\n      add\n      swap1\n      dup1\n      dup4\n      gt\n      tag_133\n      jumpi\n    tag_132:\n      pop\n      pop\n      pop\n      pop\n      pop\n      dup2\n      mstore\n      0x20\n      add\n      0x01\n      dup3\n      add\n      sload\n      dup2\n      mstore\n      0x20\n      add\n      0x02\n      dup3\n      add\n      dup1\n      sload\n      tag_134\n      swap1\n      tag_127\n      jump\t// in\n    tag_134:\n      dup1\n      0x1f\n      add\n      0x20\n      dup1\n      swap2\n      div\n      mul\n      0x20\n      add\n      mload(0x40)\n      swap1\n      dup2\n      add\n      0x40\n      mstore\n      dup1\n      swap3\n      swap2\n      swap1\n      dup2\n      dup2\n      mstore\n      0x20\n      add\n      dup3\n      dup1\n      sload\n      tag_135\n      swap1\n      tag_127\n      jump\t// in\n    tag_135:\n      dup1\n      iszero\n      tag_136\n      jumpi\n      dup1\n      0x1f\n      lt\n      tag_137\n      jumpi\n      0x0100\n      dup1\n      dup4\n      sload\n      div\n      mul\n      dup4\n      mstore\n      swap2\n      0x20\n      add\n      swap2\n      jump(tag_136)\n    tag_137:\n      dup3\n      add\n      swap2\n      swap1\n      0x00\n      mstore\n      keccak256(0x00, 0x20)\n      swap1\n    tag_138:\n      dup2\n      sload\n      dup2\n      mstore\n      swap1\n      0x01\n      add\n      swap1\n      0x20\n      add\n      dup1\n      dup4\n      gt\n      tag_138\n      jumpi\n      dup3\n      swap1\n      sub\n      0x1f\n      and\n      dup3\n      add\n      swap2\n    tag_136:\n      pop\n      pop\n      pop\n      pop\n      pop\n      dup2\n      mstore\n      0x20\n      add\n      0x03\n      dup3\n      add\n      sload\n      dup2\n      mstore\n      pop\n      pop\n      swap1\n      pop\n        /* \"hard_marksheet.sol\":4046:4047  s */\n      dup2\n        /* \"hard_marksheet.sol\":4046:4052  s.name */\n      0x00\n      add\n      mload\n        /* \"hard_marksheet.sol\":4054:4055  s */\n      dup3\n        /* \"hard_marksheet.sol\":4054:4066  s.rollNumber */\n      0x20\n      add\n      mload\n        /* \"hard_marksheet.sol\":4068:4069  m */\n      dup3\n        /* \"hard_marksheet.sol\":4068:4082  m.subjectMarks */\n      0x00\n      add\n      mload\n        /* \"hard_marksheet.sol\":4084:4085  m */\n      dup4\n        /* \"hard_marksheet.sol\":4084:4096  m.totalMarks */\n      0x20\n      add\n      mload\n        /* \"hard_marksheet.sol\":4098:4099  m */\n      dup5\n        /* \"hard_marksheet.sol\":4098:4105  m.grade */\n      0x40\n      add\n      mload\n        /* \"hard_marksheet.sol\":4107:4108  m */\n      dup6\n        /* \"hard_marksheet.sol\":4107:4120  m.lastUpdated */\n      0x60\n      add\n      mload\n        /* \"hard_marksheet.sol\":4038:4121  return (s.name, s.rollNumber, m.subjectMarks, m.totalMarks, m.grade, m.lastUpdated) */\n      swap8\n      pop\n      swap8\n      pop\n      swap8\n      pop\n      swap8\n      pop\n      swap8\n      pop\n      swap8\n      pop\n      pop\n      pop\n        /* \"hard_marksheet.sol\":3585:4129  function getMarksheet(address studentAddr) public view returns (... */\n      swap2\n      swap4\n      swap6\n      pop\n      swap2\n      swap4\n      swap6\n      jump\t// out\n        /* \"hard_marksheet.sol\":2096:2204  function pause() public onlyOwner {... */\n    tag_39:\n        /* \"hard_marksheet.sol\":1107:1112  owner */\n      0x00\n      dup1\n      sload\n      swap1\n      0x0100\n      exp\n      swap1\n      div\n      0xffffffffffffffffffffffffffffffffffffffff\n      and\n        /* \"hard_marksheet.sol\":1093:1112  msg.sender == owner */\n      0xffffffffffffffffffffffffffffffffffffffff\n      and\n        /* \"hard_marksheet.sol\":1093:1103  msg.sender */\n      caller\n        /* \"hard_marksheet.sol\":1093:1112  msg.sender == owner */\n      0xffffffffffffffffffffffffffffffffffffffff\n      and\n      eq\n        /* \"hard_marksheet.sol\":1085:1142  require(msg.sender == owner, \"Access Denied: Only owner\") */\n      tag_140\n      jumpi\n      mload(0x40)\n      0x08c379a000000000000000000000000000000000000000000000000000000000\n      dup2\n      mstore\n      0x04\n      add\n      tag_141\n      swap1\n      tag_107\n      jump\t// in\n    tag_141:\n      mload(0x40)\n      dup1\n      swap2\n      sub\n      swap1\n      revert\n    tag_140:\n        /* \"hard_marksheet.sol\":2150:2154  true */\n      0x01\n        /* \"hard_marksheet.sol\":2141:2147  paused */\n      0x00\n      0x14\n        /* \"hard_marksheet.sol\":2141:2154  paused = true */\n      0x0100\n      exp\n      dup2\n      sload\n      dup2\n      0xff\n      mul\n      not\n      and\n      swap1\n      dup4\n      iszero\n      iszero\n      mul\n      or\n      swap1\n      sstore\n      pop\n        /* \"hard_marksheet.sol\":2185:2195  msg.sender */\n      caller\n        /* \"hard_marksheet.sol\":2170:2196  ContractPaused(msg.sender) */\n      0xffffffffffffffffffffffffffffffffffffffff\n      and\n      0x81990fd9a5c552b8e3677917d8a03c07678f0d2cb68f88b634aca2022e9bd19f\n      mload(0x40)\n      mload(0x40)\n      dup1\n      swap2\n      sub\n      swap1\n      log2\n        /* \"hard_marksheet.sol\":2096:2204  function pause() public onlyOwner {... */\n      jump\t// out\n        /* \"hard_marksheet.sol\":97:117  address public owner */\n    tag_41:\n      0x00\n      dup1\n      sload\n      swap1\n      0x0100\n      exp\n      swap1\n      div\n      0xffffffffffffffffffffffffffffffffffffffff\n      and\n      dup2\n      jump\t// out\n        /* \"hard_marksheet.sol\":465:508  mapping(address => Student) public students */\n    tag_46:\n      mstore(0x20, 0x02)\n      dup1\n      0x00\n      mstore\n      keccak256(0x00, 0x40)\n      0x00\n      swap2\n      pop\n      swap1\n      pop\n      dup1\n      0x00\n      add\n      dup1\n      sload\n      tag_143\n      swap1\n      tag_127\n      jump\t// in\n    tag_143:\n      dup1\n      0x1f\n      add\n      0x20\n      dup1\n      swap2\n      div\n      mul\n      0x20\n      add\n      mload(0x40)\n      swap1\n      dup2\n      add\n      0x40\n      mstore\n      dup1\n      swap3\n      swap2\n      swap1\n      dup2\n      dup2\n      mstore\n      0x20\n      add\n      dup3\n      dup1\n      sload\n      tag_144\n      swap1\n      tag_127\n      jump\t// in\n    tag_144:\n      dup1\n      iszero\n      tag_145\n      jumpi\n      dup1\n      0x1f\n      lt\n      tag_146\n      jumpi\n      0x0100\n      dup1\n      dup4\n      sload\n      div\n      mul\n      dup4\n      mstore\n      swap2\n      0x20\n      add\n      swap2\n      jump(tag_145)\n    tag_146:\n      dup3\n      add\n      swap2\n      swap1\n      0x00\n      mstore\n      keccak256(0x00, 0x20)\n      swap1\n    tag_147:\n      dup2\n      sload\n      dup2\n      mstore\n      swap1\n      0x01\n      add\n      swap1\n      0x20\n      add\n      dup1\n      dup4\n      gt\n      tag_147\n      jumpi\n      dup3\n      swap1\n      sub\n      0x1f\n      and\n      dup3\n      add\n      swap2\n    tag_145:\n      pop\n      pop\n      pop\n      pop\n      pop\n      swap1\n      dup1\n      0x01\n      add\n      sload\n      swap1\n      dup1\n      0x02\n      add\n      0x00\n      swap1\n      sload\n      swap1\n      0x0100\n      exp\n      swap1\n      div\n      0xff\n      and\n      swap1\n      pop\n      dup4\n      jump\t// out\n        /* \"hard_marksheet.sol\":4479:4585  function isTeacher(address account) public view returns (bool) {... */\n    tag_51:\n        /* \"hard_marksheet.sol\":4536:4540  bool */\n      0x00\n        /* \"hard_marksheet.sol\":4560:4568  teachers */\n      0x01\n        /* \"hard_marksheet.sol\":4560:4577  teachers[account] */\n      0x00\n        /* \"hard_marksheet.sol\":4569:4576  account */\n      dup4\n        /* \"hard_marksheet.sol\":4560:4577  teachers[account] */\n      0xffffffffffffffffffffffffffffffffffffffff\n      and\n      0xffffffffffffffffffffffffffffffffffffffff\n      and\n      dup2\n      mstore\n      0x20\n      add\n      swap1\n      dup2\n      mstore\n      0x20\n      add\n      0x00\n      keccak256\n      0x00\n      swap1\n      sload\n      swap1\n      0x0100\n      exp\n      swap1\n      div\n      0xff\n      and\n        /* \"hard_marksheet.sol\":4553:4577  return teachers[account] */\n      swap1\n      pop\n        /* \"hard_marksheet.sol\":4479:4585  function isTeacher(address account) public view returns (bool) {... */\n      swap2\n      swap1\n      pop\n      jump\t// out\n        /* \"hard_marksheet.sol\":2333:2671  function registerStudent(address studentAddr, string memory name, uint256 rollNumber) public onlyOwner whenNotPaused {... */\n    tag_56:\n        /* \"hard_marksheet.sol\":1107:1112  owner */\n      0x00\n      dup1\n      sload\n      swap1\n      0x0100\n      exp\n      swap1\n      div\n      0xffffffffffffffffffffffffffffffffffffffff\n      and\n        /* \"hard_marksheet.sol\":1093:1112  msg.sender == owner */\n      0xffffffffffffffffffffffffffffffffffffffff\n      and\n        /* \"hard_marksheet.sol\":1093:1103  msg.sender */\n      caller\n        /* \"hard_marksheet.sol\":1093:1112  msg.sender == owner */\n      0xffffffffffffffffffffffffffffffffffffffff\n      and\n      eq\n        /* \"hard_marksheet.sol\":1085:1142  require(msg.sender == owner, \"Access Denied: Only owner\") */\n      tag_150\n      jumpi\n      mload(0x40)\n      0x08c379a000000000000000000000000000000000000000000000000000000000\n      dup2\n      mstore\n      0x04\n      add\n      tag_151\n      swap1\n      tag_107\n      jump\t// in\n    tag_151:\n      mload(0x40)\n      dup1\n      swap2\n      sub\n      swap1\n      revert\n    tag_150:\n        /* \"hard_marksheet.sol\":1337:1343  paused */\n      0x00\n      0x14\n      swap1\n      sload\n      swap1\n      0x0100\n      exp\n      swap1\n      div\n      0xff\n      and\n        /* \"hard_marksheet.sol\":1336:1343  !paused */\n      iszero\n        /* \"hard_marksheet.sol\":1328:1366  require(!paused, \"Contract is paused\") */\n      tag_153\n      jumpi\n      mload(0x40)\n      0x08c379a000000000000000000000000000000000000000000000000000000000\n      dup2\n      mstore\n      0x04\n      add\n      tag_154\n      swap1\n      tag_67\n      jump\t// in\n    tag_154:\n      mload(0x40)\n      dup1\n      swap2\n      sub\n      swap1\n      revert\n    tag_153:\n        /* \"hard_marksheet.sol\":2470:2478  students */\n      0x02\n        /* \"hard_marksheet.sol\":2470:2491  students[studentAddr] */\n      0x00\n        /* \"hard_marksheet.sol\":2479:2490  studentAddr */\n      dup5\n        /* \"hard_marksheet.sol\":2470:2491  students[studentAddr] */\n      0xffffffffffffffffffffffffffffffffffffffff\n      and\n      0xffffffffffffffffffffffffffffffffffffffff\n      and\n      dup2\n      mstore\n      0x20\n      add\n      swap1\n      dup2\n      mstore\n      0x20\n      add\n      0x00\n      keccak256\n        /* \"hard_marksheet.sol\":2470:2502  students[studentAddr].registered */\n      0x02\n      add\n      0x00\n      swap1\n      sload\n      swap1\n      0x0100\n      exp\n      swap1\n      div\n      0xff\n      and\n        /* \"hard_marksheet.sol\":2469:2502  !students[studentAddr].registered */\n      iszero\n        /* \"hard_marksheet.sol\":2461:2533  require(!students[studentAddr].registered, \"Student already registered\") */\n      tag_156\n      jumpi\n      mload(0x40)\n      0x08c379a000000000000000000000000000000000000000000000000000000000\n      dup2\n      mstore\n      0x04\n      add\n      tag_157\n      swap1\n      tag_158\n      jump\t// in\n    tag_157:\n      mload(0x40)\n      dup1\n      swap2\n      sub\n      swap1\n      revert\n    tag_156:\n        /* \"hard_marksheet.sol\":2568:2599  Student(name, rollNumber, true) */\n      mload(0x40)\n      dup1\n      0x60\n      add\n      0x40\n      mstore\n      dup1\n        /* \"hard_marksheet.sol\":2576:2580  name */\n      dup4\n        /* \"hard_marksheet.sol\":2568:2599  Student(name, rollNumber, true) */\n      dup2\n      mstore\n      0x20\n      add\n        /* \"hard_marksheet.sol\":2582:2592  rollNumber */\n      dup3\n        /* \"hard_marksheet.sol\":2568:2599  Student(name, rollNumber, true) */\n      dup2\n      mstore\n      0x20\n      add\n        /* \"hard_marksheet.sol\":2594:2598  true */\n      0x01\n        /* \"hard_marksheet.sol\":2568:2599  Student(name, rollNumber, true) */\n      iszero\n      iszero\n      dup2\n      mstore\n      pop\n        /* \"hard_marksheet.sol\":2544:2552  students */\n      0x02\n        /* \"hard_marksheet.sol\":2544:2565  students[studentAddr] */\n      0x00\n        /* \"hard_marksheet.sol\":2553:2564  studentAddr */\n      dup6\n        /* \"hard_marksheet.sol\":2544:2565  students[studentAddr] */\n      0xffffffffffffffffffffffffffffffffffffffff\n      and\n      0xffffffffffffffffffffffffffffffffffffffff\n      and\n      dup2\n      mstore\n      0x20\n      add\n      swap1\n      dup2\n      mstore\n      0x20\n      add\n      0x00\n      keccak256\n        /* \"hard_marksheet.sol\":2544:2599  students[studentAddr] = Student(name, rollNumber, true) */\n      0x00\n      dup3\n      add\n      mload\n      dup2\n      0x00\n      add\n      swap1\n      dup2\n      tag_159\n      swap2\n      swap1\n      tag_103\n      jump\t// in\n    tag_159:\n      pop\n      0x20\n      dup3\n      add\n      mload\n      dup2\n      0x01\n      add\n      sstore\n      0x40\n      dup3\n      add\n      mload\n      dup2\n      0x02\n      add\n      exp(0x0100, 0x00)\n      dup2\n      sload\n      dup2\n      0xff\n      mul\n      not\n      and\n      swap1\n      dup4\n      iszero\n      iszero\n      mul\n      or\n      swap1\n      sstore\n      pop\n      swap1\n      pop\n      pop\n        /* \"hard_marksheet.sol\":2633:2644  studentAddr */\n      dup3\n        /* \"hard_marksheet.sol\":2615:2663  StudentRegistered(studentAddr, name, rollNumber) */\n      0xffffffffffffffffffffffffffffffffffffffff\n      and\n      0x9c9948e5540cad013bb3d06dd108feb894f222ad978608c957d9bd55a5c564e1\n        /* \"hard_marksheet.sol\":2646:2650  name */\n      dup4\n        /* \"hard_marksheet.sol\":2652:2662  rollNumber */\n      dup4\n        /* \"hard_marksheet.sol\":2615:2663  StudentRegistered(studentAddr, name, rollNumber) */\n      mload(0x40)\n      tag_160\n      swap3\n      swap2\n      swap1\n      tag_161\n      jump\t// in\n    tag_160:\n      mload(0x40)\n      dup1\n      swap2\n      sub\n      swap1\n      log2\n        /* \"hard_marksheet.sol\":2333:2671  function registerStudent(address studentAddr, string memory name, uint256 rollNumber) public onlyOwner whenNotPaused {... */\n      pop\n      pop\n      pop\n      jump\t// out\n        /* \"hard_marksheet.sol\":1527:1685  function transferOwnership(address newOwner) public onlyOwner {... */\n    tag_59:\n        /* \"hard_marksheet.sol\":1107:1112  owner */\n      0x00\n      dup1\n      sload\n      swap1\n      0x0100\n      exp\n      swap1\n      div\n      0xffffffffffffffffffffffffffffffffffffffff\n      and\n        /* \"hard_marksheet.sol\":1093:1112  msg.sender == owner */\n      0xffffffffffffffffffffffffffffffffffffffff\n      and\n        /* \"hard_marksheet.sol\":1093:1103  msg.sender */\n      caller\n        /* \"hard_marksheet.sol\":1093:1112  msg.sender == owner */\n      0xffffffffffffffffffffffffffffffffffffffff\n      and\n      eq\n        /* \"hard_marksheet.sol\":1085:1142  require(msg.sender == owner, \"Access Denied: Only owner\") */\n      tag_163\n      jumpi\n      mload(0x40)\n      0x08c379a000000000000000000000000000000000000000000000000000000000\n      dup2\n      mstore\n      0x04\n      add\n      tag_164\n      swap1\n      tag_107\n      jump\t// in\n    tag_164:\n      mload(0x40)\n      dup1\n      swap2\n      sub\n      swap1\n      revert\n    tag_163:\n        /* \"hard_marksheet.sol\":1628:1629  0 */\n      0x00\n        /* \"hard_marksheet.sol\":1608:1630  newOwner != address(0) */\n      0xffffffffffffffffffffffffffffffffffffffff\n      and\n        /* \"hard_marksheet.sol\":1608:1616  newOwner */\n      dup2\n        /* \"hard_marksheet.sol\":1608:1630  newOwner != address(0) */\n      0xffffffffffffffffffffffffffffffffffffffff\n      and\n      sub\n        /* \"hard_marksheet.sol\":1600:1650  require(newOwner != address(0), \"Invalid address\") */\n      tag_166\n      jumpi\n      mload(0x40)\n      0x08c379a000000000000000000000000000000000000000000000000000000000\n      dup2\n      mstore\n      0x04\n      add\n      tag_167\n      swap1\n      tag_168\n      jump\t// in\n    tag_167:\n      mload(0x40)\n      dup1\n      swap2\n      sub\n      swap1\n      revert\n    tag_166:\n        /* \"hard_marksheet.sol\":1669:1677  newOwner */\n      dup1\n        /* \"hard_marksheet.sol\":1661:1666  owner */\n      0x00\n      dup1\n        /* \"hard_marksheet.sol\":1661:1677  owner = newOwner */\n      0x0100\n      exp\n      dup2\n      sload\n      dup2\n      0xffffffffffffffffffffffffffffffffffffffff\n      mul\n      not\n      and\n      swap1\n      dup4\n      0xffffffffffffffffffffffffffffffffffffffff\n      and\n      mul\n      or\n      swap1\n      sstore\n      pop\n        /* \"hard_marksheet.sol\":1527:1685  function transferOwnership(address newOwner) public onlyOwner {... */\n      pop\n      jump\t// out\n        /* \"hard_marksheet.sol\":4137:4471  function calculateGrade(uint256 average) internal pure returns (string memory) {... */\n    tag_93:\n        /* \"hard_marksheet.sol\":4201:4214  string memory */\n      0x60\n        /* \"hard_marksheet.sol\":4242:4244  90 */\n      0x5a\n        /* \"hard_marksheet.sol\":4231:4238  average */\n      dup3\n        /* \"hard_marksheet.sol\":4231:4244  average >= 90 */\n      lt\n        /* \"hard_marksheet.sol\":4227:4463  if (average >= 90) return \"A+\";... */\n      tag_170\n      jumpi\n        /* \"hard_marksheet.sol\":4246:4257  return \"A+\" */\n      mload(0x40)\n      dup1\n      0x40\n      add\n      0x40\n      mstore\n      dup1\n      0x02\n      dup2\n      mstore\n      0x20\n      add\n      0x412b000000000000000000000000000000000000000000000000000000000000\n      dup2\n      mstore\n      pop\n      swap1\n      pop\n      jump(tag_169)\n        /* \"hard_marksheet.sol\":4227:4463  if (average >= 90) return \"A+\";... */\n    tag_170:\n        /* \"hard_marksheet.sol\":4288:4290  80 */\n      0x50\n        /* \"hard_marksheet.sol\":4277:4284  average */\n      dup3\n        /* \"hard_marksheet.sol\":4277:4290  average >= 80 */\n      lt\n        /* \"hard_marksheet.sol\":4273:4463  if (average >= 80) return \"A\";... */\n      tag_172\n      jumpi\n        /* \"hard_marksheet.sol\":4292:4302  return \"A\" */\n      mload(0x40)\n      dup1\n      0x40\n      add\n      0x40\n      mstore\n      dup1\n      0x01\n      dup2\n      mstore\n      0x20\n      add\n      0x4100000000000000000000000000000000000000000000000000000000000000\n      dup2\n      mstore\n      pop\n      swap1\n      pop\n      jump(tag_169)\n        /* \"hard_marksheet.sol\":4273:4463  if (average >= 80) return \"A\";... */\n    tag_172:\n        /* \"hard_marksheet.sol\":4333:4335  70 */\n      0x46\n        /* \"hard_marksheet.sol\":4322:4329  average */\n      dup3\n        /* \"hard_marksheet.sol\":4322:4335  average >= 70 */\n      lt\n        /* \"hard_marksheet.sol\":4318:4463  if (average >= 70) return \"B\";... */\n      tag_174\n      jumpi\n        /* \"hard_marksheet.sol\":4337:4347  return \"B\" */\n      mload(0x40)\n      dup1\n      0x40\n      add\n      0x40\n      mstore\n      dup1\n      0x01\n      dup2\n      mstore\n      0x20\n      add\n      0x4200000000000000000000000000000000000000000000000000000000000000\n      dup2\n      mstore\n      pop\n      swap1\n      pop\n      jump(tag_169)\n        /* \"hard_marksheet.sol\":4318:4463  if (average >= 70) return \"B\";... */\n    tag_174:\n        /* \"hard_marksheet.sol\":4378:4380  60 */\n      0x3c\n        /* \"hard_marksheet.sol\":4367:4374  average */\n      dup3\n        /* \"hard_marksheet.sol\":4367:4380  average >= 60 */\n      lt\n        /* \"hard_marksheet.sol\":4363:4463  if (average >= 60) return \"C\";... */\n      tag_176\n      jumpi\n        /* \"hard_marksheet.sol\":4382:4392  return \"C\" */\n      mload(0x40)\n      dup1\n      0x40\n      add\n      0x40\n      mstore\n      dup1\n      0x01\n      dup2\n      mstore\n      0x20\n      add\n      0x4300000000000000000000000000000000000000000000000000000000000000\n      dup2\n      mstore\n      pop\n      swap1\n      pop\n      jump(tag_169)\n        /* \"hard_marksheet.sol\":4363:4463  if (average >= 60) return \"C\";... */\n    tag_176:\n        /* \"hard_marksheet.sol\":4423:4425  50 */\n      0x32\n        /* \"hard_marksheet.sol\":4412:4419  average */\n      dup3\n        /* \"hard_marksheet.sol\":4412:4425  average >= 50 */\n      lt\n        /* \"hard_marksheet.sol\":4408:4463  if (average >= 50) return \"D\";... */\n      tag_178\n      jumpi\n        /* \"hard_marksheet.sol\":4427:4437  return \"D\" */\n      mload(0x40)\n      dup1\n      0x40\n      add\n      0x40\n      mstore\n      dup1\n      0x01\n      dup2\n      mstore\n      0x20\n      add\n      0x4400000000000000000000000000000000000000000000000000000000000000\n      dup2\n      mstore\n      pop\n      swap1\n      pop\n      jump(tag_169)\n        /* \"hard_marksheet.sol\":4408:4463  if (average >= 50) return \"D\";... */\n    tag_178:\n        /* \"hard_marksheet.sol\":4453:4463  return \"F\" */\n      mload(0x40)\n      dup1\n      0x40\n      add\n      0x40\n      mstore\n      dup1\n      0x01\n      dup2\n      mstore\n      0x20\n      add\n      0x4600000000000000000000000000000000000000000000000000000000000000\n      dup2\n      mstore\n      pop\n      swap1\n      pop\n        /* \"hard_marksheet.sol\":4137:4471  function calculateGrade(uint256 average) internal pure returns (string memory) {... */\n    tag_169:\n      swap2\n      swap1\n      pop\n      jump\t// out\n    tag_101:\n      dup3\n      dup1\n      sload\n      dup3\n      dup3\n      sstore\n      swap1\n      0x00\n      mstore\n      keccak256(0x00, 0x20)\n      swap1\n      dup2\n      add\n      swap3\n      dup3\n      iszero\n      tag_180\n      jumpi\n      swap2\n      0x20\n      mul\n      dup3\n      add\n    tag_181:\n      dup3\n      dup2\n      gt\n      iszero\n      tag_182\n      jumpi\n      dup3\n      mload\n      dup3\n      sstore\n      swap2\n      0x20\n      add\n      swap2\n      swap1\n      0x01\n      add\n      swap1\n      jump(tag_181)\n    tag_182:\n    tag_180:\n      pop\n      swap1\n      pop\n      tag_183\n      swap2\n      swap1\n      tag_184\n      jump\t// in\n    tag_183:\n      pop\n      swap1\n      jump\t// out\n    tag_184:\n    tag_185:\n      dup1\n      dup3\n      gt\n      iszero\n      tag_186\n      jumpi\n      0x00\n      dup2\n      0x00\n      swap1\n      sstore\n      pop\n      0x01\n      add\n      jump(tag_185)\n    tag_186:\n      pop\n      swap1\n      jump\t// out\n        /* \"#utility.yul\":7:82   */\n    tag_187:\n        /* \"#utility.yul\":40:46   */\n      0x00\n        /* \"#utility.yul\":73:75   */\n      0x40\n        /* \"#utility.yul\":67:76   */\n      mload\n        /* \"#utility.yul\":57:76   */\n      swap1\n      pop\n        /* \"#utility.yul\":7:82   */\n      swap1\n      jump\t// out\n        /* \"#utility.yul\":88:205   */\n    tag_188:\n        /* \"#utility.yul\":197:198   */\n      0x00\n        /* \"#utility.yul\":194:195   */\n      dup1\n        /* \"#utility.yul\":187:199   */\n      revert\n        /* \"#utility.yul\":211:328   */\n    tag_189:\n        /* \"#utility.yul\":320:321   */\n      0x00\n        /* \"#utility.yul\":317:318   */\n      dup1\n        /* \"#utility.yul\":310:322   */\n      revert\n        /* \"#utility.yul\":334:460   */\n    tag_190:\n        /* \"#utility.yul\":371:378   */\n      0x00\n        /* \"#utility.yul\":411:453   */\n      0xffffffffffffffffffffffffffffffffffffffff\n        /* \"#utility.yul\":404:409   */\n      dup3\n        /* \"#utility.yul\":400:454   */\n      and\n        /* \"#utility.yul\":389:454   */\n      swap1\n      pop\n        /* \"#utility.yul\":334:460   */\n      swap2\n      swap1\n      pop\n      jump\t// out\n        /* \"#utility.yul\":466:562   */\n    tag_191:\n        /* \"#utility.yul\":503:510   */\n      0x00\n        /* \"#utility.yul\":532:556   */\n      tag_278\n        /* \"#utility.yul\":550:555   */\n      dup3\n        /* \"#utility.yul\":532:556   */\n      tag_190\n      jump\t// in\n    tag_278:\n        /* \"#utility.yul\":521:556   */\n      swap1\n      pop\n        /* \"#utility.yul\":466:562   */\n      swap2\n      swap1\n      pop\n      jump\t// out\n        /* \"#utility.yul\":568:690   */\n    tag_192:\n        /* \"#utility.yul\":641:665   */\n      tag_280\n        /* \"#utility.yul\":659:664   */\n      dup2\n        /* \"#utility.yul\":641:665   */\n      tag_191\n      jump\t// in\n    tag_280:\n        /* \"#utility.yul\":634:639   */\n      dup2\n        /* \"#utility.yul\":631:666   */\n      eq\n        /* \"#utility.yul\":621:684   */\n      tag_281\n      jumpi\n        /* \"#utility.yul\":680:681   */\n      0x00\n        /* \"#utility.yul\":677:678   */\n      dup1\n        /* \"#utility.yul\":670:682   */\n      revert\n        /* \"#utility.yul\":621:684   */\n    tag_281:\n        /* \"#utility.yul\":568:690   */\n      pop\n      jump\t// out\n        /* \"#utility.yul\":696:835   */\n    tag_193:\n        /* \"#utility.yul\":742:747   */\n      0x00\n        /* \"#utility.yul\":780:786   */\n      dup2\n        /* \"#utility.yul\":767:787   */\n      calldataload\n        /* \"#utility.yul\":758:787   */\n      swap1\n      pop\n        /* \"#utility.yul\":796:829   */\n      tag_283\n        /* \"#utility.yul\":823:828   */\n      dup2\n        /* \"#utility.yul\":796:829   */\n      tag_192\n      jump\t// in\n    tag_283:\n        /* \"#utility.yul\":696:835   */\n      swap3\n      swap2\n      pop\n      pop\n      jump\t// out\n        /* \"#utility.yul\":841:958   */\n    tag_194:\n        /* \"#utility.yul\":950:951   */\n      0x00\n        /* \"#utility.yul\":947:948   */\n      dup1\n        /* \"#utility.yul\":940:952   */\n      revert\n        /* \"#utility.yul\":964:1066   */\n    tag_195:\n        /* \"#utility.yul\":1005:1011   */\n      0x00\n        /* \"#utility.yul\":1056:1058   */\n      0x1f\n        /* \"#utility.yul\":1052:1059   */\n      not\n        /* \"#utility.yul\":1047:1049   */\n      0x1f\n        /* \"#utility.yul\":1040:1045   */\n      dup4\n        /* \"#utility.yul\":1036:1050   */\n      add\n        /* \"#utility.yul\":1032:1060   */\n      and\n        /* \"#utility.yul\":1022:1060   */\n      swap1\n      pop\n        /* \"#utility.yul\":964:1066   */\n      swap2\n      swap1\n      pop\n      jump\t// out\n        /* \"#utility.yul\":1072:1252   */\n    tag_196:\n        /* \"#utility.yul\":1120:1197   */\n      0x4e487b7100000000000000000000000000000000000000000000000000000000\n        /* \"#utility.yul\":1117:1118   */\n      0x00\n        /* \"#utility.yul\":1110:1198   */\n      mstore\n        /* \"#utility.yul\":1217:1221   */\n      0x41\n        /* \"#utility.yul\":1214:1215   */\n      0x04\n        /* \"#utility.yul\":1207:1222   */\n      mstore\n        /* \"#utility.yul\":1241:1245   */\n      0x24\n        /* \"#utility.yul\":1238:1239   */\n      0x00\n        /* \"#utility.yul\":1231:1246   */\n      revert\n        /* \"#utility.yul\":1258:1539   */\n    tag_197:\n        /* \"#utility.yul\":1341:1368   */\n      tag_288\n        /* \"#utility.yul\":1363:1367   */\n      dup3\n        /* \"#utility.yul\":1341:1368   */\n      tag_195\n      jump\t// in\n    tag_288:\n        /* \"#utility.yul\":1333:1339   */\n      dup2\n        /* \"#utility.yul\":1329:1369   */\n      add\n        /* \"#utility.yul\":1471:1477   */\n      dup2\n        /* \"#utility.yul\":1459:1469   */\n      dup2\n        /* \"#utility.yul\":1456:1478   */\n      lt\n        /* \"#utility.yul\":1435:1453   */\n      0xffffffffffffffff\n        /* \"#utility.yul\":1423:1433   */\n      dup3\n        /* \"#utility.yul\":1420:1454   */\n      gt\n        /* \"#utility.yul\":1417:1479   */\n      or\n        /* \"#utility.yul\":1414:1502   */\n      iszero\n      tag_289\n      jumpi\n        /* \"#utility.yul\":1482:1500   */\n      tag_290\n      tag_196\n      jump\t// in\n    tag_290:\n        /* \"#utility.yul\":1414:1502   */\n    tag_289:\n        /* \"#utility.yul\":1522:1532   */\n      dup1\n        /* \"#utility.yul\":1518:1520   */\n      0x40\n        /* \"#utility.yul\":1511:1533   */\n      mstore\n        /* \"#utility.yul\":1301:1539   */\n      pop\n        /* \"#utility.yul\":1258:1539   */\n      pop\n      pop\n      jump\t// out\n        /* \"#utility.yul\":1545:1674   */\n    tag_198:\n        /* \"#utility.yul\":1579:1585   */\n      0x00\n        /* \"#utility.yul\":1606:1626   */\n      tag_292\n      tag_187\n      jump\t// in\n    tag_292:\n        /* \"#utility.yul\":1596:1626   */\n      swap1\n      pop\n        /* \"#utility.yul\":1635:1668   */\n      tag_293\n        /* \"#utility.yul\":1663:1667   */\n      dup3\n        /* \"#utility.yul\":1655:1661   */\n      dup3\n        /* \"#utility.yul\":1635:1668   */\n      tag_197\n      jump\t// in\n    tag_293:\n        /* \"#utility.yul\":1545:1674   */\n      swap2\n      swap1\n      pop\n      jump\t// out\n        /* \"#utility.yul\":1680:1991   */\n    tag_199:\n        /* \"#utility.yul\":1757:1761   */\n      0x00\n        /* \"#utility.yul\":1847:1865   */\n      0xffffffffffffffff\n        /* \"#utility.yul\":1839:1845   */\n      dup3\n        /* \"#utility.yul\":1836:1866   */\n      gt\n        /* \"#utility.yul\":1833:1889   */\n      iszero\n      tag_295\n      jumpi\n        /* \"#utility.yul\":1869:1887   */\n      tag_296\n      tag_196\n      jump\t// in\n    tag_296:\n        /* \"#utility.yul\":1833:1889   */\n    tag_295:\n        /* \"#utility.yul\":1919:1923   */\n      0x20\n        /* \"#utility.yul\":1911:1917   */\n      dup3\n        /* \"#utility.yul\":1907:1924   */\n      mul\n        /* \"#utility.yul\":1899:1924   */\n      swap1\n      pop\n        /* \"#utility.yul\":1979:1983   */\n      0x20\n        /* \"#utility.yul\":1973:1977   */\n      dup2\n        /* \"#utility.yul\":1969:1984   */\n      add\n        /* \"#utility.yul\":1961:1984   */\n      swap1\n      pop\n        /* \"#utility.yul\":1680:1991   */\n      swap2\n      swap1\n      pop\n      jump\t// out\n        /* \"#utility.yul\":1997:2114   */\n    tag_200:\n        /* \"#utility.yul\":2106:2107   */\n      0x00\n        /* \"#utility.yul\":2103:2104   */\n      dup1\n        /* \"#utility.yul\":2096:2108   */\n      revert\n        /* \"#utility.yul\":2120:2197   */\n    tag_201:\n        /* \"#utility.yul\":2157:2164   */\n      0x00\n        /* \"#utility.yul\":2186:2191   */\n      dup2\n        /* \"#utility.yul\":2175:2191   */\n      swap1\n      pop\n        /* \"#utility.yul\":2120:2197   */\n      swap2\n      swap1\n      pop\n      jump\t// out\n        /* \"#utility.yul\":2203:2325   */\n    tag_202:\n        /* \"#utility.yul\":2276:2300   */\n      tag_300\n        /* \"#utility.yul\":2294:2299   */\n      dup2\n        /* \"#utility.yul\":2276:2300   */\n      tag_201\n      jump\t// in\n    tag_300:\n        /* \"#utility.yul\":2269:2274   */\n      dup2\n        /* \"#utility.yul\":2266:2301   */\n      eq\n        /* \"#utility.yul\":2256:2319   */\n      tag_301\n      jumpi\n        /* \"#utility.yul\":2315:2316   */\n      0x00\n        /* \"#utility.yul\":2312:2313   */\n      dup1\n        /* \"#utility.yul\":2305:2317   */\n      revert\n        /* \"#utility.yul\":2256:2319   */\n    tag_301:\n        /* \"#utility.yul\":2203:2325   */\n      pop\n      jump\t// out\n        /* \"#utility.yul\":2331:2470   */\n    tag_203:\n        /* \"#utility.yul\":2377:2382   */\n      0x00\n        /* \"#utility.yul\":2415:2421   */\n      dup2\n        /* \"#utility.yul\":2402:2422   */\n      calldataload\n        /* \"#utility.yul\":2393:2422   */\n      swap1\n      pop\n        /* \"#utility.yul\":2431:2464   */\n      tag_303\n        /* \"#utility.yul\":2458:2463   */\n      dup2\n        /* \"#utility.yul\":2431:2464   */\n      tag_202\n      jump\t// in\n    tag_303:\n        /* \"#utility.yul\":2331:2470   */\n      swap3\n      swap2\n      pop\n      pop\n      jump\t// out\n        /* \"#utility.yul\":2493:3203   */\n    tag_204:\n        /* \"#utility.yul\":2589:2594   */\n      0x00\n        /* \"#utility.yul\":2614:2695   */\n      tag_305\n        /* \"#utility.yul\":2630:2694   */\n      tag_306\n        /* \"#utility.yul\":2687:2693   */\n      dup5\n        /* \"#utility.yul\":2630:2694   */\n      tag_199\n      jump\t// in\n    tag_306:\n        /* \"#utility.yul\":2614:2695   */\n      tag_198\n      jump\t// in\n    tag_305:\n        /* \"#utility.yul\":2605:2695   */\n      swap1\n      pop\n        /* \"#utility.yul\":2715:2720   */\n      dup1\n        /* \"#utility.yul\":2744:2750   */\n      dup4\n        /* \"#utility.yul\":2737:2742   */\n      dup3\n        /* \"#utility.yul\":2730:2751   */\n      mstore\n        /* \"#utility.yul\":2778:2782   */\n      0x20\n        /* \"#utility.yul\":2771:2776   */\n      dup3\n        /* \"#utility.yul\":2767:2783   */\n      add\n        /* \"#utility.yul\":2760:2783   */\n      swap1\n      pop\n        /* \"#utility.yul\":2831:2835   */\n      0x20\n        /* \"#utility.yul\":2823:2829   */\n      dup5\n        /* \"#utility.yul\":2819:2836   */\n      mul\n        /* \"#utility.yul\":2811:2817   */\n      dup4\n        /* \"#utility.yul\":2807:2837   */\n      add\n        /* \"#utility.yul\":2860:2863   */\n      dup6\n        /* \"#utility.yul\":2852:2858   */\n      dup2\n        /* \"#utility.yul\":2849:2864   */\n      gt\n        /* \"#utility.yul\":2846:2968   */\n      iszero\n      tag_307\n      jumpi\n        /* \"#utility.yul\":2879:2958   */\n      tag_308\n      tag_200\n      jump\t// in\n    tag_308:\n        /* \"#utility.yul\":2846:2968   */\n    tag_307:\n        /* \"#utility.yul\":2994:3000   */\n      dup4\n        /* \"#utility.yul\":2977:3197   */\n    tag_309:\n        /* \"#utility.yul\":3011:3017   */\n      dup2\n        /* \"#utility.yul\":3006:3009   */\n      dup2\n        /* \"#utility.yul\":3003:3018   */\n      lt\n        /* \"#utility.yul\":2977:3197   */\n      iszero\n      tag_311\n      jumpi\n        /* \"#utility.yul\":3086:3089   */\n      dup1\n        /* \"#utility.yul\":3115:3152   */\n      tag_312\n        /* \"#utility.yul\":3148:3151   */\n      dup9\n        /* \"#utility.yul\":3136:3146   */\n      dup3\n        /* \"#utility.yul\":3115:3152   */\n      tag_203\n      jump\t// in\n    tag_312:\n        /* \"#utility.yul\":3110:3113   */\n      dup5\n        /* \"#utility.yul\":3103:3153   */\n      mstore\n        /* \"#utility.yul\":3182:3186   */\n      0x20\n        /* \"#utility.yul\":3177:3180   */\n      dup5\n        /* \"#utility.yul\":3173:3187   */\n      add\n        /* \"#utility.yul\":3166:3187   */\n      swap4\n      pop\n        /* \"#utility.yul\":3053:3197   */\n      pop\n        /* \"#utility.yul\":3037:3041   */\n      0x20\n        /* \"#utility.yul\":3032:3035   */\n      dup2\n        /* \"#utility.yul\":3028:3042   */\n      add\n        /* \"#utility.yul\":3021:3042   */\n      swap1\n      pop\n        /* \"#utility.yul\":2977:3197   */\n      jump(tag_309)\n    tag_311:\n        /* \"#utility.yul\":2981:3002   */\n      pop\n        /* \"#utility.yul\":2595:3203   */\n      pop\n      pop\n        /* \"#utility.yul\":2493:3203   */\n      swap4\n      swap3\n      pop\n      pop\n      pop\n      jump\t// out\n        /* \"#utility.yul\":3226:3596   */\n    tag_205:\n        /* \"#utility.yul\":3297:3302   */\n      0x00\n        /* \"#utility.yul\":3346:3349   */\n      dup3\n        /* \"#utility.yul\":3339:3343   */\n      0x1f\n        /* \"#utility.yul\":3331:3337   */\n      dup4\n        /* \"#utility.yul\":3327:3344   */\n      add\n        /* \"#utility.yul\":3323:3350   */\n      slt\n        /* \"#utility.yul\":3313:3435   */\n      tag_314\n      jumpi\n        /* \"#utility.yul\":3354:3433   */\n      tag_315\n      tag_194\n      jump\t// in\n    tag_315:\n        /* \"#utility.yul\":3313:3435   */\n    tag_314:\n        /* \"#utility.yul\":3471:3477   */\n      dup2\n        /* \"#utility.yul\":3458:3478   */\n      calldataload\n        /* \"#utility.yul\":3496:3590   */\n      tag_316\n        /* \"#utility.yul\":3586:3589   */\n      dup5\n        /* \"#utility.yul\":3578:3584   */\n      dup3\n        /* \"#utility.yul\":3571:3575   */\n      0x20\n        /* \"#utility.yul\":3563:3569   */\n      dup7\n        /* \"#utility.yul\":3559:3576   */\n      add\n        /* \"#utility.yul\":3496:3590   */\n      tag_204\n      jump\t// in\n    tag_316:\n        /* \"#utility.yul\":3487:3590   */\n      swap2\n      pop\n        /* \"#utility.yul\":3303:3596   */\n      pop\n        /* \"#utility.yul\":3226:3596   */\n      swap3\n      swap2\n      pop\n      pop\n      jump\t// out\n        /* \"#utility.yul\":3602:4286   */\n    tag_18:\n        /* \"#utility.yul\":3695:3701   */\n      0x00\n        /* \"#utility.yul\":3703:3709   */\n      dup1\n        /* \"#utility.yul\":3752:3754   */\n      0x40\n        /* \"#utility.yul\":3740:3749   */\n      dup4\n        /* \"#utility.yul\":3731:3738   */\n      dup6\n        /* \"#utility.yul\":3727:3750   */\n      sub\n        /* \"#utility.yul\":3723:3755   */\n      slt\n        /* \"#utility.yul\":3720:3839   */\n      iszero\n      tag_318\n      jumpi\n        /* \"#utility.yul\":3758:3837   */\n      tag_319\n      tag_188\n      jump\t// in\n    tag_319:\n        /* \"#utility.yul\":3720:3839   */\n    tag_318:\n        /* \"#utility.yul\":3878:3879   */\n      0x00\n        /* \"#utility.yul\":3903:3956   */\n      tag_320\n        /* \"#utility.yul\":3948:3955   */\n      dup6\n        /* \"#utility.yul\":3939:3945   */\n      dup3\n        /* \"#utility.yul\":3928:3937   */\n      dup7\n        /* \"#utility.yul\":3924:3946   */\n      add\n        /* \"#utility.yul\":3903:3956   */\n      tag_193\n      jump\t// in\n    tag_320:\n        /* \"#utility.yul\":3893:3956   */\n      swap3\n      pop\n        /* \"#utility.yul\":3849:3966   */\n      pop\n        /* \"#utility.yul\":4033:4035   */\n      0x20\n        /* \"#utility.yul\":4022:4031   */\n      dup4\n        /* \"#utility.yul\":4018:4036   */\n      add\n        /* \"#utility.yul\":4005:4037   */\n      calldataload\n        /* \"#utility.yul\":4064:4082   */\n      0xffffffffffffffff\n        /* \"#utility.yul\":4056:4062   */\n      dup2\n        /* \"#utility.yul\":4053:4083   */\n      gt\n        /* \"#utility.yul\":4050:4167   */\n      iszero\n      tag_321\n      jumpi\n        /* \"#utility.yul\":4086:4165   */\n      tag_322\n      tag_189\n      jump\t// in\n    tag_322:\n        /* \"#utility.yul\":4050:4167   */\n    tag_321:\n        /* \"#utility.yul\":4191:4269   */\n      tag_323\n        /* \"#utility.yul\":4261:4268   */\n      dup6\n        /* \"#utility.yul\":4252:4258   */\n      dup3\n        /* \"#utility.yul\":4241:4250   */\n      dup7\n        /* \"#utility.yul\":4237:4259   */\n      add\n        /* \"#utility.yul\":4191:4269   */\n      tag_205\n      jump\t// in\n    tag_323:\n        /* \"#utility.yul\":4181:4269   */\n      swap2\n      pop\n        /* \"#utility.yul\":3976:4279   */\n      pop\n        /* \"#utility.yul\":3602:4286   */\n      swap3\n      pop\n      swap3\n      swap1\n      pop\n      jump\t// out\n        /* \"#utility.yul\":4292:4621   */\n    tag_22:\n        /* \"#utility.yul\":4351:4357   */\n      0x00\n        /* \"#utility.yul\":4400:4402   */\n      0x20\n        /* \"#utility.yul\":4388:4397   */\n      dup3\n        /* \"#utility.yul\":4379:4386   */\n      dup5\n        /* \"#utility.yul\":4375:4398   */\n      sub\n        /* \"#utility.yul\":4371:4403   */\n      slt\n        /* \"#utility.yul\":4368:4487   */\n      iszero\n      tag_325\n      jumpi\n        /* \"#utility.yul\":4406:4485   */\n      tag_326\n      tag_188\n      jump\t// in\n    tag_326:\n        /* \"#utility.yul\":4368:4487   */\n    tag_325:\n        /* \"#utility.yul\":4526:4527   */\n      0x00\n        /* \"#utility.yul\":4551:4604   */\n      tag_327\n        /* \"#utility.yul\":4596:4603   */\n      dup5\n        /* \"#utility.yul\":4587:4593   */\n      dup3\n        /* \"#utility.yul\":4576:4585   */\n      dup6\n        /* \"#utility.yul\":4572:4594   */\n      add\n        /* \"#utility.yul\":4551:4604   */\n      tag_193\n      jump\t// in\n    tag_327:\n        /* \"#utility.yul\":4541:4604   */\n      swap2\n      pop\n        /* \"#utility.yul\":4497:4614   */\n      pop\n        /* \"#utility.yul\":4292:4621   */\n      swap3\n      swap2\n      pop\n      pop\n      jump\t// out\n        /* \"#utility.yul\":4627:4717   */\n    tag_206:\n        /* \"#utility.yul\":4661:4668   */\n      0x00\n        /* \"#utility.yul\":4704:4709   */\n      dup2\n        /* \"#utility.yul\":4697:4710   */\n      iszero\n        /* \"#utility.yul\":4690:4711   */\n      iszero\n        /* \"#utility.yul\":4679:4711   */\n      swap1\n      pop\n        /* \"#utility.yul\":4627:4717   */\n      swap2\n      swap1\n      pop\n      jump\t// out\n        /* \"#utility.yul\":4723:4832   */\n    tag_207:\n        /* \"#utility.yul\":4804:4825   */\n      tag_330\n        /* \"#utility.yul\":4819:4824   */\n      dup2\n        /* \"#utility.yul\":4804:4825   */\n      tag_206\n      jump\t// in\n    tag_330:\n        /* \"#utility.yul\":4799:4802   */\n      dup3\n        /* \"#utility.yul\":4792:4826   */\n      mstore\n        /* \"#utility.yul\":4723:4832   */\n      pop\n      pop\n      jump\t// out\n        /* \"#utility.yul\":4838:5048   */\n    tag_32:\n        /* \"#utility.yul\":4925:4929   */\n      0x00\n        /* \"#utility.yul\":4963:4965   */\n      0x20\n        /* \"#utility.yul\":4952:4961   */\n      dup3\n        /* \"#utility.yul\":4948:4966   */\n      add\n        /* \"#utility.yul\":4940:4966   */\n      swap1\n      pop\n        /* \"#utility.yul\":4976:5041   */\n      tag_332\n        /* \"#utility.yul\":5038:5039   */\n      0x00\n        /* \"#utility.yul\":5027:5036   */\n      dup4\n        /* \"#utility.yul\":5023:5040   */\n      add\n        /* \"#utility.yul\":5014:5020   */\n      dup5\n        /* \"#utility.yul\":4976:5041   */\n      tag_207\n      jump\t// in\n    tag_332:\n        /* \"#utility.yul\":4838:5048   */\n      swap3\n      swap2\n      pop\n      pop\n      jump\t// out\n        /* \"#utility.yul\":5054:5153   */\n    tag_208:\n        /* \"#utility.yul\":5106:5112   */\n      0x00\n        /* \"#utility.yul\":5140:5145   */\n      dup2\n        /* \"#utility.yul\":5134:5146   */\n      mload\n        /* \"#utility.yul\":5124:5146   */\n      swap1\n      pop\n        /* \"#utility.yul\":5054:5153   */\n      swap2\n      swap1\n      pop\n      jump\t// out\n        /* \"#utility.yul\":5159:5328   */\n    tag_209:\n        /* \"#utility.yul\":5243:5254   */\n      0x00\n        /* \"#utility.yul\":5277:5283   */\n      dup3\n        /* \"#utility.yul\":5272:5275   */\n      dup3\n        /* \"#utility.yul\":5265:5284   */\n      mstore\n        /* \"#utility.yul\":5317:5321   */\n      0x20\n        /* \"#utility.yul\":5312:5315   */\n      dup3\n        /* \"#utility.yul\":5308:5322   */\n      add\n        /* \"#utility.yul\":5293:5322   */\n      swap1\n      pop\n        /* \"#utility.yul\":5159:5328   */\n      swap3\n      swap2\n      pop\n      pop\n      jump\t// out\n        /* \"#utility.yul\":5334:5580   */\n    tag_210:\n        /* \"#utility.yul\":5415:5416   */\n      0x00\n        /* \"#utility.yul\":5425:5538   */\n    tag_336:\n        /* \"#utility.yul\":5439:5445   */\n      dup4\n        /* \"#utility.yul\":5436:5437   */\n      dup2\n        /* \"#utility.yul\":5433:5446   */\n      lt\n        /* \"#utility.yul\":5425:5538   */\n      iszero\n      tag_338\n      jumpi\n        /* \"#utility.yul\":5524:5525   */\n      dup1\n        /* \"#utility.yul\":5519:5522   */\n      dup3\n        /* \"#utility.yul\":5515:5526   */\n      add\n        /* \"#utility.yul\":5509:5527   */\n      mload\n        /* \"#utility.yul\":5505:5506   */\n      dup2\n        /* \"#utility.yul\":5500:5503   */\n      dup5\n        /* \"#utility.yul\":5496:5507   */\n      add\n        /* \"#utility.yul\":5489:5528   */\n      mstore\n        /* \"#utility.yul\":5461:5463   */\n      0x20\n        /* \"#utility.yul\":5458:5459   */\n      dup2\n        /* \"#utility.yul\":5454:5464   */\n      add\n        /* \"#utility.yul\":5449:5464   */\n      swap1\n      pop\n        /* \"#utility.yul\":5425:5538   */\n      jump(tag_336)\n    tag_338:\n        /* \"#utility.yul\":5572:5573   */\n      0x00\n        /* \"#utility.yul\":5563:5569   */\n      dup5\n        /* \"#utility.yul\":5558:5561   */\n      dup5\n        /* \"#utility.yul\":5554:5570   */\n      add\n        /* \"#utility.yul\":5547:5574   */\n      mstore\n        /* \"#utility.yul\":5396:5580   */\n      pop\n        /* \"#utility.yul\":5334:5580   */\n      pop\n      pop\n      pop\n      jump\t// out\n        /* \"#utility.yul\":5586:5963   */\n    tag_211:\n        /* \"#utility.yul\":5674:5677   */\n      0x00\n        /* \"#utility.yul\":5702:5741   */\n      tag_340\n        /* \"#utility.yul\":5735:5740   */\n      dup3\n        /* \"#utility.yul\":5702:5741   */\n      tag_208\n      jump\t// in\n    tag_340:\n        /* \"#utility.yul\":5757:5828   */\n      tag_341\n        /* \"#utility.yul\":5821:5827   */\n      dup2\n        /* \"#utility.yul\":5816:5819   */\n      dup6\n        /* \"#utility.yul\":5757:5828   */\n      tag_209\n      jump\t// in\n    tag_341:\n        /* \"#utility.yul\":5750:5828   */\n      swap4\n      pop\n        /* \"#utility.yul\":5837:5902   */\n      tag_342\n        /* \"#utility.yul\":5895:5901   */\n      dup2\n        /* \"#utility.yul\":5890:5893   */\n      dup6\n        /* \"#utility.yul\":5883:5887   */\n      0x20\n        /* \"#utility.yul\":5876:5881   */\n      dup7\n        /* \"#utility.yul\":5872:5888   */\n      add\n        /* \"#utility.yul\":5837:5902   */\n      tag_210\n      jump\t// in\n    tag_342:\n        /* \"#utility.yul\":5927:5956   */\n      tag_343\n        /* \"#utility.yul\":5949:5955   */\n      dup2\n        /* \"#utility.yul\":5927:5956   */\n      tag_195\n      jump\t// in\n    tag_343:\n        /* \"#utility.yul\":5922:5925   */\n      dup5\n        /* \"#utility.yul\":5918:5957   */\n      add\n        /* \"#utility.yul\":5911:5957   */\n      swap2\n      pop\n        /* \"#utility.yul\":5678:5963   */\n      pop\n        /* \"#utility.yul\":5586:5963   */\n      swap3\n      swap2\n      pop\n      pop\n      jump\t// out\n        /* \"#utility.yul\":5969:6087   */\n    tag_212:\n        /* \"#utility.yul\":6056:6080   */\n      tag_345\n        /* \"#utility.yul\":6074:6079   */\n      dup2\n        /* \"#utility.yul\":6056:6080   */\n      tag_201\n      jump\t// in\n    tag_345:\n        /* \"#utility.yul\":6051:6054   */\n      dup3\n        /* \"#utility.yul\":6044:6081   */\n      mstore\n        /* \"#utility.yul\":5969:6087   */\n      pop\n      pop\n      jump\t// out\n        /* \"#utility.yul\":6093:6207   */\n    tag_213:\n        /* \"#utility.yul\":6160:6166   */\n      0x00\n        /* \"#utility.yul\":6194:6199   */\n      dup2\n        /* \"#utility.yul\":6188:6200   */\n      mload\n        /* \"#utility.yul\":6178:6200   */\n      swap1\n      pop\n        /* \"#utility.yul\":6093:6207   */\n      swap2\n      swap1\n      pop\n      jump\t// out\n        /* \"#utility.yul\":6213:6397   */\n    tag_214:\n        /* \"#utility.yul\":6312:6323   */\n      0x00\n        /* \"#utility.yul\":6346:6352   */\n      dup3\n        /* \"#utility.yul\":6341:6344   */\n      dup3\n        /* \"#utility.yul\":6334:6353   */\n      mstore\n        /* \"#utility.yul\":6386:6390   */\n      0x20\n        /* \"#utility.yul\":6381:6384   */\n      dup3\n        /* \"#utility.yul\":6377:6391   */\n      add\n        /* \"#utility.yul\":6362:6391   */\n      swap1\n      pop\n        /* \"#utility.yul\":6213:6397   */\n      swap3\n      swap2\n      pop\n      pop\n      jump\t// out\n        /* \"#utility.yul\":6403:6535   */\n    tag_215:\n        /* \"#utility.yul\":6470:6474   */\n      0x00\n        /* \"#utility.yul\":6493:6496   */\n      dup2\n        /* \"#utility.yul\":6485:6496   */\n      swap1\n      pop\n        /* \"#utility.yul\":6523:6527   */\n      0x20\n        /* \"#utility.yul\":6518:6521   */\n      dup3\n        /* \"#utility.yul\":6514:6528   */\n      add\n        /* \"#utility.yul\":6506:6528   */\n      swap1\n      pop\n        /* \"#utility.yul\":6403:6535   */\n      swap2\n      swap1\n      pop\n      jump\t// out\n        /* \"#utility.yul\":6541:6649   */\n    tag_216:\n        /* \"#utility.yul\":6618:6642   */\n      tag_350\n        /* \"#utility.yul\":6636:6641   */\n      dup2\n        /* \"#utility.yul\":6618:6642   */\n      tag_201\n      jump\t// in\n    tag_350:\n        /* \"#utility.yul\":6613:6616   */\n      dup3\n        /* \"#utility.yul\":6606:6643   */\n      mstore\n        /* \"#utility.yul\":6541:6649   */\n      pop\n      pop\n      jump\t// out\n        /* \"#utility.yul\":6655:6834   */\n    tag_217:\n        /* \"#utility.yul\":6724:6734   */\n      0x00\n        /* \"#utility.yul\":6745:6791   */\n      tag_352\n        /* \"#utility.yul\":6787:6790   */\n      dup4\n        /* \"#utility.yul\":6779:6785   */\n      dup4\n        /* \"#utility.yul\":6745:6791   */\n      tag_216\n      jump\t// in\n    tag_352:\n        /* \"#utility.yul\":6823:6827   */\n      0x20\n        /* \"#utility.yul\":6818:6821   */\n      dup4\n        /* \"#utility.yul\":6814:6828   */\n      add\n        /* \"#utility.yul\":6800:6828   */\n      swap1\n      pop\n        /* \"#utility.yul\":6655:6834   */\n      swap3\n      swap2\n      pop\n      pop\n      jump\t// out\n        /* \"#utility.yul\":6840:6953   */\n    tag_218:\n        /* \"#utility.yul\":6910:6914   */\n      0x00\n        /* \"#utility.yul\":6942:6946   */\n      0x20\n        /* \"#utility.yul\":6937:6940   */\n      dup3\n        /* \"#utility.yul\":6933:6947   */\n      add\n        /* \"#utility.yul\":6925:6947   */\n      swap1\n      pop\n        /* \"#utility.yul\":6840:6953   */\n      swap2\n      swap1\n      pop\n      jump\t// out\n        /* \"#utility.yul\":6989:7721   */\n    tag_219:\n        /* \"#utility.yul\":7108:7111   */\n      0x00\n        /* \"#utility.yul\":7137:7191   */\n      tag_355\n        /* \"#utility.yul\":7185:7190   */\n      dup3\n        /* \"#utility.yul\":7137:7191   */\n      tag_213\n      jump\t// in\n    tag_355:\n        /* \"#utility.yul\":7207:7293   */\n      tag_356\n        /* \"#utility.yul\":7286:7292   */\n      dup2\n        /* \"#utility.yul\":7281:7284   */\n      dup6\n        /* \"#utility.yul\":7207:7293   */\n      tag_214\n      jump\t// in\n    tag_356:\n        /* \"#utility.yul\":7200:7293   */\n      swap4\n      pop\n        /* \"#utility.yul\":7317:7373   */\n      tag_357\n        /* \"#utility.yul\":7367:7372   */\n      dup4\n        /* \"#utility.yul\":7317:7373   */\n      tag_215\n      jump\t// in\n    tag_357:\n        /* \"#utility.yul\":7396:7403   */\n      dup1\n        /* \"#utility.yul\":7427:7428   */\n      0x00\n        /* \"#utility.yul\":7412:7696   */\n    tag_358:\n        /* \"#utility.yul\":7437:7443   */\n      dup4\n        /* \"#utility.yul\":7434:7435   */\n      dup2\n        /* \"#utility.yul\":7431:7444   */\n      lt\n        /* \"#utility.yul\":7412:7696   */\n      iszero\n      tag_360\n      jumpi\n        /* \"#utility.yul\":7513:7519   */\n      dup2\n        /* \"#utility.yul\":7507:7520   */\n      mload\n        /* \"#utility.yul\":7540:7603   */\n      tag_361\n        /* \"#utility.yul\":7599:7602   */\n      dup9\n        /* \"#utility.yul\":7584:7597   */\n      dup3\n        /* \"#utility.yul\":7540:7603   */\n      tag_217\n      jump\t// in\n    tag_361:\n        /* \"#utility.yul\":7533:7603   */\n      swap8\n      pop\n        /* \"#utility.yul\":7626:7686   */\n      tag_362\n        /* \"#utility.yul\":7679:7685   */\n      dup4\n        /* \"#utility.yul\":7626:7686   */\n      tag_218\n      jump\t// in\n    tag_362:\n        /* \"#utility.yul\":7616:7686   */\n      swap3\n      pop\n        /* \"#utility.yul\":7472:7696   */\n      pop\n        /* \"#utility.yul\":7459:7460   */\n      0x01\n        /* \"#utility.yul\":7456:7457   */\n      dup2\n        /* \"#utility.yul\":7452:7461   */\n      add\n        /* \"#utility.yul\":7447:7461   */\n      swap1\n      pop\n        /* \"#utility.yul\":7412:7696   */\n      jump(tag_358)\n    tag_360:\n        /* \"#utility.yul\":7416:7430   */\n      pop\n        /* \"#utility.yul\":7712:7715   */\n      dup6\n        /* \"#utility.yul\":7705:7715   */\n      swap4\n      pop\n        /* \"#utility.yul\":7113:7721   */\n      pop\n      pop\n      pop\n        /* \"#utility.yul\":6989:7721   */\n      swap3\n      swap2\n      pop\n      pop\n      jump\t// out\n        /* \"#utility.yul\":7727:8835   */\n    tag_37:\n        /* \"#utility.yul\":8050:8054   */\n      0x00\n        /* \"#utility.yul\":8088:8091   */\n      0xc0\n        /* \"#utility.yul\":8077:8086   */\n      dup3\n        /* \"#utility.yul\":8073:8092   */\n      add\n        /* \"#utility.yul\":8065:8092   */\n      swap1\n      pop\n        /* \"#utility.yul\":8138:8147   */\n      dup2\n        /* \"#utility.yul\":8132:8136   */\n      dup2\n        /* \"#utility.yul\":8128:8148   */\n      sub\n        /* \"#utility.yul\":8124:8125   */\n      0x00\n        /* \"#utility.yul\":8113:8122   */\n      dup4\n        /* \"#utility.yul\":8109:8126   */\n      add\n        /* \"#utility.yul\":8102:8149   */\n      mstore\n        /* \"#utility.yul\":8166:8244   */\n      tag_364\n        /* \"#utility.yul\":8239:8243   */\n      dup2\n        /* \"#utility.yul\":8230:8236   */\n      dup10\n        /* \"#utility.yul\":8166:8244   */\n      tag_211\n      jump\t// in\n    tag_364:\n        /* \"#utility.yul\":8158:8244   */\n      swap1\n      pop\n        /* \"#utility.yul\":8254:8326   */\n      tag_365\n        /* \"#utility.yul\":8322:8324   */\n      0x20\n        /* \"#utility.yul\":8311:8320   */\n      dup4\n        /* \"#utility.yul\":8307:8325   */\n      add\n        /* \"#utility.yul\":8298:8304   */\n      dup9\n        /* \"#utility.yul\":8254:8326   */\n      tag_212\n      jump\t// in\n    tag_365:\n        /* \"#utility.yul\":8373:8382   */\n      dup2\n        /* \"#utility.yul\":8367:8371   */\n      dup2\n        /* \"#utility.yul\":8363:8383   */\n      sub\n        /* \"#utility.yul\":8358:8360   */\n      0x40\n        /* \"#utility.yul\":8347:8356   */\n      dup4\n        /* \"#utility.yul\":8343:8361   */\n      add\n        /* \"#utility.yul\":8336:8384   */\n      mstore\n        /* \"#utility.yul\":8401:8509   */\n      tag_366\n        /* \"#utility.yul\":8504:8508   */\n      dup2\n        /* \"#utility.yul\":8495:8501   */\n      dup8\n        /* \"#utility.yul\":8401:8509   */\n      tag_219\n      jump\t// in\n    tag_366:\n        /* \"#utility.yul\":8393:8509   */\n      swap1\n      pop\n        /* \"#utility.yul\":8519:8591   */\n      tag_367\n        /* \"#utility.yul\":8587:8589   */\n      0x60\n        /* \"#utility.yul\":8576:8585   */\n      dup4\n        /* \"#utility.yul\":8572:8590   */\n      add\n        /* \"#utility.yul\":8563:8569   */\n      dup7\n        /* \"#utility.yul\":8519:8591   */\n      tag_212\n      jump\t// in\n    tag_367:\n        /* \"#utility.yul\":8639:8648   */\n      dup2\n        /* \"#utility.yul\":8633:8637   */\n      dup2\n        /* \"#utility.yul\":8629:8649   */\n      sub\n        /* \"#utility.yul\":8623:8626   */\n      0x80\n        /* \"#utility.yul\":8612:8621   */\n      dup4\n        /* \"#utility.yul\":8608:8627   */\n      add\n        /* \"#utility.yul\":8601:8650   */\n      mstore\n        /* \"#utility.yul\":8667:8745   */\n      tag_368\n        /* \"#utility.yul\":8740:8744   */\n      dup2\n        /* \"#utility.yul\":8731:8737   */\n      dup6\n        /* \"#utility.yul\":8667:8745   */\n      tag_211\n      jump\t// in\n    tag_368:\n        /* \"#utility.yul\":8659:8745   */\n      swap1\n      pop\n        /* \"#utility.yul\":8755:8828   */\n      tag_369\n        /* \"#utility.yul\":8823:8826   */\n      0xa0\n        /* \"#utility.yul\":8812:8821   */\n      dup4\n        /* \"#utility.yul\":8808:8827   */\n      add\n        /* \"#utility.yul\":8799:8805   */\n      dup5\n        /* \"#utility.yul\":8755:8828   */\n      tag_212\n      jump\t// in\n    tag_369:\n        /* \"#utility.yul\":7727:8835   */\n      swap8\n      swap7\n      pop\n      pop\n      pop\n      pop\n      pop\n      pop\n      pop\n      jump\t// out\n        /* \"#utility.yul\":8841:8959   */\n    tag_220:\n        /* \"#utility.yul\":8928:8952   */\n      tag_371\n        /* \"#utility.yul\":8946:8951   */\n      dup2\n        /* \"#utility.yul\":8928:8952   */\n      tag_191\n      jump\t// in\n    tag_371:\n        /* \"#utility.yul\":8923:8926   */\n      dup3\n        /* \"#utility.yul\":8916:8953   */\n      mstore\n        /* \"#utility.yul\":8841:8959   */\n      pop\n      pop\n      jump\t// out\n        /* \"#utility.yul\":8965:9187   */\n    tag_43:\n        /* \"#utility.yul\":9058:9062   */\n      0x00\n        /* \"#utility.yul\":9096:9098   */\n      0x20\n        /* \"#utility.yul\":9085:9094   */\n      dup3\n        /* \"#utility.yul\":9081:9099   */\n      add\n        /* \"#utility.yul\":9073:9099   */\n      swap1\n      pop\n        /* \"#utility.yul\":9109:9180   */\n      tag_373\n        /* \"#utility.yul\":9177:9178   */\n      0x00\n        /* \"#utility.yul\":9166:9175   */\n      dup4\n        /* \"#utility.yul\":9162:9179   */\n      add\n        /* \"#utility.yul\":9153:9159   */\n      dup5\n        /* \"#utility.yul\":9109:9180   */\n      tag_220\n      jump\t// in\n    tag_373:\n        /* \"#utility.yul\":8965:9187   */\n      swap3\n      swap2\n      pop\n      pop\n      jump\t// out\n        /* \"#utility.yul\":9193:9714   */\n    tag_48:\n        /* \"#utility.yul\":9356:9360   */\n      0x00\n        /* \"#utility.yul\":9394:9396   */\n      0x60\n        /* \"#utility.yul\":9383:9392   */\n      dup3\n        /* \"#utility.yul\":9379:9397   */\n      add\n        /* \"#utility.yul\":9371:9397   */\n      swap1\n      pop\n        /* \"#utility.yul\":9443:9452   */\n      dup2\n        /* \"#utility.yul\":9437:9441   */\n      dup2\n        /* \"#utility.yul\":9433:9453   */\n      sub\n        /* \"#utility.yul\":9429:9430   */\n      0x00\n        /* \"#utility.yul\":9418:9427   */\n      dup4\n        /* \"#utility.yul\":9414:9431   */\n      add\n        /* \"#utility.yul\":9407:9454   */\n      mstore\n        /* \"#utility.yul\":9471:9549   */\n      tag_375\n        /* \"#utility.yul\":9544:9548   */\n      dup2\n        /* \"#utility.yul\":9535:9541   */\n      dup7\n        /* \"#utility.yul\":9471:9549   */\n      tag_211\n      jump\t// in\n    tag_375:\n        /* \"#utility.yul\":9463:9549   */\n      swap1\n      pop\n        /* \"#utility.yul\":9559:9631   */\n      tag_376\n        /* \"#utility.yul\":9627:9629   */\n      0x20\n        /* \"#utility.yul\":9616:9625   */\n      dup4\n        /* \"#utility.yul\":9612:9630   */\n      add\n        /* \"#utility.yul\":9603:9609   */\n      dup6\n        /* \"#utility.yul\":9559:9631   */\n      tag_212\n      jump\t// in\n    tag_376:\n        /* \"#utility.yul\":9641:9707   */\n      tag_377\n        /* \"#utility.yul\":9703:9705   */\n      0x40\n        /* \"#utility.yul\":9692:9701   */\n      dup4\n        /* \"#utility.yul\":9688:9706   */\n      add\n        /* \"#utility.yul\":9679:9685   */\n      dup5\n        /* \"#utility.yul\":9641:9707   */\n      tag_207\n      jump\t// in\n    tag_377:\n        /* \"#utility.yul\":9193:9714   */\n      swap5\n      swap4\n      pop\n      pop\n      pop\n      pop\n      jump\t// out\n        /* \"#utility.yul\":9720:9837   */\n    tag_221:\n        /* \"#utility.yul\":9829:9830   */\n      0x00\n        /* \"#utility.yul\":9826:9827   */\n      dup1\n        /* \"#utility.yul\":9819:9831   */\n      revert\n        /* \"#utility.yul\":9843:10151   */\n    tag_222:\n        /* \"#utility.yul\":9905:9909   */\n      0x00\n        /* \"#utility.yul\":9995:10013   */\n      0xffffffffffffffff\n        /* \"#utility.yul\":9987:9993   */\n      dup3\n        /* \"#utility.yul\":9984:10014   */\n      gt\n        /* \"#utility.yul\":9981:10037   */\n      iszero\n      tag_380\n      jumpi\n        /* \"#utility.yul\":10017:10035   */\n      tag_381\n      tag_196\n      jump\t// in\n    tag_381:\n        /* \"#utility.yul\":9981:10037   */\n    tag_380:\n        /* \"#utility.yul\":10055:10084   */\n      tag_382\n        /* \"#utility.yul\":10077:10083   */\n      dup3\n        /* \"#utility.yul\":10055:10084   */\n      tag_195\n      jump\t// in\n    tag_382:\n        /* \"#utility.yul\":10047:10084   */\n      swap1\n      pop\n        /* \"#utility.yul\":10139:10143   */\n      0x20\n        /* \"#utility.yul\":10133:10137   */\n      dup2\n        /* \"#utility.yul\":10129:10144   */\n      add\n        /* \"#utility.yul\":10121:10144   */\n      swap1\n      pop\n        /* \"#utility.yul\":9843:10151   */\n      swap2\n      swap1\n      pop\n      jump\t// out\n        /* \"#utility.yul\":10157:10303   */\n    tag_223:\n        /* \"#utility.yul\":10254:10260   */\n      dup3\n        /* \"#utility.yul\":10249:10252   */\n      dup2\n        /* \"#utility.yul\":10244:10247   */\n      dup4\n        /* \"#utility.yul\":10231:10261   */\n      calldatacopy\n        /* \"#utility.yul\":10295:10296   */\n      0x00\n        /* \"#utility.yul\":10286:10292   */\n      dup4\n        /* \"#utility.yul\":10281:10284   */\n      dup4\n        /* \"#utility.yul\":10277:10293   */\n      add\n        /* \"#utility.yul\":10270:10297   */\n      mstore\n        /* \"#utility.yul\":10157:10303   */\n      pop\n      pop\n      pop\n      jump\t// out\n        /* \"#utility.yul\":10309:10734   */\n    tag_224:\n        /* \"#utility.yul\":10387:10392   */\n      0x00\n        /* \"#utility.yul\":10412:10478   */\n      tag_385\n        /* \"#utility.yul\":10428:10477   */\n      tag_386\n        /* \"#utility.yul\":10470:10476   */\n      dup5\n        /* \"#utility.yul\":10428:10477   */\n      tag_222\n      jump\t// in\n    tag_386:\n        /* \"#utility.yul\":10412:10478   */\n      tag_198\n      jump\t// in\n    tag_385:\n        /* \"#utility.yul\":10403:10478   */\n      swap1\n      pop\n        /* \"#utility.yul\":10501:10507   */\n      dup3\n        /* \"#utility.yul\":10494:10499   */\n      dup2\n        /* \"#utility.yul\":10487:10508   */\n      mstore\n        /* \"#utility.yul\":10539:10543   */\n      0x20\n        /* \"#utility.yul\":10532:10537   */\n      dup2\n        /* \"#utility.yul\":10528:10544   */\n      add\n        /* \"#utility.yul\":10577:10580   */\n      dup5\n        /* \"#utility.yul\":10568:10574   */\n      dup5\n        /* \"#utility.yul\":10563:10566   */\n      dup5\n        /* \"#utility.yul\":10559:10575   */\n      add\n        /* \"#utility.yul\":10556:10581   */\n      gt\n        /* \"#utility.yul\":10553:10665   */\n      iszero\n      tag_387\n      jumpi\n        /* \"#utility.yul\":10584:10663   */\n      tag_388\n      tag_221\n      jump\t// in\n    tag_388:\n        /* \"#utility.yul\":10553:10665   */\n    tag_387:\n        /* \"#utility.yul\":10674:10728   */\n      tag_389\n        /* \"#utility.yul\":10721:10727   */\n      dup5\n        /* \"#utility.yul\":10716:10719   */\n      dup3\n        /* \"#utility.yul\":10711:10714   */\n      dup6\n        /* \"#utility.yul\":10674:10728   */\n      tag_223\n      jump\t// in\n    tag_389:\n        /* \"#utility.yul\":10393:10734   */\n      pop\n        /* \"#utility.yul\":10309:10734   */\n      swap4\n      swap3\n      pop\n      pop\n      pop\n      jump\t// out\n        /* \"#utility.yul\":10754:11094   */\n    tag_225:\n        /* \"#utility.yul\":10810:10815   */\n      0x00\n        /* \"#utility.yul\":10859:10862   */\n      dup3\n        /* \"#utility.yul\":10852:10856   */\n      0x1f\n        /* \"#utility.yul\":10844:10850   */\n      dup4\n        /* \"#utility.yul\":10840:10857   */\n      add\n        /* \"#utility.yul\":10836:10863   */\n      slt\n        /* \"#utility.yul\":10826:10948   */\n      tag_391\n      jumpi\n        /* \"#utility.yul\":10867:10946   */\n      tag_392\n      tag_194\n      jump\t// in\n    tag_392:\n        /* \"#utility.yul\":10826:10948   */\n    tag_391:\n        /* \"#utility.yul\":10984:10990   */\n      dup2\n        /* \"#utility.yul\":10971:10991   */\n      calldataload\n        /* \"#utility.yul\":11009:11088   */\n      tag_393\n        /* \"#utility.yul\":11084:11087   */\n      dup5\n        /* \"#utility.yul\":11076:11082   */\n      dup3\n        /* \"#utility.yul\":11069:11073   */\n      0x20\n        /* \"#utility.yul\":11061:11067   */\n      dup7\n        /* \"#utility.yul\":11057:11074   */\n      add\n        /* \"#utility.yul\":11009:11088   */\n      tag_224\n      jump\t// in\n    tag_393:\n        /* \"#utility.yul\":11000:11088   */\n      swap2\n      pop\n        /* \"#utility.yul\":10816:11094   */\n      pop\n        /* \"#utility.yul\":10754:11094   */\n      swap3\n      swap2\n      pop\n      pop\n      jump\t// out\n        /* \"#utility.yul\":11100:11899   */\n    tag_55:\n        /* \"#utility.yul\":11187:11193   */\n      0x00\n        /* \"#utility.yul\":11195:11201   */\n      dup1\n        /* \"#utility.yul\":11203:11209   */\n      0x00\n        /* \"#utility.yul\":11252:11254   */\n      0x60\n        /* \"#utility.yul\":11240:11249   */\n      dup5\n        /* \"#utility.yul\":11231:11238   */\n      dup7\n        /* \"#utility.yul\":11227:11250   */\n      sub\n        /* \"#utility.yul\":11223:11255   */\n      slt\n        /* \"#utility.yul\":11220:11339   */\n      iszero\n      tag_395\n      jumpi\n        /* \"#utility.yul\":11258:11337   */\n      tag_396\n      tag_188\n      jump\t// in\n    tag_396:\n        /* \"#utility.yul\":11220:11339   */\n    tag_395:\n        /* \"#utility.yul\":11378:11379   */\n      0x00\n        /* \"#utility.yul\":11403:11456   */\n      tag_397\n        /* \"#utility.yul\":11448:11455   */\n      dup7\n        /* \"#utility.yul\":11439:11445   */\n      dup3\n        /* \"#utility.yul\":11428:11437   */\n      dup8\n        /* \"#utility.yul\":11424:11446   */\n      add\n        /* \"#utility.yul\":11403:11456   */\n      tag_193\n      jump\t// in\n    tag_397:\n        /* \"#utility.yul\":11393:11456   */\n      swap4\n      pop\n        /* \"#utility.yul\":11349:11466   */\n      pop\n        /* \"#utility.yul\":11533:11535   */\n      0x20\n        /* \"#utility.yul\":11522:11531   */\n      dup5\n        /* \"#utility.yul\":11518:11536   */\n      add\n        /* \"#utility.yul\":11505:11537   */\n      calldataload\n        /* \"#utility.yul\":11564:11582   */\n      0xffffffffffffffff\n        /* \"#utility.yul\":11556:11562   */\n      dup2\n        /* \"#utility.yul\":11553:11583   */\n      gt\n        /* \"#utility.yul\":11550:11667   */\n      iszero\n      tag_398\n      jumpi\n        /* \"#utility.yul\":11586:11665   */\n      tag_399\n      tag_189\n      jump\t// in\n    tag_399:\n        /* \"#utility.yul\":11550:11667   */\n    tag_398:\n        /* \"#utility.yul\":11691:11754   */\n      tag_400\n        /* \"#utility.yul\":11746:11753   */\n      dup7\n        /* \"#utility.yul\":11737:11743   */\n      dup3\n        /* \"#utility.yul\":11726:11735   */\n      dup8\n        /* \"#utility.yul\":11722:11744   */\n      add\n        /* \"#utility.yul\":11691:11754   */\n      tag_225\n      jump\t// in\n    tag_400:\n        /* \"#utility.yul\":11681:11754   */\n      swap3\n      pop\n        /* \"#utility.yul\":11476:11764   */\n      pop\n        /* \"#utility.yul\":11803:11805   */\n      0x40\n        /* \"#utility.yul\":11829:11882   */\n      tag_401\n        /* \"#utility.yul\":11874:11881   */\n      dup7\n        /* \"#utility.yul\":11865:11871   */\n      dup3\n        /* \"#utility.yul\":11854:11863   */\n      dup8\n        /* \"#utility.yul\":11850:11872   */\n      add\n        /* \"#utility.yul\":11829:11882   */\n      tag_203\n      jump\t// in\n    tag_401:\n        /* \"#utility.yul\":11819:11882   */\n      swap2\n      pop\n        /* \"#utility.yul\":11774:11892   */\n      pop\n        /* \"#utility.yul\":11100:11899   */\n      swap3\n      pop\n      swap3\n      pop\n      swap3\n      jump\t// out\n        /* \"#utility.yul\":11905:12082   */\n    tag_226:\n        /* \"#utility.yul\":12045:12074   */\n      0x4163636573732044656e6965643a204f6e6c7920746561636865720000000000\n        /* \"#utility.yul\":12041:12042   */\n      0x00\n        /* \"#utility.yul\":12033:12039   */\n      dup3\n        /* \"#utility.yul\":12029:12043   */\n      add\n        /* \"#utility.yul\":12022:12075   */\n      mstore\n        /* \"#utility.yul\":11905:12082   */\n      pop\n      jump\t// out\n        /* \"#utility.yul\":12088:12454   */\n    tag_227:\n        /* \"#utility.yul\":12230:12233   */\n      0x00\n        /* \"#utility.yul\":12251:12318   */\n      tag_404\n        /* \"#utility.yul\":12315:12317   */\n      0x1b\n        /* \"#utility.yul\":12310:12313   */\n      dup4\n        /* \"#utility.yul\":12251:12318   */\n      tag_209\n      jump\t// in\n    tag_404:\n        /* \"#utility.yul\":12244:12318   */\n      swap2\n      pop\n        /* \"#utility.yul\":12327:12420   */\n      tag_405\n        /* \"#utility.yul\":12416:12419   */\n      dup3\n        /* \"#utility.yul\":12327:12420   */\n      tag_226\n      jump\t// in\n    tag_405:\n        /* \"#utility.yul\":12445:12447   */\n      0x20\n        /* \"#utility.yul\":12440:12443   */\n      dup3\n        /* \"#utility.yul\":12436:12448   */\n      add\n        /* \"#utility.yul\":12429:12448   */\n      swap1\n      pop\n        /* \"#utility.yul\":12088:12454   */\n      swap2\n      swap1\n      pop\n      jump\t// out\n        /* \"#utility.yul\":12460:12879   */\n    tag_63:\n        /* \"#utility.yul\":12626:12630   */\n      0x00\n        /* \"#utility.yul\":12664:12666   */\n      0x20\n        /* \"#utility.yul\":12653:12662   */\n      dup3\n        /* \"#utility.yul\":12649:12667   */\n      add\n        /* \"#utility.yul\":12641:12667   */\n      swap1\n      pop\n        /* \"#utility.yul\":12713:12722   */\n      dup2\n        /* \"#utility.yul\":12707:12711   */\n      dup2\n        /* \"#utility.yul\":12703:12723   */\n      sub\n        /* \"#utility.yul\":12699:12700   */\n      0x00\n        /* \"#utility.yul\":12688:12697   */\n      dup4\n        /* \"#utility.yul\":12684:12701   */\n      add\n        /* \"#utility.yul\":12677:12724   */\n      mstore\n        /* \"#utility.yul\":12741:12872   */\n      tag_407\n        /* \"#utility.yul\":12867:12871   */\n      dup2\n        /* \"#utility.yul\":12741:12872   */\n      tag_227\n      jump\t// in\n    tag_407:\n        /* \"#utility.yul\":12733:12872   */\n      swap1\n      pop\n        /* \"#utility.yul\":12460:12879   */\n      swap2\n      swap1\n      pop\n      jump\t// out\n        /* \"#utility.yul\":12885:13053   */\n    tag_228:\n        /* \"#utility.yul\":13025:13045   */\n      0x436f6e7472616374206973207061757365640000000000000000000000000000\n        /* \"#utility.yul\":13021:13022   */\n      0x00\n        /* \"#utility.yul\":13013:13019   */\n      dup3\n        /* \"#utility.yul\":13009:13023   */\n      add\n        /* \"#utility.yul\":13002:13046   */\n      mstore\n        /* \"#utility.yul\":12885:13053   */\n      pop\n      jump\t// out\n        /* \"#utility.yul\":13059:13425   */\n    tag_229:\n        /* \"#utility.yul\":13201:13204   */\n      0x00\n        /* \"#utility.yul\":13222:13289   */\n      tag_410\n        /* \"#utility.yul\":13286:13288   */\n      0x12\n        /* \"#utility.yul\":13281:13284   */\n      dup4\n        /* \"#utility.yul\":13222:13289   */\n      tag_209\n      jump\t// in\n    tag_410:\n        /* \"#utility.yul\":13215:13289   */\n      swap2\n      pop\n        /* \"#utility.yul\":13298:13391   */\n      tag_411\n        /* \"#utility.yul\":13387:13390   */\n      dup3\n        /* \"#utility.yul\":13298:13391   */\n      tag_228\n      jump\t// in\n    tag_411:\n        /* \"#utility.yul\":13416:13418   */\n      0x20\n        /* \"#utility.yul\":13411:13414   */\n      dup3\n        /* \"#utility.yul\":13407:13419   */\n      add\n        /* \"#utility.yul\":13400:13419   */\n      swap1\n      pop\n        /* \"#utility.yul\":13059:13425   */\n      swap2\n      swap1\n      pop\n      jump\t// out\n        /* \"#utility.yul\":13431:13850   */\n    tag_67:\n        /* \"#utility.yul\":13597:13601   */\n      0x00\n        /* \"#utility.yul\":13635:13637   */\n      0x20\n        /* \"#utility.yul\":13624:13633   */\n      dup3\n        /* \"#utility.yul\":13620:13638   */\n      add\n        /* \"#utility.yul\":13612:13638   */\n      swap1\n      pop\n        /* \"#utility.yul\":13684:13693   */\n      dup2\n        /* \"#utility.yul\":13678:13682   */\n      dup2\n        /* \"#utility.yul\":13674:13694   */\n      sub\n        /* \"#utility.yul\":13670:13671   */\n      0x00\n        /* \"#utility.yul\":13659:13668   */\n      dup4\n        /* \"#utility.yul\":13655:13672   */\n      add\n        /* \"#utility.yul\":13648:13695   */\n      mstore\n        /* \"#utility.yul\":13712:13843   */\n      tag_413\n        /* \"#utility.yul\":13838:13842   */\n      dup2\n        /* \"#utility.yul\":13712:13843   */\n      tag_229\n      jump\t// in\n    tag_413:\n        /* \"#utility.yul\":13704:13843   */\n      swap1\n      pop\n        /* \"#utility.yul\":13431:13850   */\n      swap2\n      swap1\n      pop\n      jump\t// out\n        /* \"#utility.yul\":13856:14028   */\n    tag_230:\n        /* \"#utility.yul\":13996:14020   */\n      0x53747564656e74206e6f74207265676973746572656400000000000000000000\n        /* \"#utility.yul\":13992:13993   */\n      0x00\n        /* \"#utility.yul\":13984:13990   */\n      dup3\n        /* \"#utility.yul\":13980:13994   */\n      add\n        /* \"#utility.yul\":13973:14021   */\n      mstore\n        /* \"#utility.yul\":13856:14028   */\n      pop\n      jump\t// out\n        /* \"#utility.yul\":14034:14400   */\n    tag_231:\n        /* \"#utility.yul\":14176:14179   */\n      0x00\n        /* \"#utility.yul\":14197:14264   */\n      tag_416\n        /* \"#utility.yul\":14261:14263   */\n      0x16\n        /* \"#utility.yul\":14256:14259   */\n      dup4\n        /* \"#utility.yul\":14197:14264   */\n      tag_209\n      jump\t// in\n    tag_416:\n        /* \"#utility.yul\":14190:14264   */\n      swap2\n      pop\n        /* \"#utility.yul\":14273:14366   */\n      tag_417\n        /* \"#utility.yul\":14362:14365   */\n      dup3\n        /* \"#utility.yul\":14273:14366   */\n      tag_230\n      jump\t// in\n    tag_417:\n        /* \"#utility.yul\":14391:14393   */\n      0x20\n        /* \"#utility.yul\":14386:14389   */\n      dup3\n        /* \"#utility.yul\":14382:14394   */\n      add\n        /* \"#utility.yul\":14375:14394   */\n      swap1\n      pop\n        /* \"#utility.yul\":14034:14400   */\n      swap2\n      swap1\n      pop\n      jump\t// out\n        /* \"#utility.yul\":14406:14825   */\n    tag_71:\n        /* \"#utility.yul\":14572:14576   */\n      0x00\n        /* \"#utility.yul\":14610:14612   */\n      0x20\n        /* \"#utility.yul\":14599:14608   */\n      dup3\n        /* \"#utility.yul\":14595:14613   */\n      add\n        /* \"#utility.yul\":14587:14613   */\n      swap1\n      pop\n        /* \"#utility.yul\":14659:14668   */\n      dup2\n        /* \"#utility.yul\":14653:14657   */\n      dup2\n        /* \"#utility.yul\":14649:14669   */\n      sub\n        /* \"#utility.yul\":14645:14646   */\n      0x00\n        /* \"#utility.yul\":14634:14643   */\n      dup4\n        /* \"#utility.yul\":14630:14647   */\n      add\n        /* \"#utility.yul\":14623:14670   */\n      mstore\n        /* \"#utility.yul\":14687:14818   */\n      tag_419\n        /* \"#utility.yul\":14813:14817   */\n      dup2\n        /* \"#utility.yul\":14687:14818   */\n      tag_231\n      jump\t// in\n    tag_419:\n        /* \"#utility.yul\":14679:14818   */\n      swap1\n      pop\n        /* \"#utility.yul\":14406:14825   */\n      swap2\n      swap1\n      pop\n      jump\t// out\n        /* \"#utility.yul\":14831:14998   */\n    tag_232:\n        /* \"#utility.yul\":14971:14990   */\n      0x4e6f206d61726b732070726f7669646564000000000000000000000000000000\n        /* \"#utility.yul\":14967:14968   */\n      0x00\n        /* \"#utility.yul\":14959:14965   */\n      dup3\n        /* \"#utility.yul\":14955:14969   */\n      add\n        /* \"#utility.yul\":14948:14991   */\n      mstore\n        /* \"#utility.yul\":14831:14998   */\n      pop\n      jump\t// out\n        /* \"#utility.yul\":15004:15370   */\n    tag_233:\n        /* \"#utility.yul\":15146:15149   */\n      0x00\n        /* \"#utility.yul\":15167:15234   */\n      tag_422\n        /* \"#utility.yul\":15231:15233   */\n      0x11\n        /* \"#utility.yul\":15226:15229   */\n      dup4\n        /* \"#utility.yul\":15167:15234   */\n      tag_209\n      jump\t// in\n    tag_422:\n        /* \"#utility.yul\":15160:15234   */\n      swap2\n      pop\n        /* \"#utility.yul\":15243:15336   */\n      tag_423\n        /* \"#utility.yul\":15332:15335   */\n      dup3\n        /* \"#utility.yul\":15243:15336   */\n      tag_232\n      jump\t// in\n    tag_423:\n        /* \"#utility.yul\":15361:15363   */\n      0x20\n        /* \"#utility.yul\":15356:15359   */\n      dup3\n        /* \"#utility.yul\":15352:15364   */\n      add\n        /* \"#utility.yul\":15345:15364   */\n      swap1\n      pop\n        /* \"#utility.yul\":15004:15370   */\n      swap2\n      swap1\n      pop\n      jump\t// out\n        /* \"#utility.yul\":15376:15795   */\n    tag_74:\n        /* \"#utility.yul\":15542:15546   */\n      0x00\n        /* \"#utility.yul\":15580:15582   */\n      0x20\n        /* \"#utility.yul\":15569:15578   */\n      dup3\n        /* \"#utility.yul\":15565:15583   */\n      add\n        /* \"#utility.yul\":15557:15583   */\n      swap1\n      pop\n        /* \"#utility.yul\":15629:15638   */\n      dup2\n        /* \"#utility.yul\":15623:15627   */\n      dup2\n        /* \"#utility.yul\":15619:15639   */\n      sub\n        /* \"#utility.yul\":15615:15616   */\n      0x00\n        /* \"#utility.yul\":15604:15613   */\n      dup4\n        /* \"#utility.yul\":15600:15617   */\n      add\n        /* \"#utility.yul\":15593:15640   */\n      mstore\n        /* \"#utility.yul\":15657:15788   */\n      tag_425\n        /* \"#utility.yul\":15783:15787   */\n      dup2\n        /* \"#utility.yul\":15657:15788   */\n      tag_233\n      jump\t// in\n    tag_425:\n        /* \"#utility.yul\":15649:15788   */\n      swap1\n      pop\n        /* \"#utility.yul\":15376:15795   */\n      swap2\n      swap1\n      pop\n      jump\t// out\n        /* \"#utility.yul\":15801:15981   */\n    tag_80:\n        /* \"#utility.yul\":15849:15926   */\n      0x4e487b7100000000000000000000000000000000000000000000000000000000\n        /* \"#utility.yul\":15846:15847   */\n      0x00\n        /* \"#utility.yul\":15839:15927   */\n      mstore\n        /* \"#utility.yul\":15946:15950   */\n      0x32\n        /* \"#utility.yul\":15943:15944   */\n      0x04\n        /* \"#utility.yul\":15936:15951   */\n      mstore\n        /* \"#utility.yul\":15970:15974   */\n      0x24\n        /* \"#utility.yul\":15967:15968   */\n      0x00\n        /* \"#utility.yul\":15960:15975   */\n      revert\n        /* \"#utility.yul\":15987:16165   */\n    tag_234:\n        /* \"#utility.yul\":16127:16157   */\n      0x496e76616c6964206d61726b3a206d757374206265203c3d2031303000000000\n        /* \"#utility.yul\":16123:16124   */\n      0x00\n        /* \"#utility.yul\":16115:16121   */\n      dup3\n        /* \"#utility.yul\":16111:16125   */\n      add\n        /* \"#utility.yul\":16104:16158   */\n      mstore\n        /* \"#utility.yul\":15987:16165   */\n      pop\n      jump\t// out\n        /* \"#utility.yul\":16171:16537   */\n    tag_235:\n        /* \"#utility.yul\":16313:16316   */\n      0x00\n        /* \"#utility.yul\":16334:16401   */\n      tag_429\n        /* \"#utility.yul\":16398:16400   */\n      0x1c\n        /* \"#utility.yul\":16393:16396   */\n      dup4\n        /* \"#utility.yul\":16334:16401   */\n      tag_209\n      jump\t// in\n    tag_429:\n        /* \"#utility.yul\":16327:16401   */\n      swap2\n      pop\n        /* \"#utility.yul\":16410:16503   */\n      tag_430\n        /* \"#utility.yul\":16499:16502   */\n      dup3\n        /* \"#utility.yul\":16410:16503   */\n      tag_234\n      jump\t// in\n    tag_430:\n        /* \"#utility.yul\":16528:16530   */\n      0x20\n        /* \"#utility.yul\":16523:16526   */\n      dup3\n        /* \"#utility.yul\":16519:16531   */\n      add\n        /* \"#utility.yul\":16512:16531   */\n      swap1\n      pop\n        /* \"#utility.yul\":16171:16537   */\n      swap2\n      swap1\n      pop\n      jump\t// out\n        /* \"#utility.yul\":16543:16962   */\n    tag_83:\n        /* \"#utility.yul\":16709:16713   */\n      0x00\n        /* \"#utility.yul\":16747:16749   */\n      0x20\n        /* \"#utility.yul\":16736:16745   */\n      dup3\n        /* \"#utility.yul\":16732:16750   */\n      add\n        /* \"#utility.yul\":16724:16750   */\n      swap1\n      pop\n        /* \"#utility.yul\":16796:16805   */\n      dup2\n        /* \"#utility.yul\":16790:16794   */\n      dup2\n        /* \"#utility.yul\":16786:16806   */\n      sub\n        /* \"#utility.yul\":16782:16783   */\n      0x00\n        /* \"#utility.yul\":16771:16780   */\n      dup4\n        /* \"#utility.yul\":16767:16784   */\n      add\n        /* \"#utility.yul\":16760:16807   */\n      mstore\n        /* \"#utility.yul\":16824:16955   */\n      tag_432\n        /* \"#utility.yul\":16950:16954   */\n      dup2\n        /* \"#utility.yul\":16824:16955   */\n      tag_235\n      jump\t// in\n    tag_432:\n        /* \"#utility.yul\":16816:16955   */\n      swap1\n      pop\n        /* \"#utility.yul\":16543:16962   */\n      swap2\n      swap1\n      pop\n      jump\t// out\n        /* \"#utility.yul\":16968:17148   */\n    tag_236:\n        /* \"#utility.yul\":17016:17093   */\n      0x4e487b7100000000000000000000000000000000000000000000000000000000\n        /* \"#utility.yul\":17013:17014   */\n      0x00\n        /* \"#utility.yul\":17006:17094   */\n      mstore\n        /* \"#utility.yul\":17113:17117   */\n      0x11\n        /* \"#utility.yul\":17110:17111   */\n      0x04\n        /* \"#utility.yul\":17103:17118   */\n      mstore\n        /* \"#utility.yul\":17137:17141   */\n      0x24\n        /* \"#utility.yul\":17134:17135   */\n      0x00\n        /* \"#utility.yul\":17127:17142   */\n      revert\n        /* \"#utility.yul\":17154:17345   */\n    tag_87:\n        /* \"#utility.yul\":17194:17197   */\n      0x00\n        /* \"#utility.yul\":17213:17233   */\n      tag_435\n        /* \"#utility.yul\":17231:17232   */\n      dup3\n        /* \"#utility.yul\":17213:17233   */\n      tag_201\n      jump\t// in\n    tag_435:\n        /* \"#utility.yul\":17208:17233   */\n      swap2\n      pop\n        /* \"#utility.yul\":17247:17267   */\n      tag_436\n        /* \"#utility.yul\":17265:17266   */\n      dup4\n        /* \"#utility.yul\":17247:17267   */\n      tag_201\n      jump\t// in\n    tag_436:\n        /* \"#utility.yul\":17242:17267   */\n      swap3\n      pop\n        /* \"#utility.yul\":17290:17291   */\n      dup3\n        /* \"#utility.yul\":17287:17288   */\n      dup3\n        /* \"#utility.yul\":17283:17292   */\n      add\n        /* \"#utility.yul\":17276:17292   */\n      swap1\n      pop\n        /* \"#utility.yul\":17311:17314   */\n      dup1\n        /* \"#utility.yul\":17308:17309   */\n      dup3\n        /* \"#utility.yul\":17305:17315   */\n      gt\n        /* \"#utility.yul\":17302:17338   */\n      iszero\n      tag_437\n      jumpi\n        /* \"#utility.yul\":17318:17336   */\n      tag_438\n      tag_236\n      jump\t// in\n    tag_438:\n        /* \"#utility.yul\":17302:17338   */\n    tag_437:\n        /* \"#utility.yul\":17154:17345   */\n      swap3\n      swap2\n      pop\n      pop\n      jump\t// out\n        /* \"#utility.yul\":17351:17584   */\n    tag_89:\n        /* \"#utility.yul\":17390:17393   */\n      0x00\n        /* \"#utility.yul\":17413:17437   */\n      tag_440\n        /* \"#utility.yul\":17431:17436   */\n      dup3\n        /* \"#utility.yul\":17413:17437   */\n      tag_201\n      jump\t// in\n    tag_440:\n        /* \"#utility.yul\":17404:17437   */\n      swap2\n      pop\n        /* \"#utility.yul\":17459:17525   */\n      0xffffffffffffffffffffffffffffffffffffffffffffffffffffffffffffffff\n        /* \"#utility.yul\":17452:17457   */\n      dup3\n        /* \"#utility.yul\":17449:17526   */\n      sub\n        /* \"#utility.yul\":17446:17549   */\n      tag_441\n      jumpi\n        /* \"#utility.yul\":17529:17547   */\n      tag_442\n      tag_236\n      jump\t// in\n    tag_442:\n        /* \"#utility.yul\":17446:17549   */\n    tag_441:\n        /* \"#utility.yul\":17576:17577   */\n      0x01\n        /* \"#utility.yul\":17569:17574   */\n      dup3\n        /* \"#utility.yul\":17565:17578   */\n      add\n        /* \"#utility.yul\":17558:17578   */\n      swap1\n      pop\n        /* \"#utility.yul\":17351:17584   */\n      swap2\n      swap1\n      pop\n      jump\t// out\n        /* \"#utility.yul\":17590:17770   */\n    tag_237:\n        /* \"#utility.yul\":17638:17715   */\n      0x4e487b7100000000000000000000000000000000000000000000000000000000\n        /* \"#utility.yul\":17635:17636   */\n      0x00\n        /* \"#utility.yul\":17628:17716   */\n      mstore\n        /* \"#utility.yul\":17735:17739   */\n      0x12\n        /* \"#utility.yul\":17732:17733   */\n      0x04\n        /* \"#utility.yul\":17725:17740   */\n      mstore\n        /* \"#utility.yul\":17759:17763   */\n      0x24\n        /* \"#utility.yul\":17756:17757   */\n      0x00\n        /* \"#utility.yul\":17749:17764   */\n      revert\n        /* \"#utility.yul\":17776:17961   */\n    tag_92:\n        /* \"#utility.yul\":17816:17817   */\n      0x00\n        /* \"#utility.yul\":17833:17853   */\n      tag_445\n        /* \"#utility.yul\":17851:17852   */\n      dup3\n        /* \"#utility.yul\":17833:17853   */\n      tag_201\n      jump\t// in\n    tag_445:\n        /* \"#utility.yul\":17828:17853   */\n      swap2\n      pop\n        /* \"#utility.yul\":17867:17887   */\n      tag_446\n        /* \"#utility.yul\":17885:17886   */\n      dup4\n        /* \"#utility.yul\":17867:17887   */\n      tag_201\n      jump\t// in\n    tag_446:\n        /* \"#utility.yul\":17862:17887   */\n      swap3\n      pop\n        /* \"#utility.yul\":17906:17907   */\n      dup3\n        /* \"#utility.yul\":17896:17931   */\n      tag_447\n      jumpi\n        /* \"#utility.yul\":17911:17929   */\n      tag_448\n      tag_237\n      jump\t// in\n    tag_448:\n        /* \"#utility.yul\":17896:17931   */\n    tag_447:\n        /* \"#utility.yul\":17953:17954   */\n      dup3\n        /* \"#utility.yul\":17950:17951   */\n      dup3\n        /* \"#utility.yul\":17946:17955   */\n      div\n        /* \"#utility.yul\":17941:17955   */\n      swap1\n      pop\n        /* \"#utility.yul\":17776:17961   */\n      swap3\n      swap2\n      pop\n      pop\n      jump\t// out\n        /* \"#utility.yul\":17967:18078   */\n    tag_238:\n        /* \"#utility.yul\":18031:18037   */\n      0x00\n        /* \"#utility.yul\":18065:18070   */\n      dup2\n        /* \"#utility.yul\":18059:18071   */\n      sload\n        /* \"#utility.yul\":18049:18071   */\n      swap1\n      pop\n        /* \"#utility.yul\":17967:18078   */\n      swap2\n      swap1\n      pop\n      jump\t// out\n        /* \"#utility.yul\":18084:18240   */\n    tag_239:\n        /* \"#utility.yul\":18148:18152   */\n      0x00\n        /* \"#utility.yul\":18171:18174   */\n      dup2\n        /* \"#utility.yul\":18163:18174   */\n      swap1\n      pop\n        /* \"#utility.yul\":18194:18197   */\n      dup2\n        /* \"#utility.yul\":18191:18192   */\n      0x00\n        /* \"#utility.yul\":18184:18198   */\n      mstore\n        /* \"#utility.yul\":18228:18232   */\n      0x20\n        /* \"#utility.yul\":18225:18226   */\n      0x00\n        /* \"#utility.yul\":18215:18233   */\n      keccak256\n        /* \"#utility.yul\":18207:18233   */\n      swap1\n      pop\n        /* \"#utility.yul\":18084:18240   */\n      swap2\n      swap1\n      pop\n      jump\t// out\n        /* \"#utility.yul\":18246:18348   */\n    tag_240:\n        /* \"#utility.yul\":18288:18296   */\n      0x00\n        /* \"#utility.yul\":18335:18340   */\n      dup2\n        /* \"#utility.yul\":18332:18333   */\n      0x00\n        /* \"#utility.yul\":18328:18341   */\n      shr\n        /* \"#utility.yul\":18307:18341   */\n      swap1\n      pop\n        /* \"#utility.yul\":18246:18348   */\n      swap2\n      swap1\n      pop\n      jump\t// out\n        /* \"#utility.yul\":18354:18444   */\n    tag_241:\n        /* \"#utility.yul\":18404:18411   */\n      0x00\n        /* \"#utility.yul\":18433:18438   */\n      dup2\n        /* \"#utility.yul\":18422:18438   */\n      swap1\n      pop\n        /* \"#utility.yul\":18354:18444   */\n      swap2\n      swap1\n      pop\n      jump\t// out\n        /* \"#utility.yul\":18450:18616   */\n    tag_242:\n        /* \"#utility.yul\":18519:18524   */\n      0x00\n        /* \"#utility.yul\":18544:18610   */\n      tag_454\n        /* \"#utility.yul\":18575:18609   */\n      tag_455\n        /* \"#utility.yul\":18598:18608   */\n      dup4\n        /* \"#utility.yul\":18575:18609   */\n      tag_240\n      jump\t// in\n    tag_455:\n        /* \"#utility.yul\":18544:18610   */\n      tag_241\n      jump\t// in\n    tag_454:\n        /* \"#utility.yul\":18535:18610   */\n      swap1\n      pop\n        /* \"#utility.yul\":18450:18616   */\n      swap2\n      swap1\n      pop\n      jump\t// out\n        /* \"#utility.yul\":18622:18766   */\n    tag_243:\n        /* \"#utility.yul\":18677:18682   */\n      0x00\n        /* \"#utility.yul\":18702:18759   */\n      tag_457\n        /* \"#utility.yul\":18753:18757   */\n      dup3\n        /* \"#utility.yul\":18747:18758   */\n      sload\n        /* \"#utility.yul\":18702:18759   */\n      tag_242\n      jump\t// in\n    tag_457:\n        /* \"#utility.yul\":18693:18759   */\n      swap1\n      pop\n        /* \"#utility.yul\":18622:18766   */\n      swap2\n      swap1\n      pop\n      jump\t// out\n        /* \"#utility.yul\":18772:18882   */\n    tag_244:\n        /* \"#utility.yul\":18839:18843   */\n      0x00\n        /* \"#utility.yul\":18871:18875   */\n      0x01\n        /* \"#utility.yul\":18866:18869   */\n      dup3\n        /* \"#utility.yul\":18862:18876   */\n      add\n        /* \"#utility.yul\":18854:18876   */\n      swap1\n      pop\n        /* \"#utility.yul\":18772:18882   */\n      swap2\n      swap1\n      pop\n      jump\t// out\n        /* \"#utility.yul\":18918:19669   */\n    tag_245:\n        /* \"#utility.yul\":19034:19037   */\n      0x00\n        /* \"#utility.yul\":19063:19114   */\n      tag_460\n        /* \"#utility.yul\":19108:19113   */\n      dup3\n        /* \"#utility.yul\":19063:19114   */\n      tag_238\n      jump\t// in\n    tag_460:\n        /* \"#utility.yul\":19130:19216   */\n      tag_461\n        /* \"#utility.yul\":19209:19215   */\n      dup2\n        /* \"#utility.yul\":19204:19207   */\n      dup6\n        /* \"#utility.yul\":19130:19216   */\n      tag_214\n      jump\t// in\n    tag_461:\n        /* \"#utility.yul\":19123:19216   */\n      swap4\n      pop\n        /* \"#utility.yul\":19240:19293   */\n      tag_462\n        /* \"#utility.yul\":19287:19292   */\n      dup4\n        /* \"#utility.yul\":19240:19293   */\n      tag_239\n      jump\t// in\n    tag_462:\n        /* \"#utility.yul\":19316:19323   */\n      dup1\n        /* \"#utility.yul\":19347:19348   */\n      0x00\n        /* \"#utility.yul\":19332:19644   */\n    tag_463:\n        /* \"#utility.yul\":19357:19363   */\n      dup4\n        /* \"#utility.yul\":19354:19355   */\n      dup2\n        /* \"#utility.yul\":19351:19364   */\n      lt\n        /* \"#utility.yul\":19332:19644   */\n      iszero\n      tag_465\n      jumpi\n        /* \"#utility.yul\":19427:19471   */\n      tag_466\n        /* \"#utility.yul\":19464:19470   */\n      dup3\n        /* \"#utility.yul\":19427:19471   */\n      tag_243\n      jump\t// in\n    tag_466:\n        /* \"#utility.yul\":19491:19554   */\n      tag_467\n        /* \"#utility.yul\":19550:19553   */\n      dup9\n        /* \"#utility.yul\":19535:19548   */\n      dup3\n        /* \"#utility.yul\":19491:19554   */\n      tag_217\n      jump\t// in\n    tag_467:\n        /* \"#utility.yul\":19484:19554   */\n      swap8\n      pop\n        /* \"#utility.yul\":19577:19634   */\n      tag_468\n        /* \"#utility.yul\":19627:19633   */\n      dup4\n        /* \"#utility.yul\":19577:19634   */\n      tag_244\n      jump\t// in\n    tag_468:\n        /* \"#utility.yul\":19567:19634   */\n      swap3\n      pop\n        /* \"#utility.yul\":19392:19644   */\n      pop\n        /* \"#utility.yul\":19379:19380   */\n      0x01\n        /* \"#utility.yul\":19376:19377   */\n      dup2\n        /* \"#utility.yul\":19372:19381   */\n      add\n        /* \"#utility.yul\":19367:19381   */\n      swap1\n      pop\n        /* \"#utility.yul\":19332:19644   */\n      jump(tag_463)\n    tag_465:\n        /* \"#utility.yul\":19336:19350   */\n      pop\n        /* \"#utility.yul\":19660:19663   */\n      dup6\n        /* \"#utility.yul\":19653:19663   */\n      swap4\n      pop\n        /* \"#utility.yul\":19039:19669   */\n      pop\n      pop\n      pop\n        /* \"#utility.yul\":18918:19669   */\n      swap3\n      swap2\n      pop\n      pop\n      jump\t// out\n        /* \"#utility.yul\":19675:20303   */\n    tag_96:\n        /* \"#utility.yul\":19893:19897   */\n      0x00\n        /* \"#utility.yul\":19931:19933   */\n      0x40\n        /* \"#utility.yul\":19920:19929   */\n      dup3\n        /* \"#utility.yul\":19916:19934   */\n      add\n        /* \"#utility.yul\":19908:19934   */\n      swap1\n      pop\n        /* \"#utility.yul\":19980:19989   */\n      dup2\n        /* \"#utility.yul\":19974:19978   */\n      dup2\n        /* \"#utility.yul\":19970:19990   */\n      sub\n        /* \"#utility.yul\":19966:19967   */\n      0x00\n        /* \"#utility.yul\":19955:19964   */\n      dup4\n        /* \"#utility.yul\":19951:19968   */\n      add\n        /* \"#utility.yul\":19944:19991   */\n      mstore\n        /* \"#utility.yul\":20008:20113   */\n      tag_470\n        /* \"#utility.yul\":20108:20112   */\n      dup2\n        /* \"#utility.yul\":20099:20105   */\n      dup6\n        /* \"#utility.yul\":20008:20113   */\n      tag_245\n      jump\t// in\n    tag_470:\n        /* \"#utility.yul\":20000:20113   */\n      swap1\n      pop\n        /* \"#utility.yul\":20160:20169   */\n      dup2\n        /* \"#utility.yul\":20154:20158   */\n      dup2\n        /* \"#utility.yul\":20150:20170   */\n      sub\n        /* \"#utility.yul\":20145:20147   */\n      0x20\n        /* \"#utility.yul\":20134:20143   */\n      dup4\n        /* \"#utility.yul\":20130:20148   */\n      add\n        /* \"#utility.yul\":20123:20171   */\n      mstore\n        /* \"#utility.yul\":20188:20296   */\n      tag_471\n        /* \"#utility.yul\":20291:20295   */\n      dup2\n        /* \"#utility.yul\":20282:20288   */\n      dup5\n        /* \"#utility.yul\":20188:20296   */\n      tag_219\n      jump\t// in\n    tag_471:\n        /* \"#utility.yul\":20180:20296   */\n      swap1\n      pop\n        /* \"#utility.yul\":19675:20303   */\n      swap4\n      swap3\n      pop\n      pop\n      pop\n      jump\t// out\n        /* \"#utility.yul\":20309:20883   */\n    tag_99:\n        /* \"#utility.yul\":20500:20504   */\n      0x00\n        /* \"#utility.yul\":20538:20540   */\n      0x40\n        /* \"#utility.yul\":20527:20536   */\n      dup3\n        /* \"#utility.yul\":20523:20541   */\n      add\n        /* \"#utility.yul\":20515:20541   */\n      swap1\n      pop\n        /* \"#utility.yul\":20587:20596   */\n      dup2\n        /* \"#utility.yul\":20581:20585   */\n      dup2\n        /* \"#utility.yul\":20577:20597   */\n      sub\n        /* \"#utility.yul\":20573:20574   */\n      0x00\n        /* \"#utility.yul\":20562:20571   */\n      dup4\n        /* \"#utility.yul\":20558:20575   */\n      add\n        /* \"#utility.yul\":20551:20598   */\n      mstore\n        /* \"#utility.yul\":20615:20723   */\n      tag_473\n        /* \"#utility.yul\":20718:20722   */\n      dup2\n        /* \"#utility.yul\":20709:20715   */\n      dup6\n        /* \"#utility.yul\":20615:20723   */\n      tag_219\n      jump\t// in\n    tag_473:\n        /* \"#utility.yul\":20607:20723   */\n      swap1\n      pop\n        /* \"#utility.yul\":20770:20779   */\n      dup2\n        /* \"#utility.yul\":20764:20768   */\n      dup2\n        /* \"#utility.yul\":20760:20780   */\n      sub\n        /* \"#utility.yul\":20755:20757   */\n      0x20\n        /* \"#utility.yul\":20744:20753   */\n      dup4\n        /* \"#utility.yul\":20740:20758   */\n      add\n        /* \"#utility.yul\":20733:20781   */\n      mstore\n        /* \"#utility.yul\":20798:20876   */\n      tag_474\n        /* \"#utility.yul\":20871:20875   */\n      dup2\n        /* \"#utility.yul\":20862:20868   */\n      dup5\n        /* \"#utility.yul\":20798:20876   */\n      tag_211\n      jump\t// in\n    tag_474:\n        /* \"#utility.yul\":20790:20876   */\n      swap1\n      pop\n        /* \"#utility.yul\":20309:20883   */\n      swap4\n      swap3\n      pop\n      pop\n      pop\n      jump\t// out\n        /* \"#utility.yul\":20889:21069   */\n    tag_246:\n        /* \"#utility.yul\":20937:21014   */\n      0x4e487b7100000000000000000000000000000000000000000000000000000000\n        /* \"#utility.yul\":20934:20935   */\n      0x00\n        /* \"#utility.yul\":20927:21015   */\n      mstore\n        /* \"#utility.yul\":21034:21038   */\n      0x22\n        /* \"#utility.yul\":21031:21032   */\n      0x04\n        /* \"#utility.yul\":21024:21039   */\n      mstore\n        /* \"#utility.yul\":21058:21062   */\n      0x24\n        /* \"#utility.yul\":21055:21056   */\n      0x00\n        /* \"#utility.yul\":21048:21063   */\n      revert\n        /* \"#utility.yul\":21075:21395   */\n    tag_127:\n        /* \"#utility.yul\":21119:21125   */\n      0x00\n        /* \"#utility.yul\":21156:21157   */\n      0x02\n        /* \"#utility.yul\":21150:21154   */\n      dup3\n        /* \"#utility.yul\":21146:21158   */\n      div\n        /* \"#utility.yul\":21136:21158   */\n      swap1\n      pop\n        /* \"#utility.yul\":21203:21204   */\n      0x01\n        /* \"#utility.yul\":21197:21201   */\n      dup3\n        /* \"#utility.yul\":21193:21205   */\n      and\n        /* \"#utility.yul\":21224:21242   */\n      dup1\n        /* \"#utility.yul\":21214:21295   */\n      tag_477\n      jumpi\n        /* \"#utility.yul\":21280:21284   */\n      0x7f\n        /* \"#utility.yul\":21272:21278   */\n      dup3\n        /* \"#utility.yul\":21268:21285   */\n      and\n        /* \"#utility.yul\":21258:21285   */\n      swap2\n      pop\n        /* \"#utility.yul\":21214:21295   */\n    tag_477:\n        /* \"#utility.yul\":21342:21344   */\n      0x20\n        /* \"#utility.yul\":21334:21340   */\n      dup3\n        /* \"#utility.yul\":21331:21345   */\n      lt\n        /* \"#utility.yul\":21311:21329   */\n      dup2\n        /* \"#utility.yul\":21308:21346   */\n      sub\n        /* \"#utility.yul\":21305:21389   */\n      tag_478\n      jumpi\n        /* \"#utility.yul\":21361:21379   */\n      tag_479\n      tag_246\n      jump\t// in\n    tag_479:\n        /* \"#utility.yul\":21305:21389   */\n    tag_478:\n        /* \"#utility.yul\":21126:21395   */\n      pop\n        /* \"#utility.yul\":21075:21395   */\n      swap2\n      swap1\n      pop\n      jump\t// out\n        /* \"#utility.yul\":21401:21542   */\n    tag_247:\n        /* \"#utility.yul\":21450:21454   */\n      0x00\n        /* \"#utility.yul\":21473:21476   */\n      dup2\n        /* \"#utility.yul\":21465:21476   */\n      swap1\n      pop\n        /* \"#utility.yul\":21496:21499   */\n      dup2\n        /* \"#utility.yul\":21493:21494   */\n      0x00\n        /* \"#utility.yul\":21486:21500   */\n      mstore\n        /* \"#utility.yul\":21530:21534   */\n      0x20\n        /* \"#utility.yul\":21527:21528   */\n      0x00\n        /* \"#utility.yul\":21517:21535   */\n      keccak256\n        /* \"#utility.yul\":21509:21535   */\n      swap1\n      pop\n        /* \"#utility.yul\":21401:21542   */\n      swap2\n      swap1\n      pop\n      jump\t// out\n        /* \"#utility.yul\":21548:21641   */\n    tag_248:\n        /* \"#utility.yul\":21585:21591   */\n      0x00\n        /* \"#utility.yul\":21632:21634   */\n      0x20\n        /* \"#utility.yul\":21627:21629   */\n      0x1f\n        /* \"#utility.yul\":21620:21625   */\n      dup4\n        /* \"#utility.yul\":21616:21630   */\n      add\n        /* \"#utility.yul\":21612:21635   */\n      div\n        /* \"#utility.yul\":21602:21635   */\n      swap1\n      pop\n        /* \"#utility.yul\":21548:21641   */\n      swap2\n      swap1\n      pop\n      jump\t// out\n        /* \"#utility.yul\":21647:21754   */\n    tag_249:\n        /* \"#utility.yul\":21691:21699   */\n      0x00\n        /* \"#utility.yul\":21741:21746   */\n      dup3\n        /* \"#utility.yul\":21735:21739   */\n      dup3\n        /* \"#utility.yul\":21731:21747   */\n      shl\n        /* \"#utility.yul\":21710:21747   */\n      swap1\n      pop\n        /* \"#utility.yul\":21647:21754   */\n      swap3\n      swap2\n      pop\n      pop\n      jump\t// out\n        /* \"#utility.yul\":21760:22153   */\n    tag_250:\n        /* \"#utility.yul\":21829:21835   */\n      0x00\n        /* \"#utility.yul\":21879:21880   */\n      0x08\n        /* \"#utility.yul\":21867:21877   */\n      dup4\n        /* \"#utility.yul\":21863:21881   */\n      mul\n        /* \"#utility.yul\":21902:21999   */\n      tag_484\n        /* \"#utility.yul\":21932:21998   */\n      0xffffffffffffffffffffffffffffffffffffffffffffffffffffffffffffffff\n        /* \"#utility.yul\":21921:21930   */\n      dup3\n        /* \"#utility.yul\":21902:21999   */\n      tag_249\n      jump\t// in\n    tag_484:\n        /* \"#utility.yul\":22020:22059   */\n      tag_485\n        /* \"#utility.yul\":22050:22058   */\n      dup7\n        /* \"#utility.yul\":22039:22048   */\n      dup4\n        /* \"#utility.yul\":22020:22059   */\n      tag_249\n      jump\t// in\n    tag_485:\n        /* \"#utility.yul\":22008:22059   */\n      swap6\n      pop\n        /* \"#utility.yul\":22092:22096   */\n      dup1\n        /* \"#utility.yul\":22088:22097   */\n      not\n        /* \"#utility.yul\":22081:22086   */\n      dup5\n        /* \"#utility.yul\":22077:22098   */\n      and\n        /* \"#utility.yul\":22068:22098   */\n      swap4\n      pop\n        /* \"#utility.yul\":22141:22145   */\n      dup1\n        /* \"#utility.yul\":22131:22139   */\n      dup7\n        /* \"#utility.yul\":22127:22146   */\n      and\n        /* \"#utility.yul\":22120:22125   */\n      dup5\n        /* \"#utility.yul\":22117:22147   */\n      or\n        /* \"#utility.yul\":22107:22147   */\n      swap3\n      pop\n        /* \"#utility.yul\":21836:22153   */\n      pop\n      pop\n        /* \"#utility.yul\":21760:22153   */\n      swap4\n      swap3\n      pop\n      pop\n      pop\n      jump\t// out\n        /* \"#utility.yul\":22159:22219   */\n    tag_251:\n        /* \"#utility.yul\":22187:22190   */\n      0x00\n        /* \"#utility.yul\":22208:22213   */\n      dup2\n        /* \"#utility.yul\":22201:22213   */\n      swap1\n      pop\n        /* \"#utility.yul\":22159:22219   */\n      swap2\n      swap1\n      pop\n      jump\t// out\n        /* \"#utility.yul\":22225:22367   */\n    tag_252:\n        /* \"#utility.yul\":22275:22284   */\n      0x00\n        /* \"#utility.yul\":22308:22361   */\n      tag_488\n        /* \"#utility.yul\":22326:22360   */\n      tag_489\n        /* \"#utility.yul\":22335:22359   */\n      tag_490\n        /* \"#utility.yul\":22353:22358   */\n      dup5\n        /* \"#utility.yul\":22335:22359   */\n      tag_201\n      jump\t// in\n    tag_490:\n        /* \"#utility.yul\":22326:22360   */\n      tag_251\n      jump\t// in\n    tag_489:\n        /* \"#utility.yul\":22308:22361   */\n      tag_201\n      jump\t// in\n    tag_488:\n        /* \"#utility.yul\":22295:22361   */\n      swap1\n      pop\n        /* \"#utility.yul\":22225:22367   */\n      swap2\n      swap1\n      pop\n      jump\t// out\n        /* \"#utility.yul\":22373:22448   */\n    tag_253:\n        /* \"#utility.yul\":22416:22419   */\n      0x00\n        /* \"#utility.yul\":22437:22442   */\n      dup2\n        /* \"#utility.yul\":22430:22442   */\n      swap1\n      pop\n        /* \"#utility.yul\":22373:22448   */\n      swap2\n      swap1\n      pop\n      jump\t// out\n        /* \"#utility.yul\":22454:22723   */\n    tag_254:\n        /* \"#utility.yul\":22564:22603   */\n      tag_493\n        /* \"#utility.yul\":22595:22602   */\n      dup4\n        /* \"#utility.yul\":22564:22603   */\n      tag_252\n      jump\t// in\n    tag_493:\n        /* \"#utility.yul\":22625:22716   */\n      tag_494\n        /* \"#utility.yul\":22674:22715   */\n      tag_495\n        /* \"#utility.yul\":22698:22714   */\n      dup3\n        /* \"#utility.yul\":22674:22715   */\n      tag_253\n      jump\t// in\n    tag_495:\n        /* \"#utility.yul\":22666:22672   */\n      dup5\n        /* \"#utility.yul\":22659:22663   */\n      dup5\n        /* \"#utility.yul\":22653:22664   */\n      sload\n        /* \"#utility.yul\":22625:22716   */\n      tag_250\n      jump\t// in\n    tag_494:\n        /* \"#utility.yul\":22619:22623   */\n      dup3\n        /* \"#utility.yul\":22612:22717   */\n      sstore\n        /* \"#utility.yul\":22530:22723   */\n      pop\n        /* \"#utility.yul\":22454:22723   */\n      pop\n      pop\n      pop\n      jump\t// out\n        /* \"#utility.yul\":22729:22802   */\n    tag_255:\n        /* \"#utility.yul\":22774:22777   */\n      0x00\n        /* \"#utility.yul\":22729:22802   */\n      swap1\n      jump\t// out\n        /* \"#utility.yul\":22808:22997   */\n    tag_256:\n        /* \"#utility.yul\":22885:22917   */\n      tag_498\n      tag_255\n      jump\t// in\n    tag_498:\n        /* \"#utility.yul\":22926:22991   */\n      tag_499\n        /* \"#utility.yul\":22984:22990   */\n      dup2\n        /* \"#utility.yul\":22976:22982   */\n      dup5\n        /* \"#utility.yul\":22970:22974   */\n      dup5\n        /* \"#utility.yul\":22926:22991   */\n      tag_254\n      jump\t// in\n    tag_499:\n        /* \"#utility.yul\":22861:22997   */\n      pop\n        /* \"#utility.yul\":22808:22997   */\n      pop\n      pop\n      jump\t// out\n        /* \"#utility.yul\":23003:23189   */\n    tag_257:\n        /* \"#utility.yul\":23063:23183   */\n    tag_501:\n        /* \"#utility.yul\":23080:23083   */\n      dup2\n        /* \"#utility.yul\":23073:23078   */\n      dup2\n        /* \"#utility.yul\":23070:23084   */\n      lt\n        /* \"#utility.yul\":23063:23183   */\n      iszero\n      tag_503\n      jumpi\n        /* \"#utility.yul\":23134:23173   */\n      tag_504\n        /* \"#utility.yul\":23171:23172   */\n      0x00\n        /* \"#utility.yul\":23164:23169   */\n      dup3\n        /* \"#utility.yul\":23134:23173   */\n      tag_256\n      jump\t// in\n    tag_504:\n        /* \"#utility.yul\":23107:23108   */\n      0x01\n        /* \"#utility.yul\":23100:23105   */\n      dup2\n        /* \"#utility.yul\":23096:23109   */\n      add\n        /* \"#utility.yul\":23087:23109   */\n      swap1\n      pop\n        /* \"#utility.yul\":23063:23183   */\n      jump(tag_501)\n    tag_503:\n        /* \"#utility.yul\":23003:23189   */\n      pop\n      pop\n      jump\t// out\n        /* \"#utility.yul\":23195:23738   */\n    tag_258:\n        /* \"#utility.yul\":23296:23298   */\n      0x1f\n        /* \"#utility.yul\":23291:23294   */\n      dup3\n        /* \"#utility.yul\":23288:23299   */\n      gt\n        /* \"#utility.yul\":23285:23731   */\n      iszero\n      tag_506\n      jumpi\n        /* \"#utility.yul\":23330:23368   */\n      tag_507\n        /* \"#utility.yul\":23362:23367   */\n      dup2\n        /* \"#utility.yul\":23330:23368   */\n      tag_247\n      jump\t// in\n    tag_507:\n        /* \"#utility.yul\":23414:23443   */\n      tag_508\n        /* \"#utility.yul\":23432:23442   */\n      dup5\n        /* \"#utility.yul\":23414:23443   */\n      tag_248\n      jump\t// in\n    tag_508:\n        /* \"#utility.yul\":23404:23412   */\n      dup2\n        /* \"#utility.yul\":23400:23444   */\n      add\n        /* \"#utility.yul\":23597:23599   */\n      0x20\n        /* \"#utility.yul\":23585:23595   */\n      dup6\n        /* \"#utility.yul\":23582:23600   */\n      lt\n        /* \"#utility.yul\":23579:23628   */\n      iszero\n      tag_509\n      jumpi\n        /* \"#utility.yul\":23618:23626   */\n      dup2\n        /* \"#utility.yul\":23603:23626   */\n      swap1\n      pop\n        /* \"#utility.yul\":23579:23628   */\n    tag_509:\n        /* \"#utility.yul\":23641:23721   */\n      tag_510\n        /* \"#utility.yul\":23697:23719   */\n      tag_511\n        /* \"#utility.yul\":23715:23718   */\n      dup6\n        /* \"#utility.yul\":23697:23719   */\n      tag_248\n      jump\t// in\n    tag_511:\n        /* \"#utility.yul\":23687:23695   */\n      dup4\n        /* \"#utility.yul\":23683:23720   */\n      add\n        /* \"#utility.yul\":23670:23681   */\n      dup3\n        /* \"#utility.yul\":23641:23721   */\n      tag_257\n      jump\t// in\n    tag_510:\n        /* \"#utility.yul\":23300:23731   */\n      pop\n      pop\n        /* \"#utility.yul\":23285:23731   */\n    tag_506:\n        /* \"#utility.yul\":23195:23738   */\n      pop\n      pop\n      pop\n      jump\t// out\n        /* \"#utility.yul\":23744:23861   */\n    tag_259:\n        /* \"#utility.yul\":23798:23806   */\n      0x00\n        /* \"#utility.yul\":23848:23853   */\n      dup3\n        /* \"#utility.yul\":23842:23846   */\n      dup3\n        /* \"#utility.yul\":23838:23854   */\n      shr\n        /* \"#utility.yul\":23817:23854   */\n      swap1\n      pop\n        /* \"#utility.yul\":23744:23861   */\n      swap3\n      swap2\n      pop\n      pop\n      jump\t// out\n        /* \"#utility.yul\":23867:24036   */\n    tag_260:\n        /* \"#utility.yul\":23911:23917   */\n      0x00\n        /* \"#utility.yul\":23944:23995   */\n      tag_514\n        /* \"#utility.yul\":23992:23993   */\n      0x00\n        /* \"#utility.yul\":23988:23994   */\n      not\n        /* \"#utility.yul\":23980:23985   */\n      dup5\n        /* \"#utility.yul\":23977:23978   */\n      0x08\n        /* \"#utility.yul\":23973:23986   */\n      mul\n        /* \"#utility.yul\":23944:23995   */\n      tag_259\n      jump\t// in\n    tag_514:\n        /* \"#utility.yul\":23940:23996   */\n      not\n        /* \"#utility.yul\":24025:24029   */\n      dup1\n        /* \"#utility.yul\":24019:24023   */\n      dup4\n        /* \"#utility.yul\":24015:24030   */\n      and\n        /* \"#utility.yul\":24005:24030   */\n      swap2\n      pop\n        /* \"#utility.yul\":23918:24036   */\n      pop\n        /* \"#utility.yul\":23867:24036   */\n      swap3\n      swap2\n      pop\n      pop\n      jump\t// out\n        /* \"#utility.yul\":24041:24336   */\n    tag_261:\n        /* \"#utility.yul\":24117:24121   */\n      0x00\n        /* \"#utility.yul\":24263:24292   */\n      tag_516\n        /* \"#utility.yul\":24288:24291   */\n      dup4\n        /* \"#utility.yul\":24282:24286   */\n      dup4\n        /* \"#utility.yul\":24263:24292   */\n      tag_260\n      jump\t// in\n    tag_516:\n        /* \"#utility.yul\":24255:24292   */\n      swap2\n      pop\n        /* \"#utility.yul\":24325:24328   */\n      dup3\n        /* \"#utility.yul\":24322:24323   */\n      0x02\n        /* \"#utility.yul\":24318:24329   */\n      mul\n        /* \"#utility.yul\":24312:24316   */\n      dup3\n        /* \"#utility.yul\":24309:24330   */\n      or\n        /* \"#utility.yul\":24301:24330   */\n      swap1\n      pop\n        /* \"#utility.yul\":24041:24336   */\n      swap3\n      swap2\n      pop\n      pop\n      jump\t// out\n        /* \"#utility.yul\":24341:25736   */\n    tag_103:\n        /* \"#utility.yul\":24458:24495   */\n      tag_518\n        /* \"#utility.yul\":24491:24494   */\n      dup3\n        /* \"#utility.yul\":24458:24495   */\n      tag_208\n      jump\t// in\n    tag_518:\n        /* \"#utility.yul\":24560:24578   */\n      0xffffffffffffffff\n        /* \"#utility.yul\":24552:24558   */\n      dup2\n        /* \"#utility.yul\":24549:24579   */\n      gt\n        /* \"#utility.yul\":24546:24602   */\n      iszero\n      tag_519\n      jumpi\n        /* \"#utility.yul\":24582:24600   */\n      tag_520\n      tag_196\n      jump\t// in\n    tag_520:\n        /* \"#utility.yul\":24546:24602   */\n    tag_519:\n        /* \"#utility.yul\":24626:24664   */\n      tag_521\n        /* \"#utility.yul\":24658:24662   */\n      dup3\n        /* \"#utility.yul\":24652:24663   */\n      sload\n        /* \"#utility.yul\":24626:24664   */\n      tag_127\n      jump\t// in\n    tag_521:\n        /* \"#utility.yul\":24711:24778   */\n      tag_522\n        /* \"#utility.yul\":24771:24777   */\n      dup3\n        /* \"#utility.yul\":24763:24769   */\n      dup3\n        /* \"#utility.yul\":24757:24761   */\n      dup6\n        /* \"#utility.yul\":24711:24778   */\n      tag_258\n      jump\t// in\n    tag_522:\n        /* \"#utility.yul\":24805:24806   */\n      0x00\n        /* \"#utility.yul\":24829:24833   */\n      0x20\n        /* \"#utility.yul\":24816:24833   */\n      swap1\n      pop\n        /* \"#utility.yul\":24861:24863   */\n      0x1f\n        /* \"#utility.yul\":24853:24859   */\n      dup4\n        /* \"#utility.yul\":24850:24864   */\n      gt\n        /* \"#utility.yul\":24878:24879   */\n      0x01\n        /* \"#utility.yul\":24873:25491   */\n      dup2\n      eq\n      tag_524\n      jumpi\n        /* \"#utility.yul\":25535:25536   */\n      0x00\n        /* \"#utility.yul\":25552:25558   */\n      dup5\n        /* \"#utility.yul\":25549:25626   */\n      iszero\n      tag_525\n      jumpi\n        /* \"#utility.yul\":25601:25610   */\n      dup3\n        /* \"#utility.yul\":25596:25599   */\n      dup8\n        /* \"#utility.yul\":25592:25611   */\n      add\n        /* \"#utility.yul\":25586:25612   */\n      mload\n        /* \"#utility.yul\":25577:25612   */\n      swap1\n      pop\n        /* \"#utility.yul\":25549:25626   */\n    tag_525:\n        /* \"#utility.yul\":25652:25719   */\n      tag_526\n        /* \"#utility.yul\":25712:25718   */\n      dup6\n        /* \"#utility.yul\":25705:25710   */\n      dup3\n        /* \"#utility.yul\":25652:25719   */\n      tag_261\n      jump\t// in\n    tag_526:\n        /* \"#utility.yul\":25646:25650   */\n      dup7\n        /* \"#utility.yul\":25639:25720   */\n      sstore\n        /* \"#utility.yul\":25508:25730   */\n      pop\n        /* \"#utility.yul\":24843:25730   */\n      jump(tag_523)\n        /* \"#utility.yul\":24873:25491   */\n    tag_524:\n        /* \"#utility.yul\":24925:24929   */\n      0x1f\n        /* \"#utility.yul\":24921:24930   */\n      not\n        /* \"#utility.yul\":24913:24919   */\n      dup5\n        /* \"#utility.yul\":24909:24931   */\n      and\n        /* \"#utility.yul\":24959:24996   */\n      tag_527\n        /* \"#utility.yul\":24991:24995   */\n      dup7\n        /* \"#utility.yul\":24959:24996   */\n      tag_247\n      jump\t// in\n    tag_527:\n        /* \"#utility.yul\":25018:25019   */\n      0x00\n        /* \"#utility.yul\":25032:25240   */\n    tag_528:\n        /* \"#utility.yul\":25046:25053   */\n      dup3\n        /* \"#utility.yul\":25043:25044   */\n      dup2\n        /* \"#utility.yul\":25040:25054   */\n      lt\n        /* \"#utility.yul\":25032:25240   */\n      iszero\n      tag_530\n      jumpi\n        /* \"#utility.yul\":25125:25134   */\n      dup5\n        /* \"#utility.yul\":25120:25123   */\n      dup10\n        /* \"#utility.yul\":25116:25135   */\n      add\n        /* \"#utility.yul\":25110:25136   */\n      mload\n        /* \"#utility.yul\":25102:25108   */\n      dup3\n        /* \"#utility.yul\":25095:25137   */\n      sstore\n        /* \"#utility.yul\":25176:25177   */\n      0x01\n        /* \"#utility.yul\":25168:25174   */\n      dup3\n        /* \"#utility.yul\":25164:25178   */\n      add\n        /* \"#utility.yul\":25154:25178   */\n      swap2\n      pop\n        /* \"#utility.yul\":25223:25225   */\n      0x20\n        /* \"#utility.yul\":25212:25221   */\n      dup6\n        /* \"#utility.yul\":25208:25226   */\n      add\n        /* \"#utility.yul\":25195:25226   */\n      swap5\n      pop\n        /* \"#utility.yul\":25069:25073   */\n      0x20\n        /* \"#utility.yul\":25066:25067   */\n      dup2\n        /* \"#utility.yul\":25062:25074   */\n      add\n        /* \"#utility.yul\":25057:25074   */\n      swap1\n      pop\n        /* \"#utility.yul\":25032:25240   */\n      jump(tag_528)\n    tag_530:\n        /* \"#utility.yul\":25268:25274   */\n      dup7\n        /* \"#utility.yul\":25259:25266   */\n      dup4\n        /* \"#utility.yul\":25256:25275   */\n      lt\n        /* \"#utility.yul\":25253:25432   */\n      iszero\n      tag_531\n      jumpi\n        /* \"#utility.yul\":25326:25335   */\n      dup5\n        /* \"#utility.yul\":25321:25324   */\n      dup10\n        /* \"#utility.yul\":25317:25336   */\n      add\n        /* \"#utility.yul\":25311:25337   */\n      mload\n        /* \"#utility.yul\":25369:25417   */\n      tag_532\n        /* \"#utility.yul\":25411:25415   */\n      0x1f\n        /* \"#utility.yul\":25403:25409   */\n      dup10\n        /* \"#utility.yul\":25399:25416   */\n      and\n        /* \"#utility.yul\":25388:25397   */\n      dup3\n        /* \"#utility.yul\":25369:25417   */\n      tag_260\n      jump\t// in\n    tag_532:\n        /* \"#utility.yul\":25361:25367   */\n      dup4\n        /* \"#utility.yul\":25354:25418   */\n      sstore\n        /* \"#utility.yul\":25276:25432   */\n      pop\n        /* \"#utility.yul\":25253:25432   */\n    tag_531:\n        /* \"#utility.yul\":25478:25479   */\n      0x01\n        /* \"#utility.yul\":25474:25475   */\n      0x02\n        /* \"#utility.yul\":25466:25472   */\n      dup9\n        /* \"#utility.yul\":25462:25476   */\n      mul\n        /* \"#utility.yul\":25458:25480   */\n      add\n        /* \"#utility.yul\":25452:25456   */\n      dup9\n        /* \"#utility.yul\":25445:25481   */\n      sstore\n        /* \"#utility.yul\":24880:25491   */\n      pop\n      pop\n      pop\n        /* \"#utility.yul\":24843:25730   */\n    tag_523:\n      pop\n        /* \"#utility.yul\":24433:25736   */\n      pop\n      pop\n      pop\n        /* \"#utility.yul\":24341:25736   */\n      pop\n      pop\n      jump\t// out\n        /* \"#utility.yul\":25742:25917   */\n    tag_262:\n        /* \"#utility.yul\":25882:25909   */\n      0x4163636573732044656e6965643a204f6e6c79206f776e657200000000000000\n        /* \"#utility.yul\":25878:25879   */\n      0x00\n        /* \"#utility.yul\":25870:25876   */\n      dup3\n        /* \"#utility.yul\":25866:25880   */\n      add\n        /* \"#utility.yul\":25859:25910   */\n      mstore\n        /* \"#utility.yul\":25742:25917   */\n      pop\n      jump\t// out\n        /* \"#utility.yul\":25923:26289   */\n    tag_263:\n        /* \"#utility.yul\":26065:26068   */\n      0x00\n        /* \"#utility.yul\":26086:26153   */\n      tag_535\n        /* \"#utility.yul\":26150:26152   */\n      0x19\n        /* \"#utility.yul\":26145:26148   */\n      dup4\n        /* \"#utility.yul\":26086:26153   */\n      tag_209\n      jump\t// in\n    tag_535:\n        /* \"#utility.yul\":26079:26153   */\n      swap2\n      pop\n        /* \"#utility.yul\":26162:26255   */\n      tag_536\n        /* \"#utility.yul\":26251:26254   */\n      dup3\n        /* \"#utility.yul\":26162:26255   */\n      tag_262\n      jump\t// in\n    tag_536:\n        /* \"#utility.yul\":26280:26282   */\n      0x20\n        /* \"#utility.yul\":26275:26278   */\n      dup3\n        /* \"#utility.yul\":26271:26283   */\n      add\n        /* \"#utility.yul\":26264:26283   */\n      swap1\n      pop\n        /* \"#utility.yul\":25923:26289   */\n      swap2\n      swap1\n      pop\n      jump\t// out\n        /* \"#utility.yul\":26295:26714   */\n    tag_107:\n        /* \"#utility.yul\":26461:26465   */\n      0x00\n        /* \"#utility.yul\":26499:26501   */\n      0x20\n        /* \"#utility.yul\":26488:26497   */\n      dup3\n        /* \"#utility.yul\":26484:26502   */\n      add\n        /* \"#utility.yul\":26476:26502   */\n      swap1\n      pop\n        /* \"#utility.yul\":26548:26557   */\n      dup2\n        /* \"#utility.yul\":26542:26546   */\n      dup2\n        /* \"#utility.yul\":26538:26558   */\n      sub\n        /* \"#utility.yul\":26534:26535   */\n      0x00\n        /* \"#utility.yul\":26523:26532   */\n      dup4\n        /* \"#utility.yul\":26519:26536   */\n      add\n        /* \"#utility.yul\":26512:26559   */\n      mstore\n        /* \"#utility.yul\":26576:26707   */\n      tag_538\n        /* \"#utility.yul\":26702:26706   */\n      dup2\n        /* \"#utility.yul\":26576:26707   */\n      tag_263\n      jump\t// in\n    tag_538:\n        /* \"#utility.yul\":26568:26707   */\n      swap1\n      pop\n        /* \"#utility.yul\":26295:26714   */\n      swap2\n      swap1\n      pop\n      jump\t// out\n        /* \"#utility.yul\":26720:26887   */\n    tag_264:\n        /* \"#utility.yul\":26860:26879   */\n      0x416c726561647920612074656163686572000000000000000000000000000000\n        /* \"#utility.yul\":26856:26857   */\n      0x00\n        /* \"#utility.yul\":26848:26854   */\n      dup3\n        /* \"#utility.yul\":26844:26858   */\n      add\n        /* \"#utility.yul\":26837:26880   */\n      mstore\n        /* \"#utility.yul\":26720:26887   */\n      pop\n      jump\t// out\n        /* \"#utility.yul\":26893:27259   */\n    tag_265:\n        /* \"#utility.yul\":27035:27038   */\n      0x00\n        /* \"#utility.yul\":27056:27123   */\n      tag_541\n        /* \"#utility.yul\":27120:27122   */\n      0x11\n        /* \"#utility.yul\":27115:27118   */\n      dup4\n        /* \"#utility.yul\":27056:27123   */\n      tag_209\n      jump\t// in\n    tag_541:\n        /* \"#utility.yul\":27049:27123   */\n      swap2\n      pop\n        /* \"#utility.yul\":27132:27225   */\n      tag_542\n        /* \"#utility.yul\":27221:27224   */\n      dup3\n        /* \"#utility.yul\":27132:27225   */\n      tag_264\n      jump\t// in\n    tag_542:\n        /* \"#utility.yul\":27250:27252   */\n      0x20\n        /* \"#utility.yul\":27245:27248   */\n      dup3\n        /* \"#utility.yul\":27241:27253   */\n      add\n        /* \"#utility.yul\":27234:27253   */\n      swap1\n      pop\n        /* \"#utility.yul\":26893:27259   */\n      swap2\n      swap1\n      pop\n      jump\t// out\n        /* \"#utility.yul\":27265:27684   */\n    tag_111:\n        /* \"#utility.yul\":27431:27435   */\n      0x00\n        /* \"#utility.yul\":27469:27471   */\n      0x20\n        /* \"#utility.yul\":27458:27467   */\n      dup3\n        /* \"#utility.yul\":27454:27472   */\n      add\n        /* \"#utility.yul\":27446:27472   */\n      swap1\n      pop\n        /* \"#utility.yul\":27518:27527   */\n      dup2\n        /* \"#utility.yul\":27512:27516   */\n      dup2\n        /* \"#utility.yul\":27508:27528   */\n      sub\n        /* \"#utility.yul\":27504:27505   */\n      0x00\n        /* \"#utility.yul\":27493:27502   */\n      dup4\n        /* \"#utility.yul\":27489:27506   */\n      add\n        /* \"#utility.yul\":27482:27529   */\n      mstore\n        /* \"#utility.yul\":27546:27677   */\n      tag_544\n        /* \"#utility.yul\":27672:27676   */\n      dup2\n        /* \"#utility.yul\":27546:27677   */\n      tag_265\n      jump\t// in\n    tag_544:\n        /* \"#utility.yul\":27538:27677   */\n      swap1\n      pop\n        /* \"#utility.yul\":27265:27684   */\n      swap2\n      swap1\n      pop\n      jump\t// out\n        /* \"#utility.yul\":27690:27853   */\n    tag_266:\n        /* \"#utility.yul\":27830:27845   */\n      0x4e6f742061207465616368657200000000000000000000000000000000000000\n        /* \"#utility.yul\":27826:27827   */\n      0x00\n        /* \"#utility.yul\":27818:27824   */\n      dup3\n        /* \"#utility.yul\":27814:27828   */\n      add\n        /* \"#utility.yul\":27807:27846   */\n      mstore\n        /* \"#utility.yul\":27690:27853   */\n      pop\n      jump\t// out\n        /* \"#utility.yul\":27859:28225   */\n    tag_267:\n        /* \"#utility.yul\":28001:28004   */\n      0x00\n        /* \"#utility.yul\":28022:28089   */\n      tag_547\n        /* \"#utility.yul\":28086:28088   */\n      0x0d\n        /* \"#utility.yul\":28081:28084   */\n      dup4\n        /* \"#utility.yul\":28022:28089   */\n      tag_209\n      jump\t// in\n    tag_547:\n        /* \"#utility.yul\":28015:28089   */\n      swap2\n      pop\n        /* \"#utility.yul\":28098:28191   */\n      tag_548\n        /* \"#utility.yul\":28187:28190   */\n      dup3\n        /* \"#utility.yul\":28098:28191   */\n      tag_266\n      jump\t// in\n    tag_548:\n        /* \"#utility.yul\":28216:28218   */\n      0x20\n        /* \"#utility.yul\":28211:28214   */\n      dup3\n        /* \"#utility.yul\":28207:28219   */\n      add\n        /* \"#utility.yul\":28200:28219   */\n      swap1\n      pop\n        /* \"#utility.yul\":27859:28225   */\n      swap2\n      swap1\n      pop\n      jump\t// out\n        /* \"#utility.yul\":28231:28650   */\n    tag_122:\n        /* \"#utility.yul\":28397:28401   */\n      0x00\n        /* \"#utility.yul\":28435:28437   */\n      0x20\n        /* \"#utility.yul\":28424:28433   */\n      dup3\n        /* \"#utility.yul\":28420:28438   */\n      add\n        /* \"#utility.yul\":28412:28438   */\n      swap1\n      pop\n        /* \"#utility.yul\":28484:28493   */\n      dup2\n        /* \"#utility.yul\":28478:28482   */\n      dup2\n        /* \"#utility.yul\":28474:28494   */\n      sub\n        /* \"#utility.yul\":28470:28471   */\n      0x00\n        /* \"#utility.yul\":28459:28468   */\n      dup4\n        /* \"#utility.yul\":28455:28472   */\n      add\n        /* \"#utility.yul\":28448:28495   */\n      mstore\n        /* \"#utility.yul\":28512:28643   */\n      tag_550\n        /* \"#utility.yul\":28638:28642   */\n      dup2\n        /* \"#utility.yul\":28512:28643   */\n      tag_267\n      jump\t// in\n    tag_550:\n        /* \"#utility.yul\":28504:28643   */\n      swap1\n      pop\n        /* \"#utility.yul\":28231:28650   */\n      swap2\n      swap1\n      pop\n      jump\t// out\n        /* \"#utility.yul\":28656:28832   */\n    tag_268:\n        /* \"#utility.yul\":28796:28824   */\n      0x53747564656e7420616c72656164792072656769737465726564000000000000\n        /* \"#utility.yul\":28792:28793   */\n      0x00\n        /* \"#utility.yul\":28784:28790   */\n      dup3\n        /* \"#utility.yul\":28780:28794   */\n      add\n        /* \"#utility.yul\":28773:28825   */\n      mstore\n        /* \"#utility.yul\":28656:28832   */\n      pop\n      jump\t// out\n        /* \"#utility.yul\":28838:29204   */\n    tag_269:\n        /* \"#utility.yul\":28980:28983   */\n      0x00\n        /* \"#utility.yul\":29001:29068   */\n      tag_553\n        /* \"#utility.yul\":29065:29067   */\n      0x1a\n        /* \"#utility.yul\":29060:29063   */\n      dup4\n        /* \"#utility.yul\":29001:29068   */\n      tag_209\n      jump\t// in\n    tag_553:\n        /* \"#utility.yul\":28994:29068   */\n      swap2\n      pop\n        /* \"#utility.yul\":29077:29170   */\n      tag_554\n        /* \"#utility.yul\":29166:29169   */\n      dup3\n        /* \"#utility.yul\":29077:29170   */\n      tag_268\n      jump\t// in\n    tag_554:\n        /* \"#utility.yul\":29195:29197   */\n      0x20\n        /* \"#utility.yul\":29190:29193   */\n      dup3\n        /* \"#utility.yul\":29186:29198   */\n      add\n        /* \"#utility.yul\":29179:29198   */\n      swap1\n      pop\n        /* \"#utility.yul\":28838:29204   */\n      swap2\n      swap1\n      pop\n      jump\t// out\n        /* \"#utility.yul\":29210:29629   */\n    tag_158:\n        /* \"#utility.yul\":29376:29380   */\n      0x00\n        /* \"#utility.yul\":29414:29416   */\n      0x20\n        /* \"#utility.yul\":29403:29412   */\n      dup3\n        /* \"#utility.yul\":29399:29417   */\n      add\n        /* \"#utility.yul\":29391:29417   */\n      swap1\n      pop\n        /* \"#utility.yul\":29463:29472   */\n      dup2\n        /* \"#utility.yul\":29457:29461   */\n      dup2\n        /* \"#utility.yul\":29453:29473   */\n      sub\n        /* \"#utility.yul\":29449:29450   */\n      0x00\n        /* \"#utility.yul\":29438:29447   */\n      dup4\n        /* \"#utility.yul\":29434:29451   */\n      add\n        /* \"#utility.yul\":29427:29474   */\n      mstore\n        /* \"#utility.yul\":29491:29622   */\n      tag_556\n        /* \"#utility.yul\":29617:29621   */\n      dup2\n        /* \"#utility.yul\":29491:29622   */\n      tag_269\n      jump\t// in\n    tag_556:\n        /* \"#utility.yul\":29483:29622   */\n      swap1\n      pop\n        /* \"#utility.yul\":29210:29629   */\n      swap2\n      swap1\n      pop\n      jump\t// out\n        /* \"#utility.yul\":29635:30058   */\n    tag_161:\n        /* \"#utility.yul\":29776:29780   */\n      0x00\n        /* \"#utility.yul\":29814:29816   */\n      0x40\n        /* \"#utility.yul\":29803:29812   */\n      dup3\n        /* \"#utility.yul\":29799:29817   */\n      add\n        /* \"#utility.yul\":29791:29817   */\n      swap1\n      pop\n        /* \"#utility.yul\":29863:29872   */\n      dup2\n        /* \"#utility.yul\":29857:29861   */\n      dup2\n        /* \"#utility.yul\":29853:29873   */\n      sub\n        /* \"#utility.yul\":29849:29850   */\n      0x00\n        /* \"#utility.yul\":29838:29847   */\n      dup4\n        /* \"#utility.yul\":29834:29851   */\n      add\n        /* \"#utility.yul\":29827:29874   */\n      mstore\n        /* \"#utility.yul\":29891:29969   */\n      tag_558\n        /* \"#utility.yul\":29964:29968   */\n      dup2\n        /* \"#utility.yul\":29955:29961   */\n      dup6\n        /* \"#utility.yul\":29891:29969   */\n      tag_211\n      jump\t// in\n    tag_558:\n        /* \"#utility.yul\":29883:29969   */\n      swap1\n      pop\n        /* \"#utility.yul\":29979:30051   */\n      tag_559\n        /* \"#utility.yul\":30047:30049   */\n      0x20\n        /* \"#utility.yul\":30036:30045   */\n      dup4\n        /* \"#utility.yul\":30032:30050   */\n      add\n        /* \"#utility.yul\":30023:30029   */\n      dup5\n        /* \"#utility.yul\":29979:30051   */\n      tag_212\n      jump\t// in\n    tag_559:\n        /* \"#utility.yul\":29635:30058   */\n      swap4\n      swap3\n      pop\n      pop\n      pop\n      jump\t// out\n        /* \"#utility.yul\":30064:30229   */\n    tag_270:\n        /* \"#utility.yul\":30204:30221   */\n      0x496e76616c696420616464726573730000000000000000000000000000000000\n        /* \"#utility.yul\":30200:30201   */\n      0x00\n        /* \"#utility.yul\":30192:30198   */\n      dup3\n        /* \"#utility.yul\":30188:30202   */\n      add\n        /* \"#utility.yul\":30181:30222   */\n      mstore\n        /* \"#utility.yul\":30064:30229   */\n      pop\n      jump\t// out\n        /* \"#utility.yul\":30235:30601   */\n    tag_271:\n        /* \"#utility.yul\":30377:30380   */\n      0x00\n        /* \"#utility.yul\":30398:30465   */\n      tag_562\n        /* \"#utility.yul\":30462:30464   */\n      0x0f\n        /* \"#utility.yul\":30457:30460   */\n      dup4\n        /* \"#utility.yul\":30398:30465   */\n      tag_209\n      jump\t// in\n    tag_562:\n        /* \"#utility.yul\":30391:30465   */\n      swap2\n      pop\n        /* \"#utility.yul\":30474:30567   */\n      tag_563\n        /* \"#utility.yul\":30563:30566   */\n      dup3\n        /* \"#utility.yul\":30474:30567   */\n      tag_270\n      jump\t// in\n    tag_563:\n        /* \"#utility.yul\":30592:30594   */\n      0x20\n        /* \"#utility.yul\":30587:30590   */\n      dup3\n        /* \"#utility.yul\":30583:30595   */\n      add\n        /* \"#utility.yul\":30576:30595   */\n      swap1\n      pop\n        /* \"#utility.yul\":30235:30601   */\n      swap2\n      swap1\n      pop\n      jump\t// out\n        /* \"#utility.yul\":30607:31026   */\n    tag_168:\n        /* \"#utility.yul\":30773:30777   */\n      0x00\n        /* \"#utility.yul\":30811:30813   */\n      0x20\n        /* \"#utility.yul\":30800:30809   */\n      dup3\n        /* \"#utility.yul\":30796:30814   */\n      add\n        /* \"#utility.yul\":30788:30814   */\n      swap1\n      pop\n        /* \"#utility.yul\":30860:30869   */\n      dup2\n        /* \"#utility.yul\":30854:30858   */\n      dup2\n        /* \"#utility.yul\":30850:30870   */\n      sub\n        /* \"#utility.yul\":30846:30847   */\n      0x00\n        /* \"#utility.yul\":30835:30844   */\n      dup4\n        /* \"#utility.yul\":30831:30848   */\n      add\n        /* \"#utility.yul\":30824:30871   */\n      mstore\n        /* \"#utility.yul\":30888:31019   */\n      tag_565\n        /* \"#utility.yul\":31014:31018   */\n      dup2\n        /* \"#utility.yul\":30888:31019   */\n      tag_271\n      jump\t// in\n    tag_565:\n        /* \"#utility.yul\":30880:31019   */\n      swap1\n      pop\n        /* \"#utility.yul\":30607:31026   */\n      swap2\n      swap1\n      pop\n      jump\t// out\n\n    auxdata: 0xa264697066735822122046ae938c48ec46767c977ad9e2c027c74c9932928c089f6ffef1f8de741eab3d64736f6c63430008140033\n}\n",
				"bytecode": {
					"linkReferences": {},
					"object": "60806040525f8060146101000a81548160ff021916908315150217905550348015610028575f80fd5b50335f806101000a81548173ffffffffffffffffffffffffffffffffffffffff021916908373ffffffffffffffffffffffffffffffffffffffff1602179055506001805f3373ffffffffffffffffffffffffffffffffffffffff1673ffffffffffffffffffffffffffffffffffffffff1681526020019081526020015f205f6101000a81548160ff0219169083151502179055506124f7806100c95f395ff3fe608060405234801561000f575f80fd5b50600436106100b2575f3560e01c80638456cb591161006f5780638456cb59146101675780638da5cb5b14610171578063a6c807a91461018f578063aec37eb3146101c1578063d47f9d13146101f1578063f2fde38b1461020d576100b2565b8063277c6263146100b65780633bc6e309146100d25780633f4ba83a146100ee57806352ff6846146100f85780635c975abb146101145780637018850014610132575b5f80fd5b6100d060048036038101906100cb9190611769565b610229565b005b6100ec60048036038101906100e791906117c3565b610665565b005b6100f6610816565b005b610112600480360381019061010d91906117c3565b610901565b005b61011c610ab1565b6040516101299190611808565b60405180910390f35b61014c600480360381019061014791906117c3565b610ac3565b60405161015e96959493929190611961565b60405180910390f35b61016f610dcd565b005b610179610eb9565b60405161018691906119e4565b60405180910390f35b6101a960048036038101906101a491906117c3565b610edc565b6040516101b8939291906119fd565b60405180910390f35b6101db60048036038101906101d691906117c3565b610f94565b6040516101e89190611808565b60405180910390f35b61020b60048036038101906102069190611ae9565b610fe6565b005b610227600480360381019061022291906117c3565b61123f565b005b60015f3373ffffffffffffffffffffffffffffffffffffffff1673ffffffffffffffffffffffffffffffffffffffff1681526020019081526020015f205f9054906101000a900460ff166102b2576040517f08c379a00000000000000000000000000000000000000000000000000000000081526004016102a990611b9f565b60405180910390fd5b5f60149054906101000a900460ff1615610301576040517f08c379a00000000000000000000000000000000000000000000000000000000081526004016102f890611c07565b60405180910390fd5b60025f8373ffffffffffffffffffffffffffffffffffffffff1673ffffffffffffffffffffffffffffffffffffffff1681526020019081526020015f206002015f9054906101000a900460ff1661038d576040517f08c379a000000000000000000000000000000000000000000000000000000000815260040161038490611c6f565b60405180910390fd5b5f8151116103d0576040517f08c379a00000000000000000000000000000000000000000000000000000000081526004016103c790611cd7565b60405180910390fd5b5f805b82518110156104755760648382815181106103f1576103f0611cf5565b5b6020026020010151111561043a576040517f08c379a000000000000000000000000000000000000000000000000000000000815260040161043190611d6c565b60405180910390fd5b82818151811061044d5761044c611cf5565b5b6020026020010151826104609190611db7565b9150808061046d90611dea565b9150506103d3565b505f61048c8351836104879190611e5e565b61137c565b90505f60035f8673ffffffffffffffffffffffffffffffffffffffff1673ffffffffffffffffffffffffffffffffffffffff1681526020019081526020015f206003015414610568578373ffffffffffffffffffffffffffffffffffffffff167fa03d5afb76d9603b5866d2bfa277c85102dd6cdb47bd1ab0b3ad1e704253d3d660035f8773ffffffffffffffffffffffffffffffffffffffff1673ffffffffffffffffffffffffffffffffffffffff1681526020019081526020015f205f018560405161055b929190611f58565b60405180910390a26105b9565b8373ffffffffffffffffffffffffffffffffffffffff167ff49beaaee73cb4b8719a7cd0dc4ab4cec67e358fca9570fa363663c84cee635484836040516105b0929190611f8d565b60405180910390a25b60405180608001604052808481526020018381526020018281526020014281525060035f8673ffffffffffffffffffffffffffffffffffffffff1673ffffffffffffffffffffffffffffffffffffffff1681526020019081526020015f205f820151815f019080519060200190610631929190611515565b5060208201518160010155604082015181600201908161065191906121bc565b506060820151816003015590505050505050565b5f8054906101000a900473ffffffffffffffffffffffffffffffffffffffff1673ffffffffffffffffffffffffffffffffffffffff163373ffffffffffffffffffffffffffffffffffffffff16146106f2576040517f08c379a00000000000000000000000000000000000000000000000000000000081526004016106e9906122d5565b60405180910390fd5b60015f8273ffffffffffffffffffffffffffffffffffffffff1673ffffffffffffffffffffffffffffffffffffffff1681526020019081526020015f205f9054906101000a900460ff161561077c576040517f08c379a00000000000000000000000000000000000000000000000000000000081526004016107739061233d565b60405180910390fd5b6001805f8373ffffffffffffffffffffffffffffffffffffffff1673ffffffffffffffffffffffffffffffffffffffff1681526020019081526020015f205f6101000a81548160ff0219169083151502179055508073ffffffffffffffffffffffffffffffffffffffff167f04e1c63d2b2fafca3496ea9c3f23b77835b9a91f5d74802ced76b7f929b3265e60405160405180910390a250565b5f8054906101000a900473ffffffffffffffffffffffffffffffffffffffff1673ffffffffffffffffffffffffffffffffffffffff163373ffffffffffffffffffffffffffffffffffffffff16146108a3576040517f08c379a000000000000000000000000000000000000000000000000000000000815260040161089a906122d5565b60405180910390fd5b5f8060146101000a81548160ff0219169083151502179055503373ffffffffffffffffffffffffffffffffffffffff167f5b65b0c1363b3003db9bcc5e1fd8805a6d6bf5bf6dc9d3431ee4494cd7d1176660405160405180910390a2565b5f8054906101000a900473ffffffffffffffffffffffffffffffffffffffff1673ffffffffffffffffffffffffffffffffffffffff163373ffffffffffffffffffffffffffffffffffffffff161461098e576040517f08c379a0000000000000000000000000000000000000000000000000000000008152600401610985906122d5565b60405180910390fd5b60015f8273ffffffffffffffffffffffffffffffffffffffff1673ffffffffffffffffffffffffffffffffffffffff1681526020019081526020015f205f9054906101000a900460ff16610a17576040517f08c379a0000000000000000000000000000000000000000000000000000000008152600401610a0e906123a5565b60405180910390fd5b5f60015f8373ffffffffffffffffffffffffffffffffffffffff1673ffffffffffffffffffffffffffffffffffffffff1681526020019081526020015f205f6101000a81548160ff0219169083151502179055508073ffffffffffffffffffffffffffffffffffffffff167f024a5dd50126818a1d488f90df37ad02592196a4ea744aff479981813929773460405160405180910390a250565b5f60149054906101000a900460ff1681565b60605f60605f60605f60025f8873ffffffffffffffffffffffffffffffffffffffff1673ffffffffffffffffffffffffffffffffffffffff1681526020019081526020015f206002015f9054906101000a900460ff16610b58576040517f08c379a0000000000000000000000000000000000000000000000000000000008152600401610b4f90611c6f565b60405180910390fd5b5f60025f8973ffffffffffffffffffffffffffffffffffffffff1673ffffffffffffffffffffffffffffffffffffffff1681526020019081526020015f206040518060600160405290815f82018054610bb090611fef565b80601f0160208091040260200160405190810160405280929190818152602001828054610bdc90611fef565b8015610c275780601f10610bfe57610100808354040283529160200191610c27565b820191905f5260205f20905b815481529060010190602001808311610c0a57829003601f168201915b5050505050815260200160018201548152602001600282015f9054906101000a900460ff16151515158152505090505f60035f8a73ffffffffffffffffffffffffffffffffffffffff1673ffffffffffffffffffffffffffffffffffffffff1681526020019081526020015f206040518060800160405290815f8201805480602002602001604051908101604052809291908181526020018280548015610ceb57602002820191905f5260205f20905b815481526020019060010190808311610cd7575b5050505050815260200160018201548152602001600282018054610d0e90611fef565b80601f0160208091040260200160405190810160405280929190818152602001828054610d3a90611fef565b8015610d855780601f10610d5c57610100808354040283529160200191610d85565b820191905f5260205f20905b815481529060010190602001808311610d6857829003601f168201915b505050505081526020016003820154815250509050815f01518260200151825f0151836020015184604001518560600151975097509750975097509750505091939550919395565b5f8054906101000a900473ffffffffffffffffffffffffffffffffffffffff1673ffffffffffffffffffffffffffffffffffffffff163373ffffffffffffffffffffffffffffffffffffffff1614610e5a576040517f08c379a0000000000000000000000000000000000000000000000000000000008152600401610e51906122d5565b60405180910390fd5b60015f60146101000a81548160ff0219169083151502179055503373ffffffffffffffffffffffffffffffffffffffff167f81990fd9a5c552b8e3677917d8a03c07678f0d2cb68f88b634aca2022e9bd19f60405160405180910390a2565b5f8054906101000a900473ffffffffffffffffffffffffffffffffffffffff1681565b6002602052805f5260405f205f91509050805f018054610efb90611fef565b80601f0160208091040260200160405190810160405280929190818152602001828054610f2790611fef565b8015610f725780601f10610f4957610100808354040283529160200191610f72565b820191905f5260205f20905b815481529060010190602001808311610f5557829003601f168201915b505050505090806001015490806002015f9054906101000a900460ff16905083565b5f60015f8373ffffffffffffffffffffffffffffffffffffffff1673ffffffffffffffffffffffffffffffffffffffff1681526020019081526020015f205f9054906101000a900460ff169050919050565b5f8054906101000a900473ffffffffffffffffffffffffffffffffffffffff1673ffffffffffffffffffffffffffffffffffffffff163373ffffffffffffffffffffffffffffffffffffffff1614611073576040517f08c379a000000000000000000000000000000000000000000000000000000000815260040161106a906122d5565b60405180910390fd5b5f60149054906101000a900460ff16156110c2576040517f08c379a00000000000000000000000000000000000000000000000000000000081526004016110b990611c07565b60405180910390fd5b60025f8473ffffffffffffffffffffffffffffffffffffffff1673ffffffffffffffffffffffffffffffffffffffff1681526020019081526020015f206002015f9054906101000a900460ff161561114f576040517f08c379a00000000000000000000000000000000000000000000000000000000081526004016111469061240d565b60405180910390fd5b60405180606001604052808381526020018281526020016001151581525060025f8573ffffffffffffffffffffffffffffffffffffffff1673ffffffffffffffffffffffffffffffffffffffff1681526020019081526020015f205f820151815f0190816111bd91906121bc565b50602082015181600101556040820151816002015f6101000a81548160ff0219169083151502179055509050508273ffffffffffffffffffffffffffffffffffffffff167f9c9948e5540cad013bb3d06dd108feb894f222ad978608c957d9bd55a5c564e1838360405161123292919061242b565b60405180910390a2505050565b5f8054906101000a900473ffffffffffffffffffffffffffffffffffffffff1673ffffffffffffffffffffffffffffffffffffffff163373ffffffffffffffffffffffffffffffffffffffff16146112cc576040517f08c379a00000000000000000000000000000000000000000000000000000000081526004016112c3906122d5565b60405180910390fd5b5f73ffffffffffffffffffffffffffffffffffffffff168173ffffffffffffffffffffffffffffffffffffffff160361133a576040517f08c379a0000000000000000000000000000000000000000000000000000000008152600401611331906124a3565b60405180910390fd5b805f806101000a81548173ffffffffffffffffffffffffffffffffffffffff021916908373ffffffffffffffffffffffffffffffffffffffff16021790555050565b6060605a82106113c3576040518060400160405280600281526020017f412b0000000000000000000000000000000000000000000000000000000000008152509050611510565b60508210611408576040518060400160405280600181526020017f41000000000000000000000000000000000000000000000000000000000000008152509050611510565b6046821061144d576040518060400160405280600181526020017f42000000000000000000000000000000000000000000000000000000000000008152509050611510565b603c8210611492576040518060400160405280600181526020017f43000000000000000000000000000000000000000000000000000000000000008152509050611510565b603282106114d7576040518060400160405280600181526020017f44000000000000000000000000000000000000000000000000000000000000008152509050611510565b6040518060400160405280600181526020017f460000000000000000000000000000000000000000000000000000000000000081525090505b919050565b828054828255905f5260205f2090810192821561154f579160200282015b8281111561154e578251825591602001919060010190611533565b5b50905061155c9190611560565b5090565b5b80821115611577575f815f905550600101611561565b5090565b5f604051905090565b5f80fd5b5f80fd5b5f73ffffffffffffffffffffffffffffffffffffffff82169050919050565b5f6115b58261158c565b9050919050565b6115c5816115ab565b81146115cf575f80fd5b50565b5f813590506115e0816115bc565b92915050565b5f80fd5b5f601f19601f8301169050919050565b7f4e487b71000000000000000000000000000000000000000000000000000000005f52604160045260245ffd5b611630826115ea565b810181811067ffffffffffffffff8211171561164f5761164e6115fa565b5b80604052505050565b5f61166161157b565b905061166d8282611627565b919050565b5f67ffffffffffffffff82111561168c5761168b6115fa565b5b602082029050602081019050919050565b5f80fd5b5f819050919050565b6116b3816116a1565b81146116bd575f80fd5b50565b5f813590506116ce816116aa565b92915050565b5f6116e66116e184611672565b611658565b905080838252602082019050602084028301858111156117095761170861169d565b5b835b81811015611732578061171e88826116c0565b84526020840193505060208101905061170b565b5050509392505050565b5f82601f8301126117505761174f6115e6565b5b81356117608482602086016116d4565b91505092915050565b5f806040838503121561177f5761177e611584565b5b5f61178c858286016115d2565b925050602083013567ffffffffffffffff8111156117ad576117ac611588565b5b6117b98582860161173c565b9150509250929050565b5f602082840312156117d8576117d7611584565b5b5f6117e5848285016115d2565b91505092915050565b5f8115159050919050565b611802816117ee565b82525050565b5f60208201905061181b5f8301846117f9565b92915050565b5f81519050919050565b5f82825260208201905092915050565b5f5b8381101561185857808201518184015260208101905061183d565b5f8484015250505050565b5f61186d82611821565b611877818561182b565b935061188781856020860161183b565b611890816115ea565b840191505092915050565b6118a4816116a1565b82525050565b5f81519050919050565b5f82825260208201905092915050565b5f819050602082019050919050565b6118dc816116a1565b82525050565b5f6118ed83836118d3565b60208301905092915050565b5f602082019050919050565b5f61190f826118aa565b61191981856118b4565b9350611924836118c4565b805f5b8381101561195457815161193b88826118e2565b9750611946836118f9565b925050600181019050611927565b5085935050505092915050565b5f60c0820190508181035f8301526119798189611863565b9050611988602083018861189b565b818103604083015261199a8187611905565b90506119a9606083018661189b565b81810360808301526119bb8185611863565b90506119ca60a083018461189b565b979650505050505050565b6119de816115ab565b82525050565b5f6020820190506119f75f8301846119d5565b92915050565b5f6060820190508181035f830152611a158186611863565b9050611a24602083018561189b565b611a3160408301846117f9565b949350505050565b5f80fd5b5f67ffffffffffffffff821115611a5757611a566115fa565b5b611a60826115ea565b9050602081019050919050565b828183375f83830152505050565b5f611a8d611a8884611a3d565b611658565b905082815260208101848484011115611aa957611aa8611a39565b5b611ab4848285611a6d565b509392505050565b5f82601f830112611ad057611acf6115e6565b5b8135611ae0848260208601611a7b565b91505092915050565b5f805f60608486031215611b0057611aff611584565b5b5f611b0d868287016115d2565b935050602084013567ffffffffffffffff811115611b2e57611b2d611588565b5b611b3a86828701611abc565b9250506040611b4b868287016116c0565b9150509250925092565b7f4163636573732044656e6965643a204f6e6c79207465616368657200000000005f82015250565b5f611b89601b8361182b565b9150611b9482611b55565b602082019050919050565b5f6020820190508181035f830152611bb681611b7d565b9050919050565b7f436f6e74726163742069732070617573656400000000000000000000000000005f82015250565b5f611bf160128361182b565b9150611bfc82611bbd565b602082019050919050565b5f6020820190508181035f830152611c1e81611be5565b9050919050565b7f53747564656e74206e6f742072656769737465726564000000000000000000005f82015250565b5f611c5960168361182b565b9150611c6482611c25565b602082019050919050565b5f6020820190508181035f830152611c8681611c4d565b9050919050565b7f4e6f206d61726b732070726f76696465640000000000000000000000000000005f82015250565b5f611cc160118361182b565b9150611ccc82611c8d565b602082019050919050565b5f6020820190508181035f830152611cee81611cb5565b9050919050565b7f4e487b71000000000000000000000000000000000000000000000000000000005f52603260045260245ffd5b7f496e76616c6964206d61726b3a206d757374206265203c3d20313030000000005f82015250565b5f611d56601c8361182b565b9150611d6182611d22565b602082019050919050565b5f6020820190508181035f830152611d8381611d4a565b9050919050565b7f4e487b71000000000000000000000000000000000000000000000000000000005f52601160045260245ffd5b5f611dc1826116a1565b9150611dcc836116a1565b9250828201905080821115611de457611de3611d8a565b5b92915050565b5f611df4826116a1565b91507fffffffffffffffffffffffffffffffffffffffffffffffffffffffffffffffff8203611e2657611e25611d8a565b5b600182019050919050565b7f4e487b71000000000000000000000000000000000000000000000000000000005f52601260045260245ffd5b5f611e68826116a1565b9150611e73836116a1565b925082611e8357611e82611e31565b5b828204905092915050565b5f81549050919050565b5f819050815f5260205f209050919050565b5f815f1c9050919050565b5f819050919050565b5f611ed0611ecb83611eaa565b611eb5565b9050919050565b5f611ee28254611ebe565b9050919050565b5f600182019050919050565b5f611eff82611e8e565b611f0981856118b4565b9350611f1483611e98565b805f5b83811015611f4b57611f2882611ed7565b611f3288826118e2565b9750611f3d83611ee9565b925050600181019050611f17565b5085935050505092915050565b5f6040820190508181035f830152611f708185611ef5565b90508181036020830152611f848184611905565b90509392505050565b5f6040820190508181035f830152611fa58185611905565b90508181036020830152611fb98184611863565b90509392505050565b7f4e487b71000000000000000000000000000000000000000000000000000000005f52602260045260245ffd5b5f600282049050600182168061200657607f821691505b60208210810361201957612018611fc2565b5b50919050565b5f819050815f5260205f209050919050565b5f6020601f8301049050919050565b5f82821b905092915050565b5f6008830261207b7fffffffffffffffffffffffffffffffffffffffffffffffffffffffffffffffff82612040565b6120858683612040565b95508019841693508086168417925050509392505050565b5f819050919050565b5f6120c06120bb6120b6846116a1565b61209d565b6116a1565b9050919050565b5f819050919050565b6120d9836120a6565b6120ed6120e5826120c7565b84845461204c565b825550505050565b5f90565b6121016120f5565b61210c8184846120d0565b505050565b5b8181101561212f576121245f826120f9565b600181019050612112565b5050565b601f821115612174576121458161201f565b61214e84612031565b8101602085101561215d578190505b61217161216985612031565b830182612111565b50505b505050565b5f82821c905092915050565b5f6121945f1984600802612179565b1980831691505092915050565b5f6121ac8383612185565b9150826002028217905092915050565b6121c582611821565b67ffffffffffffffff8111156121de576121dd6115fa565b5b6121e88254611fef565b6121f3828285612133565b5f60209050601f831160018114612224575f8415612212578287015190505b61221c85826121a1565b865550612283565b601f1984166122328661201f565b5f5b8281101561225957848901518255600182019150602085019450602081019050612234565b868310156122765784890151612272601f891682612185565b8355505b6001600288020188555050505b505050505050565b7f4163636573732044656e6965643a204f6e6c79206f776e6572000000000000005f82015250565b5f6122bf60198361182b565b91506122ca8261228b565b602082019050919050565b5f6020820190508181035f8301526122ec816122b3565b9050919050565b7f416c7265616479206120746561636865720000000000000000000000000000005f82015250565b5f61232760118361182b565b9150612332826122f3565b602082019050919050565b5f6020820190508181035f8301526123548161231b565b9050919050565b7f4e6f7420612074656163686572000000000000000000000000000000000000005f82015250565b5f61238f600d8361182b565b915061239a8261235b565b602082019050919050565b5f6020820190508181035f8301526123bc81612383565b9050919050565b7f53747564656e7420616c726561647920726567697374657265640000000000005f82015250565b5f6123f7601a8361182b565b9150612402826123c3565b602082019050919050565b5f6020820190508181035f830152612424816123eb565b9050919050565b5f6040820190508181035f8301526124438185611863565b9050612452602083018461189b565b9392505050565b7f496e76616c6964206164647265737300000000000000000000000000000000005f82015250565b5f61248d600f8361182b565b915061249882612459565b602082019050919050565b5f6020820190508181035f8301526124ba81612481565b905091905056fea264697066735822122046ae938c48ec46767c977ad9e2c027c74c9932928c089f6ffef1f8de741eab3d64736f6c63430008140033",
					"opcodes": "PUSH1 0x80 PUSH1 0x40 MSTORE PUSH0 DUP1 PUSH1 0x14 PUSH2 0x100 EXP DUP2 SLOAD DUP2 PUSH1 0xFF MUL NOT AND SWAP1 DUP4 ISZERO ISZERO MUL OR SWAP1 SSTORE POP CALLVALUE DUP1 ISZERO PUSH2 0x28 JUMPI PUSH0 DUP1 REVERT JUMPDEST POP CALLER PUSH0 DUP1 PUSH2 0x100 EXP DUP2 SLOAD DUP2 PUSH20 0xFFFFFFFFFFFFFFFFFFFFFFFFFFFFFFFFFFFFFFFF MUL NOT AND SWAP1 DUP4 PUSH20 0xFFFFFFFFFFFFFFFFFFFFFFFFFFFFFFFFFFFFFFFF AND MUL OR SWAP1 SSTORE POP PUSH1 0x1 DUP1 PUSH0 CALLER PUSH20 0xFFFFFFFFFFFFFFFFFFFFFFFFFFFFFFFFFFFFFFFF AND PUSH20 0xFFFFFFFFFFFFFFFFFFFFFFFFFFFFFFFFFFFFFFFF AND DUP2 MSTORE PUSH1 0x20 ADD SWAP1 DUP2 MSTORE PUSH1 0x20 ADD PUSH0 KECCAK256 PUSH0 PUSH2 0x100 EXP DUP2 SLOAD DUP2 PUSH1 0xFF MUL NOT AND SWAP1 DUP4 ISZERO ISZERO MUL OR SWAP1 SSTORE POP PUSH2 0x24F7 DUP1 PUSH2 0xC9 PUSH0 CODECOPY PUSH0 RETURN INVALID PUSH1 0x80 PUSH1 0x40 MSTORE CALLVALUE DUP1 ISZERO PUSH2 0xF JUMPI PUSH0 DUP1 REVERT JUMPDEST POP PUSH1 0x4 CALLDATASIZE LT PUSH2 0xB2 JUMPI PUSH0 CALLDATALOAD PUSH1 0xE0 SHR DUP1 PUSH4 0x8456CB59 GT PUSH2 0x6F JUMPI DUP1 PUSH4 0x8456CB59 EQ PUSH2 0x167 JUMPI DUP1 PUSH4 0x8DA5CB5B EQ PUSH2 0x171 JUMPI DUP1 PUSH4 0xA6C807A9 EQ PUSH2 0x18F JUMPI DUP1 PUSH4 0xAEC37EB3 EQ PUSH2 0x1C1 JUMPI DUP1 PUSH4 0xD47F9D13 EQ PUSH2 0x1F1 JUMPI DUP1 PUSH4 0xF2FDE38B EQ PUSH2 0x20D JUMPI PUSH2 0xB2 JUMP JUMPDEST DUP1 PUSH4 0x277C6263 EQ PUSH2 0xB6 JUMPI DUP1 PUSH4 0x3BC6E309 EQ PUSH2 0xD2 JUMPI DUP1 PUSH4 0x3F4BA83A EQ PUSH2 0xEE JUMPI DUP1 PUSH4 0x52FF6846 EQ PUSH2 0xF8 JUMPI DUP1 PUSH4 0x5C975ABB EQ PUSH2 0x114 JUMPI DUP1 PUSH4 0x70188500 EQ PUSH2 0x132 JUMPI JUMPDEST PUSH0 DUP1 REVERT JUMPDEST PUSH2 0xD0 PUSH1 0x4 DUP1 CALLDATASIZE SUB DUP2 ADD SWAP1 PUSH2 0xCB SWAP2 SWAP1 PUSH2 0x1769 JUMP JUMPDEST PUSH2 0x229 JUMP JUMPDEST STOP JUMPDEST PUSH2 0xEC PUSH1 0x4 DUP1 CALLDATASIZE SUB DUP2 ADD SWAP1 PUSH2 0xE7 SWAP2 SWAP1 PUSH2 0x17C3 JUMP JUMPDEST PUSH2 0x665 JUMP JUMPDEST STOP JUMPDEST PUSH2 0xF6 PUSH2 0x816 JUMP JUMPDEST STOP JUMPDEST PUSH2 0x112 PUSH1 0x4 DUP1 CALLDATASIZE SUB DUP2 ADD SWAP1 PUSH2 0x10D SWAP2 SWAP1 PUSH2 0x17C3 JUMP JUMPDEST PUSH2 0x901 JUMP JUMPDEST STOP JUMPDEST PUSH2 0x11C PUSH2 0xAB1 JUMP JUMPDEST PUSH1 0x40 MLOAD PUSH2 0x129 SWAP2 SWAP1 PUSH2 0x1808 JUMP JUMPDEST PUSH1 0x40 MLOAD DUP1 SWAP2 SUB SWAP1 RETURN JUMPDEST PUSH2 0x14C PUSH1 0x4 DUP1 CALLDATASIZE SUB DUP2 ADD SWAP1 PUSH2 0x147 SWAP2 SWAP1 PUSH2 0x17C3 JUMP JUMPDEST PUSH2 0xAC3 JUMP JUMPDEST PUSH1 0x40 MLOAD PUSH2 0x15E SWAP7 SWAP6 SWAP5 SWAP4 SWAP3 SWAP2 SWAP1 PUSH2 0x1961 JUMP JUMPDEST PUSH1 0x40 MLOAD DUP1 SWAP2 SUB SWAP1 RETURN JUMPDEST PUSH2 0x16F PUSH2 0xDCD JUMP JUMPDEST STOP JUMPDEST PUSH2 0x179 PUSH2 0xEB9 JUMP JUMPDEST PUSH1 0x40 MLOAD PUSH2 0x186 SWAP2 SWAP1 PUSH2 0x19E4 JUMP JUMPDEST PUSH1 0x40 MLOAD DUP1 SWAP2 SUB SWAP1 RETURN JUMPDEST PUSH2 0x1A9 PUSH1 0x4 DUP1 CALLDATASIZE SUB DUP2 ADD SWAP1 PUSH2 0x1A4 SWAP2 SWAP1 PUSH2 0x17C3 JUMP JUMPDEST PUSH2 0xEDC JUMP JUMPDEST PUSH1 0x40 MLOAD PUSH2 0x1B8 SWAP4 SWAP3 SWAP2 SWAP1 PUSH2 0x19FD JUMP JUMPDEST PUSH1 0x40 MLOAD DUP1 SWAP2 SUB SWAP1 RETURN JUMPDEST PUSH2 0x1DB PUSH1 0x4 DUP1 CALLDATASIZE SUB DUP2 ADD SWAP1 PUSH2 0x1D6 SWAP2 SWAP1 PUSH2 0x17C3 JUMP JUMPDEST PUSH2 0xF94 JUMP JUMPDEST PUSH1 0x40 MLOAD PUSH2 0x1E8 SWAP2 SWAP1 PUSH2 0x1808 JUMP JUMPDEST PUSH1 0x40 MLOAD DUP1 SWAP2 SUB SWAP1 RETURN JUMPDEST PUSH2 0x20B PUSH1 0x4 DUP1 CALLDATASIZE SUB DUP2 ADD SWAP1 PUSH2 0x206 SWAP2 SWAP1 PUSH2 0x1AE9 JUMP JUMPDEST PUSH2 0xFE6 JUMP JUMPDEST STOP JUMPDEST PUSH2 0x227 PUSH1 0x4 DUP1 CALLDATASIZE SUB DUP2 ADD SWAP1 PUSH2 0x222 SWAP2 SWAP1 PUSH2 0x17C3 JUMP JUMPDEST PUSH2 0x123F JUMP JUMPDEST STOP JUMPDEST PUSH1 0x1 PUSH0 CALLER PUSH20 0xFFFFFFFFFFFFFFFFFFFFFFFFFFFFFFFFFFFFFFFF AND PUSH20 0xFFFFFFFFFFFFFFFFFFFFFFFFFFFFFFFFFFFFFFFF AND DUP2 MSTORE PUSH1 0x20 ADD SWAP1 DUP2 MSTORE PUSH1 0x20 ADD PUSH0 KECCAK256 PUSH0 SWAP1 SLOAD SWAP1 PUSH2 0x100 EXP SWAP1 DIV PUSH1 0xFF AND PUSH2 0x2B2 JUMPI PUSH1 0x40 MLOAD PUSH32 0x8C379A000000000000000000000000000000000000000000000000000000000 DUP2 MSTORE PUSH1 0x4 ADD PUSH2 0x2A9 SWAP1 PUSH2 0x1B9F JUMP JUMPDEST PUSH1 0x40 MLOAD DUP1 SWAP2 SUB SWAP1 REVERT JUMPDEST PUSH0 PUSH1 0x14 SWAP1 SLOAD SWAP1 PUSH2 0x100 EXP SWAP1 DIV PUSH1 0xFF AND ISZERO PUSH2 0x301 JUMPI PUSH1 0x40 MLOAD PUSH32 0x8C379A000000000000000000000000000000000000000000000000000000000 DUP2 MSTORE PUSH1 0x4 ADD PUSH2 0x2F8 SWAP1 PUSH2 0x1C07 JUMP JUMPDEST PUSH1 0x40 MLOAD DUP1 SWAP2 SUB SWAP1 REVERT JUMPDEST PUSH1 0x2 PUSH0 DUP4 PUSH20 0xFFFFFFFFFFFFFFFFFFFFFFFFFFFFFFFFFFFFFFFF AND PUSH20 0xFFFFFFFFFFFFFFFFFFFFFFFFFFFFFFFFFFFFFFFF AND DUP2 MSTORE PUSH1 0x20 ADD SWAP1 DUP2 MSTORE PUSH1 0x20 ADD PUSH0 KECCAK256 PUSH1 0x2 ADD PUSH0 SWAP1 SLOAD SWAP1 PUSH2 0x100 EXP SWAP1 DIV PUSH1 0xFF AND PUSH2 0x38D JUMPI PUSH1 0x40 MLOAD PUSH32 0x8C379A000000000000000000000000000000000000000000000000000000000 DUP2 MSTORE PUSH1 0x4 ADD PUSH2 0x384 SWAP1 PUSH2 0x1C6F JUMP JUMPDEST PUSH1 0x40 MLOAD DUP1 SWAP2 SUB SWAP1 REVERT JUMPDEST PUSH0 DUP2 MLOAD GT PUSH2 0x3D0 JUMPI PUSH1 0x40 MLOAD PUSH32 0x8C379A000000000000000000000000000000000000000000000000000000000 DUP2 MSTORE PUSH1 0x4 ADD PUSH2 0x3C7 SWAP1 PUSH2 0x1CD7 JUMP JUMPDEST PUSH1 0x40 MLOAD DUP1 SWAP2 SUB SWAP1 REVERT JUMPDEST PUSH0 DUP1 JUMPDEST DUP3 MLOAD DUP2 LT ISZERO PUSH2 0x475 JUMPI PUSH1 0x64 DUP4 DUP3 DUP2 MLOAD DUP2 LT PUSH2 0x3F1 JUMPI PUSH2 0x3F0 PUSH2 0x1CF5 JUMP JUMPDEST JUMPDEST PUSH1 0x20 MUL PUSH1 0x20 ADD ADD MLOAD GT ISZERO PUSH2 0x43A JUMPI PUSH1 0x40 MLOAD PUSH32 0x8C379A000000000000000000000000000000000000000000000000000000000 DUP2 MSTORE PUSH1 0x4 ADD PUSH2 0x431 SWAP1 PUSH2 0x1D6C JUMP JUMPDEST PUSH1 0x40 MLOAD DUP1 SWAP2 SUB SWAP1 REVERT JUMPDEST DUP3 DUP2 DUP2 MLOAD DUP2 LT PUSH2 0x44D JUMPI PUSH2 0x44C PUSH2 0x1CF5 JUMP JUMPDEST JUMPDEST PUSH1 0x20 MUL PUSH1 0x20 ADD ADD MLOAD DUP3 PUSH2 0x460 SWAP2 SWAP1 PUSH2 0x1DB7 JUMP JUMPDEST SWAP2 POP DUP1 DUP1 PUSH2 0x46D SWAP1 PUSH2 0x1DEA JUMP JUMPDEST SWAP2 POP POP PUSH2 0x3D3 JUMP JUMPDEST POP PUSH0 PUSH2 0x48C DUP4 MLOAD DUP4 PUSH2 0x487 SWAP2 SWAP1 PUSH2 0x1E5E JUMP JUMPDEST PUSH2 0x137C JUMP JUMPDEST SWAP1 POP PUSH0 PUSH1 0x3 PUSH0 DUP7 PUSH20 0xFFFFFFFFFFFFFFFFFFFFFFFFFFFFFFFFFFFFFFFF AND PUSH20 0xFFFFFFFFFFFFFFFFFFFFFFFFFFFFFFFFFFFFFFFF AND DUP2 MSTORE PUSH1 0x20 ADD SWAP1 DUP2 MSTORE PUSH1 0x20 ADD PUSH0 KECCAK256 PUSH1 0x3 ADD SLOAD EQ PUSH2 0x568 JUMPI DUP4 PUSH20 0xFFFFFFFFFFFFFFFFFFFFFFFFFFFFFFFFFFFFFFFF AND PUSH32 0xA03D5AFB76D9603B5866D2BFA277C85102DD6CDB47BD1AB0B3AD1E704253D3D6 PUSH1 0x3 PUSH0 DUP8 PUSH20 0xFFFFFFFFFFFFFFFFFFFFFFFFFFFFFFFFFFFFFFFF AND PUSH20 0xFFFFFFFFFFFFFFFFFFFFFFFFFFFFFFFFFFFFFFFF AND DUP2 MSTORE PUSH1 0x20 ADD SWAP1 DUP2 MSTORE PUSH1 0x20 ADD PUSH0 KECCAK256 PUSH0 ADD DUP6 PUSH1 0x40 MLOAD PUSH2 0x55B SWAP3 SWAP2 SWAP1 PUSH2 0x1F58 JUMP JUMPDEST PUSH1 0x40 MLOAD DUP1 SWAP2 SUB SWAP1 LOG2 PUSH2 0x5B9 JUMP JUMPDEST DUP4 PUSH20 0xFFFFFFFFFFFFFFFFFFFFFFFFFFFFFFFFFFFFFFFF AND PUSH32 0xF49BEAAEE73CB4B8719A7CD0DC4AB4CEC67E358FCA9570FA363663C84CEE6354 DUP5 DUP4 PUSH1 0x40 MLOAD PUSH2 0x5B0 SWAP3 SWAP2 SWAP1 PUSH2 0x1F8D JUMP JUMPDEST PUSH1 0x40 MLOAD DUP1 SWAP2 SUB SWAP1 LOG2 JUMPDEST PUSH1 0x40 MLOAD DUP1 PUSH1 0x80 ADD PUSH1 0x40 MSTORE DUP1 DUP5 DUP2 MSTORE PUSH1 0x20 ADD DUP4 DUP2 MSTORE PUSH1 0x20 ADD DUP3 DUP2 MSTORE PUSH1 0x20 ADD TIMESTAMP DUP2 MSTORE POP PUSH1 0x3 PUSH0 DUP7 PUSH20 0xFFFFFFFFFFFFFFFFFFFFFFFFFFFFFFFFFFFFFFFF AND PUSH20 0xFFFFFFFFFFFFFFFFFFFFFFFFFFFFFFFFFFFFFFFF AND DUP2 MSTORE PUSH1 0x20 ADD SWAP1 DUP2 MSTORE PUSH1 0x20 ADD PUSH0 KECCAK256 PUSH0 DUP3 ADD MLOAD DUP2 PUSH0 ADD SWAP1 DUP1 MLOAD SWAP1 PUSH1 0x20 ADD SWAP1 PUSH2 0x631 SWAP3 SWAP2 SWAP1 PUSH2 0x1515 JUMP JUMPDEST POP PUSH1 0x20 DUP3 ADD MLOAD DUP2 PUSH1 0x1 ADD SSTORE PUSH1 0x40 DUP3 ADD MLOAD DUP2 PUSH1 0x2 ADD SWAP1 DUP2 PUSH2 0x651 SWAP2 SWAP1 PUSH2 0x21BC JUMP JUMPDEST POP PUSH1 0x60 DUP3 ADD MLOAD DUP2 PUSH1 0x3 ADD SSTORE SWAP1 POP POP POP POP POP POP JUMP JUMPDEST PUSH0 DUP1 SLOAD SWAP1 PUSH2 0x100 EXP SWAP1 DIV PUSH20 0xFFFFFFFFFFFFFFFFFFFFFFFFFFFFFFFFFFFFFFFF AND PUSH20 0xFFFFFFFFFFFFFFFFFFFFFFFFFFFFFFFFFFFFFFFF AND CALLER PUSH20 0xFFFFFFFFFFFFFFFFFFFFFFFFFFFFFFFFFFFFFFFF AND EQ PUSH2 0x6F2 JUMPI PUSH1 0x40 MLOAD PUSH32 0x8C379A000000000000000000000000000000000000000000000000000000000 DUP2 MSTORE PUSH1 0x4 ADD PUSH2 0x6E9 SWAP1 PUSH2 0x22D5 JUMP JUMPDEST PUSH1 0x40 MLOAD DUP1 SWAP2 SUB SWAP1 REVERT JUMPDEST PUSH1 0x1 PUSH0 DUP3 PUSH20 0xFFFFFFFFFFFFFFFFFFFFFFFFFFFFFFFFFFFFFFFF AND PUSH20 0xFFFFFFFFFFFFFFFFFFFFFFFFFFFFFFFFFFFFFFFF AND DUP2 MSTORE PUSH1 0x20 ADD SWAP1 DUP2 MSTORE PUSH1 0x20 ADD PUSH0 KECCAK256 PUSH0 SWAP1 SLOAD SWAP1 PUSH2 0x100 EXP SWAP1 DIV PUSH1 0xFF AND ISZERO PUSH2 0x77C JUMPI PUSH1 0x40 MLOAD PUSH32 0x8C379A000000000000000000000000000000000000000000000000000000000 DUP2 MSTORE PUSH1 0x4 ADD PUSH2 0x773 SWAP1 PUSH2 0x233D JUMP JUMPDEST PUSH1 0x40 MLOAD DUP1 SWAP2 SUB SWAP1 REVERT JUMPDEST PUSH1 0x1 DUP1 PUSH0 DUP4 PUSH20 0xFFFFFFFFFFFFFFFFFFFFFFFFFFFFFFFFFFFFFFFF AND PUSH20 0xFFFFFFFFFFFFFFFFFFFFFFFFFFFFFFFFFFFFFFFF AND DUP2 MSTORE PUSH1 0x20 ADD SWAP1 DUP2 MSTORE PUSH1 0x20 ADD PUSH0 KECCAK256 PUSH0 PUSH2 0x100 EXP DUP2 SLOAD DUP2 PUSH1 0xFF MUL NOT AND SWAP1 DUP4 ISZERO ISZERO MUL OR SWAP1 SSTORE POP DUP1 PUSH20 0xFFFFFFFFFFFFFFFFFFFFFFFFFFFFFFFFFFFFFFFF AND PUSH32 0x4E1C63D2B2FAFCA3496EA9C3F23B77835B9A91F5D74802CED76B7F929B3265E PUSH1 0x40 MLOAD PUSH1 0x40 MLOAD DUP1 SWAP2 SUB SWAP1 LOG2 POP JUMP JUMPDEST PUSH0 DUP1 SLOAD SWAP1 PUSH2 0x100 EXP SWAP1 DIV PUSH20 0xFFFFFFFFFFFFFFFFFFFFFFFFFFFFFFFFFFFFFFFF AND PUSH20 0xFFFFFFFFFFFFFFFFFFFFFFFFFFFFFFFFFFFFFFFF AND CALLER PUSH20 0xFFFFFFFFFFFFFFFFFFFFFFFFFFFFFFFFFFFFFFFF AND EQ PUSH2 0x8A3 JUMPI PUSH1 0x40 MLOAD PUSH32 0x8C379A000000000000000000000000000000000000000000000000000000000 DUP2 MSTORE PUSH1 0x4 ADD PUSH2 0x89A SWAP1 PUSH2 0x22D5 JUMP JUMPDEST PUSH1 0x40 MLOAD DUP1 SWAP2 SUB SWAP1 REVERT JUMPDEST PUSH0 DUP1 PUSH1 0x14 PUSH2 0x100 EXP DUP2 SLOAD DUP2 PUSH1 0xFF MUL NOT AND SWAP1 DUP4 ISZERO ISZERO MUL OR SWAP1 SSTORE POP CALLER PUSH20 0xFFFFFFFFFFFFFFFFFFFFFFFFFFFFFFFFFFFFFFFF AND PUSH32 0x5B65B0C1363B3003DB9BCC5E1FD8805A6D6BF5BF6DC9D3431EE4494CD7D11766 PUSH1 0x40 MLOAD PUSH1 0x40 MLOAD DUP1 SWAP2 SUB SWAP1 LOG2 JUMP JUMPDEST PUSH0 DUP1 SLOAD SWAP1 PUSH2 0x100 EXP SWAP1 DIV PUSH20 0xFFFFFFFFFFFFFFFFFFFFFFFFFFFFFFFFFFFFFFFF AND PUSH20 0xFFFFFFFFFFFFFFFFFFFFFFFFFFFFFFFFFFFFFFFF AND CALLER PUSH20 0xFFFFFFFFFFFFFFFFFFFFFFFFFFFFFFFFFFFFFFFF AND EQ PUSH2 0x98E JUMPI PUSH1 0x40 MLOAD PUSH32 0x8C379A000000000000000000000000000000000000000000000000000000000 DUP2 MSTORE PUSH1 0x4 ADD PUSH2 0x985 SWAP1 PUSH2 0x22D5 JUMP JUMPDEST PUSH1 0x40 MLOAD DUP1 SWAP2 SUB SWAP1 REVERT JUMPDEST PUSH1 0x1 PUSH0 DUP3 PUSH20 0xFFFFFFFFFFFFFFFFFFFFFFFFFFFFFFFFFFFFFFFF AND PUSH20 0xFFFFFFFFFFFFFFFFFFFFFFFFFFFFFFFFFFFFFFFF AND DUP2 MSTORE PUSH1 0x20 ADD SWAP1 DUP2 MSTORE PUSH1 0x20 ADD PUSH0 KECCAK256 PUSH0 SWAP1 SLOAD SWAP1 PUSH2 0x100 EXP SWAP1 DIV PUSH1 0xFF AND PUSH2 0xA17 JUMPI PUSH1 0x40 MLOAD PUSH32 0x8C379A000000000000000000000000000000000000000000000000000000000 DUP2 MSTORE PUSH1 0x4 ADD PUSH2 0xA0E SWAP1 PUSH2 0x23A5 JUMP JUMPDEST PUSH1 0x40 MLOAD DUP1 SWAP2 SUB SWAP1 REVERT JUMPDEST PUSH0 PUSH1 0x1 PUSH0 DUP4 PUSH20 0xFFFFFFFFFFFFFFFFFFFFFFFFFFFFFFFFFFFFFFFF AND PUSH20 0xFFFFFFFFFFFFFFFFFFFFFFFFFFFFFFFFFFFFFFFF AND DUP2 MSTORE PUSH1 0x20 ADD SWAP1 DUP2 MSTORE PUSH1 0x20 ADD PUSH0 KECCAK256 PUSH0 PUSH2 0x100 EXP DUP2 SLOAD DUP2 PUSH1 0xFF MUL NOT AND SWAP1 DUP4 ISZERO ISZERO MUL OR SWAP1 SSTORE POP DUP1 PUSH20 0xFFFFFFFFFFFFFFFFFFFFFFFFFFFFFFFFFFFFFFFF AND PUSH32 0x24A5DD50126818A1D488F90DF37AD02592196A4EA744AFF4799818139297734 PUSH1 0x40 MLOAD PUSH1 0x40 MLOAD DUP1 SWAP2 SUB SWAP1 LOG2 POP JUMP JUMPDEST PUSH0 PUSH1 0x14 SWAP1 SLOAD SWAP1 PUSH2 0x100 EXP SWAP1 DIV PUSH1 0xFF AND DUP2 JUMP JUMPDEST PUSH1 0x60 PUSH0 PUSH1 0x60 PUSH0 PUSH1 0x60 PUSH0 PUSH1 0x2 PUSH0 DUP9 PUSH20 0xFFFFFFFFFFFFFFFFFFFFFFFFFFFFFFFFFFFFFFFF AND PUSH20 0xFFFFFFFFFFFFFFFFFFFFFFFFFFFFFFFFFFFFFFFF AND DUP2 MSTORE PUSH1 0x20 ADD SWAP1 DUP2 MSTORE PUSH1 0x20 ADD PUSH0 KECCAK256 PUSH1 0x2 ADD PUSH0 SWAP1 SLOAD SWAP1 PUSH2 0x100 EXP SWAP1 DIV PUSH1 0xFF AND PUSH2 0xB58 JUMPI PUSH1 0x40 MLOAD PUSH32 0x8C379A000000000000000000000000000000000000000000000000000000000 DUP2 MSTORE PUSH1 0x4 ADD PUSH2 0xB4F SWAP1 PUSH2 0x1C6F JUMP JUMPDEST PUSH1 0x40 MLOAD DUP1 SWAP2 SUB SWAP1 REVERT JUMPDEST PUSH0 PUSH1 0x2 PUSH0 DUP10 PUSH20 0xFFFFFFFFFFFFFFFFFFFFFFFFFFFFFFFFFFFFFFFF AND PUSH20 0xFFFFFFFFFFFFFFFFFFFFFFFFFFFFFFFFFFFFFFFF AND DUP2 MSTORE PUSH1 0x20 ADD SWAP1 DUP2 MSTORE PUSH1 0x20 ADD PUSH0 KECCAK256 PUSH1 0x40 MLOAD DUP1 PUSH1 0x60 ADD PUSH1 0x40 MSTORE SWAP1 DUP2 PUSH0 DUP3 ADD DUP1 SLOAD PUSH2 0xBB0 SWAP1 PUSH2 0x1FEF JUMP JUMPDEST DUP1 PUSH1 0x1F ADD PUSH1 0x20 DUP1 SWAP2 DIV MUL PUSH1 0x20 ADD PUSH1 0x40 MLOAD SWAP1 DUP2 ADD PUSH1 0x40 MSTORE DUP1 SWAP3 SWAP2 SWAP1 DUP2 DUP2 MSTORE PUSH1 0x20 ADD DUP3 DUP1 SLOAD PUSH2 0xBDC SWAP1 PUSH2 0x1FEF JUMP JUMPDEST DUP1 ISZERO PUSH2 0xC27 JUMPI DUP1 PUSH1 0x1F LT PUSH2 0xBFE JUMPI PUSH2 0x100 DUP1 DUP4 SLOAD DIV MUL DUP4 MSTORE SWAP2 PUSH1 0x20 ADD SWAP2 PUSH2 0xC27 JUMP JUMPDEST DUP3 ADD SWAP2 SWAP1 PUSH0 MSTORE PUSH1 0x20 PUSH0 KECCAK256 SWAP1 JUMPDEST DUP2 SLOAD DUP2 MSTORE SWAP1 PUSH1 0x1 ADD SWAP1 PUSH1 0x20 ADD DUP1 DUP4 GT PUSH2 0xC0A JUMPI DUP3 SWAP1 SUB PUSH1 0x1F AND DUP3 ADD SWAP2 JUMPDEST POP POP POP POP POP DUP2 MSTORE PUSH1 0x20 ADD PUSH1 0x1 DUP3 ADD SLOAD DUP2 MSTORE PUSH1 0x20 ADD PUSH1 0x2 DUP3 ADD PUSH0 SWAP1 SLOAD SWAP1 PUSH2 0x100 EXP SWAP1 DIV PUSH1 0xFF AND ISZERO ISZERO ISZERO ISZERO DUP2 MSTORE POP POP SWAP1 POP PUSH0 PUSH1 0x3 PUSH0 DUP11 PUSH20 0xFFFFFFFFFFFFFFFFFFFFFFFFFFFFFFFFFFFFFFFF AND PUSH20 0xFFFFFFFFFFFFFFFFFFFFFFFFFFFFFFFFFFFFFFFF AND DUP2 MSTORE PUSH1 0x20 ADD SWAP1 DUP2 MSTORE PUSH1 0x20 ADD PUSH0 KECCAK256 PUSH1 0x40 MLOAD DUP1 PUSH1 0x80 ADD PUSH1 0x40 MSTORE SWAP1 DUP2 PUSH0 DUP3 ADD DUP1 SLOAD DUP1 PUSH1 0x20 MUL PUSH1 0x20 ADD PUSH1 0x40 MLOAD SWAP1 DUP2 ADD PUSH1 0x40 MSTORE DUP1 SWAP3 SWAP2 SWAP1 DUP2 DUP2 MSTORE PUSH1 0x20 ADD DUP3 DUP1 SLOAD DUP1 ISZERO PUSH2 0xCEB JUMPI PUSH1 0x20 MUL DUP3 ADD SWAP2 SWAP1 PUSH0 MSTORE PUSH1 0x20 PUSH0 KECCAK256 SWAP1 JUMPDEST DUP2 SLOAD DUP2 MSTORE PUSH1 0x20 ADD SWAP1 PUSH1 0x1 ADD SWAP1 DUP1 DUP4 GT PUSH2 0xCD7 JUMPI JUMPDEST POP POP POP POP POP DUP2 MSTORE PUSH1 0x20 ADD PUSH1 0x1 DUP3 ADD SLOAD DUP2 MSTORE PUSH1 0x20 ADD PUSH1 0x2 DUP3 ADD DUP1 SLOAD PUSH2 0xD0E SWAP1 PUSH2 0x1FEF JUMP JUMPDEST DUP1 PUSH1 0x1F ADD PUSH1 0x20 DUP1 SWAP2 DIV MUL PUSH1 0x20 ADD PUSH1 0x40 MLOAD SWAP1 DUP2 ADD PUSH1 0x40 MSTORE DUP1 SWAP3 SWAP2 SWAP1 DUP2 DUP2 MSTORE PUSH1 0x20 ADD DUP3 DUP1 SLOAD PUSH2 0xD3A SWAP1 PUSH2 0x1FEF JUMP JUMPDEST DUP1 ISZERO PUSH2 0xD85 JUMPI DUP1 PUSH1 0x1F LT PUSH2 0xD5C JUMPI PUSH2 0x100 DUP1 DUP4 SLOAD DIV MUL DUP4 MSTORE SWAP2 PUSH1 0x20 ADD SWAP2 PUSH2 0xD85 JUMP JUMPDEST DUP3 ADD SWAP2 SWAP1 PUSH0 MSTORE PUSH1 0x20 PUSH0 KECCAK256 SWAP1 JUMPDEST DUP2 SLOAD DUP2 MSTORE SWAP1 PUSH1 0x1 ADD SWAP1 PUSH1 0x20 ADD DUP1 DUP4 GT PUSH2 0xD68 JUMPI DUP3 SWAP1 SUB PUSH1 0x1F AND DUP3 ADD SWAP2 JUMPDEST POP POP POP POP POP DUP2 MSTORE PUSH1 0x20 ADD PUSH1 0x3 DUP3 ADD SLOAD DUP2 MSTORE POP POP SWAP1 POP DUP2 PUSH0 ADD MLOAD DUP3 PUSH1 0x20 ADD MLOAD DUP3 PUSH0 ADD MLOAD DUP4 PUSH1 0x20 ADD MLOAD DUP5 PUSH1 0x40 ADD MLOAD DUP6 PUSH1 0x60 ADD MLOAD SWAP8 POP SWAP8 POP SWAP8 POP SWAP8 POP SWAP8 POP SWAP8 POP POP POP SWAP2 SWAP4 SWAP6 POP SWAP2 SWAP4 SWAP6 JUMP JUMPDEST PUSH0 DUP1 SLOAD SWAP1 PUSH2 0x100 EXP SWAP1 DIV PUSH20 0xFFFFFFFFFFFFFFFFFFFFFFFFFFFFFFFFFFFFFFFF AND PUSH20 0xFFFFFFFFFFFFFFFFFFFFFFFFFFFFFFFFFFFFFFFF AND CALLER PUSH20 0xFFFFFFFFFFFFFFFFFFFFFFFFFFFFFFFFFFFFFFFF AND EQ PUSH2 0xE5A JUMPI PUSH1 0x40 MLOAD PUSH32 0x8C379A000000000000000000000000000000000000000000000000000000000 DUP2 MSTORE PUSH1 0x4 ADD PUSH2 0xE51 SWAP1 PUSH2 0x22D5 JUMP JUMPDEST PUSH1 0x40 MLOAD DUP1 SWAP2 SUB SWAP1 REVERT JUMPDEST PUSH1 0x1 PUSH0 PUSH1 0x14 PUSH2 0x100 EXP DUP2 SLOAD DUP2 PUSH1 0xFF MUL NOT AND SWAP1 DUP4 ISZERO ISZERO MUL OR SWAP1 SSTORE POP CALLER PUSH20 0xFFFFFFFFFFFFFFFFFFFFFFFFFFFFFFFFFFFFFFFF AND PUSH32 0x81990FD9A5C552B8E3677917D8A03C07678F0D2CB68F88B634ACA2022E9BD19F PUSH1 0x40 MLOAD PUSH1 0x40 MLOAD DUP1 SWAP2 SUB SWAP1 LOG2 JUMP JUMPDEST PUSH0 DUP1 SLOAD SWAP1 PUSH2 0x100 EXP SWAP1 DIV PUSH20 0xFFFFFFFFFFFFFFFFFFFFFFFFFFFFFFFFFFFFFFFF AND DUP2 JUMP JUMPDEST PUSH1 0x2 PUSH1 0x20 MSTORE DUP1 PUSH0 MSTORE PUSH1 0x40 PUSH0 KECCAK256 PUSH0 SWAP2 POP SWAP1 POP DUP1 PUSH0 ADD DUP1 SLOAD PUSH2 0xEFB SWAP1 PUSH2 0x1FEF JUMP JUMPDEST DUP1 PUSH1 0x1F ADD PUSH1 0x20 DUP1 SWAP2 DIV MUL PUSH1 0x20 ADD PUSH1 0x40 MLOAD SWAP1 DUP2 ADD PUSH1 0x40 MSTORE DUP1 SWAP3 SWAP2 SWAP1 DUP2 DUP2 MSTORE PUSH1 0x20 ADD DUP3 DUP1 SLOAD PUSH2 0xF27 SWAP1 PUSH2 0x1FEF JUMP JUMPDEST DUP1 ISZERO PUSH2 0xF72 JUMPI DUP1 PUSH1 0x1F LT PUSH2 0xF49 JUMPI PUSH2 0x100 DUP1 DUP4 SLOAD DIV MUL DUP4 MSTORE SWAP2 PUSH1 0x20 ADD SWAP2 PUSH2 0xF72 JUMP JUMPDEST DUP3 ADD SWAP2 SWAP1 PUSH0 MSTORE PUSH1 0x20 PUSH0 KECCAK256 SWAP1 JUMPDEST DUP2 SLOAD DUP2 MSTORE SWAP1 PUSH1 0x1 ADD SWAP1 PUSH1 0x20 ADD DUP1 DUP4 GT PUSH2 0xF55 JUMPI DUP3 SWAP1 SUB PUSH1 0x1F AND DUP3 ADD SWAP2 JUMPDEST POP POP POP POP POP SWAP1 DUP1 PUSH1 0x1 ADD SLOAD SWAP1 DUP1 PUSH1 0x2 ADD PUSH0 SWAP1 SLOAD SWAP1 PUSH2 0x100 EXP SWAP1 DIV PUSH1 0xFF AND SWAP1 POP DUP4 JUMP JUMPDEST PUSH0 PUSH1 0x1 PUSH0 DUP4 PUSH20 0xFFFFFFFFFFFFFFFFFFFFFFFFFFFFFFFFFFFFFFFF AND PUSH20 0xFFFFFFFFFFFFFFFFFFFFFFFFFFFFFFFFFFFFFFFF AND DUP2 MSTORE PUSH1 0x20 ADD SWAP1 DUP2 MSTORE PUSH1 0x20 ADD PUSH0 KECCAK256 PUSH0 SWAP1 SLOAD SWAP1 PUSH2 0x100 EXP SWAP1 DIV PUSH1 0xFF AND SWAP1 POP SWAP2 SWAP1 POP JUMP JUMPDEST PUSH0 DUP1 SLOAD SWAP1 PUSH2 0x100 EXP SWAP1 DIV PUSH20 0xFFFFFFFFFFFFFFFFFFFFFFFFFFFFFFFFFFFFFFFF AND PUSH20 0xFFFFFFFFFFFFFFFFFFFFFFFFFFFFFFFFFFFFFFFF AND CALLER PUSH20 0xFFFFFFFFFFFFFFFFFFFFFFFFFFFFFFFFFFFFFFFF AND EQ PUSH2 0x1073 JUMPI PUSH1 0x40 MLOAD PUSH32 0x8C379A000000000000000000000000000000000000000000000000000000000 DUP2 MSTORE PUSH1 0x4 ADD PUSH2 0x106A SWAP1 PUSH2 0x22D5 JUMP JUMPDEST PUSH1 0x40 MLOAD DUP1 SWAP2 SUB SWAP1 REVERT JUMPDEST PUSH0 PUSH1 0x14 SWAP1 SLOAD SWAP1 PUSH2 0x100 EXP SWAP1 DIV PUSH1 0xFF AND ISZERO PUSH2 0x10C2 JUMPI PUSH1 0x40 MLOAD PUSH32 0x8C379A000000000000000000000000000000000000000000000000000000000 DUP2 MSTORE PUSH1 0x4 ADD PUSH2 0x10B9 SWAP1 PUSH2 0x1C07 JUMP JUMPDEST PUSH1 0x40 MLOAD DUP1 SWAP2 SUB SWAP1 REVERT JUMPDEST PUSH1 0x2 PUSH0 DUP5 PUSH20 0xFFFFFFFFFFFFFFFFFFFFFFFFFFFFFFFFFFFFFFFF AND PUSH20 0xFFFFFFFFFFFFFFFFFFFFFFFFFFFFFFFFFFFFFFFF AND DUP2 MSTORE PUSH1 0x20 ADD SWAP1 DUP2 MSTORE PUSH1 0x20 ADD PUSH0 KECCAK256 PUSH1 0x2 ADD PUSH0 SWAP1 SLOAD SWAP1 PUSH2 0x100 EXP SWAP1 DIV PUSH1 0xFF AND ISZERO PUSH2 0x114F JUMPI PUSH1 0x40 MLOAD PUSH32 0x8C379A000000000000000000000000000000000000000000000000000000000 DUP2 MSTORE PUSH1 0x4 ADD PUSH2 0x1146 SWAP1 PUSH2 0x240D JUMP JUMPDEST PUSH1 0x40 MLOAD DUP1 SWAP2 SUB SWAP1 REVERT JUMPDEST PUSH1 0x40 MLOAD DUP1 PUSH1 0x60 ADD PUSH1 0x40 MSTORE DUP1 DUP4 DUP2 MSTORE PUSH1 0x20 ADD DUP3 DUP2 MSTORE PUSH1 0x20 ADD PUSH1 0x1 ISZERO ISZERO DUP2 MSTORE POP PUSH1 0x2 PUSH0 DUP6 PUSH20 0xFFFFFFFFFFFFFFFFFFFFFFFFFFFFFFFFFFFFFFFF AND PUSH20 0xFFFFFFFFFFFFFFFFFFFFFFFFFFFFFFFFFFFFFFFF AND DUP2 MSTORE PUSH1 0x20 ADD SWAP1 DUP2 MSTORE PUSH1 0x20 ADD PUSH0 KECCAK256 PUSH0 DUP3 ADD MLOAD DUP2 PUSH0 ADD SWAP1 DUP2 PUSH2 0x11BD SWAP2 SWAP1 PUSH2 0x21BC JUMP JUMPDEST POP PUSH1 0x20 DUP3 ADD MLOAD DUP2 PUSH1 0x1 ADD SSTORE PUSH1 0x40 DUP3 ADD MLOAD DUP2 PUSH1 0x2 ADD PUSH0 PUSH2 0x100 EXP DUP2 SLOAD DUP2 PUSH1 0xFF MUL NOT AND SWAP1 DUP4 ISZERO ISZERO MUL OR SWAP1 SSTORE POP SWAP1 POP POP DUP3 PUSH20 0xFFFFFFFFFFFFFFFFFFFFFFFFFFFFFFFFFFFFFFFF AND PUSH32 0x9C9948E5540CAD013BB3D06DD108FEB894F222AD978608C957D9BD55A5C564E1 DUP4 DUP4 PUSH1 0x40 MLOAD PUSH2 0x1232 SWAP3 SWAP2 SWAP1 PUSH2 0x242B JUMP JUMPDEST PUSH1 0x40 MLOAD DUP1 SWAP2 SUB SWAP1 LOG2 POP POP POP JUMP JUMPDEST PUSH0 DUP1 SLOAD SWAP1 PUSH2 0x100 EXP SWAP1 DIV PUSH20 0xFFFFFFFFFFFFFFFFFFFFFFFFFFFFFFFFFFFFFFFF AND PUSH20 0xFFFFFFFFFFFFFFFFFFFFFFFFFFFFFFFFFFFFFFFF AND CALLER PUSH20 0xFFFFFFFFFFFFFFFFFFFFFFFFFFFFFFFFFFFFFFFF AND EQ PUSH2 0x12CC JUMPI PUSH1 0x40 MLOAD PUSH32 0x8C379A000000000000000000000000000000000000000000000000000000000 DUP2 MSTORE PUSH1 0x4 ADD PUSH2 0x12C3 SWAP1 PUSH2 0x22D5 JUMP JUMPDEST PUSH1 0x40 MLOAD DUP1 SWAP2 SUB SWAP1 REVERT JUMPDEST PUSH0 PUSH20 0xFFFFFFFFFFFFFFFFFFFFFFFFFFFFFFFFFFFFFFFF AND DUP2 PUSH20 0xFFFFFFFFFFFFFFFFFFFFFFFFFFFFFFFFFFFFFFFF AND SUB PUSH2 0x133A JUMPI PUSH1 0x40 MLOAD PUSH32 0x8C379A000000000000000000000000000000000000000000000000000000000 DUP2 MSTORE PUSH1 0x4 ADD PUSH2 0x1331 SWAP1 PUSH2 0x24A3 JUMP JUMPDEST PUSH1 0x40 MLOAD DUP1 SWAP2 SUB SWAP1 REVERT JUMPDEST DUP1 PUSH0 DUP1 PUSH2 0x100 EXP DUP2 SLOAD DUP2 PUSH20 0xFFFFFFFFFFFFFFFFFFFFFFFFFFFFFFFFFFFFFFFF MUL NOT AND SWAP1 DUP4 PUSH20 0xFFFFFFFFFFFFFFFFFFFFFFFFFFFFFFFFFFFFFFFF AND MUL OR SWAP1 SSTORE POP POP JUMP JUMPDEST PUSH1 0x60 PUSH1 0x5A DUP3 LT PUSH2 0x13C3 JUMPI PUSH1 0x40 MLOAD DUP1 PUSH1 0x40 ADD PUSH1 0x40 MSTORE DUP1 PUSH1 0x2 DUP2 MSTORE PUSH1 0x20 ADD PUSH32 0x412B000000000000000000000000000000000000000000000000000000000000 DUP2 MSTORE POP SWAP1 POP PUSH2 0x1510 JUMP JUMPDEST PUSH1 0x50 DUP3 LT PUSH2 0x1408 JUMPI PUSH1 0x40 MLOAD DUP1 PUSH1 0x40 ADD PUSH1 0x40 MSTORE DUP1 PUSH1 0x1 DUP2 MSTORE PUSH1 0x20 ADD PUSH32 0x4100000000000000000000000000000000000000000000000000000000000000 DUP2 MSTORE POP SWAP1 POP PUSH2 0x1510 JUMP JUMPDEST PUSH1 0x46 DUP3 LT PUSH2 0x144D JUMPI PUSH1 0x40 MLOAD DUP1 PUSH1 0x40 ADD PUSH1 0x40 MSTORE DUP1 PUSH1 0x1 DUP2 MSTORE PUSH1 0x20 ADD PUSH32 0x4200000000000000000000000000000000000000000000000000000000000000 DUP2 MSTORE POP SWAP1 POP PUSH2 0x1510 JUMP JUMPDEST PUSH1 0x3C DUP3 LT PUSH2 0x1492 JUMPI PUSH1 0x40 MLOAD DUP1 PUSH1 0x40 ADD PUSH1 0x40 MSTORE DUP1 PUSH1 0x1 DUP2 MSTORE PUSH1 0x20 ADD PUSH32 0x4300000000000000000000000000000000000000000000000000000000000000 DUP2 MSTORE POP SWAP1 POP PUSH2 0x1510 JUMP JUMPDEST PUSH1 0x32 DUP3 LT PUSH2 0x14D7 JUMPI PUSH1 0x40 MLOAD DUP1 PUSH1 0x40 ADD PUSH1 0x40 MSTORE DUP1 PUSH1 0x1 DUP2 MSTORE PUSH1 0x20 ADD PUSH32 0x4400000000000000000000000000000000000000000000000000000000000000 DUP2 MSTORE POP SWAP1 POP PUSH2 0x1510 JUMP JUMPDEST PUSH1 0x40 MLOAD DUP1 PUSH1 0x40 ADD PUSH1 0x40 MSTORE DUP1 PUSH1 0x1 DUP2 MSTORE PUSH1 0x20 ADD PUSH32 0x4600000000000000000000000000000000000000000000000000000000000000 DUP2 MSTORE POP SWAP1 POP JUMPDEST SWAP2 SWAP1 POP JUMP JUMPDEST DUP3 DUP1 SLOAD DUP3 DUP3 SSTORE SWAP1 PUSH0 MSTORE PUSH1 0x20 PUSH0 KECCAK256 SWAP1 DUP2 ADD SWAP3 DUP3 ISZERO PUSH2 0x154F JUMPI SWAP2 PUSH1 0x20 MUL DUP3 ADD JUMPDEST DUP3 DUP2 GT ISZERO PUSH2 0x154E JUMPI DUP3 MLOAD DUP3 SSTORE SWAP2 PUSH1 0x20 ADD SWAP2 SWAP1 PUSH1 0x1 ADD SWAP1 PUSH2 0x1533 JUMP JUMPDEST JUMPDEST POP SWAP1 POP PUSH2 0x155C SWAP2 SWAP1 PUSH2 0x1560 JUMP JUMPDEST POP SWAP1 JUMP JUMPDEST JUMPDEST DUP1 DUP3 GT ISZERO PUSH2 0x1577 JUMPI PUSH0 DUP2 PUSH0 SWAP1 SSTORE POP PUSH1 0x1 ADD PUSH2 0x1561 JUMP JUMPDEST POP SWAP1 JUMP JUMPDEST PUSH0 PUSH1 0x40 MLOAD SWAP1 POP SWAP1 JUMP JUMPDEST PUSH0 DUP1 REVERT JUMPDEST PUSH0 DUP1 REVERT JUMPDEST PUSH0 PUSH20 0xFFFFFFFFFFFFFFFFFFFFFFFFFFFFFFFFFFFFFFFF DUP3 AND SWAP1 POP SWAP2 SWAP1 POP JUMP JUMPDEST PUSH0 PUSH2 0x15B5 DUP3 PUSH2 0x158C JUMP JUMPDEST SWAP1 POP SWAP2 SWAP1 POP JUMP JUMPDEST PUSH2 0x15C5 DUP2 PUSH2 0x15AB JUMP JUMPDEST DUP2 EQ PUSH2 0x15CF JUMPI PUSH0 DUP1 REVERT JUMPDEST POP JUMP JUMPDEST PUSH0 DUP2 CALLDATALOAD SWAP1 POP PUSH2 0x15E0 DUP2 PUSH2 0x15BC JUMP JUMPDEST SWAP3 SWAP2 POP POP JUMP JUMPDEST PUSH0 DUP1 REVERT JUMPDEST PUSH0 PUSH1 0x1F NOT PUSH1 0x1F DUP4 ADD AND SWAP1 POP SWAP2 SWAP1 POP JUMP JUMPDEST PUSH32 0x4E487B7100000000000000000000000000000000000000000000000000000000 PUSH0 MSTORE PUSH1 0x41 PUSH1 0x4 MSTORE PUSH1 0x24 PUSH0 REVERT JUMPDEST PUSH2 0x1630 DUP3 PUSH2 0x15EA JUMP JUMPDEST DUP2 ADD DUP2 DUP2 LT PUSH8 0xFFFFFFFFFFFFFFFF DUP3 GT OR ISZERO PUSH2 0x164F JUMPI PUSH2 0x164E PUSH2 0x15FA JUMP JUMPDEST JUMPDEST DUP1 PUSH1 0x40 MSTORE POP POP POP JUMP JUMPDEST PUSH0 PUSH2 0x1661 PUSH2 0x157B JUMP JUMPDEST SWAP1 POP PUSH2 0x166D DUP3 DUP3 PUSH2 0x1627 JUMP JUMPDEST SWAP2 SWAP1 POP JUMP JUMPDEST PUSH0 PUSH8 0xFFFFFFFFFFFFFFFF DUP3 GT ISZERO PUSH2 0x168C JUMPI PUSH2 0x168B PUSH2 0x15FA JUMP JUMPDEST JUMPDEST PUSH1 0x20 DUP3 MUL SWAP1 POP PUSH1 0x20 DUP2 ADD SWAP1 POP SWAP2 SWAP1 POP JUMP JUMPDEST PUSH0 DUP1 REVERT JUMPDEST PUSH0 DUP2 SWAP1 POP SWAP2 SWAP1 POP JUMP JUMPDEST PUSH2 0x16B3 DUP2 PUSH2 0x16A1 JUMP JUMPDEST DUP2 EQ PUSH2 0x16BD JUMPI PUSH0 DUP1 REVERT JUMPDEST POP JUMP JUMPDEST PUSH0 DUP2 CALLDATALOAD SWAP1 POP PUSH2 0x16CE DUP2 PUSH2 0x16AA JUMP JUMPDEST SWAP3 SWAP2 POP POP JUMP JUMPDEST PUSH0 PUSH2 0x16E6 PUSH2 0x16E1 DUP5 PUSH2 0x1672 JUMP JUMPDEST PUSH2 0x1658 JUMP JUMPDEST SWAP1 POP DUP1 DUP4 DUP3 MSTORE PUSH1 0x20 DUP3 ADD SWAP1 POP PUSH1 0x20 DUP5 MUL DUP4 ADD DUP6 DUP2 GT ISZERO PUSH2 0x1709 JUMPI PUSH2 0x1708 PUSH2 0x169D JUMP JUMPDEST JUMPDEST DUP4 JUMPDEST DUP2 DUP2 LT ISZERO PUSH2 0x1732 JUMPI DUP1 PUSH2 0x171E DUP9 DUP3 PUSH2 0x16C0 JUMP JUMPDEST DUP5 MSTORE PUSH1 0x20 DUP5 ADD SWAP4 POP POP PUSH1 0x20 DUP2 ADD SWAP1 POP PUSH2 0x170B JUMP JUMPDEST POP POP POP SWAP4 SWAP3 POP POP POP JUMP JUMPDEST PUSH0 DUP3 PUSH1 0x1F DUP4 ADD SLT PUSH2 0x1750 JUMPI PUSH2 0x174F PUSH2 0x15E6 JUMP JUMPDEST JUMPDEST DUP2 CALLDATALOAD PUSH2 0x1760 DUP5 DUP3 PUSH1 0x20 DUP7 ADD PUSH2 0x16D4 JUMP JUMPDEST SWAP2 POP POP SWAP3 SWAP2 POP POP JUMP JUMPDEST PUSH0 DUP1 PUSH1 0x40 DUP4 DUP6 SUB SLT ISZERO PUSH2 0x177F JUMPI PUSH2 0x177E PUSH2 0x1584 JUMP JUMPDEST JUMPDEST PUSH0 PUSH2 0x178C DUP6 DUP3 DUP7 ADD PUSH2 0x15D2 JUMP JUMPDEST SWAP3 POP POP PUSH1 0x20 DUP4 ADD CALLDATALOAD PUSH8 0xFFFFFFFFFFFFFFFF DUP2 GT ISZERO PUSH2 0x17AD JUMPI PUSH2 0x17AC PUSH2 0x1588 JUMP JUMPDEST JUMPDEST PUSH2 0x17B9 DUP6 DUP3 DUP7 ADD PUSH2 0x173C JUMP JUMPDEST SWAP2 POP POP SWAP3 POP SWAP3 SWAP1 POP JUMP JUMPDEST PUSH0 PUSH1 0x20 DUP3 DUP5 SUB SLT ISZERO PUSH2 0x17D8 JUMPI PUSH2 0x17D7 PUSH2 0x1584 JUMP JUMPDEST JUMPDEST PUSH0 PUSH2 0x17E5 DUP5 DUP3 DUP6 ADD PUSH2 0x15D2 JUMP JUMPDEST SWAP2 POP POP SWAP3 SWAP2 POP POP JUMP JUMPDEST PUSH0 DUP2 ISZERO ISZERO SWAP1 POP SWAP2 SWAP1 POP JUMP JUMPDEST PUSH2 0x1802 DUP2 PUSH2 0x17EE JUMP JUMPDEST DUP3 MSTORE POP POP JUMP JUMPDEST PUSH0 PUSH1 0x20 DUP3 ADD SWAP1 POP PUSH2 0x181B PUSH0 DUP4 ADD DUP5 PUSH2 0x17F9 JUMP JUMPDEST SWAP3 SWAP2 POP POP JUMP JUMPDEST PUSH0 DUP2 MLOAD SWAP1 POP SWAP2 SWAP1 POP JUMP JUMPDEST PUSH0 DUP3 DUP3 MSTORE PUSH1 0x20 DUP3 ADD SWAP1 POP SWAP3 SWAP2 POP POP JUMP JUMPDEST PUSH0 JUMPDEST DUP4 DUP2 LT ISZERO PUSH2 0x1858 JUMPI DUP1 DUP3 ADD MLOAD DUP2 DUP5 ADD MSTORE PUSH1 0x20 DUP2 ADD SWAP1 POP PUSH2 0x183D JUMP JUMPDEST PUSH0 DUP5 DUP5 ADD MSTORE POP POP POP POP JUMP JUMPDEST PUSH0 PUSH2 0x186D DUP3 PUSH2 0x1821 JUMP JUMPDEST PUSH2 0x1877 DUP2 DUP6 PUSH2 0x182B JUMP JUMPDEST SWAP4 POP PUSH2 0x1887 DUP2 DUP6 PUSH1 0x20 DUP7 ADD PUSH2 0x183B JUMP JUMPDEST PUSH2 0x1890 DUP2 PUSH2 0x15EA JUMP JUMPDEST DUP5 ADD SWAP2 POP POP SWAP3 SWAP2 POP POP JUMP JUMPDEST PUSH2 0x18A4 DUP2 PUSH2 0x16A1 JUMP JUMPDEST DUP3 MSTORE POP POP JUMP JUMPDEST PUSH0 DUP2 MLOAD SWAP1 POP SWAP2 SWAP1 POP JUMP JUMPDEST PUSH0 DUP3 DUP3 MSTORE PUSH1 0x20 DUP3 ADD SWAP1 POP SWAP3 SWAP2 POP POP JUMP JUMPDEST PUSH0 DUP2 SWAP1 POP PUSH1 0x20 DUP3 ADD SWAP1 POP SWAP2 SWAP1 POP JUMP JUMPDEST PUSH2 0x18DC DUP2 PUSH2 0x16A1 JUMP JUMPDEST DUP3 MSTORE POP POP JUMP JUMPDEST PUSH0 PUSH2 0x18ED DUP4 DUP4 PUSH2 0x18D3 JUMP JUMPDEST PUSH1 0x20 DUP4 ADD SWAP1 POP SWAP3 SWAP2 POP POP JUMP JUMPDEST PUSH0 PUSH1 0x20 DUP3 ADD SWAP1 POP SWAP2 SWAP1 POP JUMP JUMPDEST PUSH0 PUSH2 0x190F DUP3 PUSH2 0x18AA JUMP JUMPDEST PUSH2 0x1919 DUP2 DUP6 PUSH2 0x18B4 JUMP JUMPDEST SWAP4 POP PUSH2 0x1924 DUP4 PUSH2 0x18C4 JUMP JUMPDEST DUP1 PUSH0 JUMPDEST DUP4 DUP2 LT ISZERO PUSH2 0x1954 JUMPI DUP2 MLOAD PUSH2 0x193B DUP9 DUP3 PUSH2 0x18E2 JUMP JUMPDEST SWAP8 POP PUSH2 0x1946 DUP4 PUSH2 0x18F9 JUMP JUMPDEST SWAP3 POP POP PUSH1 0x1 DUP2 ADD SWAP1 POP PUSH2 0x1927 JUMP JUMPDEST POP DUP6 SWAP4 POP POP POP POP SWAP3 SWAP2 POP POP JUMP JUMPDEST PUSH0 PUSH1 0xC0 DUP3 ADD SWAP1 POP DUP2 DUP2 SUB PUSH0 DUP4 ADD MSTORE PUSH2 0x1979 DUP2 DUP10 PUSH2 0x1863 JUMP JUMPDEST SWAP1 POP PUSH2 0x1988 PUSH1 0x20 DUP4 ADD DUP9 PUSH2 0x189B JUMP JUMPDEST DUP2 DUP2 SUB PUSH1 0x40 DUP4 ADD MSTORE PUSH2 0x199A DUP2 DUP8 PUSH2 0x1905 JUMP JUMPDEST SWAP1 POP PUSH2 0x19A9 PUSH1 0x60 DUP4 ADD DUP7 PUSH2 0x189B JUMP JUMPDEST DUP2 DUP2 SUB PUSH1 0x80 DUP4 ADD MSTORE PUSH2 0x19BB DUP2 DUP6 PUSH2 0x1863 JUMP JUMPDEST SWAP1 POP PUSH2 0x19CA PUSH1 0xA0 DUP4 ADD DUP5 PUSH2 0x189B JUMP JUMPDEST SWAP8 SWAP7 POP POP POP POP POP POP POP JUMP JUMPDEST PUSH2 0x19DE DUP2 PUSH2 0x15AB JUMP JUMPDEST DUP3 MSTORE POP POP JUMP JUMPDEST PUSH0 PUSH1 0x20 DUP3 ADD SWAP1 POP PUSH2 0x19F7 PUSH0 DUP4 ADD DUP5 PUSH2 0x19D5 JUMP JUMPDEST SWAP3 SWAP2 POP POP JUMP JUMPDEST PUSH0 PUSH1 0x60 DUP3 ADD SWAP1 POP DUP2 DUP2 SUB PUSH0 DUP4 ADD MSTORE PUSH2 0x1A15 DUP2 DUP7 PUSH2 0x1863 JUMP JUMPDEST SWAP1 POP PUSH2 0x1A24 PUSH1 0x20 DUP4 ADD DUP6 PUSH2 0x189B JUMP JUMPDEST PUSH2 0x1A31 PUSH1 0x40 DUP4 ADD DUP5 PUSH2 0x17F9 JUMP JUMPDEST SWAP5 SWAP4 POP POP POP POP JUMP JUMPDEST PUSH0 DUP1 REVERT JUMPDEST PUSH0 PUSH8 0xFFFFFFFFFFFFFFFF DUP3 GT ISZERO PUSH2 0x1A57 JUMPI PUSH2 0x1A56 PUSH2 0x15FA JUMP JUMPDEST JUMPDEST PUSH2 0x1A60 DUP3 PUSH2 0x15EA JUMP JUMPDEST SWAP1 POP PUSH1 0x20 DUP2 ADD SWAP1 POP SWAP2 SWAP1 POP JUMP JUMPDEST DUP3 DUP2 DUP4 CALLDATACOPY PUSH0 DUP4 DUP4 ADD MSTORE POP POP POP JUMP JUMPDEST PUSH0 PUSH2 0x1A8D PUSH2 0x1A88 DUP5 PUSH2 0x1A3D JUMP JUMPDEST PUSH2 0x1658 JUMP JUMPDEST SWAP1 POP DUP3 DUP2 MSTORE PUSH1 0x20 DUP2 ADD DUP5 DUP5 DUP5 ADD GT ISZERO PUSH2 0x1AA9 JUMPI PUSH2 0x1AA8 PUSH2 0x1A39 JUMP JUMPDEST JUMPDEST PUSH2 0x1AB4 DUP5 DUP3 DUP6 PUSH2 0x1A6D JUMP JUMPDEST POP SWAP4 SWAP3 POP POP POP JUMP JUMPDEST PUSH0 DUP3 PUSH1 0x1F DUP4 ADD SLT PUSH2 0x1AD0 JUMPI PUSH2 0x1ACF PUSH2 0x15E6 JUMP JUMPDEST JUMPDEST DUP2 CALLDATALOAD PUSH2 0x1AE0 DUP5 DUP3 PUSH1 0x20 DUP7 ADD PUSH2 0x1A7B JUMP JUMPDEST SWAP2 POP POP SWAP3 SWAP2 POP POP JUMP JUMPDEST PUSH0 DUP1 PUSH0 PUSH1 0x60 DUP5 DUP7 SUB SLT ISZERO PUSH2 0x1B00 JUMPI PUSH2 0x1AFF PUSH2 0x1584 JUMP JUMPDEST JUMPDEST PUSH0 PUSH2 0x1B0D DUP7 DUP3 DUP8 ADD PUSH2 0x15D2 JUMP JUMPDEST SWAP4 POP POP PUSH1 0x20 DUP5 ADD CALLDATALOAD PUSH8 0xFFFFFFFFFFFFFFFF DUP2 GT ISZERO PUSH2 0x1B2E JUMPI PUSH2 0x1B2D PUSH2 0x1588 JUMP JUMPDEST JUMPDEST PUSH2 0x1B3A DUP7 DUP3 DUP8 ADD PUSH2 0x1ABC JUMP JUMPDEST SWAP3 POP POP PUSH1 0x40 PUSH2 0x1B4B DUP7 DUP3 DUP8 ADD PUSH2 0x16C0 JUMP JUMPDEST SWAP2 POP POP SWAP3 POP SWAP3 POP SWAP3 JUMP JUMPDEST PUSH32 0x4163636573732044656E6965643A204F6E6C7920746561636865720000000000 PUSH0 DUP3 ADD MSTORE POP JUMP JUMPDEST PUSH0 PUSH2 0x1B89 PUSH1 0x1B DUP4 PUSH2 0x182B JUMP JUMPDEST SWAP2 POP PUSH2 0x1B94 DUP3 PUSH2 0x1B55 JUMP JUMPDEST PUSH1 0x20 DUP3 ADD SWAP1 POP SWAP2 SWAP1 POP JUMP JUMPDEST PUSH0 PUSH1 0x20 DUP3 ADD SWAP1 POP DUP2 DUP2 SUB PUSH0 DUP4 ADD MSTORE PUSH2 0x1BB6 DUP2 PUSH2 0x1B7D JUMP JUMPDEST SWAP1 POP SWAP2 SWAP1 POP JUMP JUMPDEST PUSH32 0x436F6E7472616374206973207061757365640000000000000000000000000000 PUSH0 DUP3 ADD MSTORE POP JUMP JUMPDEST PUSH0 PUSH2 0x1BF1 PUSH1 0x12 DUP4 PUSH2 0x182B JUMP JUMPDEST SWAP2 POP PUSH2 0x1BFC DUP3 PUSH2 0x1BBD JUMP JUMPDEST PUSH1 0x20 DUP3 ADD SWAP1 POP SWAP2 SWAP1 POP JUMP JUMPDEST PUSH0 PUSH1 0x20 DUP3 ADD SWAP1 POP DUP2 DUP2 SUB PUSH0 DUP4 ADD MSTORE PUSH2 0x1C1E DUP2 PUSH2 0x1BE5 JUMP JUMPDEST SWAP1 POP SWAP2 SWAP1 POP JUMP JUMPDEST PUSH32 0x53747564656E74206E6F74207265676973746572656400000000000000000000 PUSH0 DUP3 ADD MSTORE POP JUMP JUMPDEST PUSH0 PUSH2 0x1C59 PUSH1 0x16 DUP4 PUSH2 0x182B JUMP JUMPDEST SWAP2 POP PUSH2 0x1C64 DUP3 PUSH2 0x1C25 JUMP JUMPDEST PUSH1 0x20 DUP3 ADD SWAP1 POP SWAP2 SWAP1 POP JUMP JUMPDEST PUSH0 PUSH1 0x20 DUP3 ADD SWAP1 POP DUP2 DUP2 SUB PUSH0 DUP4 ADD MSTORE PUSH2 0x1C86 DUP2 PUSH2 0x1C4D JUMP JUMPDEST SWAP1 POP SWAP2 SWAP1 POP JUMP JUMPDEST PUSH32 0x4E6F206D61726B732070726F7669646564000000000000000000000000000000 PUSH0 DUP3 ADD MSTORE POP JUMP JUMPDEST PUSH0 PUSH2 0x1CC1 PUSH1 0x11 DUP4 PUSH2 0x182B JUMP JUMPDEST SWAP2 POP PUSH2 0x1CCC DUP3 PUSH2 0x1C8D JUMP JUMPDEST PUSH1 0x20 DUP3 ADD SWAP1 POP SWAP2 SWAP1 POP JUMP JUMPDEST PUSH0 PUSH1 0x20 DUP3 ADD SWAP1 POP DUP2 DUP2 SUB PUSH0 DUP4 ADD MSTORE PUSH2 0x1CEE DUP2 PUSH2 0x1CB5 JUMP JUMPDEST SWAP1 POP SWAP2 SWAP1 POP JUMP JUMPDEST PUSH32 0x4E487B7100000000000000000000000000000000000000000000000000000000 PUSH0 MSTORE PUSH1 0x32 PUSH1 0x4 MSTORE PUSH1 0x24 PUSH0 REVERT JUMPDEST PUSH32 0x496E76616C6964206D61726B3A206D757374206265203C3D2031303000000000 PUSH0 DUP3 ADD MSTORE POP JUMP JUMPDEST PUSH0 PUSH2 0x1D56 PUSH1 0x1C DUP4 PUSH2 0x182B JUMP JUMPDEST SWAP2 POP PUSH2 0x1D61 DUP3 PUSH2 0x1D22 JUMP JUMPDEST PUSH1 0x20 DUP3 ADD SWAP1 POP SWAP2 SWAP1 POP JUMP JUMPDEST PUSH0 PUSH1 0x20 DUP3 ADD SWAP1 POP DUP2 DUP2 SUB PUSH0 DUP4 ADD MSTORE PUSH2 0x1D83 DUP2 PUSH2 0x1D4A JUMP JUMPDEST SWAP1 POP SWAP2 SWAP1 POP JUMP JUMPDEST PUSH32 0x4E487B7100000000000000000000000000000000000000000000000000000000 PUSH0 MSTORE PUSH1 0x11 PUSH1 0x4 MSTORE PUSH1 0x24 PUSH0 REVERT JUMPDEST PUSH0 PUSH2 0x1DC1 DUP3 PUSH2 0x16A1 JUMP JUMPDEST SWAP2 POP PUSH2 0x1DCC DUP4 PUSH2 0x16A1 JUMP JUMPDEST SWAP3 POP DUP3 DUP3 ADD SWAP1 POP DUP1 DUP3 GT ISZERO PUSH2 0x1DE4 JUMPI PUSH2 0x1DE3 PUSH2 0x1D8A JUMP JUMPDEST JUMPDEST SWAP3 SWAP2 POP POP JUMP JUMPDEST PUSH0 PUSH2 0x1DF4 DUP3 PUSH2 0x16A1 JUMP JUMPDEST SWAP2 POP PUSH32 0xFFFFFFFFFFFFFFFFFFFFFFFFFFFFFFFFFFFFFFFFFFFFFFFFFFFFFFFFFFFFFFFF DUP3 SUB PUSH2 0x1E26 JUMPI PUSH2 0x1E25 PUSH2 0x1D8A JUMP JUMPDEST JUMPDEST PUSH1 0x1 DUP3 ADD SWAP1 POP SWAP2 SWAP1 POP JUMP JUMPDEST PUSH32 0x4E487B7100000000000000000000000000000000000000000000000000000000 PUSH0 MSTORE PUSH1 0x12 PUSH1 0x4 MSTORE PUSH1 0x24 PUSH0 REVERT JUMPDEST PUSH0 PUSH2 0x1E68 DUP3 PUSH2 0x16A1 JUMP JUMPDEST SWAP2 POP PUSH2 0x1E73 DUP4 PUSH2 0x16A1 JUMP JUMPDEST SWAP3 POP DUP3 PUSH2 0x1E83 JUMPI PUSH2 0x1E82 PUSH2 0x1E31 JUMP JUMPDEST JUMPDEST DUP3 DUP3 DIV SWAP1 POP SWAP3 SWAP2 POP POP JUMP JUMPDEST PUSH0 DUP2 SLOAD SWAP1 POP SWAP2 SWAP1 POP JUMP JUMPDEST PUSH0 DUP2 SWAP1 POP DUP2 PUSH0 MSTORE PUSH1 0x20 PUSH0 KECCAK256 SWAP1 POP SWAP2 SWAP1 POP JUMP JUMPDEST PUSH0 DUP2 PUSH0 SHR SWAP1 POP SWAP2 SWAP1 POP JUMP JUMPDEST PUSH0 DUP2 SWAP1 POP SWAP2 SWAP1 POP JUMP JUMPDEST PUSH0 PUSH2 0x1ED0 PUSH2 0x1ECB DUP4 PUSH2 0x1EAA JUMP JUMPDEST PUSH2 0x1EB5 JUMP JUMPDEST SWAP1 POP SWAP2 SWAP1 POP JUMP JUMPDEST PUSH0 PUSH2 0x1EE2 DUP3 SLOAD PUSH2 0x1EBE JUMP JUMPDEST SWAP1 POP SWAP2 SWAP1 POP JUMP JUMPDEST PUSH0 PUSH1 0x1 DUP3 ADD SWAP1 POP SWAP2 SWAP1 POP JUMP JUMPDEST PUSH0 PUSH2 0x1EFF DUP3 PUSH2 0x1E8E JUMP JUMPDEST PUSH2 0x1F09 DUP2 DUP6 PUSH2 0x18B4 JUMP JUMPDEST SWAP4 POP PUSH2 0x1F14 DUP4 PUSH2 0x1E98 JUMP JUMPDEST DUP1 PUSH0 JUMPDEST DUP4 DUP2 LT ISZERO PUSH2 0x1F4B JUMPI PUSH2 0x1F28 DUP3 PUSH2 0x1ED7 JUMP JUMPDEST PUSH2 0x1F32 DUP9 DUP3 PUSH2 0x18E2 JUMP JUMPDEST SWAP8 POP PUSH2 0x1F3D DUP4 PUSH2 0x1EE9 JUMP JUMPDEST SWAP3 POP POP PUSH1 0x1 DUP2 ADD SWAP1 POP PUSH2 0x1F17 JUMP JUMPDEST POP DUP6 SWAP4 POP POP POP POP SWAP3 SWAP2 POP POP JUMP JUMPDEST PUSH0 PUSH1 0x40 DUP3 ADD SWAP1 POP DUP2 DUP2 SUB PUSH0 DUP4 ADD MSTORE PUSH2 0x1F70 DUP2 DUP6 PUSH2 0x1EF5 JUMP JUMPDEST SWAP1 POP DUP2 DUP2 SUB PUSH1 0x20 DUP4 ADD MSTORE PUSH2 0x1F84 DUP2 DUP5 PUSH2 0x1905 JUMP JUMPDEST SWAP1 POP SWAP4 SWAP3 POP POP POP JUMP JUMPDEST PUSH0 PUSH1 0x40 DUP3 ADD SWAP1 POP DUP2 DUP2 SUB PUSH0 DUP4 ADD MSTORE PUSH2 0x1FA5 DUP2 DUP6 PUSH2 0x1905 JUMP JUMPDEST SWAP1 POP DUP2 DUP2 SUB PUSH1 0x20 DUP4 ADD MSTORE PUSH2 0x1FB9 DUP2 DUP5 PUSH2 0x1863 JUMP JUMPDEST SWAP1 POP SWAP4 SWAP3 POP POP POP JUMP JUMPDEST PUSH32 0x4E487B7100000000000000000000000000000000000000000000000000000000 PUSH0 MSTORE PUSH1 0x22 PUSH1 0x4 MSTORE PUSH1 0x24 PUSH0 REVERT JUMPDEST PUSH0 PUSH1 0x2 DUP3 DIV SWAP1 POP PUSH1 0x1 DUP3 AND DUP1 PUSH2 0x2006 JUMPI PUSH1 0x7F DUP3 AND SWAP2 POP JUMPDEST PUSH1 0x20 DUP3 LT DUP2 SUB PUSH2 0x2019 JUMPI PUSH2 0x2018 PUSH2 0x1FC2 JUMP JUMPDEST JUMPDEST POP SWAP2 SWAP1 POP JUMP JUMPDEST PUSH0 DUP2 SWAP1 POP DUP2 PUSH0 MSTORE PUSH1 0x20 PUSH0 KECCAK256 SWAP1 POP SWAP2 SWAP1 POP JUMP JUMPDEST PUSH0 PUSH1 0x20 PUSH1 0x1F DUP4 ADD DIV SWAP1 POP SWAP2 SWAP1 POP JUMP JUMPDEST PUSH0 DUP3 DUP3 SHL SWAP1 POP SWAP3 SWAP2 POP POP JUMP JUMPDEST PUSH0 PUSH1 0x8 DUP4 MUL PUSH2 0x207B PUSH32 0xFFFFFFFFFFFFFFFFFFFFFFFFFFFFFFFFFFFFFFFFFFFFFFFFFFFFFFFFFFFFFFFF DUP3 PUSH2 0x2040 JUMP JUMPDEST PUSH2 0x2085 DUP7 DUP4 PUSH2 0x2040 JUMP JUMPDEST SWAP6 POP DUP1 NOT DUP5 AND SWAP4 POP DUP1 DUP7 AND DUP5 OR SWAP3 POP POP POP SWAP4 SWAP3 POP POP POP JUMP JUMPDEST PUSH0 DUP2 SWAP1 POP SWAP2 SWAP1 POP JUMP JUMPDEST PUSH0 PUSH2 0x20C0 PUSH2 0x20BB PUSH2 0x20B6 DUP5 PUSH2 0x16A1 JUMP JUMPDEST PUSH2 0x209D JUMP JUMPDEST PUSH2 0x16A1 JUMP JUMPDEST SWAP1 POP SWAP2 SWAP1 POP JUMP JUMPDEST PUSH0 DUP2 SWAP1 POP SWAP2 SWAP1 POP JUMP JUMPDEST PUSH2 0x20D9 DUP4 PUSH2 0x20A6 JUMP JUMPDEST PUSH2 0x20ED PUSH2 0x20E5 DUP3 PUSH2 0x20C7 JUMP JUMPDEST DUP5 DUP5 SLOAD PUSH2 0x204C JUMP JUMPDEST DUP3 SSTORE POP POP POP POP JUMP JUMPDEST PUSH0 SWAP1 JUMP JUMPDEST PUSH2 0x2101 PUSH2 0x20F5 JUMP JUMPDEST PUSH2 0x210C DUP2 DUP5 DUP5 PUSH2 0x20D0 JUMP JUMPDEST POP POP POP JUMP JUMPDEST JUMPDEST DUP2 DUP2 LT ISZERO PUSH2 0x212F JUMPI PUSH2 0x2124 PUSH0 DUP3 PUSH2 0x20F9 JUMP JUMPDEST PUSH1 0x1 DUP2 ADD SWAP1 POP PUSH2 0x2112 JUMP JUMPDEST POP POP JUMP JUMPDEST PUSH1 0x1F DUP3 GT ISZERO PUSH2 0x2174 JUMPI PUSH2 0x2145 DUP2 PUSH2 0x201F JUMP JUMPDEST PUSH2 0x214E DUP5 PUSH2 0x2031 JUMP JUMPDEST DUP2 ADD PUSH1 0x20 DUP6 LT ISZERO PUSH2 0x215D JUMPI DUP2 SWAP1 POP JUMPDEST PUSH2 0x2171 PUSH2 0x2169 DUP6 PUSH2 0x2031 JUMP JUMPDEST DUP4 ADD DUP3 PUSH2 0x2111 JUMP JUMPDEST POP POP JUMPDEST POP POP POP JUMP JUMPDEST PUSH0 DUP3 DUP3 SHR SWAP1 POP SWAP3 SWAP2 POP POP JUMP JUMPDEST PUSH0 PUSH2 0x2194 PUSH0 NOT DUP5 PUSH1 0x8 MUL PUSH2 0x2179 JUMP JUMPDEST NOT DUP1 DUP4 AND SWAP2 POP POP SWAP3 SWAP2 POP POP JUMP JUMPDEST PUSH0 PUSH2 0x21AC DUP4 DUP4 PUSH2 0x2185 JUMP JUMPDEST SWAP2 POP DUP3 PUSH1 0x2 MUL DUP3 OR SWAP1 POP SWAP3 SWAP2 POP POP JUMP JUMPDEST PUSH2 0x21C5 DUP3 PUSH2 0x1821 JUMP JUMPDEST PUSH8 0xFFFFFFFFFFFFFFFF DUP2 GT ISZERO PUSH2 0x21DE JUMPI PUSH2 0x21DD PUSH2 0x15FA JUMP JUMPDEST JUMPDEST PUSH2 0x21E8 DUP3 SLOAD PUSH2 0x1FEF JUMP JUMPDEST PUSH2 0x21F3 DUP3 DUP3 DUP6 PUSH2 0x2133 JUMP JUMPDEST PUSH0 PUSH1 0x20 SWAP1 POP PUSH1 0x1F DUP4 GT PUSH1 0x1 DUP2 EQ PUSH2 0x2224 JUMPI PUSH0 DUP5 ISZERO PUSH2 0x2212 JUMPI DUP3 DUP8 ADD MLOAD SWAP1 POP JUMPDEST PUSH2 0x221C DUP6 DUP3 PUSH2 0x21A1 JUMP JUMPDEST DUP7 SSTORE POP PUSH2 0x2283 JUMP JUMPDEST PUSH1 0x1F NOT DUP5 AND PUSH2 0x2232 DUP7 PUSH2 0x201F JUMP JUMPDEST PUSH0 JUMPDEST DUP3 DUP2 LT ISZERO PUSH2 0x2259 JUMPI DUP5 DUP10 ADD MLOAD DUP3 SSTORE PUSH1 0x1 DUP3 ADD SWAP2 POP PUSH1 0x20 DUP6 ADD SWAP5 POP PUSH1 0x20 DUP2 ADD SWAP1 POP PUSH2 0x2234 JUMP JUMPDEST DUP7 DUP4 LT ISZERO PUSH2 0x2276 JUMPI DUP5 DUP10 ADD MLOAD PUSH2 0x2272 PUSH1 0x1F DUP10 AND DUP3 PUSH2 0x2185 JUMP JUMPDEST DUP4 SSTORE POP JUMPDEST PUSH1 0x1 PUSH1 0x2 DUP9 MUL ADD DUP9 SSTORE POP POP POP JUMPDEST POP POP POP POP POP POP JUMP JUMPDEST PUSH32 0x4163636573732044656E6965643A204F6E6C79206F776E657200000000000000 PUSH0 DUP3 ADD MSTORE POP JUMP JUMPDEST PUSH0 PUSH2 0x22BF PUSH1 0x19 DUP4 PUSH2 0x182B JUMP JUMPDEST SWAP2 POP PUSH2 0x22CA DUP3 PUSH2 0x228B JUMP JUMPDEST PUSH1 0x20 DUP3 ADD SWAP1 POP SWAP2 SWAP1 POP JUMP JUMPDEST PUSH0 PUSH1 0x20 DUP3 ADD SWAP1 POP DUP2 DUP2 SUB PUSH0 DUP4 ADD MSTORE PUSH2 0x22EC DUP2 PUSH2 0x22B3 JUMP JUMPDEST SWAP1 POP SWAP2 SWAP1 POP JUMP JUMPDEST PUSH32 0x416C726561647920612074656163686572000000000000000000000000000000 PUSH0 DUP3 ADD MSTORE POP JUMP JUMPDEST PUSH0 PUSH2 0x2327 PUSH1 0x11 DUP4 PUSH2 0x182B JUMP JUMPDEST SWAP2 POP PUSH2 0x2332 DUP3 PUSH2 0x22F3 JUMP JUMPDEST PUSH1 0x20 DUP3 ADD SWAP1 POP SWAP2 SWAP1 POP JUMP JUMPDEST PUSH0 PUSH1 0x20 DUP3 ADD SWAP1 POP DUP2 DUP2 SUB PUSH0 DUP4 ADD MSTORE PUSH2 0x2354 DUP2 PUSH2 0x231B JUMP JUMPDEST SWAP1 POP SWAP2 SWAP1 POP JUMP JUMPDEST PUSH32 0x4E6F742061207465616368657200000000000000000000000000000000000000 PUSH0 DUP3 ADD MSTORE POP JUMP JUMPDEST PUSH0 PUSH2 0x238F PUSH1 0xD DUP4 PUSH2 0x182B JUMP JUMPDEST SWAP2 POP PUSH2 0x239A DUP3 PUSH2 0x235B JUMP JUMPDEST PUSH1 0x20 DUP3 ADD SWAP1 POP SWAP2 SWAP1 POP JUMP JUMPDEST PUSH0 PUSH1 0x20 DUP3 ADD SWAP1 POP DUP2 DUP2 SUB PUSH0 DUP4 ADD MSTORE PUSH2 0x23BC DUP2 PUSH2 0x2383 JUMP JUMPDEST SWAP1 POP SWAP2 SWAP1 POP JUMP JUMPDEST PUSH32 0x53747564656E7420616C72656164792072656769737465726564000000000000 PUSH0 DUP3 ADD MSTORE POP JUMP JUMPDEST PUSH0 PUSH2 0x23F7 PUSH1 0x1A DUP4 PUSH2 0x182B JUMP JUMPDEST SWAP2 POP PUSH2 0x2402 DUP3 PUSH2 0x23C3 JUMP JUMPDEST PUSH1 0x20 DUP3 ADD SWAP1 POP SWAP2 SWAP1 POP JUMP JUMPDEST PUSH0 PUSH1 0x20 DUP3 ADD SWAP1 POP DUP2 DUP2 SUB PUSH0 DUP4 ADD MSTORE PUSH2 0x2424 DUP2 PUSH2 0x23EB JUMP JUMPDEST SWAP1 POP SWAP2 SWAP1 POP JUMP JUMPDEST PUSH0 PUSH1 0x40 DUP3 ADD SWAP1 POP DUP2 DUP2 SUB PUSH0 DUP4 ADD MSTORE PUSH2 0x2443 DUP2 DUP6 PUSH2 0x1863 JUMP JUMPDEST SWAP1 POP PUSH2 0x2452 PUSH1 0x20 DUP4 ADD DUP5 PUSH2 0x189B JUMP JUMPDEST SWAP4 SWAP3 POP POP POP JUMP JUMPDEST PUSH32 0x496E76616C696420616464726573730000000000000000000000000000000000 PUSH0 DUP3 ADD MSTORE POP JUMP JUMPDEST PUSH0 PUSH2 0x248D PUSH1 0xF DUP4 PUSH2 0x182B JUMP JUMPDEST SWAP2 POP PUSH2 0x2498 DUP3 PUSH2 0x2459 JUMP JUMPDEST PUSH1 0x20 DUP3 ADD SWAP1 POP SWAP2 SWAP1 POP JUMP JUMPDEST PUSH0 PUSH1 0x20 DUP3 ADD SWAP1 POP DUP2 DUP2 SUB PUSH0 DUP4 ADD MSTORE PUSH2 0x24BA DUP2 PUSH2 0x2481 JUMP JUMPDEST SWAP1 POP SWAP2 SWAP1 POP JUMP INVALID LOG2 PUSH5 0x6970667358 0x22 SLT KECCAK256 CHAINID 0xAE SWAP4 DUP13 BASEFEE 0xEC CHAINID PUSH23 0x7C977AD9E2C027C74C9932928C089F6FFEF1F8DE741EAB RETURNDATASIZE PUSH5 0x736F6C6343 STOP ADDMOD EQ STOP CALLER "
				},
				"gasEstimates": {
					"creation": {
						"codeDepositCost": "1892600",
						"executionCost": "74930",
						"totalCost": "1967530"
					},
					"external": {
						"addTeacher(address)": "30396",
						"assignMarks(address,uint256[])": "infinite",
						"getMarksheet(address)": "infinite",
						"isTeacher(address)": "2936",
						"owner()": "2527",
						"pause()": "27785",
						"paused()": "2605",
						"registerStudent(address,string,uint256)": "infinite",
						"removeTeacher(address)": "30436",
						"students(address)": "infinite",
						"transferOwnership(address)": "27025",
						"unpause()": "27830"
					},
					"internal": {
						"calculateGrade(uint256)": "infinite"
					}
				},
				"methodIdentifiers": {
					"addTeacher(address)": "3bc6e309",
					"assignMarks(address,uint256[])": "277c6263",
					"getMarksheet(address)": "70188500",
					"isTeacher(address)": "aec37eb3",
					"owner()": "8da5cb5b",
					"pause()": "8456cb59",
					"paused()": "5c975abb",
					"registerStudent(address,string,uint256)": "d47f9d13",
					"removeTeacher(address)": "52ff6846",
					"students(address)": "a6c807a9",
					"transferOwnership(address)": "f2fde38b",
					"unpause()": "3f4ba83a"
				}
			},
			"storageLayout": {
				"storage": [
					{
						"astId": 3,
						"contract": "hard_marksheet.sol:MarksheetManagement",
						"label": "owner",
						"offset": 0,
						"slot": "0",
						"type": "t_address"
					},
					{
						"astId": 6,
						"contract": "hard_marksheet.sol:MarksheetManagement",
						"label": "paused",
						"offset": 20,
						"slot": "0",
						"type": "t_bool"
					},
					{
						"astId": 10,
						"contract": "hard_marksheet.sol:MarksheetManagement",
						"label": "teachers",
						"offset": 0,
						"slot": "1",
						"type": "t_mapping(t_address,t_bool)"
					},
					{
						"astId": 32,
						"contract": "hard_marksheet.sol:MarksheetManagement",
						"label": "students",
						"offset": 0,
						"slot": "2",
						"type": "t_mapping(t_address,t_struct(Student)17_storage)"
					},
					{
						"astId": 37,
						"contract": "hard_marksheet.sol:MarksheetManagement",
						"label": "marksheets",
						"offset": 0,
						"slot": "3",
						"type": "t_mapping(t_address,t_struct(Marksheet)27_storage)"
					}
				],
				"types": {
					"t_address": {
						"encoding": "inplace",
						"label": "address",
						"numberOfBytes": "20"
					},
					"t_array(t_uint256)dyn_storage": {
						"base": "t_uint256",
						"encoding": "dynamic_array",
						"label": "uint256[]",
						"numberOfBytes": "32"
					},
					"t_bool": {
						"encoding": "inplace",
						"label": "bool",
						"numberOfBytes": "1"
					},
					"t_mapping(t_address,t_bool)": {
						"encoding": "mapping",
						"key": "t_address",
						"label": "mapping(address => bool)",
						"numberOfBytes": "32",
						"value": "t_bool"
					},
					"t_mapping(t_address,t_struct(Marksheet)27_storage)": {
						"encoding": "mapping",
						"key": "t_address",
						"label": "mapping(address => struct MarksheetManagement.Marksheet)",
						"numberOfBytes": "32",
						"value": "t_struct(Marksheet)27_storage"
					},
					"t_mapping(t_address,t_struct(Student)17_storage)": {
						"encoding": "mapping",
						"key": "t_address",
						"label": "mapping(address => struct MarksheetManagement.Student)",
						"numberOfBytes": "32",
						"value": "t_struct(Student)17_storage"
					},
					"t_string_storage": {
						"encoding": "bytes",
						"label": "string",
						"numberOfBytes": "32"
					},
					"t_struct(Marksheet)27_storage": {
						"encoding": "inplace",
						"label": "struct MarksheetManagement.Marksheet",
						"members": [
							{
								"astId": 20,
								"contract": "hard_marksheet.sol:MarksheetManagement",
								"label": "subjectMarks",
								"offset": 0,
								"slot": "0",
								"type": "t_array(t_uint256)dyn_storage"
							},
							{
								"astId": 22,
								"contract": "hard_marksheet.sol:MarksheetManagement",
								"label": "totalMarks",
								"offset": 0,
								"slot": "1",
								"type": "t_uint256"
							},
							{
								"astId": 24,
								"contract": "hard_marksheet.sol:MarksheetManagement",
								"label": "grade",
								"offset": 0,
								"slot": "2",
								"type": "t_string_storage"
							},
							{
								"astId": 26,
								"contract": "hard_marksheet.sol:MarksheetManagement",
								"label": "lastUpdated",
								"offset": 0,
								"slot": "3",
								"type": "t_uint256"
							}
						],
						"numberOfBytes": "128"
					},
					"t_struct(Student)17_storage": {
						"encoding": "inplace",
						"label": "struct MarksheetManagement.Student",
						"members": [
							{
								"astId": 12,
								"contract": "hard_marksheet.sol:MarksheetManagement",
								"label": "name",
								"offset": 0,
								"slot": "0",
								"type": "t_string_storage"
							},
							{
								"astId": 14,
								"contract": "hard_marksheet.sol:MarksheetManagement",
								"label": "rollNumber",
								"offset": 0,
								"slot": "1",
								"type": "t_uint256"
							},
							{
								"astId": 16,
								"contract": "hard_marksheet.sol:MarksheetManagement",
								"label": "registered",
								"offset": 0,
								"slot": "2",
								"type": "t_bool"
							}
						],
						"numberOfBytes": "96"
					},
					"t_uint256": {
						"encoding": "inplace",
						"label": "uint256",
						"numberOfBytes": "32"
					}
				}
			},
			"userdoc": {
				"kind": "user",
				"methods": {},
				"version": 1
			}
		}
	}
}